{
	"contracts/lottery.sol": {
		"Lottery": {
			"abi": [
				{
					"inputs": [
						{
							"internalType": "address payable",
							"name": "playerAddress",
							"type": "address"
						}
					],
					"name": "isAddressPlaying",
					"outputs": [
						{
							"internalType": "uint256",
							"name": "",
							"type": "uint256"
						}
					],
					"stateMutability": "view",
					"type": "function"
				},
				{
					"inputs": [
						{
							"internalType": "address",
							"name": "",
							"type": "address"
						}
					],
					"name": "map_isPlaying",
					"outputs": [
						{
							"internalType": "bool",
							"name": "",
							"type": "bool"
						}
					],
					"stateMutability": "view",
					"type": "function"
				},
				{
					"inputs": [
						{
							"internalType": "address payable",
							"name": "playerAddress",
							"type": "address"
						}
					],
					"name": "registerAddress",
					"outputs": [],
					"stateMutability": "nonpayable",
					"type": "function"
				}
			],
			"devdoc": {
				"custom:dev-run-script": "./scripts/deploy_with_ethers.ts",
				"details": "A blockchain lottery",
				"kind": "dev",
				"methods": {},
				"title": "Lottery",
				"version": 1
			},
			"evm": {
				"assembly": "    /* \"contracts/lottery.sol\":192:868  contract Lottery {\r... */\n  mstore(0x40, 0x80)\n  callvalue\n  dup1\n  iszero\n  tag_1\n  jumpi\n  0x00\n  dup1\n  revert\ntag_1:\n  pop\n  dataSize(sub_0)\n  dup1\n  dataOffset(sub_0)\n  0x00\n  codecopy\n  0x00\n  return\nstop\n\nsub_0: assembly {\n        /* \"contracts/lottery.sol\":192:868  contract Lottery {\r... */\n      mstore(0x40, 0x80)\n      callvalue\n      dup1\n      iszero\n      tag_1\n      jumpi\n      0x00\n      dup1\n      revert\n    tag_1:\n      pop\n      jumpi(tag_2, lt(calldatasize, 0x04))\n      shr(0xe0, calldataload(0x00))\n      dup1\n      0x912a90bb\n      eq\n      tag_3\n      jumpi\n      dup1\n      0xa8a54008\n      eq\n      tag_4\n      jumpi\n      dup1\n      0xbff82dee\n      eq\n      tag_5\n      jumpi\n    tag_2:\n      0x00\n      dup1\n      revert\n        /* \"contracts/lottery.sol\":702:865  function isAddressPlaying(address payable playerAddress) public view returns (uint256) {\r... */\n    tag_3:\n      tag_6\n      0x04\n      dup1\n      calldatasize\n      sub\n      dup2\n      add\n      swap1\n      tag_7\n      swap2\n      swap1\n      tag_8\n      jump\t// in\n    tag_7:\n      tag_9\n      jump\t// in\n    tag_6:\n      mload(0x40)\n      tag_10\n      swap2\n      swap1\n      tag_11\n      jump\t// in\n    tag_10:\n      mload(0x40)\n      dup1\n      swap2\n      sub\n      swap1\n      return\n        /* \"contracts/lottery.sol\":270:690  function registerAddress(address payable playerAddress) public {\r... */\n    tag_4:\n      tag_12\n      0x04\n      dup1\n      calldatasize\n      sub\n      dup2\n      add\n      swap1\n      tag_13\n      swap2\n      swap1\n      tag_8\n      jump\t// in\n    tag_13:\n      tag_14\n      jump\t// in\n    tag_12:\n      stop\n        /* \"contracts/lottery.sol\":216:261  mapping(address => bool) public map_isPlaying */\n    tag_5:\n      tag_15\n      0x04\n      dup1\n      calldatasize\n      sub\n      dup2\n      add\n      swap1\n      tag_16\n      swap2\n      swap1\n      tag_17\n      jump\t// in\n    tag_16:\n      tag_18\n      jump\t// in\n    tag_15:\n      mload(0x40)\n      tag_19\n      swap2\n      swap1\n      tag_20\n      jump\t// in\n    tag_19:\n      mload(0x40)\n      dup1\n      swap2\n      sub\n      swap1\n      return\n        /* \"contracts/lottery.sol\":702:865  function isAddressPlaying(address payable playerAddress) public view returns (uint256) {\r... */\n    tag_9:\n        /* \"contracts/lottery.sol\":780:787  uint256 */\n      0x00\n        /* \"contracts/lottery.sol\":855:857  55 */\n      0x37\n        /* \"contracts/lottery.sol\":848:857  return 55 */\n      swap1\n      pop\n        /* \"contracts/lottery.sol\":702:865  function isAddressPlaying(address payable playerAddress) public view returns (uint256) {\r... */\n      swap2\n      swap1\n      pop\n      jump\t// out\n        /* \"contracts/lottery.sol\":270:690  function registerAddress(address payable playerAddress) public {\r... */\n    tag_14:\n        /* \"contracts/lottery.sol\":449:463  bool isPlaying */\n      0x00\n        /* \"contracts/lottery.sol\":466:479  map_isPlaying */\n      dup1\n        /* \"contracts/lottery.sol\":466:494  map_isPlaying[playerAddress] */\n      0x00\n        /* \"contracts/lottery.sol\":480:493  playerAddress */\n      dup4\n        /* \"contracts/lottery.sol\":466:494  map_isPlaying[playerAddress] */\n      0xffffffffffffffffffffffffffffffffffffffff\n      and\n      0xffffffffffffffffffffffffffffffffffffffff\n      and\n      dup2\n      mstore\n      0x20\n      add\n      swap1\n      dup2\n      mstore\n      0x20\n      add\n      0x00\n      keccak256\n      0x00\n      swap1\n      sload\n      swap1\n      0x0100\n      exp\n      swap1\n      div\n      0xff\n      and\n        /* \"contracts/lottery.sol\":449:494  bool isPlaying = map_isPlaying[playerAddress] */\n      swap1\n      pop\n        /* \"contracts/lottery.sol\":513:522  isPlaying */\n      dup1\n        /* \"contracts/lottery.sol\":505:572  require(isPlaying, \"This address has already entered the lottery.\") */\n      tag_23\n      jumpi\n      mload(0x40)\n      0x08c379a000000000000000000000000000000000000000000000000000000000\n      dup2\n      mstore\n      0x04\n      add\n      tag_24\n      swap1\n      tag_25\n      jump\t// in\n    tag_24:\n      mload(0x40)\n      dup1\n      swap2\n      sub\n      swap1\n      revert\n    tag_23:\n        /* \"contracts/lottery.sol\":678:682  true */\n      0x01\n        /* \"contracts/lottery.sol\":647:660  map_isPlaying */\n      0x00\n        /* \"contracts/lottery.sol\":647:675  map_isPlaying[playerAddress] */\n      dup1\n        /* \"contracts/lottery.sol\":661:674  playerAddress */\n      dup5\n        /* \"contracts/lottery.sol\":647:675  map_isPlaying[playerAddress] */\n      0xffffffffffffffffffffffffffffffffffffffff\n      and\n      0xffffffffffffffffffffffffffffffffffffffff\n      and\n      dup2\n      mstore\n      0x20\n      add\n      swap1\n      dup2\n      mstore\n      0x20\n      add\n      0x00\n      keccak256\n      0x00\n        /* \"contracts/lottery.sol\":647:682  map_isPlaying[playerAddress] = true */\n      0x0100\n      exp\n      dup2\n      sload\n      dup2\n      0xff\n      mul\n      not\n      and\n      swap1\n      dup4\n      iszero\n      iszero\n      mul\n      or\n      swap1\n      sstore\n      pop\n        /* \"contracts/lottery.sol\":333:690  {\r... */\n      pop\n        /* \"contracts/lottery.sol\":270:690  function registerAddress(address payable playerAddress) public {\r... */\n      pop\n      jump\t// out\n        /* \"contracts/lottery.sol\":216:261  mapping(address => bool) public map_isPlaying */\n    tag_18:\n      mstore(0x20, 0x00)\n      dup1\n      0x00\n      mstore\n      keccak256(0x00, 0x40)\n      0x00\n      swap2\n      pop\n      sload\n      swap1\n      0x0100\n      exp\n      swap1\n      div\n      0xff\n      and\n      dup2\n      jump\t// out\n        /* \"#utility.yul\":7:146   */\n    tag_27:\n        /* \"#utility.yul\":53:58   */\n      0x00\n        /* \"#utility.yul\":91:97   */\n      dup2\n        /* \"#utility.yul\":78:98   */\n      calldataload\n        /* \"#utility.yul\":69:98   */\n      swap1\n      pop\n        /* \"#utility.yul\":107:140   */\n      tag_29\n        /* \"#utility.yul\":134:139   */\n      dup2\n        /* \"#utility.yul\":107:140   */\n      tag_30\n      jump\t// in\n    tag_29:\n        /* \"#utility.yul\":7:146   */\n      swap3\n      swap2\n      pop\n      pop\n      jump\t// out\n        /* \"#utility.yul\":152:307   */\n    tag_31:\n        /* \"#utility.yul\":206:211   */\n      0x00\n        /* \"#utility.yul\":244:250   */\n      dup2\n        /* \"#utility.yul\":231:251   */\n      calldataload\n        /* \"#utility.yul\":222:251   */\n      swap1\n      pop\n        /* \"#utility.yul\":260:301   */\n      tag_33\n        /* \"#utility.yul\":295:300   */\n      dup2\n        /* \"#utility.yul\":260:301   */\n      tag_34\n      jump\t// in\n    tag_33:\n        /* \"#utility.yul\":152:307   */\n      swap3\n      swap2\n      pop\n      pop\n      jump\t// out\n        /* \"#utility.yul\":313:642   */\n    tag_17:\n        /* \"#utility.yul\":372:378   */\n      0x00\n        /* \"#utility.yul\":421:423   */\n      0x20\n        /* \"#utility.yul\":409:418   */\n      dup3\n        /* \"#utility.yul\":400:407   */\n      dup5\n        /* \"#utility.yul\":396:419   */\n      sub\n        /* \"#utility.yul\":392:424   */\n      slt\n        /* \"#utility.yul\":389:508   */\n      iszero\n      tag_36\n      jumpi\n        /* \"#utility.yul\":427:506   */\n      tag_37\n      tag_38\n      jump\t// in\n    tag_37:\n        /* \"#utility.yul\":389:508   */\n    tag_36:\n        /* \"#utility.yul\":547:548   */\n      0x00\n        /* \"#utility.yul\":572:625   */\n      tag_39\n        /* \"#utility.yul\":617:624   */\n      dup5\n        /* \"#utility.yul\":608:614   */\n      dup3\n        /* \"#utility.yul\":597:606   */\n      dup6\n        /* \"#utility.yul\":593:615   */\n      add\n        /* \"#utility.yul\":572:625   */\n      tag_27\n      jump\t// in\n    tag_39:\n        /* \"#utility.yul\":562:625   */\n      swap2\n      pop\n        /* \"#utility.yul\":518:635   */\n      pop\n        /* \"#utility.yul\":313:642   */\n      swap3\n      swap2\n      pop\n      pop\n      jump\t// out\n        /* \"#utility.yul\":648:993   */\n    tag_8:\n        /* \"#utility.yul\":715:721   */\n      0x00\n        /* \"#utility.yul\":764:766   */\n      0x20\n        /* \"#utility.yul\":752:761   */\n      dup3\n        /* \"#utility.yul\":743:750   */\n      dup5\n        /* \"#utility.yul\":739:762   */\n      sub\n        /* \"#utility.yul\":735:767   */\n      slt\n        /* \"#utility.yul\":732:851   */\n      iszero\n      tag_41\n      jumpi\n        /* \"#utility.yul\":770:849   */\n      tag_42\n      tag_38\n      jump\t// in\n    tag_42:\n        /* \"#utility.yul\":732:851   */\n    tag_41:\n        /* \"#utility.yul\":890:891   */\n      0x00\n        /* \"#utility.yul\":915:976   */\n      tag_43\n        /* \"#utility.yul\":968:975   */\n      dup5\n        /* \"#utility.yul\":959:965   */\n      dup3\n        /* \"#utility.yul\":948:957   */\n      dup6\n        /* \"#utility.yul\":944:966   */\n      add\n        /* \"#utility.yul\":915:976   */\n      tag_31\n      jump\t// in\n    tag_43:\n        /* \"#utility.yul\":905:976   */\n      swap2\n      pop\n        /* \"#utility.yul\":861:986   */\n      pop\n        /* \"#utility.yul\":648:993   */\n      swap3\n      swap2\n      pop\n      pop\n      jump\t// out\n        /* \"#utility.yul\":999:1108   */\n    tag_44:\n        /* \"#utility.yul\":1080:1101   */\n      tag_46\n        /* \"#utility.yul\":1095:1100   */\n      dup2\n        /* \"#utility.yul\":1080:1101   */\n      tag_47\n      jump\t// in\n    tag_46:\n        /* \"#utility.yul\":1075:1078   */\n      dup3\n        /* \"#utility.yul\":1068:1102   */\n      mstore\n        /* \"#utility.yul\":999:1108   */\n      pop\n      pop\n      jump\t// out\n        /* \"#utility.yul\":1114:1480   */\n    tag_48:\n        /* \"#utility.yul\":1256:1259   */\n      0x00\n        /* \"#utility.yul\":1277:1344   */\n      tag_50\n        /* \"#utility.yul\":1341:1343   */\n      0x2d\n        /* \"#utility.yul\":1336:1339   */\n      dup4\n        /* \"#utility.yul\":1277:1344   */\n      tag_51\n      jump\t// in\n    tag_50:\n        /* \"#utility.yul\":1270:1344   */\n      swap2\n      pop\n        /* \"#utility.yul\":1353:1446   */\n      tag_52\n        /* \"#utility.yul\":1442:1445   */\n      dup3\n        /* \"#utility.yul\":1353:1446   */\n      tag_53\n      jump\t// in\n    tag_52:\n        /* \"#utility.yul\":1471:1473   */\n      0x40\n        /* \"#utility.yul\":1466:1469   */\n      dup3\n        /* \"#utility.yul\":1462:1474   */\n      add\n        /* \"#utility.yul\":1455:1474   */\n      swap1\n      pop\n        /* \"#utility.yul\":1114:1480   */\n      swap2\n      swap1\n      pop\n      jump\t// out\n        /* \"#utility.yul\":1486:1604   */\n    tag_54:\n        /* \"#utility.yul\":1573:1597   */\n      tag_56\n        /* \"#utility.yul\":1591:1596   */\n      dup2\n        /* \"#utility.yul\":1573:1597   */\n      tag_57\n      jump\t// in\n    tag_56:\n        /* \"#utility.yul\":1568:1571   */\n      dup3\n        /* \"#utility.yul\":1561:1598   */\n      mstore\n        /* \"#utility.yul\":1486:1604   */\n      pop\n      pop\n      jump\t// out\n        /* \"#utility.yul\":1610:1820   */\n    tag_20:\n        /* \"#utility.yul\":1697:1701   */\n      0x00\n        /* \"#utility.yul\":1735:1737   */\n      0x20\n        /* \"#utility.yul\":1724:1733   */\n      dup3\n        /* \"#utility.yul\":1720:1738   */\n      add\n        /* \"#utility.yul\":1712:1738   */\n      swap1\n      pop\n        /* \"#utility.yul\":1748:1813   */\n      tag_59\n        /* \"#utility.yul\":1810:1811   */\n      0x00\n        /* \"#utility.yul\":1799:1808   */\n      dup4\n        /* \"#utility.yul\":1795:1812   */\n      add\n        /* \"#utility.yul\":1786:1792   */\n      dup5\n        /* \"#utility.yul\":1748:1813   */\n      tag_44\n      jump\t// in\n    tag_59:\n        /* \"#utility.yul\":1610:1820   */\n      swap3\n      swap2\n      pop\n      pop\n      jump\t// out\n        /* \"#utility.yul\":1826:2245   */\n    tag_25:\n        /* \"#utility.yul\":1992:1996   */\n      0x00\n        /* \"#utility.yul\":2030:2032   */\n      0x20\n        /* \"#utility.yul\":2019:2028   */\n      dup3\n        /* \"#utility.yul\":2015:2033   */\n      add\n        /* \"#utility.yul\":2007:2033   */\n      swap1\n      pop\n        /* \"#utility.yul\":2079:2088   */\n      dup2\n        /* \"#utility.yul\":2073:2077   */\n      dup2\n        /* \"#utility.yul\":2069:2089   */\n      sub\n        /* \"#utility.yul\":2065:2066   */\n      0x00\n        /* \"#utility.yul\":2054:2063   */\n      dup4\n        /* \"#utility.yul\":2050:2067   */\n      add\n        /* \"#utility.yul\":2043:2090   */\n      mstore\n        /* \"#utility.yul\":2107:2238   */\n      tag_61\n        /* \"#utility.yul\":2233:2237   */\n      dup2\n        /* \"#utility.yul\":2107:2238   */\n      tag_48\n      jump\t// in\n    tag_61:\n        /* \"#utility.yul\":2099:2238   */\n      swap1\n      pop\n        /* \"#utility.yul\":1826:2245   */\n      swap2\n      swap1\n      pop\n      jump\t// out\n        /* \"#utility.yul\":2251:2473   */\n    tag_11:\n        /* \"#utility.yul\":2344:2348   */\n      0x00\n        /* \"#utility.yul\":2382:2384   */\n      0x20\n        /* \"#utility.yul\":2371:2380   */\n      dup3\n        /* \"#utility.yul\":2367:2385   */\n      add\n        /* \"#utility.yul\":2359:2385   */\n      swap1\n      pop\n        /* \"#utility.yul\":2395:2466   */\n      tag_63\n        /* \"#utility.yul\":2463:2464   */\n      0x00\n        /* \"#utility.yul\":2452:2461   */\n      dup4\n        /* \"#utility.yul\":2448:2465   */\n      add\n        /* \"#utility.yul\":2439:2445   */\n      dup5\n        /* \"#utility.yul\":2395:2466   */\n      tag_54\n      jump\t// in\n    tag_63:\n        /* \"#utility.yul\":2251:2473   */\n      swap3\n      swap2\n      pop\n      pop\n      jump\t// out\n        /* \"#utility.yul\":2560:2729   */\n    tag_51:\n        /* \"#utility.yul\":2644:2655   */\n      0x00\n        /* \"#utility.yul\":2678:2684   */\n      dup3\n        /* \"#utility.yul\":2673:2676   */\n      dup3\n        /* \"#utility.yul\":2666:2685   */\n      mstore\n        /* \"#utility.yul\":2718:2722   */\n      0x20\n        /* \"#utility.yul\":2713:2716   */\n      dup3\n        /* \"#utility.yul\":2709:2723   */\n      add\n        /* \"#utility.yul\":2694:2723   */\n      swap1\n      pop\n        /* \"#utility.yul\":2560:2729   */\n      swap3\n      swap2\n      pop\n      pop\n      jump\t// out\n        /* \"#utility.yul\":2735:2831   */\n    tag_67:\n        /* \"#utility.yul\":2772:2779   */\n      0x00\n        /* \"#utility.yul\":2801:2825   */\n      tag_69\n        /* \"#utility.yul\":2819:2824   */\n      dup3\n        /* \"#utility.yul\":2801:2825   */\n      tag_70\n      jump\t// in\n    tag_69:\n        /* \"#utility.yul\":2790:2825   */\n      swap1\n      pop\n        /* \"#utility.yul\":2735:2831   */\n      swap2\n      swap1\n      pop\n      jump\t// out\n        /* \"#utility.yul\":2837:2941   */\n    tag_71:\n        /* \"#utility.yul\":2882:2889   */\n      0x00\n        /* \"#utility.yul\":2911:2935   */\n      tag_73\n        /* \"#utility.yul\":2929:2934   */\n      dup3\n        /* \"#utility.yul\":2911:2935   */\n      tag_70\n      jump\t// in\n    tag_73:\n        /* \"#utility.yul\":2900:2935   */\n      swap1\n      pop\n        /* \"#utility.yul\":2837:2941   */\n      swap2\n      swap1\n      pop\n      jump\t// out\n        /* \"#utility.yul\":2947:3037   */\n    tag_47:\n        /* \"#utility.yul\":2981:2988   */\n      0x00\n        /* \"#utility.yul\":3024:3029   */\n      dup2\n        /* \"#utility.yul\":3017:3030   */\n      iszero\n        /* \"#utility.yul\":3010:3031   */\n      iszero\n        /* \"#utility.yul\":2999:3031   */\n      swap1\n      pop\n        /* \"#utility.yul\":2947:3037   */\n      swap2\n      swap1\n      pop\n      jump\t// out\n        /* \"#utility.yul\":3043:3169   */\n    tag_70:\n        /* \"#utility.yul\":3080:3087   */\n      0x00\n        /* \"#utility.yul\":3120:3162   */\n      0xffffffffffffffffffffffffffffffffffffffff\n        /* \"#utility.yul\":3113:3118   */\n      dup3\n        /* \"#utility.yul\":3109:3163   */\n      and\n        /* \"#utility.yul\":3098:3163   */\n      swap1\n      pop\n        /* \"#utility.yul\":3043:3169   */\n      swap2\n      swap1\n      pop\n      jump\t// out\n        /* \"#utility.yul\":3175:3252   */\n    tag_57:\n        /* \"#utility.yul\":3212:3219   */\n      0x00\n        /* \"#utility.yul\":3241:3246   */\n      dup2\n        /* \"#utility.yul\":3230:3246   */\n      swap1\n      pop\n        /* \"#utility.yul\":3175:3252   */\n      swap2\n      swap1\n      pop\n      jump\t// out\n        /* \"#utility.yul\":3381:3498   */\n    tag_38:\n        /* \"#utility.yul\":3490:3491   */\n      0x00\n        /* \"#utility.yul\":3487:3488   */\n      dup1\n        /* \"#utility.yul\":3480:3492   */\n      revert\n        /* \"#utility.yul\":3504:3736   */\n    tag_53:\n        /* \"#utility.yul\":3644:3678   */\n      0x5468697320616464726573732068617320616c726561647920656e7465726564\n        /* \"#utility.yul\":3640:3641   */\n      0x00\n        /* \"#utility.yul\":3632:3638   */\n      dup3\n        /* \"#utility.yul\":3628:3642   */\n      add\n        /* \"#utility.yul\":3621:3679   */\n      mstore\n        /* \"#utility.yul\":3713:3728   */\n      0x20746865206c6f74746572792e00000000000000000000000000000000000000\n        /* \"#utility.yul\":3708:3710   */\n      0x20\n        /* \"#utility.yul\":3700:3706   */\n      dup3\n        /* \"#utility.yul\":3696:3711   */\n      add\n        /* \"#utility.yul\":3689:3729   */\n      mstore\n        /* \"#utility.yul\":3504:3736   */\n      pop\n      jump\t// out\n        /* \"#utility.yul\":3742:3864   */\n    tag_30:\n        /* \"#utility.yul\":3815:3839   */\n      tag_82\n        /* \"#utility.yul\":3833:3838   */\n      dup2\n        /* \"#utility.yul\":3815:3839   */\n      tag_67\n      jump\t// in\n    tag_82:\n        /* \"#utility.yul\":3808:3813   */\n      dup2\n        /* \"#utility.yul\":3805:3840   */\n      eq\n        /* \"#utility.yul\":3795:3858   */\n      tag_83\n      jumpi\n        /* \"#utility.yul\":3854:3855   */\n      0x00\n        /* \"#utility.yul\":3851:3852   */\n      dup1\n        /* \"#utility.yul\":3844:3856   */\n      revert\n        /* \"#utility.yul\":3795:3858   */\n    tag_83:\n        /* \"#utility.yul\":3742:3864   */\n      pop\n      jump\t// out\n        /* \"#utility.yul\":3870:4008   */\n    tag_34:\n        /* \"#utility.yul\":3951:3983   */\n      tag_85\n        /* \"#utility.yul\":3977:3982   */\n      dup2\n        /* \"#utility.yul\":3951:3983   */\n      tag_71\n      jump\t// in\n    tag_85:\n        /* \"#utility.yul\":3944:3949   */\n      dup2\n        /* \"#utility.yul\":3941:3984   */\n      eq\n        /* \"#utility.yul\":3931:4002   */\n      tag_86\n      jumpi\n        /* \"#utility.yul\":3998:3999   */\n      0x00\n        /* \"#utility.yul\":3995:3996   */\n      dup1\n        /* \"#utility.yul\":3988:4000   */\n      revert\n        /* \"#utility.yul\":3931:4002   */\n    tag_86:\n        /* \"#utility.yul\":3870:4008   */\n      pop\n      jump\t// out\n\n    auxdata: 0xa2646970667358221220945e46c1c524980b84775a6729672e91358b336f592c69978e10f627cbe893b164736f6c63430008070033\n}\n",
				"bytecode": {
					"linkReferences": {},
					"object": "608060405234801561001057600080fd5b50610416806100206000396000f3fe608060405234801561001057600080fd5b50600436106100415760003560e01c8063912a90bb14610046578063a8a5400814610076578063bff82dee14610092575b600080fd5b610060600480360381019061005b919061022f565b6100c2565b60405161006d91906102d8565b60405180910390f35b610090600480360381019061008b919061022f565b6100cd565b005b6100ac60048036038101906100a79190610202565b6101b8565b6040516100b9919061029d565b60405180910390f35b600060379050919050565b60008060008373ffffffffffffffffffffffffffffffffffffffff1673ffffffffffffffffffffffffffffffffffffffff16815260200190815260200160002060009054906101000a900460ff1690508061015d576040517f08c379a0000000000000000000000000000000000000000000000000000000008152600401610154906102b8565b60405180910390fd5b60016000808473ffffffffffffffffffffffffffffffffffffffff1673ffffffffffffffffffffffffffffffffffffffff16815260200190815260200160002060006101000a81548160ff0219169083151502179055505050565b60006020528060005260406000206000915054906101000a900460ff1681565b6000813590506101e7816103b2565b92915050565b6000813590506101fc816103c9565b92915050565b6000602082840312156102185761021761035e565b5b6000610226848285016101d8565b91505092915050565b6000602082840312156102455761024461035e565b5b6000610253848285016101ed565b91505092915050565b61026581610328565b82525050565b6000610278602d836102f3565b915061028382610363565b604082019050919050565b61029781610354565b82525050565b60006020820190506102b2600083018461025c565b92915050565b600060208201905081810360008301526102d18161026b565b9050919050565b60006020820190506102ed600083018461028e565b92915050565b600082825260208201905092915050565b600061030f82610334565b9050919050565b600061032182610334565b9050919050565b60008115159050919050565b600073ffffffffffffffffffffffffffffffffffffffff82169050919050565b6000819050919050565b600080fd5b7f5468697320616464726573732068617320616c726561647920656e746572656460008201527f20746865206c6f74746572792e00000000000000000000000000000000000000602082015250565b6103bb81610304565b81146103c657600080fd5b50565b6103d281610316565b81146103dd57600080fd5b5056fea2646970667358221220945e46c1c524980b84775a6729672e91358b336f592c69978e10f627cbe893b164736f6c63430008070033",
					"opcodes": "PUSH1 0x80 PUSH1 0x40 MSTORE CALLVALUE DUP1 ISZERO PUSH2 0x10 JUMPI PUSH1 0x0 DUP1 REVERT JUMPDEST POP PUSH2 0x416 DUP1 PUSH2 0x20 PUSH1 0x0 CODECOPY PUSH1 0x0 RETURN INVALID PUSH1 0x80 PUSH1 0x40 MSTORE CALLVALUE DUP1 ISZERO PUSH2 0x10 JUMPI PUSH1 0x0 DUP1 REVERT JUMPDEST POP PUSH1 0x4 CALLDATASIZE LT PUSH2 0x41 JUMPI PUSH1 0x0 CALLDATALOAD PUSH1 0xE0 SHR DUP1 PUSH4 0x912A90BB EQ PUSH2 0x46 JUMPI DUP1 PUSH4 0xA8A54008 EQ PUSH2 0x76 JUMPI DUP1 PUSH4 0xBFF82DEE EQ PUSH2 0x92 JUMPI JUMPDEST PUSH1 0x0 DUP1 REVERT JUMPDEST PUSH2 0x60 PUSH1 0x4 DUP1 CALLDATASIZE SUB DUP2 ADD SWAP1 PUSH2 0x5B SWAP2 SWAP1 PUSH2 0x22F JUMP JUMPDEST PUSH2 0xC2 JUMP JUMPDEST PUSH1 0x40 MLOAD PUSH2 0x6D SWAP2 SWAP1 PUSH2 0x2D8 JUMP JUMPDEST PUSH1 0x40 MLOAD DUP1 SWAP2 SUB SWAP1 RETURN JUMPDEST PUSH2 0x90 PUSH1 0x4 DUP1 CALLDATASIZE SUB DUP2 ADD SWAP1 PUSH2 0x8B SWAP2 SWAP1 PUSH2 0x22F JUMP JUMPDEST PUSH2 0xCD JUMP JUMPDEST STOP JUMPDEST PUSH2 0xAC PUSH1 0x4 DUP1 CALLDATASIZE SUB DUP2 ADD SWAP1 PUSH2 0xA7 SWAP2 SWAP1 PUSH2 0x202 JUMP JUMPDEST PUSH2 0x1B8 JUMP JUMPDEST PUSH1 0x40 MLOAD PUSH2 0xB9 SWAP2 SWAP1 PUSH2 0x29D JUMP JUMPDEST PUSH1 0x40 MLOAD DUP1 SWAP2 SUB SWAP1 RETURN JUMPDEST PUSH1 0x0 PUSH1 0x37 SWAP1 POP SWAP2 SWAP1 POP JUMP JUMPDEST PUSH1 0x0 DUP1 PUSH1 0x0 DUP4 PUSH20 0xFFFFFFFFFFFFFFFFFFFFFFFFFFFFFFFFFFFFFFFF AND PUSH20 0xFFFFFFFFFFFFFFFFFFFFFFFFFFFFFFFFFFFFFFFF AND DUP2 MSTORE PUSH1 0x20 ADD SWAP1 DUP2 MSTORE PUSH1 0x20 ADD PUSH1 0x0 KECCAK256 PUSH1 0x0 SWAP1 SLOAD SWAP1 PUSH2 0x100 EXP SWAP1 DIV PUSH1 0xFF AND SWAP1 POP DUP1 PUSH2 0x15D JUMPI PUSH1 0x40 MLOAD PUSH32 0x8C379A000000000000000000000000000000000000000000000000000000000 DUP2 MSTORE PUSH1 0x4 ADD PUSH2 0x154 SWAP1 PUSH2 0x2B8 JUMP JUMPDEST PUSH1 0x40 MLOAD DUP1 SWAP2 SUB SWAP1 REVERT JUMPDEST PUSH1 0x1 PUSH1 0x0 DUP1 DUP5 PUSH20 0xFFFFFFFFFFFFFFFFFFFFFFFFFFFFFFFFFFFFFFFF AND PUSH20 0xFFFFFFFFFFFFFFFFFFFFFFFFFFFFFFFFFFFFFFFF AND DUP2 MSTORE PUSH1 0x20 ADD SWAP1 DUP2 MSTORE PUSH1 0x20 ADD PUSH1 0x0 KECCAK256 PUSH1 0x0 PUSH2 0x100 EXP DUP2 SLOAD DUP2 PUSH1 0xFF MUL NOT AND SWAP1 DUP4 ISZERO ISZERO MUL OR SWAP1 SSTORE POP POP POP JUMP JUMPDEST PUSH1 0x0 PUSH1 0x20 MSTORE DUP1 PUSH1 0x0 MSTORE PUSH1 0x40 PUSH1 0x0 KECCAK256 PUSH1 0x0 SWAP2 POP SLOAD SWAP1 PUSH2 0x100 EXP SWAP1 DIV PUSH1 0xFF AND DUP2 JUMP JUMPDEST PUSH1 0x0 DUP2 CALLDATALOAD SWAP1 POP PUSH2 0x1E7 DUP2 PUSH2 0x3B2 JUMP JUMPDEST SWAP3 SWAP2 POP POP JUMP JUMPDEST PUSH1 0x0 DUP2 CALLDATALOAD SWAP1 POP PUSH2 0x1FC DUP2 PUSH2 0x3C9 JUMP JUMPDEST SWAP3 SWAP2 POP POP JUMP JUMPDEST PUSH1 0x0 PUSH1 0x20 DUP3 DUP5 SUB SLT ISZERO PUSH2 0x218 JUMPI PUSH2 0x217 PUSH2 0x35E JUMP JUMPDEST JUMPDEST PUSH1 0x0 PUSH2 0x226 DUP5 DUP3 DUP6 ADD PUSH2 0x1D8 JUMP JUMPDEST SWAP2 POP POP SWAP3 SWAP2 POP POP JUMP JUMPDEST PUSH1 0x0 PUSH1 0x20 DUP3 DUP5 SUB SLT ISZERO PUSH2 0x245 JUMPI PUSH2 0x244 PUSH2 0x35E JUMP JUMPDEST JUMPDEST PUSH1 0x0 PUSH2 0x253 DUP5 DUP3 DUP6 ADD PUSH2 0x1ED JUMP JUMPDEST SWAP2 POP POP SWAP3 SWAP2 POP POP JUMP JUMPDEST PUSH2 0x265 DUP2 PUSH2 0x328 JUMP JUMPDEST DUP3 MSTORE POP POP JUMP JUMPDEST PUSH1 0x0 PUSH2 0x278 PUSH1 0x2D DUP4 PUSH2 0x2F3 JUMP JUMPDEST SWAP2 POP PUSH2 0x283 DUP3 PUSH2 0x363 JUMP JUMPDEST PUSH1 0x40 DUP3 ADD SWAP1 POP SWAP2 SWAP1 POP JUMP JUMPDEST PUSH2 0x297 DUP2 PUSH2 0x354 JUMP JUMPDEST DUP3 MSTORE POP POP JUMP JUMPDEST PUSH1 0x0 PUSH1 0x20 DUP3 ADD SWAP1 POP PUSH2 0x2B2 PUSH1 0x0 DUP4 ADD DUP5 PUSH2 0x25C JUMP JUMPDEST SWAP3 SWAP2 POP POP JUMP JUMPDEST PUSH1 0x0 PUSH1 0x20 DUP3 ADD SWAP1 POP DUP2 DUP2 SUB PUSH1 0x0 DUP4 ADD MSTORE PUSH2 0x2D1 DUP2 PUSH2 0x26B JUMP JUMPDEST SWAP1 POP SWAP2 SWAP1 POP JUMP JUMPDEST PUSH1 0x0 PUSH1 0x20 DUP3 ADD SWAP1 POP PUSH2 0x2ED PUSH1 0x0 DUP4 ADD DUP5 PUSH2 0x28E JUMP JUMPDEST SWAP3 SWAP2 POP POP JUMP JUMPDEST PUSH1 0x0 DUP3 DUP3 MSTORE PUSH1 0x20 DUP3 ADD SWAP1 POP SWAP3 SWAP2 POP POP JUMP JUMPDEST PUSH1 0x0 PUSH2 0x30F DUP3 PUSH2 0x334 JUMP JUMPDEST SWAP1 POP SWAP2 SWAP1 POP JUMP JUMPDEST PUSH1 0x0 PUSH2 0x321 DUP3 PUSH2 0x334 JUMP JUMPDEST SWAP1 POP SWAP2 SWAP1 POP JUMP JUMPDEST PUSH1 0x0 DUP2 ISZERO ISZERO SWAP1 POP SWAP2 SWAP1 POP JUMP JUMPDEST PUSH1 0x0 PUSH20 0xFFFFFFFFFFFFFFFFFFFFFFFFFFFFFFFFFFFFFFFF DUP3 AND SWAP1 POP SWAP2 SWAP1 POP JUMP JUMPDEST PUSH1 0x0 DUP2 SWAP1 POP SWAP2 SWAP1 POP JUMP JUMPDEST PUSH1 0x0 DUP1 REVERT JUMPDEST PUSH32 0x5468697320616464726573732068617320616C726561647920656E7465726564 PUSH1 0x0 DUP3 ADD MSTORE PUSH32 0x20746865206C6F74746572792E00000000000000000000000000000000000000 PUSH1 0x20 DUP3 ADD MSTORE POP JUMP JUMPDEST PUSH2 0x3BB DUP2 PUSH2 0x304 JUMP JUMPDEST DUP2 EQ PUSH2 0x3C6 JUMPI PUSH1 0x0 DUP1 REVERT JUMPDEST POP JUMP JUMPDEST PUSH2 0x3D2 DUP2 PUSH2 0x316 JUMP JUMPDEST DUP2 EQ PUSH2 0x3DD JUMPI PUSH1 0x0 DUP1 REVERT JUMPDEST POP JUMP INVALID LOG2 PUSH5 0x6970667358 0x22 SLT KECCAK256 SWAP5 0x5E CHAINID 0xC1 0xC5 0x24 SWAP9 SIGNEXTEND DUP5 PUSH24 0x5A6729672E91358B336F592C69978E10F627CBE893B16473 PUSH16 0x6C634300080700330000000000000000 "
				},
				"gasEstimates": {
					"creation": {
						"codeDepositCost": "209200",
						"executionCost": "251",
						"totalCost": "209451"
					},
					"external": {
						"isAddressPlaying(address)": "629",
						"map_isPlaying(address)": "2867",
						"registerAddress(address)": "27068"
					}
				},
				"methodIdentifiers": {
					"isAddressPlaying(address)": "912a90bb",
					"map_isPlaying(address)": "bff82dee",
					"registerAddress(address)": "a8a54008"
				}
			},
			"storageLayout": {
				"storage": [
					{
						"astId": 6,
						"contract": "contracts/lottery.sol:Lottery",
						"label": "map_isPlaying",
						"offset": 0,
						"slot": "0",
						"type": "t_mapping(t_address,t_bool)"
					}
				],
				"types": {
					"t_address": {
						"encoding": "inplace",
						"label": "address",
						"numberOfBytes": "20"
					},
					"t_bool": {
						"encoding": "inplace",
						"label": "bool",
						"numberOfBytes": "1"
					},
					"t_mapping(t_address,t_bool)": {
						"encoding": "mapping",
						"key": "t_address",
						"label": "mapping(address => bool)",
						"numberOfBytes": "32",
						"value": "t_bool"
					}
				}
			},
			"userdoc": {
				"kind": "user",
				"methods": {},
				"version": 1
			}
		}
	}
}