{
	"contracts/lottery.sol": {
		"Lottery": {
			"abi": [
				{
					"inputs": [],
					"name": "chooseWinningAddress",
					"outputs": [
						{
							"internalType": "address payable",
							"name": "",
							"type": "address"
						}
					],
					"stateMutability": "view",
					"type": "function"
				},
				{
					"inputs": [],
					"name": "endLottery",
					"outputs": [],
					"stateMutability": "view",
					"type": "function"
				},
				{
					"inputs": [
						{
							"internalType": "address payable",
							"name": "playerAddress",
							"type": "address"
						}
					],
					"name": "isAddressPlaying",
					"outputs": [
						{
							"internalType": "bool",
							"name": "",
							"type": "bool"
						}
					],
					"stateMutability": "view",
					"type": "function"
				},
				{
					"inputs": [
						{
							"internalType": "uint256",
							"name": "",
							"type": "uint256"
						}
					],
					"name": "list_playerAddress",
					"outputs": [
						{
							"internalType": "address payable",
							"name": "",
							"type": "address"
						}
					],
					"stateMutability": "view",
					"type": "function"
				},
				{
					"inputs": [
						{
							"internalType": "address",
							"name": "",
							"type": "address"
						}
					],
					"name": "map_isPlaying",
					"outputs": [
						{
							"internalType": "bool",
							"name": "",
							"type": "bool"
						}
					],
					"stateMutability": "view",
					"type": "function"
				},
				{
					"inputs": [
						{
							"internalType": "uint256",
							"name": "N",
							"type": "uint256"
						}
					],
					"name": "randomInt",
					"outputs": [
						{
							"internalType": "uint256",
							"name": "",
							"type": "uint256"
						}
					],
					"stateMutability": "view",
					"type": "function"
				},
				{
					"inputs": [
						{
							"internalType": "address payable",
							"name": "playerAddress",
							"type": "address"
						}
					],
					"name": "registerAddress",
					"outputs": [],
					"stateMutability": "nonpayable",
					"type": "function"
				}
			],
			"devdoc": {
				"custom:dev-run-script": "./scripts/deploy_with_ethers.ts",
				"details": "A blockchain lottery",
				"kind": "dev",
				"methods": {},
				"title": "Lottery",
				"version": 1
			},
			"evm": {
				"assembly": "    /* \"contracts/lottery.sol\":193:3547  contract Lottery {... */\n  mstore(0x40, 0x80)\n  callvalue\n  dup1\n  iszero\n  tag_1\n  jumpi\n  0x00\n  dup1\n  revert\ntag_1:\n  pop\n  dataSize(sub_0)\n  dup1\n  dataOffset(sub_0)\n  0x00\n  codecopy\n  0x00\n  return\nstop\n\nsub_0: assembly {\n        /* \"contracts/lottery.sol\":193:3547  contract Lottery {... */\n      mstore(0x40, 0x80)\n      callvalue\n      dup1\n      iszero\n      tag_1\n      jumpi\n      0x00\n      dup1\n      revert\n    tag_1:\n      pop\n      jumpi(tag_2, lt(calldatasize, 0x04))\n      shr(0xe0, calldataload(0x00))\n      dup1\n      0x7f798243\n      gt\n      tag_10\n      jumpi\n      dup1\n      0x7f798243\n      eq\n      tag_6\n      jumpi\n      dup1\n      0x912a90bb\n      eq\n      tag_7\n      jumpi\n      dup1\n      0xa8a54008\n      eq\n      tag_8\n      jumpi\n      dup1\n      0xbff82dee\n      eq\n      tag_9\n      jumpi\n      jump(tag_2)\n    tag_10:\n      dup1\n      0x12845966\n      eq\n      tag_3\n      jumpi\n      dup1\n      0x1593a8c7\n      eq\n      tag_4\n      jumpi\n      dup1\n      0x27dff143\n      eq\n      tag_5\n      jumpi\n    tag_2:\n      0x00\n      dup1\n      revert\n        /* \"contracts/lottery.sol\":2419:2660  function randomInt(uint N) public view returns (uint) {... */\n    tag_3:\n      tag_11\n      0x04\n      dup1\n      calldatasize\n      sub\n      dup2\n      add\n      swap1\n      tag_12\n      swap2\n      swap1\n      tag_13\n      jump\t// in\n    tag_12:\n      tag_14\n      jump\t// in\n    tag_11:\n      mload(0x40)\n      tag_15\n      swap2\n      swap1\n      tag_16\n      jump\t// in\n    tag_15:\n      mload(0x40)\n      dup1\n      swap2\n      sub\n      swap1\n      return\n        /* \"contracts/lottery.sol\":1952:2411  function endLottery() public view {... */\n    tag_4:\n      tag_17\n      tag_18\n      jump\t// in\n    tag_17:\n      stop\n        /* \"contracts/lottery.sol\":469:512  address payable[] public list_playerAddress */\n    tag_5:\n      tag_19\n      0x04\n      dup1\n      calldatasize\n      sub\n      dup2\n      add\n      swap1\n      tag_20\n      swap2\n      swap1\n      tag_13\n      jump\t// in\n    tag_20:\n      tag_21\n      jump\t// in\n    tag_19:\n      mload(0x40)\n      tag_22\n      swap2\n      swap1\n      tag_23\n      jump\t// in\n    tag_22:\n      mload(0x40)\n      dup1\n      swap2\n      sub\n      swap1\n      return\n        /* \"contracts/lottery.sol\":1149:1944  function chooseWinningAddress() public view returns (address payable) {... */\n    tag_6:\n      tag_24\n      tag_25\n      jump\t// in\n    tag_24:\n      mload(0x40)\n      tag_26\n      swap2\n      swap1\n      tag_23\n      jump\t// in\n    tag_26:\n      mload(0x40)\n      dup1\n      swap2\n      sub\n      swap1\n      return\n        /* \"contracts/lottery.sol\":1003:1141  function isAddressPlaying(address payable playerAddress) public view returns (bool) {... */\n    tag_7:\n      tag_27\n      0x04\n      dup1\n      calldatasize\n      sub\n      dup2\n      add\n      swap1\n      tag_28\n      swap2\n      swap1\n      tag_29\n      jump\t// in\n    tag_28:\n      tag_30\n      jump\t// in\n    tag_27:\n      mload(0x40)\n      tag_31\n      swap2\n      swap1\n      tag_32\n      jump\t// in\n    tag_31:\n      mload(0x40)\n      dup1\n      swap2\n      sub\n      swap1\n      return\n        /* \"contracts/lottery.sol\":521:991  function registerAddress(address payable playerAddress) public {... */\n    tag_8:\n      tag_33\n      0x04\n      dup1\n      calldatasize\n      sub\n      dup2\n      add\n      swap1\n      tag_34\n      swap2\n      swap1\n      tag_29\n      jump\t// in\n    tag_34:\n      tag_35\n      jump\t// in\n    tag_33:\n      stop\n        /* \"contracts/lottery.sol\":417:462  mapping(address => bool) public map_isPlaying */\n    tag_9:\n      tag_36\n      0x04\n      dup1\n      calldatasize\n      sub\n      dup2\n      add\n      swap1\n      tag_37\n      swap2\n      swap1\n      tag_38\n      jump\t// in\n    tag_37:\n      tag_39\n      jump\t// in\n    tag_36:\n      mload(0x40)\n      tag_40\n      swap2\n      swap1\n      tag_32\n      jump\t// in\n    tag_40:\n      mload(0x40)\n      dup1\n      swap2\n      sub\n      swap1\n      return\n        /* \"contracts/lottery.sol\":2419:2660  function randomInt(uint N) public view returns (uint) {... */\n    tag_14:\n        /* \"contracts/lottery.sol\":2467:2471  uint */\n      0x00\n        /* \"contracts/lottery.sol\":2534:2549  uint randomHash */\n      dup1\n        /* \"contracts/lottery.sol\":2584:2600  block.difficulty */\n      difficulty\n        /* \"contracts/lottery.sol\":2602:2617  block.timestamp */\n      timestamp\n        /* \"contracts/lottery.sol\":2567:2618  abi.encodePacked(block.difficulty, block.timestamp) */\n      add(0x20, mload(0x40))\n      tag_42\n      swap3\n      swap2\n      swap1\n      tag_43\n      jump\t// in\n    tag_42:\n      mload(0x40)\n      0x20\n      dup2\n      dup4\n      sub\n      sub\n      dup2\n      mstore\n      swap1\n      0x40\n      mstore\n        /* \"contracts/lottery.sol\":2557:2619  keccak256(abi.encodePacked(block.difficulty, block.timestamp)) */\n      dup1\n      mload\n      swap1\n      0x20\n      add\n      keccak256\n        /* \"contracts/lottery.sol\":2552:2620  uint(keccak256(abi.encodePacked(block.difficulty, block.timestamp))) */\n      0x00\n      shr\n        /* \"contracts/lottery.sol\":2534:2620  uint randomHash = uint(keccak256(abi.encodePacked(block.difficulty, block.timestamp))) */\n      swap1\n      pop\n        /* \"contracts/lottery.sol\":2651:2652  N */\n      dup3\n        /* \"contracts/lottery.sol\":2638:2648  randomHash */\n      dup2\n        /* \"contracts/lottery.sol\":2638:2652  randomHash % N */\n      tag_44\n      swap2\n      swap1\n      tag_45\n      jump\t// in\n    tag_44:\n        /* \"contracts/lottery.sol\":2631:2652  return randomHash % N */\n      swap2\n      pop\n      pop\n        /* \"contracts/lottery.sol\":2419:2660  function randomInt(uint N) public view returns (uint) {... */\n      swap2\n      swap1\n      pop\n      jump\t// out\n        /* \"contracts/lottery.sol\":1952:2411  function endLottery() public view {... */\n    tag_18:\n        /* \"contracts/lottery.sol\":1997:2027  address payable winningAddress */\n      0x00\n        /* \"contracts/lottery.sol\":2030:2052  chooseWinningAddress() */\n      tag_47\n        /* \"contracts/lottery.sol\":2030:2050  chooseWinningAddress */\n      tag_25\n        /* \"contracts/lottery.sol\":2030:2052  chooseWinningAddress() */\n      jump\t// in\n    tag_47:\n        /* \"contracts/lottery.sol\":1997:2052  address payable winningAddress = chooseWinningAddress() */\n      swap1\n      pop\n        /* \"contracts/lottery.sol\":264:306  0x0000000000000000000000000000000000000000 */\n      0x00\n        /* \"contracts/lottery.sol\":2066:2095  winningAddress == zeroAddress */\n      0xffffffffffffffffffffffffffffffffffffffff\n      and\n        /* \"contracts/lottery.sol\":2066:2080  winningAddress */\n      dup2\n        /* \"contracts/lottery.sol\":2066:2095  winningAddress == zeroAddress */\n      0xffffffffffffffffffffffffffffffffffffffff\n      and\n      sub\n        /* \"contracts/lottery.sol\":2063:2404  if(winningAddress == zeroAddress) {... */\n      iszero\n      tag_49\n      jumpi\n        /* \"contracts/lottery.sol\":2353:2368  uint256 balance */\n      0x00\n        /* \"contracts/lottery.sol\":2371:2392  address(this).balance */\n      selfbalance\n        /* \"contracts/lottery.sol\":2353:2392  uint256 balance = address(this).balance */\n      swap1\n      pop\n        /* \"contracts/lottery.sol\":2175:2404  {... */\n      pop\n        /* \"contracts/lottery.sol\":2063:2404  if(winningAddress == zeroAddress) {... */\n    tag_49:\n        /* \"contracts/lottery.sol\":1986:2411  {... */\n      pop\n        /* \"contracts/lottery.sol\":1952:2411  function endLottery() public view {... */\n      jump\t// out\n        /* \"contracts/lottery.sol\":469:512  address payable[] public list_playerAddress */\n    tag_21:\n      0x01\n      dup2\n      dup2\n      sload\n      dup2\n      lt\n      tag_50\n      jumpi\n      0x00\n      dup1\n      revert\n    tag_50:\n      swap1\n      0x00\n      mstore\n      keccak256(0x00, 0x20)\n      add\n      0x00\n      swap2\n      pop\n      sload\n      swap1\n      0x0100\n      exp\n      swap1\n      div\n      0xffffffffffffffffffffffffffffffffffffffff\n      and\n      dup2\n      jump\t// out\n        /* \"contracts/lottery.sol\":1149:1944  function chooseWinningAddress() public view returns (address payable) {... */\n    tag_25:\n        /* \"contracts/lottery.sol\":1202:1217  address payable */\n      0x00\n        /* \"contracts/lottery.sol\":1230:1245  uint numPlayers */\n      dup1\n        /* \"contracts/lottery.sol\":1248:1266  list_playerAddress */\n      0x01\n        /* \"contracts/lottery.sol\":1248:1273  list_playerAddress.length */\n      dup1\n      sload\n      swap1\n      pop\n        /* \"contracts/lottery.sol\":1230:1273  uint numPlayers = list_playerAddress.length */\n      swap1\n      pop\n        /* \"contracts/lottery.sol\":1284:1295  uint winner */\n      0x00\n        /* \"contracts/lottery.sol\":1404:1405  0 */\n      dup1\n        /* \"contracts/lottery.sol\":1390:1400  numPlayers */\n      dup3\n        /* \"contracts/lottery.sol\":1390:1405  numPlayers == 0 */\n      sub\n        /* \"contracts/lottery.sol\":1387:1891  if(numPlayers == 0) {... */\n      tag_53\n      jumpi\n        /* \"contracts/lottery.sol\":264:306  0x0000000000000000000000000000000000000000 */\n      0x00\n        /* \"contracts/lottery.sol\":1491:1509  return zeroAddress */\n      swap3\n      pop\n      pop\n      pop\n      jump(tag_52)\n        /* \"contracts/lottery.sol\":1387:1891  if(numPlayers == 0) {... */\n    tag_53:\n        /* \"contracts/lottery.sol\":1553:1554  1 */\n      0x01\n        /* \"contracts/lottery.sol\":1539:1549  numPlayers */\n      dup3\n        /* \"contracts/lottery.sol\":1539:1554  numPlayers == 1 */\n      sub\n        /* \"contracts/lottery.sol\":1536:1891  if(numPlayers == 1) {... */\n      tag_55\n      jumpi\n        /* \"contracts/lottery.sol\":1683:1684  0 */\n      0x00\n        /* \"contracts/lottery.sol\":1674:1684  winner = 0 */\n      swap1\n      pop\n        /* \"contracts/lottery.sol\":1536:1891  if(numPlayers == 1) {... */\n      jump(tag_56)\n    tag_55:\n        /* \"contracts/lottery.sol\":1858:1879  randomInt(numPlayers) */\n      tag_57\n        /* \"contracts/lottery.sol\":1868:1878  numPlayers */\n      dup3\n        /* \"contracts/lottery.sol\":1858:1867  randomInt */\n      tag_14\n        /* \"contracts/lottery.sol\":1858:1879  randomInt(numPlayers) */\n      jump\t// in\n    tag_57:\n        /* \"contracts/lottery.sol\":1849:1879  winner = randomInt(numPlayers) */\n      swap1\n      pop\n        /* \"contracts/lottery.sol\":1536:1891  if(numPlayers == 1) {... */\n    tag_56:\n        /* \"contracts/lottery.sol\":1910:1928  list_playerAddress */\n      0x01\n        /* \"contracts/lottery.sol\":1929:1935  winner */\n      dup2\n        /* \"contracts/lottery.sol\":1910:1936  list_playerAddress[winner] */\n      dup2\n      sload\n      dup2\n      lt\n      tag_58\n      jumpi\n      tag_59\n      tag_60\n      jump\t// in\n    tag_59:\n    tag_58:\n      swap1\n      0x00\n      mstore\n      keccak256(0x00, 0x20)\n      add\n      0x00\n      swap1\n      sload\n      swap1\n      0x0100\n      exp\n      swap1\n      div\n      0xffffffffffffffffffffffffffffffffffffffff\n      and\n        /* \"contracts/lottery.sol\":1903:1936  return list_playerAddress[winner] */\n      swap3\n      pop\n      pop\n      pop\n        /* \"contracts/lottery.sol\":1149:1944  function chooseWinningAddress() public view returns (address payable) {... */\n    tag_52:\n      swap1\n      jump\t// out\n        /* \"contracts/lottery.sol\":1003:1141  function isAddressPlaying(address payable playerAddress) public view returns (bool) {... */\n    tag_30:\n        /* \"contracts/lottery.sol\":1081:1085  bool */\n      0x00\n        /* \"contracts/lottery.sol\":1105:1118  map_isPlaying */\n      dup1\n        /* \"contracts/lottery.sol\":1105:1133  map_isPlaying[playerAddress] */\n      0x00\n        /* \"contracts/lottery.sol\":1119:1132  playerAddress */\n      dup4\n        /* \"contracts/lottery.sol\":1105:1133  map_isPlaying[playerAddress] */\n      0xffffffffffffffffffffffffffffffffffffffff\n      and\n      0xffffffffffffffffffffffffffffffffffffffff\n      and\n      dup2\n      mstore\n      0x20\n      add\n      swap1\n      dup2\n      mstore\n      0x20\n      add\n      0x00\n      keccak256\n      0x00\n      swap1\n      sload\n      swap1\n      0x0100\n      exp\n      swap1\n      div\n      0xff\n      and\n        /* \"contracts/lottery.sol\":1098:1133  return map_isPlaying[playerAddress] */\n      swap1\n      pop\n        /* \"contracts/lottery.sol\":1003:1141  function isAddressPlaying(address payable playerAddress) public view returns (bool) {... */\n      swap2\n      swap1\n      pop\n      jump\t// out\n        /* \"contracts/lottery.sol\":521:991  function registerAddress(address payable playerAddress) public {... */\n    tag_35:\n        /* \"contracts/lottery.sol\":700:714  bool isPlaying */\n      0x00\n        /* \"contracts/lottery.sol\":717:730  map_isPlaying */\n      dup1\n        /* \"contracts/lottery.sol\":717:745  map_isPlaying[playerAddress] */\n      0x00\n        /* \"contracts/lottery.sol\":731:744  playerAddress */\n      dup4\n        /* \"contracts/lottery.sol\":717:745  map_isPlaying[playerAddress] */\n      0xffffffffffffffffffffffffffffffffffffffff\n      and\n      0xffffffffffffffffffffffffffffffffffffffff\n      and\n      dup2\n      mstore\n      0x20\n      add\n      swap1\n      dup2\n      mstore\n      0x20\n      add\n      0x00\n      keccak256\n      0x00\n      swap1\n      sload\n      swap1\n      0x0100\n      exp\n      swap1\n      div\n      0xff\n      and\n        /* \"contracts/lottery.sol\":700:745  bool isPlaying = map_isPlaying[playerAddress] */\n      swap1\n      pop\n        /* \"contracts/lottery.sol\":765:774  isPlaying */\n      dup1\n        /* \"contracts/lottery.sol\":764:774  !isPlaying */\n      iszero\n        /* \"contracts/lottery.sol\":756:824  require(!isPlaying, \"This address has already entered the lottery.\") */\n      tag_64\n      jumpi\n      mload(0x40)\n      0x08c379a000000000000000000000000000000000000000000000000000000000\n      dup2\n      mstore\n      0x04\n      add\n      tag_65\n      swap1\n      tag_66\n      jump\t// in\n    tag_65:\n      mload(0x40)\n      dup1\n      swap2\n      sub\n      swap1\n      revert\n    tag_64:\n        /* \"contracts/lottery.sol\":930:934  true */\n      0x01\n        /* \"contracts/lottery.sol\":899:912  map_isPlaying */\n      0x00\n        /* \"contracts/lottery.sol\":899:927  map_isPlaying[playerAddress] */\n      dup1\n        /* \"contracts/lottery.sol\":913:926  playerAddress */\n      dup5\n        /* \"contracts/lottery.sol\":899:927  map_isPlaying[playerAddress] */\n      0xffffffffffffffffffffffffffffffffffffffff\n      and\n      0xffffffffffffffffffffffffffffffffffffffff\n      and\n      dup2\n      mstore\n      0x20\n      add\n      swap1\n      dup2\n      mstore\n      0x20\n      add\n      0x00\n      keccak256\n      0x00\n        /* \"contracts/lottery.sol\":899:934  map_isPlaying[playerAddress] = true */\n      0x0100\n      exp\n      dup2\n      sload\n      dup2\n      0xff\n      mul\n      not\n      and\n      swap1\n      dup4\n      iszero\n      iszero\n      mul\n      or\n      swap1\n      sstore\n      pop\n        /* \"contracts/lottery.sol\":945:963  list_playerAddress */\n      0x01\n        /* \"contracts/lottery.sol\":969:982  playerAddress */\n      dup3\n        /* \"contracts/lottery.sol\":945:983  list_playerAddress.push(playerAddress) */\n      swap1\n      dup1\n      0x01\n      dup2\n      sload\n      add\n      dup1\n      dup3\n      sstore\n      dup1\n      swap2\n      pop\n      pop\n      0x01\n      swap1\n      sub\n      swap1\n      0x00\n      mstore\n      keccak256(0x00, 0x20)\n      add\n      0x00\n      swap1\n      swap2\n      swap1\n      swap2\n      swap1\n      swap2\n      0x0100\n      exp\n      dup2\n      sload\n      dup2\n      0xffffffffffffffffffffffffffffffffffffffff\n      mul\n      not\n      and\n      swap1\n      dup4\n      0xffffffffffffffffffffffffffffffffffffffff\n      and\n      mul\n      or\n      swap1\n      sstore\n      pop\n        /* \"contracts/lottery.sol\":584:991  {... */\n      pop\n        /* \"contracts/lottery.sol\":521:991  function registerAddress(address payable playerAddress) public {... */\n      pop\n      jump\t// out\n        /* \"contracts/lottery.sol\":417:462  mapping(address => bool) public map_isPlaying */\n    tag_39:\n      mstore(0x20, 0x00)\n      dup1\n      0x00\n      mstore\n      keccak256(0x00, 0x40)\n      0x00\n      swap2\n      pop\n      sload\n      swap1\n      0x0100\n      exp\n      swap1\n      div\n      0xff\n      and\n      dup2\n      jump\t// out\n        /* \"#utility.yul\":88:205   */\n    tag_69:\n        /* \"#utility.yul\":197:198   */\n      0x00\n        /* \"#utility.yul\":194:195   */\n      dup1\n        /* \"#utility.yul\":187:199   */\n      revert\n        /* \"#utility.yul\":334:411   */\n    tag_71:\n        /* \"#utility.yul\":371:378   */\n      0x00\n        /* \"#utility.yul\":400:405   */\n      dup2\n        /* \"#utility.yul\":389:405   */\n      swap1\n      pop\n        /* \"#utility.yul\":334:411   */\n      swap2\n      swap1\n      pop\n      jump\t// out\n        /* \"#utility.yul\":417:539   */\n    tag_72:\n        /* \"#utility.yul\":490:514   */\n      tag_97\n        /* \"#utility.yul\":508:513   */\n      dup2\n        /* \"#utility.yul\":490:514   */\n      tag_71\n      jump\t// in\n    tag_97:\n        /* \"#utility.yul\":483:488   */\n      dup2\n        /* \"#utility.yul\":480:515   */\n      eq\n        /* \"#utility.yul\":470:533   */\n      tag_98\n      jumpi\n        /* \"#utility.yul\":529:530   */\n      0x00\n        /* \"#utility.yul\":526:527   */\n      dup1\n        /* \"#utility.yul\":519:531   */\n      revert\n        /* \"#utility.yul\":470:533   */\n    tag_98:\n        /* \"#utility.yul\":417:539   */\n      pop\n      jump\t// out\n        /* \"#utility.yul\":545:684   */\n    tag_73:\n        /* \"#utility.yul\":591:596   */\n      0x00\n        /* \"#utility.yul\":629:635   */\n      dup2\n        /* \"#utility.yul\":616:636   */\n      calldataload\n        /* \"#utility.yul\":607:636   */\n      swap1\n      pop\n        /* \"#utility.yul\":645:678   */\n      tag_100\n        /* \"#utility.yul\":672:677   */\n      dup2\n        /* \"#utility.yul\":645:678   */\n      tag_72\n      jump\t// in\n    tag_100:\n        /* \"#utility.yul\":545:684   */\n      swap3\n      swap2\n      pop\n      pop\n      jump\t// out\n        /* \"#utility.yul\":690:1019   */\n    tag_13:\n        /* \"#utility.yul\":749:755   */\n      0x00\n        /* \"#utility.yul\":798:800   */\n      0x20\n        /* \"#utility.yul\":786:795   */\n      dup3\n        /* \"#utility.yul\":777:784   */\n      dup5\n        /* \"#utility.yul\":773:796   */\n      sub\n        /* \"#utility.yul\":769:801   */\n      slt\n        /* \"#utility.yul\":766:885   */\n      iszero\n      tag_102\n      jumpi\n        /* \"#utility.yul\":804:883   */\n      tag_103\n      tag_69\n      jump\t// in\n    tag_103:\n        /* \"#utility.yul\":766:885   */\n    tag_102:\n        /* \"#utility.yul\":924:925   */\n      0x00\n        /* \"#utility.yul\":949:1002   */\n      tag_104\n        /* \"#utility.yul\":994:1001   */\n      dup5\n        /* \"#utility.yul\":985:991   */\n      dup3\n        /* \"#utility.yul\":974:983   */\n      dup6\n        /* \"#utility.yul\":970:992   */\n      add\n        /* \"#utility.yul\":949:1002   */\n      tag_73\n      jump\t// in\n    tag_104:\n        /* \"#utility.yul\":939:1002   */\n      swap2\n      pop\n        /* \"#utility.yul\":895:1012   */\n      pop\n        /* \"#utility.yul\":690:1019   */\n      swap3\n      swap2\n      pop\n      pop\n      jump\t// out\n        /* \"#utility.yul\":1025:1143   */\n    tag_74:\n        /* \"#utility.yul\":1112:1136   */\n      tag_106\n        /* \"#utility.yul\":1130:1135   */\n      dup2\n        /* \"#utility.yul\":1112:1136   */\n      tag_71\n      jump\t// in\n    tag_106:\n        /* \"#utility.yul\":1107:1110   */\n      dup3\n        /* \"#utility.yul\":1100:1137   */\n      mstore\n        /* \"#utility.yul\":1025:1143   */\n      pop\n      pop\n      jump\t// out\n        /* \"#utility.yul\":1149:1371   */\n    tag_16:\n        /* \"#utility.yul\":1242:1246   */\n      0x00\n        /* \"#utility.yul\":1280:1282   */\n      0x20\n        /* \"#utility.yul\":1269:1278   */\n      dup3\n        /* \"#utility.yul\":1265:1283   */\n      add\n        /* \"#utility.yul\":1257:1283   */\n      swap1\n      pop\n        /* \"#utility.yul\":1293:1364   */\n      tag_108\n        /* \"#utility.yul\":1361:1362   */\n      0x00\n        /* \"#utility.yul\":1350:1359   */\n      dup4\n        /* \"#utility.yul\":1346:1363   */\n      add\n        /* \"#utility.yul\":1337:1343   */\n      dup5\n        /* \"#utility.yul\":1293:1364   */\n      tag_74\n      jump\t// in\n    tag_108:\n        /* \"#utility.yul\":1149:1371   */\n      swap3\n      swap2\n      pop\n      pop\n      jump\t// out\n        /* \"#utility.yul\":1377:1503   */\n    tag_75:\n        /* \"#utility.yul\":1414:1421   */\n      0x00\n        /* \"#utility.yul\":1454:1496   */\n      0xffffffffffffffffffffffffffffffffffffffff\n        /* \"#utility.yul\":1447:1452   */\n      dup3\n        /* \"#utility.yul\":1443:1497   */\n      and\n        /* \"#utility.yul\":1432:1497   */\n      swap1\n      pop\n        /* \"#utility.yul\":1377:1503   */\n      swap2\n      swap1\n      pop\n      jump\t// out\n        /* \"#utility.yul\":1509:1613   */\n    tag_76:\n        /* \"#utility.yul\":1554:1561   */\n      0x00\n        /* \"#utility.yul\":1583:1607   */\n      tag_111\n        /* \"#utility.yul\":1601:1606   */\n      dup3\n        /* \"#utility.yul\":1583:1607   */\n      tag_75\n      jump\t// in\n    tag_111:\n        /* \"#utility.yul\":1572:1607   */\n      swap1\n      pop\n        /* \"#utility.yul\":1509:1613   */\n      swap2\n      swap1\n      pop\n      jump\t// out\n        /* \"#utility.yul\":1619:1761   */\n    tag_77:\n        /* \"#utility.yul\":1722:1754   */\n      tag_113\n        /* \"#utility.yul\":1748:1753   */\n      dup2\n        /* \"#utility.yul\":1722:1754   */\n      tag_76\n      jump\t// in\n    tag_113:\n        /* \"#utility.yul\":1717:1720   */\n      dup3\n        /* \"#utility.yul\":1710:1755   */\n      mstore\n        /* \"#utility.yul\":1619:1761   */\n      pop\n      pop\n      jump\t// out\n        /* \"#utility.yul\":1767:2021   */\n    tag_23:\n        /* \"#utility.yul\":1876:1880   */\n      0x00\n        /* \"#utility.yul\":1914:1916   */\n      0x20\n        /* \"#utility.yul\":1903:1912   */\n      dup3\n        /* \"#utility.yul\":1899:1917   */\n      add\n        /* \"#utility.yul\":1891:1917   */\n      swap1\n      pop\n        /* \"#utility.yul\":1927:2014   */\n      tag_115\n        /* \"#utility.yul\":2011:2012   */\n      0x00\n        /* \"#utility.yul\":2000:2009   */\n      dup4\n        /* \"#utility.yul\":1996:2013   */\n      add\n        /* \"#utility.yul\":1987:1993   */\n      dup5\n        /* \"#utility.yul\":1927:2014   */\n      tag_77\n      jump\t// in\n    tag_115:\n        /* \"#utility.yul\":1767:2021   */\n      swap3\n      swap2\n      pop\n      pop\n      jump\t// out\n        /* \"#utility.yul\":2027:2165   */\n    tag_78:\n        /* \"#utility.yul\":2108:2140   */\n      tag_117\n        /* \"#utility.yul\":2134:2139   */\n      dup2\n        /* \"#utility.yul\":2108:2140   */\n      tag_76\n      jump\t// in\n    tag_117:\n        /* \"#utility.yul\":2101:2106   */\n      dup2\n        /* \"#utility.yul\":2098:2141   */\n      eq\n        /* \"#utility.yul\":2088:2159   */\n      tag_118\n      jumpi\n        /* \"#utility.yul\":2155:2156   */\n      0x00\n        /* \"#utility.yul\":2152:2153   */\n      dup1\n        /* \"#utility.yul\":2145:2157   */\n      revert\n        /* \"#utility.yul\":2088:2159   */\n    tag_118:\n        /* \"#utility.yul\":2027:2165   */\n      pop\n      jump\t// out\n        /* \"#utility.yul\":2171:2326   */\n    tag_79:\n        /* \"#utility.yul\":2225:2230   */\n      0x00\n        /* \"#utility.yul\":2263:2269   */\n      dup2\n        /* \"#utility.yul\":2250:2270   */\n      calldataload\n        /* \"#utility.yul\":2241:2270   */\n      swap1\n      pop\n        /* \"#utility.yul\":2279:2320   */\n      tag_120\n        /* \"#utility.yul\":2314:2319   */\n      dup2\n        /* \"#utility.yul\":2279:2320   */\n      tag_78\n      jump\t// in\n    tag_120:\n        /* \"#utility.yul\":2171:2326   */\n      swap3\n      swap2\n      pop\n      pop\n      jump\t// out\n        /* \"#utility.yul\":2332:2677   */\n    tag_29:\n        /* \"#utility.yul\":2399:2405   */\n      0x00\n        /* \"#utility.yul\":2448:2450   */\n      0x20\n        /* \"#utility.yul\":2436:2445   */\n      dup3\n        /* \"#utility.yul\":2427:2434   */\n      dup5\n        /* \"#utility.yul\":2423:2446   */\n      sub\n        /* \"#utility.yul\":2419:2451   */\n      slt\n        /* \"#utility.yul\":2416:2535   */\n      iszero\n      tag_122\n      jumpi\n        /* \"#utility.yul\":2454:2533   */\n      tag_123\n      tag_69\n      jump\t// in\n    tag_123:\n        /* \"#utility.yul\":2416:2535   */\n    tag_122:\n        /* \"#utility.yul\":2574:2575   */\n      0x00\n        /* \"#utility.yul\":2599:2660   */\n      tag_124\n        /* \"#utility.yul\":2652:2659   */\n      dup5\n        /* \"#utility.yul\":2643:2649   */\n      dup3\n        /* \"#utility.yul\":2632:2641   */\n      dup6\n        /* \"#utility.yul\":2628:2650   */\n      add\n        /* \"#utility.yul\":2599:2660   */\n      tag_79\n      jump\t// in\n    tag_124:\n        /* \"#utility.yul\":2589:2660   */\n      swap2\n      pop\n        /* \"#utility.yul\":2545:2670   */\n      pop\n        /* \"#utility.yul\":2332:2677   */\n      swap3\n      swap2\n      pop\n      pop\n      jump\t// out\n        /* \"#utility.yul\":2683:2773   */\n    tag_80:\n        /* \"#utility.yul\":2717:2724   */\n      0x00\n        /* \"#utility.yul\":2760:2765   */\n      dup2\n        /* \"#utility.yul\":2753:2766   */\n      iszero\n        /* \"#utility.yul\":2746:2767   */\n      iszero\n        /* \"#utility.yul\":2735:2767   */\n      swap1\n      pop\n        /* \"#utility.yul\":2683:2773   */\n      swap2\n      swap1\n      pop\n      jump\t// out\n        /* \"#utility.yul\":2779:2888   */\n    tag_81:\n        /* \"#utility.yul\":2860:2881   */\n      tag_127\n        /* \"#utility.yul\":2875:2880   */\n      dup2\n        /* \"#utility.yul\":2860:2881   */\n      tag_80\n      jump\t// in\n    tag_127:\n        /* \"#utility.yul\":2855:2858   */\n      dup3\n        /* \"#utility.yul\":2848:2882   */\n      mstore\n        /* \"#utility.yul\":2779:2888   */\n      pop\n      pop\n      jump\t// out\n        /* \"#utility.yul\":2894:3104   */\n    tag_32:\n        /* \"#utility.yul\":2981:2985   */\n      0x00\n        /* \"#utility.yul\":3019:3021   */\n      0x20\n        /* \"#utility.yul\":3008:3017   */\n      dup3\n        /* \"#utility.yul\":3004:3022   */\n      add\n        /* \"#utility.yul\":2996:3022   */\n      swap1\n      pop\n        /* \"#utility.yul\":3032:3097   */\n      tag_129\n        /* \"#utility.yul\":3094:3095   */\n      0x00\n        /* \"#utility.yul\":3083:3092   */\n      dup4\n        /* \"#utility.yul\":3079:3096   */\n      add\n        /* \"#utility.yul\":3070:3076   */\n      dup5\n        /* \"#utility.yul\":3032:3097   */\n      tag_81\n      jump\t// in\n    tag_129:\n        /* \"#utility.yul\":2894:3104   */\n      swap3\n      swap2\n      pop\n      pop\n      jump\t// out\n        /* \"#utility.yul\":3110:3206   */\n    tag_82:\n        /* \"#utility.yul\":3147:3154   */\n      0x00\n        /* \"#utility.yul\":3176:3200   */\n      tag_131\n        /* \"#utility.yul\":3194:3199   */\n      dup3\n        /* \"#utility.yul\":3176:3200   */\n      tag_75\n      jump\t// in\n    tag_131:\n        /* \"#utility.yul\":3165:3200   */\n      swap1\n      pop\n        /* \"#utility.yul\":3110:3206   */\n      swap2\n      swap1\n      pop\n      jump\t// out\n        /* \"#utility.yul\":3212:3334   */\n    tag_83:\n        /* \"#utility.yul\":3285:3309   */\n      tag_133\n        /* \"#utility.yul\":3303:3308   */\n      dup2\n        /* \"#utility.yul\":3285:3309   */\n      tag_82\n      jump\t// in\n    tag_133:\n        /* \"#utility.yul\":3278:3283   */\n      dup2\n        /* \"#utility.yul\":3275:3310   */\n      eq\n        /* \"#utility.yul\":3265:3328   */\n      tag_134\n      jumpi\n        /* \"#utility.yul\":3324:3325   */\n      0x00\n        /* \"#utility.yul\":3321:3322   */\n      dup1\n        /* \"#utility.yul\":3314:3326   */\n      revert\n        /* \"#utility.yul\":3265:3328   */\n    tag_134:\n        /* \"#utility.yul\":3212:3334   */\n      pop\n      jump\t// out\n        /* \"#utility.yul\":3340:3479   */\n    tag_84:\n        /* \"#utility.yul\":3386:3391   */\n      0x00\n        /* \"#utility.yul\":3424:3430   */\n      dup2\n        /* \"#utility.yul\":3411:3431   */\n      calldataload\n        /* \"#utility.yul\":3402:3431   */\n      swap1\n      pop\n        /* \"#utility.yul\":3440:3473   */\n      tag_136\n        /* \"#utility.yul\":3467:3472   */\n      dup2\n        /* \"#utility.yul\":3440:3473   */\n      tag_83\n      jump\t// in\n    tag_136:\n        /* \"#utility.yul\":3340:3479   */\n      swap3\n      swap2\n      pop\n      pop\n      jump\t// out\n        /* \"#utility.yul\":3485:3814   */\n    tag_38:\n        /* \"#utility.yul\":3544:3550   */\n      0x00\n        /* \"#utility.yul\":3593:3595   */\n      0x20\n        /* \"#utility.yul\":3581:3590   */\n      dup3\n        /* \"#utility.yul\":3572:3579   */\n      dup5\n        /* \"#utility.yul\":3568:3591   */\n      sub\n        /* \"#utility.yul\":3564:3596   */\n      slt\n        /* \"#utility.yul\":3561:3680   */\n      iszero\n      tag_138\n      jumpi\n        /* \"#utility.yul\":3599:3678   */\n      tag_139\n      tag_69\n      jump\t// in\n    tag_139:\n        /* \"#utility.yul\":3561:3680   */\n    tag_138:\n        /* \"#utility.yul\":3719:3720   */\n      0x00\n        /* \"#utility.yul\":3744:3797   */\n      tag_140\n        /* \"#utility.yul\":3789:3796   */\n      dup5\n        /* \"#utility.yul\":3780:3786   */\n      dup3\n        /* \"#utility.yul\":3769:3778   */\n      dup6\n        /* \"#utility.yul\":3765:3787   */\n      add\n        /* \"#utility.yul\":3744:3797   */\n      tag_84\n      jump\t// in\n    tag_140:\n        /* \"#utility.yul\":3734:3797   */\n      swap2\n      pop\n        /* \"#utility.yul\":3690:3807   */\n      pop\n        /* \"#utility.yul\":3485:3814   */\n      swap3\n      swap2\n      pop\n      pop\n      jump\t// out\n        /* \"#utility.yul\":3820:3899   */\n    tag_85:\n        /* \"#utility.yul\":3859:3866   */\n      0x00\n        /* \"#utility.yul\":3888:3893   */\n      dup2\n        /* \"#utility.yul\":3877:3893   */\n      swap1\n      pop\n        /* \"#utility.yul\":3820:3899   */\n      swap2\n      swap1\n      pop\n      jump\t// out\n        /* \"#utility.yul\":3905:4062   */\n    tag_86:\n        /* \"#utility.yul\":4010:4055   */\n      tag_143\n        /* \"#utility.yul\":4030:4054   */\n      tag_144\n        /* \"#utility.yul\":4048:4053   */\n      dup3\n        /* \"#utility.yul\":4030:4054   */\n      tag_71\n      jump\t// in\n    tag_144:\n        /* \"#utility.yul\":4010:4055   */\n      tag_85\n      jump\t// in\n    tag_143:\n        /* \"#utility.yul\":4005:4008   */\n      dup3\n        /* \"#utility.yul\":3998:4056   */\n      mstore\n        /* \"#utility.yul\":3905:4062   */\n      pop\n      pop\n      jump\t// out\n        /* \"#utility.yul\":4068:4465   */\n    tag_43:\n        /* \"#utility.yul\":4208:4211   */\n      0x00\n        /* \"#utility.yul\":4223:4298   */\n      tag_146\n        /* \"#utility.yul\":4294:4297   */\n      dup3\n        /* \"#utility.yul\":4285:4291   */\n      dup6\n        /* \"#utility.yul\":4223:4298   */\n      tag_86\n      jump\t// in\n    tag_146:\n        /* \"#utility.yul\":4323:4325   */\n      0x20\n        /* \"#utility.yul\":4318:4321   */\n      dup3\n        /* \"#utility.yul\":4314:4326   */\n      add\n        /* \"#utility.yul\":4307:4326   */\n      swap2\n      pop\n        /* \"#utility.yul\":4336:4411   */\n      tag_147\n        /* \"#utility.yul\":4407:4410   */\n      dup3\n        /* \"#utility.yul\":4398:4404   */\n      dup5\n        /* \"#utility.yul\":4336:4411   */\n      tag_86\n      jump\t// in\n    tag_147:\n        /* \"#utility.yul\":4436:4438   */\n      0x20\n        /* \"#utility.yul\":4431:4434   */\n      dup3\n        /* \"#utility.yul\":4427:4439   */\n      add\n        /* \"#utility.yul\":4420:4439   */\n      swap2\n      pop\n        /* \"#utility.yul\":4456:4459   */\n      dup2\n        /* \"#utility.yul\":4449:4459   */\n      swap1\n      pop\n        /* \"#utility.yul\":4068:4465   */\n      swap4\n      swap3\n      pop\n      pop\n      pop\n      jump\t// out\n        /* \"#utility.yul\":4471:4651   */\n    tag_87:\n        /* \"#utility.yul\":4519:4596   */\n      0x4e487b7100000000000000000000000000000000000000000000000000000000\n        /* \"#utility.yul\":4516:4517   */\n      0x00\n        /* \"#utility.yul\":4509:4597   */\n      mstore\n        /* \"#utility.yul\":4616:4620   */\n      0x12\n        /* \"#utility.yul\":4613:4614   */\n      0x04\n        /* \"#utility.yul\":4606:4621   */\n      mstore\n        /* \"#utility.yul\":4640:4644   */\n      0x24\n        /* \"#utility.yul\":4637:4638   */\n      0x00\n        /* \"#utility.yul\":4630:4645   */\n      revert\n        /* \"#utility.yul\":4657:4833   */\n    tag_45:\n        /* \"#utility.yul\":4689:4690   */\n      0x00\n        /* \"#utility.yul\":4706:4726   */\n      tag_150\n        /* \"#utility.yul\":4724:4725   */\n      dup3\n        /* \"#utility.yul\":4706:4726   */\n      tag_71\n      jump\t// in\n    tag_150:\n        /* \"#utility.yul\":4701:4726   */\n      swap2\n      pop\n        /* \"#utility.yul\":4740:4760   */\n      tag_151\n        /* \"#utility.yul\":4758:4759   */\n      dup4\n        /* \"#utility.yul\":4740:4760   */\n      tag_71\n      jump\t// in\n    tag_151:\n        /* \"#utility.yul\":4735:4760   */\n      swap3\n      pop\n        /* \"#utility.yul\":4779:4780   */\n      dup3\n        /* \"#utility.yul\":4769:4804   */\n      tag_152\n      jumpi\n        /* \"#utility.yul\":4784:4802   */\n      tag_153\n      tag_87\n      jump\t// in\n    tag_153:\n        /* \"#utility.yul\":4769:4804   */\n    tag_152:\n        /* \"#utility.yul\":4825:4826   */\n      dup3\n        /* \"#utility.yul\":4822:4823   */\n      dup3\n        /* \"#utility.yul\":4818:4827   */\n      mod\n        /* \"#utility.yul\":4813:4827   */\n      swap1\n      pop\n        /* \"#utility.yul\":4657:4833   */\n      swap3\n      swap2\n      pop\n      pop\n      jump\t// out\n        /* \"#utility.yul\":4839:5019   */\n    tag_60:\n        /* \"#utility.yul\":4887:4964   */\n      0x4e487b7100000000000000000000000000000000000000000000000000000000\n        /* \"#utility.yul\":4884:4885   */\n      0x00\n        /* \"#utility.yul\":4877:4965   */\n      mstore\n        /* \"#utility.yul\":4984:4988   */\n      0x32\n        /* \"#utility.yul\":4981:4982   */\n      0x04\n        /* \"#utility.yul\":4974:4989   */\n      mstore\n        /* \"#utility.yul\":5008:5012   */\n      0x24\n        /* \"#utility.yul\":5005:5006   */\n      0x00\n        /* \"#utility.yul\":4998:5013   */\n      revert\n        /* \"#utility.yul\":5025:5194   */\n    tag_88:\n        /* \"#utility.yul\":5109:5120   */\n      0x00\n        /* \"#utility.yul\":5143:5149   */\n      dup3\n        /* \"#utility.yul\":5138:5141   */\n      dup3\n        /* \"#utility.yul\":5131:5150   */\n      mstore\n        /* \"#utility.yul\":5183:5187   */\n      0x20\n        /* \"#utility.yul\":5178:5181   */\n      dup3\n        /* \"#utility.yul\":5174:5188   */\n      add\n        /* \"#utility.yul\":5159:5188   */\n      swap1\n      pop\n        /* \"#utility.yul\":5025:5194   */\n      swap3\n      swap2\n      pop\n      pop\n      jump\t// out\n        /* \"#utility.yul\":5200:5432   */\n    tag_89:\n        /* \"#utility.yul\":5340:5374   */\n      0x5468697320616464726573732068617320616c726561647920656e7465726564\n        /* \"#utility.yul\":5336:5337   */\n      0x00\n        /* \"#utility.yul\":5328:5334   */\n      dup3\n        /* \"#utility.yul\":5324:5338   */\n      add\n        /* \"#utility.yul\":5317:5375   */\n      mstore\n        /* \"#utility.yul\":5409:5424   */\n      0x20746865206c6f74746572792e00000000000000000000000000000000000000\n        /* \"#utility.yul\":5404:5406   */\n      0x20\n        /* \"#utility.yul\":5396:5402   */\n      dup3\n        /* \"#utility.yul\":5392:5407   */\n      add\n        /* \"#utility.yul\":5385:5425   */\n      mstore\n        /* \"#utility.yul\":5200:5432   */\n      pop\n      jump\t// out\n        /* \"#utility.yul\":5438:5804   */\n    tag_90:\n        /* \"#utility.yul\":5580:5583   */\n      0x00\n        /* \"#utility.yul\":5601:5668   */\n      tag_158\n        /* \"#utility.yul\":5665:5667   */\n      0x2d\n        /* \"#utility.yul\":5660:5663   */\n      dup4\n        /* \"#utility.yul\":5601:5668   */\n      tag_88\n      jump\t// in\n    tag_158:\n        /* \"#utility.yul\":5594:5668   */\n      swap2\n      pop\n        /* \"#utility.yul\":5677:5770   */\n      tag_159\n        /* \"#utility.yul\":5766:5769   */\n      dup3\n        /* \"#utility.yul\":5677:5770   */\n      tag_89\n      jump\t// in\n    tag_159:\n        /* \"#utility.yul\":5795:5797   */\n      0x40\n        /* \"#utility.yul\":5790:5793   */\n      dup3\n        /* \"#utility.yul\":5786:5798   */\n      add\n        /* \"#utility.yul\":5779:5798   */\n      swap1\n      pop\n        /* \"#utility.yul\":5438:5804   */\n      swap2\n      swap1\n      pop\n      jump\t// out\n        /* \"#utility.yul\":5810:6229   */\n    tag_66:\n        /* \"#utility.yul\":5976:5980   */\n      0x00\n        /* \"#utility.yul\":6014:6016   */\n      0x20\n        /* \"#utility.yul\":6003:6012   */\n      dup3\n        /* \"#utility.yul\":5999:6017   */\n      add\n        /* \"#utility.yul\":5991:6017   */\n      swap1\n      pop\n        /* \"#utility.yul\":6063:6072   */\n      dup2\n        /* \"#utility.yul\":6057:6061   */\n      dup2\n        /* \"#utility.yul\":6053:6073   */\n      sub\n        /* \"#utility.yul\":6049:6050   */\n      0x00\n        /* \"#utility.yul\":6038:6047   */\n      dup4\n        /* \"#utility.yul\":6034:6051   */\n      add\n        /* \"#utility.yul\":6027:6074   */\n      mstore\n        /* \"#utility.yul\":6091:6222   */\n      tag_161\n        /* \"#utility.yul\":6217:6221   */\n      dup2\n        /* \"#utility.yul\":6091:6222   */\n      tag_90\n      jump\t// in\n    tag_161:\n        /* \"#utility.yul\":6083:6222   */\n      swap1\n      pop\n        /* \"#utility.yul\":5810:6229   */\n      swap2\n      swap1\n      pop\n      jump\t// out\n\n    auxdata: 0xa2646970667358221220f871e233e82a1f19925e6f7ce3a78cd0ff251bd039fb8b6780f196d86cab9ff964736f6c63430008110033\n}\n",
				"bytecode": {
					"linkReferences": {},
					"object": "608060405234801561001057600080fd5b50610839806100206000396000f3fe608060405234801561001057600080fd5b506004361061007d5760003560e01c80637f7982431161005b5780637f798243146100ec578063912a90bb1461010a578063a8a540081461013a578063bff82dee146101565761007d565b806312845966146100825780631593a8c7146100b257806327dff143146100bc575b600080fd5b61009c600480360381019061009791906104d7565b610186565b6040516100a99190610513565b60405180910390f35b6100ba6101cb565b005b6100d660048036038101906100d191906104d7565b610216565b6040516100e3919061056f565b60405180910390f35b6100f4610255565b604051610101919061056f565b60405180910390f35b610124600480360381019061011f91906105b6565b6102d8565b60405161013191906105fe565b60405180910390f35b610154600480360381019061014f91906105b6565b61032d565b005b610170600480360381019061016b9190610657565b61047c565b60405161017d91906105fe565b60405180910390f35b600080444260405160200161019c9291906106a5565b6040516020818303038152906040528051906020012060001c905082816101c39190610700565b915050919050565b60006101d5610255565b9050600073ffffffffffffffffffffffffffffffffffffffff168173ffffffffffffffffffffffffffffffffffffffff160315610213576000479050505b50565b6001818154811061022657600080fd5b906000526020600020016000915054906101000a900473ffffffffffffffffffffffffffffffffffffffff1681565b60008060018054905090506000808203610274576000925050506102d5565b600182036102855760009050610291565b61028e82610186565b90505b600181815481106102a5576102a4610731565b5b9060005260206000200160009054906101000a900473ffffffffffffffffffffffffffffffffffffffff16925050505b90565b60008060008373ffffffffffffffffffffffffffffffffffffffff1673ffffffffffffffffffffffffffffffffffffffff16815260200190815260200160002060009054906101000a900460ff169050919050565b60008060008373ffffffffffffffffffffffffffffffffffffffff1673ffffffffffffffffffffffffffffffffffffffff16815260200190815260200160002060009054906101000a900460ff16905080156103be576040517f08c379a00000000000000000000000000000000000000000000000000000000081526004016103b5906107e3565b60405180910390fd5b60016000808473ffffffffffffffffffffffffffffffffffffffff1673ffffffffffffffffffffffffffffffffffffffff16815260200190815260200160002060006101000a81548160ff0219169083151502179055506001829080600181540180825580915050600190039060005260206000200160009091909190916101000a81548173ffffffffffffffffffffffffffffffffffffffff021916908373ffffffffffffffffffffffffffffffffffffffff1602179055505050565b60006020528060005260406000206000915054906101000a900460ff1681565b600080fd5b6000819050919050565b6104b4816104a1565b81146104bf57600080fd5b50565b6000813590506104d1816104ab565b92915050565b6000602082840312156104ed576104ec61049c565b5b60006104fb848285016104c2565b91505092915050565b61050d816104a1565b82525050565b60006020820190506105286000830184610504565b92915050565b600073ffffffffffffffffffffffffffffffffffffffff82169050919050565b60006105598261052e565b9050919050565b6105698161054e565b82525050565b60006020820190506105846000830184610560565b92915050565b6105938161054e565b811461059e57600080fd5b50565b6000813590506105b08161058a565b92915050565b6000602082840312156105cc576105cb61049c565b5b60006105da848285016105a1565b91505092915050565b60008115159050919050565b6105f8816105e3565b82525050565b600060208201905061061360008301846105ef565b92915050565b60006106248261052e565b9050919050565b61063481610619565b811461063f57600080fd5b50565b6000813590506106518161062b565b92915050565b60006020828403121561066d5761066c61049c565b5b600061067b84828501610642565b91505092915050565b6000819050919050565b61069f61069a826104a1565b610684565b82525050565b60006106b1828561068e565b6020820191506106c1828461068e565b6020820191508190509392505050565b7f4e487b7100000000000000000000000000000000000000000000000000000000600052601260045260246000fd5b600061070b826104a1565b9150610716836104a1565b925082610726576107256106d1565b5b828206905092915050565b7f4e487b7100000000000000000000000000000000000000000000000000000000600052603260045260246000fd5b600082825260208201905092915050565b7f5468697320616464726573732068617320616c726561647920656e746572656460008201527f20746865206c6f74746572792e00000000000000000000000000000000000000602082015250565b60006107cd602d83610760565b91506107d882610771565b604082019050919050565b600060208201905081810360008301526107fc816107c0565b905091905056fea2646970667358221220f871e233e82a1f19925e6f7ce3a78cd0ff251bd039fb8b6780f196d86cab9ff964736f6c63430008110033",
					"opcodes": "PUSH1 0x80 PUSH1 0x40 MSTORE CALLVALUE DUP1 ISZERO PUSH2 0x10 JUMPI PUSH1 0x0 DUP1 REVERT JUMPDEST POP PUSH2 0x839 DUP1 PUSH2 0x20 PUSH1 0x0 CODECOPY PUSH1 0x0 RETURN INVALID PUSH1 0x80 PUSH1 0x40 MSTORE CALLVALUE DUP1 ISZERO PUSH2 0x10 JUMPI PUSH1 0x0 DUP1 REVERT JUMPDEST POP PUSH1 0x4 CALLDATASIZE LT PUSH2 0x7D JUMPI PUSH1 0x0 CALLDATALOAD PUSH1 0xE0 SHR DUP1 PUSH4 0x7F798243 GT PUSH2 0x5B JUMPI DUP1 PUSH4 0x7F798243 EQ PUSH2 0xEC JUMPI DUP1 PUSH4 0x912A90BB EQ PUSH2 0x10A JUMPI DUP1 PUSH4 0xA8A54008 EQ PUSH2 0x13A JUMPI DUP1 PUSH4 0xBFF82DEE EQ PUSH2 0x156 JUMPI PUSH2 0x7D JUMP JUMPDEST DUP1 PUSH4 0x12845966 EQ PUSH2 0x82 JUMPI DUP1 PUSH4 0x1593A8C7 EQ PUSH2 0xB2 JUMPI DUP1 PUSH4 0x27DFF143 EQ PUSH2 0xBC JUMPI JUMPDEST PUSH1 0x0 DUP1 REVERT JUMPDEST PUSH2 0x9C PUSH1 0x4 DUP1 CALLDATASIZE SUB DUP2 ADD SWAP1 PUSH2 0x97 SWAP2 SWAP1 PUSH2 0x4D7 JUMP JUMPDEST PUSH2 0x186 JUMP JUMPDEST PUSH1 0x40 MLOAD PUSH2 0xA9 SWAP2 SWAP1 PUSH2 0x513 JUMP JUMPDEST PUSH1 0x40 MLOAD DUP1 SWAP2 SUB SWAP1 RETURN JUMPDEST PUSH2 0xBA PUSH2 0x1CB JUMP JUMPDEST STOP JUMPDEST PUSH2 0xD6 PUSH1 0x4 DUP1 CALLDATASIZE SUB DUP2 ADD SWAP1 PUSH2 0xD1 SWAP2 SWAP1 PUSH2 0x4D7 JUMP JUMPDEST PUSH2 0x216 JUMP JUMPDEST PUSH1 0x40 MLOAD PUSH2 0xE3 SWAP2 SWAP1 PUSH2 0x56F JUMP JUMPDEST PUSH1 0x40 MLOAD DUP1 SWAP2 SUB SWAP1 RETURN JUMPDEST PUSH2 0xF4 PUSH2 0x255 JUMP JUMPDEST PUSH1 0x40 MLOAD PUSH2 0x101 SWAP2 SWAP1 PUSH2 0x56F JUMP JUMPDEST PUSH1 0x40 MLOAD DUP1 SWAP2 SUB SWAP1 RETURN JUMPDEST PUSH2 0x124 PUSH1 0x4 DUP1 CALLDATASIZE SUB DUP2 ADD SWAP1 PUSH2 0x11F SWAP2 SWAP1 PUSH2 0x5B6 JUMP JUMPDEST PUSH2 0x2D8 JUMP JUMPDEST PUSH1 0x40 MLOAD PUSH2 0x131 SWAP2 SWAP1 PUSH2 0x5FE JUMP JUMPDEST PUSH1 0x40 MLOAD DUP1 SWAP2 SUB SWAP1 RETURN JUMPDEST PUSH2 0x154 PUSH1 0x4 DUP1 CALLDATASIZE SUB DUP2 ADD SWAP1 PUSH2 0x14F SWAP2 SWAP1 PUSH2 0x5B6 JUMP JUMPDEST PUSH2 0x32D JUMP JUMPDEST STOP JUMPDEST PUSH2 0x170 PUSH1 0x4 DUP1 CALLDATASIZE SUB DUP2 ADD SWAP1 PUSH2 0x16B SWAP2 SWAP1 PUSH2 0x657 JUMP JUMPDEST PUSH2 0x47C JUMP JUMPDEST PUSH1 0x40 MLOAD PUSH2 0x17D SWAP2 SWAP1 PUSH2 0x5FE JUMP JUMPDEST PUSH1 0x40 MLOAD DUP1 SWAP2 SUB SWAP1 RETURN JUMPDEST PUSH1 0x0 DUP1 DIFFICULTY TIMESTAMP PUSH1 0x40 MLOAD PUSH1 0x20 ADD PUSH2 0x19C SWAP3 SWAP2 SWAP1 PUSH2 0x6A5 JUMP JUMPDEST PUSH1 0x40 MLOAD PUSH1 0x20 DUP2 DUP4 SUB SUB DUP2 MSTORE SWAP1 PUSH1 0x40 MSTORE DUP1 MLOAD SWAP1 PUSH1 0x20 ADD KECCAK256 PUSH1 0x0 SHR SWAP1 POP DUP3 DUP2 PUSH2 0x1C3 SWAP2 SWAP1 PUSH2 0x700 JUMP JUMPDEST SWAP2 POP POP SWAP2 SWAP1 POP JUMP JUMPDEST PUSH1 0x0 PUSH2 0x1D5 PUSH2 0x255 JUMP JUMPDEST SWAP1 POP PUSH1 0x0 PUSH20 0xFFFFFFFFFFFFFFFFFFFFFFFFFFFFFFFFFFFFFFFF AND DUP2 PUSH20 0xFFFFFFFFFFFFFFFFFFFFFFFFFFFFFFFFFFFFFFFF AND SUB ISZERO PUSH2 0x213 JUMPI PUSH1 0x0 SELFBALANCE SWAP1 POP POP JUMPDEST POP JUMP JUMPDEST PUSH1 0x1 DUP2 DUP2 SLOAD DUP2 LT PUSH2 0x226 JUMPI PUSH1 0x0 DUP1 REVERT JUMPDEST SWAP1 PUSH1 0x0 MSTORE PUSH1 0x20 PUSH1 0x0 KECCAK256 ADD PUSH1 0x0 SWAP2 POP SLOAD SWAP1 PUSH2 0x100 EXP SWAP1 DIV PUSH20 0xFFFFFFFFFFFFFFFFFFFFFFFFFFFFFFFFFFFFFFFF AND DUP2 JUMP JUMPDEST PUSH1 0x0 DUP1 PUSH1 0x1 DUP1 SLOAD SWAP1 POP SWAP1 POP PUSH1 0x0 DUP1 DUP3 SUB PUSH2 0x274 JUMPI PUSH1 0x0 SWAP3 POP POP POP PUSH2 0x2D5 JUMP JUMPDEST PUSH1 0x1 DUP3 SUB PUSH2 0x285 JUMPI PUSH1 0x0 SWAP1 POP PUSH2 0x291 JUMP JUMPDEST PUSH2 0x28E DUP3 PUSH2 0x186 JUMP JUMPDEST SWAP1 POP JUMPDEST PUSH1 0x1 DUP2 DUP2 SLOAD DUP2 LT PUSH2 0x2A5 JUMPI PUSH2 0x2A4 PUSH2 0x731 JUMP JUMPDEST JUMPDEST SWAP1 PUSH1 0x0 MSTORE PUSH1 0x20 PUSH1 0x0 KECCAK256 ADD PUSH1 0x0 SWAP1 SLOAD SWAP1 PUSH2 0x100 EXP SWAP1 DIV PUSH20 0xFFFFFFFFFFFFFFFFFFFFFFFFFFFFFFFFFFFFFFFF AND SWAP3 POP POP POP JUMPDEST SWAP1 JUMP JUMPDEST PUSH1 0x0 DUP1 PUSH1 0x0 DUP4 PUSH20 0xFFFFFFFFFFFFFFFFFFFFFFFFFFFFFFFFFFFFFFFF AND PUSH20 0xFFFFFFFFFFFFFFFFFFFFFFFFFFFFFFFFFFFFFFFF AND DUP2 MSTORE PUSH1 0x20 ADD SWAP1 DUP2 MSTORE PUSH1 0x20 ADD PUSH1 0x0 KECCAK256 PUSH1 0x0 SWAP1 SLOAD SWAP1 PUSH2 0x100 EXP SWAP1 DIV PUSH1 0xFF AND SWAP1 POP SWAP2 SWAP1 POP JUMP JUMPDEST PUSH1 0x0 DUP1 PUSH1 0x0 DUP4 PUSH20 0xFFFFFFFFFFFFFFFFFFFFFFFFFFFFFFFFFFFFFFFF AND PUSH20 0xFFFFFFFFFFFFFFFFFFFFFFFFFFFFFFFFFFFFFFFF AND DUP2 MSTORE PUSH1 0x20 ADD SWAP1 DUP2 MSTORE PUSH1 0x20 ADD PUSH1 0x0 KECCAK256 PUSH1 0x0 SWAP1 SLOAD SWAP1 PUSH2 0x100 EXP SWAP1 DIV PUSH1 0xFF AND SWAP1 POP DUP1 ISZERO PUSH2 0x3BE JUMPI PUSH1 0x40 MLOAD PUSH32 0x8C379A000000000000000000000000000000000000000000000000000000000 DUP2 MSTORE PUSH1 0x4 ADD PUSH2 0x3B5 SWAP1 PUSH2 0x7E3 JUMP JUMPDEST PUSH1 0x40 MLOAD DUP1 SWAP2 SUB SWAP1 REVERT JUMPDEST PUSH1 0x1 PUSH1 0x0 DUP1 DUP5 PUSH20 0xFFFFFFFFFFFFFFFFFFFFFFFFFFFFFFFFFFFFFFFF AND PUSH20 0xFFFFFFFFFFFFFFFFFFFFFFFFFFFFFFFFFFFFFFFF AND DUP2 MSTORE PUSH1 0x20 ADD SWAP1 DUP2 MSTORE PUSH1 0x20 ADD PUSH1 0x0 KECCAK256 PUSH1 0x0 PUSH2 0x100 EXP DUP2 SLOAD DUP2 PUSH1 0xFF MUL NOT AND SWAP1 DUP4 ISZERO ISZERO MUL OR SWAP1 SSTORE POP PUSH1 0x1 DUP3 SWAP1 DUP1 PUSH1 0x1 DUP2 SLOAD ADD DUP1 DUP3 SSTORE DUP1 SWAP2 POP POP PUSH1 0x1 SWAP1 SUB SWAP1 PUSH1 0x0 MSTORE PUSH1 0x20 PUSH1 0x0 KECCAK256 ADD PUSH1 0x0 SWAP1 SWAP2 SWAP1 SWAP2 SWAP1 SWAP2 PUSH2 0x100 EXP DUP2 SLOAD DUP2 PUSH20 0xFFFFFFFFFFFFFFFFFFFFFFFFFFFFFFFFFFFFFFFF MUL NOT AND SWAP1 DUP4 PUSH20 0xFFFFFFFFFFFFFFFFFFFFFFFFFFFFFFFFFFFFFFFF AND MUL OR SWAP1 SSTORE POP POP POP JUMP JUMPDEST PUSH1 0x0 PUSH1 0x20 MSTORE DUP1 PUSH1 0x0 MSTORE PUSH1 0x40 PUSH1 0x0 KECCAK256 PUSH1 0x0 SWAP2 POP SLOAD SWAP1 PUSH2 0x100 EXP SWAP1 DIV PUSH1 0xFF AND DUP2 JUMP JUMPDEST PUSH1 0x0 DUP1 REVERT JUMPDEST PUSH1 0x0 DUP2 SWAP1 POP SWAP2 SWAP1 POP JUMP JUMPDEST PUSH2 0x4B4 DUP2 PUSH2 0x4A1 JUMP JUMPDEST DUP2 EQ PUSH2 0x4BF JUMPI PUSH1 0x0 DUP1 REVERT JUMPDEST POP JUMP JUMPDEST PUSH1 0x0 DUP2 CALLDATALOAD SWAP1 POP PUSH2 0x4D1 DUP2 PUSH2 0x4AB JUMP JUMPDEST SWAP3 SWAP2 POP POP JUMP JUMPDEST PUSH1 0x0 PUSH1 0x20 DUP3 DUP5 SUB SLT ISZERO PUSH2 0x4ED JUMPI PUSH2 0x4EC PUSH2 0x49C JUMP JUMPDEST JUMPDEST PUSH1 0x0 PUSH2 0x4FB DUP5 DUP3 DUP6 ADD PUSH2 0x4C2 JUMP JUMPDEST SWAP2 POP POP SWAP3 SWAP2 POP POP JUMP JUMPDEST PUSH2 0x50D DUP2 PUSH2 0x4A1 JUMP JUMPDEST DUP3 MSTORE POP POP JUMP JUMPDEST PUSH1 0x0 PUSH1 0x20 DUP3 ADD SWAP1 POP PUSH2 0x528 PUSH1 0x0 DUP4 ADD DUP5 PUSH2 0x504 JUMP JUMPDEST SWAP3 SWAP2 POP POP JUMP JUMPDEST PUSH1 0x0 PUSH20 0xFFFFFFFFFFFFFFFFFFFFFFFFFFFFFFFFFFFFFFFF DUP3 AND SWAP1 POP SWAP2 SWAP1 POP JUMP JUMPDEST PUSH1 0x0 PUSH2 0x559 DUP3 PUSH2 0x52E JUMP JUMPDEST SWAP1 POP SWAP2 SWAP1 POP JUMP JUMPDEST PUSH2 0x569 DUP2 PUSH2 0x54E JUMP JUMPDEST DUP3 MSTORE POP POP JUMP JUMPDEST PUSH1 0x0 PUSH1 0x20 DUP3 ADD SWAP1 POP PUSH2 0x584 PUSH1 0x0 DUP4 ADD DUP5 PUSH2 0x560 JUMP JUMPDEST SWAP3 SWAP2 POP POP JUMP JUMPDEST PUSH2 0x593 DUP2 PUSH2 0x54E JUMP JUMPDEST DUP2 EQ PUSH2 0x59E JUMPI PUSH1 0x0 DUP1 REVERT JUMPDEST POP JUMP JUMPDEST PUSH1 0x0 DUP2 CALLDATALOAD SWAP1 POP PUSH2 0x5B0 DUP2 PUSH2 0x58A JUMP JUMPDEST SWAP3 SWAP2 POP POP JUMP JUMPDEST PUSH1 0x0 PUSH1 0x20 DUP3 DUP5 SUB SLT ISZERO PUSH2 0x5CC JUMPI PUSH2 0x5CB PUSH2 0x49C JUMP JUMPDEST JUMPDEST PUSH1 0x0 PUSH2 0x5DA DUP5 DUP3 DUP6 ADD PUSH2 0x5A1 JUMP JUMPDEST SWAP2 POP POP SWAP3 SWAP2 POP POP JUMP JUMPDEST PUSH1 0x0 DUP2 ISZERO ISZERO SWAP1 POP SWAP2 SWAP1 POP JUMP JUMPDEST PUSH2 0x5F8 DUP2 PUSH2 0x5E3 JUMP JUMPDEST DUP3 MSTORE POP POP JUMP JUMPDEST PUSH1 0x0 PUSH1 0x20 DUP3 ADD SWAP1 POP PUSH2 0x613 PUSH1 0x0 DUP4 ADD DUP5 PUSH2 0x5EF JUMP JUMPDEST SWAP3 SWAP2 POP POP JUMP JUMPDEST PUSH1 0x0 PUSH2 0x624 DUP3 PUSH2 0x52E JUMP JUMPDEST SWAP1 POP SWAP2 SWAP1 POP JUMP JUMPDEST PUSH2 0x634 DUP2 PUSH2 0x619 JUMP JUMPDEST DUP2 EQ PUSH2 0x63F JUMPI PUSH1 0x0 DUP1 REVERT JUMPDEST POP JUMP JUMPDEST PUSH1 0x0 DUP2 CALLDATALOAD SWAP1 POP PUSH2 0x651 DUP2 PUSH2 0x62B JUMP JUMPDEST SWAP3 SWAP2 POP POP JUMP JUMPDEST PUSH1 0x0 PUSH1 0x20 DUP3 DUP5 SUB SLT ISZERO PUSH2 0x66D JUMPI PUSH2 0x66C PUSH2 0x49C JUMP JUMPDEST JUMPDEST PUSH1 0x0 PUSH2 0x67B DUP5 DUP3 DUP6 ADD PUSH2 0x642 JUMP JUMPDEST SWAP2 POP POP SWAP3 SWAP2 POP POP JUMP JUMPDEST PUSH1 0x0 DUP2 SWAP1 POP SWAP2 SWAP1 POP JUMP JUMPDEST PUSH2 0x69F PUSH2 0x69A DUP3 PUSH2 0x4A1 JUMP JUMPDEST PUSH2 0x684 JUMP JUMPDEST DUP3 MSTORE POP POP JUMP JUMPDEST PUSH1 0x0 PUSH2 0x6B1 DUP3 DUP6 PUSH2 0x68E JUMP JUMPDEST PUSH1 0x20 DUP3 ADD SWAP2 POP PUSH2 0x6C1 DUP3 DUP5 PUSH2 0x68E JUMP JUMPDEST PUSH1 0x20 DUP3 ADD SWAP2 POP DUP2 SWAP1 POP SWAP4 SWAP3 POP POP POP JUMP JUMPDEST PUSH32 0x4E487B7100000000000000000000000000000000000000000000000000000000 PUSH1 0x0 MSTORE PUSH1 0x12 PUSH1 0x4 MSTORE PUSH1 0x24 PUSH1 0x0 REVERT JUMPDEST PUSH1 0x0 PUSH2 0x70B DUP3 PUSH2 0x4A1 JUMP JUMPDEST SWAP2 POP PUSH2 0x716 DUP4 PUSH2 0x4A1 JUMP JUMPDEST SWAP3 POP DUP3 PUSH2 0x726 JUMPI PUSH2 0x725 PUSH2 0x6D1 JUMP JUMPDEST JUMPDEST DUP3 DUP3 MOD SWAP1 POP SWAP3 SWAP2 POP POP JUMP JUMPDEST PUSH32 0x4E487B7100000000000000000000000000000000000000000000000000000000 PUSH1 0x0 MSTORE PUSH1 0x32 PUSH1 0x4 MSTORE PUSH1 0x24 PUSH1 0x0 REVERT JUMPDEST PUSH1 0x0 DUP3 DUP3 MSTORE PUSH1 0x20 DUP3 ADD SWAP1 POP SWAP3 SWAP2 POP POP JUMP JUMPDEST PUSH32 0x5468697320616464726573732068617320616C726561647920656E7465726564 PUSH1 0x0 DUP3 ADD MSTORE PUSH32 0x20746865206C6F74746572792E00000000000000000000000000000000000000 PUSH1 0x20 DUP3 ADD MSTORE POP JUMP JUMPDEST PUSH1 0x0 PUSH2 0x7CD PUSH1 0x2D DUP4 PUSH2 0x760 JUMP JUMPDEST SWAP2 POP PUSH2 0x7D8 DUP3 PUSH2 0x771 JUMP JUMPDEST PUSH1 0x40 DUP3 ADD SWAP1 POP SWAP2 SWAP1 POP JUMP JUMPDEST PUSH1 0x0 PUSH1 0x20 DUP3 ADD SWAP1 POP DUP2 DUP2 SUB PUSH1 0x0 DUP4 ADD MSTORE PUSH2 0x7FC DUP2 PUSH2 0x7C0 JUMP JUMPDEST SWAP1 POP SWAP2 SWAP1 POP JUMP INVALID LOG2 PUSH5 0x6970667358 0x22 SLT KECCAK256 0xF8 PUSH18 0xE233E82A1F19925E6F7CE3A78CD0FF251BD0 CODECOPY 0xFB DUP12 PUSH8 0x80F196D86CAB9FF9 PUSH5 0x736F6C6343 STOP ADDMOD GT STOP CALLER "
				},
				"gasEstimates": {
					"creation": {
						"codeDepositCost": "421000",
						"executionCost": "455",
						"totalCost": "421455"
					},
					"external": {
						"chooseWinningAddress()": "infinite",
						"endLottery()": "infinite",
						"isAddressPlaying(address)": "2905",
						"list_playerAddress(uint256)": "5001",
						"map_isPlaying(address)": "2911",
						"randomInt(uint256)": "infinite",
						"registerAddress(address)": "75694"
					}
				},
				"methodIdentifiers": {
					"chooseWinningAddress()": "7f798243",
					"endLottery()": "1593a8c7",
					"isAddressPlaying(address)": "912a90bb",
					"list_playerAddress(uint256)": "27dff143",
					"map_isPlaying(address)": "bff82dee",
					"randomInt(uint256)": "12845966",
					"registerAddress(address)": "a8a54008"
				}
			},
			"storageLayout": {
				"storage": [
					{
						"astId": 18,
						"contract": "contracts/lottery.sol:Lottery",
						"label": "map_isPlaying",
						"offset": 0,
						"slot": "0",
						"type": "t_mapping(t_address,t_bool)"
					},
					{
						"astId": 21,
						"contract": "contracts/lottery.sol:Lottery",
						"label": "list_playerAddress",
						"offset": 0,
						"slot": "1",
						"type": "t_array(t_address_payable)dyn_storage"
					}
				],
				"types": {
					"t_address": {
						"encoding": "inplace",
						"label": "address",
						"numberOfBytes": "20"
					},
					"t_address_payable": {
						"encoding": "inplace",
						"label": "address payable",
						"numberOfBytes": "20"
					},
					"t_array(t_address_payable)dyn_storage": {
						"base": "t_address_payable",
						"encoding": "dynamic_array",
						"label": "address payable[]",
						"numberOfBytes": "32"
					},
					"t_bool": {
						"encoding": "inplace",
						"label": "bool",
						"numberOfBytes": "1"
					},
					"t_mapping(t_address,t_bool)": {
						"encoding": "mapping",
						"key": "t_address",
						"label": "mapping(address => bool)",
						"numberOfBytes": "32",
						"value": "t_bool"
					}
				}
			},
			"userdoc": {
				"kind": "user",
				"methods": {},
				"version": 1
			}
		}
	}
}