{
	"contracts/lottery.sol": {
		"Lottery": {
			"abi": [
				{
					"inputs": [
						{
							"internalType": "address payable",
							"name": "playerAddress",
							"type": "address"
						}
					],
					"name": "isAddressPlaying",
					"outputs": [
						{
							"internalType": "bool",
							"name": "",
							"type": "bool"
						}
					],
					"stateMutability": "nonpayable",
					"type": "function"
				},
				{
					"inputs": [
						{
							"internalType": "address",
							"name": "",
							"type": "address"
						}
					],
					"name": "map_isPlaying",
					"outputs": [
						{
							"internalType": "bool",
							"name": "",
							"type": "bool"
						}
					],
					"stateMutability": "view",
					"type": "function"
				},
				{
					"inputs": [
						{
							"internalType": "address payable",
							"name": "playerAddress",
							"type": "address"
						}
					],
					"name": "registerAddress",
					"outputs": [],
					"stateMutability": "nonpayable",
					"type": "function"
				}
			],
			"devdoc": {
				"custom:dev-run-script": "./scripts/deploy_with_ethers.ts",
				"details": "A blockchain lottery",
				"kind": "dev",
				"methods": {},
				"title": "Lottery",
				"version": 1
			},
			"evm": {
				"assembly": "    /* \"contracts/lottery.sol\":192:884  contract Lottery {\r... */\n  mstore(0x40, 0x80)\n  callvalue\n  dup1\n  iszero\n  tag_1\n  jumpi\n  0x00\n  dup1\n  revert\ntag_1:\n  pop\n  dataSize(sub_0)\n  dup1\n  dataOffset(sub_0)\n  0x00\n  codecopy\n  0x00\n  return\nstop\n\nsub_0: assembly {\n        /* \"contracts/lottery.sol\":192:884  contract Lottery {\r... */\n      mstore(0x40, 0x80)\n      callvalue\n      dup1\n      iszero\n      tag_1\n      jumpi\n      0x00\n      dup1\n      revert\n    tag_1:\n      pop\n      jumpi(tag_2, lt(calldatasize, 0x04))\n      shr(0xe0, calldataload(0x00))\n      dup1\n      0x912a90bb\n      eq\n      tag_3\n      jumpi\n      dup1\n      0xa8a54008\n      eq\n      tag_4\n      jumpi\n      dup1\n      0xbff82dee\n      eq\n      tag_5\n      jumpi\n    tag_2:\n      0x00\n      dup1\n      revert\n        /* \"contracts/lottery.sol\":702:881  function isAddressPlaying(address payable playerAddress) public returns (bool) {\r... */\n    tag_3:\n      tag_6\n      0x04\n      dup1\n      calldatasize\n      sub\n      dup2\n      add\n      swap1\n      tag_7\n      swap2\n      swap1\n      tag_8\n      jump\t// in\n    tag_7:\n      tag_9\n      jump\t// in\n    tag_6:\n      mload(0x40)\n      tag_10\n      swap2\n      swap1\n      tag_11\n      jump\t// in\n    tag_10:\n      mload(0x40)\n      dup1\n      swap2\n      sub\n      swap1\n      return\n        /* \"contracts/lottery.sol\":270:690  function registerAddress(address payable playerAddress) public {\r... */\n    tag_4:\n      tag_12\n      0x04\n      dup1\n      calldatasize\n      sub\n      dup2\n      add\n      swap1\n      tag_13\n      swap2\n      swap1\n      tag_8\n      jump\t// in\n    tag_13:\n      tag_14\n      jump\t// in\n    tag_12:\n      stop\n        /* \"contracts/lottery.sol\":216:261  mapping(address => bool) public map_isPlaying */\n    tag_5:\n      tag_15\n      0x04\n      dup1\n      calldatasize\n      sub\n      dup2\n      add\n      swap1\n      tag_16\n      swap2\n      swap1\n      tag_17\n      jump\t// in\n    tag_16:\n      tag_18\n      jump\t// in\n    tag_15:\n      mload(0x40)\n      tag_19\n      swap2\n      swap1\n      tag_11\n      jump\t// in\n    tag_19:\n      mload(0x40)\n      dup1\n      swap2\n      sub\n      swap1\n      return\n        /* \"contracts/lottery.sol\":702:881  function isAddressPlaying(address payable playerAddress) public returns (bool) {\r... */\n    tag_9:\n        /* \"contracts/lottery.sol\":775:779  bool */\n      0x00\n        /* \"contracts/lottery.sol\":823:827  true */\n      0x01\n        /* \"contracts/lottery.sol\":792:805  map_isPlaying */\n      0x00\n        /* \"contracts/lottery.sol\":792:820  map_isPlaying[playerAddress] */\n      dup1\n        /* \"contracts/lottery.sol\":806:819  playerAddress */\n      dup5\n        /* \"contracts/lottery.sol\":792:820  map_isPlaying[playerAddress] */\n      0xffffffffffffffffffffffffffffffffffffffff\n      and\n      0xffffffffffffffffffffffffffffffffffffffff\n      and\n      dup2\n      mstore\n      0x20\n      add\n      swap1\n      dup2\n      mstore\n      0x20\n      add\n      0x00\n      keccak256\n      0x00\n        /* \"contracts/lottery.sol\":792:827  map_isPlaying[playerAddress] = true */\n      0x0100\n      exp\n      dup2\n      sload\n      dup2\n      0xff\n      mul\n      not\n      and\n      swap1\n      dup4\n      iszero\n      iszero\n      mul\n      or\n      swap1\n      sstore\n      pop\n        /* \"contracts/lottery.sol\":845:858  map_isPlaying */\n      0x00\n        /* \"contracts/lottery.sol\":845:873  map_isPlaying[playerAddress] */\n      dup1\n        /* \"contracts/lottery.sol\":859:872  playerAddress */\n      dup4\n        /* \"contracts/lottery.sol\":845:873  map_isPlaying[playerAddress] */\n      0xffffffffffffffffffffffffffffffffffffffff\n      and\n      0xffffffffffffffffffffffffffffffffffffffff\n      and\n      dup2\n      mstore\n      0x20\n      add\n      swap1\n      dup2\n      mstore\n      0x20\n      add\n      0x00\n      keccak256\n      0x00\n      swap1\n      sload\n      swap1\n      0x0100\n      exp\n      swap1\n      div\n      0xff\n      and\n        /* \"contracts/lottery.sol\":838:873  return map_isPlaying[playerAddress] */\n      swap1\n      pop\n        /* \"contracts/lottery.sol\":702:881  function isAddressPlaying(address payable playerAddress) public returns (bool) {\r... */\n      swap2\n      swap1\n      pop\n      jump\t// out\n        /* \"contracts/lottery.sol\":270:690  function registerAddress(address payable playerAddress) public {\r... */\n    tag_14:\n        /* \"contracts/lottery.sol\":449:463  bool isPlaying */\n      0x00\n        /* \"contracts/lottery.sol\":466:479  map_isPlaying */\n      dup1\n        /* \"contracts/lottery.sol\":466:494  map_isPlaying[playerAddress] */\n      0x00\n        /* \"contracts/lottery.sol\":480:493  playerAddress */\n      dup4\n        /* \"contracts/lottery.sol\":466:494  map_isPlaying[playerAddress] */\n      0xffffffffffffffffffffffffffffffffffffffff\n      and\n      0xffffffffffffffffffffffffffffffffffffffff\n      and\n      dup2\n      mstore\n      0x20\n      add\n      swap1\n      dup2\n      mstore\n      0x20\n      add\n      0x00\n      keccak256\n      0x00\n      swap1\n      sload\n      swap1\n      0x0100\n      exp\n      swap1\n      div\n      0xff\n      and\n        /* \"contracts/lottery.sol\":449:494  bool isPlaying = map_isPlaying[playerAddress] */\n      swap1\n      pop\n        /* \"contracts/lottery.sol\":513:522  isPlaying */\n      dup1\n        /* \"contracts/lottery.sol\":505:572  require(isPlaying, \"This address has already entered the lottery.\") */\n      tag_22\n      jumpi\n      mload(0x40)\n      0x08c379a000000000000000000000000000000000000000000000000000000000\n      dup2\n      mstore\n      0x04\n      add\n      tag_23\n      swap1\n      tag_24\n      jump\t// in\n    tag_23:\n      mload(0x40)\n      dup1\n      swap2\n      sub\n      swap1\n      revert\n    tag_22:\n        /* \"contracts/lottery.sol\":678:682  true */\n      0x01\n        /* \"contracts/lottery.sol\":647:660  map_isPlaying */\n      0x00\n        /* \"contracts/lottery.sol\":647:675  map_isPlaying[playerAddress] */\n      dup1\n        /* \"contracts/lottery.sol\":661:674  playerAddress */\n      dup5\n        /* \"contracts/lottery.sol\":647:675  map_isPlaying[playerAddress] */\n      0xffffffffffffffffffffffffffffffffffffffff\n      and\n      0xffffffffffffffffffffffffffffffffffffffff\n      and\n      dup2\n      mstore\n      0x20\n      add\n      swap1\n      dup2\n      mstore\n      0x20\n      add\n      0x00\n      keccak256\n      0x00\n        /* \"contracts/lottery.sol\":647:682  map_isPlaying[playerAddress] = true */\n      0x0100\n      exp\n      dup2\n      sload\n      dup2\n      0xff\n      mul\n      not\n      and\n      swap1\n      dup4\n      iszero\n      iszero\n      mul\n      or\n      swap1\n      sstore\n      pop\n        /* \"contracts/lottery.sol\":333:690  {\r... */\n      pop\n        /* \"contracts/lottery.sol\":270:690  function registerAddress(address payable playerAddress) public {\r... */\n      pop\n      jump\t// out\n        /* \"contracts/lottery.sol\":216:261  mapping(address => bool) public map_isPlaying */\n    tag_18:\n      mstore(0x20, 0x00)\n      dup1\n      0x00\n      mstore\n      keccak256(0x00, 0x40)\n      0x00\n      swap2\n      pop\n      sload\n      swap1\n      0x0100\n      exp\n      swap1\n      div\n      0xff\n      and\n      dup2\n      jump\t// out\n        /* \"#utility.yul\":7:146   */\n    tag_26:\n        /* \"#utility.yul\":53:58   */\n      0x00\n        /* \"#utility.yul\":91:97   */\n      dup2\n        /* \"#utility.yul\":78:98   */\n      calldataload\n        /* \"#utility.yul\":69:98   */\n      swap1\n      pop\n        /* \"#utility.yul\":107:140   */\n      tag_28\n        /* \"#utility.yul\":134:139   */\n      dup2\n        /* \"#utility.yul\":107:140   */\n      tag_29\n      jump\t// in\n    tag_28:\n        /* \"#utility.yul\":7:146   */\n      swap3\n      swap2\n      pop\n      pop\n      jump\t// out\n        /* \"#utility.yul\":152:307   */\n    tag_30:\n        /* \"#utility.yul\":206:211   */\n      0x00\n        /* \"#utility.yul\":244:250   */\n      dup2\n        /* \"#utility.yul\":231:251   */\n      calldataload\n        /* \"#utility.yul\":222:251   */\n      swap1\n      pop\n        /* \"#utility.yul\":260:301   */\n      tag_32\n        /* \"#utility.yul\":295:300   */\n      dup2\n        /* \"#utility.yul\":260:301   */\n      tag_33\n      jump\t// in\n    tag_32:\n        /* \"#utility.yul\":152:307   */\n      swap3\n      swap2\n      pop\n      pop\n      jump\t// out\n        /* \"#utility.yul\":313:642   */\n    tag_17:\n        /* \"#utility.yul\":372:378   */\n      0x00\n        /* \"#utility.yul\":421:423   */\n      0x20\n        /* \"#utility.yul\":409:418   */\n      dup3\n        /* \"#utility.yul\":400:407   */\n      dup5\n        /* \"#utility.yul\":396:419   */\n      sub\n        /* \"#utility.yul\":392:424   */\n      slt\n        /* \"#utility.yul\":389:508   */\n      iszero\n      tag_35\n      jumpi\n        /* \"#utility.yul\":427:506   */\n      tag_36\n      tag_37\n      jump\t// in\n    tag_36:\n        /* \"#utility.yul\":389:508   */\n    tag_35:\n        /* \"#utility.yul\":547:548   */\n      0x00\n        /* \"#utility.yul\":572:625   */\n      tag_38\n        /* \"#utility.yul\":617:624   */\n      dup5\n        /* \"#utility.yul\":608:614   */\n      dup3\n        /* \"#utility.yul\":597:606   */\n      dup6\n        /* \"#utility.yul\":593:615   */\n      add\n        /* \"#utility.yul\":572:625   */\n      tag_26\n      jump\t// in\n    tag_38:\n        /* \"#utility.yul\":562:625   */\n      swap2\n      pop\n        /* \"#utility.yul\":518:635   */\n      pop\n        /* \"#utility.yul\":313:642   */\n      swap3\n      swap2\n      pop\n      pop\n      jump\t// out\n        /* \"#utility.yul\":648:993   */\n    tag_8:\n        /* \"#utility.yul\":715:721   */\n      0x00\n        /* \"#utility.yul\":764:766   */\n      0x20\n        /* \"#utility.yul\":752:761   */\n      dup3\n        /* \"#utility.yul\":743:750   */\n      dup5\n        /* \"#utility.yul\":739:762   */\n      sub\n        /* \"#utility.yul\":735:767   */\n      slt\n        /* \"#utility.yul\":732:851   */\n      iszero\n      tag_40\n      jumpi\n        /* \"#utility.yul\":770:849   */\n      tag_41\n      tag_37\n      jump\t// in\n    tag_41:\n        /* \"#utility.yul\":732:851   */\n    tag_40:\n        /* \"#utility.yul\":890:891   */\n      0x00\n        /* \"#utility.yul\":915:976   */\n      tag_42\n        /* \"#utility.yul\":968:975   */\n      dup5\n        /* \"#utility.yul\":959:965   */\n      dup3\n        /* \"#utility.yul\":948:957   */\n      dup6\n        /* \"#utility.yul\":944:966   */\n      add\n        /* \"#utility.yul\":915:976   */\n      tag_30\n      jump\t// in\n    tag_42:\n        /* \"#utility.yul\":905:976   */\n      swap2\n      pop\n        /* \"#utility.yul\":861:986   */\n      pop\n        /* \"#utility.yul\":648:993   */\n      swap3\n      swap2\n      pop\n      pop\n      jump\t// out\n        /* \"#utility.yul\":999:1108   */\n    tag_43:\n        /* \"#utility.yul\":1080:1101   */\n      tag_45\n        /* \"#utility.yul\":1095:1100   */\n      dup2\n        /* \"#utility.yul\":1080:1101   */\n      tag_46\n      jump\t// in\n    tag_45:\n        /* \"#utility.yul\":1075:1078   */\n      dup3\n        /* \"#utility.yul\":1068:1102   */\n      mstore\n        /* \"#utility.yul\":999:1108   */\n      pop\n      pop\n      jump\t// out\n        /* \"#utility.yul\":1114:1480   */\n    tag_47:\n        /* \"#utility.yul\":1256:1259   */\n      0x00\n        /* \"#utility.yul\":1277:1344   */\n      tag_49\n        /* \"#utility.yul\":1341:1343   */\n      0x2d\n        /* \"#utility.yul\":1336:1339   */\n      dup4\n        /* \"#utility.yul\":1277:1344   */\n      tag_50\n      jump\t// in\n    tag_49:\n        /* \"#utility.yul\":1270:1344   */\n      swap2\n      pop\n        /* \"#utility.yul\":1353:1446   */\n      tag_51\n        /* \"#utility.yul\":1442:1445   */\n      dup3\n        /* \"#utility.yul\":1353:1446   */\n      tag_52\n      jump\t// in\n    tag_51:\n        /* \"#utility.yul\":1471:1473   */\n      0x40\n        /* \"#utility.yul\":1466:1469   */\n      dup3\n        /* \"#utility.yul\":1462:1474   */\n      add\n        /* \"#utility.yul\":1455:1474   */\n      swap1\n      pop\n        /* \"#utility.yul\":1114:1480   */\n      swap2\n      swap1\n      pop\n      jump\t// out\n        /* \"#utility.yul\":1486:1696   */\n    tag_11:\n        /* \"#utility.yul\":1573:1577   */\n      0x00\n        /* \"#utility.yul\":1611:1613   */\n      0x20\n        /* \"#utility.yul\":1600:1609   */\n      dup3\n        /* \"#utility.yul\":1596:1614   */\n      add\n        /* \"#utility.yul\":1588:1614   */\n      swap1\n      pop\n        /* \"#utility.yul\":1624:1689   */\n      tag_54\n        /* \"#utility.yul\":1686:1687   */\n      0x00\n        /* \"#utility.yul\":1675:1684   */\n      dup4\n        /* \"#utility.yul\":1671:1688   */\n      add\n        /* \"#utility.yul\":1662:1668   */\n      dup5\n        /* \"#utility.yul\":1624:1689   */\n      tag_43\n      jump\t// in\n    tag_54:\n        /* \"#utility.yul\":1486:1696   */\n      swap3\n      swap2\n      pop\n      pop\n      jump\t// out\n        /* \"#utility.yul\":1702:2121   */\n    tag_24:\n        /* \"#utility.yul\":1868:1872   */\n      0x00\n        /* \"#utility.yul\":1906:1908   */\n      0x20\n        /* \"#utility.yul\":1895:1904   */\n      dup3\n        /* \"#utility.yul\":1891:1909   */\n      add\n        /* \"#utility.yul\":1883:1909   */\n      swap1\n      pop\n        /* \"#utility.yul\":1955:1964   */\n      dup2\n        /* \"#utility.yul\":1949:1953   */\n      dup2\n        /* \"#utility.yul\":1945:1965   */\n      sub\n        /* \"#utility.yul\":1941:1942   */\n      0x00\n        /* \"#utility.yul\":1930:1939   */\n      dup4\n        /* \"#utility.yul\":1926:1943   */\n      add\n        /* \"#utility.yul\":1919:1966   */\n      mstore\n        /* \"#utility.yul\":1983:2114   */\n      tag_56\n        /* \"#utility.yul\":2109:2113   */\n      dup2\n        /* \"#utility.yul\":1983:2114   */\n      tag_47\n      jump\t// in\n    tag_56:\n        /* \"#utility.yul\":1975:2114   */\n      swap1\n      pop\n        /* \"#utility.yul\":1702:2121   */\n      swap2\n      swap1\n      pop\n      jump\t// out\n        /* \"#utility.yul\":2208:2377   */\n    tag_50:\n        /* \"#utility.yul\":2292:2303   */\n      0x00\n        /* \"#utility.yul\":2326:2332   */\n      dup3\n        /* \"#utility.yul\":2321:2324   */\n      dup3\n        /* \"#utility.yul\":2314:2333   */\n      mstore\n        /* \"#utility.yul\":2366:2370   */\n      0x20\n        /* \"#utility.yul\":2361:2364   */\n      dup3\n        /* \"#utility.yul\":2357:2371   */\n      add\n        /* \"#utility.yul\":2342:2371   */\n      swap1\n      pop\n        /* \"#utility.yul\":2208:2377   */\n      swap3\n      swap2\n      pop\n      pop\n      jump\t// out\n        /* \"#utility.yul\":2383:2479   */\n    tag_60:\n        /* \"#utility.yul\":2420:2427   */\n      0x00\n        /* \"#utility.yul\":2449:2473   */\n      tag_62\n        /* \"#utility.yul\":2467:2472   */\n      dup3\n        /* \"#utility.yul\":2449:2473   */\n      tag_63\n      jump\t// in\n    tag_62:\n        /* \"#utility.yul\":2438:2473   */\n      swap1\n      pop\n        /* \"#utility.yul\":2383:2479   */\n      swap2\n      swap1\n      pop\n      jump\t// out\n        /* \"#utility.yul\":2485:2589   */\n    tag_64:\n        /* \"#utility.yul\":2530:2537   */\n      0x00\n        /* \"#utility.yul\":2559:2583   */\n      tag_66\n        /* \"#utility.yul\":2577:2582   */\n      dup3\n        /* \"#utility.yul\":2559:2583   */\n      tag_63\n      jump\t// in\n    tag_66:\n        /* \"#utility.yul\":2548:2583   */\n      swap1\n      pop\n        /* \"#utility.yul\":2485:2589   */\n      swap2\n      swap1\n      pop\n      jump\t// out\n        /* \"#utility.yul\":2595:2685   */\n    tag_46:\n        /* \"#utility.yul\":2629:2636   */\n      0x00\n        /* \"#utility.yul\":2672:2677   */\n      dup2\n        /* \"#utility.yul\":2665:2678   */\n      iszero\n        /* \"#utility.yul\":2658:2679   */\n      iszero\n        /* \"#utility.yul\":2647:2679   */\n      swap1\n      pop\n        /* \"#utility.yul\":2595:2685   */\n      swap2\n      swap1\n      pop\n      jump\t// out\n        /* \"#utility.yul\":2691:2817   */\n    tag_63:\n        /* \"#utility.yul\":2728:2735   */\n      0x00\n        /* \"#utility.yul\":2768:2810   */\n      0xffffffffffffffffffffffffffffffffffffffff\n        /* \"#utility.yul\":2761:2766   */\n      dup3\n        /* \"#utility.yul\":2757:2811   */\n      and\n        /* \"#utility.yul\":2746:2811   */\n      swap1\n      pop\n        /* \"#utility.yul\":2691:2817   */\n      swap2\n      swap1\n      pop\n      jump\t// out\n        /* \"#utility.yul\":2946:3063   */\n    tag_37:\n        /* \"#utility.yul\":3055:3056   */\n      0x00\n        /* \"#utility.yul\":3052:3053   */\n      dup1\n        /* \"#utility.yul\":3045:3057   */\n      revert\n        /* \"#utility.yul\":3069:3301   */\n    tag_52:\n        /* \"#utility.yul\":3209:3243   */\n      0x5468697320616464726573732068617320616c726561647920656e7465726564\n        /* \"#utility.yul\":3205:3206   */\n      0x00\n        /* \"#utility.yul\":3197:3203   */\n      dup3\n        /* \"#utility.yul\":3193:3207   */\n      add\n        /* \"#utility.yul\":3186:3244   */\n      mstore\n        /* \"#utility.yul\":3278:3293   */\n      0x20746865206c6f74746572792e00000000000000000000000000000000000000\n        /* \"#utility.yul\":3273:3275   */\n      0x20\n        /* \"#utility.yul\":3265:3271   */\n      dup3\n        /* \"#utility.yul\":3261:3276   */\n      add\n        /* \"#utility.yul\":3254:3294   */\n      mstore\n        /* \"#utility.yul\":3069:3301   */\n      pop\n      jump\t// out\n        /* \"#utility.yul\":3307:3429   */\n    tag_29:\n        /* \"#utility.yul\":3380:3404   */\n      tag_74\n        /* \"#utility.yul\":3398:3403   */\n      dup2\n        /* \"#utility.yul\":3380:3404   */\n      tag_60\n      jump\t// in\n    tag_74:\n        /* \"#utility.yul\":3373:3378   */\n      dup2\n        /* \"#utility.yul\":3370:3405   */\n      eq\n        /* \"#utility.yul\":3360:3423   */\n      tag_75\n      jumpi\n        /* \"#utility.yul\":3419:3420   */\n      0x00\n        /* \"#utility.yul\":3416:3417   */\n      dup1\n        /* \"#utility.yul\":3409:3421   */\n      revert\n        /* \"#utility.yul\":3360:3423   */\n    tag_75:\n        /* \"#utility.yul\":3307:3429   */\n      pop\n      jump\t// out\n        /* \"#utility.yul\":3435:3573   */\n    tag_33:\n        /* \"#utility.yul\":3516:3548   */\n      tag_77\n        /* \"#utility.yul\":3542:3547   */\n      dup2\n        /* \"#utility.yul\":3516:3548   */\n      tag_64\n      jump\t// in\n    tag_77:\n        /* \"#utility.yul\":3509:3514   */\n      dup2\n        /* \"#utility.yul\":3506:3549   */\n      eq\n        /* \"#utility.yul\":3496:3567   */\n      tag_78\n      jumpi\n        /* \"#utility.yul\":3563:3564   */\n      0x00\n        /* \"#utility.yul\":3560:3561   */\n      dup1\n        /* \"#utility.yul\":3553:3565   */\n      revert\n        /* \"#utility.yul\":3496:3567   */\n    tag_78:\n        /* \"#utility.yul\":3435:3573   */\n      pop\n      jump\t// out\n\n    auxdata: 0xa2646970667358221220259ed2bb57f82bb712ac0712952dba9d213986f2bf6b17f455b66c6dbe4253ed64736f6c63430008070033\n}\n",
				"bytecode": {
					"linkReferences": {},
					"object": "608060405234801561001057600080fd5b50610483806100206000396000f3fe608060405234801561001057600080fd5b50600436106100415760003560e01c8063912a90bb14610046578063a8a5400814610076578063bff82dee14610092575b600080fd5b610060600480360381019061005b91906102d0565b6100c2565b60405161006d919061032f565b60405180910390f35b610090600480360381019061008b91906102d0565b61016e565b005b6100ac60048036038101906100a791906102a3565b610259565b6040516100b9919061032f565b60405180910390f35b600060016000808473ffffffffffffffffffffffffffffffffffffffff1673ffffffffffffffffffffffffffffffffffffffff16815260200190815260200160002060006101000a81548160ff0219169083151502179055506000808373ffffffffffffffffffffffffffffffffffffffff1673ffffffffffffffffffffffffffffffffffffffff16815260200190815260200160002060009054906101000a900460ff169050919050565b60008060008373ffffffffffffffffffffffffffffffffffffffff1673ffffffffffffffffffffffffffffffffffffffff16815260200190815260200160002060009054906101000a900460ff169050806101fe576040517f08c379a00000000000000000000000000000000000000000000000000000000081526004016101f59061034a565b60405180910390fd5b60016000808473ffffffffffffffffffffffffffffffffffffffff1673ffffffffffffffffffffffffffffffffffffffff16815260200190815260200160002060006101000a81548160ff0219169083151502179055505050565b60006020528060005260406000206000915054906101000a900460ff1681565b6000813590506102888161041f565b92915050565b60008135905061029d81610436565b92915050565b6000602082840312156102b9576102b86103cb565b5b60006102c784828501610279565b91505092915050565b6000602082840312156102e6576102e56103cb565b5b60006102f48482850161028e565b91505092915050565b6103068161039f565b82525050565b6000610319602d8361036a565b9150610324826103d0565b604082019050919050565b600060208201905061034460008301846102fd565b92915050565b600060208201905081810360008301526103638161030c565b9050919050565b600082825260208201905092915050565b6000610386826103ab565b9050919050565b6000610398826103ab565b9050919050565b60008115159050919050565b600073ffffffffffffffffffffffffffffffffffffffff82169050919050565b600080fd5b7f5468697320616464726573732068617320616c726561647920656e746572656460008201527f20746865206c6f74746572792e00000000000000000000000000000000000000602082015250565b6104288161037b565b811461043357600080fd5b50565b61043f8161038d565b811461044a57600080fd5b5056fea2646970667358221220259ed2bb57f82bb712ac0712952dba9d213986f2bf6b17f455b66c6dbe4253ed64736f6c63430008070033",
					"opcodes": "PUSH1 0x80 PUSH1 0x40 MSTORE CALLVALUE DUP1 ISZERO PUSH2 0x10 JUMPI PUSH1 0x0 DUP1 REVERT JUMPDEST POP PUSH2 0x483 DUP1 PUSH2 0x20 PUSH1 0x0 CODECOPY PUSH1 0x0 RETURN INVALID PUSH1 0x80 PUSH1 0x40 MSTORE CALLVALUE DUP1 ISZERO PUSH2 0x10 JUMPI PUSH1 0x0 DUP1 REVERT JUMPDEST POP PUSH1 0x4 CALLDATASIZE LT PUSH2 0x41 JUMPI PUSH1 0x0 CALLDATALOAD PUSH1 0xE0 SHR DUP1 PUSH4 0x912A90BB EQ PUSH2 0x46 JUMPI DUP1 PUSH4 0xA8A54008 EQ PUSH2 0x76 JUMPI DUP1 PUSH4 0xBFF82DEE EQ PUSH2 0x92 JUMPI JUMPDEST PUSH1 0x0 DUP1 REVERT JUMPDEST PUSH2 0x60 PUSH1 0x4 DUP1 CALLDATASIZE SUB DUP2 ADD SWAP1 PUSH2 0x5B SWAP2 SWAP1 PUSH2 0x2D0 JUMP JUMPDEST PUSH2 0xC2 JUMP JUMPDEST PUSH1 0x40 MLOAD PUSH2 0x6D SWAP2 SWAP1 PUSH2 0x32F JUMP JUMPDEST PUSH1 0x40 MLOAD DUP1 SWAP2 SUB SWAP1 RETURN JUMPDEST PUSH2 0x90 PUSH1 0x4 DUP1 CALLDATASIZE SUB DUP2 ADD SWAP1 PUSH2 0x8B SWAP2 SWAP1 PUSH2 0x2D0 JUMP JUMPDEST PUSH2 0x16E JUMP JUMPDEST STOP JUMPDEST PUSH2 0xAC PUSH1 0x4 DUP1 CALLDATASIZE SUB DUP2 ADD SWAP1 PUSH2 0xA7 SWAP2 SWAP1 PUSH2 0x2A3 JUMP JUMPDEST PUSH2 0x259 JUMP JUMPDEST PUSH1 0x40 MLOAD PUSH2 0xB9 SWAP2 SWAP1 PUSH2 0x32F JUMP JUMPDEST PUSH1 0x40 MLOAD DUP1 SWAP2 SUB SWAP1 RETURN JUMPDEST PUSH1 0x0 PUSH1 0x1 PUSH1 0x0 DUP1 DUP5 PUSH20 0xFFFFFFFFFFFFFFFFFFFFFFFFFFFFFFFFFFFFFFFF AND PUSH20 0xFFFFFFFFFFFFFFFFFFFFFFFFFFFFFFFFFFFFFFFF AND DUP2 MSTORE PUSH1 0x20 ADD SWAP1 DUP2 MSTORE PUSH1 0x20 ADD PUSH1 0x0 KECCAK256 PUSH1 0x0 PUSH2 0x100 EXP DUP2 SLOAD DUP2 PUSH1 0xFF MUL NOT AND SWAP1 DUP4 ISZERO ISZERO MUL OR SWAP1 SSTORE POP PUSH1 0x0 DUP1 DUP4 PUSH20 0xFFFFFFFFFFFFFFFFFFFFFFFFFFFFFFFFFFFFFFFF AND PUSH20 0xFFFFFFFFFFFFFFFFFFFFFFFFFFFFFFFFFFFFFFFF AND DUP2 MSTORE PUSH1 0x20 ADD SWAP1 DUP2 MSTORE PUSH1 0x20 ADD PUSH1 0x0 KECCAK256 PUSH1 0x0 SWAP1 SLOAD SWAP1 PUSH2 0x100 EXP SWAP1 DIV PUSH1 0xFF AND SWAP1 POP SWAP2 SWAP1 POP JUMP JUMPDEST PUSH1 0x0 DUP1 PUSH1 0x0 DUP4 PUSH20 0xFFFFFFFFFFFFFFFFFFFFFFFFFFFFFFFFFFFFFFFF AND PUSH20 0xFFFFFFFFFFFFFFFFFFFFFFFFFFFFFFFFFFFFFFFF AND DUP2 MSTORE PUSH1 0x20 ADD SWAP1 DUP2 MSTORE PUSH1 0x20 ADD PUSH1 0x0 KECCAK256 PUSH1 0x0 SWAP1 SLOAD SWAP1 PUSH2 0x100 EXP SWAP1 DIV PUSH1 0xFF AND SWAP1 POP DUP1 PUSH2 0x1FE JUMPI PUSH1 0x40 MLOAD PUSH32 0x8C379A000000000000000000000000000000000000000000000000000000000 DUP2 MSTORE PUSH1 0x4 ADD PUSH2 0x1F5 SWAP1 PUSH2 0x34A JUMP JUMPDEST PUSH1 0x40 MLOAD DUP1 SWAP2 SUB SWAP1 REVERT JUMPDEST PUSH1 0x1 PUSH1 0x0 DUP1 DUP5 PUSH20 0xFFFFFFFFFFFFFFFFFFFFFFFFFFFFFFFFFFFFFFFF AND PUSH20 0xFFFFFFFFFFFFFFFFFFFFFFFFFFFFFFFFFFFFFFFF AND DUP2 MSTORE PUSH1 0x20 ADD SWAP1 DUP2 MSTORE PUSH1 0x20 ADD PUSH1 0x0 KECCAK256 PUSH1 0x0 PUSH2 0x100 EXP DUP2 SLOAD DUP2 PUSH1 0xFF MUL NOT AND SWAP1 DUP4 ISZERO ISZERO MUL OR SWAP1 SSTORE POP POP POP JUMP JUMPDEST PUSH1 0x0 PUSH1 0x20 MSTORE DUP1 PUSH1 0x0 MSTORE PUSH1 0x40 PUSH1 0x0 KECCAK256 PUSH1 0x0 SWAP2 POP SLOAD SWAP1 PUSH2 0x100 EXP SWAP1 DIV PUSH1 0xFF AND DUP2 JUMP JUMPDEST PUSH1 0x0 DUP2 CALLDATALOAD SWAP1 POP PUSH2 0x288 DUP2 PUSH2 0x41F JUMP JUMPDEST SWAP3 SWAP2 POP POP JUMP JUMPDEST PUSH1 0x0 DUP2 CALLDATALOAD SWAP1 POP PUSH2 0x29D DUP2 PUSH2 0x436 JUMP JUMPDEST SWAP3 SWAP2 POP POP JUMP JUMPDEST PUSH1 0x0 PUSH1 0x20 DUP3 DUP5 SUB SLT ISZERO PUSH2 0x2B9 JUMPI PUSH2 0x2B8 PUSH2 0x3CB JUMP JUMPDEST JUMPDEST PUSH1 0x0 PUSH2 0x2C7 DUP5 DUP3 DUP6 ADD PUSH2 0x279 JUMP JUMPDEST SWAP2 POP POP SWAP3 SWAP2 POP POP JUMP JUMPDEST PUSH1 0x0 PUSH1 0x20 DUP3 DUP5 SUB SLT ISZERO PUSH2 0x2E6 JUMPI PUSH2 0x2E5 PUSH2 0x3CB JUMP JUMPDEST JUMPDEST PUSH1 0x0 PUSH2 0x2F4 DUP5 DUP3 DUP6 ADD PUSH2 0x28E JUMP JUMPDEST SWAP2 POP POP SWAP3 SWAP2 POP POP JUMP JUMPDEST PUSH2 0x306 DUP2 PUSH2 0x39F JUMP JUMPDEST DUP3 MSTORE POP POP JUMP JUMPDEST PUSH1 0x0 PUSH2 0x319 PUSH1 0x2D DUP4 PUSH2 0x36A JUMP JUMPDEST SWAP2 POP PUSH2 0x324 DUP3 PUSH2 0x3D0 JUMP JUMPDEST PUSH1 0x40 DUP3 ADD SWAP1 POP SWAP2 SWAP1 POP JUMP JUMPDEST PUSH1 0x0 PUSH1 0x20 DUP3 ADD SWAP1 POP PUSH2 0x344 PUSH1 0x0 DUP4 ADD DUP5 PUSH2 0x2FD JUMP JUMPDEST SWAP3 SWAP2 POP POP JUMP JUMPDEST PUSH1 0x0 PUSH1 0x20 DUP3 ADD SWAP1 POP DUP2 DUP2 SUB PUSH1 0x0 DUP4 ADD MSTORE PUSH2 0x363 DUP2 PUSH2 0x30C JUMP JUMPDEST SWAP1 POP SWAP2 SWAP1 POP JUMP JUMPDEST PUSH1 0x0 DUP3 DUP3 MSTORE PUSH1 0x20 DUP3 ADD SWAP1 POP SWAP3 SWAP2 POP POP JUMP JUMPDEST PUSH1 0x0 PUSH2 0x386 DUP3 PUSH2 0x3AB JUMP JUMPDEST SWAP1 POP SWAP2 SWAP1 POP JUMP JUMPDEST PUSH1 0x0 PUSH2 0x398 DUP3 PUSH2 0x3AB JUMP JUMPDEST SWAP1 POP SWAP2 SWAP1 POP JUMP JUMPDEST PUSH1 0x0 DUP2 ISZERO ISZERO SWAP1 POP SWAP2 SWAP1 POP JUMP JUMPDEST PUSH1 0x0 PUSH20 0xFFFFFFFFFFFFFFFFFFFFFFFFFFFFFFFFFFFFFFFF DUP3 AND SWAP1 POP SWAP2 SWAP1 POP JUMP JUMPDEST PUSH1 0x0 DUP1 REVERT JUMPDEST PUSH32 0x5468697320616464726573732068617320616C726561647920656E7465726564 PUSH1 0x0 DUP3 ADD MSTORE PUSH32 0x20746865206C6F74746572792E00000000000000000000000000000000000000 PUSH1 0x20 DUP3 ADD MSTORE POP JUMP JUMPDEST PUSH2 0x428 DUP2 PUSH2 0x37B JUMP JUMPDEST DUP2 EQ PUSH2 0x433 JUMPI PUSH1 0x0 DUP1 REVERT JUMPDEST POP JUMP JUMPDEST PUSH2 0x43F DUP2 PUSH2 0x38D JUMP JUMPDEST DUP2 EQ PUSH2 0x44A JUMPI PUSH1 0x0 DUP1 REVERT JUMPDEST POP JUMP INVALID LOG2 PUSH5 0x6970667358 0x22 SLT KECCAK256 0x25 SWAP15 0xD2 0xBB JUMPI 0xF8 0x2B 0xB7 SLT 0xAC SMOD SLT SWAP6 0x2D 0xBA SWAP14 0x21 CODECOPY DUP7 CALLCODE 0xBF PUSH12 0x17F455B66C6DBE4253ED6473 PUSH16 0x6C634300080700330000000000000000 "
				},
				"gasEstimates": {
					"creation": {
						"codeDepositCost": "231000",
						"executionCost": "275",
						"totalCost": "231275"
					},
					"external": {
						"isAddressPlaying(address)": "27218",
						"map_isPlaying(address)": "2867",
						"registerAddress(address)": "27068"
					}
				},
				"methodIdentifiers": {
					"isAddressPlaying(address)": "912a90bb",
					"map_isPlaying(address)": "bff82dee",
					"registerAddress(address)": "a8a54008"
				}
			},
			"storageLayout": {
				"storage": [
					{
						"astId": 6,
						"contract": "contracts/lottery.sol:Lottery",
						"label": "map_isPlaying",
						"offset": 0,
						"slot": "0",
						"type": "t_mapping(t_address,t_bool)"
					}
				],
				"types": {
					"t_address": {
						"encoding": "inplace",
						"label": "address",
						"numberOfBytes": "20"
					},
					"t_bool": {
						"encoding": "inplace",
						"label": "bool",
						"numberOfBytes": "1"
					},
					"t_mapping(t_address,t_bool)": {
						"encoding": "mapping",
						"key": "t_address",
						"label": "mapping(address => bool)",
						"numberOfBytes": "32",
						"value": "t_bool"
					}
				}
			},
			"userdoc": {
				"kind": "user",
				"methods": {},
				"version": 1
			}
		}
	}
}