{
	"contracts/lottery.sol": {
		"Lottery": {
			"abi": [
				{
					"inputs": [],
					"name": "chooseWinner",
					"outputs": [
						{
							"internalType": "address payable",
							"name": "",
							"type": "address"
						}
					],
					"stateMutability": "view",
					"type": "function"
				},
				{
					"inputs": [
						{
							"internalType": "address payable",
							"name": "playerAddress",
							"type": "address"
						}
					],
					"name": "isAddressPlaying",
					"outputs": [
						{
							"internalType": "bool",
							"name": "",
							"type": "bool"
						}
					],
					"stateMutability": "view",
					"type": "function"
				},
				{
					"inputs": [
						{
							"internalType": "uint256",
							"name": "",
							"type": "uint256"
						}
					],
					"name": "list_playerAddress",
					"outputs": [
						{
							"internalType": "address payable",
							"name": "",
							"type": "address"
						}
					],
					"stateMutability": "view",
					"type": "function"
				},
				{
					"inputs": [
						{
							"internalType": "address",
							"name": "",
							"type": "address"
						}
					],
					"name": "map_isPlaying",
					"outputs": [
						{
							"internalType": "bool",
							"name": "",
							"type": "bool"
						}
					],
					"stateMutability": "view",
					"type": "function"
				},
				{
					"inputs": [
						{
							"internalType": "uint256",
							"name": "L",
							"type": "uint256"
						}
					],
					"name": "random",
					"outputs": [
						{
							"internalType": "uint256",
							"name": "",
							"type": "uint256"
						}
					],
					"stateMutability": "view",
					"type": "function"
				},
				{
					"inputs": [
						{
							"internalType": "address payable",
							"name": "playerAddress",
							"type": "address"
						}
					],
					"name": "registerAddress",
					"outputs": [],
					"stateMutability": "nonpayable",
					"type": "function"
				},
				{
					"inputs": [
						{
							"internalType": "address",
							"name": "account",
							"type": "address"
						}
					],
					"name": "toString",
					"outputs": [
						{
							"internalType": "string",
							"name": "",
							"type": "string"
						}
					],
					"stateMutability": "pure",
					"type": "function"
				},
				{
					"inputs": [
						{
							"internalType": "uint256",
							"name": "value",
							"type": "uint256"
						}
					],
					"name": "toString",
					"outputs": [
						{
							"internalType": "string",
							"name": "",
							"type": "string"
						}
					],
					"stateMutability": "pure",
					"type": "function"
				},
				{
					"inputs": [
						{
							"internalType": "bytes",
							"name": "data",
							"type": "bytes"
						}
					],
					"name": "toString",
					"outputs": [
						{
							"internalType": "string",
							"name": "",
							"type": "string"
						}
					],
					"stateMutability": "pure",
					"type": "function"
				},
				{
					"inputs": [
						{
							"internalType": "bytes32",
							"name": "value",
							"type": "bytes32"
						}
					],
					"name": "toString",
					"outputs": [
						{
							"internalType": "string",
							"name": "",
							"type": "string"
						}
					],
					"stateMutability": "pure",
					"type": "function"
				}
			],
			"devdoc": {
				"custom:dev-run-script": "./scripts/deploy_with_ethers.ts",
				"details": "A blockchain lottery",
				"kind": "dev",
				"methods": {},
				"title": "Lottery",
				"version": 1
			},
			"evm": {
				"assembly": "    /* \"contracts/lottery.sol\":193:2585  contract Lottery {... */\n  mstore(0x40, 0x80)\n  callvalue\n  dup1\n  iszero\n  tag_1\n  jumpi\n  0x00\n  dup1\n  revert\ntag_1:\n  pop\n  dataSize(sub_0)\n  dup1\n  dataOffset(sub_0)\n  0x00\n  codecopy\n  0x00\n  return\nstop\n\nsub_0: assembly {\n        /* \"contracts/lottery.sol\":193:2585  contract Lottery {... */\n      mstore(0x40, 0x80)\n      callvalue\n      dup1\n      iszero\n      tag_1\n      jumpi\n      0x00\n      dup1\n      revert\n    tag_1:\n      pop\n      jumpi(tag_2, lt(calldatasize, 0x04))\n      shr(0xe0, calldataload(0x00))\n      dup1\n      0xa8a54008\n      gt\n      tag_13\n      jumpi\n      dup1\n      0xa8a54008\n      eq\n      tag_8\n      jumpi\n      dup1\n      0xb11a19e8\n      eq\n      tag_9\n      jumpi\n      dup1\n      0xb863bd37\n      eq\n      tag_10\n      jumpi\n      dup1\n      0xbff82dee\n      eq\n      tag_11\n      jumpi\n      dup1\n      0xcd38aa87\n      eq\n      tag_12\n      jumpi\n      jump(tag_2)\n    tag_13:\n      dup1\n      0x27dff143\n      eq\n      tag_3\n      jumpi\n      dup1\n      0x56ca623e\n      eq\n      tag_4\n      jumpi\n      dup1\n      0x6900a3ae\n      eq\n      tag_5\n      jumpi\n      dup1\n      0x71aad10d\n      eq\n      tag_6\n      jumpi\n      dup1\n      0x912a90bb\n      eq\n      tag_7\n      jumpi\n    tag_2:\n      0x00\n      dup1\n      revert\n        /* \"contracts/lottery.sol\":269:312  address payable[] public list_playerAddress */\n    tag_3:\n      tag_14\n      0x04\n      dup1\n      calldatasize\n      sub\n      dup2\n      add\n      swap1\n      tag_15\n      swap2\n      swap1\n      tag_16\n      jump\t// in\n    tag_15:\n      tag_17\n      jump\t// in\n    tag_14:\n      mload(0x40)\n      tag_18\n      swap2\n      swap1\n      tag_19\n      jump\t// in\n    tag_18:\n      mload(0x40)\n      dup1\n      swap2\n      sub\n      swap1\n      return\n        /* \"contracts/lottery.sol\":1714:1845  function toString(address account) public pure returns(string memory) {... */\n    tag_4:\n      tag_20\n      0x04\n      dup1\n      calldatasize\n      sub\n      dup2\n      add\n      swap1\n      tag_21\n      swap2\n      swap1\n      tag_22\n      jump\t// in\n    tag_21:\n      tag_23\n      jump\t// in\n    tag_20:\n      mload(0x40)\n      tag_24\n      swap2\n      swap1\n      tag_25\n      jump\t// in\n    tag_24:\n      mload(0x40)\n      dup1\n      swap2\n      sub\n      swap1\n      return\n        /* \"contracts/lottery.sol\":1853:1980  function toString(uint256 value) public pure returns(string memory) {... */\n    tag_5:\n      tag_26\n      0x04\n      dup1\n      calldatasize\n      sub\n      dup2\n      add\n      swap1\n      tag_27\n      swap2\n      swap1\n      tag_16\n      jump\t// in\n    tag_27:\n      tag_28\n      jump\t// in\n    tag_26:\n      mload(0x40)\n      tag_29\n      swap2\n      swap1\n      tag_25\n      jump\t// in\n    tag_29:\n      mload(0x40)\n      dup1\n      swap2\n      sub\n      swap1\n      return\n        /* \"contracts/lottery.sol\":2123:2582  function toString(bytes memory data) public pure returns(string memory) {... */\n    tag_6:\n      tag_30\n      0x04\n      dup1\n      calldatasize\n      sub\n      dup2\n      add\n      swap1\n      tag_31\n      swap2\n      swap1\n      tag_32\n      jump\t// in\n    tag_31:\n      tag_33\n      jump\t// in\n    tag_30:\n      mload(0x40)\n      tag_34\n      swap2\n      swap1\n      tag_25\n      jump\t// in\n    tag_34:\n      mload(0x40)\n      dup1\n      swap2\n      sub\n      swap1\n      return\n        /* \"contracts/lottery.sol\":803:989  function isAddressPlaying(address payable playerAddress) public view returns (bool) {... */\n    tag_7:\n      tag_35\n      0x04\n      dup1\n      calldatasize\n      sub\n      dup2\n      add\n      swap1\n      tag_36\n      swap2\n      swap1\n      tag_37\n      jump\t// in\n    tag_36:\n      tag_38\n      jump\t// in\n    tag_35:\n      mload(0x40)\n      tag_39\n      swap2\n      swap1\n      tag_40\n      jump\t// in\n    tag_39:\n      mload(0x40)\n      dup1\n      swap2\n      sub\n      swap1\n      return\n        /* \"contracts/lottery.sol\":321:791  function registerAddress(address payable playerAddress) public {... */\n    tag_8:\n      tag_41\n      0x04\n      dup1\n      calldatasize\n      sub\n      dup2\n      add\n      swap1\n      tag_42\n      swap2\n      swap1\n      tag_37\n      jump\t// in\n    tag_42:\n      tag_43\n      jump\t// in\n    tag_41:\n      stop\n        /* \"contracts/lottery.sol\":1988:2115  function toString(bytes32 value) public pure returns(string memory) {... */\n    tag_9:\n      tag_44\n      0x04\n      dup1\n      calldatasize\n      sub\n      dup2\n      add\n      swap1\n      tag_45\n      swap2\n      swap1\n      tag_46\n      jump\t// in\n    tag_45:\n      tag_47\n      jump\t// in\n    tag_44:\n      mload(0x40)\n      tag_48\n      swap2\n      swap1\n      tag_25\n      jump\t// in\n    tag_48:\n      mload(0x40)\n      dup1\n      swap2\n      sub\n      swap1\n      return\n        /* \"contracts/lottery.sol\":1518:1706  function random(uint L) public view returns (uint) {... */\n    tag_10:\n      tag_49\n      0x04\n      dup1\n      calldatasize\n      sub\n      dup2\n      add\n      swap1\n      tag_50\n      swap2\n      swap1\n      tag_16\n      jump\t// in\n    tag_50:\n      tag_51\n      jump\t// in\n    tag_49:\n      mload(0x40)\n      tag_52\n      swap2\n      swap1\n      tag_53\n      jump\t// in\n    tag_52:\n      mload(0x40)\n      dup1\n      swap2\n      sub\n      swap1\n      return\n        /* \"contracts/lottery.sol\":217:262  mapping(address => bool) public map_isPlaying */\n    tag_11:\n      tag_54\n      0x04\n      dup1\n      calldatasize\n      sub\n      dup2\n      add\n      swap1\n      tag_55\n      swap2\n      swap1\n      tag_22\n      jump\t// in\n    tag_55:\n      tag_56\n      jump\t// in\n    tag_54:\n      mload(0x40)\n      tag_57\n      swap2\n      swap1\n      tag_40\n      jump\t// in\n    tag_57:\n      mload(0x40)\n      dup1\n      swap2\n      sub\n      swap1\n      return\n        /* \"contracts/lottery.sol\":997:1504  function chooseWinner() public view returns (address payable) {... */\n    tag_12:\n      tag_58\n      tag_59\n      jump\t// in\n    tag_58:\n      mload(0x40)\n      tag_60\n      swap2\n      swap1\n      tag_19\n      jump\t// in\n    tag_60:\n      mload(0x40)\n      dup1\n      swap2\n      sub\n      swap1\n      return\n        /* \"contracts/lottery.sol\":269:312  address payable[] public list_playerAddress */\n    tag_17:\n      0x01\n      dup2\n      dup2\n      sload\n      dup2\n      lt\n      tag_61\n      jumpi\n      0x00\n      dup1\n      revert\n    tag_61:\n      swap1\n      0x00\n      mstore\n      keccak256(0x00, 0x20)\n      add\n      0x00\n      swap2\n      pop\n      sload\n      swap1\n      0x0100\n      exp\n      swap1\n      div\n      0xffffffffffffffffffffffffffffffffffffffff\n      and\n      dup2\n      jump\t// out\n        /* \"contracts/lottery.sol\":1714:1845  function toString(address account) public pure returns(string memory) {... */\n    tag_23:\n        /* \"contracts/lottery.sol\":1769:1782  string memory */\n      0x60\n        /* \"contracts/lottery.sol\":1802:1837  toString(abi.encodePacked(account)) */\n      tag_64\n        /* \"contracts/lottery.sol\":1828:1835  account */\n      dup3\n        /* \"contracts/lottery.sol\":1811:1836  abi.encodePacked(account) */\n      add(0x20, mload(0x40))\n      tag_65\n      swap2\n      swap1\n      tag_66\n      jump\t// in\n    tag_65:\n      mload(0x40)\n      0x20\n      dup2\n      dup4\n      sub\n      sub\n      dup2\n      mstore\n      swap1\n      0x40\n      mstore\n        /* \"contracts/lottery.sol\":1802:1810  toString */\n      tag_33\n        /* \"contracts/lottery.sol\":1802:1837  toString(abi.encodePacked(account)) */\n      jump\t// in\n    tag_64:\n        /* \"contracts/lottery.sol\":1795:1837  return toString(abi.encodePacked(account)) */\n      swap1\n      pop\n        /* \"contracts/lottery.sol\":1714:1845  function toString(address account) public pure returns(string memory) {... */\n      swap2\n      swap1\n      pop\n      jump\t// out\n        /* \"contracts/lottery.sol\":1853:1980  function toString(uint256 value) public pure returns(string memory) {... */\n    tag_28:\n        /* \"contracts/lottery.sol\":1906:1919  string memory */\n      0x60\n        /* \"contracts/lottery.sol\":1939:1972  toString(abi.encodePacked(value)) */\n      tag_68\n        /* \"contracts/lottery.sol\":1965:1970  value */\n      dup3\n        /* \"contracts/lottery.sol\":1948:1971  abi.encodePacked(value) */\n      add(0x20, mload(0x40))\n      tag_69\n      swap2\n      swap1\n      tag_70\n      jump\t// in\n    tag_69:\n      mload(0x40)\n      0x20\n      dup2\n      dup4\n      sub\n      sub\n      dup2\n      mstore\n      swap1\n      0x40\n      mstore\n        /* \"contracts/lottery.sol\":1939:1947  toString */\n      tag_33\n        /* \"contracts/lottery.sol\":1939:1972  toString(abi.encodePacked(value)) */\n      jump\t// in\n    tag_68:\n        /* \"contracts/lottery.sol\":1932:1972  return toString(abi.encodePacked(value)) */\n      swap1\n      pop\n        /* \"contracts/lottery.sol\":1853:1980  function toString(uint256 value) public pure returns(string memory) {... */\n      swap2\n      swap1\n      pop\n      jump\t// out\n        /* \"contracts/lottery.sol\":2123:2582  function toString(bytes memory data) public pure returns(string memory) {... */\n    tag_33:\n        /* \"contracts/lottery.sol\":2180:2193  string memory */\n      0x60\n        /* \"contracts/lottery.sol\":2206:2227  bytes memory alphabet */\n      0x00\n        /* \"contracts/lottery.sol\":2206:2248  bytes memory alphabet = \"0123456789abcdef\" */\n      mload(0x40)\n      dup1\n      0x40\n      add\n      0x40\n      mstore\n      dup1\n      0x10\n      dup2\n      mstore\n      0x20\n      add\n      0x3031323334353637383961626364656600000000000000000000000000000000\n      dup2\n      mstore\n      pop\n      swap1\n      pop\n        /* \"contracts/lottery.sol\":2261:2277  bytes memory str */\n      0x00\n        /* \"contracts/lottery.sol\":2308:2309  2 */\n      0x02\n        /* \"contracts/lottery.sol\":2294:2298  data */\n      dup5\n        /* \"contracts/lottery.sol\":2294:2305  data.length */\n      mload\n        /* \"contracts/lottery.sol\":2294:2309  data.length * 2 */\n      tag_72\n      swap2\n      swap1\n      tag_73\n      jump\t// in\n    tag_72:\n        /* \"contracts/lottery.sol\":2290:2291  2 */\n      0x02\n        /* \"contracts/lottery.sol\":2290:2309  2 + data.length * 2 */\n      tag_74\n      swap2\n      swap1\n      tag_75\n      jump\t// in\n    tag_74:\n        /* \"contracts/lottery.sol\":2280:2310  new bytes(2 + data.length * 2) */\n      0xffffffffffffffff\n      dup2\n      gt\n      iszero\n      tag_76\n      jumpi\n      tag_77\n      tag_78\n      jump\t// in\n    tag_77:\n    tag_76:\n      mload(0x40)\n      swap1\n      dup1\n      dup3\n      mstore\n      dup1\n      0x1f\n      add\n      not(0x1f)\n      and\n      0x20\n      add\n      dup3\n      add\n      0x40\n      mstore\n      dup1\n      iszero\n      tag_79\n      jumpi\n      dup2\n      0x20\n      add\n      0x01\n      dup3\n      mul\n      dup1\n      calldatasize\n      dup4\n      calldatacopy\n      dup1\n      dup3\n      add\n      swap2\n      pop\n      pop\n      swap1\n      pop\n    tag_79:\n      pop\n        /* \"contracts/lottery.sol\":2261:2310  bytes memory str = new bytes(2 + data.length * 2) */\n      swap1\n      pop\n        /* \"contracts/lottery.sol\":2321:2333  str[0] = \"0\" */\n      0x3000000000000000000000000000000000000000000000000000000000000000\n        /* \"contracts/lottery.sol\":2321:2324  str */\n      dup2\n        /* \"contracts/lottery.sol\":2325:2326  0 */\n      0x00\n        /* \"contracts/lottery.sol\":2321:2327  str[0] */\n      dup2\n      mload\n      dup2\n      lt\n      tag_80\n      jumpi\n      tag_81\n      tag_82\n      jump\t// in\n    tag_81:\n    tag_80:\n      0x20\n      add\n      add\n        /* \"contracts/lottery.sol\":2321:2333  str[0] = \"0\" */\n      swap1\n      not(0xffffffffffffffffffffffffffffffffffffffffffffffffffffffffffffff)\n      and\n      swap1\n      dup2\n      0x00\n      byte\n      swap1\n      mstore8\n      pop\n        /* \"contracts/lottery.sol\":2344:2356  str[1] = \"x\" */\n      0x7800000000000000000000000000000000000000000000000000000000000000\n        /* \"contracts/lottery.sol\":2344:2347  str */\n      dup2\n        /* \"contracts/lottery.sol\":2348:2349  1 */\n      0x01\n        /* \"contracts/lottery.sol\":2344:2350  str[1] */\n      dup2\n      mload\n      dup2\n      lt\n      tag_83\n      jumpi\n      tag_84\n      tag_82\n      jump\t// in\n    tag_84:\n    tag_83:\n      0x20\n      add\n      add\n        /* \"contracts/lottery.sol\":2344:2356  str[1] = \"x\" */\n      swap1\n      not(0xffffffffffffffffffffffffffffffffffffffffffffffffffffffffffffff)\n      and\n      swap1\n      dup2\n      0x00\n      byte\n      swap1\n      mstore8\n      pop\n        /* \"contracts/lottery.sol\":2372:2378  uint i */\n      0x00\n        /* \"contracts/lottery.sol\":2367:2546  for (uint i = 0; i < data.length; i++) {... */\n    tag_85:\n        /* \"contracts/lottery.sol\":2388:2392  data */\n      dup5\n        /* \"contracts/lottery.sol\":2388:2399  data.length */\n      mload\n        /* \"contracts/lottery.sol\":2384:2385  i */\n      dup2\n        /* \"contracts/lottery.sol\":2384:2399  i < data.length */\n      lt\n        /* \"contracts/lottery.sol\":2367:2546  for (uint i = 0; i < data.length; i++) {... */\n      iszero\n      tag_86\n      jumpi\n        /* \"contracts/lottery.sol\":2434:2442  alphabet */\n      dup3\n        /* \"contracts/lottery.sol\":2465:2466  4 */\n      0x04\n        /* \"contracts/lottery.sol\":2454:2458  data */\n      dup7\n        /* \"contracts/lottery.sol\":2459:2460  i */\n      dup4\n        /* \"contracts/lottery.sol\":2454:2461  data[i] */\n      dup2\n      mload\n      dup2\n      lt\n      tag_88\n      jumpi\n      tag_89\n      tag_82\n      jump\t// in\n    tag_89:\n    tag_88:\n      0x20\n      add\n      add\n      mload\n      0xf8\n      shr\n      0xf8\n      shl\n        /* \"contracts/lottery.sol\":2454:2466  data[i] >> 4 */\n      not(0xffffffffffffffffffffffffffffffffffffffffffffffffffffffffffffff)\n      and\n      swap1\n      shr\n        /* \"contracts/lottery.sol\":2448:2467  uint8(data[i] >> 4) */\n      0xf8\n      shr\n        /* \"contracts/lottery.sol\":2443:2468  uint(uint8(data[i] >> 4)) */\n      0xff\n      and\n        /* \"contracts/lottery.sol\":2434:2469  alphabet[uint(uint8(data[i] >> 4))] */\n      dup2\n      mload\n      dup2\n      lt\n      tag_90\n      jumpi\n      tag_91\n      tag_82\n      jump\t// in\n    tag_91:\n    tag_90:\n      0x20\n      add\n      add\n      mload\n      0xf8\n      shr\n      0xf8\n      shl\n        /* \"contracts/lottery.sol\":2421:2424  str */\n      dup3\n        /* \"contracts/lottery.sol\":2429:2430  2 */\n      0x02\n        /* \"contracts/lottery.sol\":2427:2428  i */\n      dup4\n        /* \"contracts/lottery.sol\":2427:2430  i*2 */\n      tag_92\n      swap2\n      swap1\n      tag_73\n      jump\t// in\n    tag_92:\n        /* \"contracts/lottery.sol\":2425:2426  2 */\n      0x02\n        /* \"contracts/lottery.sol\":2425:2430  2+i*2 */\n      tag_93\n      swap2\n      swap1\n      tag_75\n      jump\t// in\n    tag_93:\n        /* \"contracts/lottery.sol\":2421:2431  str[2+i*2] */\n      dup2\n      mload\n      dup2\n      lt\n      tag_94\n      jumpi\n      tag_95\n      tag_82\n      jump\t// in\n    tag_95:\n    tag_94:\n      0x20\n      add\n      add\n        /* \"contracts/lottery.sol\":2421:2469  str[2+i*2] = alphabet[uint(uint8(data[i] >> 4))] */\n      swap1\n      not(0xffffffffffffffffffffffffffffffffffffffffffffffffffffffffffffff)\n      and\n      swap1\n      dup2\n      0x00\n      byte\n      swap1\n      mstore8\n      pop\n        /* \"contracts/lottery.sol\":2497:2505  alphabet */\n      dup3\n        /* \"contracts/lottery.sol\":2527:2531  0x0f */\n      0x0f\n        /* \"contracts/lottery.sol\":2517:2531  data[i] & 0x0f */\n      0xf8\n      shl\n        /* \"contracts/lottery.sol\":2517:2521  data */\n      dup7\n        /* \"contracts/lottery.sol\":2522:2523  i */\n      dup4\n        /* \"contracts/lottery.sol\":2517:2524  data[i] */\n      dup2\n      mload\n      dup2\n      lt\n      tag_96\n      jumpi\n      tag_97\n      tag_82\n      jump\t// in\n    tag_97:\n    tag_96:\n      0x20\n      add\n      add\n      mload\n      0xf8\n      shr\n      0xf8\n      shl\n        /* \"contracts/lottery.sol\":2517:2531  data[i] & 0x0f */\n      and\n        /* \"contracts/lottery.sol\":2511:2532  uint8(data[i] & 0x0f) */\n      0xf8\n      shr\n        /* \"contracts/lottery.sol\":2506:2533  uint(uint8(data[i] & 0x0f)) */\n      0xff\n      and\n        /* \"contracts/lottery.sol\":2497:2534  alphabet[uint(uint8(data[i] & 0x0f))] */\n      dup2\n      mload\n      dup2\n      lt\n      tag_98\n      jumpi\n      tag_99\n      tag_82\n      jump\t// in\n    tag_99:\n    tag_98:\n      0x20\n      add\n      add\n      mload\n      0xf8\n      shr\n      0xf8\n      shl\n        /* \"contracts/lottery.sol\":2484:2487  str */\n      dup3\n        /* \"contracts/lottery.sol\":2492:2493  2 */\n      0x02\n        /* \"contracts/lottery.sol\":2490:2491  i */\n      dup4\n        /* \"contracts/lottery.sol\":2490:2493  i*2 */\n      tag_100\n      swap2\n      swap1\n      tag_73\n      jump\t// in\n    tag_100:\n        /* \"contracts/lottery.sol\":2488:2489  3 */\n      0x03\n        /* \"contracts/lottery.sol\":2488:2493  3+i*2 */\n      tag_101\n      swap2\n      swap1\n      tag_75\n      jump\t// in\n    tag_101:\n        /* \"contracts/lottery.sol\":2484:2494  str[3+i*2] */\n      dup2\n      mload\n      dup2\n      lt\n      tag_102\n      jumpi\n      tag_103\n      tag_82\n      jump\t// in\n    tag_103:\n    tag_102:\n      0x20\n      add\n      add\n        /* \"contracts/lottery.sol\":2484:2534  str[3+i*2] = alphabet[uint(uint8(data[i] & 0x0f))] */\n      swap1\n      not(0xffffffffffffffffffffffffffffffffffffffffffffffffffffffffffffff)\n      and\n      swap1\n      dup2\n      0x00\n      byte\n      swap1\n      mstore8\n      pop\n        /* \"contracts/lottery.sol\":2401:2404  i++ */\n      dup1\n      dup1\n      tag_104\n      swap1\n      tag_105\n      jump\t// in\n    tag_104:\n      swap2\n      pop\n      pop\n        /* \"contracts/lottery.sol\":2367:2546  for (uint i = 0; i < data.length; i++) {... */\n      jump(tag_85)\n    tag_86:\n      pop\n        /* \"contracts/lottery.sol\":2570:2573  str */\n      dup1\n        /* \"contracts/lottery.sol\":2556:2574  return string(str) */\n      swap3\n      pop\n      pop\n      pop\n        /* \"contracts/lottery.sol\":2123:2582  function toString(bytes memory data) public pure returns(string memory) {... */\n      swap2\n      swap1\n      pop\n      jump\t// out\n        /* \"contracts/lottery.sol\":803:989  function isAddressPlaying(address payable playerAddress) public view returns (bool) {... */\n    tag_38:\n        /* \"contracts/lottery.sol\":881:885  bool */\n      0x00\n        /* \"contracts/lottery.sol\":953:966  map_isPlaying */\n      dup1\n        /* \"contracts/lottery.sol\":953:981  map_isPlaying[playerAddress] */\n      0x00\n        /* \"contracts/lottery.sol\":967:980  playerAddress */\n      dup4\n        /* \"contracts/lottery.sol\":953:981  map_isPlaying[playerAddress] */\n      0xffffffffffffffffffffffffffffffffffffffff\n      and\n      0xffffffffffffffffffffffffffffffffffffffff\n      and\n      dup2\n      mstore\n      0x20\n      add\n      swap1\n      dup2\n      mstore\n      0x20\n      add\n      0x00\n      keccak256\n      0x00\n      swap1\n      sload\n      swap1\n      0x0100\n      exp\n      swap1\n      div\n      0xff\n      and\n        /* \"contracts/lottery.sol\":946:981  return map_isPlaying[playerAddress] */\n      swap1\n      pop\n        /* \"contracts/lottery.sol\":803:989  function isAddressPlaying(address payable playerAddress) public view returns (bool) {... */\n      swap2\n      swap1\n      pop\n      jump\t// out\n        /* \"contracts/lottery.sol\":321:791  function registerAddress(address payable playerAddress) public {... */\n    tag_43:\n        /* \"contracts/lottery.sol\":500:514  bool isPlaying */\n      0x00\n        /* \"contracts/lottery.sol\":517:530  map_isPlaying */\n      dup1\n        /* \"contracts/lottery.sol\":517:545  map_isPlaying[playerAddress] */\n      0x00\n        /* \"contracts/lottery.sol\":531:544  playerAddress */\n      dup4\n        /* \"contracts/lottery.sol\":517:545  map_isPlaying[playerAddress] */\n      0xffffffffffffffffffffffffffffffffffffffff\n      and\n      0xffffffffffffffffffffffffffffffffffffffff\n      and\n      dup2\n      mstore\n      0x20\n      add\n      swap1\n      dup2\n      mstore\n      0x20\n      add\n      0x00\n      keccak256\n      0x00\n      swap1\n      sload\n      swap1\n      0x0100\n      exp\n      swap1\n      div\n      0xff\n      and\n        /* \"contracts/lottery.sol\":500:545  bool isPlaying = map_isPlaying[playerAddress] */\n      swap1\n      pop\n        /* \"contracts/lottery.sol\":565:574  isPlaying */\n      dup1\n        /* \"contracts/lottery.sol\":564:574  !isPlaying */\n      iszero\n        /* \"contracts/lottery.sol\":556:624  require(!isPlaying, \"This address has already entered the lottery.\") */\n      tag_108\n      jumpi\n      mload(0x40)\n      0x08c379a000000000000000000000000000000000000000000000000000000000\n      dup2\n      mstore\n      0x04\n      add\n      tag_109\n      swap1\n      tag_110\n      jump\t// in\n    tag_109:\n      mload(0x40)\n      dup1\n      swap2\n      sub\n      swap1\n      revert\n    tag_108:\n        /* \"contracts/lottery.sol\":730:734  true */\n      0x01\n        /* \"contracts/lottery.sol\":699:712  map_isPlaying */\n      0x00\n        /* \"contracts/lottery.sol\":699:727  map_isPlaying[playerAddress] */\n      dup1\n        /* \"contracts/lottery.sol\":713:726  playerAddress */\n      dup5\n        /* \"contracts/lottery.sol\":699:727  map_isPlaying[playerAddress] */\n      0xffffffffffffffffffffffffffffffffffffffff\n      and\n      0xffffffffffffffffffffffffffffffffffffffff\n      and\n      dup2\n      mstore\n      0x20\n      add\n      swap1\n      dup2\n      mstore\n      0x20\n      add\n      0x00\n      keccak256\n      0x00\n        /* \"contracts/lottery.sol\":699:734  map_isPlaying[playerAddress] = true */\n      0x0100\n      exp\n      dup2\n      sload\n      dup2\n      0xff\n      mul\n      not\n      and\n      swap1\n      dup4\n      iszero\n      iszero\n      mul\n      or\n      swap1\n      sstore\n      pop\n        /* \"contracts/lottery.sol\":745:763  list_playerAddress */\n      0x01\n        /* \"contracts/lottery.sol\":769:782  playerAddress */\n      dup3\n        /* \"contracts/lottery.sol\":745:783  list_playerAddress.push(playerAddress) */\n      swap1\n      dup1\n      0x01\n      dup2\n      sload\n      add\n      dup1\n      dup3\n      sstore\n      dup1\n      swap2\n      pop\n      pop\n      0x01\n      swap1\n      sub\n      swap1\n      0x00\n      mstore\n      keccak256(0x00, 0x20)\n      add\n      0x00\n      swap1\n      swap2\n      swap1\n      swap2\n      swap1\n      swap2\n      0x0100\n      exp\n      dup2\n      sload\n      dup2\n      0xffffffffffffffffffffffffffffffffffffffff\n      mul\n      not\n      and\n      swap1\n      dup4\n      0xffffffffffffffffffffffffffffffffffffffff\n      and\n      mul\n      or\n      swap1\n      sstore\n      pop\n        /* \"contracts/lottery.sol\":384:791  {... */\n      pop\n        /* \"contracts/lottery.sol\":321:791  function registerAddress(address payable playerAddress) public {... */\n      pop\n      jump\t// out\n        /* \"contracts/lottery.sol\":1988:2115  function toString(bytes32 value) public pure returns(string memory) {... */\n    tag_47:\n        /* \"contracts/lottery.sol\":2041:2054  string memory */\n      0x60\n        /* \"contracts/lottery.sol\":2074:2107  toString(abi.encodePacked(value)) */\n      tag_113\n        /* \"contracts/lottery.sol\":2100:2105  value */\n      dup3\n        /* \"contracts/lottery.sol\":2083:2106  abi.encodePacked(value) */\n      add(0x20, mload(0x40))\n      tag_114\n      swap2\n      swap1\n      tag_115\n      jump\t// in\n    tag_114:\n      mload(0x40)\n      0x20\n      dup2\n      dup4\n      sub\n      sub\n      dup2\n      mstore\n      swap1\n      0x40\n      mstore\n        /* \"contracts/lottery.sol\":2074:2082  toString */\n      tag_33\n        /* \"contracts/lottery.sol\":2074:2107  toString(abi.encodePacked(value)) */\n      jump\t// in\n    tag_113:\n        /* \"contracts/lottery.sol\":2067:2107  return toString(abi.encodePacked(value)) */\n      swap1\n      pop\n        /* \"contracts/lottery.sol\":1988:2115  function toString(bytes32 value) public pure returns(string memory) {... */\n      swap2\n      swap1\n      pop\n      jump\t// out\n        /* \"contracts/lottery.sol\":1518:1706  function random(uint L) public view returns (uint) {... */\n    tag_51:\n        /* \"contracts/lottery.sol\":1563:1567  uint */\n      0x00\n        /* \"contracts/lottery.sol\":1580:1595  uint randomHash */\n      dup1\n        /* \"contracts/lottery.sol\":1630:1646  block.difficulty */\n      difficulty\n        /* \"contracts/lottery.sol\":1648:1663  block.timestamp */\n      timestamp\n        /* \"contracts/lottery.sol\":1613:1664  abi.encodePacked(block.difficulty, block.timestamp) */\n      add(0x20, mload(0x40))\n      tag_117\n      swap3\n      swap2\n      swap1\n      tag_118\n      jump\t// in\n    tag_117:\n      mload(0x40)\n      0x20\n      dup2\n      dup4\n      sub\n      sub\n      dup2\n      mstore\n      swap1\n      0x40\n      mstore\n        /* \"contracts/lottery.sol\":1603:1665  keccak256(abi.encodePacked(block.difficulty, block.timestamp)) */\n      dup1\n      mload\n      swap1\n      0x20\n      add\n      keccak256\n        /* \"contracts/lottery.sol\":1598:1666  uint(keccak256(abi.encodePacked(block.difficulty, block.timestamp))) */\n      0x00\n      shr\n        /* \"contracts/lottery.sol\":1580:1666  uint randomHash = uint(keccak256(abi.encodePacked(block.difficulty, block.timestamp))) */\n      swap1\n      pop\n        /* \"contracts/lottery.sol\":1697:1698  L */\n      dup3\n        /* \"contracts/lottery.sol\":1684:1694  randomHash */\n      dup2\n        /* \"contracts/lottery.sol\":1684:1698  randomHash % L */\n      tag_119\n      swap2\n      swap1\n      tag_120\n      jump\t// in\n    tag_119:\n        /* \"contracts/lottery.sol\":1677:1698  return randomHash % L */\n      swap2\n      pop\n      pop\n        /* \"contracts/lottery.sol\":1518:1706  function random(uint L) public view returns (uint) {... */\n      swap2\n      swap1\n      pop\n      jump\t// out\n        /* \"contracts/lottery.sol\":217:262  mapping(address => bool) public map_isPlaying */\n    tag_56:\n      mstore(0x20, 0x00)\n      dup1\n      0x00\n      mstore\n      keccak256(0x00, 0x40)\n      0x00\n      swap2\n      pop\n      sload\n      swap1\n      0x0100\n      exp\n      swap1\n      div\n      0xff\n      and\n      dup2\n      jump\t// out\n        /* \"contracts/lottery.sol\":997:1504  function chooseWinner() public view returns (address payable) {... */\n    tag_59:\n        /* \"contracts/lottery.sol\":1042:1057  address payable */\n      0x00\n        /* \"contracts/lottery.sol\":1270:1285  uint numPlayers */\n      dup1\n        /* \"contracts/lottery.sol\":1288:1306  list_playerAddress */\n      0x01\n        /* \"contracts/lottery.sol\":1288:1313  list_playerAddress.length */\n      dup1\n      sload\n      swap1\n      pop\n        /* \"contracts/lottery.sol\":1270:1313  uint numPlayers = list_playerAddress.length */\n      swap1\n      pop\n        /* \"contracts/lottery.sol\":1362:1373  uint winner */\n      0x00\n        /* \"contracts/lottery.sol\":1376:1394  random(numPlayers) */\n      tag_122\n        /* \"contracts/lottery.sol\":1383:1393  numPlayers */\n      dup3\n        /* \"contracts/lottery.sol\":1376:1382  random */\n      tag_51\n        /* \"contracts/lottery.sol\":1376:1394  random(numPlayers) */\n      jump\t// in\n    tag_122:\n        /* \"contracts/lottery.sol\":1362:1394  uint winner = random(numPlayers) */\n      swap1\n      pop\n        /* \"contracts/lottery.sol\":1407:1436  address payable winnerAddress */\n      0x00\n        /* \"contracts/lottery.sol\":1439:1457  list_playerAddress */\n      0x01\n        /* \"contracts/lottery.sol\":1458:1464  winner */\n      dup3\n        /* \"contracts/lottery.sol\":1439:1465  list_playerAddress[winner] */\n      dup2\n      sload\n      dup2\n      lt\n      tag_123\n      jumpi\n      tag_124\n      tag_82\n      jump\t// in\n    tag_124:\n    tag_123:\n      swap1\n      0x00\n      mstore\n      keccak256(0x00, 0x20)\n      add\n      0x00\n      swap1\n      sload\n      swap1\n      0x0100\n      exp\n      swap1\n      div\n      0xffffffffffffffffffffffffffffffffffffffff\n      and\n        /* \"contracts/lottery.sol\":1407:1465  address payable winnerAddress = list_playerAddress[winner] */\n      swap1\n      pop\n        /* \"contracts/lottery.sol\":1483:1496  winnerAddress */\n      dup1\n        /* \"contracts/lottery.sol\":1476:1496  return winnerAddress */\n      swap4\n      pop\n      pop\n      pop\n      pop\n        /* \"contracts/lottery.sol\":997:1504  function chooseWinner() public view returns (address payable) {... */\n      swap1\n      jump\t// out\n        /* \"#utility.yul\":7:82   */\n    tag_126:\n        /* \"#utility.yul\":40:46   */\n      0x00\n        /* \"#utility.yul\":73:75   */\n      0x40\n        /* \"#utility.yul\":67:76   */\n      mload\n        /* \"#utility.yul\":57:76   */\n      swap1\n      pop\n        /* \"#utility.yul\":7:82   */\n      swap1\n      jump\t// out\n        /* \"#utility.yul\":88:205   */\n    tag_127:\n        /* \"#utility.yul\":197:198   */\n      0x00\n        /* \"#utility.yul\":194:195   */\n      dup1\n        /* \"#utility.yul\":187:199   */\n      revert\n        /* \"#utility.yul\":211:328   */\n    tag_128:\n        /* \"#utility.yul\":320:321   */\n      0x00\n        /* \"#utility.yul\":317:318   */\n      dup1\n        /* \"#utility.yul\":310:322   */\n      revert\n        /* \"#utility.yul\":334:411   */\n    tag_129:\n        /* \"#utility.yul\":371:378   */\n      0x00\n        /* \"#utility.yul\":400:405   */\n      dup2\n        /* \"#utility.yul\":389:405   */\n      swap1\n      pop\n        /* \"#utility.yul\":334:411   */\n      swap2\n      swap1\n      pop\n      jump\t// out\n        /* \"#utility.yul\":417:539   */\n    tag_130:\n        /* \"#utility.yul\":490:514   */\n      tag_177\n        /* \"#utility.yul\":508:513   */\n      dup2\n        /* \"#utility.yul\":490:514   */\n      tag_129\n      jump\t// in\n    tag_177:\n        /* \"#utility.yul\":483:488   */\n      dup2\n        /* \"#utility.yul\":480:515   */\n      eq\n        /* \"#utility.yul\":470:533   */\n      tag_178\n      jumpi\n        /* \"#utility.yul\":529:530   */\n      0x00\n        /* \"#utility.yul\":526:527   */\n      dup1\n        /* \"#utility.yul\":519:531   */\n      revert\n        /* \"#utility.yul\":470:533   */\n    tag_178:\n        /* \"#utility.yul\":417:539   */\n      pop\n      jump\t// out\n        /* \"#utility.yul\":545:684   */\n    tag_131:\n        /* \"#utility.yul\":591:596   */\n      0x00\n        /* \"#utility.yul\":629:635   */\n      dup2\n        /* \"#utility.yul\":616:636   */\n      calldataload\n        /* \"#utility.yul\":607:636   */\n      swap1\n      pop\n        /* \"#utility.yul\":645:678   */\n      tag_180\n        /* \"#utility.yul\":672:677   */\n      dup2\n        /* \"#utility.yul\":645:678   */\n      tag_130\n      jump\t// in\n    tag_180:\n        /* \"#utility.yul\":545:684   */\n      swap3\n      swap2\n      pop\n      pop\n      jump\t// out\n        /* \"#utility.yul\":690:1019   */\n    tag_16:\n        /* \"#utility.yul\":749:755   */\n      0x00\n        /* \"#utility.yul\":798:800   */\n      0x20\n        /* \"#utility.yul\":786:795   */\n      dup3\n        /* \"#utility.yul\":777:784   */\n      dup5\n        /* \"#utility.yul\":773:796   */\n      sub\n        /* \"#utility.yul\":769:801   */\n      slt\n        /* \"#utility.yul\":766:885   */\n      iszero\n      tag_182\n      jumpi\n        /* \"#utility.yul\":804:883   */\n      tag_183\n      tag_127\n      jump\t// in\n    tag_183:\n        /* \"#utility.yul\":766:885   */\n    tag_182:\n        /* \"#utility.yul\":924:925   */\n      0x00\n        /* \"#utility.yul\":949:1002   */\n      tag_184\n        /* \"#utility.yul\":994:1001   */\n      dup5\n        /* \"#utility.yul\":985:991   */\n      dup3\n        /* \"#utility.yul\":974:983   */\n      dup6\n        /* \"#utility.yul\":970:992   */\n      add\n        /* \"#utility.yul\":949:1002   */\n      tag_131\n      jump\t// in\n    tag_184:\n        /* \"#utility.yul\":939:1002   */\n      swap2\n      pop\n        /* \"#utility.yul\":895:1012   */\n      pop\n        /* \"#utility.yul\":690:1019   */\n      swap3\n      swap2\n      pop\n      pop\n      jump\t// out\n        /* \"#utility.yul\":1025:1151   */\n    tag_132:\n        /* \"#utility.yul\":1062:1069   */\n      0x00\n        /* \"#utility.yul\":1102:1144   */\n      0xffffffffffffffffffffffffffffffffffffffff\n        /* \"#utility.yul\":1095:1100   */\n      dup3\n        /* \"#utility.yul\":1091:1145   */\n      and\n        /* \"#utility.yul\":1080:1145   */\n      swap1\n      pop\n        /* \"#utility.yul\":1025:1151   */\n      swap2\n      swap1\n      pop\n      jump\t// out\n        /* \"#utility.yul\":1157:1261   */\n    tag_133:\n        /* \"#utility.yul\":1202:1209   */\n      0x00\n        /* \"#utility.yul\":1231:1255   */\n      tag_187\n        /* \"#utility.yul\":1249:1254   */\n      dup3\n        /* \"#utility.yul\":1231:1255   */\n      tag_132\n      jump\t// in\n    tag_187:\n        /* \"#utility.yul\":1220:1255   */\n      swap1\n      pop\n        /* \"#utility.yul\":1157:1261   */\n      swap2\n      swap1\n      pop\n      jump\t// out\n        /* \"#utility.yul\":1267:1409   */\n    tag_134:\n        /* \"#utility.yul\":1370:1402   */\n      tag_189\n        /* \"#utility.yul\":1396:1401   */\n      dup2\n        /* \"#utility.yul\":1370:1402   */\n      tag_133\n      jump\t// in\n    tag_189:\n        /* \"#utility.yul\":1365:1368   */\n      dup3\n        /* \"#utility.yul\":1358:1403   */\n      mstore\n        /* \"#utility.yul\":1267:1409   */\n      pop\n      pop\n      jump\t// out\n        /* \"#utility.yul\":1415:1669   */\n    tag_19:\n        /* \"#utility.yul\":1524:1528   */\n      0x00\n        /* \"#utility.yul\":1562:1564   */\n      0x20\n        /* \"#utility.yul\":1551:1560   */\n      dup3\n        /* \"#utility.yul\":1547:1565   */\n      add\n        /* \"#utility.yul\":1539:1565   */\n      swap1\n      pop\n        /* \"#utility.yul\":1575:1662   */\n      tag_191\n        /* \"#utility.yul\":1659:1660   */\n      0x00\n        /* \"#utility.yul\":1648:1657   */\n      dup4\n        /* \"#utility.yul\":1644:1661   */\n      add\n        /* \"#utility.yul\":1635:1641   */\n      dup5\n        /* \"#utility.yul\":1575:1662   */\n      tag_134\n      jump\t// in\n    tag_191:\n        /* \"#utility.yul\":1415:1669   */\n      swap3\n      swap2\n      pop\n      pop\n      jump\t// out\n        /* \"#utility.yul\":1675:1771   */\n    tag_135:\n        /* \"#utility.yul\":1712:1719   */\n      0x00\n        /* \"#utility.yul\":1741:1765   */\n      tag_193\n        /* \"#utility.yul\":1759:1764   */\n      dup3\n        /* \"#utility.yul\":1741:1765   */\n      tag_132\n      jump\t// in\n    tag_193:\n        /* \"#utility.yul\":1730:1765   */\n      swap1\n      pop\n        /* \"#utility.yul\":1675:1771   */\n      swap2\n      swap1\n      pop\n      jump\t// out\n        /* \"#utility.yul\":1777:1899   */\n    tag_136:\n        /* \"#utility.yul\":1850:1874   */\n      tag_195\n        /* \"#utility.yul\":1868:1873   */\n      dup2\n        /* \"#utility.yul\":1850:1874   */\n      tag_135\n      jump\t// in\n    tag_195:\n        /* \"#utility.yul\":1843:1848   */\n      dup2\n        /* \"#utility.yul\":1840:1875   */\n      eq\n        /* \"#utility.yul\":1830:1893   */\n      tag_196\n      jumpi\n        /* \"#utility.yul\":1889:1890   */\n      0x00\n        /* \"#utility.yul\":1886:1887   */\n      dup1\n        /* \"#utility.yul\":1879:1891   */\n      revert\n        /* \"#utility.yul\":1830:1893   */\n    tag_196:\n        /* \"#utility.yul\":1777:1899   */\n      pop\n      jump\t// out\n        /* \"#utility.yul\":1905:2044   */\n    tag_137:\n        /* \"#utility.yul\":1951:1956   */\n      0x00\n        /* \"#utility.yul\":1989:1995   */\n      dup2\n        /* \"#utility.yul\":1976:1996   */\n      calldataload\n        /* \"#utility.yul\":1967:1996   */\n      swap1\n      pop\n        /* \"#utility.yul\":2005:2038   */\n      tag_198\n        /* \"#utility.yul\":2032:2037   */\n      dup2\n        /* \"#utility.yul\":2005:2038   */\n      tag_136\n      jump\t// in\n    tag_198:\n        /* \"#utility.yul\":1905:2044   */\n      swap3\n      swap2\n      pop\n      pop\n      jump\t// out\n        /* \"#utility.yul\":2050:2379   */\n    tag_22:\n        /* \"#utility.yul\":2109:2115   */\n      0x00\n        /* \"#utility.yul\":2158:2160   */\n      0x20\n        /* \"#utility.yul\":2146:2155   */\n      dup3\n        /* \"#utility.yul\":2137:2144   */\n      dup5\n        /* \"#utility.yul\":2133:2156   */\n      sub\n        /* \"#utility.yul\":2129:2161   */\n      slt\n        /* \"#utility.yul\":2126:2245   */\n      iszero\n      tag_200\n      jumpi\n        /* \"#utility.yul\":2164:2243   */\n      tag_201\n      tag_127\n      jump\t// in\n    tag_201:\n        /* \"#utility.yul\":2126:2245   */\n    tag_200:\n        /* \"#utility.yul\":2284:2285   */\n      0x00\n        /* \"#utility.yul\":2309:2362   */\n      tag_202\n        /* \"#utility.yul\":2354:2361   */\n      dup5\n        /* \"#utility.yul\":2345:2351   */\n      dup3\n        /* \"#utility.yul\":2334:2343   */\n      dup6\n        /* \"#utility.yul\":2330:2352   */\n      add\n        /* \"#utility.yul\":2309:2362   */\n      tag_137\n      jump\t// in\n    tag_202:\n        /* \"#utility.yul\":2299:2362   */\n      swap2\n      pop\n        /* \"#utility.yul\":2255:2372   */\n      pop\n        /* \"#utility.yul\":2050:2379   */\n      swap3\n      swap2\n      pop\n      pop\n      jump\t// out\n        /* \"#utility.yul\":2385:2484   */\n    tag_138:\n        /* \"#utility.yul\":2437:2443   */\n      0x00\n        /* \"#utility.yul\":2471:2476   */\n      dup2\n        /* \"#utility.yul\":2465:2477   */\n      mload\n        /* \"#utility.yul\":2455:2477   */\n      swap1\n      pop\n        /* \"#utility.yul\":2385:2484   */\n      swap2\n      swap1\n      pop\n      jump\t// out\n        /* \"#utility.yul\":2490:2659   */\n    tag_139:\n        /* \"#utility.yul\":2574:2585   */\n      0x00\n        /* \"#utility.yul\":2608:2614   */\n      dup3\n        /* \"#utility.yul\":2603:2606   */\n      dup3\n        /* \"#utility.yul\":2596:2615   */\n      mstore\n        /* \"#utility.yul\":2648:2652   */\n      0x20\n        /* \"#utility.yul\":2643:2646   */\n      dup3\n        /* \"#utility.yul\":2639:2653   */\n      add\n        /* \"#utility.yul\":2624:2653   */\n      swap1\n      pop\n        /* \"#utility.yul\":2490:2659   */\n      swap3\n      swap2\n      pop\n      pop\n      jump\t// out\n        /* \"#utility.yul\":2665:2911   */\n    tag_140:\n        /* \"#utility.yul\":2746:2747   */\n      0x00\n        /* \"#utility.yul\":2756:2869   */\n    tag_206:\n        /* \"#utility.yul\":2770:2776   */\n      dup4\n        /* \"#utility.yul\":2767:2768   */\n      dup2\n        /* \"#utility.yul\":2764:2777   */\n      lt\n        /* \"#utility.yul\":2756:2869   */\n      iszero\n      tag_208\n      jumpi\n        /* \"#utility.yul\":2855:2856   */\n      dup1\n        /* \"#utility.yul\":2850:2853   */\n      dup3\n        /* \"#utility.yul\":2846:2857   */\n      add\n        /* \"#utility.yul\":2840:2858   */\n      mload\n        /* \"#utility.yul\":2836:2837   */\n      dup2\n        /* \"#utility.yul\":2831:2834   */\n      dup5\n        /* \"#utility.yul\":2827:2838   */\n      add\n        /* \"#utility.yul\":2820:2859   */\n      mstore\n        /* \"#utility.yul\":2792:2794   */\n      0x20\n        /* \"#utility.yul\":2789:2790   */\n      dup2\n        /* \"#utility.yul\":2785:2795   */\n      add\n        /* \"#utility.yul\":2780:2795   */\n      swap1\n      pop\n        /* \"#utility.yul\":2756:2869   */\n      jump(tag_206)\n    tag_208:\n        /* \"#utility.yul\":2903:2904   */\n      0x00\n        /* \"#utility.yul\":2894:2900   */\n      dup5\n        /* \"#utility.yul\":2889:2892   */\n      dup5\n        /* \"#utility.yul\":2885:2901   */\n      add\n        /* \"#utility.yul\":2878:2905   */\n      mstore\n        /* \"#utility.yul\":2727:2911   */\n      pop\n        /* \"#utility.yul\":2665:2911   */\n      pop\n      pop\n      pop\n      jump\t// out\n        /* \"#utility.yul\":2917:3019   */\n    tag_141:\n        /* \"#utility.yul\":2958:2964   */\n      0x00\n        /* \"#utility.yul\":3009:3011   */\n      0x1f\n        /* \"#utility.yul\":3005:3012   */\n      not\n        /* \"#utility.yul\":3000:3002   */\n      0x1f\n        /* \"#utility.yul\":2993:2998   */\n      dup4\n        /* \"#utility.yul\":2989:3003   */\n      add\n        /* \"#utility.yul\":2985:3013   */\n      and\n        /* \"#utility.yul\":2975:3013   */\n      swap1\n      pop\n        /* \"#utility.yul\":2917:3019   */\n      swap2\n      swap1\n      pop\n      jump\t// out\n        /* \"#utility.yul\":3025:3402   */\n    tag_142:\n        /* \"#utility.yul\":3113:3116   */\n      0x00\n        /* \"#utility.yul\":3141:3180   */\n      tag_211\n        /* \"#utility.yul\":3174:3179   */\n      dup3\n        /* \"#utility.yul\":3141:3180   */\n      tag_138\n      jump\t// in\n    tag_211:\n        /* \"#utility.yul\":3196:3267   */\n      tag_212\n        /* \"#utility.yul\":3260:3266   */\n      dup2\n        /* \"#utility.yul\":3255:3258   */\n      dup6\n        /* \"#utility.yul\":3196:3267   */\n      tag_139\n      jump\t// in\n    tag_212:\n        /* \"#utility.yul\":3189:3267   */\n      swap4\n      pop\n        /* \"#utility.yul\":3276:3341   */\n      tag_213\n        /* \"#utility.yul\":3334:3340   */\n      dup2\n        /* \"#utility.yul\":3329:3332   */\n      dup6\n        /* \"#utility.yul\":3322:3326   */\n      0x20\n        /* \"#utility.yul\":3315:3320   */\n      dup7\n        /* \"#utility.yul\":3311:3327   */\n      add\n        /* \"#utility.yul\":3276:3341   */\n      tag_140\n      jump\t// in\n    tag_213:\n        /* \"#utility.yul\":3366:3395   */\n      tag_214\n        /* \"#utility.yul\":3388:3394   */\n      dup2\n        /* \"#utility.yul\":3366:3395   */\n      tag_141\n      jump\t// in\n    tag_214:\n        /* \"#utility.yul\":3361:3364   */\n      dup5\n        /* \"#utility.yul\":3357:3396   */\n      add\n        /* \"#utility.yul\":3350:3396   */\n      swap2\n      pop\n        /* \"#utility.yul\":3117:3402   */\n      pop\n        /* \"#utility.yul\":3025:3402   */\n      swap3\n      swap2\n      pop\n      pop\n      jump\t// out\n        /* \"#utility.yul\":3408:3721   */\n    tag_25:\n        /* \"#utility.yul\":3521:3525   */\n      0x00\n        /* \"#utility.yul\":3559:3561   */\n      0x20\n        /* \"#utility.yul\":3548:3557   */\n      dup3\n        /* \"#utility.yul\":3544:3562   */\n      add\n        /* \"#utility.yul\":3536:3562   */\n      swap1\n      pop\n        /* \"#utility.yul\":3608:3617   */\n      dup2\n        /* \"#utility.yul\":3602:3606   */\n      dup2\n        /* \"#utility.yul\":3598:3618   */\n      sub\n        /* \"#utility.yul\":3594:3595   */\n      0x00\n        /* \"#utility.yul\":3583:3592   */\n      dup4\n        /* \"#utility.yul\":3579:3596   */\n      add\n        /* \"#utility.yul\":3572:3619   */\n      mstore\n        /* \"#utility.yul\":3636:3714   */\n      tag_216\n        /* \"#utility.yul\":3709:3713   */\n      dup2\n        /* \"#utility.yul\":3700:3706   */\n      dup5\n        /* \"#utility.yul\":3636:3714   */\n      tag_142\n      jump\t// in\n    tag_216:\n        /* \"#utility.yul\":3628:3714   */\n      swap1\n      pop\n        /* \"#utility.yul\":3408:3721   */\n      swap3\n      swap2\n      pop\n      pop\n      jump\t// out\n        /* \"#utility.yul\":3727:3844   */\n    tag_143:\n        /* \"#utility.yul\":3836:3837   */\n      0x00\n        /* \"#utility.yul\":3833:3834   */\n      dup1\n        /* \"#utility.yul\":3826:3838   */\n      revert\n        /* \"#utility.yul\":3850:3967   */\n    tag_144:\n        /* \"#utility.yul\":3959:3960   */\n      0x00\n        /* \"#utility.yul\":3956:3957   */\n      dup1\n        /* \"#utility.yul\":3949:3961   */\n      revert\n        /* \"#utility.yul\":3973:4153   */\n    tag_78:\n        /* \"#utility.yul\":4021:4098   */\n      0x4e487b7100000000000000000000000000000000000000000000000000000000\n        /* \"#utility.yul\":4018:4019   */\n      0x00\n        /* \"#utility.yul\":4011:4099   */\n      mstore\n        /* \"#utility.yul\":4118:4122   */\n      0x41\n        /* \"#utility.yul\":4115:4116   */\n      0x04\n        /* \"#utility.yul\":4108:4123   */\n      mstore\n        /* \"#utility.yul\":4142:4146   */\n      0x24\n        /* \"#utility.yul\":4139:4140   */\n      0x00\n        /* \"#utility.yul\":4132:4147   */\n      revert\n        /* \"#utility.yul\":4159:4440   */\n    tag_145:\n        /* \"#utility.yul\":4242:4269   */\n      tag_221\n        /* \"#utility.yul\":4264:4268   */\n      dup3\n        /* \"#utility.yul\":4242:4269   */\n      tag_141\n      jump\t// in\n    tag_221:\n        /* \"#utility.yul\":4234:4240   */\n      dup2\n        /* \"#utility.yul\":4230:4270   */\n      add\n        /* \"#utility.yul\":4372:4378   */\n      dup2\n        /* \"#utility.yul\":4360:4370   */\n      dup2\n        /* \"#utility.yul\":4357:4379   */\n      lt\n        /* \"#utility.yul\":4336:4354   */\n      0xffffffffffffffff\n        /* \"#utility.yul\":4324:4334   */\n      dup3\n        /* \"#utility.yul\":4321:4355   */\n      gt\n        /* \"#utility.yul\":4318:4380   */\n      or\n        /* \"#utility.yul\":4315:4403   */\n      iszero\n      tag_222\n      jumpi\n        /* \"#utility.yul\":4383:4401   */\n      tag_223\n      tag_78\n      jump\t// in\n    tag_223:\n        /* \"#utility.yul\":4315:4403   */\n    tag_222:\n        /* \"#utility.yul\":4423:4433   */\n      dup1\n        /* \"#utility.yul\":4419:4421   */\n      0x40\n        /* \"#utility.yul\":4412:4434   */\n      mstore\n        /* \"#utility.yul\":4202:4440   */\n      pop\n        /* \"#utility.yul\":4159:4440   */\n      pop\n      pop\n      jump\t// out\n        /* \"#utility.yul\":4446:4575   */\n    tag_146:\n        /* \"#utility.yul\":4480:4486   */\n      0x00\n        /* \"#utility.yul\":4507:4527   */\n      tag_225\n      tag_126\n      jump\t// in\n    tag_225:\n        /* \"#utility.yul\":4497:4527   */\n      swap1\n      pop\n        /* \"#utility.yul\":4536:4569   */\n      tag_226\n        /* \"#utility.yul\":4564:4568   */\n      dup3\n        /* \"#utility.yul\":4556:4562   */\n      dup3\n        /* \"#utility.yul\":4536:4569   */\n      tag_145\n      jump\t// in\n    tag_226:\n        /* \"#utility.yul\":4446:4575   */\n      swap2\n      swap1\n      pop\n      jump\t// out\n        /* \"#utility.yul\":4581:4888   */\n    tag_147:\n        /* \"#utility.yul\":4642:4646   */\n      0x00\n        /* \"#utility.yul\":4732:4750   */\n      0xffffffffffffffff\n        /* \"#utility.yul\":4724:4730   */\n      dup3\n        /* \"#utility.yul\":4721:4751   */\n      gt\n        /* \"#utility.yul\":4718:4774   */\n      iszero\n      tag_228\n      jumpi\n        /* \"#utility.yul\":4754:4772   */\n      tag_229\n      tag_78\n      jump\t// in\n    tag_229:\n        /* \"#utility.yul\":4718:4774   */\n    tag_228:\n        /* \"#utility.yul\":4792:4821   */\n      tag_230\n        /* \"#utility.yul\":4814:4820   */\n      dup3\n        /* \"#utility.yul\":4792:4821   */\n      tag_141\n      jump\t// in\n    tag_230:\n        /* \"#utility.yul\":4784:4821   */\n      swap1\n      pop\n        /* \"#utility.yul\":4876:4880   */\n      0x20\n        /* \"#utility.yul\":4870:4874   */\n      dup2\n        /* \"#utility.yul\":4866:4881   */\n      add\n        /* \"#utility.yul\":4858:4881   */\n      swap1\n      pop\n        /* \"#utility.yul\":4581:4888   */\n      swap2\n      swap1\n      pop\n      jump\t// out\n        /* \"#utility.yul\":4894:5040   */\n    tag_148:\n        /* \"#utility.yul\":4991:4997   */\n      dup3\n        /* \"#utility.yul\":4986:4989   */\n      dup2\n        /* \"#utility.yul\":4981:4984   */\n      dup4\n        /* \"#utility.yul\":4968:4998   */\n      calldatacopy\n        /* \"#utility.yul\":5032:5033   */\n      0x00\n        /* \"#utility.yul\":5023:5029   */\n      dup4\n        /* \"#utility.yul\":5018:5021   */\n      dup4\n        /* \"#utility.yul\":5014:5030   */\n      add\n        /* \"#utility.yul\":5007:5034   */\n      mstore\n        /* \"#utility.yul\":4894:5040   */\n      pop\n      pop\n      pop\n      jump\t// out\n        /* \"#utility.yul\":5046:5469   */\n    tag_149:\n        /* \"#utility.yul\":5123:5128   */\n      0x00\n        /* \"#utility.yul\":5148:5213   */\n      tag_233\n        /* \"#utility.yul\":5164:5212   */\n      tag_234\n        /* \"#utility.yul\":5205:5211   */\n      dup5\n        /* \"#utility.yul\":5164:5212   */\n      tag_147\n      jump\t// in\n    tag_234:\n        /* \"#utility.yul\":5148:5213   */\n      tag_146\n      jump\t// in\n    tag_233:\n        /* \"#utility.yul\":5139:5213   */\n      swap1\n      pop\n        /* \"#utility.yul\":5236:5242   */\n      dup3\n        /* \"#utility.yul\":5229:5234   */\n      dup2\n        /* \"#utility.yul\":5222:5243   */\n      mstore\n        /* \"#utility.yul\":5274:5278   */\n      0x20\n        /* \"#utility.yul\":5267:5272   */\n      dup2\n        /* \"#utility.yul\":5263:5279   */\n      add\n        /* \"#utility.yul\":5312:5315   */\n      dup5\n        /* \"#utility.yul\":5303:5309   */\n      dup5\n        /* \"#utility.yul\":5298:5301   */\n      dup5\n        /* \"#utility.yul\":5294:5310   */\n      add\n        /* \"#utility.yul\":5291:5316   */\n      gt\n        /* \"#utility.yul\":5288:5400   */\n      iszero\n      tag_235\n      jumpi\n        /* \"#utility.yul\":5319:5398   */\n      tag_236\n      tag_144\n      jump\t// in\n    tag_236:\n        /* \"#utility.yul\":5288:5400   */\n    tag_235:\n        /* \"#utility.yul\":5409:5463   */\n      tag_237\n        /* \"#utility.yul\":5456:5462   */\n      dup5\n        /* \"#utility.yul\":5451:5454   */\n      dup3\n        /* \"#utility.yul\":5446:5449   */\n      dup6\n        /* \"#utility.yul\":5409:5463   */\n      tag_148\n      jump\t// in\n    tag_237:\n        /* \"#utility.yul\":5129:5469   */\n      pop\n        /* \"#utility.yul\":5046:5469   */\n      swap4\n      swap3\n      pop\n      pop\n      pop\n      jump\t// out\n        /* \"#utility.yul\":5488:5826   */\n    tag_150:\n        /* \"#utility.yul\":5543:5548   */\n      0x00\n        /* \"#utility.yul\":5592:5595   */\n      dup3\n        /* \"#utility.yul\":5585:5589   */\n      0x1f\n        /* \"#utility.yul\":5577:5583   */\n      dup4\n        /* \"#utility.yul\":5573:5590   */\n      add\n        /* \"#utility.yul\":5569:5596   */\n      slt\n        /* \"#utility.yul\":5559:5681   */\n      tag_239\n      jumpi\n        /* \"#utility.yul\":5600:5679   */\n      tag_240\n      tag_143\n      jump\t// in\n    tag_240:\n        /* \"#utility.yul\":5559:5681   */\n    tag_239:\n        /* \"#utility.yul\":5717:5723   */\n      dup2\n        /* \"#utility.yul\":5704:5724   */\n      calldataload\n        /* \"#utility.yul\":5742:5820   */\n      tag_241\n        /* \"#utility.yul\":5816:5819   */\n      dup5\n        /* \"#utility.yul\":5808:5814   */\n      dup3\n        /* \"#utility.yul\":5801:5805   */\n      0x20\n        /* \"#utility.yul\":5793:5799   */\n      dup7\n        /* \"#utility.yul\":5789:5806   */\n      add\n        /* \"#utility.yul\":5742:5820   */\n      tag_149\n      jump\t// in\n    tag_241:\n        /* \"#utility.yul\":5733:5820   */\n      swap2\n      pop\n        /* \"#utility.yul\":5549:5826   */\n      pop\n        /* \"#utility.yul\":5488:5826   */\n      swap3\n      swap2\n      pop\n      pop\n      jump\t// out\n        /* \"#utility.yul\":5832:6339   */\n    tag_32:\n        /* \"#utility.yul\":5900:5906   */\n      0x00\n        /* \"#utility.yul\":5949:5951   */\n      0x20\n        /* \"#utility.yul\":5937:5946   */\n      dup3\n        /* \"#utility.yul\":5928:5935   */\n      dup5\n        /* \"#utility.yul\":5924:5947   */\n      sub\n        /* \"#utility.yul\":5920:5952   */\n      slt\n        /* \"#utility.yul\":5917:6036   */\n      iszero\n      tag_243\n      jumpi\n        /* \"#utility.yul\":5955:6034   */\n      tag_244\n      tag_127\n      jump\t// in\n    tag_244:\n        /* \"#utility.yul\":5917:6036   */\n    tag_243:\n        /* \"#utility.yul\":6103:6104   */\n      0x00\n        /* \"#utility.yul\":6092:6101   */\n      dup3\n        /* \"#utility.yul\":6088:6105   */\n      add\n        /* \"#utility.yul\":6075:6106   */\n      calldataload\n        /* \"#utility.yul\":6133:6151   */\n      0xffffffffffffffff\n        /* \"#utility.yul\":6125:6131   */\n      dup2\n        /* \"#utility.yul\":6122:6152   */\n      gt\n        /* \"#utility.yul\":6119:6236   */\n      iszero\n      tag_245\n      jumpi\n        /* \"#utility.yul\":6155:6234   */\n      tag_246\n      tag_128\n      jump\t// in\n    tag_246:\n        /* \"#utility.yul\":6119:6236   */\n    tag_245:\n        /* \"#utility.yul\":6260:6322   */\n      tag_247\n        /* \"#utility.yul\":6314:6321   */\n      dup5\n        /* \"#utility.yul\":6305:6311   */\n      dup3\n        /* \"#utility.yul\":6294:6303   */\n      dup6\n        /* \"#utility.yul\":6290:6312   */\n      add\n        /* \"#utility.yul\":6260:6322   */\n      tag_150\n      jump\t// in\n    tag_247:\n        /* \"#utility.yul\":6250:6322   */\n      swap2\n      pop\n        /* \"#utility.yul\":6046:6332   */\n      pop\n        /* \"#utility.yul\":5832:6339   */\n      swap3\n      swap2\n      pop\n      pop\n      jump\t// out\n        /* \"#utility.yul\":6345:6483   */\n    tag_151:\n        /* \"#utility.yul\":6426:6458   */\n      tag_249\n        /* \"#utility.yul\":6452:6457   */\n      dup2\n        /* \"#utility.yul\":6426:6458   */\n      tag_133\n      jump\t// in\n    tag_249:\n        /* \"#utility.yul\":6419:6424   */\n      dup2\n        /* \"#utility.yul\":6416:6459   */\n      eq\n        /* \"#utility.yul\":6406:6477   */\n      tag_250\n      jumpi\n        /* \"#utility.yul\":6473:6474   */\n      0x00\n        /* \"#utility.yul\":6470:6471   */\n      dup1\n        /* \"#utility.yul\":6463:6475   */\n      revert\n        /* \"#utility.yul\":6406:6477   */\n    tag_250:\n        /* \"#utility.yul\":6345:6483   */\n      pop\n      jump\t// out\n        /* \"#utility.yul\":6489:6644   */\n    tag_152:\n        /* \"#utility.yul\":6543:6548   */\n      0x00\n        /* \"#utility.yul\":6581:6587   */\n      dup2\n        /* \"#utility.yul\":6568:6588   */\n      calldataload\n        /* \"#utility.yul\":6559:6588   */\n      swap1\n      pop\n        /* \"#utility.yul\":6597:6638   */\n      tag_252\n        /* \"#utility.yul\":6632:6637   */\n      dup2\n        /* \"#utility.yul\":6597:6638   */\n      tag_151\n      jump\t// in\n    tag_252:\n        /* \"#utility.yul\":6489:6644   */\n      swap3\n      swap2\n      pop\n      pop\n      jump\t// out\n        /* \"#utility.yul\":6650:6995   */\n    tag_37:\n        /* \"#utility.yul\":6717:6723   */\n      0x00\n        /* \"#utility.yul\":6766:6768   */\n      0x20\n        /* \"#utility.yul\":6754:6763   */\n      dup3\n        /* \"#utility.yul\":6745:6752   */\n      dup5\n        /* \"#utility.yul\":6741:6764   */\n      sub\n        /* \"#utility.yul\":6737:6769   */\n      slt\n        /* \"#utility.yul\":6734:6853   */\n      iszero\n      tag_254\n      jumpi\n        /* \"#utility.yul\":6772:6851   */\n      tag_255\n      tag_127\n      jump\t// in\n    tag_255:\n        /* \"#utility.yul\":6734:6853   */\n    tag_254:\n        /* \"#utility.yul\":6892:6893   */\n      0x00\n        /* \"#utility.yul\":6917:6978   */\n      tag_256\n        /* \"#utility.yul\":6970:6977   */\n      dup5\n        /* \"#utility.yul\":6961:6967   */\n      dup3\n        /* \"#utility.yul\":6950:6959   */\n      dup6\n        /* \"#utility.yul\":6946:6968   */\n      add\n        /* \"#utility.yul\":6917:6978   */\n      tag_152\n      jump\t// in\n    tag_256:\n        /* \"#utility.yul\":6907:6978   */\n      swap2\n      pop\n        /* \"#utility.yul\":6863:6988   */\n      pop\n        /* \"#utility.yul\":6650:6995   */\n      swap3\n      swap2\n      pop\n      pop\n      jump\t// out\n        /* \"#utility.yul\":7001:7091   */\n    tag_153:\n        /* \"#utility.yul\":7035:7042   */\n      0x00\n        /* \"#utility.yul\":7078:7083   */\n      dup2\n        /* \"#utility.yul\":7071:7084   */\n      iszero\n        /* \"#utility.yul\":7064:7085   */\n      iszero\n        /* \"#utility.yul\":7053:7085   */\n      swap1\n      pop\n        /* \"#utility.yul\":7001:7091   */\n      swap2\n      swap1\n      pop\n      jump\t// out\n        /* \"#utility.yul\":7097:7206   */\n    tag_154:\n        /* \"#utility.yul\":7178:7199   */\n      tag_259\n        /* \"#utility.yul\":7193:7198   */\n      dup2\n        /* \"#utility.yul\":7178:7199   */\n      tag_153\n      jump\t// in\n    tag_259:\n        /* \"#utility.yul\":7173:7176   */\n      dup3\n        /* \"#utility.yul\":7166:7200   */\n      mstore\n        /* \"#utility.yul\":7097:7206   */\n      pop\n      pop\n      jump\t// out\n        /* \"#utility.yul\":7212:7422   */\n    tag_40:\n        /* \"#utility.yul\":7299:7303   */\n      0x00\n        /* \"#utility.yul\":7337:7339   */\n      0x20\n        /* \"#utility.yul\":7326:7335   */\n      dup3\n        /* \"#utility.yul\":7322:7340   */\n      add\n        /* \"#utility.yul\":7314:7340   */\n      swap1\n      pop\n        /* \"#utility.yul\":7350:7415   */\n      tag_261\n        /* \"#utility.yul\":7412:7413   */\n      0x00\n        /* \"#utility.yul\":7401:7410   */\n      dup4\n        /* \"#utility.yul\":7397:7414   */\n      add\n        /* \"#utility.yul\":7388:7394   */\n      dup5\n        /* \"#utility.yul\":7350:7415   */\n      tag_154\n      jump\t// in\n    tag_261:\n        /* \"#utility.yul\":7212:7422   */\n      swap3\n      swap2\n      pop\n      pop\n      jump\t// out\n        /* \"#utility.yul\":7428:7505   */\n    tag_155:\n        /* \"#utility.yul\":7465:7472   */\n      0x00\n        /* \"#utility.yul\":7494:7499   */\n      dup2\n        /* \"#utility.yul\":7483:7499   */\n      swap1\n      pop\n        /* \"#utility.yul\":7428:7505   */\n      swap2\n      swap1\n      pop\n      jump\t// out\n        /* \"#utility.yul\":7511:7633   */\n    tag_156:\n        /* \"#utility.yul\":7584:7608   */\n      tag_264\n        /* \"#utility.yul\":7602:7607   */\n      dup2\n        /* \"#utility.yul\":7584:7608   */\n      tag_155\n      jump\t// in\n    tag_264:\n        /* \"#utility.yul\":7577:7582   */\n      dup2\n        /* \"#utility.yul\":7574:7609   */\n      eq\n        /* \"#utility.yul\":7564:7627   */\n      tag_265\n      jumpi\n        /* \"#utility.yul\":7623:7624   */\n      0x00\n        /* \"#utility.yul\":7620:7621   */\n      dup1\n        /* \"#utility.yul\":7613:7625   */\n      revert\n        /* \"#utility.yul\":7564:7627   */\n    tag_265:\n        /* \"#utility.yul\":7511:7633   */\n      pop\n      jump\t// out\n        /* \"#utility.yul\":7639:7778   */\n    tag_157:\n        /* \"#utility.yul\":7685:7690   */\n      0x00\n        /* \"#utility.yul\":7723:7729   */\n      dup2\n        /* \"#utility.yul\":7710:7730   */\n      calldataload\n        /* \"#utility.yul\":7701:7730   */\n      swap1\n      pop\n        /* \"#utility.yul\":7739:7772   */\n      tag_267\n        /* \"#utility.yul\":7766:7771   */\n      dup2\n        /* \"#utility.yul\":7739:7772   */\n      tag_156\n      jump\t// in\n    tag_267:\n        /* \"#utility.yul\":7639:7778   */\n      swap3\n      swap2\n      pop\n      pop\n      jump\t// out\n        /* \"#utility.yul\":7784:8113   */\n    tag_46:\n        /* \"#utility.yul\":7843:7849   */\n      0x00\n        /* \"#utility.yul\":7892:7894   */\n      0x20\n        /* \"#utility.yul\":7880:7889   */\n      dup3\n        /* \"#utility.yul\":7871:7878   */\n      dup5\n        /* \"#utility.yul\":7867:7890   */\n      sub\n        /* \"#utility.yul\":7863:7895   */\n      slt\n        /* \"#utility.yul\":7860:7979   */\n      iszero\n      tag_269\n      jumpi\n        /* \"#utility.yul\":7898:7977   */\n      tag_270\n      tag_127\n      jump\t// in\n    tag_270:\n        /* \"#utility.yul\":7860:7979   */\n    tag_269:\n        /* \"#utility.yul\":8018:8019   */\n      0x00\n        /* \"#utility.yul\":8043:8096   */\n      tag_271\n        /* \"#utility.yul\":8088:8095   */\n      dup5\n        /* \"#utility.yul\":8079:8085   */\n      dup3\n        /* \"#utility.yul\":8068:8077   */\n      dup6\n        /* \"#utility.yul\":8064:8086   */\n      add\n        /* \"#utility.yul\":8043:8096   */\n      tag_157\n      jump\t// in\n    tag_271:\n        /* \"#utility.yul\":8033:8096   */\n      swap2\n      pop\n        /* \"#utility.yul\":7989:8106   */\n      pop\n        /* \"#utility.yul\":7784:8113   */\n      swap3\n      swap2\n      pop\n      pop\n      jump\t// out\n        /* \"#utility.yul\":8119:8237   */\n    tag_158:\n        /* \"#utility.yul\":8206:8230   */\n      tag_273\n        /* \"#utility.yul\":8224:8229   */\n      dup2\n        /* \"#utility.yul\":8206:8230   */\n      tag_129\n      jump\t// in\n    tag_273:\n        /* \"#utility.yul\":8201:8204   */\n      dup3\n        /* \"#utility.yul\":8194:8231   */\n      mstore\n        /* \"#utility.yul\":8119:8237   */\n      pop\n      pop\n      jump\t// out\n        /* \"#utility.yul\":8243:8465   */\n    tag_53:\n        /* \"#utility.yul\":8336:8340   */\n      0x00\n        /* \"#utility.yul\":8374:8376   */\n      0x20\n        /* \"#utility.yul\":8363:8372   */\n      dup3\n        /* \"#utility.yul\":8359:8377   */\n      add\n        /* \"#utility.yul\":8351:8377   */\n      swap1\n      pop\n        /* \"#utility.yul\":8387:8458   */\n      tag_275\n        /* \"#utility.yul\":8455:8456   */\n      0x00\n        /* \"#utility.yul\":8444:8453   */\n      dup4\n        /* \"#utility.yul\":8440:8457   */\n      add\n        /* \"#utility.yul\":8431:8437   */\n      dup5\n        /* \"#utility.yul\":8387:8458   */\n      tag_158\n      jump\t// in\n    tag_275:\n        /* \"#utility.yul\":8243:8465   */\n      swap3\n      swap2\n      pop\n      pop\n      jump\t// out\n        /* \"#utility.yul\":8471:8565   */\n    tag_159:\n        /* \"#utility.yul\":8504:8512   */\n      0x00\n        /* \"#utility.yul\":8552:8557   */\n      dup2\n        /* \"#utility.yul\":8548:8550   */\n      0x60\n        /* \"#utility.yul\":8544:8558   */\n      shl\n        /* \"#utility.yul\":8523:8558   */\n      swap1\n      pop\n        /* \"#utility.yul\":8471:8565   */\n      swap2\n      swap1\n      pop\n      jump\t// out\n        /* \"#utility.yul\":8571:8665   */\n    tag_160:\n        /* \"#utility.yul\":8610:8617   */\n      0x00\n        /* \"#utility.yul\":8639:8659   */\n      tag_278\n        /* \"#utility.yul\":8653:8658   */\n      dup3\n        /* \"#utility.yul\":8639:8659   */\n      tag_159\n      jump\t// in\n    tag_278:\n        /* \"#utility.yul\":8628:8659   */\n      swap1\n      pop\n        /* \"#utility.yul\":8571:8665   */\n      swap2\n      swap1\n      pop\n      jump\t// out\n        /* \"#utility.yul\":8671:8771   */\n    tag_161:\n        /* \"#utility.yul\":8710:8717   */\n      0x00\n        /* \"#utility.yul\":8739:8765   */\n      tag_280\n        /* \"#utility.yul\":8759:8764   */\n      dup3\n        /* \"#utility.yul\":8739:8765   */\n      tag_160\n      jump\t// in\n    tag_280:\n        /* \"#utility.yul\":8728:8765   */\n      swap1\n      pop\n        /* \"#utility.yul\":8671:8771   */\n      swap2\n      swap1\n      pop\n      jump\t// out\n        /* \"#utility.yul\":8777:8934   */\n    tag_162:\n        /* \"#utility.yul\":8882:8927   */\n      tag_282\n        /* \"#utility.yul\":8902:8926   */\n      tag_283\n        /* \"#utility.yul\":8920:8925   */\n      dup3\n        /* \"#utility.yul\":8902:8926   */\n      tag_135\n      jump\t// in\n    tag_283:\n        /* \"#utility.yul\":8882:8927   */\n      tag_161\n      jump\t// in\n    tag_282:\n        /* \"#utility.yul\":8877:8880   */\n      dup3\n        /* \"#utility.yul\":8870:8928   */\n      mstore\n        /* \"#utility.yul\":8777:8934   */\n      pop\n      pop\n      jump\t// out\n        /* \"#utility.yul\":8940:9196   */\n    tag_66:\n        /* \"#utility.yul\":9052:9055   */\n      0x00\n        /* \"#utility.yul\":9067:9142   */\n      tag_285\n        /* \"#utility.yul\":9138:9141   */\n      dup3\n        /* \"#utility.yul\":9129:9135   */\n      dup5\n        /* \"#utility.yul\":9067:9142   */\n      tag_162\n      jump\t// in\n    tag_285:\n        /* \"#utility.yul\":9167:9169   */\n      0x14\n        /* \"#utility.yul\":9162:9165   */\n      dup3\n        /* \"#utility.yul\":9158:9170   */\n      add\n        /* \"#utility.yul\":9151:9170   */\n      swap2\n      pop\n        /* \"#utility.yul\":9187:9190   */\n      dup2\n        /* \"#utility.yul\":9180:9190   */\n      swap1\n      pop\n        /* \"#utility.yul\":8940:9196   */\n      swap3\n      swap2\n      pop\n      pop\n      jump\t// out\n        /* \"#utility.yul\":9202:9281   */\n    tag_163:\n        /* \"#utility.yul\":9241:9248   */\n      0x00\n        /* \"#utility.yul\":9270:9275   */\n      dup2\n        /* \"#utility.yul\":9259:9275   */\n      swap1\n      pop\n        /* \"#utility.yul\":9202:9281   */\n      swap2\n      swap1\n      pop\n      jump\t// out\n        /* \"#utility.yul\":9287:9444   */\n    tag_164:\n        /* \"#utility.yul\":9392:9437   */\n      tag_288\n        /* \"#utility.yul\":9412:9436   */\n      tag_289\n        /* \"#utility.yul\":9430:9435   */\n      dup3\n        /* \"#utility.yul\":9412:9436   */\n      tag_129\n      jump\t// in\n    tag_289:\n        /* \"#utility.yul\":9392:9437   */\n      tag_163\n      jump\t// in\n    tag_288:\n        /* \"#utility.yul\":9387:9390   */\n      dup3\n        /* \"#utility.yul\":9380:9438   */\n      mstore\n        /* \"#utility.yul\":9287:9444   */\n      pop\n      pop\n      jump\t// out\n        /* \"#utility.yul\":9450:9706   */\n    tag_70:\n        /* \"#utility.yul\":9562:9565   */\n      0x00\n        /* \"#utility.yul\":9577:9652   */\n      tag_291\n        /* \"#utility.yul\":9648:9651   */\n      dup3\n        /* \"#utility.yul\":9639:9645   */\n      dup5\n        /* \"#utility.yul\":9577:9652   */\n      tag_164\n      jump\t// in\n    tag_291:\n        /* \"#utility.yul\":9677:9679   */\n      0x20\n        /* \"#utility.yul\":9672:9675   */\n      dup3\n        /* \"#utility.yul\":9668:9680   */\n      add\n        /* \"#utility.yul\":9661:9680   */\n      swap2\n      pop\n        /* \"#utility.yul\":9697:9700   */\n      dup2\n        /* \"#utility.yul\":9690:9700   */\n      swap1\n      pop\n        /* \"#utility.yul\":9450:9706   */\n      swap3\n      swap2\n      pop\n      pop\n      jump\t// out\n        /* \"#utility.yul\":9712:9892   */\n    tag_165:\n        /* \"#utility.yul\":9760:9837   */\n      0x4e487b7100000000000000000000000000000000000000000000000000000000\n        /* \"#utility.yul\":9757:9758   */\n      0x00\n        /* \"#utility.yul\":9750:9838   */\n      mstore\n        /* \"#utility.yul\":9857:9861   */\n      0x11\n        /* \"#utility.yul\":9854:9855   */\n      0x04\n        /* \"#utility.yul\":9847:9862   */\n      mstore\n        /* \"#utility.yul\":9881:9885   */\n      0x24\n        /* \"#utility.yul\":9878:9879   */\n      0x00\n        /* \"#utility.yul\":9871:9886   */\n      revert\n        /* \"#utility.yul\":9898:10308   */\n    tag_73:\n        /* \"#utility.yul\":9938:9945   */\n      0x00\n        /* \"#utility.yul\":9961:9981   */\n      tag_294\n        /* \"#utility.yul\":9979:9980   */\n      dup3\n        /* \"#utility.yul\":9961:9981   */\n      tag_129\n      jump\t// in\n    tag_294:\n        /* \"#utility.yul\":9956:9981   */\n      swap2\n      pop\n        /* \"#utility.yul\":9995:10015   */\n      tag_295\n        /* \"#utility.yul\":10013:10014   */\n      dup4\n        /* \"#utility.yul\":9995:10015   */\n      tag_129\n      jump\t// in\n    tag_295:\n        /* \"#utility.yul\":9990:10015   */\n      swap3\n      pop\n        /* \"#utility.yul\":10050:10051   */\n      dup3\n        /* \"#utility.yul\":10047:10048   */\n      dup3\n        /* \"#utility.yul\":10043:10052   */\n      mul\n        /* \"#utility.yul\":10072:10102   */\n      tag_296\n        /* \"#utility.yul\":10090:10101   */\n      dup2\n        /* \"#utility.yul\":10072:10102   */\n      tag_129\n      jump\t// in\n    tag_296:\n        /* \"#utility.yul\":10061:10102   */\n      swap2\n      pop\n        /* \"#utility.yul\":10251:10252   */\n      dup3\n        /* \"#utility.yul\":10242:10249   */\n      dup3\n        /* \"#utility.yul\":10238:10253   */\n      div\n        /* \"#utility.yul\":10235:10236   */\n      dup5\n        /* \"#utility.yul\":10232:10254   */\n      eq\n        /* \"#utility.yul\":10212:10213   */\n      dup4\n        /* \"#utility.yul\":10205:10214   */\n      iszero\n        /* \"#utility.yul\":10185:10268   */\n      or\n        /* \"#utility.yul\":10162:10301   */\n      tag_297\n      jumpi\n        /* \"#utility.yul\":10281:10299   */\n      tag_298\n      tag_165\n      jump\t// in\n    tag_298:\n        /* \"#utility.yul\":10162:10301   */\n    tag_297:\n        /* \"#utility.yul\":9946:10308   */\n      pop\n        /* \"#utility.yul\":9898:10308   */\n      swap3\n      swap2\n      pop\n      pop\n      jump\t// out\n        /* \"#utility.yul\":10314:10505   */\n    tag_75:\n        /* \"#utility.yul\":10354:10357   */\n      0x00\n        /* \"#utility.yul\":10373:10393   */\n      tag_300\n        /* \"#utility.yul\":10391:10392   */\n      dup3\n        /* \"#utility.yul\":10373:10393   */\n      tag_129\n      jump\t// in\n    tag_300:\n        /* \"#utility.yul\":10368:10393   */\n      swap2\n      pop\n        /* \"#utility.yul\":10407:10427   */\n      tag_301\n        /* \"#utility.yul\":10425:10426   */\n      dup4\n        /* \"#utility.yul\":10407:10427   */\n      tag_129\n      jump\t// in\n    tag_301:\n        /* \"#utility.yul\":10402:10427   */\n      swap3\n      pop\n        /* \"#utility.yul\":10450:10451   */\n      dup3\n        /* \"#utility.yul\":10447:10448   */\n      dup3\n        /* \"#utility.yul\":10443:10452   */\n      add\n        /* \"#utility.yul\":10436:10452   */\n      swap1\n      pop\n        /* \"#utility.yul\":10471:10474   */\n      dup1\n        /* \"#utility.yul\":10468:10469   */\n      dup3\n        /* \"#utility.yul\":10465:10475   */\n      gt\n        /* \"#utility.yul\":10462:10498   */\n      iszero\n      tag_302\n      jumpi\n        /* \"#utility.yul\":10478:10496   */\n      tag_303\n      tag_165\n      jump\t// in\n    tag_303:\n        /* \"#utility.yul\":10462:10498   */\n    tag_302:\n        /* \"#utility.yul\":10314:10505   */\n      swap3\n      swap2\n      pop\n      pop\n      jump\t// out\n        /* \"#utility.yul\":10511:10691   */\n    tag_82:\n        /* \"#utility.yul\":10559:10636   */\n      0x4e487b7100000000000000000000000000000000000000000000000000000000\n        /* \"#utility.yul\":10556:10557   */\n      0x00\n        /* \"#utility.yul\":10549:10637   */\n      mstore\n        /* \"#utility.yul\":10656:10660   */\n      0x32\n        /* \"#utility.yul\":10653:10654   */\n      0x04\n        /* \"#utility.yul\":10646:10661   */\n      mstore\n        /* \"#utility.yul\":10680:10684   */\n      0x24\n        /* \"#utility.yul\":10677:10678   */\n      0x00\n        /* \"#utility.yul\":10670:10685   */\n      revert\n        /* \"#utility.yul\":10697:10930   */\n    tag_105:\n        /* \"#utility.yul\":10736:10739   */\n      0x00\n        /* \"#utility.yul\":10759:10783   */\n      tag_306\n        /* \"#utility.yul\":10777:10782   */\n      dup3\n        /* \"#utility.yul\":10759:10783   */\n      tag_129\n      jump\t// in\n    tag_306:\n        /* \"#utility.yul\":10750:10783   */\n      swap2\n      pop\n        /* \"#utility.yul\":10805:10871   */\n      0xffffffffffffffffffffffffffffffffffffffffffffffffffffffffffffffff\n        /* \"#utility.yul\":10798:10803   */\n      dup3\n        /* \"#utility.yul\":10795:10872   */\n      sub\n        /* \"#utility.yul\":10792:10895   */\n      tag_307\n      jumpi\n        /* \"#utility.yul\":10875:10893   */\n      tag_308\n      tag_165\n      jump\t// in\n    tag_308:\n        /* \"#utility.yul\":10792:10895   */\n    tag_307:\n        /* \"#utility.yul\":10922:10923   */\n      0x01\n        /* \"#utility.yul\":10915:10920   */\n      dup3\n        /* \"#utility.yul\":10911:10924   */\n      add\n        /* \"#utility.yul\":10904:10924   */\n      swap1\n      pop\n        /* \"#utility.yul\":10697:10930   */\n      swap2\n      swap1\n      pop\n      jump\t// out\n        /* \"#utility.yul\":10936:11168   */\n    tag_166:\n        /* \"#utility.yul\":11076:11110   */\n      0x5468697320616464726573732068617320616c726561647920656e7465726564\n        /* \"#utility.yul\":11072:11073   */\n      0x00\n        /* \"#utility.yul\":11064:11070   */\n      dup3\n        /* \"#utility.yul\":11060:11074   */\n      add\n        /* \"#utility.yul\":11053:11111   */\n      mstore\n        /* \"#utility.yul\":11145:11160   */\n      0x20746865206c6f74746572792e00000000000000000000000000000000000000\n        /* \"#utility.yul\":11140:11142   */\n      0x20\n        /* \"#utility.yul\":11132:11138   */\n      dup3\n        /* \"#utility.yul\":11128:11143   */\n      add\n        /* \"#utility.yul\":11121:11161   */\n      mstore\n        /* \"#utility.yul\":10936:11168   */\n      pop\n      jump\t// out\n        /* \"#utility.yul\":11174:11540   */\n    tag_167:\n        /* \"#utility.yul\":11316:11319   */\n      0x00\n        /* \"#utility.yul\":11337:11404   */\n      tag_311\n        /* \"#utility.yul\":11401:11403   */\n      0x2d\n        /* \"#utility.yul\":11396:11399   */\n      dup4\n        /* \"#utility.yul\":11337:11404   */\n      tag_139\n      jump\t// in\n    tag_311:\n        /* \"#utility.yul\":11330:11404   */\n      swap2\n      pop\n        /* \"#utility.yul\":11413:11506   */\n      tag_312\n        /* \"#utility.yul\":11502:11505   */\n      dup3\n        /* \"#utility.yul\":11413:11506   */\n      tag_166\n      jump\t// in\n    tag_312:\n        /* \"#utility.yul\":11531:11533   */\n      0x40\n        /* \"#utility.yul\":11526:11529   */\n      dup3\n        /* \"#utility.yul\":11522:11534   */\n      add\n        /* \"#utility.yul\":11515:11534   */\n      swap1\n      pop\n        /* \"#utility.yul\":11174:11540   */\n      swap2\n      swap1\n      pop\n      jump\t// out\n        /* \"#utility.yul\":11546:11965   */\n    tag_110:\n        /* \"#utility.yul\":11712:11716   */\n      0x00\n        /* \"#utility.yul\":11750:11752   */\n      0x20\n        /* \"#utility.yul\":11739:11748   */\n      dup3\n        /* \"#utility.yul\":11735:11753   */\n      add\n        /* \"#utility.yul\":11727:11753   */\n      swap1\n      pop\n        /* \"#utility.yul\":11799:11808   */\n      dup2\n        /* \"#utility.yul\":11793:11797   */\n      dup2\n        /* \"#utility.yul\":11789:11809   */\n      sub\n        /* \"#utility.yul\":11785:11786   */\n      0x00\n        /* \"#utility.yul\":11774:11783   */\n      dup4\n        /* \"#utility.yul\":11770:11787   */\n      add\n        /* \"#utility.yul\":11763:11810   */\n      mstore\n        /* \"#utility.yul\":11827:11958   */\n      tag_314\n        /* \"#utility.yul\":11953:11957   */\n      dup2\n        /* \"#utility.yul\":11827:11958   */\n      tag_167\n      jump\t// in\n    tag_314:\n        /* \"#utility.yul\":11819:11958   */\n      swap1\n      pop\n        /* \"#utility.yul\":11546:11965   */\n      swap2\n      swap1\n      pop\n      jump\t// out\n        /* \"#utility.yul\":11971:12050   */\n    tag_168:\n        /* \"#utility.yul\":12010:12017   */\n      0x00\n        /* \"#utility.yul\":12039:12044   */\n      dup2\n        /* \"#utility.yul\":12028:12044   */\n      swap1\n      pop\n        /* \"#utility.yul\":11971:12050   */\n      swap2\n      swap1\n      pop\n      jump\t// out\n        /* \"#utility.yul\":12056:12213   */\n    tag_169:\n        /* \"#utility.yul\":12161:12206   */\n      tag_317\n        /* \"#utility.yul\":12181:12205   */\n      tag_318\n        /* \"#utility.yul\":12199:12204   */\n      dup3\n        /* \"#utility.yul\":12181:12205   */\n      tag_155\n      jump\t// in\n    tag_318:\n        /* \"#utility.yul\":12161:12206   */\n      tag_168\n      jump\t// in\n    tag_317:\n        /* \"#utility.yul\":12156:12159   */\n      dup3\n        /* \"#utility.yul\":12149:12207   */\n      mstore\n        /* \"#utility.yul\":12056:12213   */\n      pop\n      pop\n      jump\t// out\n        /* \"#utility.yul\":12219:12475   */\n    tag_115:\n        /* \"#utility.yul\":12331:12334   */\n      0x00\n        /* \"#utility.yul\":12346:12421   */\n      tag_320\n        /* \"#utility.yul\":12417:12420   */\n      dup3\n        /* \"#utility.yul\":12408:12414   */\n      dup5\n        /* \"#utility.yul\":12346:12421   */\n      tag_169\n      jump\t// in\n    tag_320:\n        /* \"#utility.yul\":12446:12448   */\n      0x20\n        /* \"#utility.yul\":12441:12444   */\n      dup3\n        /* \"#utility.yul\":12437:12449   */\n      add\n        /* \"#utility.yul\":12430:12449   */\n      swap2\n      pop\n        /* \"#utility.yul\":12466:12469   */\n      dup2\n        /* \"#utility.yul\":12459:12469   */\n      swap1\n      pop\n        /* \"#utility.yul\":12219:12475   */\n      swap3\n      swap2\n      pop\n      pop\n      jump\t// out\n        /* \"#utility.yul\":12481:12878   */\n    tag_118:\n        /* \"#utility.yul\":12621:12624   */\n      0x00\n        /* \"#utility.yul\":12636:12711   */\n      tag_322\n        /* \"#utility.yul\":12707:12710   */\n      dup3\n        /* \"#utility.yul\":12698:12704   */\n      dup6\n        /* \"#utility.yul\":12636:12711   */\n      tag_164\n      jump\t// in\n    tag_322:\n        /* \"#utility.yul\":12736:12738   */\n      0x20\n        /* \"#utility.yul\":12731:12734   */\n      dup3\n        /* \"#utility.yul\":12727:12739   */\n      add\n        /* \"#utility.yul\":12720:12739   */\n      swap2\n      pop\n        /* \"#utility.yul\":12749:12824   */\n      tag_323\n        /* \"#utility.yul\":12820:12823   */\n      dup3\n        /* \"#utility.yul\":12811:12817   */\n      dup5\n        /* \"#utility.yul\":12749:12824   */\n      tag_164\n      jump\t// in\n    tag_323:\n        /* \"#utility.yul\":12849:12851   */\n      0x20\n        /* \"#utility.yul\":12844:12847   */\n      dup3\n        /* \"#utility.yul\":12840:12852   */\n      add\n        /* \"#utility.yul\":12833:12852   */\n      swap2\n      pop\n        /* \"#utility.yul\":12869:12872   */\n      dup2\n        /* \"#utility.yul\":12862:12872   */\n      swap1\n      pop\n        /* \"#utility.yul\":12481:12878   */\n      swap4\n      swap3\n      pop\n      pop\n      pop\n      jump\t// out\n        /* \"#utility.yul\":12884:13064   */\n    tag_170:\n        /* \"#utility.yul\":12932:13009   */\n      0x4e487b7100000000000000000000000000000000000000000000000000000000\n        /* \"#utility.yul\":12929:12930   */\n      0x00\n        /* \"#utility.yul\":12922:13010   */\n      mstore\n        /* \"#utility.yul\":13029:13033   */\n      0x12\n        /* \"#utility.yul\":13026:13027   */\n      0x04\n        /* \"#utility.yul\":13019:13034   */\n      mstore\n        /* \"#utility.yul\":13053:13057   */\n      0x24\n        /* \"#utility.yul\":13050:13051   */\n      0x00\n        /* \"#utility.yul\":13043:13058   */\n      revert\n        /* \"#utility.yul\":13070:13246   */\n    tag_120:\n        /* \"#utility.yul\":13102:13103   */\n      0x00\n        /* \"#utility.yul\":13119:13139   */\n      tag_326\n        /* \"#utility.yul\":13137:13138   */\n      dup3\n        /* \"#utility.yul\":13119:13139   */\n      tag_129\n      jump\t// in\n    tag_326:\n        /* \"#utility.yul\":13114:13139   */\n      swap2\n      pop\n        /* \"#utility.yul\":13153:13173   */\n      tag_327\n        /* \"#utility.yul\":13171:13172   */\n      dup4\n        /* \"#utility.yul\":13153:13173   */\n      tag_129\n      jump\t// in\n    tag_327:\n        /* \"#utility.yul\":13148:13173   */\n      swap3\n      pop\n        /* \"#utility.yul\":13192:13193   */\n      dup3\n        /* \"#utility.yul\":13182:13217   */\n      tag_328\n      jumpi\n        /* \"#utility.yul\":13197:13215   */\n      tag_329\n      tag_170\n      jump\t// in\n    tag_329:\n        /* \"#utility.yul\":13182:13217   */\n    tag_328:\n        /* \"#utility.yul\":13238:13239   */\n      dup3\n        /* \"#utility.yul\":13235:13236   */\n      dup3\n        /* \"#utility.yul\":13231:13240   */\n      mod\n        /* \"#utility.yul\":13226:13240   */\n      swap1\n      pop\n        /* \"#utility.yul\":13070:13246   */\n      swap3\n      swap2\n      pop\n      pop\n      jump\t// out\n\n    auxdata: 0xa2646970667358221220170381bf70fb638af37c5bcd10a5169e1e5e1ab191e73cd56405766dd7507dab64736f6c63430008110033\n}\n",
				"bytecode": {
					"linkReferences": {},
					"object": "608060405234801561001057600080fd5b5061106b806100206000396000f3fe608060405234801561001057600080fd5b506004361061009e5760003560e01c8063a8a5400811610066578063a8a5400814610193578063b11a19e8146101af578063b863bd37146101df578063bff82dee1461020f578063cd38aa871461023f5761009e565b806327dff143146100a357806356ca623e146100d35780636900a3ae1461010357806371aad10d14610133578063912a90bb14610163575b600080fd5b6100bd60048036038101906100b891906108e0565b61025d565b6040516100ca919061094e565b60405180910390f35b6100ed60048036038101906100e891906109a7565b61029c565b6040516100fa9190610a64565b60405180910390f35b61011d600480360381019061011891906108e0565b6102cd565b60405161012a9190610a64565b60405180910390f35b61014d60048036038101906101489190610bbb565b6102fe565b60405161015a9190610a64565b60405180910390f35b61017d60048036038101906101789190610c30565b6105f8565b60405161018a9190610c78565b60405180910390f35b6101ad60048036038101906101a89190610c30565b61064d565b005b6101c960048036038101906101c49190610cc9565b61079c565b6040516101d69190610a64565b60405180910390f35b6101f960048036038101906101f491906108e0565b6107cd565b6040516102069190610d05565b60405180910390f35b610229600480360381019061022491906109a7565b610812565b6040516102369190610c78565b60405180910390f35b610247610832565b604051610254919061094e565b60405180910390f35b6001818154811061026d57600080fd5b906000526020600020016000915054906101000a900473ffffffffffffffffffffffffffffffffffffffff1681565b60606102c6826040516020016102b29190610d68565b6040516020818303038152906040526102fe565b9050919050565b60606102f7826040516020016102e39190610da4565b6040516020818303038152906040526102fe565b9050919050565b606060006040518060400160405280601081526020017f3031323334353637383961626364656600000000000000000000000000000000815250905060006002845161034a9190610dee565b60026103569190610e30565b67ffffffffffffffff81111561036f5761036e610a90565b5b6040519080825280601f01601f1916602001820160405280156103a15781602001600182028036833780820191505090505b5090507f3000000000000000000000000000000000000000000000000000000000000000816000815181106103d9576103d8610e64565b5b60200101907effffffffffffffffffffffffffffffffffffffffffffffffffffffffffffff1916908160001a9053507f78000000000000000000000000000000000000000000000000000000000000008160018151811061043d5761043c610e64565b5b60200101907effffffffffffffffffffffffffffffffffffffffffffffffffffffffffffff1916908160001a90535060005b84518110156105ed5782600486838151811061048e5761048d610e64565b5b602001015160f81c60f81b7effffffffffffffffffffffffffffffffffffffffffffffffffffffffffffff1916901c60f81c60ff16815181106104d4576104d3610e64565b5b602001015160f81c60f81b826002836104ed9190610dee565b60026104f99190610e30565b8151811061050a57610509610e64565b5b60200101907effffffffffffffffffffffffffffffffffffffffffffffffffffffffffffff1916908160001a90535082600f60f81b86838151811061055257610551610e64565b5b602001015160f81c60f81b1660f81c60ff168151811061057557610574610e64565b5b602001015160f81c60f81b8260028361058e9190610dee565b600361059a9190610e30565b815181106105ab576105aa610e64565b5b60200101907effffffffffffffffffffffffffffffffffffffffffffffffffffffffffffff1916908160001a90535080806105e590610e93565b91505061046f565b508092505050919050565b60008060008373ffffffffffffffffffffffffffffffffffffffff1673ffffffffffffffffffffffffffffffffffffffff16815260200190815260200160002060009054906101000a900460ff169050919050565b60008060008373ffffffffffffffffffffffffffffffffffffffff1673ffffffffffffffffffffffffffffffffffffffff16815260200190815260200160002060009054906101000a900460ff16905080156106de576040517f08c379a00000000000000000000000000000000000000000000000000000000081526004016106d590610f4d565b60405180910390fd5b60016000808473ffffffffffffffffffffffffffffffffffffffff1673ffffffffffffffffffffffffffffffffffffffff16815260200190815260200160002060006101000a81548160ff0219169083151502179055506001829080600181540180825580915050600190039060005260206000200160009091909190916101000a81548173ffffffffffffffffffffffffffffffffffffffff021916908373ffffffffffffffffffffffffffffffffffffffff1602179055505050565b60606107c6826040516020016107b29190610f8e565b6040516020818303038152906040526102fe565b9050919050565b60008044426040516020016107e3929190610fa9565b6040516020818303038152906040528051906020012060001c9050828161080a9190611004565b915050919050565b60006020528060005260406000206000915054906101000a900460ff1681565b60008060018054905090506000610848826107cd565b90506000600182815481106108605761085f610e64565b5b9060005260206000200160009054906101000a900473ffffffffffffffffffffffffffffffffffffffff16905080935050505090565b6000604051905090565b600080fd5b600080fd5b6000819050919050565b6108bd816108aa565b81146108c857600080fd5b50565b6000813590506108da816108b4565b92915050565b6000602082840312156108f6576108f56108a0565b5b6000610904848285016108cb565b91505092915050565b600073ffffffffffffffffffffffffffffffffffffffff82169050919050565b60006109388261090d565b9050919050565b6109488161092d565b82525050565b6000602082019050610963600083018461093f565b92915050565b60006109748261090d565b9050919050565b61098481610969565b811461098f57600080fd5b50565b6000813590506109a18161097b565b92915050565b6000602082840312156109bd576109bc6108a0565b5b60006109cb84828501610992565b91505092915050565b600081519050919050565b600082825260208201905092915050565b60005b83811015610a0e5780820151818401526020810190506109f3565b60008484015250505050565b6000601f19601f8301169050919050565b6000610a36826109d4565b610a4081856109df565b9350610a508185602086016109f0565b610a5981610a1a565b840191505092915050565b60006020820190508181036000830152610a7e8184610a2b565b905092915050565b600080fd5b600080fd5b7f4e487b7100000000000000000000000000000000000000000000000000000000600052604160045260246000fd5b610ac882610a1a565b810181811067ffffffffffffffff82111715610ae757610ae6610a90565b5b80604052505050565b6000610afa610896565b9050610b068282610abf565b919050565b600067ffffffffffffffff821115610b2657610b25610a90565b5b610b2f82610a1a565b9050602081019050919050565b82818337600083830152505050565b6000610b5e610b5984610b0b565b610af0565b905082815260208101848484011115610b7a57610b79610a8b565b5b610b85848285610b3c565b509392505050565b600082601f830112610ba257610ba1610a86565b5b8135610bb2848260208601610b4b565b91505092915050565b600060208284031215610bd157610bd06108a0565b5b600082013567ffffffffffffffff811115610bef57610bee6108a5565b5b610bfb84828501610b8d565b91505092915050565b610c0d8161092d565b8114610c1857600080fd5b50565b600081359050610c2a81610c04565b92915050565b600060208284031215610c4657610c456108a0565b5b6000610c5484828501610c1b565b91505092915050565b60008115159050919050565b610c7281610c5d565b82525050565b6000602082019050610c8d6000830184610c69565b92915050565b6000819050919050565b610ca681610c93565b8114610cb157600080fd5b50565b600081359050610cc381610c9d565b92915050565b600060208284031215610cdf57610cde6108a0565b5b6000610ced84828501610cb4565b91505092915050565b610cff816108aa565b82525050565b6000602082019050610d1a6000830184610cf6565b92915050565b60008160601b9050919050565b6000610d3882610d20565b9050919050565b6000610d4a82610d2d565b9050919050565b610d62610d5d82610969565b610d3f565b82525050565b6000610d748284610d51565b60148201915081905092915050565b6000819050919050565b610d9e610d99826108aa565b610d83565b82525050565b6000610db08284610d8d565b60208201915081905092915050565b7f4e487b7100000000000000000000000000000000000000000000000000000000600052601160045260246000fd5b6000610df9826108aa565b9150610e04836108aa565b9250828202610e12816108aa565b91508282048414831517610e2957610e28610dbf565b5b5092915050565b6000610e3b826108aa565b9150610e46836108aa565b9250828201905080821115610e5e57610e5d610dbf565b5b92915050565b7f4e487b7100000000000000000000000000000000000000000000000000000000600052603260045260246000fd5b6000610e9e826108aa565b91507fffffffffffffffffffffffffffffffffffffffffffffffffffffffffffffffff8203610ed057610ecf610dbf565b5b600182019050919050565b7f5468697320616464726573732068617320616c726561647920656e746572656460008201527f20746865206c6f74746572792e00000000000000000000000000000000000000602082015250565b6000610f37602d836109df565b9150610f4282610edb565b604082019050919050565b60006020820190508181036000830152610f6681610f2a565b9050919050565b6000819050919050565b610f88610f8382610c93565b610f6d565b82525050565b6000610f9a8284610f77565b60208201915081905092915050565b6000610fb58285610d8d565b602082019150610fc58284610d8d565b6020820191508190509392505050565b7f4e487b7100000000000000000000000000000000000000000000000000000000600052601260045260246000fd5b600061100f826108aa565b915061101a836108aa565b92508261102a57611029610fd5565b5b82820690509291505056fea2646970667358221220170381bf70fb638af37c5bcd10a5169e1e5e1ab191e73cd56405766dd7507dab64736f6c63430008110033",
					"opcodes": "PUSH1 0x80 PUSH1 0x40 MSTORE CALLVALUE DUP1 ISZERO PUSH2 0x10 JUMPI PUSH1 0x0 DUP1 REVERT JUMPDEST POP PUSH2 0x106B DUP1 PUSH2 0x20 PUSH1 0x0 CODECOPY PUSH1 0x0 RETURN INVALID PUSH1 0x80 PUSH1 0x40 MSTORE CALLVALUE DUP1 ISZERO PUSH2 0x10 JUMPI PUSH1 0x0 DUP1 REVERT JUMPDEST POP PUSH1 0x4 CALLDATASIZE LT PUSH2 0x9E JUMPI PUSH1 0x0 CALLDATALOAD PUSH1 0xE0 SHR DUP1 PUSH4 0xA8A54008 GT PUSH2 0x66 JUMPI DUP1 PUSH4 0xA8A54008 EQ PUSH2 0x193 JUMPI DUP1 PUSH4 0xB11A19E8 EQ PUSH2 0x1AF JUMPI DUP1 PUSH4 0xB863BD37 EQ PUSH2 0x1DF JUMPI DUP1 PUSH4 0xBFF82DEE EQ PUSH2 0x20F JUMPI DUP1 PUSH4 0xCD38AA87 EQ PUSH2 0x23F JUMPI PUSH2 0x9E JUMP JUMPDEST DUP1 PUSH4 0x27DFF143 EQ PUSH2 0xA3 JUMPI DUP1 PUSH4 0x56CA623E EQ PUSH2 0xD3 JUMPI DUP1 PUSH4 0x6900A3AE EQ PUSH2 0x103 JUMPI DUP1 PUSH4 0x71AAD10D EQ PUSH2 0x133 JUMPI DUP1 PUSH4 0x912A90BB EQ PUSH2 0x163 JUMPI JUMPDEST PUSH1 0x0 DUP1 REVERT JUMPDEST PUSH2 0xBD PUSH1 0x4 DUP1 CALLDATASIZE SUB DUP2 ADD SWAP1 PUSH2 0xB8 SWAP2 SWAP1 PUSH2 0x8E0 JUMP JUMPDEST PUSH2 0x25D JUMP JUMPDEST PUSH1 0x40 MLOAD PUSH2 0xCA SWAP2 SWAP1 PUSH2 0x94E JUMP JUMPDEST PUSH1 0x40 MLOAD DUP1 SWAP2 SUB SWAP1 RETURN JUMPDEST PUSH2 0xED PUSH1 0x4 DUP1 CALLDATASIZE SUB DUP2 ADD SWAP1 PUSH2 0xE8 SWAP2 SWAP1 PUSH2 0x9A7 JUMP JUMPDEST PUSH2 0x29C JUMP JUMPDEST PUSH1 0x40 MLOAD PUSH2 0xFA SWAP2 SWAP1 PUSH2 0xA64 JUMP JUMPDEST PUSH1 0x40 MLOAD DUP1 SWAP2 SUB SWAP1 RETURN JUMPDEST PUSH2 0x11D PUSH1 0x4 DUP1 CALLDATASIZE SUB DUP2 ADD SWAP1 PUSH2 0x118 SWAP2 SWAP1 PUSH2 0x8E0 JUMP JUMPDEST PUSH2 0x2CD JUMP JUMPDEST PUSH1 0x40 MLOAD PUSH2 0x12A SWAP2 SWAP1 PUSH2 0xA64 JUMP JUMPDEST PUSH1 0x40 MLOAD DUP1 SWAP2 SUB SWAP1 RETURN JUMPDEST PUSH2 0x14D PUSH1 0x4 DUP1 CALLDATASIZE SUB DUP2 ADD SWAP1 PUSH2 0x148 SWAP2 SWAP1 PUSH2 0xBBB JUMP JUMPDEST PUSH2 0x2FE JUMP JUMPDEST PUSH1 0x40 MLOAD PUSH2 0x15A SWAP2 SWAP1 PUSH2 0xA64 JUMP JUMPDEST PUSH1 0x40 MLOAD DUP1 SWAP2 SUB SWAP1 RETURN JUMPDEST PUSH2 0x17D PUSH1 0x4 DUP1 CALLDATASIZE SUB DUP2 ADD SWAP1 PUSH2 0x178 SWAP2 SWAP1 PUSH2 0xC30 JUMP JUMPDEST PUSH2 0x5F8 JUMP JUMPDEST PUSH1 0x40 MLOAD PUSH2 0x18A SWAP2 SWAP1 PUSH2 0xC78 JUMP JUMPDEST PUSH1 0x40 MLOAD DUP1 SWAP2 SUB SWAP1 RETURN JUMPDEST PUSH2 0x1AD PUSH1 0x4 DUP1 CALLDATASIZE SUB DUP2 ADD SWAP1 PUSH2 0x1A8 SWAP2 SWAP1 PUSH2 0xC30 JUMP JUMPDEST PUSH2 0x64D JUMP JUMPDEST STOP JUMPDEST PUSH2 0x1C9 PUSH1 0x4 DUP1 CALLDATASIZE SUB DUP2 ADD SWAP1 PUSH2 0x1C4 SWAP2 SWAP1 PUSH2 0xCC9 JUMP JUMPDEST PUSH2 0x79C JUMP JUMPDEST PUSH1 0x40 MLOAD PUSH2 0x1D6 SWAP2 SWAP1 PUSH2 0xA64 JUMP JUMPDEST PUSH1 0x40 MLOAD DUP1 SWAP2 SUB SWAP1 RETURN JUMPDEST PUSH2 0x1F9 PUSH1 0x4 DUP1 CALLDATASIZE SUB DUP2 ADD SWAP1 PUSH2 0x1F4 SWAP2 SWAP1 PUSH2 0x8E0 JUMP JUMPDEST PUSH2 0x7CD JUMP JUMPDEST PUSH1 0x40 MLOAD PUSH2 0x206 SWAP2 SWAP1 PUSH2 0xD05 JUMP JUMPDEST PUSH1 0x40 MLOAD DUP1 SWAP2 SUB SWAP1 RETURN JUMPDEST PUSH2 0x229 PUSH1 0x4 DUP1 CALLDATASIZE SUB DUP2 ADD SWAP1 PUSH2 0x224 SWAP2 SWAP1 PUSH2 0x9A7 JUMP JUMPDEST PUSH2 0x812 JUMP JUMPDEST PUSH1 0x40 MLOAD PUSH2 0x236 SWAP2 SWAP1 PUSH2 0xC78 JUMP JUMPDEST PUSH1 0x40 MLOAD DUP1 SWAP2 SUB SWAP1 RETURN JUMPDEST PUSH2 0x247 PUSH2 0x832 JUMP JUMPDEST PUSH1 0x40 MLOAD PUSH2 0x254 SWAP2 SWAP1 PUSH2 0x94E JUMP JUMPDEST PUSH1 0x40 MLOAD DUP1 SWAP2 SUB SWAP1 RETURN JUMPDEST PUSH1 0x1 DUP2 DUP2 SLOAD DUP2 LT PUSH2 0x26D JUMPI PUSH1 0x0 DUP1 REVERT JUMPDEST SWAP1 PUSH1 0x0 MSTORE PUSH1 0x20 PUSH1 0x0 KECCAK256 ADD PUSH1 0x0 SWAP2 POP SLOAD SWAP1 PUSH2 0x100 EXP SWAP1 DIV PUSH20 0xFFFFFFFFFFFFFFFFFFFFFFFFFFFFFFFFFFFFFFFF AND DUP2 JUMP JUMPDEST PUSH1 0x60 PUSH2 0x2C6 DUP3 PUSH1 0x40 MLOAD PUSH1 0x20 ADD PUSH2 0x2B2 SWAP2 SWAP1 PUSH2 0xD68 JUMP JUMPDEST PUSH1 0x40 MLOAD PUSH1 0x20 DUP2 DUP4 SUB SUB DUP2 MSTORE SWAP1 PUSH1 0x40 MSTORE PUSH2 0x2FE JUMP JUMPDEST SWAP1 POP SWAP2 SWAP1 POP JUMP JUMPDEST PUSH1 0x60 PUSH2 0x2F7 DUP3 PUSH1 0x40 MLOAD PUSH1 0x20 ADD PUSH2 0x2E3 SWAP2 SWAP1 PUSH2 0xDA4 JUMP JUMPDEST PUSH1 0x40 MLOAD PUSH1 0x20 DUP2 DUP4 SUB SUB DUP2 MSTORE SWAP1 PUSH1 0x40 MSTORE PUSH2 0x2FE JUMP JUMPDEST SWAP1 POP SWAP2 SWAP1 POP JUMP JUMPDEST PUSH1 0x60 PUSH1 0x0 PUSH1 0x40 MLOAD DUP1 PUSH1 0x40 ADD PUSH1 0x40 MSTORE DUP1 PUSH1 0x10 DUP2 MSTORE PUSH1 0x20 ADD PUSH32 0x3031323334353637383961626364656600000000000000000000000000000000 DUP2 MSTORE POP SWAP1 POP PUSH1 0x0 PUSH1 0x2 DUP5 MLOAD PUSH2 0x34A SWAP2 SWAP1 PUSH2 0xDEE JUMP JUMPDEST PUSH1 0x2 PUSH2 0x356 SWAP2 SWAP1 PUSH2 0xE30 JUMP JUMPDEST PUSH8 0xFFFFFFFFFFFFFFFF DUP2 GT ISZERO PUSH2 0x36F JUMPI PUSH2 0x36E PUSH2 0xA90 JUMP JUMPDEST JUMPDEST PUSH1 0x40 MLOAD SWAP1 DUP1 DUP3 MSTORE DUP1 PUSH1 0x1F ADD PUSH1 0x1F NOT AND PUSH1 0x20 ADD DUP3 ADD PUSH1 0x40 MSTORE DUP1 ISZERO PUSH2 0x3A1 JUMPI DUP2 PUSH1 0x20 ADD PUSH1 0x1 DUP3 MUL DUP1 CALLDATASIZE DUP4 CALLDATACOPY DUP1 DUP3 ADD SWAP2 POP POP SWAP1 POP JUMPDEST POP SWAP1 POP PUSH32 0x3000000000000000000000000000000000000000000000000000000000000000 DUP2 PUSH1 0x0 DUP2 MLOAD DUP2 LT PUSH2 0x3D9 JUMPI PUSH2 0x3D8 PUSH2 0xE64 JUMP JUMPDEST JUMPDEST PUSH1 0x20 ADD ADD SWAP1 PUSH31 0xFFFFFFFFFFFFFFFFFFFFFFFFFFFFFFFFFFFFFFFFFFFFFFFFFFFFFFFFFFFFFF NOT AND SWAP1 DUP2 PUSH1 0x0 BYTE SWAP1 MSTORE8 POP PUSH32 0x7800000000000000000000000000000000000000000000000000000000000000 DUP2 PUSH1 0x1 DUP2 MLOAD DUP2 LT PUSH2 0x43D JUMPI PUSH2 0x43C PUSH2 0xE64 JUMP JUMPDEST JUMPDEST PUSH1 0x20 ADD ADD SWAP1 PUSH31 0xFFFFFFFFFFFFFFFFFFFFFFFFFFFFFFFFFFFFFFFFFFFFFFFFFFFFFFFFFFFFFF NOT AND SWAP1 DUP2 PUSH1 0x0 BYTE SWAP1 MSTORE8 POP PUSH1 0x0 JUMPDEST DUP5 MLOAD DUP2 LT ISZERO PUSH2 0x5ED JUMPI DUP3 PUSH1 0x4 DUP7 DUP4 DUP2 MLOAD DUP2 LT PUSH2 0x48E JUMPI PUSH2 0x48D PUSH2 0xE64 JUMP JUMPDEST JUMPDEST PUSH1 0x20 ADD ADD MLOAD PUSH1 0xF8 SHR PUSH1 0xF8 SHL PUSH31 0xFFFFFFFFFFFFFFFFFFFFFFFFFFFFFFFFFFFFFFFFFFFFFFFFFFFFFFFFFFFFFF NOT AND SWAP1 SHR PUSH1 0xF8 SHR PUSH1 0xFF AND DUP2 MLOAD DUP2 LT PUSH2 0x4D4 JUMPI PUSH2 0x4D3 PUSH2 0xE64 JUMP JUMPDEST JUMPDEST PUSH1 0x20 ADD ADD MLOAD PUSH1 0xF8 SHR PUSH1 0xF8 SHL DUP3 PUSH1 0x2 DUP4 PUSH2 0x4ED SWAP2 SWAP1 PUSH2 0xDEE JUMP JUMPDEST PUSH1 0x2 PUSH2 0x4F9 SWAP2 SWAP1 PUSH2 0xE30 JUMP JUMPDEST DUP2 MLOAD DUP2 LT PUSH2 0x50A JUMPI PUSH2 0x509 PUSH2 0xE64 JUMP JUMPDEST JUMPDEST PUSH1 0x20 ADD ADD SWAP1 PUSH31 0xFFFFFFFFFFFFFFFFFFFFFFFFFFFFFFFFFFFFFFFFFFFFFFFFFFFFFFFFFFFFFF NOT AND SWAP1 DUP2 PUSH1 0x0 BYTE SWAP1 MSTORE8 POP DUP3 PUSH1 0xF PUSH1 0xF8 SHL DUP7 DUP4 DUP2 MLOAD DUP2 LT PUSH2 0x552 JUMPI PUSH2 0x551 PUSH2 0xE64 JUMP JUMPDEST JUMPDEST PUSH1 0x20 ADD ADD MLOAD PUSH1 0xF8 SHR PUSH1 0xF8 SHL AND PUSH1 0xF8 SHR PUSH1 0xFF AND DUP2 MLOAD DUP2 LT PUSH2 0x575 JUMPI PUSH2 0x574 PUSH2 0xE64 JUMP JUMPDEST JUMPDEST PUSH1 0x20 ADD ADD MLOAD PUSH1 0xF8 SHR PUSH1 0xF8 SHL DUP3 PUSH1 0x2 DUP4 PUSH2 0x58E SWAP2 SWAP1 PUSH2 0xDEE JUMP JUMPDEST PUSH1 0x3 PUSH2 0x59A SWAP2 SWAP1 PUSH2 0xE30 JUMP JUMPDEST DUP2 MLOAD DUP2 LT PUSH2 0x5AB JUMPI PUSH2 0x5AA PUSH2 0xE64 JUMP JUMPDEST JUMPDEST PUSH1 0x20 ADD ADD SWAP1 PUSH31 0xFFFFFFFFFFFFFFFFFFFFFFFFFFFFFFFFFFFFFFFFFFFFFFFFFFFFFFFFFFFFFF NOT AND SWAP1 DUP2 PUSH1 0x0 BYTE SWAP1 MSTORE8 POP DUP1 DUP1 PUSH2 0x5E5 SWAP1 PUSH2 0xE93 JUMP JUMPDEST SWAP2 POP POP PUSH2 0x46F JUMP JUMPDEST POP DUP1 SWAP3 POP POP POP SWAP2 SWAP1 POP JUMP JUMPDEST PUSH1 0x0 DUP1 PUSH1 0x0 DUP4 PUSH20 0xFFFFFFFFFFFFFFFFFFFFFFFFFFFFFFFFFFFFFFFF AND PUSH20 0xFFFFFFFFFFFFFFFFFFFFFFFFFFFFFFFFFFFFFFFF AND DUP2 MSTORE PUSH1 0x20 ADD SWAP1 DUP2 MSTORE PUSH1 0x20 ADD PUSH1 0x0 KECCAK256 PUSH1 0x0 SWAP1 SLOAD SWAP1 PUSH2 0x100 EXP SWAP1 DIV PUSH1 0xFF AND SWAP1 POP SWAP2 SWAP1 POP JUMP JUMPDEST PUSH1 0x0 DUP1 PUSH1 0x0 DUP4 PUSH20 0xFFFFFFFFFFFFFFFFFFFFFFFFFFFFFFFFFFFFFFFF AND PUSH20 0xFFFFFFFFFFFFFFFFFFFFFFFFFFFFFFFFFFFFFFFF AND DUP2 MSTORE PUSH1 0x20 ADD SWAP1 DUP2 MSTORE PUSH1 0x20 ADD PUSH1 0x0 KECCAK256 PUSH1 0x0 SWAP1 SLOAD SWAP1 PUSH2 0x100 EXP SWAP1 DIV PUSH1 0xFF AND SWAP1 POP DUP1 ISZERO PUSH2 0x6DE JUMPI PUSH1 0x40 MLOAD PUSH32 0x8C379A000000000000000000000000000000000000000000000000000000000 DUP2 MSTORE PUSH1 0x4 ADD PUSH2 0x6D5 SWAP1 PUSH2 0xF4D JUMP JUMPDEST PUSH1 0x40 MLOAD DUP1 SWAP2 SUB SWAP1 REVERT JUMPDEST PUSH1 0x1 PUSH1 0x0 DUP1 DUP5 PUSH20 0xFFFFFFFFFFFFFFFFFFFFFFFFFFFFFFFFFFFFFFFF AND PUSH20 0xFFFFFFFFFFFFFFFFFFFFFFFFFFFFFFFFFFFFFFFF AND DUP2 MSTORE PUSH1 0x20 ADD SWAP1 DUP2 MSTORE PUSH1 0x20 ADD PUSH1 0x0 KECCAK256 PUSH1 0x0 PUSH2 0x100 EXP DUP2 SLOAD DUP2 PUSH1 0xFF MUL NOT AND SWAP1 DUP4 ISZERO ISZERO MUL OR SWAP1 SSTORE POP PUSH1 0x1 DUP3 SWAP1 DUP1 PUSH1 0x1 DUP2 SLOAD ADD DUP1 DUP3 SSTORE DUP1 SWAP2 POP POP PUSH1 0x1 SWAP1 SUB SWAP1 PUSH1 0x0 MSTORE PUSH1 0x20 PUSH1 0x0 KECCAK256 ADD PUSH1 0x0 SWAP1 SWAP2 SWAP1 SWAP2 SWAP1 SWAP2 PUSH2 0x100 EXP DUP2 SLOAD DUP2 PUSH20 0xFFFFFFFFFFFFFFFFFFFFFFFFFFFFFFFFFFFFFFFF MUL NOT AND SWAP1 DUP4 PUSH20 0xFFFFFFFFFFFFFFFFFFFFFFFFFFFFFFFFFFFFFFFF AND MUL OR SWAP1 SSTORE POP POP POP JUMP JUMPDEST PUSH1 0x60 PUSH2 0x7C6 DUP3 PUSH1 0x40 MLOAD PUSH1 0x20 ADD PUSH2 0x7B2 SWAP2 SWAP1 PUSH2 0xF8E JUMP JUMPDEST PUSH1 0x40 MLOAD PUSH1 0x20 DUP2 DUP4 SUB SUB DUP2 MSTORE SWAP1 PUSH1 0x40 MSTORE PUSH2 0x2FE JUMP JUMPDEST SWAP1 POP SWAP2 SWAP1 POP JUMP JUMPDEST PUSH1 0x0 DUP1 DIFFICULTY TIMESTAMP PUSH1 0x40 MLOAD PUSH1 0x20 ADD PUSH2 0x7E3 SWAP3 SWAP2 SWAP1 PUSH2 0xFA9 JUMP JUMPDEST PUSH1 0x40 MLOAD PUSH1 0x20 DUP2 DUP4 SUB SUB DUP2 MSTORE SWAP1 PUSH1 0x40 MSTORE DUP1 MLOAD SWAP1 PUSH1 0x20 ADD KECCAK256 PUSH1 0x0 SHR SWAP1 POP DUP3 DUP2 PUSH2 0x80A SWAP2 SWAP1 PUSH2 0x1004 JUMP JUMPDEST SWAP2 POP POP SWAP2 SWAP1 POP JUMP JUMPDEST PUSH1 0x0 PUSH1 0x20 MSTORE DUP1 PUSH1 0x0 MSTORE PUSH1 0x40 PUSH1 0x0 KECCAK256 PUSH1 0x0 SWAP2 POP SLOAD SWAP1 PUSH2 0x100 EXP SWAP1 DIV PUSH1 0xFF AND DUP2 JUMP JUMPDEST PUSH1 0x0 DUP1 PUSH1 0x1 DUP1 SLOAD SWAP1 POP SWAP1 POP PUSH1 0x0 PUSH2 0x848 DUP3 PUSH2 0x7CD JUMP JUMPDEST SWAP1 POP PUSH1 0x0 PUSH1 0x1 DUP3 DUP2 SLOAD DUP2 LT PUSH2 0x860 JUMPI PUSH2 0x85F PUSH2 0xE64 JUMP JUMPDEST JUMPDEST SWAP1 PUSH1 0x0 MSTORE PUSH1 0x20 PUSH1 0x0 KECCAK256 ADD PUSH1 0x0 SWAP1 SLOAD SWAP1 PUSH2 0x100 EXP SWAP1 DIV PUSH20 0xFFFFFFFFFFFFFFFFFFFFFFFFFFFFFFFFFFFFFFFF AND SWAP1 POP DUP1 SWAP4 POP POP POP POP SWAP1 JUMP JUMPDEST PUSH1 0x0 PUSH1 0x40 MLOAD SWAP1 POP SWAP1 JUMP JUMPDEST PUSH1 0x0 DUP1 REVERT JUMPDEST PUSH1 0x0 DUP1 REVERT JUMPDEST PUSH1 0x0 DUP2 SWAP1 POP SWAP2 SWAP1 POP JUMP JUMPDEST PUSH2 0x8BD DUP2 PUSH2 0x8AA JUMP JUMPDEST DUP2 EQ PUSH2 0x8C8 JUMPI PUSH1 0x0 DUP1 REVERT JUMPDEST POP JUMP JUMPDEST PUSH1 0x0 DUP2 CALLDATALOAD SWAP1 POP PUSH2 0x8DA DUP2 PUSH2 0x8B4 JUMP JUMPDEST SWAP3 SWAP2 POP POP JUMP JUMPDEST PUSH1 0x0 PUSH1 0x20 DUP3 DUP5 SUB SLT ISZERO PUSH2 0x8F6 JUMPI PUSH2 0x8F5 PUSH2 0x8A0 JUMP JUMPDEST JUMPDEST PUSH1 0x0 PUSH2 0x904 DUP5 DUP3 DUP6 ADD PUSH2 0x8CB JUMP JUMPDEST SWAP2 POP POP SWAP3 SWAP2 POP POP JUMP JUMPDEST PUSH1 0x0 PUSH20 0xFFFFFFFFFFFFFFFFFFFFFFFFFFFFFFFFFFFFFFFF DUP3 AND SWAP1 POP SWAP2 SWAP1 POP JUMP JUMPDEST PUSH1 0x0 PUSH2 0x938 DUP3 PUSH2 0x90D JUMP JUMPDEST SWAP1 POP SWAP2 SWAP1 POP JUMP JUMPDEST PUSH2 0x948 DUP2 PUSH2 0x92D JUMP JUMPDEST DUP3 MSTORE POP POP JUMP JUMPDEST PUSH1 0x0 PUSH1 0x20 DUP3 ADD SWAP1 POP PUSH2 0x963 PUSH1 0x0 DUP4 ADD DUP5 PUSH2 0x93F JUMP JUMPDEST SWAP3 SWAP2 POP POP JUMP JUMPDEST PUSH1 0x0 PUSH2 0x974 DUP3 PUSH2 0x90D JUMP JUMPDEST SWAP1 POP SWAP2 SWAP1 POP JUMP JUMPDEST PUSH2 0x984 DUP2 PUSH2 0x969 JUMP JUMPDEST DUP2 EQ PUSH2 0x98F JUMPI PUSH1 0x0 DUP1 REVERT JUMPDEST POP JUMP JUMPDEST PUSH1 0x0 DUP2 CALLDATALOAD SWAP1 POP PUSH2 0x9A1 DUP2 PUSH2 0x97B JUMP JUMPDEST SWAP3 SWAP2 POP POP JUMP JUMPDEST PUSH1 0x0 PUSH1 0x20 DUP3 DUP5 SUB SLT ISZERO PUSH2 0x9BD JUMPI PUSH2 0x9BC PUSH2 0x8A0 JUMP JUMPDEST JUMPDEST PUSH1 0x0 PUSH2 0x9CB DUP5 DUP3 DUP6 ADD PUSH2 0x992 JUMP JUMPDEST SWAP2 POP POP SWAP3 SWAP2 POP POP JUMP JUMPDEST PUSH1 0x0 DUP2 MLOAD SWAP1 POP SWAP2 SWAP1 POP JUMP JUMPDEST PUSH1 0x0 DUP3 DUP3 MSTORE PUSH1 0x20 DUP3 ADD SWAP1 POP SWAP3 SWAP2 POP POP JUMP JUMPDEST PUSH1 0x0 JUMPDEST DUP4 DUP2 LT ISZERO PUSH2 0xA0E JUMPI DUP1 DUP3 ADD MLOAD DUP2 DUP5 ADD MSTORE PUSH1 0x20 DUP2 ADD SWAP1 POP PUSH2 0x9F3 JUMP JUMPDEST PUSH1 0x0 DUP5 DUP5 ADD MSTORE POP POP POP POP JUMP JUMPDEST PUSH1 0x0 PUSH1 0x1F NOT PUSH1 0x1F DUP4 ADD AND SWAP1 POP SWAP2 SWAP1 POP JUMP JUMPDEST PUSH1 0x0 PUSH2 0xA36 DUP3 PUSH2 0x9D4 JUMP JUMPDEST PUSH2 0xA40 DUP2 DUP6 PUSH2 0x9DF JUMP JUMPDEST SWAP4 POP PUSH2 0xA50 DUP2 DUP6 PUSH1 0x20 DUP7 ADD PUSH2 0x9F0 JUMP JUMPDEST PUSH2 0xA59 DUP2 PUSH2 0xA1A JUMP JUMPDEST DUP5 ADD SWAP2 POP POP SWAP3 SWAP2 POP POP JUMP JUMPDEST PUSH1 0x0 PUSH1 0x20 DUP3 ADD SWAP1 POP DUP2 DUP2 SUB PUSH1 0x0 DUP4 ADD MSTORE PUSH2 0xA7E DUP2 DUP5 PUSH2 0xA2B JUMP JUMPDEST SWAP1 POP SWAP3 SWAP2 POP POP JUMP JUMPDEST PUSH1 0x0 DUP1 REVERT JUMPDEST PUSH1 0x0 DUP1 REVERT JUMPDEST PUSH32 0x4E487B7100000000000000000000000000000000000000000000000000000000 PUSH1 0x0 MSTORE PUSH1 0x41 PUSH1 0x4 MSTORE PUSH1 0x24 PUSH1 0x0 REVERT JUMPDEST PUSH2 0xAC8 DUP3 PUSH2 0xA1A JUMP JUMPDEST DUP2 ADD DUP2 DUP2 LT PUSH8 0xFFFFFFFFFFFFFFFF DUP3 GT OR ISZERO PUSH2 0xAE7 JUMPI PUSH2 0xAE6 PUSH2 0xA90 JUMP JUMPDEST JUMPDEST DUP1 PUSH1 0x40 MSTORE POP POP POP JUMP JUMPDEST PUSH1 0x0 PUSH2 0xAFA PUSH2 0x896 JUMP JUMPDEST SWAP1 POP PUSH2 0xB06 DUP3 DUP3 PUSH2 0xABF JUMP JUMPDEST SWAP2 SWAP1 POP JUMP JUMPDEST PUSH1 0x0 PUSH8 0xFFFFFFFFFFFFFFFF DUP3 GT ISZERO PUSH2 0xB26 JUMPI PUSH2 0xB25 PUSH2 0xA90 JUMP JUMPDEST JUMPDEST PUSH2 0xB2F DUP3 PUSH2 0xA1A JUMP JUMPDEST SWAP1 POP PUSH1 0x20 DUP2 ADD SWAP1 POP SWAP2 SWAP1 POP JUMP JUMPDEST DUP3 DUP2 DUP4 CALLDATACOPY PUSH1 0x0 DUP4 DUP4 ADD MSTORE POP POP POP JUMP JUMPDEST PUSH1 0x0 PUSH2 0xB5E PUSH2 0xB59 DUP5 PUSH2 0xB0B JUMP JUMPDEST PUSH2 0xAF0 JUMP JUMPDEST SWAP1 POP DUP3 DUP2 MSTORE PUSH1 0x20 DUP2 ADD DUP5 DUP5 DUP5 ADD GT ISZERO PUSH2 0xB7A JUMPI PUSH2 0xB79 PUSH2 0xA8B JUMP JUMPDEST JUMPDEST PUSH2 0xB85 DUP5 DUP3 DUP6 PUSH2 0xB3C JUMP JUMPDEST POP SWAP4 SWAP3 POP POP POP JUMP JUMPDEST PUSH1 0x0 DUP3 PUSH1 0x1F DUP4 ADD SLT PUSH2 0xBA2 JUMPI PUSH2 0xBA1 PUSH2 0xA86 JUMP JUMPDEST JUMPDEST DUP2 CALLDATALOAD PUSH2 0xBB2 DUP5 DUP3 PUSH1 0x20 DUP7 ADD PUSH2 0xB4B JUMP JUMPDEST SWAP2 POP POP SWAP3 SWAP2 POP POP JUMP JUMPDEST PUSH1 0x0 PUSH1 0x20 DUP3 DUP5 SUB SLT ISZERO PUSH2 0xBD1 JUMPI PUSH2 0xBD0 PUSH2 0x8A0 JUMP JUMPDEST JUMPDEST PUSH1 0x0 DUP3 ADD CALLDATALOAD PUSH8 0xFFFFFFFFFFFFFFFF DUP2 GT ISZERO PUSH2 0xBEF JUMPI PUSH2 0xBEE PUSH2 0x8A5 JUMP JUMPDEST JUMPDEST PUSH2 0xBFB DUP5 DUP3 DUP6 ADD PUSH2 0xB8D JUMP JUMPDEST SWAP2 POP POP SWAP3 SWAP2 POP POP JUMP JUMPDEST PUSH2 0xC0D DUP2 PUSH2 0x92D JUMP JUMPDEST DUP2 EQ PUSH2 0xC18 JUMPI PUSH1 0x0 DUP1 REVERT JUMPDEST POP JUMP JUMPDEST PUSH1 0x0 DUP2 CALLDATALOAD SWAP1 POP PUSH2 0xC2A DUP2 PUSH2 0xC04 JUMP JUMPDEST SWAP3 SWAP2 POP POP JUMP JUMPDEST PUSH1 0x0 PUSH1 0x20 DUP3 DUP5 SUB SLT ISZERO PUSH2 0xC46 JUMPI PUSH2 0xC45 PUSH2 0x8A0 JUMP JUMPDEST JUMPDEST PUSH1 0x0 PUSH2 0xC54 DUP5 DUP3 DUP6 ADD PUSH2 0xC1B JUMP JUMPDEST SWAP2 POP POP SWAP3 SWAP2 POP POP JUMP JUMPDEST PUSH1 0x0 DUP2 ISZERO ISZERO SWAP1 POP SWAP2 SWAP1 POP JUMP JUMPDEST PUSH2 0xC72 DUP2 PUSH2 0xC5D JUMP JUMPDEST DUP3 MSTORE POP POP JUMP JUMPDEST PUSH1 0x0 PUSH1 0x20 DUP3 ADD SWAP1 POP PUSH2 0xC8D PUSH1 0x0 DUP4 ADD DUP5 PUSH2 0xC69 JUMP JUMPDEST SWAP3 SWAP2 POP POP JUMP JUMPDEST PUSH1 0x0 DUP2 SWAP1 POP SWAP2 SWAP1 POP JUMP JUMPDEST PUSH2 0xCA6 DUP2 PUSH2 0xC93 JUMP JUMPDEST DUP2 EQ PUSH2 0xCB1 JUMPI PUSH1 0x0 DUP1 REVERT JUMPDEST POP JUMP JUMPDEST PUSH1 0x0 DUP2 CALLDATALOAD SWAP1 POP PUSH2 0xCC3 DUP2 PUSH2 0xC9D JUMP JUMPDEST SWAP3 SWAP2 POP POP JUMP JUMPDEST PUSH1 0x0 PUSH1 0x20 DUP3 DUP5 SUB SLT ISZERO PUSH2 0xCDF JUMPI PUSH2 0xCDE PUSH2 0x8A0 JUMP JUMPDEST JUMPDEST PUSH1 0x0 PUSH2 0xCED DUP5 DUP3 DUP6 ADD PUSH2 0xCB4 JUMP JUMPDEST SWAP2 POP POP SWAP3 SWAP2 POP POP JUMP JUMPDEST PUSH2 0xCFF DUP2 PUSH2 0x8AA JUMP JUMPDEST DUP3 MSTORE POP POP JUMP JUMPDEST PUSH1 0x0 PUSH1 0x20 DUP3 ADD SWAP1 POP PUSH2 0xD1A PUSH1 0x0 DUP4 ADD DUP5 PUSH2 0xCF6 JUMP JUMPDEST SWAP3 SWAP2 POP POP JUMP JUMPDEST PUSH1 0x0 DUP2 PUSH1 0x60 SHL SWAP1 POP SWAP2 SWAP1 POP JUMP JUMPDEST PUSH1 0x0 PUSH2 0xD38 DUP3 PUSH2 0xD20 JUMP JUMPDEST SWAP1 POP SWAP2 SWAP1 POP JUMP JUMPDEST PUSH1 0x0 PUSH2 0xD4A DUP3 PUSH2 0xD2D JUMP JUMPDEST SWAP1 POP SWAP2 SWAP1 POP JUMP JUMPDEST PUSH2 0xD62 PUSH2 0xD5D DUP3 PUSH2 0x969 JUMP JUMPDEST PUSH2 0xD3F JUMP JUMPDEST DUP3 MSTORE POP POP JUMP JUMPDEST PUSH1 0x0 PUSH2 0xD74 DUP3 DUP5 PUSH2 0xD51 JUMP JUMPDEST PUSH1 0x14 DUP3 ADD SWAP2 POP DUP2 SWAP1 POP SWAP3 SWAP2 POP POP JUMP JUMPDEST PUSH1 0x0 DUP2 SWAP1 POP SWAP2 SWAP1 POP JUMP JUMPDEST PUSH2 0xD9E PUSH2 0xD99 DUP3 PUSH2 0x8AA JUMP JUMPDEST PUSH2 0xD83 JUMP JUMPDEST DUP3 MSTORE POP POP JUMP JUMPDEST PUSH1 0x0 PUSH2 0xDB0 DUP3 DUP5 PUSH2 0xD8D JUMP JUMPDEST PUSH1 0x20 DUP3 ADD SWAP2 POP DUP2 SWAP1 POP SWAP3 SWAP2 POP POP JUMP JUMPDEST PUSH32 0x4E487B7100000000000000000000000000000000000000000000000000000000 PUSH1 0x0 MSTORE PUSH1 0x11 PUSH1 0x4 MSTORE PUSH1 0x24 PUSH1 0x0 REVERT JUMPDEST PUSH1 0x0 PUSH2 0xDF9 DUP3 PUSH2 0x8AA JUMP JUMPDEST SWAP2 POP PUSH2 0xE04 DUP4 PUSH2 0x8AA JUMP JUMPDEST SWAP3 POP DUP3 DUP3 MUL PUSH2 0xE12 DUP2 PUSH2 0x8AA JUMP JUMPDEST SWAP2 POP DUP3 DUP3 DIV DUP5 EQ DUP4 ISZERO OR PUSH2 0xE29 JUMPI PUSH2 0xE28 PUSH2 0xDBF JUMP JUMPDEST JUMPDEST POP SWAP3 SWAP2 POP POP JUMP JUMPDEST PUSH1 0x0 PUSH2 0xE3B DUP3 PUSH2 0x8AA JUMP JUMPDEST SWAP2 POP PUSH2 0xE46 DUP4 PUSH2 0x8AA JUMP JUMPDEST SWAP3 POP DUP3 DUP3 ADD SWAP1 POP DUP1 DUP3 GT ISZERO PUSH2 0xE5E JUMPI PUSH2 0xE5D PUSH2 0xDBF JUMP JUMPDEST JUMPDEST SWAP3 SWAP2 POP POP JUMP JUMPDEST PUSH32 0x4E487B7100000000000000000000000000000000000000000000000000000000 PUSH1 0x0 MSTORE PUSH1 0x32 PUSH1 0x4 MSTORE PUSH1 0x24 PUSH1 0x0 REVERT JUMPDEST PUSH1 0x0 PUSH2 0xE9E DUP3 PUSH2 0x8AA JUMP JUMPDEST SWAP2 POP PUSH32 0xFFFFFFFFFFFFFFFFFFFFFFFFFFFFFFFFFFFFFFFFFFFFFFFFFFFFFFFFFFFFFFFF DUP3 SUB PUSH2 0xED0 JUMPI PUSH2 0xECF PUSH2 0xDBF JUMP JUMPDEST JUMPDEST PUSH1 0x1 DUP3 ADD SWAP1 POP SWAP2 SWAP1 POP JUMP JUMPDEST PUSH32 0x5468697320616464726573732068617320616C726561647920656E7465726564 PUSH1 0x0 DUP3 ADD MSTORE PUSH32 0x20746865206C6F74746572792E00000000000000000000000000000000000000 PUSH1 0x20 DUP3 ADD MSTORE POP JUMP JUMPDEST PUSH1 0x0 PUSH2 0xF37 PUSH1 0x2D DUP4 PUSH2 0x9DF JUMP JUMPDEST SWAP2 POP PUSH2 0xF42 DUP3 PUSH2 0xEDB JUMP JUMPDEST PUSH1 0x40 DUP3 ADD SWAP1 POP SWAP2 SWAP1 POP JUMP JUMPDEST PUSH1 0x0 PUSH1 0x20 DUP3 ADD SWAP1 POP DUP2 DUP2 SUB PUSH1 0x0 DUP4 ADD MSTORE PUSH2 0xF66 DUP2 PUSH2 0xF2A JUMP JUMPDEST SWAP1 POP SWAP2 SWAP1 POP JUMP JUMPDEST PUSH1 0x0 DUP2 SWAP1 POP SWAP2 SWAP1 POP JUMP JUMPDEST PUSH2 0xF88 PUSH2 0xF83 DUP3 PUSH2 0xC93 JUMP JUMPDEST PUSH2 0xF6D JUMP JUMPDEST DUP3 MSTORE POP POP JUMP JUMPDEST PUSH1 0x0 PUSH2 0xF9A DUP3 DUP5 PUSH2 0xF77 JUMP JUMPDEST PUSH1 0x20 DUP3 ADD SWAP2 POP DUP2 SWAP1 POP SWAP3 SWAP2 POP POP JUMP JUMPDEST PUSH1 0x0 PUSH2 0xFB5 DUP3 DUP6 PUSH2 0xD8D JUMP JUMPDEST PUSH1 0x20 DUP3 ADD SWAP2 POP PUSH2 0xFC5 DUP3 DUP5 PUSH2 0xD8D JUMP JUMPDEST PUSH1 0x20 DUP3 ADD SWAP2 POP DUP2 SWAP1 POP SWAP4 SWAP3 POP POP POP JUMP JUMPDEST PUSH32 0x4E487B7100000000000000000000000000000000000000000000000000000000 PUSH1 0x0 MSTORE PUSH1 0x12 PUSH1 0x4 MSTORE PUSH1 0x24 PUSH1 0x0 REVERT JUMPDEST PUSH1 0x0 PUSH2 0x100F DUP3 PUSH2 0x8AA JUMP JUMPDEST SWAP2 POP PUSH2 0x101A DUP4 PUSH2 0x8AA JUMP JUMPDEST SWAP3 POP DUP3 PUSH2 0x102A JUMPI PUSH2 0x1029 PUSH2 0xFD5 JUMP JUMPDEST JUMPDEST DUP3 DUP3 MOD SWAP1 POP SWAP3 SWAP2 POP POP JUMP INVALID LOG2 PUSH5 0x6970667358 0x22 SLT KECCAK256 OR SUB DUP2 0xBF PUSH17 0xFB638AF37C5BCD10A5169E1E5E1AB191E7 EXTCODECOPY 0xD5 PUSH5 0x5766DD750 PUSH30 0xAB64736F6C63430008110033000000000000000000000000000000000000 "
				},
				"gasEstimates": {
					"creation": {
						"codeDepositCost": "840600",
						"executionCost": "877",
						"totalCost": "841477"
					},
					"external": {
						"chooseWinner()": "infinite",
						"isAddressPlaying(address)": "2972",
						"list_playerAddress(uint256)": "4957",
						"map_isPlaying(address)": "2911",
						"random(uint256)": "infinite",
						"registerAddress(address)": "75650",
						"toString(address)": "infinite",
						"toString(bytes)": "infinite",
						"toString(bytes32)": "infinite",
						"toString(uint256)": "infinite"
					}
				},
				"methodIdentifiers": {
					"chooseWinner()": "cd38aa87",
					"isAddressPlaying(address)": "912a90bb",
					"list_playerAddress(uint256)": "27dff143",
					"map_isPlaying(address)": "bff82dee",
					"random(uint256)": "b863bd37",
					"registerAddress(address)": "a8a54008",
					"toString(address)": "56ca623e",
					"toString(bytes)": "71aad10d",
					"toString(bytes32)": "b11a19e8",
					"toString(uint256)": "6900a3ae"
				}
			},
			"storageLayout": {
				"storage": [
					{
						"astId": 6,
						"contract": "contracts/lottery.sol:Lottery",
						"label": "map_isPlaying",
						"offset": 0,
						"slot": "0",
						"type": "t_mapping(t_address,t_bool)"
					},
					{
						"astId": 9,
						"contract": "contracts/lottery.sol:Lottery",
						"label": "list_playerAddress",
						"offset": 0,
						"slot": "1",
						"type": "t_array(t_address_payable)dyn_storage"
					}
				],
				"types": {
					"t_address": {
						"encoding": "inplace",
						"label": "address",
						"numberOfBytes": "20"
					},
					"t_address_payable": {
						"encoding": "inplace",
						"label": "address payable",
						"numberOfBytes": "20"
					},
					"t_array(t_address_payable)dyn_storage": {
						"base": "t_address_payable",
						"encoding": "dynamic_array",
						"label": "address payable[]",
						"numberOfBytes": "32"
					},
					"t_bool": {
						"encoding": "inplace",
						"label": "bool",
						"numberOfBytes": "1"
					},
					"t_mapping(t_address,t_bool)": {
						"encoding": "mapping",
						"key": "t_address",
						"label": "mapping(address => bool)",
						"numberOfBytes": "32",
						"value": "t_bool"
					}
				}
			},
			"userdoc": {
				"kind": "user",
				"methods": {},
				"version": 1
			}
		}
	}
}