{
	"contracts/lottery.sol": {
		"Lottery": {
			"abi": [
				{
					"inputs": [],
					"name": "chooseWinner",
					"outputs": [
						{
							"internalType": "string",
							"name": "",
							"type": "string"
						}
					],
					"stateMutability": "view",
					"type": "function"
				},
				{
					"inputs": [
						{
							"internalType": "address payable",
							"name": "playerAddress",
							"type": "address"
						}
					],
					"name": "isAddressPlaying",
					"outputs": [
						{
							"internalType": "bool",
							"name": "",
							"type": "bool"
						}
					],
					"stateMutability": "view",
					"type": "function"
				},
				{
					"inputs": [
						{
							"internalType": "uint256",
							"name": "",
							"type": "uint256"
						}
					],
					"name": "list_playerAddress",
					"outputs": [
						{
							"internalType": "address payable",
							"name": "",
							"type": "address"
						}
					],
					"stateMutability": "view",
					"type": "function"
				},
				{
					"inputs": [
						{
							"internalType": "address",
							"name": "",
							"type": "address"
						}
					],
					"name": "map_isPlaying",
					"outputs": [
						{
							"internalType": "bool",
							"name": "",
							"type": "bool"
						}
					],
					"stateMutability": "view",
					"type": "function"
				},
				{
					"inputs": [
						{
							"internalType": "address payable",
							"name": "playerAddress",
							"type": "address"
						}
					],
					"name": "registerAddress",
					"outputs": [],
					"stateMutability": "nonpayable",
					"type": "function"
				},
				{
					"inputs": [
						{
							"internalType": "address",
							"name": "account",
							"type": "address"
						}
					],
					"name": "toString",
					"outputs": [
						{
							"internalType": "string",
							"name": "",
							"type": "string"
						}
					],
					"stateMutability": "pure",
					"type": "function"
				},
				{
					"inputs": [
						{
							"internalType": "uint256",
							"name": "value",
							"type": "uint256"
						}
					],
					"name": "toString",
					"outputs": [
						{
							"internalType": "string",
							"name": "",
							"type": "string"
						}
					],
					"stateMutability": "pure",
					"type": "function"
				},
				{
					"inputs": [
						{
							"internalType": "bytes",
							"name": "data",
							"type": "bytes"
						}
					],
					"name": "toString",
					"outputs": [
						{
							"internalType": "string",
							"name": "",
							"type": "string"
						}
					],
					"stateMutability": "pure",
					"type": "function"
				},
				{
					"inputs": [
						{
							"internalType": "bytes32",
							"name": "value",
							"type": "bytes32"
						}
					],
					"name": "toString",
					"outputs": [
						{
							"internalType": "string",
							"name": "",
							"type": "string"
						}
					],
					"stateMutability": "pure",
					"type": "function"
				}
			],
			"devdoc": {
				"custom:dev-run-script": "./scripts/deploy_with_ethers.ts",
				"details": "A blockchain lottery",
				"kind": "dev",
				"methods": {},
				"title": "Lottery",
				"version": 1
			},
			"evm": {
				"assembly": "    /* \"contracts/lottery.sol\":193:2523  contract Lottery {... */\n  mstore(0x40, 0x80)\n  callvalue\n  dup1\n  iszero\n  tag_1\n  jumpi\n  0x00\n  dup1\n  revert\ntag_1:\n  pop\n  dataSize(sub_0)\n  dup1\n  dataOffset(sub_0)\n  0x00\n  codecopy\n  0x00\n  return\nstop\n\nsub_0: assembly {\n        /* \"contracts/lottery.sol\":193:2523  contract Lottery {... */\n      mstore(0x40, 0x80)\n      callvalue\n      dup1\n      iszero\n      tag_1\n      jumpi\n      0x00\n      dup1\n      revert\n    tag_1:\n      pop\n      jumpi(tag_2, lt(calldatasize, 0x04))\n      shr(0xe0, calldataload(0x00))\n      dup1\n      0x912a90bb\n      gt\n      tag_12\n      jumpi\n      dup1\n      0x912a90bb\n      eq\n      tag_7\n      jumpi\n      dup1\n      0xa8a54008\n      eq\n      tag_8\n      jumpi\n      dup1\n      0xb11a19e8\n      eq\n      tag_9\n      jumpi\n      dup1\n      0xbff82dee\n      eq\n      tag_10\n      jumpi\n      dup1\n      0xcd38aa87\n      eq\n      tag_11\n      jumpi\n      jump(tag_2)\n    tag_12:\n      dup1\n      0x27dff143\n      eq\n      tag_3\n      jumpi\n      dup1\n      0x56ca623e\n      eq\n      tag_4\n      jumpi\n      dup1\n      0x6900a3ae\n      eq\n      tag_5\n      jumpi\n      dup1\n      0x71aad10d\n      eq\n      tag_6\n      jumpi\n    tag_2:\n      0x00\n      dup1\n      revert\n        /* \"contracts/lottery.sol\":269:312  address payable[] public list_playerAddress */\n    tag_3:\n      tag_13\n      0x04\n      dup1\n      calldatasize\n      sub\n      dup2\n      add\n      swap1\n      tag_14\n      swap2\n      swap1\n      tag_15\n      jump\t// in\n    tag_14:\n      tag_16\n      jump\t// in\n    tag_13:\n      mload(0x40)\n      tag_17\n      swap2\n      swap1\n      tag_18\n      jump\t// in\n    tag_17:\n      mload(0x40)\n      dup1\n      swap2\n      sub\n      swap1\n      return\n        /* \"contracts/lottery.sol\":1652:1783  function toString(address account) public pure returns(string memory) {... */\n    tag_4:\n      tag_19\n      0x04\n      dup1\n      calldatasize\n      sub\n      dup2\n      add\n      swap1\n      tag_20\n      swap2\n      swap1\n      tag_21\n      jump\t// in\n    tag_20:\n      tag_22\n      jump\t// in\n    tag_19:\n      mload(0x40)\n      tag_23\n      swap2\n      swap1\n      tag_24\n      jump\t// in\n    tag_23:\n      mload(0x40)\n      dup1\n      swap2\n      sub\n      swap1\n      return\n        /* \"contracts/lottery.sol\":1791:1918  function toString(uint256 value) public pure returns(string memory) {... */\n    tag_5:\n      tag_25\n      0x04\n      dup1\n      calldatasize\n      sub\n      dup2\n      add\n      swap1\n      tag_26\n      swap2\n      swap1\n      tag_15\n      jump\t// in\n    tag_26:\n      tag_27\n      jump\t// in\n    tag_25:\n      mload(0x40)\n      tag_28\n      swap2\n      swap1\n      tag_24\n      jump\t// in\n    tag_28:\n      mload(0x40)\n      dup1\n      swap2\n      sub\n      swap1\n      return\n        /* \"contracts/lottery.sol\":2061:2520  function toString(bytes memory data) public pure returns(string memory) {... */\n    tag_6:\n      tag_29\n      0x04\n      dup1\n      calldatasize\n      sub\n      dup2\n      add\n      swap1\n      tag_30\n      swap2\n      swap1\n      tag_31\n      jump\t// in\n    tag_30:\n      tag_32\n      jump\t// in\n    tag_29:\n      mload(0x40)\n      tag_33\n      swap2\n      swap1\n      tag_24\n      jump\t// in\n    tag_33:\n      mload(0x40)\n      dup1\n      swap2\n      sub\n      swap1\n      return\n        /* \"contracts/lottery.sol\":803:989  function isAddressPlaying(address payable playerAddress) public view returns (bool) {... */\n    tag_7:\n      tag_34\n      0x04\n      dup1\n      calldatasize\n      sub\n      dup2\n      add\n      swap1\n      tag_35\n      swap2\n      swap1\n      tag_36\n      jump\t// in\n    tag_35:\n      tag_37\n      jump\t// in\n    tag_34:\n      mload(0x40)\n      tag_38\n      swap2\n      swap1\n      tag_39\n      jump\t// in\n    tag_38:\n      mload(0x40)\n      dup1\n      swap2\n      sub\n      swap1\n      return\n        /* \"contracts/lottery.sol\":321:791  function registerAddress(address payable playerAddress) public {... */\n    tag_8:\n      tag_40\n      0x04\n      dup1\n      calldatasize\n      sub\n      dup2\n      add\n      swap1\n      tag_41\n      swap2\n      swap1\n      tag_36\n      jump\t// in\n    tag_41:\n      tag_42\n      jump\t// in\n    tag_40:\n      stop\n        /* \"contracts/lottery.sol\":1926:2053  function toString(bytes32 value) public pure returns(string memory) {... */\n    tag_9:\n      tag_43\n      0x04\n      dup1\n      calldatasize\n      sub\n      dup2\n      add\n      swap1\n      tag_44\n      swap2\n      swap1\n      tag_45\n      jump\t// in\n    tag_44:\n      tag_46\n      jump\t// in\n    tag_43:\n      mload(0x40)\n      tag_47\n      swap2\n      swap1\n      tag_24\n      jump\t// in\n    tag_47:\n      mload(0x40)\n      dup1\n      swap2\n      sub\n      swap1\n      return\n        /* \"contracts/lottery.sol\":217:262  mapping(address => bool) public map_isPlaying */\n    tag_10:\n      tag_48\n      0x04\n      dup1\n      calldatasize\n      sub\n      dup2\n      add\n      swap1\n      tag_49\n      swap2\n      swap1\n      tag_21\n      jump\t// in\n    tag_49:\n      tag_50\n      jump\t// in\n    tag_48:\n      mload(0x40)\n      tag_51\n      swap2\n      swap1\n      tag_39\n      jump\t// in\n    tag_51:\n      mload(0x40)\n      dup1\n      swap2\n      sub\n      swap1\n      return\n        /* \"contracts/lottery.sol\":997:1632  function chooseWinner() public view returns (string memory) {... */\n    tag_11:\n      tag_52\n      tag_53\n      jump\t// in\n    tag_52:\n      mload(0x40)\n      tag_54\n      swap2\n      swap1\n      tag_24\n      jump\t// in\n    tag_54:\n      mload(0x40)\n      dup1\n      swap2\n      sub\n      swap1\n      return\n        /* \"contracts/lottery.sol\":269:312  address payable[] public list_playerAddress */\n    tag_16:\n      0x01\n      dup2\n      dup2\n      sload\n      dup2\n      lt\n      tag_55\n      jumpi\n      0x00\n      dup1\n      revert\n    tag_55:\n      swap1\n      0x00\n      mstore\n      keccak256(0x00, 0x20)\n      add\n      0x00\n      swap2\n      pop\n      sload\n      swap1\n      0x0100\n      exp\n      swap1\n      div\n      0xffffffffffffffffffffffffffffffffffffffff\n      and\n      dup2\n      jump\t// out\n        /* \"contracts/lottery.sol\":1652:1783  function toString(address account) public pure returns(string memory) {... */\n    tag_22:\n        /* \"contracts/lottery.sol\":1707:1720  string memory */\n      0x60\n        /* \"contracts/lottery.sol\":1740:1775  toString(abi.encodePacked(account)) */\n      tag_58\n        /* \"contracts/lottery.sol\":1766:1773  account */\n      dup3\n        /* \"contracts/lottery.sol\":1749:1774  abi.encodePacked(account) */\n      add(0x20, mload(0x40))\n      tag_59\n      swap2\n      swap1\n      tag_60\n      jump\t// in\n    tag_59:\n      mload(0x40)\n      0x20\n      dup2\n      dup4\n      sub\n      sub\n      dup2\n      mstore\n      swap1\n      0x40\n      mstore\n        /* \"contracts/lottery.sol\":1740:1748  toString */\n      tag_32\n        /* \"contracts/lottery.sol\":1740:1775  toString(abi.encodePacked(account)) */\n      jump\t// in\n    tag_58:\n        /* \"contracts/lottery.sol\":1733:1775  return toString(abi.encodePacked(account)) */\n      swap1\n      pop\n        /* \"contracts/lottery.sol\":1652:1783  function toString(address account) public pure returns(string memory) {... */\n      swap2\n      swap1\n      pop\n      jump\t// out\n        /* \"contracts/lottery.sol\":1791:1918  function toString(uint256 value) public pure returns(string memory) {... */\n    tag_27:\n        /* \"contracts/lottery.sol\":1844:1857  string memory */\n      0x60\n        /* \"contracts/lottery.sol\":1877:1910  toString(abi.encodePacked(value)) */\n      tag_62\n        /* \"contracts/lottery.sol\":1903:1908  value */\n      dup3\n        /* \"contracts/lottery.sol\":1886:1909  abi.encodePacked(value) */\n      add(0x20, mload(0x40))\n      tag_63\n      swap2\n      swap1\n      tag_64\n      jump\t// in\n    tag_63:\n      mload(0x40)\n      0x20\n      dup2\n      dup4\n      sub\n      sub\n      dup2\n      mstore\n      swap1\n      0x40\n      mstore\n        /* \"contracts/lottery.sol\":1877:1885  toString */\n      tag_32\n        /* \"contracts/lottery.sol\":1877:1910  toString(abi.encodePacked(value)) */\n      jump\t// in\n    tag_62:\n        /* \"contracts/lottery.sol\":1870:1910  return toString(abi.encodePacked(value)) */\n      swap1\n      pop\n        /* \"contracts/lottery.sol\":1791:1918  function toString(uint256 value) public pure returns(string memory) {... */\n      swap2\n      swap1\n      pop\n      jump\t// out\n        /* \"contracts/lottery.sol\":2061:2520  function toString(bytes memory data) public pure returns(string memory) {... */\n    tag_32:\n        /* \"contracts/lottery.sol\":2118:2131  string memory */\n      0x60\n        /* \"contracts/lottery.sol\":2144:2165  bytes memory alphabet */\n      0x00\n        /* \"contracts/lottery.sol\":2144:2186  bytes memory alphabet = \"0123456789abcdef\" */\n      mload(0x40)\n      dup1\n      0x40\n      add\n      0x40\n      mstore\n      dup1\n      0x10\n      dup2\n      mstore\n      0x20\n      add\n      0x3031323334353637383961626364656600000000000000000000000000000000\n      dup2\n      mstore\n      pop\n      swap1\n      pop\n        /* \"contracts/lottery.sol\":2199:2215  bytes memory str */\n      0x00\n        /* \"contracts/lottery.sol\":2246:2247  2 */\n      0x02\n        /* \"contracts/lottery.sol\":2232:2236  data */\n      dup5\n        /* \"contracts/lottery.sol\":2232:2243  data.length */\n      mload\n        /* \"contracts/lottery.sol\":2232:2247  data.length * 2 */\n      tag_66\n      swap2\n      swap1\n      tag_67\n      jump\t// in\n    tag_66:\n        /* \"contracts/lottery.sol\":2228:2229  2 */\n      0x02\n        /* \"contracts/lottery.sol\":2228:2247  2 + data.length * 2 */\n      tag_68\n      swap2\n      swap1\n      tag_69\n      jump\t// in\n    tag_68:\n        /* \"contracts/lottery.sol\":2218:2248  new bytes(2 + data.length * 2) */\n      0xffffffffffffffff\n      dup2\n      gt\n      iszero\n      tag_70\n      jumpi\n      tag_71\n      tag_72\n      jump\t// in\n    tag_71:\n    tag_70:\n      mload(0x40)\n      swap1\n      dup1\n      dup3\n      mstore\n      dup1\n      0x1f\n      add\n      not(0x1f)\n      and\n      0x20\n      add\n      dup3\n      add\n      0x40\n      mstore\n      dup1\n      iszero\n      tag_73\n      jumpi\n      dup2\n      0x20\n      add\n      0x01\n      dup3\n      mul\n      dup1\n      calldatasize\n      dup4\n      calldatacopy\n      dup1\n      dup3\n      add\n      swap2\n      pop\n      pop\n      swap1\n      pop\n    tag_73:\n      pop\n        /* \"contracts/lottery.sol\":2199:2248  bytes memory str = new bytes(2 + data.length * 2) */\n      swap1\n      pop\n        /* \"contracts/lottery.sol\":2259:2271  str[0] = \"0\" */\n      0x3000000000000000000000000000000000000000000000000000000000000000\n        /* \"contracts/lottery.sol\":2259:2262  str */\n      dup2\n        /* \"contracts/lottery.sol\":2263:2264  0 */\n      0x00\n        /* \"contracts/lottery.sol\":2259:2265  str[0] */\n      dup2\n      mload\n      dup2\n      lt\n      tag_74\n      jumpi\n      tag_75\n      tag_76\n      jump\t// in\n    tag_75:\n    tag_74:\n      0x20\n      add\n      add\n        /* \"contracts/lottery.sol\":2259:2271  str[0] = \"0\" */\n      swap1\n      not(0xffffffffffffffffffffffffffffffffffffffffffffffffffffffffffffff)\n      and\n      swap1\n      dup2\n      0x00\n      byte\n      swap1\n      mstore8\n      pop\n        /* \"contracts/lottery.sol\":2282:2294  str[1] = \"x\" */\n      0x7800000000000000000000000000000000000000000000000000000000000000\n        /* \"contracts/lottery.sol\":2282:2285  str */\n      dup2\n        /* \"contracts/lottery.sol\":2286:2287  1 */\n      0x01\n        /* \"contracts/lottery.sol\":2282:2288  str[1] */\n      dup2\n      mload\n      dup2\n      lt\n      tag_77\n      jumpi\n      tag_78\n      tag_76\n      jump\t// in\n    tag_78:\n    tag_77:\n      0x20\n      add\n      add\n        /* \"contracts/lottery.sol\":2282:2294  str[1] = \"x\" */\n      swap1\n      not(0xffffffffffffffffffffffffffffffffffffffffffffffffffffffffffffff)\n      and\n      swap1\n      dup2\n      0x00\n      byte\n      swap1\n      mstore8\n      pop\n        /* \"contracts/lottery.sol\":2310:2316  uint i */\n      0x00\n        /* \"contracts/lottery.sol\":2305:2484  for (uint i = 0; i < data.length; i++) {... */\n    tag_79:\n        /* \"contracts/lottery.sol\":2326:2330  data */\n      dup5\n        /* \"contracts/lottery.sol\":2326:2337  data.length */\n      mload\n        /* \"contracts/lottery.sol\":2322:2323  i */\n      dup2\n        /* \"contracts/lottery.sol\":2322:2337  i < data.length */\n      lt\n        /* \"contracts/lottery.sol\":2305:2484  for (uint i = 0; i < data.length; i++) {... */\n      iszero\n      tag_80\n      jumpi\n        /* \"contracts/lottery.sol\":2372:2380  alphabet */\n      dup3\n        /* \"contracts/lottery.sol\":2403:2404  4 */\n      0x04\n        /* \"contracts/lottery.sol\":2392:2396  data */\n      dup7\n        /* \"contracts/lottery.sol\":2397:2398  i */\n      dup4\n        /* \"contracts/lottery.sol\":2392:2399  data[i] */\n      dup2\n      mload\n      dup2\n      lt\n      tag_82\n      jumpi\n      tag_83\n      tag_76\n      jump\t// in\n    tag_83:\n    tag_82:\n      0x20\n      add\n      add\n      mload\n      0xf8\n      shr\n      0xf8\n      shl\n        /* \"contracts/lottery.sol\":2392:2404  data[i] >> 4 */\n      not(0xffffffffffffffffffffffffffffffffffffffffffffffffffffffffffffff)\n      and\n      swap1\n      shr\n        /* \"contracts/lottery.sol\":2386:2405  uint8(data[i] >> 4) */\n      0xf8\n      shr\n        /* \"contracts/lottery.sol\":2381:2406  uint(uint8(data[i] >> 4)) */\n      0xff\n      and\n        /* \"contracts/lottery.sol\":2372:2407  alphabet[uint(uint8(data[i] >> 4))] */\n      dup2\n      mload\n      dup2\n      lt\n      tag_84\n      jumpi\n      tag_85\n      tag_76\n      jump\t// in\n    tag_85:\n    tag_84:\n      0x20\n      add\n      add\n      mload\n      0xf8\n      shr\n      0xf8\n      shl\n        /* \"contracts/lottery.sol\":2359:2362  str */\n      dup3\n        /* \"contracts/lottery.sol\":2367:2368  2 */\n      0x02\n        /* \"contracts/lottery.sol\":2365:2366  i */\n      dup4\n        /* \"contracts/lottery.sol\":2365:2368  i*2 */\n      tag_86\n      swap2\n      swap1\n      tag_67\n      jump\t// in\n    tag_86:\n        /* \"contracts/lottery.sol\":2363:2364  2 */\n      0x02\n        /* \"contracts/lottery.sol\":2363:2368  2+i*2 */\n      tag_87\n      swap2\n      swap1\n      tag_69\n      jump\t// in\n    tag_87:\n        /* \"contracts/lottery.sol\":2359:2369  str[2+i*2] */\n      dup2\n      mload\n      dup2\n      lt\n      tag_88\n      jumpi\n      tag_89\n      tag_76\n      jump\t// in\n    tag_89:\n    tag_88:\n      0x20\n      add\n      add\n        /* \"contracts/lottery.sol\":2359:2407  str[2+i*2] = alphabet[uint(uint8(data[i] >> 4))] */\n      swap1\n      not(0xffffffffffffffffffffffffffffffffffffffffffffffffffffffffffffff)\n      and\n      swap1\n      dup2\n      0x00\n      byte\n      swap1\n      mstore8\n      pop\n        /* \"contracts/lottery.sol\":2435:2443  alphabet */\n      dup3\n        /* \"contracts/lottery.sol\":2465:2469  0x0f */\n      0x0f\n        /* \"contracts/lottery.sol\":2455:2469  data[i] & 0x0f */\n      0xf8\n      shl\n        /* \"contracts/lottery.sol\":2455:2459  data */\n      dup7\n        /* \"contracts/lottery.sol\":2460:2461  i */\n      dup4\n        /* \"contracts/lottery.sol\":2455:2462  data[i] */\n      dup2\n      mload\n      dup2\n      lt\n      tag_90\n      jumpi\n      tag_91\n      tag_76\n      jump\t// in\n    tag_91:\n    tag_90:\n      0x20\n      add\n      add\n      mload\n      0xf8\n      shr\n      0xf8\n      shl\n        /* \"contracts/lottery.sol\":2455:2469  data[i] & 0x0f */\n      and\n        /* \"contracts/lottery.sol\":2449:2470  uint8(data[i] & 0x0f) */\n      0xf8\n      shr\n        /* \"contracts/lottery.sol\":2444:2471  uint(uint8(data[i] & 0x0f)) */\n      0xff\n      and\n        /* \"contracts/lottery.sol\":2435:2472  alphabet[uint(uint8(data[i] & 0x0f))] */\n      dup2\n      mload\n      dup2\n      lt\n      tag_92\n      jumpi\n      tag_93\n      tag_76\n      jump\t// in\n    tag_93:\n    tag_92:\n      0x20\n      add\n      add\n      mload\n      0xf8\n      shr\n      0xf8\n      shl\n        /* \"contracts/lottery.sol\":2422:2425  str */\n      dup3\n        /* \"contracts/lottery.sol\":2430:2431  2 */\n      0x02\n        /* \"contracts/lottery.sol\":2428:2429  i */\n      dup4\n        /* \"contracts/lottery.sol\":2428:2431  i*2 */\n      tag_94\n      swap2\n      swap1\n      tag_67\n      jump\t// in\n    tag_94:\n        /* \"contracts/lottery.sol\":2426:2427  3 */\n      0x03\n        /* \"contracts/lottery.sol\":2426:2431  3+i*2 */\n      tag_95\n      swap2\n      swap1\n      tag_69\n      jump\t// in\n    tag_95:\n        /* \"contracts/lottery.sol\":2422:2432  str[3+i*2] */\n      dup2\n      mload\n      dup2\n      lt\n      tag_96\n      jumpi\n      tag_97\n      tag_76\n      jump\t// in\n    tag_97:\n    tag_96:\n      0x20\n      add\n      add\n        /* \"contracts/lottery.sol\":2422:2472  str[3+i*2] = alphabet[uint(uint8(data[i] & 0x0f))] */\n      swap1\n      not(0xffffffffffffffffffffffffffffffffffffffffffffffffffffffffffffff)\n      and\n      swap1\n      dup2\n      0x00\n      byte\n      swap1\n      mstore8\n      pop\n        /* \"contracts/lottery.sol\":2339:2342  i++ */\n      dup1\n      dup1\n      tag_98\n      swap1\n      tag_99\n      jump\t// in\n    tag_98:\n      swap2\n      pop\n      pop\n        /* \"contracts/lottery.sol\":2305:2484  for (uint i = 0; i < data.length; i++) {... */\n      jump(tag_79)\n    tag_80:\n      pop\n        /* \"contracts/lottery.sol\":2508:2511  str */\n      dup1\n        /* \"contracts/lottery.sol\":2494:2512  return string(str) */\n      swap3\n      pop\n      pop\n      pop\n        /* \"contracts/lottery.sol\":2061:2520  function toString(bytes memory data) public pure returns(string memory) {... */\n      swap2\n      swap1\n      pop\n      jump\t// out\n        /* \"contracts/lottery.sol\":803:989  function isAddressPlaying(address payable playerAddress) public view returns (bool) {... */\n    tag_37:\n        /* \"contracts/lottery.sol\":881:885  bool */\n      0x00\n        /* \"contracts/lottery.sol\":953:966  map_isPlaying */\n      dup1\n        /* \"contracts/lottery.sol\":953:981  map_isPlaying[playerAddress] */\n      0x00\n        /* \"contracts/lottery.sol\":967:980  playerAddress */\n      dup4\n        /* \"contracts/lottery.sol\":953:981  map_isPlaying[playerAddress] */\n      0xffffffffffffffffffffffffffffffffffffffff\n      and\n      0xffffffffffffffffffffffffffffffffffffffff\n      and\n      dup2\n      mstore\n      0x20\n      add\n      swap1\n      dup2\n      mstore\n      0x20\n      add\n      0x00\n      keccak256\n      0x00\n      swap1\n      sload\n      swap1\n      0x0100\n      exp\n      swap1\n      div\n      0xff\n      and\n        /* \"contracts/lottery.sol\":946:981  return map_isPlaying[playerAddress] */\n      swap1\n      pop\n        /* \"contracts/lottery.sol\":803:989  function isAddressPlaying(address payable playerAddress) public view returns (bool) {... */\n      swap2\n      swap1\n      pop\n      jump\t// out\n        /* \"contracts/lottery.sol\":321:791  function registerAddress(address payable playerAddress) public {... */\n    tag_42:\n        /* \"contracts/lottery.sol\":500:514  bool isPlaying */\n      0x00\n        /* \"contracts/lottery.sol\":517:530  map_isPlaying */\n      dup1\n        /* \"contracts/lottery.sol\":517:545  map_isPlaying[playerAddress] */\n      0x00\n        /* \"contracts/lottery.sol\":531:544  playerAddress */\n      dup4\n        /* \"contracts/lottery.sol\":517:545  map_isPlaying[playerAddress] */\n      0xffffffffffffffffffffffffffffffffffffffff\n      and\n      0xffffffffffffffffffffffffffffffffffffffff\n      and\n      dup2\n      mstore\n      0x20\n      add\n      swap1\n      dup2\n      mstore\n      0x20\n      add\n      0x00\n      keccak256\n      0x00\n      swap1\n      sload\n      swap1\n      0x0100\n      exp\n      swap1\n      div\n      0xff\n      and\n        /* \"contracts/lottery.sol\":500:545  bool isPlaying = map_isPlaying[playerAddress] */\n      swap1\n      pop\n        /* \"contracts/lottery.sol\":565:574  isPlaying */\n      dup1\n        /* \"contracts/lottery.sol\":564:574  !isPlaying */\n      iszero\n        /* \"contracts/lottery.sol\":556:624  require(!isPlaying, \"This address has already entered the lottery.\") */\n      tag_102\n      jumpi\n      mload(0x40)\n      0x08c379a000000000000000000000000000000000000000000000000000000000\n      dup2\n      mstore\n      0x04\n      add\n      tag_103\n      swap1\n      tag_104\n      jump\t// in\n    tag_103:\n      mload(0x40)\n      dup1\n      swap2\n      sub\n      swap1\n      revert\n    tag_102:\n        /* \"contracts/lottery.sol\":730:734  true */\n      0x01\n        /* \"contracts/lottery.sol\":699:712  map_isPlaying */\n      0x00\n        /* \"contracts/lottery.sol\":699:727  map_isPlaying[playerAddress] */\n      dup1\n        /* \"contracts/lottery.sol\":713:726  playerAddress */\n      dup5\n        /* \"contracts/lottery.sol\":699:727  map_isPlaying[playerAddress] */\n      0xffffffffffffffffffffffffffffffffffffffff\n      and\n      0xffffffffffffffffffffffffffffffffffffffff\n      and\n      dup2\n      mstore\n      0x20\n      add\n      swap1\n      dup2\n      mstore\n      0x20\n      add\n      0x00\n      keccak256\n      0x00\n        /* \"contracts/lottery.sol\":699:734  map_isPlaying[playerAddress] = true */\n      0x0100\n      exp\n      dup2\n      sload\n      dup2\n      0xff\n      mul\n      not\n      and\n      swap1\n      dup4\n      iszero\n      iszero\n      mul\n      or\n      swap1\n      sstore\n      pop\n        /* \"contracts/lottery.sol\":745:763  list_playerAddress */\n      0x01\n        /* \"contracts/lottery.sol\":769:782  playerAddress */\n      dup3\n        /* \"contracts/lottery.sol\":745:783  list_playerAddress.push(playerAddress) */\n      swap1\n      dup1\n      0x01\n      dup2\n      sload\n      add\n      dup1\n      dup3\n      sstore\n      dup1\n      swap2\n      pop\n      pop\n      0x01\n      swap1\n      sub\n      swap1\n      0x00\n      mstore\n      keccak256(0x00, 0x20)\n      add\n      0x00\n      swap1\n      swap2\n      swap1\n      swap2\n      swap1\n      swap2\n      0x0100\n      exp\n      dup2\n      sload\n      dup2\n      0xffffffffffffffffffffffffffffffffffffffff\n      mul\n      not\n      and\n      swap1\n      dup4\n      0xffffffffffffffffffffffffffffffffffffffff\n      and\n      mul\n      or\n      swap1\n      sstore\n      pop\n        /* \"contracts/lottery.sol\":384:791  {... */\n      pop\n        /* \"contracts/lottery.sol\":321:791  function registerAddress(address payable playerAddress) public {... */\n      pop\n      jump\t// out\n        /* \"contracts/lottery.sol\":1926:2053  function toString(bytes32 value) public pure returns(string memory) {... */\n    tag_46:\n        /* \"contracts/lottery.sol\":1979:1992  string memory */\n      0x60\n        /* \"contracts/lottery.sol\":2012:2045  toString(abi.encodePacked(value)) */\n      tag_107\n        /* \"contracts/lottery.sol\":2038:2043  value */\n      dup3\n        /* \"contracts/lottery.sol\":2021:2044  abi.encodePacked(value) */\n      add(0x20, mload(0x40))\n      tag_108\n      swap2\n      swap1\n      tag_109\n      jump\t// in\n    tag_108:\n      mload(0x40)\n      0x20\n      dup2\n      dup4\n      sub\n      sub\n      dup2\n      mstore\n      swap1\n      0x40\n      mstore\n        /* \"contracts/lottery.sol\":2012:2020  toString */\n      tag_32\n        /* \"contracts/lottery.sol\":2012:2045  toString(abi.encodePacked(value)) */\n      jump\t// in\n    tag_107:\n        /* \"contracts/lottery.sol\":2005:2045  return toString(abi.encodePacked(value)) */\n      swap1\n      pop\n        /* \"contracts/lottery.sol\":1926:2053  function toString(bytes32 value) public pure returns(string memory) {... */\n      swap2\n      swap1\n      pop\n      jump\t// out\n        /* \"contracts/lottery.sol\":217:262  mapping(address => bool) public map_isPlaying */\n    tag_50:\n      mstore(0x20, 0x00)\n      dup1\n      0x00\n      mstore\n      keccak256(0x00, 0x40)\n      0x00\n      swap2\n      pop\n      sload\n      swap1\n      0x0100\n      exp\n      swap1\n      div\n      0xff\n      and\n      dup2\n      jump\t// out\n        /* \"contracts/lottery.sol\":997:1632  function chooseWinner() public view returns (string memory) {... */\n    tag_53:\n        /* \"contracts/lottery.sol\":1042:1055  string memory */\n      0x60\n        /* \"contracts/lottery.sol\":1068:1083  string memory s */\n      0x00\n        /* \"contracts/lottery.sol\":1068:1090  string memory s = \"X:\" */\n      mload(0x40)\n      dup1\n      0x40\n      add\n      0x40\n      mstore\n      dup1\n      0x02\n      dup2\n      mstore\n      0x20\n      add\n      0x583a000000000000000000000000000000000000000000000000000000000000\n      dup2\n      mstore\n      pop\n      swap1\n      pop\n        /* \"contracts/lottery.sol\":1310:1321  uint winner */\n      0x00\n        /* \"contracts/lottery.sol\":1324:1325  1 */\n      0x01\n        /* \"contracts/lottery.sol\":1310:1325  uint winner = 1 */\n      swap1\n      pop\n        /* \"contracts/lottery.sol\":1336:1365  address payable winnerAddress */\n      0x00\n        /* \"contracts/lottery.sol\":1368:1386  list_playerAddress */\n      0x01\n        /* \"contracts/lottery.sol\":1387:1393  winner */\n      dup3\n        /* \"contracts/lottery.sol\":1368:1394  list_playerAddress[winner] */\n      dup2\n      sload\n      dup2\n      lt\n      tag_111\n      jumpi\n      tag_112\n      tag_76\n      jump\t// in\n    tag_112:\n    tag_111:\n      swap1\n      0x00\n      mstore\n      keccak256(0x00, 0x20)\n      add\n      0x00\n      swap1\n      sload\n      swap1\n      0x0100\n      exp\n      swap1\n      div\n      0xffffffffffffffffffffffffffffffffffffffff\n      and\n        /* \"contracts/lottery.sol\":1336:1394  address payable winnerAddress = list_playerAddress[winner] */\n      swap1\n      pop\n        /* \"contracts/lottery.sol\":1412:1435  toString(winnerAddress) */\n      tag_114\n        /* \"contracts/lottery.sol\":1421:1434  winnerAddress */\n      dup2\n        /* \"contracts/lottery.sol\":1412:1420  toString */\n      tag_22\n        /* \"contracts/lottery.sol\":1412:1435  toString(winnerAddress) */\n      jump\t// in\n    tag_114:\n        /* \"contracts/lottery.sol\":1405:1435  return toString(winnerAddress) */\n      swap4\n      pop\n      pop\n      pop\n      pop\n        /* \"contracts/lottery.sol\":997:1632  function chooseWinner() public view returns (string memory) {... */\n      swap1\n      jump\t// out\n        /* \"#utility.yul\":7:82   */\n    tag_115:\n        /* \"#utility.yul\":40:46   */\n      0x00\n        /* \"#utility.yul\":73:75   */\n      0x40\n        /* \"#utility.yul\":67:76   */\n      mload\n        /* \"#utility.yul\":57:76   */\n      swap1\n      pop\n        /* \"#utility.yul\":7:82   */\n      swap1\n      jump\t// out\n        /* \"#utility.yul\":88:205   */\n    tag_116:\n        /* \"#utility.yul\":197:198   */\n      0x00\n        /* \"#utility.yul\":194:195   */\n      dup1\n        /* \"#utility.yul\":187:199   */\n      revert\n        /* \"#utility.yul\":211:328   */\n    tag_117:\n        /* \"#utility.yul\":320:321   */\n      0x00\n        /* \"#utility.yul\":317:318   */\n      dup1\n        /* \"#utility.yul\":310:322   */\n      revert\n        /* \"#utility.yul\":334:411   */\n    tag_118:\n        /* \"#utility.yul\":371:378   */\n      0x00\n        /* \"#utility.yul\":400:405   */\n      dup2\n        /* \"#utility.yul\":389:405   */\n      swap1\n      pop\n        /* \"#utility.yul\":334:411   */\n      swap2\n      swap1\n      pop\n      jump\t// out\n        /* \"#utility.yul\":417:539   */\n    tag_119:\n        /* \"#utility.yul\":490:514   */\n      tag_164\n        /* \"#utility.yul\":508:513   */\n      dup2\n        /* \"#utility.yul\":490:514   */\n      tag_118\n      jump\t// in\n    tag_164:\n        /* \"#utility.yul\":483:488   */\n      dup2\n        /* \"#utility.yul\":480:515   */\n      eq\n        /* \"#utility.yul\":470:533   */\n      tag_165\n      jumpi\n        /* \"#utility.yul\":529:530   */\n      0x00\n        /* \"#utility.yul\":526:527   */\n      dup1\n        /* \"#utility.yul\":519:531   */\n      revert\n        /* \"#utility.yul\":470:533   */\n    tag_165:\n        /* \"#utility.yul\":417:539   */\n      pop\n      jump\t// out\n        /* \"#utility.yul\":545:684   */\n    tag_120:\n        /* \"#utility.yul\":591:596   */\n      0x00\n        /* \"#utility.yul\":629:635   */\n      dup2\n        /* \"#utility.yul\":616:636   */\n      calldataload\n        /* \"#utility.yul\":607:636   */\n      swap1\n      pop\n        /* \"#utility.yul\":645:678   */\n      tag_167\n        /* \"#utility.yul\":672:677   */\n      dup2\n        /* \"#utility.yul\":645:678   */\n      tag_119\n      jump\t// in\n    tag_167:\n        /* \"#utility.yul\":545:684   */\n      swap3\n      swap2\n      pop\n      pop\n      jump\t// out\n        /* \"#utility.yul\":690:1019   */\n    tag_15:\n        /* \"#utility.yul\":749:755   */\n      0x00\n        /* \"#utility.yul\":798:800   */\n      0x20\n        /* \"#utility.yul\":786:795   */\n      dup3\n        /* \"#utility.yul\":777:784   */\n      dup5\n        /* \"#utility.yul\":773:796   */\n      sub\n        /* \"#utility.yul\":769:801   */\n      slt\n        /* \"#utility.yul\":766:885   */\n      iszero\n      tag_169\n      jumpi\n        /* \"#utility.yul\":804:883   */\n      tag_170\n      tag_116\n      jump\t// in\n    tag_170:\n        /* \"#utility.yul\":766:885   */\n    tag_169:\n        /* \"#utility.yul\":924:925   */\n      0x00\n        /* \"#utility.yul\":949:1002   */\n      tag_171\n        /* \"#utility.yul\":994:1001   */\n      dup5\n        /* \"#utility.yul\":985:991   */\n      dup3\n        /* \"#utility.yul\":974:983   */\n      dup6\n        /* \"#utility.yul\":970:992   */\n      add\n        /* \"#utility.yul\":949:1002   */\n      tag_120\n      jump\t// in\n    tag_171:\n        /* \"#utility.yul\":939:1002   */\n      swap2\n      pop\n        /* \"#utility.yul\":895:1012   */\n      pop\n        /* \"#utility.yul\":690:1019   */\n      swap3\n      swap2\n      pop\n      pop\n      jump\t// out\n        /* \"#utility.yul\":1025:1151   */\n    tag_121:\n        /* \"#utility.yul\":1062:1069   */\n      0x00\n        /* \"#utility.yul\":1102:1144   */\n      0xffffffffffffffffffffffffffffffffffffffff\n        /* \"#utility.yul\":1095:1100   */\n      dup3\n        /* \"#utility.yul\":1091:1145   */\n      and\n        /* \"#utility.yul\":1080:1145   */\n      swap1\n      pop\n        /* \"#utility.yul\":1025:1151   */\n      swap2\n      swap1\n      pop\n      jump\t// out\n        /* \"#utility.yul\":1157:1261   */\n    tag_122:\n        /* \"#utility.yul\":1202:1209   */\n      0x00\n        /* \"#utility.yul\":1231:1255   */\n      tag_174\n        /* \"#utility.yul\":1249:1254   */\n      dup3\n        /* \"#utility.yul\":1231:1255   */\n      tag_121\n      jump\t// in\n    tag_174:\n        /* \"#utility.yul\":1220:1255   */\n      swap1\n      pop\n        /* \"#utility.yul\":1157:1261   */\n      swap2\n      swap1\n      pop\n      jump\t// out\n        /* \"#utility.yul\":1267:1409   */\n    tag_123:\n        /* \"#utility.yul\":1370:1402   */\n      tag_176\n        /* \"#utility.yul\":1396:1401   */\n      dup2\n        /* \"#utility.yul\":1370:1402   */\n      tag_122\n      jump\t// in\n    tag_176:\n        /* \"#utility.yul\":1365:1368   */\n      dup3\n        /* \"#utility.yul\":1358:1403   */\n      mstore\n        /* \"#utility.yul\":1267:1409   */\n      pop\n      pop\n      jump\t// out\n        /* \"#utility.yul\":1415:1669   */\n    tag_18:\n        /* \"#utility.yul\":1524:1528   */\n      0x00\n        /* \"#utility.yul\":1562:1564   */\n      0x20\n        /* \"#utility.yul\":1551:1560   */\n      dup3\n        /* \"#utility.yul\":1547:1565   */\n      add\n        /* \"#utility.yul\":1539:1565   */\n      swap1\n      pop\n        /* \"#utility.yul\":1575:1662   */\n      tag_178\n        /* \"#utility.yul\":1659:1660   */\n      0x00\n        /* \"#utility.yul\":1648:1657   */\n      dup4\n        /* \"#utility.yul\":1644:1661   */\n      add\n        /* \"#utility.yul\":1635:1641   */\n      dup5\n        /* \"#utility.yul\":1575:1662   */\n      tag_123\n      jump\t// in\n    tag_178:\n        /* \"#utility.yul\":1415:1669   */\n      swap3\n      swap2\n      pop\n      pop\n      jump\t// out\n        /* \"#utility.yul\":1675:1771   */\n    tag_124:\n        /* \"#utility.yul\":1712:1719   */\n      0x00\n        /* \"#utility.yul\":1741:1765   */\n      tag_180\n        /* \"#utility.yul\":1759:1764   */\n      dup3\n        /* \"#utility.yul\":1741:1765   */\n      tag_121\n      jump\t// in\n    tag_180:\n        /* \"#utility.yul\":1730:1765   */\n      swap1\n      pop\n        /* \"#utility.yul\":1675:1771   */\n      swap2\n      swap1\n      pop\n      jump\t// out\n        /* \"#utility.yul\":1777:1899   */\n    tag_125:\n        /* \"#utility.yul\":1850:1874   */\n      tag_182\n        /* \"#utility.yul\":1868:1873   */\n      dup2\n        /* \"#utility.yul\":1850:1874   */\n      tag_124\n      jump\t// in\n    tag_182:\n        /* \"#utility.yul\":1843:1848   */\n      dup2\n        /* \"#utility.yul\":1840:1875   */\n      eq\n        /* \"#utility.yul\":1830:1893   */\n      tag_183\n      jumpi\n        /* \"#utility.yul\":1889:1890   */\n      0x00\n        /* \"#utility.yul\":1886:1887   */\n      dup1\n        /* \"#utility.yul\":1879:1891   */\n      revert\n        /* \"#utility.yul\":1830:1893   */\n    tag_183:\n        /* \"#utility.yul\":1777:1899   */\n      pop\n      jump\t// out\n        /* \"#utility.yul\":1905:2044   */\n    tag_126:\n        /* \"#utility.yul\":1951:1956   */\n      0x00\n        /* \"#utility.yul\":1989:1995   */\n      dup2\n        /* \"#utility.yul\":1976:1996   */\n      calldataload\n        /* \"#utility.yul\":1967:1996   */\n      swap1\n      pop\n        /* \"#utility.yul\":2005:2038   */\n      tag_185\n        /* \"#utility.yul\":2032:2037   */\n      dup2\n        /* \"#utility.yul\":2005:2038   */\n      tag_125\n      jump\t// in\n    tag_185:\n        /* \"#utility.yul\":1905:2044   */\n      swap3\n      swap2\n      pop\n      pop\n      jump\t// out\n        /* \"#utility.yul\":2050:2379   */\n    tag_21:\n        /* \"#utility.yul\":2109:2115   */\n      0x00\n        /* \"#utility.yul\":2158:2160   */\n      0x20\n        /* \"#utility.yul\":2146:2155   */\n      dup3\n        /* \"#utility.yul\":2137:2144   */\n      dup5\n        /* \"#utility.yul\":2133:2156   */\n      sub\n        /* \"#utility.yul\":2129:2161   */\n      slt\n        /* \"#utility.yul\":2126:2245   */\n      iszero\n      tag_187\n      jumpi\n        /* \"#utility.yul\":2164:2243   */\n      tag_188\n      tag_116\n      jump\t// in\n    tag_188:\n        /* \"#utility.yul\":2126:2245   */\n    tag_187:\n        /* \"#utility.yul\":2284:2285   */\n      0x00\n        /* \"#utility.yul\":2309:2362   */\n      tag_189\n        /* \"#utility.yul\":2354:2361   */\n      dup5\n        /* \"#utility.yul\":2345:2351   */\n      dup3\n        /* \"#utility.yul\":2334:2343   */\n      dup6\n        /* \"#utility.yul\":2330:2352   */\n      add\n        /* \"#utility.yul\":2309:2362   */\n      tag_126\n      jump\t// in\n    tag_189:\n        /* \"#utility.yul\":2299:2362   */\n      swap2\n      pop\n        /* \"#utility.yul\":2255:2372   */\n      pop\n        /* \"#utility.yul\":2050:2379   */\n      swap3\n      swap2\n      pop\n      pop\n      jump\t// out\n        /* \"#utility.yul\":2385:2484   */\n    tag_127:\n        /* \"#utility.yul\":2437:2443   */\n      0x00\n        /* \"#utility.yul\":2471:2476   */\n      dup2\n        /* \"#utility.yul\":2465:2477   */\n      mload\n        /* \"#utility.yul\":2455:2477   */\n      swap1\n      pop\n        /* \"#utility.yul\":2385:2484   */\n      swap2\n      swap1\n      pop\n      jump\t// out\n        /* \"#utility.yul\":2490:2659   */\n    tag_128:\n        /* \"#utility.yul\":2574:2585   */\n      0x00\n        /* \"#utility.yul\":2608:2614   */\n      dup3\n        /* \"#utility.yul\":2603:2606   */\n      dup3\n        /* \"#utility.yul\":2596:2615   */\n      mstore\n        /* \"#utility.yul\":2648:2652   */\n      0x20\n        /* \"#utility.yul\":2643:2646   */\n      dup3\n        /* \"#utility.yul\":2639:2653   */\n      add\n        /* \"#utility.yul\":2624:2653   */\n      swap1\n      pop\n        /* \"#utility.yul\":2490:2659   */\n      swap3\n      swap2\n      pop\n      pop\n      jump\t// out\n        /* \"#utility.yul\":2665:2911   */\n    tag_129:\n        /* \"#utility.yul\":2746:2747   */\n      0x00\n        /* \"#utility.yul\":2756:2869   */\n    tag_193:\n        /* \"#utility.yul\":2770:2776   */\n      dup4\n        /* \"#utility.yul\":2767:2768   */\n      dup2\n        /* \"#utility.yul\":2764:2777   */\n      lt\n        /* \"#utility.yul\":2756:2869   */\n      iszero\n      tag_195\n      jumpi\n        /* \"#utility.yul\":2855:2856   */\n      dup1\n        /* \"#utility.yul\":2850:2853   */\n      dup3\n        /* \"#utility.yul\":2846:2857   */\n      add\n        /* \"#utility.yul\":2840:2858   */\n      mload\n        /* \"#utility.yul\":2836:2837   */\n      dup2\n        /* \"#utility.yul\":2831:2834   */\n      dup5\n        /* \"#utility.yul\":2827:2838   */\n      add\n        /* \"#utility.yul\":2820:2859   */\n      mstore\n        /* \"#utility.yul\":2792:2794   */\n      0x20\n        /* \"#utility.yul\":2789:2790   */\n      dup2\n        /* \"#utility.yul\":2785:2795   */\n      add\n        /* \"#utility.yul\":2780:2795   */\n      swap1\n      pop\n        /* \"#utility.yul\":2756:2869   */\n      jump(tag_193)\n    tag_195:\n        /* \"#utility.yul\":2903:2904   */\n      0x00\n        /* \"#utility.yul\":2894:2900   */\n      dup5\n        /* \"#utility.yul\":2889:2892   */\n      dup5\n        /* \"#utility.yul\":2885:2901   */\n      add\n        /* \"#utility.yul\":2878:2905   */\n      mstore\n        /* \"#utility.yul\":2727:2911   */\n      pop\n        /* \"#utility.yul\":2665:2911   */\n      pop\n      pop\n      pop\n      jump\t// out\n        /* \"#utility.yul\":2917:3019   */\n    tag_130:\n        /* \"#utility.yul\":2958:2964   */\n      0x00\n        /* \"#utility.yul\":3009:3011   */\n      0x1f\n        /* \"#utility.yul\":3005:3012   */\n      not\n        /* \"#utility.yul\":3000:3002   */\n      0x1f\n        /* \"#utility.yul\":2993:2998   */\n      dup4\n        /* \"#utility.yul\":2989:3003   */\n      add\n        /* \"#utility.yul\":2985:3013   */\n      and\n        /* \"#utility.yul\":2975:3013   */\n      swap1\n      pop\n        /* \"#utility.yul\":2917:3019   */\n      swap2\n      swap1\n      pop\n      jump\t// out\n        /* \"#utility.yul\":3025:3402   */\n    tag_131:\n        /* \"#utility.yul\":3113:3116   */\n      0x00\n        /* \"#utility.yul\":3141:3180   */\n      tag_198\n        /* \"#utility.yul\":3174:3179   */\n      dup3\n        /* \"#utility.yul\":3141:3180   */\n      tag_127\n      jump\t// in\n    tag_198:\n        /* \"#utility.yul\":3196:3267   */\n      tag_199\n        /* \"#utility.yul\":3260:3266   */\n      dup2\n        /* \"#utility.yul\":3255:3258   */\n      dup6\n        /* \"#utility.yul\":3196:3267   */\n      tag_128\n      jump\t// in\n    tag_199:\n        /* \"#utility.yul\":3189:3267   */\n      swap4\n      pop\n        /* \"#utility.yul\":3276:3341   */\n      tag_200\n        /* \"#utility.yul\":3334:3340   */\n      dup2\n        /* \"#utility.yul\":3329:3332   */\n      dup6\n        /* \"#utility.yul\":3322:3326   */\n      0x20\n        /* \"#utility.yul\":3315:3320   */\n      dup7\n        /* \"#utility.yul\":3311:3327   */\n      add\n        /* \"#utility.yul\":3276:3341   */\n      tag_129\n      jump\t// in\n    tag_200:\n        /* \"#utility.yul\":3366:3395   */\n      tag_201\n        /* \"#utility.yul\":3388:3394   */\n      dup2\n        /* \"#utility.yul\":3366:3395   */\n      tag_130\n      jump\t// in\n    tag_201:\n        /* \"#utility.yul\":3361:3364   */\n      dup5\n        /* \"#utility.yul\":3357:3396   */\n      add\n        /* \"#utility.yul\":3350:3396   */\n      swap2\n      pop\n        /* \"#utility.yul\":3117:3402   */\n      pop\n        /* \"#utility.yul\":3025:3402   */\n      swap3\n      swap2\n      pop\n      pop\n      jump\t// out\n        /* \"#utility.yul\":3408:3721   */\n    tag_24:\n        /* \"#utility.yul\":3521:3525   */\n      0x00\n        /* \"#utility.yul\":3559:3561   */\n      0x20\n        /* \"#utility.yul\":3548:3557   */\n      dup3\n        /* \"#utility.yul\":3544:3562   */\n      add\n        /* \"#utility.yul\":3536:3562   */\n      swap1\n      pop\n        /* \"#utility.yul\":3608:3617   */\n      dup2\n        /* \"#utility.yul\":3602:3606   */\n      dup2\n        /* \"#utility.yul\":3598:3618   */\n      sub\n        /* \"#utility.yul\":3594:3595   */\n      0x00\n        /* \"#utility.yul\":3583:3592   */\n      dup4\n        /* \"#utility.yul\":3579:3596   */\n      add\n        /* \"#utility.yul\":3572:3619   */\n      mstore\n        /* \"#utility.yul\":3636:3714   */\n      tag_203\n        /* \"#utility.yul\":3709:3713   */\n      dup2\n        /* \"#utility.yul\":3700:3706   */\n      dup5\n        /* \"#utility.yul\":3636:3714   */\n      tag_131\n      jump\t// in\n    tag_203:\n        /* \"#utility.yul\":3628:3714   */\n      swap1\n      pop\n        /* \"#utility.yul\":3408:3721   */\n      swap3\n      swap2\n      pop\n      pop\n      jump\t// out\n        /* \"#utility.yul\":3727:3844   */\n    tag_132:\n        /* \"#utility.yul\":3836:3837   */\n      0x00\n        /* \"#utility.yul\":3833:3834   */\n      dup1\n        /* \"#utility.yul\":3826:3838   */\n      revert\n        /* \"#utility.yul\":3850:3967   */\n    tag_133:\n        /* \"#utility.yul\":3959:3960   */\n      0x00\n        /* \"#utility.yul\":3956:3957   */\n      dup1\n        /* \"#utility.yul\":3949:3961   */\n      revert\n        /* \"#utility.yul\":3973:4153   */\n    tag_72:\n        /* \"#utility.yul\":4021:4098   */\n      0x4e487b7100000000000000000000000000000000000000000000000000000000\n        /* \"#utility.yul\":4018:4019   */\n      0x00\n        /* \"#utility.yul\":4011:4099   */\n      mstore\n        /* \"#utility.yul\":4118:4122   */\n      0x41\n        /* \"#utility.yul\":4115:4116   */\n      0x04\n        /* \"#utility.yul\":4108:4123   */\n      mstore\n        /* \"#utility.yul\":4142:4146   */\n      0x24\n        /* \"#utility.yul\":4139:4140   */\n      0x00\n        /* \"#utility.yul\":4132:4147   */\n      revert\n        /* \"#utility.yul\":4159:4440   */\n    tag_134:\n        /* \"#utility.yul\":4242:4269   */\n      tag_208\n        /* \"#utility.yul\":4264:4268   */\n      dup3\n        /* \"#utility.yul\":4242:4269   */\n      tag_130\n      jump\t// in\n    tag_208:\n        /* \"#utility.yul\":4234:4240   */\n      dup2\n        /* \"#utility.yul\":4230:4270   */\n      add\n        /* \"#utility.yul\":4372:4378   */\n      dup2\n        /* \"#utility.yul\":4360:4370   */\n      dup2\n        /* \"#utility.yul\":4357:4379   */\n      lt\n        /* \"#utility.yul\":4336:4354   */\n      0xffffffffffffffff\n        /* \"#utility.yul\":4324:4334   */\n      dup3\n        /* \"#utility.yul\":4321:4355   */\n      gt\n        /* \"#utility.yul\":4318:4380   */\n      or\n        /* \"#utility.yul\":4315:4403   */\n      iszero\n      tag_209\n      jumpi\n        /* \"#utility.yul\":4383:4401   */\n      tag_210\n      tag_72\n      jump\t// in\n    tag_210:\n        /* \"#utility.yul\":4315:4403   */\n    tag_209:\n        /* \"#utility.yul\":4423:4433   */\n      dup1\n        /* \"#utility.yul\":4419:4421   */\n      0x40\n        /* \"#utility.yul\":4412:4434   */\n      mstore\n        /* \"#utility.yul\":4202:4440   */\n      pop\n        /* \"#utility.yul\":4159:4440   */\n      pop\n      pop\n      jump\t// out\n        /* \"#utility.yul\":4446:4575   */\n    tag_135:\n        /* \"#utility.yul\":4480:4486   */\n      0x00\n        /* \"#utility.yul\":4507:4527   */\n      tag_212\n      tag_115\n      jump\t// in\n    tag_212:\n        /* \"#utility.yul\":4497:4527   */\n      swap1\n      pop\n        /* \"#utility.yul\":4536:4569   */\n      tag_213\n        /* \"#utility.yul\":4564:4568   */\n      dup3\n        /* \"#utility.yul\":4556:4562   */\n      dup3\n        /* \"#utility.yul\":4536:4569   */\n      tag_134\n      jump\t// in\n    tag_213:\n        /* \"#utility.yul\":4446:4575   */\n      swap2\n      swap1\n      pop\n      jump\t// out\n        /* \"#utility.yul\":4581:4888   */\n    tag_136:\n        /* \"#utility.yul\":4642:4646   */\n      0x00\n        /* \"#utility.yul\":4732:4750   */\n      0xffffffffffffffff\n        /* \"#utility.yul\":4724:4730   */\n      dup3\n        /* \"#utility.yul\":4721:4751   */\n      gt\n        /* \"#utility.yul\":4718:4774   */\n      iszero\n      tag_215\n      jumpi\n        /* \"#utility.yul\":4754:4772   */\n      tag_216\n      tag_72\n      jump\t// in\n    tag_216:\n        /* \"#utility.yul\":4718:4774   */\n    tag_215:\n        /* \"#utility.yul\":4792:4821   */\n      tag_217\n        /* \"#utility.yul\":4814:4820   */\n      dup3\n        /* \"#utility.yul\":4792:4821   */\n      tag_130\n      jump\t// in\n    tag_217:\n        /* \"#utility.yul\":4784:4821   */\n      swap1\n      pop\n        /* \"#utility.yul\":4876:4880   */\n      0x20\n        /* \"#utility.yul\":4870:4874   */\n      dup2\n        /* \"#utility.yul\":4866:4881   */\n      add\n        /* \"#utility.yul\":4858:4881   */\n      swap1\n      pop\n        /* \"#utility.yul\":4581:4888   */\n      swap2\n      swap1\n      pop\n      jump\t// out\n        /* \"#utility.yul\":4894:5040   */\n    tag_137:\n        /* \"#utility.yul\":4991:4997   */\n      dup3\n        /* \"#utility.yul\":4986:4989   */\n      dup2\n        /* \"#utility.yul\":4981:4984   */\n      dup4\n        /* \"#utility.yul\":4968:4998   */\n      calldatacopy\n        /* \"#utility.yul\":5032:5033   */\n      0x00\n        /* \"#utility.yul\":5023:5029   */\n      dup4\n        /* \"#utility.yul\":5018:5021   */\n      dup4\n        /* \"#utility.yul\":5014:5030   */\n      add\n        /* \"#utility.yul\":5007:5034   */\n      mstore\n        /* \"#utility.yul\":4894:5040   */\n      pop\n      pop\n      pop\n      jump\t// out\n        /* \"#utility.yul\":5046:5469   */\n    tag_138:\n        /* \"#utility.yul\":5123:5128   */\n      0x00\n        /* \"#utility.yul\":5148:5213   */\n      tag_220\n        /* \"#utility.yul\":5164:5212   */\n      tag_221\n        /* \"#utility.yul\":5205:5211   */\n      dup5\n        /* \"#utility.yul\":5164:5212   */\n      tag_136\n      jump\t// in\n    tag_221:\n        /* \"#utility.yul\":5148:5213   */\n      tag_135\n      jump\t// in\n    tag_220:\n        /* \"#utility.yul\":5139:5213   */\n      swap1\n      pop\n        /* \"#utility.yul\":5236:5242   */\n      dup3\n        /* \"#utility.yul\":5229:5234   */\n      dup2\n        /* \"#utility.yul\":5222:5243   */\n      mstore\n        /* \"#utility.yul\":5274:5278   */\n      0x20\n        /* \"#utility.yul\":5267:5272   */\n      dup2\n        /* \"#utility.yul\":5263:5279   */\n      add\n        /* \"#utility.yul\":5312:5315   */\n      dup5\n        /* \"#utility.yul\":5303:5309   */\n      dup5\n        /* \"#utility.yul\":5298:5301   */\n      dup5\n        /* \"#utility.yul\":5294:5310   */\n      add\n        /* \"#utility.yul\":5291:5316   */\n      gt\n        /* \"#utility.yul\":5288:5400   */\n      iszero\n      tag_222\n      jumpi\n        /* \"#utility.yul\":5319:5398   */\n      tag_223\n      tag_133\n      jump\t// in\n    tag_223:\n        /* \"#utility.yul\":5288:5400   */\n    tag_222:\n        /* \"#utility.yul\":5409:5463   */\n      tag_224\n        /* \"#utility.yul\":5456:5462   */\n      dup5\n        /* \"#utility.yul\":5451:5454   */\n      dup3\n        /* \"#utility.yul\":5446:5449   */\n      dup6\n        /* \"#utility.yul\":5409:5463   */\n      tag_137\n      jump\t// in\n    tag_224:\n        /* \"#utility.yul\":5129:5469   */\n      pop\n        /* \"#utility.yul\":5046:5469   */\n      swap4\n      swap3\n      pop\n      pop\n      pop\n      jump\t// out\n        /* \"#utility.yul\":5488:5826   */\n    tag_139:\n        /* \"#utility.yul\":5543:5548   */\n      0x00\n        /* \"#utility.yul\":5592:5595   */\n      dup3\n        /* \"#utility.yul\":5585:5589   */\n      0x1f\n        /* \"#utility.yul\":5577:5583   */\n      dup4\n        /* \"#utility.yul\":5573:5590   */\n      add\n        /* \"#utility.yul\":5569:5596   */\n      slt\n        /* \"#utility.yul\":5559:5681   */\n      tag_226\n      jumpi\n        /* \"#utility.yul\":5600:5679   */\n      tag_227\n      tag_132\n      jump\t// in\n    tag_227:\n        /* \"#utility.yul\":5559:5681   */\n    tag_226:\n        /* \"#utility.yul\":5717:5723   */\n      dup2\n        /* \"#utility.yul\":5704:5724   */\n      calldataload\n        /* \"#utility.yul\":5742:5820   */\n      tag_228\n        /* \"#utility.yul\":5816:5819   */\n      dup5\n        /* \"#utility.yul\":5808:5814   */\n      dup3\n        /* \"#utility.yul\":5801:5805   */\n      0x20\n        /* \"#utility.yul\":5793:5799   */\n      dup7\n        /* \"#utility.yul\":5789:5806   */\n      add\n        /* \"#utility.yul\":5742:5820   */\n      tag_138\n      jump\t// in\n    tag_228:\n        /* \"#utility.yul\":5733:5820   */\n      swap2\n      pop\n        /* \"#utility.yul\":5549:5826   */\n      pop\n        /* \"#utility.yul\":5488:5826   */\n      swap3\n      swap2\n      pop\n      pop\n      jump\t// out\n        /* \"#utility.yul\":5832:6339   */\n    tag_31:\n        /* \"#utility.yul\":5900:5906   */\n      0x00\n        /* \"#utility.yul\":5949:5951   */\n      0x20\n        /* \"#utility.yul\":5937:5946   */\n      dup3\n        /* \"#utility.yul\":5928:5935   */\n      dup5\n        /* \"#utility.yul\":5924:5947   */\n      sub\n        /* \"#utility.yul\":5920:5952   */\n      slt\n        /* \"#utility.yul\":5917:6036   */\n      iszero\n      tag_230\n      jumpi\n        /* \"#utility.yul\":5955:6034   */\n      tag_231\n      tag_116\n      jump\t// in\n    tag_231:\n        /* \"#utility.yul\":5917:6036   */\n    tag_230:\n        /* \"#utility.yul\":6103:6104   */\n      0x00\n        /* \"#utility.yul\":6092:6101   */\n      dup3\n        /* \"#utility.yul\":6088:6105   */\n      add\n        /* \"#utility.yul\":6075:6106   */\n      calldataload\n        /* \"#utility.yul\":6133:6151   */\n      0xffffffffffffffff\n        /* \"#utility.yul\":6125:6131   */\n      dup2\n        /* \"#utility.yul\":6122:6152   */\n      gt\n        /* \"#utility.yul\":6119:6236   */\n      iszero\n      tag_232\n      jumpi\n        /* \"#utility.yul\":6155:6234   */\n      tag_233\n      tag_117\n      jump\t// in\n    tag_233:\n        /* \"#utility.yul\":6119:6236   */\n    tag_232:\n        /* \"#utility.yul\":6260:6322   */\n      tag_234\n        /* \"#utility.yul\":6314:6321   */\n      dup5\n        /* \"#utility.yul\":6305:6311   */\n      dup3\n        /* \"#utility.yul\":6294:6303   */\n      dup6\n        /* \"#utility.yul\":6290:6312   */\n      add\n        /* \"#utility.yul\":6260:6322   */\n      tag_139\n      jump\t// in\n    tag_234:\n        /* \"#utility.yul\":6250:6322   */\n      swap2\n      pop\n        /* \"#utility.yul\":6046:6332   */\n      pop\n        /* \"#utility.yul\":5832:6339   */\n      swap3\n      swap2\n      pop\n      pop\n      jump\t// out\n        /* \"#utility.yul\":6345:6483   */\n    tag_140:\n        /* \"#utility.yul\":6426:6458   */\n      tag_236\n        /* \"#utility.yul\":6452:6457   */\n      dup2\n        /* \"#utility.yul\":6426:6458   */\n      tag_122\n      jump\t// in\n    tag_236:\n        /* \"#utility.yul\":6419:6424   */\n      dup2\n        /* \"#utility.yul\":6416:6459   */\n      eq\n        /* \"#utility.yul\":6406:6477   */\n      tag_237\n      jumpi\n        /* \"#utility.yul\":6473:6474   */\n      0x00\n        /* \"#utility.yul\":6470:6471   */\n      dup1\n        /* \"#utility.yul\":6463:6475   */\n      revert\n        /* \"#utility.yul\":6406:6477   */\n    tag_237:\n        /* \"#utility.yul\":6345:6483   */\n      pop\n      jump\t// out\n        /* \"#utility.yul\":6489:6644   */\n    tag_141:\n        /* \"#utility.yul\":6543:6548   */\n      0x00\n        /* \"#utility.yul\":6581:6587   */\n      dup2\n        /* \"#utility.yul\":6568:6588   */\n      calldataload\n        /* \"#utility.yul\":6559:6588   */\n      swap1\n      pop\n        /* \"#utility.yul\":6597:6638   */\n      tag_239\n        /* \"#utility.yul\":6632:6637   */\n      dup2\n        /* \"#utility.yul\":6597:6638   */\n      tag_140\n      jump\t// in\n    tag_239:\n        /* \"#utility.yul\":6489:6644   */\n      swap3\n      swap2\n      pop\n      pop\n      jump\t// out\n        /* \"#utility.yul\":6650:6995   */\n    tag_36:\n        /* \"#utility.yul\":6717:6723   */\n      0x00\n        /* \"#utility.yul\":6766:6768   */\n      0x20\n        /* \"#utility.yul\":6754:6763   */\n      dup3\n        /* \"#utility.yul\":6745:6752   */\n      dup5\n        /* \"#utility.yul\":6741:6764   */\n      sub\n        /* \"#utility.yul\":6737:6769   */\n      slt\n        /* \"#utility.yul\":6734:6853   */\n      iszero\n      tag_241\n      jumpi\n        /* \"#utility.yul\":6772:6851   */\n      tag_242\n      tag_116\n      jump\t// in\n    tag_242:\n        /* \"#utility.yul\":6734:6853   */\n    tag_241:\n        /* \"#utility.yul\":6892:6893   */\n      0x00\n        /* \"#utility.yul\":6917:6978   */\n      tag_243\n        /* \"#utility.yul\":6970:6977   */\n      dup5\n        /* \"#utility.yul\":6961:6967   */\n      dup3\n        /* \"#utility.yul\":6950:6959   */\n      dup6\n        /* \"#utility.yul\":6946:6968   */\n      add\n        /* \"#utility.yul\":6917:6978   */\n      tag_141\n      jump\t// in\n    tag_243:\n        /* \"#utility.yul\":6907:6978   */\n      swap2\n      pop\n        /* \"#utility.yul\":6863:6988   */\n      pop\n        /* \"#utility.yul\":6650:6995   */\n      swap3\n      swap2\n      pop\n      pop\n      jump\t// out\n        /* \"#utility.yul\":7001:7091   */\n    tag_142:\n        /* \"#utility.yul\":7035:7042   */\n      0x00\n        /* \"#utility.yul\":7078:7083   */\n      dup2\n        /* \"#utility.yul\":7071:7084   */\n      iszero\n        /* \"#utility.yul\":7064:7085   */\n      iszero\n        /* \"#utility.yul\":7053:7085   */\n      swap1\n      pop\n        /* \"#utility.yul\":7001:7091   */\n      swap2\n      swap1\n      pop\n      jump\t// out\n        /* \"#utility.yul\":7097:7206   */\n    tag_143:\n        /* \"#utility.yul\":7178:7199   */\n      tag_246\n        /* \"#utility.yul\":7193:7198   */\n      dup2\n        /* \"#utility.yul\":7178:7199   */\n      tag_142\n      jump\t// in\n    tag_246:\n        /* \"#utility.yul\":7173:7176   */\n      dup3\n        /* \"#utility.yul\":7166:7200   */\n      mstore\n        /* \"#utility.yul\":7097:7206   */\n      pop\n      pop\n      jump\t// out\n        /* \"#utility.yul\":7212:7422   */\n    tag_39:\n        /* \"#utility.yul\":7299:7303   */\n      0x00\n        /* \"#utility.yul\":7337:7339   */\n      0x20\n        /* \"#utility.yul\":7326:7335   */\n      dup3\n        /* \"#utility.yul\":7322:7340   */\n      add\n        /* \"#utility.yul\":7314:7340   */\n      swap1\n      pop\n        /* \"#utility.yul\":7350:7415   */\n      tag_248\n        /* \"#utility.yul\":7412:7413   */\n      0x00\n        /* \"#utility.yul\":7401:7410   */\n      dup4\n        /* \"#utility.yul\":7397:7414   */\n      add\n        /* \"#utility.yul\":7388:7394   */\n      dup5\n        /* \"#utility.yul\":7350:7415   */\n      tag_143\n      jump\t// in\n    tag_248:\n        /* \"#utility.yul\":7212:7422   */\n      swap3\n      swap2\n      pop\n      pop\n      jump\t// out\n        /* \"#utility.yul\":7428:7505   */\n    tag_144:\n        /* \"#utility.yul\":7465:7472   */\n      0x00\n        /* \"#utility.yul\":7494:7499   */\n      dup2\n        /* \"#utility.yul\":7483:7499   */\n      swap1\n      pop\n        /* \"#utility.yul\":7428:7505   */\n      swap2\n      swap1\n      pop\n      jump\t// out\n        /* \"#utility.yul\":7511:7633   */\n    tag_145:\n        /* \"#utility.yul\":7584:7608   */\n      tag_251\n        /* \"#utility.yul\":7602:7607   */\n      dup2\n        /* \"#utility.yul\":7584:7608   */\n      tag_144\n      jump\t// in\n    tag_251:\n        /* \"#utility.yul\":7577:7582   */\n      dup2\n        /* \"#utility.yul\":7574:7609   */\n      eq\n        /* \"#utility.yul\":7564:7627   */\n      tag_252\n      jumpi\n        /* \"#utility.yul\":7623:7624   */\n      0x00\n        /* \"#utility.yul\":7620:7621   */\n      dup1\n        /* \"#utility.yul\":7613:7625   */\n      revert\n        /* \"#utility.yul\":7564:7627   */\n    tag_252:\n        /* \"#utility.yul\":7511:7633   */\n      pop\n      jump\t// out\n        /* \"#utility.yul\":7639:7778   */\n    tag_146:\n        /* \"#utility.yul\":7685:7690   */\n      0x00\n        /* \"#utility.yul\":7723:7729   */\n      dup2\n        /* \"#utility.yul\":7710:7730   */\n      calldataload\n        /* \"#utility.yul\":7701:7730   */\n      swap1\n      pop\n        /* \"#utility.yul\":7739:7772   */\n      tag_254\n        /* \"#utility.yul\":7766:7771   */\n      dup2\n        /* \"#utility.yul\":7739:7772   */\n      tag_145\n      jump\t// in\n    tag_254:\n        /* \"#utility.yul\":7639:7778   */\n      swap3\n      swap2\n      pop\n      pop\n      jump\t// out\n        /* \"#utility.yul\":7784:8113   */\n    tag_45:\n        /* \"#utility.yul\":7843:7849   */\n      0x00\n        /* \"#utility.yul\":7892:7894   */\n      0x20\n        /* \"#utility.yul\":7880:7889   */\n      dup3\n        /* \"#utility.yul\":7871:7878   */\n      dup5\n        /* \"#utility.yul\":7867:7890   */\n      sub\n        /* \"#utility.yul\":7863:7895   */\n      slt\n        /* \"#utility.yul\":7860:7979   */\n      iszero\n      tag_256\n      jumpi\n        /* \"#utility.yul\":7898:7977   */\n      tag_257\n      tag_116\n      jump\t// in\n    tag_257:\n        /* \"#utility.yul\":7860:7979   */\n    tag_256:\n        /* \"#utility.yul\":8018:8019   */\n      0x00\n        /* \"#utility.yul\":8043:8096   */\n      tag_258\n        /* \"#utility.yul\":8088:8095   */\n      dup5\n        /* \"#utility.yul\":8079:8085   */\n      dup3\n        /* \"#utility.yul\":8068:8077   */\n      dup6\n        /* \"#utility.yul\":8064:8086   */\n      add\n        /* \"#utility.yul\":8043:8096   */\n      tag_146\n      jump\t// in\n    tag_258:\n        /* \"#utility.yul\":8033:8096   */\n      swap2\n      pop\n        /* \"#utility.yul\":7989:8106   */\n      pop\n        /* \"#utility.yul\":7784:8113   */\n      swap3\n      swap2\n      pop\n      pop\n      jump\t// out\n        /* \"#utility.yul\":8119:8213   */\n    tag_147:\n        /* \"#utility.yul\":8152:8160   */\n      0x00\n        /* \"#utility.yul\":8200:8205   */\n      dup2\n        /* \"#utility.yul\":8196:8198   */\n      0x60\n        /* \"#utility.yul\":8192:8206   */\n      shl\n        /* \"#utility.yul\":8171:8206   */\n      swap1\n      pop\n        /* \"#utility.yul\":8119:8213   */\n      swap2\n      swap1\n      pop\n      jump\t// out\n        /* \"#utility.yul\":8219:8313   */\n    tag_148:\n        /* \"#utility.yul\":8258:8265   */\n      0x00\n        /* \"#utility.yul\":8287:8307   */\n      tag_261\n        /* \"#utility.yul\":8301:8306   */\n      dup3\n        /* \"#utility.yul\":8287:8307   */\n      tag_147\n      jump\t// in\n    tag_261:\n        /* \"#utility.yul\":8276:8307   */\n      swap1\n      pop\n        /* \"#utility.yul\":8219:8313   */\n      swap2\n      swap1\n      pop\n      jump\t// out\n        /* \"#utility.yul\":8319:8419   */\n    tag_149:\n        /* \"#utility.yul\":8358:8365   */\n      0x00\n        /* \"#utility.yul\":8387:8413   */\n      tag_263\n        /* \"#utility.yul\":8407:8412   */\n      dup3\n        /* \"#utility.yul\":8387:8413   */\n      tag_148\n      jump\t// in\n    tag_263:\n        /* \"#utility.yul\":8376:8413   */\n      swap1\n      pop\n        /* \"#utility.yul\":8319:8419   */\n      swap2\n      swap1\n      pop\n      jump\t// out\n        /* \"#utility.yul\":8425:8582   */\n    tag_150:\n        /* \"#utility.yul\":8530:8575   */\n      tag_265\n        /* \"#utility.yul\":8550:8574   */\n      tag_266\n        /* \"#utility.yul\":8568:8573   */\n      dup3\n        /* \"#utility.yul\":8550:8574   */\n      tag_124\n      jump\t// in\n    tag_266:\n        /* \"#utility.yul\":8530:8575   */\n      tag_149\n      jump\t// in\n    tag_265:\n        /* \"#utility.yul\":8525:8528   */\n      dup3\n        /* \"#utility.yul\":8518:8576   */\n      mstore\n        /* \"#utility.yul\":8425:8582   */\n      pop\n      pop\n      jump\t// out\n        /* \"#utility.yul\":8588:8844   */\n    tag_60:\n        /* \"#utility.yul\":8700:8703   */\n      0x00\n        /* \"#utility.yul\":8715:8790   */\n      tag_268\n        /* \"#utility.yul\":8786:8789   */\n      dup3\n        /* \"#utility.yul\":8777:8783   */\n      dup5\n        /* \"#utility.yul\":8715:8790   */\n      tag_150\n      jump\t// in\n    tag_268:\n        /* \"#utility.yul\":8815:8817   */\n      0x14\n        /* \"#utility.yul\":8810:8813   */\n      dup3\n        /* \"#utility.yul\":8806:8818   */\n      add\n        /* \"#utility.yul\":8799:8818   */\n      swap2\n      pop\n        /* \"#utility.yul\":8835:8838   */\n      dup2\n        /* \"#utility.yul\":8828:8838   */\n      swap1\n      pop\n        /* \"#utility.yul\":8588:8844   */\n      swap3\n      swap2\n      pop\n      pop\n      jump\t// out\n        /* \"#utility.yul\":8850:8929   */\n    tag_151:\n        /* \"#utility.yul\":8889:8896   */\n      0x00\n        /* \"#utility.yul\":8918:8923   */\n      dup2\n        /* \"#utility.yul\":8907:8923   */\n      swap1\n      pop\n        /* \"#utility.yul\":8850:8929   */\n      swap2\n      swap1\n      pop\n      jump\t// out\n        /* \"#utility.yul\":8935:9092   */\n    tag_152:\n        /* \"#utility.yul\":9040:9085   */\n      tag_271\n        /* \"#utility.yul\":9060:9084   */\n      tag_272\n        /* \"#utility.yul\":9078:9083   */\n      dup3\n        /* \"#utility.yul\":9060:9084   */\n      tag_118\n      jump\t// in\n    tag_272:\n        /* \"#utility.yul\":9040:9085   */\n      tag_151\n      jump\t// in\n    tag_271:\n        /* \"#utility.yul\":9035:9038   */\n      dup3\n        /* \"#utility.yul\":9028:9086   */\n      mstore\n        /* \"#utility.yul\":8935:9092   */\n      pop\n      pop\n      jump\t// out\n        /* \"#utility.yul\":9098:9354   */\n    tag_64:\n        /* \"#utility.yul\":9210:9213   */\n      0x00\n        /* \"#utility.yul\":9225:9300   */\n      tag_274\n        /* \"#utility.yul\":9296:9299   */\n      dup3\n        /* \"#utility.yul\":9287:9293   */\n      dup5\n        /* \"#utility.yul\":9225:9300   */\n      tag_152\n      jump\t// in\n    tag_274:\n        /* \"#utility.yul\":9325:9327   */\n      0x20\n        /* \"#utility.yul\":9320:9323   */\n      dup3\n        /* \"#utility.yul\":9316:9328   */\n      add\n        /* \"#utility.yul\":9309:9328   */\n      swap2\n      pop\n        /* \"#utility.yul\":9345:9348   */\n      dup2\n        /* \"#utility.yul\":9338:9348   */\n      swap1\n      pop\n        /* \"#utility.yul\":9098:9354   */\n      swap3\n      swap2\n      pop\n      pop\n      jump\t// out\n        /* \"#utility.yul\":9360:9540   */\n    tag_153:\n        /* \"#utility.yul\":9408:9485   */\n      0x4e487b7100000000000000000000000000000000000000000000000000000000\n        /* \"#utility.yul\":9405:9406   */\n      0x00\n        /* \"#utility.yul\":9398:9486   */\n      mstore\n        /* \"#utility.yul\":9505:9509   */\n      0x11\n        /* \"#utility.yul\":9502:9503   */\n      0x04\n        /* \"#utility.yul\":9495:9510   */\n      mstore\n        /* \"#utility.yul\":9529:9533   */\n      0x24\n        /* \"#utility.yul\":9526:9527   */\n      0x00\n        /* \"#utility.yul\":9519:9534   */\n      revert\n        /* \"#utility.yul\":9546:9956   */\n    tag_67:\n        /* \"#utility.yul\":9586:9593   */\n      0x00\n        /* \"#utility.yul\":9609:9629   */\n      tag_277\n        /* \"#utility.yul\":9627:9628   */\n      dup3\n        /* \"#utility.yul\":9609:9629   */\n      tag_118\n      jump\t// in\n    tag_277:\n        /* \"#utility.yul\":9604:9629   */\n      swap2\n      pop\n        /* \"#utility.yul\":9643:9663   */\n      tag_278\n        /* \"#utility.yul\":9661:9662   */\n      dup4\n        /* \"#utility.yul\":9643:9663   */\n      tag_118\n      jump\t// in\n    tag_278:\n        /* \"#utility.yul\":9638:9663   */\n      swap3\n      pop\n        /* \"#utility.yul\":9698:9699   */\n      dup3\n        /* \"#utility.yul\":9695:9696   */\n      dup3\n        /* \"#utility.yul\":9691:9700   */\n      mul\n        /* \"#utility.yul\":9720:9750   */\n      tag_279\n        /* \"#utility.yul\":9738:9749   */\n      dup2\n        /* \"#utility.yul\":9720:9750   */\n      tag_118\n      jump\t// in\n    tag_279:\n        /* \"#utility.yul\":9709:9750   */\n      swap2\n      pop\n        /* \"#utility.yul\":9899:9900   */\n      dup3\n        /* \"#utility.yul\":9890:9897   */\n      dup3\n        /* \"#utility.yul\":9886:9901   */\n      div\n        /* \"#utility.yul\":9883:9884   */\n      dup5\n        /* \"#utility.yul\":9880:9902   */\n      eq\n        /* \"#utility.yul\":9860:9861   */\n      dup4\n        /* \"#utility.yul\":9853:9862   */\n      iszero\n        /* \"#utility.yul\":9833:9916   */\n      or\n        /* \"#utility.yul\":9810:9949   */\n      tag_280\n      jumpi\n        /* \"#utility.yul\":9929:9947   */\n      tag_281\n      tag_153\n      jump\t// in\n    tag_281:\n        /* \"#utility.yul\":9810:9949   */\n    tag_280:\n        /* \"#utility.yul\":9594:9956   */\n      pop\n        /* \"#utility.yul\":9546:9956   */\n      swap3\n      swap2\n      pop\n      pop\n      jump\t// out\n        /* \"#utility.yul\":9962:10153   */\n    tag_69:\n        /* \"#utility.yul\":10002:10005   */\n      0x00\n        /* \"#utility.yul\":10021:10041   */\n      tag_283\n        /* \"#utility.yul\":10039:10040   */\n      dup3\n        /* \"#utility.yul\":10021:10041   */\n      tag_118\n      jump\t// in\n    tag_283:\n        /* \"#utility.yul\":10016:10041   */\n      swap2\n      pop\n        /* \"#utility.yul\":10055:10075   */\n      tag_284\n        /* \"#utility.yul\":10073:10074   */\n      dup4\n        /* \"#utility.yul\":10055:10075   */\n      tag_118\n      jump\t// in\n    tag_284:\n        /* \"#utility.yul\":10050:10075   */\n      swap3\n      pop\n        /* \"#utility.yul\":10098:10099   */\n      dup3\n        /* \"#utility.yul\":10095:10096   */\n      dup3\n        /* \"#utility.yul\":10091:10100   */\n      add\n        /* \"#utility.yul\":10084:10100   */\n      swap1\n      pop\n        /* \"#utility.yul\":10119:10122   */\n      dup1\n        /* \"#utility.yul\":10116:10117   */\n      dup3\n        /* \"#utility.yul\":10113:10123   */\n      gt\n        /* \"#utility.yul\":10110:10146   */\n      iszero\n      tag_285\n      jumpi\n        /* \"#utility.yul\":10126:10144   */\n      tag_286\n      tag_153\n      jump\t// in\n    tag_286:\n        /* \"#utility.yul\":10110:10146   */\n    tag_285:\n        /* \"#utility.yul\":9962:10153   */\n      swap3\n      swap2\n      pop\n      pop\n      jump\t// out\n        /* \"#utility.yul\":10159:10339   */\n    tag_76:\n        /* \"#utility.yul\":10207:10284   */\n      0x4e487b7100000000000000000000000000000000000000000000000000000000\n        /* \"#utility.yul\":10204:10205   */\n      0x00\n        /* \"#utility.yul\":10197:10285   */\n      mstore\n        /* \"#utility.yul\":10304:10308   */\n      0x32\n        /* \"#utility.yul\":10301:10302   */\n      0x04\n        /* \"#utility.yul\":10294:10309   */\n      mstore\n        /* \"#utility.yul\":10328:10332   */\n      0x24\n        /* \"#utility.yul\":10325:10326   */\n      0x00\n        /* \"#utility.yul\":10318:10333   */\n      revert\n        /* \"#utility.yul\":10345:10578   */\n    tag_99:\n        /* \"#utility.yul\":10384:10387   */\n      0x00\n        /* \"#utility.yul\":10407:10431   */\n      tag_289\n        /* \"#utility.yul\":10425:10430   */\n      dup3\n        /* \"#utility.yul\":10407:10431   */\n      tag_118\n      jump\t// in\n    tag_289:\n        /* \"#utility.yul\":10398:10431   */\n      swap2\n      pop\n        /* \"#utility.yul\":10453:10519   */\n      0xffffffffffffffffffffffffffffffffffffffffffffffffffffffffffffffff\n        /* \"#utility.yul\":10446:10451   */\n      dup3\n        /* \"#utility.yul\":10443:10520   */\n      sub\n        /* \"#utility.yul\":10440:10543   */\n      tag_290\n      jumpi\n        /* \"#utility.yul\":10523:10541   */\n      tag_291\n      tag_153\n      jump\t// in\n    tag_291:\n        /* \"#utility.yul\":10440:10543   */\n    tag_290:\n        /* \"#utility.yul\":10570:10571   */\n      0x01\n        /* \"#utility.yul\":10563:10568   */\n      dup3\n        /* \"#utility.yul\":10559:10572   */\n      add\n        /* \"#utility.yul\":10552:10572   */\n      swap1\n      pop\n        /* \"#utility.yul\":10345:10578   */\n      swap2\n      swap1\n      pop\n      jump\t// out\n        /* \"#utility.yul\":10584:10816   */\n    tag_154:\n        /* \"#utility.yul\":10724:10758   */\n      0x5468697320616464726573732068617320616c726561647920656e7465726564\n        /* \"#utility.yul\":10720:10721   */\n      0x00\n        /* \"#utility.yul\":10712:10718   */\n      dup3\n        /* \"#utility.yul\":10708:10722   */\n      add\n        /* \"#utility.yul\":10701:10759   */\n      mstore\n        /* \"#utility.yul\":10793:10808   */\n      0x20746865206c6f74746572792e00000000000000000000000000000000000000\n        /* \"#utility.yul\":10788:10790   */\n      0x20\n        /* \"#utility.yul\":10780:10786   */\n      dup3\n        /* \"#utility.yul\":10776:10791   */\n      add\n        /* \"#utility.yul\":10769:10809   */\n      mstore\n        /* \"#utility.yul\":10584:10816   */\n      pop\n      jump\t// out\n        /* \"#utility.yul\":10822:11188   */\n    tag_155:\n        /* \"#utility.yul\":10964:10967   */\n      0x00\n        /* \"#utility.yul\":10985:11052   */\n      tag_294\n        /* \"#utility.yul\":11049:11051   */\n      0x2d\n        /* \"#utility.yul\":11044:11047   */\n      dup4\n        /* \"#utility.yul\":10985:11052   */\n      tag_128\n      jump\t// in\n    tag_294:\n        /* \"#utility.yul\":10978:11052   */\n      swap2\n      pop\n        /* \"#utility.yul\":11061:11154   */\n      tag_295\n        /* \"#utility.yul\":11150:11153   */\n      dup3\n        /* \"#utility.yul\":11061:11154   */\n      tag_154\n      jump\t// in\n    tag_295:\n        /* \"#utility.yul\":11179:11181   */\n      0x40\n        /* \"#utility.yul\":11174:11177   */\n      dup3\n        /* \"#utility.yul\":11170:11182   */\n      add\n        /* \"#utility.yul\":11163:11182   */\n      swap1\n      pop\n        /* \"#utility.yul\":10822:11188   */\n      swap2\n      swap1\n      pop\n      jump\t// out\n        /* \"#utility.yul\":11194:11613   */\n    tag_104:\n        /* \"#utility.yul\":11360:11364   */\n      0x00\n        /* \"#utility.yul\":11398:11400   */\n      0x20\n        /* \"#utility.yul\":11387:11396   */\n      dup3\n        /* \"#utility.yul\":11383:11401   */\n      add\n        /* \"#utility.yul\":11375:11401   */\n      swap1\n      pop\n        /* \"#utility.yul\":11447:11456   */\n      dup2\n        /* \"#utility.yul\":11441:11445   */\n      dup2\n        /* \"#utility.yul\":11437:11457   */\n      sub\n        /* \"#utility.yul\":11433:11434   */\n      0x00\n        /* \"#utility.yul\":11422:11431   */\n      dup4\n        /* \"#utility.yul\":11418:11435   */\n      add\n        /* \"#utility.yul\":11411:11458   */\n      mstore\n        /* \"#utility.yul\":11475:11606   */\n      tag_297\n        /* \"#utility.yul\":11601:11605   */\n      dup2\n        /* \"#utility.yul\":11475:11606   */\n      tag_155\n      jump\t// in\n    tag_297:\n        /* \"#utility.yul\":11467:11606   */\n      swap1\n      pop\n        /* \"#utility.yul\":11194:11613   */\n      swap2\n      swap1\n      pop\n      jump\t// out\n        /* \"#utility.yul\":11619:11698   */\n    tag_156:\n        /* \"#utility.yul\":11658:11665   */\n      0x00\n        /* \"#utility.yul\":11687:11692   */\n      dup2\n        /* \"#utility.yul\":11676:11692   */\n      swap1\n      pop\n        /* \"#utility.yul\":11619:11698   */\n      swap2\n      swap1\n      pop\n      jump\t// out\n        /* \"#utility.yul\":11704:11861   */\n    tag_157:\n        /* \"#utility.yul\":11809:11854   */\n      tag_300\n        /* \"#utility.yul\":11829:11853   */\n      tag_301\n        /* \"#utility.yul\":11847:11852   */\n      dup3\n        /* \"#utility.yul\":11829:11853   */\n      tag_144\n      jump\t// in\n    tag_301:\n        /* \"#utility.yul\":11809:11854   */\n      tag_156\n      jump\t// in\n    tag_300:\n        /* \"#utility.yul\":11804:11807   */\n      dup3\n        /* \"#utility.yul\":11797:11855   */\n      mstore\n        /* \"#utility.yul\":11704:11861   */\n      pop\n      pop\n      jump\t// out\n        /* \"#utility.yul\":11867:12123   */\n    tag_109:\n        /* \"#utility.yul\":11979:11982   */\n      0x00\n        /* \"#utility.yul\":11994:12069   */\n      tag_303\n        /* \"#utility.yul\":12065:12068   */\n      dup3\n        /* \"#utility.yul\":12056:12062   */\n      dup5\n        /* \"#utility.yul\":11994:12069   */\n      tag_157\n      jump\t// in\n    tag_303:\n        /* \"#utility.yul\":12094:12096   */\n      0x20\n        /* \"#utility.yul\":12089:12092   */\n      dup3\n        /* \"#utility.yul\":12085:12097   */\n      add\n        /* \"#utility.yul\":12078:12097   */\n      swap2\n      pop\n        /* \"#utility.yul\":12114:12117   */\n      dup2\n        /* \"#utility.yul\":12107:12117   */\n      swap1\n      pop\n        /* \"#utility.yul\":11867:12123   */\n      swap3\n      swap2\n      pop\n      pop\n      jump\t// out\n\n    auxdata: 0xa264697066735822122054d5def29815ebb16da6e73d26b6bd37dbcb35da566a4661a65a6d78aa6a211764736f6c63430008110033\n}\n",
				"bytecode": {
					"linkReferences": {},
					"object": "608060405234801561001057600080fd5b50610f67806100206000396000f3fe608060405234801561001057600080fd5b50600436106100935760003560e01c8063912a90bb11610066578063912a90bb14610158578063a8a5400814610188578063b11a19e8146101a4578063bff82dee146101d4578063cd38aa871461020457610093565b806327dff1431461009857806356ca623e146100c85780636900a3ae146100f857806371aad10d14610128575b600080fd5b6100b260048036038101906100ad9190610892565b610222565b6040516100bf9190610900565b60405180910390f35b6100e260048036038101906100dd9190610959565b610261565b6040516100ef9190610a16565b60405180910390f35b610112600480360381019061010d9190610892565b610292565b60405161011f9190610a16565b60405180910390f35b610142600480360381019061013d9190610b6d565b6102c3565b60405161014f9190610a16565b60405180910390f35b610172600480360381019061016d9190610be2565b6105bd565b60405161017f9190610c2a565b60405180910390f35b6101a2600480360381019061019d9190610be2565b610612565b005b6101be60048036038101906101b99190610c7b565b610761565b6040516101cb9190610a16565b60405180910390f35b6101ee60048036038101906101e99190610959565b610792565b6040516101fb9190610c2a565b60405180910390f35b61020c6107b2565b6040516102199190610a16565b60405180910390f35b6001818154811061023257600080fd5b906000526020600020016000915054906101000a900473ffffffffffffffffffffffffffffffffffffffff1681565b606061028b826040516020016102779190610cf0565b6040516020818303038152906040526102c3565b9050919050565b60606102bc826040516020016102a89190610d2c565b6040516020818303038152906040526102c3565b9050919050565b606060006040518060400160405280601081526020017f3031323334353637383961626364656600000000000000000000000000000000815250905060006002845161030f9190610d76565b600261031b9190610db8565b67ffffffffffffffff81111561033457610333610a42565b5b6040519080825280601f01601f1916602001820160405280156103665781602001600182028036833780820191505090505b5090507f30000000000000000000000000000000000000000000000000000000000000008160008151811061039e5761039d610dec565b5b60200101907effffffffffffffffffffffffffffffffffffffffffffffffffffffffffffff1916908160001a9053507f78000000000000000000000000000000000000000000000000000000000000008160018151811061040257610401610dec565b5b60200101907effffffffffffffffffffffffffffffffffffffffffffffffffffffffffffff1916908160001a90535060005b84518110156105b25782600486838151811061045357610452610dec565b5b602001015160f81c60f81b7effffffffffffffffffffffffffffffffffffffffffffffffffffffffffffff1916901c60f81c60ff168151811061049957610498610dec565b5b602001015160f81c60f81b826002836104b29190610d76565b60026104be9190610db8565b815181106104cf576104ce610dec565b5b60200101907effffffffffffffffffffffffffffffffffffffffffffffffffffffffffffff1916908160001a90535082600f60f81b86838151811061051757610516610dec565b5b602001015160f81c60f81b1660f81c60ff168151811061053a57610539610dec565b5b602001015160f81c60f81b826002836105539190610d76565b600361055f9190610db8565b815181106105705761056f610dec565b5b60200101907effffffffffffffffffffffffffffffffffffffffffffffffffffffffffffff1916908160001a90535080806105aa90610e1b565b915050610434565b508092505050919050565b60008060008373ffffffffffffffffffffffffffffffffffffffff1673ffffffffffffffffffffffffffffffffffffffff16815260200190815260200160002060009054906101000a900460ff169050919050565b60008060008373ffffffffffffffffffffffffffffffffffffffff1673ffffffffffffffffffffffffffffffffffffffff16815260200190815260200160002060009054906101000a900460ff16905080156106a3576040517f08c379a000000000000000000000000000000000000000000000000000000000815260040161069a90610ed5565b60405180910390fd5b60016000808473ffffffffffffffffffffffffffffffffffffffff1673ffffffffffffffffffffffffffffffffffffffff16815260200190815260200160002060006101000a81548160ff0219169083151502179055506001829080600181540180825580915050600190039060005260206000200160009091909190916101000a81548173ffffffffffffffffffffffffffffffffffffffff021916908373ffffffffffffffffffffffffffffffffffffffff1602179055505050565b606061078b826040516020016107779190610f16565b6040516020818303038152906040526102c3565b9050919050565b60006020528060005260406000206000915054906101000a900460ff1681565b606060006040518060400160405280600281526020017f583a000000000000000000000000000000000000000000000000000000000000815250905060006001905060006001828154811061080a57610809610dec565b5b9060005260206000200160009054906101000a900473ffffffffffffffffffffffffffffffffffffffff16905061084081610261565b935050505090565b6000604051905090565b600080fd5b600080fd5b6000819050919050565b61086f8161085c565b811461087a57600080fd5b50565b60008135905061088c81610866565b92915050565b6000602082840312156108a8576108a7610852565b5b60006108b68482850161087d565b91505092915050565b600073ffffffffffffffffffffffffffffffffffffffff82169050919050565b60006108ea826108bf565b9050919050565b6108fa816108df565b82525050565b600060208201905061091560008301846108f1565b92915050565b6000610926826108bf565b9050919050565b6109368161091b565b811461094157600080fd5b50565b6000813590506109538161092d565b92915050565b60006020828403121561096f5761096e610852565b5b600061097d84828501610944565b91505092915050565b600081519050919050565b600082825260208201905092915050565b60005b838110156109c05780820151818401526020810190506109a5565b60008484015250505050565b6000601f19601f8301169050919050565b60006109e882610986565b6109f28185610991565b9350610a028185602086016109a2565b610a0b816109cc565b840191505092915050565b60006020820190508181036000830152610a3081846109dd565b905092915050565b600080fd5b600080fd5b7f4e487b7100000000000000000000000000000000000000000000000000000000600052604160045260246000fd5b610a7a826109cc565b810181811067ffffffffffffffff82111715610a9957610a98610a42565b5b80604052505050565b6000610aac610848565b9050610ab88282610a71565b919050565b600067ffffffffffffffff821115610ad857610ad7610a42565b5b610ae1826109cc565b9050602081019050919050565b82818337600083830152505050565b6000610b10610b0b84610abd565b610aa2565b905082815260208101848484011115610b2c57610b2b610a3d565b5b610b37848285610aee565b509392505050565b600082601f830112610b5457610b53610a38565b5b8135610b64848260208601610afd565b91505092915050565b600060208284031215610b8357610b82610852565b5b600082013567ffffffffffffffff811115610ba157610ba0610857565b5b610bad84828501610b3f565b91505092915050565b610bbf816108df565b8114610bca57600080fd5b50565b600081359050610bdc81610bb6565b92915050565b600060208284031215610bf857610bf7610852565b5b6000610c0684828501610bcd565b91505092915050565b60008115159050919050565b610c2481610c0f565b82525050565b6000602082019050610c3f6000830184610c1b565b92915050565b6000819050919050565b610c5881610c45565b8114610c6357600080fd5b50565b600081359050610c7581610c4f565b92915050565b600060208284031215610c9157610c90610852565b5b6000610c9f84828501610c66565b91505092915050565b60008160601b9050919050565b6000610cc082610ca8565b9050919050565b6000610cd282610cb5565b9050919050565b610cea610ce58261091b565b610cc7565b82525050565b6000610cfc8284610cd9565b60148201915081905092915050565b6000819050919050565b610d26610d218261085c565b610d0b565b82525050565b6000610d388284610d15565b60208201915081905092915050565b7f4e487b7100000000000000000000000000000000000000000000000000000000600052601160045260246000fd5b6000610d818261085c565b9150610d8c8361085c565b9250828202610d9a8161085c565b91508282048414831517610db157610db0610d47565b5b5092915050565b6000610dc38261085c565b9150610dce8361085c565b9250828201905080821115610de657610de5610d47565b5b92915050565b7f4e487b7100000000000000000000000000000000000000000000000000000000600052603260045260246000fd5b6000610e268261085c565b91507fffffffffffffffffffffffffffffffffffffffffffffffffffffffffffffffff8203610e5857610e57610d47565b5b600182019050919050565b7f5468697320616464726573732068617320616c726561647920656e746572656460008201527f20746865206c6f74746572792e00000000000000000000000000000000000000602082015250565b6000610ebf602d83610991565b9150610eca82610e63565b604082019050919050565b60006020820190508181036000830152610eee81610eb2565b9050919050565b6000819050919050565b610f10610f0b82610c45565b610ef5565b82525050565b6000610f228284610eff565b6020820191508190509291505056fea264697066735822122054d5def29815ebb16da6e73d26b6bd37dbcb35da566a4661a65a6d78aa6a211764736f6c63430008110033",
					"opcodes": "PUSH1 0x80 PUSH1 0x40 MSTORE CALLVALUE DUP1 ISZERO PUSH2 0x10 JUMPI PUSH1 0x0 DUP1 REVERT JUMPDEST POP PUSH2 0xF67 DUP1 PUSH2 0x20 PUSH1 0x0 CODECOPY PUSH1 0x0 RETURN INVALID PUSH1 0x80 PUSH1 0x40 MSTORE CALLVALUE DUP1 ISZERO PUSH2 0x10 JUMPI PUSH1 0x0 DUP1 REVERT JUMPDEST POP PUSH1 0x4 CALLDATASIZE LT PUSH2 0x93 JUMPI PUSH1 0x0 CALLDATALOAD PUSH1 0xE0 SHR DUP1 PUSH4 0x912A90BB GT PUSH2 0x66 JUMPI DUP1 PUSH4 0x912A90BB EQ PUSH2 0x158 JUMPI DUP1 PUSH4 0xA8A54008 EQ PUSH2 0x188 JUMPI DUP1 PUSH4 0xB11A19E8 EQ PUSH2 0x1A4 JUMPI DUP1 PUSH4 0xBFF82DEE EQ PUSH2 0x1D4 JUMPI DUP1 PUSH4 0xCD38AA87 EQ PUSH2 0x204 JUMPI PUSH2 0x93 JUMP JUMPDEST DUP1 PUSH4 0x27DFF143 EQ PUSH2 0x98 JUMPI DUP1 PUSH4 0x56CA623E EQ PUSH2 0xC8 JUMPI DUP1 PUSH4 0x6900A3AE EQ PUSH2 0xF8 JUMPI DUP1 PUSH4 0x71AAD10D EQ PUSH2 0x128 JUMPI JUMPDEST PUSH1 0x0 DUP1 REVERT JUMPDEST PUSH2 0xB2 PUSH1 0x4 DUP1 CALLDATASIZE SUB DUP2 ADD SWAP1 PUSH2 0xAD SWAP2 SWAP1 PUSH2 0x892 JUMP JUMPDEST PUSH2 0x222 JUMP JUMPDEST PUSH1 0x40 MLOAD PUSH2 0xBF SWAP2 SWAP1 PUSH2 0x900 JUMP JUMPDEST PUSH1 0x40 MLOAD DUP1 SWAP2 SUB SWAP1 RETURN JUMPDEST PUSH2 0xE2 PUSH1 0x4 DUP1 CALLDATASIZE SUB DUP2 ADD SWAP1 PUSH2 0xDD SWAP2 SWAP1 PUSH2 0x959 JUMP JUMPDEST PUSH2 0x261 JUMP JUMPDEST PUSH1 0x40 MLOAD PUSH2 0xEF SWAP2 SWAP1 PUSH2 0xA16 JUMP JUMPDEST PUSH1 0x40 MLOAD DUP1 SWAP2 SUB SWAP1 RETURN JUMPDEST PUSH2 0x112 PUSH1 0x4 DUP1 CALLDATASIZE SUB DUP2 ADD SWAP1 PUSH2 0x10D SWAP2 SWAP1 PUSH2 0x892 JUMP JUMPDEST PUSH2 0x292 JUMP JUMPDEST PUSH1 0x40 MLOAD PUSH2 0x11F SWAP2 SWAP1 PUSH2 0xA16 JUMP JUMPDEST PUSH1 0x40 MLOAD DUP1 SWAP2 SUB SWAP1 RETURN JUMPDEST PUSH2 0x142 PUSH1 0x4 DUP1 CALLDATASIZE SUB DUP2 ADD SWAP1 PUSH2 0x13D SWAP2 SWAP1 PUSH2 0xB6D JUMP JUMPDEST PUSH2 0x2C3 JUMP JUMPDEST PUSH1 0x40 MLOAD PUSH2 0x14F SWAP2 SWAP1 PUSH2 0xA16 JUMP JUMPDEST PUSH1 0x40 MLOAD DUP1 SWAP2 SUB SWAP1 RETURN JUMPDEST PUSH2 0x172 PUSH1 0x4 DUP1 CALLDATASIZE SUB DUP2 ADD SWAP1 PUSH2 0x16D SWAP2 SWAP1 PUSH2 0xBE2 JUMP JUMPDEST PUSH2 0x5BD JUMP JUMPDEST PUSH1 0x40 MLOAD PUSH2 0x17F SWAP2 SWAP1 PUSH2 0xC2A JUMP JUMPDEST PUSH1 0x40 MLOAD DUP1 SWAP2 SUB SWAP1 RETURN JUMPDEST PUSH2 0x1A2 PUSH1 0x4 DUP1 CALLDATASIZE SUB DUP2 ADD SWAP1 PUSH2 0x19D SWAP2 SWAP1 PUSH2 0xBE2 JUMP JUMPDEST PUSH2 0x612 JUMP JUMPDEST STOP JUMPDEST PUSH2 0x1BE PUSH1 0x4 DUP1 CALLDATASIZE SUB DUP2 ADD SWAP1 PUSH2 0x1B9 SWAP2 SWAP1 PUSH2 0xC7B JUMP JUMPDEST PUSH2 0x761 JUMP JUMPDEST PUSH1 0x40 MLOAD PUSH2 0x1CB SWAP2 SWAP1 PUSH2 0xA16 JUMP JUMPDEST PUSH1 0x40 MLOAD DUP1 SWAP2 SUB SWAP1 RETURN JUMPDEST PUSH2 0x1EE PUSH1 0x4 DUP1 CALLDATASIZE SUB DUP2 ADD SWAP1 PUSH2 0x1E9 SWAP2 SWAP1 PUSH2 0x959 JUMP JUMPDEST PUSH2 0x792 JUMP JUMPDEST PUSH1 0x40 MLOAD PUSH2 0x1FB SWAP2 SWAP1 PUSH2 0xC2A JUMP JUMPDEST PUSH1 0x40 MLOAD DUP1 SWAP2 SUB SWAP1 RETURN JUMPDEST PUSH2 0x20C PUSH2 0x7B2 JUMP JUMPDEST PUSH1 0x40 MLOAD PUSH2 0x219 SWAP2 SWAP1 PUSH2 0xA16 JUMP JUMPDEST PUSH1 0x40 MLOAD DUP1 SWAP2 SUB SWAP1 RETURN JUMPDEST PUSH1 0x1 DUP2 DUP2 SLOAD DUP2 LT PUSH2 0x232 JUMPI PUSH1 0x0 DUP1 REVERT JUMPDEST SWAP1 PUSH1 0x0 MSTORE PUSH1 0x20 PUSH1 0x0 KECCAK256 ADD PUSH1 0x0 SWAP2 POP SLOAD SWAP1 PUSH2 0x100 EXP SWAP1 DIV PUSH20 0xFFFFFFFFFFFFFFFFFFFFFFFFFFFFFFFFFFFFFFFF AND DUP2 JUMP JUMPDEST PUSH1 0x60 PUSH2 0x28B DUP3 PUSH1 0x40 MLOAD PUSH1 0x20 ADD PUSH2 0x277 SWAP2 SWAP1 PUSH2 0xCF0 JUMP JUMPDEST PUSH1 0x40 MLOAD PUSH1 0x20 DUP2 DUP4 SUB SUB DUP2 MSTORE SWAP1 PUSH1 0x40 MSTORE PUSH2 0x2C3 JUMP JUMPDEST SWAP1 POP SWAP2 SWAP1 POP JUMP JUMPDEST PUSH1 0x60 PUSH2 0x2BC DUP3 PUSH1 0x40 MLOAD PUSH1 0x20 ADD PUSH2 0x2A8 SWAP2 SWAP1 PUSH2 0xD2C JUMP JUMPDEST PUSH1 0x40 MLOAD PUSH1 0x20 DUP2 DUP4 SUB SUB DUP2 MSTORE SWAP1 PUSH1 0x40 MSTORE PUSH2 0x2C3 JUMP JUMPDEST SWAP1 POP SWAP2 SWAP1 POP JUMP JUMPDEST PUSH1 0x60 PUSH1 0x0 PUSH1 0x40 MLOAD DUP1 PUSH1 0x40 ADD PUSH1 0x40 MSTORE DUP1 PUSH1 0x10 DUP2 MSTORE PUSH1 0x20 ADD PUSH32 0x3031323334353637383961626364656600000000000000000000000000000000 DUP2 MSTORE POP SWAP1 POP PUSH1 0x0 PUSH1 0x2 DUP5 MLOAD PUSH2 0x30F SWAP2 SWAP1 PUSH2 0xD76 JUMP JUMPDEST PUSH1 0x2 PUSH2 0x31B SWAP2 SWAP1 PUSH2 0xDB8 JUMP JUMPDEST PUSH8 0xFFFFFFFFFFFFFFFF DUP2 GT ISZERO PUSH2 0x334 JUMPI PUSH2 0x333 PUSH2 0xA42 JUMP JUMPDEST JUMPDEST PUSH1 0x40 MLOAD SWAP1 DUP1 DUP3 MSTORE DUP1 PUSH1 0x1F ADD PUSH1 0x1F NOT AND PUSH1 0x20 ADD DUP3 ADD PUSH1 0x40 MSTORE DUP1 ISZERO PUSH2 0x366 JUMPI DUP2 PUSH1 0x20 ADD PUSH1 0x1 DUP3 MUL DUP1 CALLDATASIZE DUP4 CALLDATACOPY DUP1 DUP3 ADD SWAP2 POP POP SWAP1 POP JUMPDEST POP SWAP1 POP PUSH32 0x3000000000000000000000000000000000000000000000000000000000000000 DUP2 PUSH1 0x0 DUP2 MLOAD DUP2 LT PUSH2 0x39E JUMPI PUSH2 0x39D PUSH2 0xDEC JUMP JUMPDEST JUMPDEST PUSH1 0x20 ADD ADD SWAP1 PUSH31 0xFFFFFFFFFFFFFFFFFFFFFFFFFFFFFFFFFFFFFFFFFFFFFFFFFFFFFFFFFFFFFF NOT AND SWAP1 DUP2 PUSH1 0x0 BYTE SWAP1 MSTORE8 POP PUSH32 0x7800000000000000000000000000000000000000000000000000000000000000 DUP2 PUSH1 0x1 DUP2 MLOAD DUP2 LT PUSH2 0x402 JUMPI PUSH2 0x401 PUSH2 0xDEC JUMP JUMPDEST JUMPDEST PUSH1 0x20 ADD ADD SWAP1 PUSH31 0xFFFFFFFFFFFFFFFFFFFFFFFFFFFFFFFFFFFFFFFFFFFFFFFFFFFFFFFFFFFFFF NOT AND SWAP1 DUP2 PUSH1 0x0 BYTE SWAP1 MSTORE8 POP PUSH1 0x0 JUMPDEST DUP5 MLOAD DUP2 LT ISZERO PUSH2 0x5B2 JUMPI DUP3 PUSH1 0x4 DUP7 DUP4 DUP2 MLOAD DUP2 LT PUSH2 0x453 JUMPI PUSH2 0x452 PUSH2 0xDEC JUMP JUMPDEST JUMPDEST PUSH1 0x20 ADD ADD MLOAD PUSH1 0xF8 SHR PUSH1 0xF8 SHL PUSH31 0xFFFFFFFFFFFFFFFFFFFFFFFFFFFFFFFFFFFFFFFFFFFFFFFFFFFFFFFFFFFFFF NOT AND SWAP1 SHR PUSH1 0xF8 SHR PUSH1 0xFF AND DUP2 MLOAD DUP2 LT PUSH2 0x499 JUMPI PUSH2 0x498 PUSH2 0xDEC JUMP JUMPDEST JUMPDEST PUSH1 0x20 ADD ADD MLOAD PUSH1 0xF8 SHR PUSH1 0xF8 SHL DUP3 PUSH1 0x2 DUP4 PUSH2 0x4B2 SWAP2 SWAP1 PUSH2 0xD76 JUMP JUMPDEST PUSH1 0x2 PUSH2 0x4BE SWAP2 SWAP1 PUSH2 0xDB8 JUMP JUMPDEST DUP2 MLOAD DUP2 LT PUSH2 0x4CF JUMPI PUSH2 0x4CE PUSH2 0xDEC JUMP JUMPDEST JUMPDEST PUSH1 0x20 ADD ADD SWAP1 PUSH31 0xFFFFFFFFFFFFFFFFFFFFFFFFFFFFFFFFFFFFFFFFFFFFFFFFFFFFFFFFFFFFFF NOT AND SWAP1 DUP2 PUSH1 0x0 BYTE SWAP1 MSTORE8 POP DUP3 PUSH1 0xF PUSH1 0xF8 SHL DUP7 DUP4 DUP2 MLOAD DUP2 LT PUSH2 0x517 JUMPI PUSH2 0x516 PUSH2 0xDEC JUMP JUMPDEST JUMPDEST PUSH1 0x20 ADD ADD MLOAD PUSH1 0xF8 SHR PUSH1 0xF8 SHL AND PUSH1 0xF8 SHR PUSH1 0xFF AND DUP2 MLOAD DUP2 LT PUSH2 0x53A JUMPI PUSH2 0x539 PUSH2 0xDEC JUMP JUMPDEST JUMPDEST PUSH1 0x20 ADD ADD MLOAD PUSH1 0xF8 SHR PUSH1 0xF8 SHL DUP3 PUSH1 0x2 DUP4 PUSH2 0x553 SWAP2 SWAP1 PUSH2 0xD76 JUMP JUMPDEST PUSH1 0x3 PUSH2 0x55F SWAP2 SWAP1 PUSH2 0xDB8 JUMP JUMPDEST DUP2 MLOAD DUP2 LT PUSH2 0x570 JUMPI PUSH2 0x56F PUSH2 0xDEC JUMP JUMPDEST JUMPDEST PUSH1 0x20 ADD ADD SWAP1 PUSH31 0xFFFFFFFFFFFFFFFFFFFFFFFFFFFFFFFFFFFFFFFFFFFFFFFFFFFFFFFFFFFFFF NOT AND SWAP1 DUP2 PUSH1 0x0 BYTE SWAP1 MSTORE8 POP DUP1 DUP1 PUSH2 0x5AA SWAP1 PUSH2 0xE1B JUMP JUMPDEST SWAP2 POP POP PUSH2 0x434 JUMP JUMPDEST POP DUP1 SWAP3 POP POP POP SWAP2 SWAP1 POP JUMP JUMPDEST PUSH1 0x0 DUP1 PUSH1 0x0 DUP4 PUSH20 0xFFFFFFFFFFFFFFFFFFFFFFFFFFFFFFFFFFFFFFFF AND PUSH20 0xFFFFFFFFFFFFFFFFFFFFFFFFFFFFFFFFFFFFFFFF AND DUP2 MSTORE PUSH1 0x20 ADD SWAP1 DUP2 MSTORE PUSH1 0x20 ADD PUSH1 0x0 KECCAK256 PUSH1 0x0 SWAP1 SLOAD SWAP1 PUSH2 0x100 EXP SWAP1 DIV PUSH1 0xFF AND SWAP1 POP SWAP2 SWAP1 POP JUMP JUMPDEST PUSH1 0x0 DUP1 PUSH1 0x0 DUP4 PUSH20 0xFFFFFFFFFFFFFFFFFFFFFFFFFFFFFFFFFFFFFFFF AND PUSH20 0xFFFFFFFFFFFFFFFFFFFFFFFFFFFFFFFFFFFFFFFF AND DUP2 MSTORE PUSH1 0x20 ADD SWAP1 DUP2 MSTORE PUSH1 0x20 ADD PUSH1 0x0 KECCAK256 PUSH1 0x0 SWAP1 SLOAD SWAP1 PUSH2 0x100 EXP SWAP1 DIV PUSH1 0xFF AND SWAP1 POP DUP1 ISZERO PUSH2 0x6A3 JUMPI PUSH1 0x40 MLOAD PUSH32 0x8C379A000000000000000000000000000000000000000000000000000000000 DUP2 MSTORE PUSH1 0x4 ADD PUSH2 0x69A SWAP1 PUSH2 0xED5 JUMP JUMPDEST PUSH1 0x40 MLOAD DUP1 SWAP2 SUB SWAP1 REVERT JUMPDEST PUSH1 0x1 PUSH1 0x0 DUP1 DUP5 PUSH20 0xFFFFFFFFFFFFFFFFFFFFFFFFFFFFFFFFFFFFFFFF AND PUSH20 0xFFFFFFFFFFFFFFFFFFFFFFFFFFFFFFFFFFFFFFFF AND DUP2 MSTORE PUSH1 0x20 ADD SWAP1 DUP2 MSTORE PUSH1 0x20 ADD PUSH1 0x0 KECCAK256 PUSH1 0x0 PUSH2 0x100 EXP DUP2 SLOAD DUP2 PUSH1 0xFF MUL NOT AND SWAP1 DUP4 ISZERO ISZERO MUL OR SWAP1 SSTORE POP PUSH1 0x1 DUP3 SWAP1 DUP1 PUSH1 0x1 DUP2 SLOAD ADD DUP1 DUP3 SSTORE DUP1 SWAP2 POP POP PUSH1 0x1 SWAP1 SUB SWAP1 PUSH1 0x0 MSTORE PUSH1 0x20 PUSH1 0x0 KECCAK256 ADD PUSH1 0x0 SWAP1 SWAP2 SWAP1 SWAP2 SWAP1 SWAP2 PUSH2 0x100 EXP DUP2 SLOAD DUP2 PUSH20 0xFFFFFFFFFFFFFFFFFFFFFFFFFFFFFFFFFFFFFFFF MUL NOT AND SWAP1 DUP4 PUSH20 0xFFFFFFFFFFFFFFFFFFFFFFFFFFFFFFFFFFFFFFFF AND MUL OR SWAP1 SSTORE POP POP POP JUMP JUMPDEST PUSH1 0x60 PUSH2 0x78B DUP3 PUSH1 0x40 MLOAD PUSH1 0x20 ADD PUSH2 0x777 SWAP2 SWAP1 PUSH2 0xF16 JUMP JUMPDEST PUSH1 0x40 MLOAD PUSH1 0x20 DUP2 DUP4 SUB SUB DUP2 MSTORE SWAP1 PUSH1 0x40 MSTORE PUSH2 0x2C3 JUMP JUMPDEST SWAP1 POP SWAP2 SWAP1 POP JUMP JUMPDEST PUSH1 0x0 PUSH1 0x20 MSTORE DUP1 PUSH1 0x0 MSTORE PUSH1 0x40 PUSH1 0x0 KECCAK256 PUSH1 0x0 SWAP2 POP SLOAD SWAP1 PUSH2 0x100 EXP SWAP1 DIV PUSH1 0xFF AND DUP2 JUMP JUMPDEST PUSH1 0x60 PUSH1 0x0 PUSH1 0x40 MLOAD DUP1 PUSH1 0x40 ADD PUSH1 0x40 MSTORE DUP1 PUSH1 0x2 DUP2 MSTORE PUSH1 0x20 ADD PUSH32 0x583A000000000000000000000000000000000000000000000000000000000000 DUP2 MSTORE POP SWAP1 POP PUSH1 0x0 PUSH1 0x1 SWAP1 POP PUSH1 0x0 PUSH1 0x1 DUP3 DUP2 SLOAD DUP2 LT PUSH2 0x80A JUMPI PUSH2 0x809 PUSH2 0xDEC JUMP JUMPDEST JUMPDEST SWAP1 PUSH1 0x0 MSTORE PUSH1 0x20 PUSH1 0x0 KECCAK256 ADD PUSH1 0x0 SWAP1 SLOAD SWAP1 PUSH2 0x100 EXP SWAP1 DIV PUSH20 0xFFFFFFFFFFFFFFFFFFFFFFFFFFFFFFFFFFFFFFFF AND SWAP1 POP PUSH2 0x840 DUP2 PUSH2 0x261 JUMP JUMPDEST SWAP4 POP POP POP POP SWAP1 JUMP JUMPDEST PUSH1 0x0 PUSH1 0x40 MLOAD SWAP1 POP SWAP1 JUMP JUMPDEST PUSH1 0x0 DUP1 REVERT JUMPDEST PUSH1 0x0 DUP1 REVERT JUMPDEST PUSH1 0x0 DUP2 SWAP1 POP SWAP2 SWAP1 POP JUMP JUMPDEST PUSH2 0x86F DUP2 PUSH2 0x85C JUMP JUMPDEST DUP2 EQ PUSH2 0x87A JUMPI PUSH1 0x0 DUP1 REVERT JUMPDEST POP JUMP JUMPDEST PUSH1 0x0 DUP2 CALLDATALOAD SWAP1 POP PUSH2 0x88C DUP2 PUSH2 0x866 JUMP JUMPDEST SWAP3 SWAP2 POP POP JUMP JUMPDEST PUSH1 0x0 PUSH1 0x20 DUP3 DUP5 SUB SLT ISZERO PUSH2 0x8A8 JUMPI PUSH2 0x8A7 PUSH2 0x852 JUMP JUMPDEST JUMPDEST PUSH1 0x0 PUSH2 0x8B6 DUP5 DUP3 DUP6 ADD PUSH2 0x87D JUMP JUMPDEST SWAP2 POP POP SWAP3 SWAP2 POP POP JUMP JUMPDEST PUSH1 0x0 PUSH20 0xFFFFFFFFFFFFFFFFFFFFFFFFFFFFFFFFFFFFFFFF DUP3 AND SWAP1 POP SWAP2 SWAP1 POP JUMP JUMPDEST PUSH1 0x0 PUSH2 0x8EA DUP3 PUSH2 0x8BF JUMP JUMPDEST SWAP1 POP SWAP2 SWAP1 POP JUMP JUMPDEST PUSH2 0x8FA DUP2 PUSH2 0x8DF JUMP JUMPDEST DUP3 MSTORE POP POP JUMP JUMPDEST PUSH1 0x0 PUSH1 0x20 DUP3 ADD SWAP1 POP PUSH2 0x915 PUSH1 0x0 DUP4 ADD DUP5 PUSH2 0x8F1 JUMP JUMPDEST SWAP3 SWAP2 POP POP JUMP JUMPDEST PUSH1 0x0 PUSH2 0x926 DUP3 PUSH2 0x8BF JUMP JUMPDEST SWAP1 POP SWAP2 SWAP1 POP JUMP JUMPDEST PUSH2 0x936 DUP2 PUSH2 0x91B JUMP JUMPDEST DUP2 EQ PUSH2 0x941 JUMPI PUSH1 0x0 DUP1 REVERT JUMPDEST POP JUMP JUMPDEST PUSH1 0x0 DUP2 CALLDATALOAD SWAP1 POP PUSH2 0x953 DUP2 PUSH2 0x92D JUMP JUMPDEST SWAP3 SWAP2 POP POP JUMP JUMPDEST PUSH1 0x0 PUSH1 0x20 DUP3 DUP5 SUB SLT ISZERO PUSH2 0x96F JUMPI PUSH2 0x96E PUSH2 0x852 JUMP JUMPDEST JUMPDEST PUSH1 0x0 PUSH2 0x97D DUP5 DUP3 DUP6 ADD PUSH2 0x944 JUMP JUMPDEST SWAP2 POP POP SWAP3 SWAP2 POP POP JUMP JUMPDEST PUSH1 0x0 DUP2 MLOAD SWAP1 POP SWAP2 SWAP1 POP JUMP JUMPDEST PUSH1 0x0 DUP3 DUP3 MSTORE PUSH1 0x20 DUP3 ADD SWAP1 POP SWAP3 SWAP2 POP POP JUMP JUMPDEST PUSH1 0x0 JUMPDEST DUP4 DUP2 LT ISZERO PUSH2 0x9C0 JUMPI DUP1 DUP3 ADD MLOAD DUP2 DUP5 ADD MSTORE PUSH1 0x20 DUP2 ADD SWAP1 POP PUSH2 0x9A5 JUMP JUMPDEST PUSH1 0x0 DUP5 DUP5 ADD MSTORE POP POP POP POP JUMP JUMPDEST PUSH1 0x0 PUSH1 0x1F NOT PUSH1 0x1F DUP4 ADD AND SWAP1 POP SWAP2 SWAP1 POP JUMP JUMPDEST PUSH1 0x0 PUSH2 0x9E8 DUP3 PUSH2 0x986 JUMP JUMPDEST PUSH2 0x9F2 DUP2 DUP6 PUSH2 0x991 JUMP JUMPDEST SWAP4 POP PUSH2 0xA02 DUP2 DUP6 PUSH1 0x20 DUP7 ADD PUSH2 0x9A2 JUMP JUMPDEST PUSH2 0xA0B DUP2 PUSH2 0x9CC JUMP JUMPDEST DUP5 ADD SWAP2 POP POP SWAP3 SWAP2 POP POP JUMP JUMPDEST PUSH1 0x0 PUSH1 0x20 DUP3 ADD SWAP1 POP DUP2 DUP2 SUB PUSH1 0x0 DUP4 ADD MSTORE PUSH2 0xA30 DUP2 DUP5 PUSH2 0x9DD JUMP JUMPDEST SWAP1 POP SWAP3 SWAP2 POP POP JUMP JUMPDEST PUSH1 0x0 DUP1 REVERT JUMPDEST PUSH1 0x0 DUP1 REVERT JUMPDEST PUSH32 0x4E487B7100000000000000000000000000000000000000000000000000000000 PUSH1 0x0 MSTORE PUSH1 0x41 PUSH1 0x4 MSTORE PUSH1 0x24 PUSH1 0x0 REVERT JUMPDEST PUSH2 0xA7A DUP3 PUSH2 0x9CC JUMP JUMPDEST DUP2 ADD DUP2 DUP2 LT PUSH8 0xFFFFFFFFFFFFFFFF DUP3 GT OR ISZERO PUSH2 0xA99 JUMPI PUSH2 0xA98 PUSH2 0xA42 JUMP JUMPDEST JUMPDEST DUP1 PUSH1 0x40 MSTORE POP POP POP JUMP JUMPDEST PUSH1 0x0 PUSH2 0xAAC PUSH2 0x848 JUMP JUMPDEST SWAP1 POP PUSH2 0xAB8 DUP3 DUP3 PUSH2 0xA71 JUMP JUMPDEST SWAP2 SWAP1 POP JUMP JUMPDEST PUSH1 0x0 PUSH8 0xFFFFFFFFFFFFFFFF DUP3 GT ISZERO PUSH2 0xAD8 JUMPI PUSH2 0xAD7 PUSH2 0xA42 JUMP JUMPDEST JUMPDEST PUSH2 0xAE1 DUP3 PUSH2 0x9CC JUMP JUMPDEST SWAP1 POP PUSH1 0x20 DUP2 ADD SWAP1 POP SWAP2 SWAP1 POP JUMP JUMPDEST DUP3 DUP2 DUP4 CALLDATACOPY PUSH1 0x0 DUP4 DUP4 ADD MSTORE POP POP POP JUMP JUMPDEST PUSH1 0x0 PUSH2 0xB10 PUSH2 0xB0B DUP5 PUSH2 0xABD JUMP JUMPDEST PUSH2 0xAA2 JUMP JUMPDEST SWAP1 POP DUP3 DUP2 MSTORE PUSH1 0x20 DUP2 ADD DUP5 DUP5 DUP5 ADD GT ISZERO PUSH2 0xB2C JUMPI PUSH2 0xB2B PUSH2 0xA3D JUMP JUMPDEST JUMPDEST PUSH2 0xB37 DUP5 DUP3 DUP6 PUSH2 0xAEE JUMP JUMPDEST POP SWAP4 SWAP3 POP POP POP JUMP JUMPDEST PUSH1 0x0 DUP3 PUSH1 0x1F DUP4 ADD SLT PUSH2 0xB54 JUMPI PUSH2 0xB53 PUSH2 0xA38 JUMP JUMPDEST JUMPDEST DUP2 CALLDATALOAD PUSH2 0xB64 DUP5 DUP3 PUSH1 0x20 DUP7 ADD PUSH2 0xAFD JUMP JUMPDEST SWAP2 POP POP SWAP3 SWAP2 POP POP JUMP JUMPDEST PUSH1 0x0 PUSH1 0x20 DUP3 DUP5 SUB SLT ISZERO PUSH2 0xB83 JUMPI PUSH2 0xB82 PUSH2 0x852 JUMP JUMPDEST JUMPDEST PUSH1 0x0 DUP3 ADD CALLDATALOAD PUSH8 0xFFFFFFFFFFFFFFFF DUP2 GT ISZERO PUSH2 0xBA1 JUMPI PUSH2 0xBA0 PUSH2 0x857 JUMP JUMPDEST JUMPDEST PUSH2 0xBAD DUP5 DUP3 DUP6 ADD PUSH2 0xB3F JUMP JUMPDEST SWAP2 POP POP SWAP3 SWAP2 POP POP JUMP JUMPDEST PUSH2 0xBBF DUP2 PUSH2 0x8DF JUMP JUMPDEST DUP2 EQ PUSH2 0xBCA JUMPI PUSH1 0x0 DUP1 REVERT JUMPDEST POP JUMP JUMPDEST PUSH1 0x0 DUP2 CALLDATALOAD SWAP1 POP PUSH2 0xBDC DUP2 PUSH2 0xBB6 JUMP JUMPDEST SWAP3 SWAP2 POP POP JUMP JUMPDEST PUSH1 0x0 PUSH1 0x20 DUP3 DUP5 SUB SLT ISZERO PUSH2 0xBF8 JUMPI PUSH2 0xBF7 PUSH2 0x852 JUMP JUMPDEST JUMPDEST PUSH1 0x0 PUSH2 0xC06 DUP5 DUP3 DUP6 ADD PUSH2 0xBCD JUMP JUMPDEST SWAP2 POP POP SWAP3 SWAP2 POP POP JUMP JUMPDEST PUSH1 0x0 DUP2 ISZERO ISZERO SWAP1 POP SWAP2 SWAP1 POP JUMP JUMPDEST PUSH2 0xC24 DUP2 PUSH2 0xC0F JUMP JUMPDEST DUP3 MSTORE POP POP JUMP JUMPDEST PUSH1 0x0 PUSH1 0x20 DUP3 ADD SWAP1 POP PUSH2 0xC3F PUSH1 0x0 DUP4 ADD DUP5 PUSH2 0xC1B JUMP JUMPDEST SWAP3 SWAP2 POP POP JUMP JUMPDEST PUSH1 0x0 DUP2 SWAP1 POP SWAP2 SWAP1 POP JUMP JUMPDEST PUSH2 0xC58 DUP2 PUSH2 0xC45 JUMP JUMPDEST DUP2 EQ PUSH2 0xC63 JUMPI PUSH1 0x0 DUP1 REVERT JUMPDEST POP JUMP JUMPDEST PUSH1 0x0 DUP2 CALLDATALOAD SWAP1 POP PUSH2 0xC75 DUP2 PUSH2 0xC4F JUMP JUMPDEST SWAP3 SWAP2 POP POP JUMP JUMPDEST PUSH1 0x0 PUSH1 0x20 DUP3 DUP5 SUB SLT ISZERO PUSH2 0xC91 JUMPI PUSH2 0xC90 PUSH2 0x852 JUMP JUMPDEST JUMPDEST PUSH1 0x0 PUSH2 0xC9F DUP5 DUP3 DUP6 ADD PUSH2 0xC66 JUMP JUMPDEST SWAP2 POP POP SWAP3 SWAP2 POP POP JUMP JUMPDEST PUSH1 0x0 DUP2 PUSH1 0x60 SHL SWAP1 POP SWAP2 SWAP1 POP JUMP JUMPDEST PUSH1 0x0 PUSH2 0xCC0 DUP3 PUSH2 0xCA8 JUMP JUMPDEST SWAP1 POP SWAP2 SWAP1 POP JUMP JUMPDEST PUSH1 0x0 PUSH2 0xCD2 DUP3 PUSH2 0xCB5 JUMP JUMPDEST SWAP1 POP SWAP2 SWAP1 POP JUMP JUMPDEST PUSH2 0xCEA PUSH2 0xCE5 DUP3 PUSH2 0x91B JUMP JUMPDEST PUSH2 0xCC7 JUMP JUMPDEST DUP3 MSTORE POP POP JUMP JUMPDEST PUSH1 0x0 PUSH2 0xCFC DUP3 DUP5 PUSH2 0xCD9 JUMP JUMPDEST PUSH1 0x14 DUP3 ADD SWAP2 POP DUP2 SWAP1 POP SWAP3 SWAP2 POP POP JUMP JUMPDEST PUSH1 0x0 DUP2 SWAP1 POP SWAP2 SWAP1 POP JUMP JUMPDEST PUSH2 0xD26 PUSH2 0xD21 DUP3 PUSH2 0x85C JUMP JUMPDEST PUSH2 0xD0B JUMP JUMPDEST DUP3 MSTORE POP POP JUMP JUMPDEST PUSH1 0x0 PUSH2 0xD38 DUP3 DUP5 PUSH2 0xD15 JUMP JUMPDEST PUSH1 0x20 DUP3 ADD SWAP2 POP DUP2 SWAP1 POP SWAP3 SWAP2 POP POP JUMP JUMPDEST PUSH32 0x4E487B7100000000000000000000000000000000000000000000000000000000 PUSH1 0x0 MSTORE PUSH1 0x11 PUSH1 0x4 MSTORE PUSH1 0x24 PUSH1 0x0 REVERT JUMPDEST PUSH1 0x0 PUSH2 0xD81 DUP3 PUSH2 0x85C JUMP JUMPDEST SWAP2 POP PUSH2 0xD8C DUP4 PUSH2 0x85C JUMP JUMPDEST SWAP3 POP DUP3 DUP3 MUL PUSH2 0xD9A DUP2 PUSH2 0x85C JUMP JUMPDEST SWAP2 POP DUP3 DUP3 DIV DUP5 EQ DUP4 ISZERO OR PUSH2 0xDB1 JUMPI PUSH2 0xDB0 PUSH2 0xD47 JUMP JUMPDEST JUMPDEST POP SWAP3 SWAP2 POP POP JUMP JUMPDEST PUSH1 0x0 PUSH2 0xDC3 DUP3 PUSH2 0x85C JUMP JUMPDEST SWAP2 POP PUSH2 0xDCE DUP4 PUSH2 0x85C JUMP JUMPDEST SWAP3 POP DUP3 DUP3 ADD SWAP1 POP DUP1 DUP3 GT ISZERO PUSH2 0xDE6 JUMPI PUSH2 0xDE5 PUSH2 0xD47 JUMP JUMPDEST JUMPDEST SWAP3 SWAP2 POP POP JUMP JUMPDEST PUSH32 0x4E487B7100000000000000000000000000000000000000000000000000000000 PUSH1 0x0 MSTORE PUSH1 0x32 PUSH1 0x4 MSTORE PUSH1 0x24 PUSH1 0x0 REVERT JUMPDEST PUSH1 0x0 PUSH2 0xE26 DUP3 PUSH2 0x85C JUMP JUMPDEST SWAP2 POP PUSH32 0xFFFFFFFFFFFFFFFFFFFFFFFFFFFFFFFFFFFFFFFFFFFFFFFFFFFFFFFFFFFFFFFF DUP3 SUB PUSH2 0xE58 JUMPI PUSH2 0xE57 PUSH2 0xD47 JUMP JUMPDEST JUMPDEST PUSH1 0x1 DUP3 ADD SWAP1 POP SWAP2 SWAP1 POP JUMP JUMPDEST PUSH32 0x5468697320616464726573732068617320616C726561647920656E7465726564 PUSH1 0x0 DUP3 ADD MSTORE PUSH32 0x20746865206C6F74746572792E00000000000000000000000000000000000000 PUSH1 0x20 DUP3 ADD MSTORE POP JUMP JUMPDEST PUSH1 0x0 PUSH2 0xEBF PUSH1 0x2D DUP4 PUSH2 0x991 JUMP JUMPDEST SWAP2 POP PUSH2 0xECA DUP3 PUSH2 0xE63 JUMP JUMPDEST PUSH1 0x40 DUP3 ADD SWAP1 POP SWAP2 SWAP1 POP JUMP JUMPDEST PUSH1 0x0 PUSH1 0x20 DUP3 ADD SWAP1 POP DUP2 DUP2 SUB PUSH1 0x0 DUP4 ADD MSTORE PUSH2 0xEEE DUP2 PUSH2 0xEB2 JUMP JUMPDEST SWAP1 POP SWAP2 SWAP1 POP JUMP JUMPDEST PUSH1 0x0 DUP2 SWAP1 POP SWAP2 SWAP1 POP JUMP JUMPDEST PUSH2 0xF10 PUSH2 0xF0B DUP3 PUSH2 0xC45 JUMP JUMPDEST PUSH2 0xEF5 JUMP JUMPDEST DUP3 MSTORE POP POP JUMP JUMPDEST PUSH1 0x0 PUSH2 0xF22 DUP3 DUP5 PUSH2 0xEFF JUMP JUMPDEST PUSH1 0x20 DUP3 ADD SWAP2 POP DUP2 SWAP1 POP SWAP3 SWAP2 POP POP JUMP INVALID LOG2 PUSH5 0x6970667358 0x22 SLT KECCAK256 SLOAD 0xD5 0xDE CALLCODE SWAP9 ISZERO 0xEB 0xB1 PUSH14 0xA6E73D26B6BD37DBCB35DA566A46 PUSH2 0xA65A PUSH14 0x78AA6A211764736F6C6343000811 STOP CALLER "
				},
				"gasEstimates": {
					"creation": {
						"codeDepositCost": "788600",
						"executionCost": "825",
						"totalCost": "789425"
					},
					"external": {
						"chooseWinner()": "infinite",
						"isAddressPlaying(address)": "2883",
						"list_playerAddress(uint256)": "4957",
						"map_isPlaying(address)": "2911",
						"registerAddress(address)": "75672",
						"toString(address)": "infinite",
						"toString(bytes)": "infinite",
						"toString(bytes32)": "infinite",
						"toString(uint256)": "infinite"
					}
				},
				"methodIdentifiers": {
					"chooseWinner()": "cd38aa87",
					"isAddressPlaying(address)": "912a90bb",
					"list_playerAddress(uint256)": "27dff143",
					"map_isPlaying(address)": "bff82dee",
					"registerAddress(address)": "a8a54008",
					"toString(address)": "56ca623e",
					"toString(bytes)": "71aad10d",
					"toString(bytes32)": "b11a19e8",
					"toString(uint256)": "6900a3ae"
				}
			},
			"storageLayout": {
				"storage": [
					{
						"astId": 6,
						"contract": "contracts/lottery.sol:Lottery",
						"label": "map_isPlaying",
						"offset": 0,
						"slot": "0",
						"type": "t_mapping(t_address,t_bool)"
					},
					{
						"astId": 9,
						"contract": "contracts/lottery.sol:Lottery",
						"label": "list_playerAddress",
						"offset": 0,
						"slot": "1",
						"type": "t_array(t_address_payable)dyn_storage"
					}
				],
				"types": {
					"t_address": {
						"encoding": "inplace",
						"label": "address",
						"numberOfBytes": "20"
					},
					"t_address_payable": {
						"encoding": "inplace",
						"label": "address payable",
						"numberOfBytes": "20"
					},
					"t_array(t_address_payable)dyn_storage": {
						"base": "t_address_payable",
						"encoding": "dynamic_array",
						"label": "address payable[]",
						"numberOfBytes": "32"
					},
					"t_bool": {
						"encoding": "inplace",
						"label": "bool",
						"numberOfBytes": "1"
					},
					"t_mapping(t_address,t_bool)": {
						"encoding": "mapping",
						"key": "t_address",
						"label": "mapping(address => bool)",
						"numberOfBytes": "32",
						"value": "t_bool"
					}
				}
			},
			"userdoc": {
				"kind": "user",
				"methods": {},
				"version": 1
			}
		}
	}
}