{
	"contracts/lottery.sol": {
		"Lottery": {
			"abi": [
				{
					"inputs": [],
					"stateMutability": "payable",
					"type": "constructor"
				},
				{
					"inputs": [],
					"name": "chooseWinningAddress",
					"outputs": [
						{
							"internalType": "address payable",
							"name": "",
							"type": "address"
						}
					],
					"stateMutability": "view",
					"type": "function"
				},
				{
					"inputs": [],
					"name": "endLottery",
					"outputs": [],
					"stateMutability": "nonpayable",
					"type": "function"
				},
				{
					"inputs": [],
					"name": "fundContract",
					"outputs": [],
					"stateMutability": "payable",
					"type": "function"
				},
				{
					"inputs": [],
					"name": "fundLottery",
					"outputs": [],
					"stateMutability": "payable",
					"type": "function"
				},
				{
					"inputs": [],
					"name": "getBalance",
					"outputs": [
						{
							"internalType": "uint256",
							"name": "",
							"type": "uint256"
						}
					],
					"stateMutability": "view",
					"type": "function"
				},
				{
					"inputs": [
						{
							"internalType": "address payable",
							"name": "playerAddress",
							"type": "address"
						}
					],
					"name": "isAddressPlaying",
					"outputs": [
						{
							"internalType": "bool",
							"name": "",
							"type": "bool"
						}
					],
					"stateMutability": "view",
					"type": "function"
				},
				{
					"inputs": [
						{
							"internalType": "uint256",
							"name": "",
							"type": "uint256"
						}
					],
					"name": "list_playerAddress",
					"outputs": [
						{
							"internalType": "address payable",
							"name": "",
							"type": "address"
						}
					],
					"stateMutability": "view",
					"type": "function"
				},
				{
					"inputs": [
						{
							"internalType": "address",
							"name": "",
							"type": "address"
						}
					],
					"name": "map_isPlaying",
					"outputs": [
						{
							"internalType": "bool",
							"name": "",
							"type": "bool"
						}
					],
					"stateMutability": "view",
					"type": "function"
				},
				{
					"inputs": [
						{
							"internalType": "uint256",
							"name": "N",
							"type": "uint256"
						}
					],
					"name": "randomInt",
					"outputs": [
						{
							"internalType": "uint256",
							"name": "",
							"type": "uint256"
						}
					],
					"stateMutability": "view",
					"type": "function"
				},
				{
					"inputs": [
						{
							"internalType": "address payable",
							"name": "playerAddress",
							"type": "address"
						}
					],
					"name": "registerAddress",
					"outputs": [],
					"stateMutability": "nonpayable",
					"type": "function"
				},
				{
					"inputs": [
						{
							"internalType": "uint256",
							"name": "amount",
							"type": "uint256"
						}
					],
					"name": "withdraw",
					"outputs": [],
					"stateMutability": "nonpayable",
					"type": "function"
				},
				{
					"inputs": [],
					"name": "withdrawAll",
					"outputs": [],
					"stateMutability": "nonpayable",
					"type": "function"
				}
			],
			"devdoc": {
				"custom:dev-run-script": "./scripts/deploy_with_ethers.ts",
				"details": "A blockchain lottery",
				"kind": "dev",
				"methods": {},
				"title": "Lottery",
				"version": 1
			},
			"evm": {
				"assembly": "    /* \"contracts/lottery.sol\":248:5301  contract Lottery {... */\n  mstore(0x40, 0x80)\n  dataSize(sub_0)\n  dup1\n  dataOffset(sub_0)\n  0x00\n  codecopy\n  0x00\n  return\nstop\n\nsub_0: assembly {\n        /* \"contracts/lottery.sol\":248:5301  contract Lottery {... */\n      mstore(0x40, 0x80)\n      jumpi(tag_1, lt(calldatasize, 0x04))\n      shr(0xe0, calldataload(0x00))\n      dup1\n      0x853828b6\n      gt\n      tag_14\n      jumpi\n      dup1\n      0x853828b6\n      eq\n      tag_8\n      jumpi\n      dup1\n      0x912a90bb\n      eq\n      tag_9\n      jumpi\n      dup1\n      0xa8a54008\n      eq\n      tag_10\n      jumpi\n      dup1\n      0xb5cc4539\n      eq\n      tag_11\n      jumpi\n      dup1\n      0xbd097e21\n      eq\n      tag_12\n      jumpi\n      dup1\n      0xbff82dee\n      eq\n      tag_13\n      jumpi\n      jump(tag_1)\n    tag_14:\n      dup1\n      0x12065fe0\n      eq\n      tag_2\n      jumpi\n      dup1\n      0x12845966\n      eq\n      tag_3\n      jumpi\n      dup1\n      0x1593a8c7\n      eq\n      tag_4\n      jumpi\n      dup1\n      0x27dff143\n      eq\n      tag_5\n      jumpi\n      dup1\n      0x2e1a7d4d\n      eq\n      tag_6\n      jumpi\n      dup1\n      0x7f798243\n      eq\n      tag_7\n      jumpi\n    tag_1:\n      0x00\n      dup1\n      revert\n        /* \"contracts/lottery.sol\":4061:4157  function getBalance() public view returns (uint) {... */\n    tag_2:\n      callvalue\n      dup1\n      iszero\n      tag_15\n      jumpi\n      0x00\n      dup1\n      revert\n    tag_15:\n      pop\n      tag_16\n      tag_17\n      jump\t// in\n    tag_16:\n      mload(0x40)\n      tag_18\n      swap2\n      swap1\n      tag_19\n      jump\t// in\n    tag_18:\n      mload(0x40)\n      dup1\n      swap2\n      sub\n      swap1\n      return\n        /* \"contracts/lottery.sol\":4165:4406  function randomInt(uint N) public view returns (uint) {... */\n    tag_3:\n      callvalue\n      dup1\n      iszero\n      tag_20\n      jumpi\n      0x00\n      dup1\n      revert\n    tag_20:\n      pop\n      tag_21\n      0x04\n      dup1\n      calldatasize\n      sub\n      dup2\n      add\n      swap1\n      tag_22\n      swap2\n      swap1\n      tag_23\n      jump\t// in\n    tag_22:\n      tag_24\n      jump\t// in\n    tag_21:\n      mload(0x40)\n      tag_25\n      swap2\n      swap1\n      tag_19\n      jump\t// in\n    tag_25:\n      mload(0x40)\n      dup1\n      swap2\n      sub\n      swap1\n      return\n        /* \"contracts/lottery.sol\":2674:3263  function endLottery() public {... */\n    tag_4:\n      callvalue\n      dup1\n      iszero\n      tag_26\n      jumpi\n      0x00\n      dup1\n      revert\n    tag_26:\n      pop\n      tag_27\n      tag_28\n      jump\t// in\n    tag_27:\n      stop\n        /* \"contracts/lottery.sol\":788:831  address payable[] public list_playerAddress */\n    tag_5:\n      callvalue\n      dup1\n      iszero\n      tag_29\n      jumpi\n      0x00\n      dup1\n      revert\n    tag_29:\n      pop\n      tag_30\n      0x04\n      dup1\n      calldatasize\n      sub\n      dup2\n      add\n      swap1\n      tag_31\n      swap2\n      swap1\n      tag_23\n      jump\t// in\n    tag_31:\n      tag_32\n      jump\t// in\n    tag_30:\n      mload(0x40)\n      tag_33\n      swap2\n      swap1\n      tag_34\n      jump\t// in\n    tag_33:\n      mload(0x40)\n      dup1\n      swap2\n      sub\n      swap1\n      return\n        /* \"contracts/lottery.sol\":3690:4053  function withdraw(uint amount) public {... */\n    tag_6:\n      callvalue\n      dup1\n      iszero\n      tag_35\n      jumpi\n      0x00\n      dup1\n      revert\n    tag_35:\n      pop\n      tag_36\n      0x04\n      dup1\n      calldatasize\n      sub\n      dup2\n      add\n      swap1\n      tag_37\n      swap2\n      swap1\n      tag_23\n      jump\t// in\n    tag_37:\n      tag_38\n      jump\t// in\n    tag_36:\n      stop\n        /* \"contracts/lottery.sol\":1871:2666  function chooseWinningAddress() public view returns (address payable) {... */\n    tag_7:\n      callvalue\n      dup1\n      iszero\n      tag_39\n      jumpi\n      0x00\n      dup1\n      revert\n    tag_39:\n      pop\n      tag_40\n      tag_41\n      jump\t// in\n    tag_40:\n      mload(0x40)\n      tag_42\n      swap2\n      swap1\n      tag_34\n      jump\t// in\n    tag_42:\n      mload(0x40)\n      dup1\n      swap2\n      sub\n      swap1\n      return\n        /* \"contracts/lottery.sol\":3529:3682  function withdrawAll() public {... */\n    tag_8:\n      callvalue\n      dup1\n      iszero\n      tag_43\n      jumpi\n      0x00\n      dup1\n      revert\n    tag_43:\n      pop\n      tag_44\n      tag_45\n      jump\t// in\n    tag_44:\n      stop\n        /* \"contracts/lottery.sol\":1725:1863  function isAddressPlaying(address payable playerAddress) public view returns (bool) {... */\n    tag_9:\n      callvalue\n      dup1\n      iszero\n      tag_46\n      jumpi\n      0x00\n      dup1\n      revert\n    tag_46:\n      pop\n      tag_47\n      0x04\n      dup1\n      calldatasize\n      sub\n      dup2\n      add\n      swap1\n      tag_48\n      swap2\n      swap1\n      tag_49\n      jump\t// in\n    tag_48:\n      tag_50\n      jump\t// in\n    tag_47:\n      mload(0x40)\n      tag_51\n      swap2\n      swap1\n      tag_52\n      jump\t// in\n    tag_51:\n      mload(0x40)\n      dup1\n      swap2\n      sub\n      swap1\n      return\n        /* \"contracts/lottery.sol\":1243:1713  function registerAddress(address payable playerAddress) public {... */\n    tag_10:\n      callvalue\n      dup1\n      iszero\n      tag_53\n      jumpi\n      0x00\n      dup1\n      revert\n    tag_53:\n      pop\n      tag_54\n      0x04\n      dup1\n      calldatasize\n      sub\n      dup2\n      add\n      swap1\n      tag_55\n      swap2\n      swap1\n      tag_49\n      jump\t// in\n    tag_55:\n      tag_56\n      jump\t// in\n    tag_54:\n      stop\n        /* \"contracts/lottery.sol\":872:1235  function fundLottery() external payable {... */\n    tag_11:\n      tag_57\n      tag_58\n      jump\t// in\n    tag_57:\n      stop\n        /* \"contracts/lottery.sol\":3271:3521  function fundContract() external payable {... */\n    tag_12:\n      tag_59\n      tag_60\n      jump\t// in\n    tag_59:\n      stop\n        /* \"contracts/lottery.sol\":736:781  mapping(address => bool) public map_isPlaying */\n    tag_13:\n      callvalue\n      dup1\n      iszero\n      tag_61\n      jumpi\n      0x00\n      dup1\n      revert\n    tag_61:\n      pop\n      tag_62\n      0x04\n      dup1\n      calldatasize\n      sub\n      dup2\n      add\n      swap1\n      tag_63\n      swap2\n      swap1\n      tag_64\n      jump\t// in\n    tag_63:\n      tag_65\n      jump\t// in\n    tag_62:\n      mload(0x40)\n      tag_66\n      swap2\n      swap1\n      tag_52\n      jump\t// in\n    tag_66:\n      mload(0x40)\n      dup1\n      swap2\n      sub\n      swap1\n      return\n        /* \"contracts/lottery.sol\":4061:4157  function getBalance() public view returns (uint) {... */\n    tag_17:\n        /* \"contracts/lottery.sol\":4104:4108  uint */\n      0x00\n        /* \"contracts/lottery.sol\":4128:4149  address(this).balance */\n      selfbalance\n        /* \"contracts/lottery.sol\":4121:4149  return address(this).balance */\n      swap1\n      pop\n        /* \"contracts/lottery.sol\":4061:4157  function getBalance() public view returns (uint) {... */\n      swap1\n      jump\t// out\n        /* \"contracts/lottery.sol\":4165:4406  function randomInt(uint N) public view returns (uint) {... */\n    tag_24:\n        /* \"contracts/lottery.sol\":4213:4217  uint */\n      0x00\n        /* \"contracts/lottery.sol\":4280:4295  uint randomHash */\n      dup1\n        /* \"contracts/lottery.sol\":4330:4346  block.difficulty */\n      difficulty\n        /* \"contracts/lottery.sol\":4348:4363  block.timestamp */\n      timestamp\n        /* \"contracts/lottery.sol\":4313:4364  abi.encodePacked(block.difficulty, block.timestamp) */\n      add(0x20, mload(0x40))\n      tag_69\n      swap3\n      swap2\n      swap1\n      tag_70\n      jump\t// in\n    tag_69:\n      mload(0x40)\n      0x20\n      dup2\n      dup4\n      sub\n      sub\n      dup2\n      mstore\n      swap1\n      0x40\n      mstore\n        /* \"contracts/lottery.sol\":4303:4365  keccak256(abi.encodePacked(block.difficulty, block.timestamp)) */\n      dup1\n      mload\n      swap1\n      0x20\n      add\n      keccak256\n        /* \"contracts/lottery.sol\":4298:4366  uint(keccak256(abi.encodePacked(block.difficulty, block.timestamp))) */\n      0x00\n      shr\n        /* \"contracts/lottery.sol\":4280:4366  uint randomHash = uint(keccak256(abi.encodePacked(block.difficulty, block.timestamp))) */\n      swap1\n      pop\n        /* \"contracts/lottery.sol\":4397:4398  N */\n      dup3\n        /* \"contracts/lottery.sol\":4384:4394  randomHash */\n      dup2\n        /* \"contracts/lottery.sol\":4384:4398  randomHash % N */\n      tag_71\n      swap2\n      swap1\n      tag_72\n      jump\t// in\n    tag_71:\n        /* \"contracts/lottery.sol\":4377:4398  return randomHash % N */\n      swap2\n      pop\n      pop\n        /* \"contracts/lottery.sol\":4165:4406  function randomInt(uint N) public view returns (uint) {... */\n      swap2\n      swap1\n      pop\n      jump\t// out\n        /* \"contracts/lottery.sol\":2674:3263  function endLottery() public {... */\n    tag_28:\n        /* \"contracts/lottery.sol\":2714:2744  address payable winningAddress */\n      0x00\n        /* \"contracts/lottery.sol\":2747:2769  chooseWinningAddress() */\n      tag_74\n        /* \"contracts/lottery.sol\":2747:2767  chooseWinningAddress */\n      tag_41\n        /* \"contracts/lottery.sol\":2747:2769  chooseWinningAddress() */\n      jump\t// in\n    tag_74:\n        /* \"contracts/lottery.sol\":2714:2769  address payable winningAddress = chooseWinningAddress() */\n      swap1\n      pop\n        /* \"contracts/lottery.sol\":319:361  0x0000000000000000000000000000000000000000 */\n      0x00\n        /* \"contracts/lottery.sol\":2783:2812  winningAddress == zeroAddress */\n      0xffffffffffffffffffffffffffffffffffffffff\n      and\n        /* \"contracts/lottery.sol\":2783:2797  winningAddress */\n      dup2\n        /* \"contracts/lottery.sol\":2783:2812  winningAddress == zeroAddress */\n      0xffffffffffffffffffffffffffffffffffffffff\n      and\n      sub\n        /* \"contracts/lottery.sol\":2780:3256  if(winningAddress == zeroAddress) {... */\n      iszero\n      tag_76\n      jumpi\n        /* \"contracts/lottery.sol\":2971:2989  uint operatorPrize */\n      0x00\n        /* \"contracts/lottery.sol\":3019:3022  100 */\n      0x64\n        /* \"contracts/lottery.sol\":601:603  10 */\n      0x0a\n        /* \"contracts/lottery.sol\":2992:3002  totalPrize */\n      sload(0x00)\n        /* \"contracts/lottery.sol\":2992:3016  totalPrize * operatorCut */\n      tag_77\n      swap2\n      swap1\n      tag_78\n      jump\t// in\n    tag_77:\n        /* \"contracts/lottery.sol\":2992:3022  totalPrize * operatorCut / 100 */\n      tag_79\n      swap2\n      swap1\n      tag_80\n      jump\t// in\n    tag_79:\n        /* \"contracts/lottery.sol\":2971:3022  uint operatorPrize = totalPrize * operatorCut / 100 */\n      swap1\n      pop\n        /* \"contracts/lottery.sol\":523:565  0xAb8483F64d9C6d1EcF9b849Ae677dD3315835cb2 */\n      0xab8483f64d9c6d1ecf9b849ae677dd3315835cb2\n        /* \"contracts/lottery.sol\":3037:3061  operatorAddress.transfer */\n      0xffffffffffffffffffffffffffffffffffffffff\n      and\n        /* \"contracts/lottery.sol\":3037:3076  operatorAddress.transfer(operatorPrize) */\n      0x08fc\n        /* \"contracts/lottery.sol\":3062:3075  operatorPrize */\n      dup3\n        /* \"contracts/lottery.sol\":3037:3076  operatorAddress.transfer(operatorPrize) */\n      swap1\n      dup2\n      iszero\n      mul\n      swap1\n      mload(0x40)\n      0x00\n      mload(0x40)\n      dup1\n      dup4\n      sub\n      dup2\n      dup6\n      dup9\n      dup9\n      call\n      swap4\n      pop\n      pop\n      pop\n      pop\n      iszero\n      dup1\n      iszero\n      tag_82\n      jumpi\n      returndatasize\n      0x00\n      dup1\n      returndatacopy\n      revert(0x00, returndatasize)\n    tag_82:\n      pop\n        /* \"contracts/lottery.sol\":3105:3118  operatorPrize */\n      dup1\n        /* \"contracts/lottery.sol\":3091:3101  totalPrize */\n      0x00\n      dup1\n        /* \"contracts/lottery.sol\":3091:3118  totalPrize -= operatorPrize */\n      dup3\n      dup3\n      sload\n      tag_83\n      swap2\n      swap1\n      tag_84\n      jump\t// in\n    tag_83:\n      swap3\n      pop\n      pop\n      dup2\n      swap1\n      sstore\n      pop\n        /* \"contracts/lottery.sol\":3180:3194  winningAddress */\n      dup2\n        /* \"contracts/lottery.sol\":3180:3203  winningAddress.transfer */\n      0xffffffffffffffffffffffffffffffffffffffff\n      and\n        /* \"contracts/lottery.sol\":3180:3215  winningAddress.transfer(totalPrize) */\n      0x08fc\n        /* \"contracts/lottery.sol\":3204:3214  totalPrize */\n      sload(0x00)\n        /* \"contracts/lottery.sol\":3180:3215  winningAddress.transfer(totalPrize) */\n      swap1\n      dup2\n      iszero\n      mul\n      swap1\n      mload(0x40)\n      0x00\n      mload(0x40)\n      dup1\n      dup4\n      sub\n      dup2\n      dup6\n      dup9\n      dup9\n      call\n      swap4\n      pop\n      pop\n      pop\n      pop\n      iszero\n      dup1\n      iszero\n      tag_86\n      jumpi\n      returndatasize\n      0x00\n      dup1\n      returndatacopy\n      revert(0x00, returndatasize)\n    tag_86:\n      pop\n        /* \"contracts/lottery.sol\":3243:3244  0 */\n      0x00\n        /* \"contracts/lottery.sol\":3230:3240  totalPrize */\n      dup1\n        /* \"contracts/lottery.sol\":3230:3244  totalPrize = 0 */\n      dup2\n      swap1\n      sstore\n      pop\n        /* \"contracts/lottery.sol\":2892:3256  {... */\n      pop\n        /* \"contracts/lottery.sol\":2780:3256  if(winningAddress == zeroAddress) {... */\n    tag_76:\n        /* \"contracts/lottery.sol\":2703:3263  {... */\n      pop\n        /* \"contracts/lottery.sol\":2674:3263  function endLottery() public {... */\n      jump\t// out\n        /* \"contracts/lottery.sol\":788:831  address payable[] public list_playerAddress */\n    tag_32:\n      0x02\n      dup2\n      dup2\n      sload\n      dup2\n      lt\n      tag_87\n      jumpi\n      0x00\n      dup1\n      revert\n    tag_87:\n      swap1\n      0x00\n      mstore\n      keccak256(0x00, 0x20)\n      add\n      0x00\n      swap2\n      pop\n      sload\n      swap1\n      0x0100\n      exp\n      swap1\n      div\n      0xffffffffffffffffffffffffffffffffffffffff\n      and\n      dup2\n      jump\t// out\n        /* \"contracts/lottery.sol\":3690:4053  function withdraw(uint amount) public {... */\n    tag_38:\n        /* \"contracts/lottery.sol\":3813:3825  uint balance */\n      0x00\n        /* \"contracts/lottery.sol\":3828:3840  getBalance() */\n      tag_90\n        /* \"contracts/lottery.sol\":3828:3838  getBalance */\n      tag_17\n        /* \"contracts/lottery.sol\":3828:3840  getBalance() */\n      jump\t// in\n    tag_90:\n        /* \"contracts/lottery.sol\":3813:3840  uint balance = getBalance() */\n      swap1\n      pop\n        /* \"contracts/lottery.sol\":3869:3876  balance */\n      dup1\n        /* \"contracts/lottery.sol\":3859:3865  amount */\n      dup3\n        /* \"contracts/lottery.sol\":3859:3876  amount <= balance */\n      gt\n      iszero\n        /* \"contracts/lottery.sol\":3907:3931  Strings.toString(amount) */\n      tag_91\n        /* \"contracts/lottery.sol\":3924:3930  amount */\n      dup4\n        /* \"contracts/lottery.sol\":3907:3923  Strings.toString */\n      tag_92\n        /* \"contracts/lottery.sol\":3907:3931  Strings.toString(amount) */\n      jump\t// in\n    tag_91:\n        /* \"contracts/lottery.sol\":3975:4000  Strings.toString(balance) */\n      tag_93\n        /* \"contracts/lottery.sol\":3992:3999  balance */\n      dup4\n        /* \"contracts/lottery.sol\":3975:3991  Strings.toString */\n      tag_92\n        /* \"contracts/lottery.sol\":3975:4000  Strings.toString(balance) */\n      jump\t// in\n    tag_93:\n        /* \"contracts/lottery.sol\":3878:4001  string.concat(\"The amount \", Strings.toString(amount), \" is greater than the contract balance \", Strings.toString(balance)) */\n      add(0x20, mload(0x40))\n      tag_94\n      swap3\n      swap2\n      swap1\n      tag_95\n      jump\t// in\n    tag_94:\n      mload(0x40)\n      0x20\n      dup2\n      dup4\n      sub\n      sub\n      dup2\n      mstore\n      swap1\n      0x40\n      mstore\n        /* \"contracts/lottery.sol\":3851:4002  require(amount <= balance, string.concat(\"The amount \", Strings.toString(amount), \" is greater than the contract balance \", Strings.toString(balance))) */\n      swap1\n      tag_96\n      jumpi\n      mload(0x40)\n      0x08c379a000000000000000000000000000000000000000000000000000000000\n      dup2\n      mstore\n      0x04\n      add\n      tag_97\n      swap2\n      swap1\n      tag_98\n      jump\t// in\n    tag_97:\n      mload(0x40)\n      dup1\n      swap2\n      sub\n      swap1\n      revert\n    tag_96:\n      pop\n        /* \"contracts/lottery.sol\":523:565  0xAb8483F64d9C6d1EcF9b849Ae677dD3315835cb2 */\n      0xab8483f64d9c6d1ecf9b849ae677dd3315835cb2\n        /* \"contracts/lottery.sol\":4013:4037  operatorAddress.transfer */\n      0xffffffffffffffffffffffffffffffffffffffff\n      and\n        /* \"contracts/lottery.sol\":4013:4045  operatorAddress.transfer(amount) */\n      0x08fc\n        /* \"contracts/lottery.sol\":4038:4044  amount */\n      dup4\n        /* \"contracts/lottery.sol\":4013:4045  operatorAddress.transfer(amount) */\n      swap1\n      dup2\n      iszero\n      mul\n      swap1\n      mload(0x40)\n      0x00\n      mload(0x40)\n      dup1\n      dup4\n      sub\n      dup2\n      dup6\n      dup9\n      dup9\n      call\n      swap4\n      pop\n      pop\n      pop\n      pop\n      iszero\n      dup1\n      iszero\n      tag_100\n      jumpi\n      returndatasize\n      0x00\n      dup1\n      returndatacopy\n      revert(0x00, returndatasize)\n    tag_100:\n      pop\n        /* \"contracts/lottery.sol\":3728:4053  {... */\n      pop\n        /* \"contracts/lottery.sol\":3690:4053  function withdraw(uint amount) public {... */\n      pop\n      jump\t// out\n        /* \"contracts/lottery.sol\":1871:2666  function chooseWinningAddress() public view returns (address payable) {... */\n    tag_41:\n        /* \"contracts/lottery.sol\":1924:1939  address payable */\n      0x00\n        /* \"contracts/lottery.sol\":1952:1967  uint numPlayers */\n      dup1\n        /* \"contracts/lottery.sol\":1970:1988  list_playerAddress */\n      0x02\n        /* \"contracts/lottery.sol\":1970:1995  list_playerAddress.length */\n      dup1\n      sload\n      swap1\n      pop\n        /* \"contracts/lottery.sol\":1952:1995  uint numPlayers = list_playerAddress.length */\n      swap1\n      pop\n        /* \"contracts/lottery.sol\":2006:2017  uint winner */\n      0x00\n        /* \"contracts/lottery.sol\":2126:2127  0 */\n      dup1\n        /* \"contracts/lottery.sol\":2112:2122  numPlayers */\n      dup3\n        /* \"contracts/lottery.sol\":2112:2127  numPlayers == 0 */\n      sub\n        /* \"contracts/lottery.sol\":2109:2613  if(numPlayers == 0) {... */\n      tag_102\n      jumpi\n        /* \"contracts/lottery.sol\":319:361  0x0000000000000000000000000000000000000000 */\n      0x00\n        /* \"contracts/lottery.sol\":2213:2231  return zeroAddress */\n      swap3\n      pop\n      pop\n      pop\n      jump(tag_101)\n        /* \"contracts/lottery.sol\":2109:2613  if(numPlayers == 0) {... */\n    tag_102:\n        /* \"contracts/lottery.sol\":2275:2276  1 */\n      0x01\n        /* \"contracts/lottery.sol\":2261:2271  numPlayers */\n      dup3\n        /* \"contracts/lottery.sol\":2261:2276  numPlayers == 1 */\n      sub\n        /* \"contracts/lottery.sol\":2258:2613  if(numPlayers == 1) {... */\n      tag_104\n      jumpi\n        /* \"contracts/lottery.sol\":2405:2406  0 */\n      0x00\n        /* \"contracts/lottery.sol\":2396:2406  winner = 0 */\n      swap1\n      pop\n        /* \"contracts/lottery.sol\":2258:2613  if(numPlayers == 1) {... */\n      jump(tag_105)\n    tag_104:\n        /* \"contracts/lottery.sol\":2580:2601  randomInt(numPlayers) */\n      tag_106\n        /* \"contracts/lottery.sol\":2590:2600  numPlayers */\n      dup3\n        /* \"contracts/lottery.sol\":2580:2589  randomInt */\n      tag_24\n        /* \"contracts/lottery.sol\":2580:2601  randomInt(numPlayers) */\n      jump\t// in\n    tag_106:\n        /* \"contracts/lottery.sol\":2571:2601  winner = randomInt(numPlayers) */\n      swap1\n      pop\n        /* \"contracts/lottery.sol\":2258:2613  if(numPlayers == 1) {... */\n    tag_105:\n        /* \"contracts/lottery.sol\":2632:2650  list_playerAddress */\n      0x02\n        /* \"contracts/lottery.sol\":2651:2657  winner */\n      dup2\n        /* \"contracts/lottery.sol\":2632:2658  list_playerAddress[winner] */\n      dup2\n      sload\n      dup2\n      lt\n      tag_107\n      jumpi\n      tag_108\n      tag_109\n      jump\t// in\n    tag_108:\n    tag_107:\n      swap1\n      0x00\n      mstore\n      keccak256(0x00, 0x20)\n      add\n      0x00\n      swap1\n      sload\n      swap1\n      0x0100\n      exp\n      swap1\n      div\n      0xffffffffffffffffffffffffffffffffffffffff\n      and\n        /* \"contracts/lottery.sol\":2625:2658  return list_playerAddress[winner] */\n      swap3\n      pop\n      pop\n      pop\n        /* \"contracts/lottery.sol\":1871:2666  function chooseWinningAddress() public view returns (address payable) {... */\n    tag_101:\n      swap1\n      jump\t// out\n        /* \"contracts/lottery.sol\":3529:3682  function withdrawAll() public {... */\n    tag_45:\n        /* \"contracts/lottery.sol\":523:565  0xAb8483F64d9C6d1EcF9b849Ae677dD3315835cb2 */\n      0xab8483f64d9c6d1ecf9b849ae677dd3315835cb2\n        /* \"contracts/lottery.sol\":3636:3660  operatorAddress.transfer */\n      0xffffffffffffffffffffffffffffffffffffffff\n      and\n        /* \"contracts/lottery.sol\":3636:3674  operatorAddress.transfer(getBalance()) */\n      0x08fc\n        /* \"contracts/lottery.sol\":3661:3673  getBalance() */\n      tag_112\n        /* \"contracts/lottery.sol\":3661:3671  getBalance */\n      tag_17\n        /* \"contracts/lottery.sol\":3661:3673  getBalance() */\n      jump\t// in\n    tag_112:\n        /* \"contracts/lottery.sol\":3636:3674  operatorAddress.transfer(getBalance()) */\n      swap1\n      dup2\n      iszero\n      mul\n      swap1\n      mload(0x40)\n      0x00\n      mload(0x40)\n      dup1\n      dup4\n      sub\n      dup2\n      dup6\n      dup9\n      dup9\n      call\n      swap4\n      pop\n      pop\n      pop\n      pop\n      iszero\n      dup1\n      iszero\n      tag_114\n      jumpi\n      returndatasize\n      0x00\n      dup1\n      returndatacopy\n      revert(0x00, returndatasize)\n    tag_114:\n      pop\n        /* \"contracts/lottery.sol\":3529:3682  function withdrawAll() public {... */\n      jump\t// out\n        /* \"contracts/lottery.sol\":1725:1863  function isAddressPlaying(address payable playerAddress) public view returns (bool) {... */\n    tag_50:\n        /* \"contracts/lottery.sol\":1803:1807  bool */\n      0x00\n        /* \"contracts/lottery.sol\":1827:1840  map_isPlaying */\n      0x01\n        /* \"contracts/lottery.sol\":1827:1855  map_isPlaying[playerAddress] */\n      0x00\n        /* \"contracts/lottery.sol\":1841:1854  playerAddress */\n      dup4\n        /* \"contracts/lottery.sol\":1827:1855  map_isPlaying[playerAddress] */\n      0xffffffffffffffffffffffffffffffffffffffff\n      and\n      0xffffffffffffffffffffffffffffffffffffffff\n      and\n      dup2\n      mstore\n      0x20\n      add\n      swap1\n      dup2\n      mstore\n      0x20\n      add\n      0x00\n      keccak256\n      0x00\n      swap1\n      sload\n      swap1\n      0x0100\n      exp\n      swap1\n      div\n      0xff\n      and\n        /* \"contracts/lottery.sol\":1820:1855  return map_isPlaying[playerAddress] */\n      swap1\n      pop\n        /* \"contracts/lottery.sol\":1725:1863  function isAddressPlaying(address payable playerAddress) public view returns (bool) {... */\n      swap2\n      swap1\n      pop\n      jump\t// out\n        /* \"contracts/lottery.sol\":1243:1713  function registerAddress(address payable playerAddress) public {... */\n    tag_56:\n        /* \"contracts/lottery.sol\":1422:1436  bool isPlaying */\n      0x00\n        /* \"contracts/lottery.sol\":1439:1452  map_isPlaying */\n      0x01\n        /* \"contracts/lottery.sol\":1439:1467  map_isPlaying[playerAddress] */\n      0x00\n        /* \"contracts/lottery.sol\":1453:1466  playerAddress */\n      dup4\n        /* \"contracts/lottery.sol\":1439:1467  map_isPlaying[playerAddress] */\n      0xffffffffffffffffffffffffffffffffffffffff\n      and\n      0xffffffffffffffffffffffffffffffffffffffff\n      and\n      dup2\n      mstore\n      0x20\n      add\n      swap1\n      dup2\n      mstore\n      0x20\n      add\n      0x00\n      keccak256\n      0x00\n      swap1\n      sload\n      swap1\n      0x0100\n      exp\n      swap1\n      div\n      0xff\n      and\n        /* \"contracts/lottery.sol\":1422:1467  bool isPlaying = map_isPlaying[playerAddress] */\n      swap1\n      pop\n        /* \"contracts/lottery.sol\":1487:1496  isPlaying */\n      dup1\n        /* \"contracts/lottery.sol\":1486:1496  !isPlaying */\n      iszero\n        /* \"contracts/lottery.sol\":1478:1546  require(!isPlaying, \"This address has already entered the lottery.\") */\n      tag_117\n      jumpi\n      mload(0x40)\n      0x08c379a000000000000000000000000000000000000000000000000000000000\n      dup2\n      mstore\n      0x04\n      add\n      tag_118\n      swap1\n      tag_119\n      jump\t// in\n    tag_118:\n      mload(0x40)\n      dup1\n      swap2\n      sub\n      swap1\n      revert\n    tag_117:\n        /* \"contracts/lottery.sol\":1652:1656  true */\n      0x01\n        /* \"contracts/lottery.sol\":1621:1634  map_isPlaying */\n      dup1\n        /* \"contracts/lottery.sol\":1621:1649  map_isPlaying[playerAddress] */\n      0x00\n        /* \"contracts/lottery.sol\":1635:1648  playerAddress */\n      dup5\n        /* \"contracts/lottery.sol\":1621:1649  map_isPlaying[playerAddress] */\n      0xffffffffffffffffffffffffffffffffffffffff\n      and\n      0xffffffffffffffffffffffffffffffffffffffff\n      and\n      dup2\n      mstore\n      0x20\n      add\n      swap1\n      dup2\n      mstore\n      0x20\n      add\n      0x00\n      keccak256\n      0x00\n        /* \"contracts/lottery.sol\":1621:1656  map_isPlaying[playerAddress] = true */\n      0x0100\n      exp\n      dup2\n      sload\n      dup2\n      0xff\n      mul\n      not\n      and\n      swap1\n      dup4\n      iszero\n      iszero\n      mul\n      or\n      swap1\n      sstore\n      pop\n        /* \"contracts/lottery.sol\":1667:1685  list_playerAddress */\n      0x02\n        /* \"contracts/lottery.sol\":1691:1704  playerAddress */\n      dup3\n        /* \"contracts/lottery.sol\":1667:1705  list_playerAddress.push(playerAddress) */\n      swap1\n      dup1\n      0x01\n      dup2\n      sload\n      add\n      dup1\n      dup3\n      sstore\n      dup1\n      swap2\n      pop\n      pop\n      0x01\n      swap1\n      sub\n      swap1\n      0x00\n      mstore\n      keccak256(0x00, 0x20)\n      add\n      0x00\n      swap1\n      swap2\n      swap1\n      swap2\n      swap1\n      swap2\n      0x0100\n      exp\n      dup2\n      sload\n      dup2\n      0xffffffffffffffffffffffffffffffffffffffff\n      mul\n      not\n      and\n      swap1\n      dup4\n      0xffffffffffffffffffffffffffffffffffffffff\n      and\n      mul\n      or\n      swap1\n      sstore\n      pop\n        /* \"contracts/lottery.sol\":1306:1713  {... */\n      pop\n        /* \"contracts/lottery.sol\":1243:1713  function registerAddress(address payable playerAddress) public {... */\n      pop\n      jump\t// out\n        /* \"contracts/lottery.sol\":872:1235  function fundLottery() external payable {... */\n    tag_58:\n        /* \"contracts/lottery.sol\":1171:1180  msg.value */\n      callvalue\n        /* \"contracts/lottery.sol\":1157:1167  totalPrize */\n      0x00\n      dup1\n        /* \"contracts/lottery.sol\":1157:1180  totalPrize += msg.value */\n      dup3\n      dup3\n      sload\n      tag_122\n      swap2\n      swap1\n      tag_123\n      jump\t// in\n    tag_122:\n      swap3\n      pop\n      pop\n      dup2\n      swap1\n      sstore\n      pop\n        /* \"contracts/lottery.sol\":1191:1227  registerAddress(payable(msg.sender)) */\n      tag_124\n        /* \"contracts/lottery.sol\":1215:1225  msg.sender */\n      caller\n        /* \"contracts/lottery.sol\":1191:1206  registerAddress */\n      tag_56\n        /* \"contracts/lottery.sol\":1191:1227  registerAddress(payable(msg.sender)) */\n      jump\t// in\n    tag_124:\n        /* \"contracts/lottery.sol\":872:1235  function fundLottery() external payable {... */\n      jump\t// out\n        /* \"contracts/lottery.sol\":3271:3521  function fundContract() external payable {... */\n    tag_60:\n      jump\t// out\n        /* \"contracts/lottery.sol\":736:781  mapping(address => bool) public map_isPlaying */\n    tag_65:\n      mstore(0x20, 0x01)\n      dup1\n      0x00\n      mstore\n      keccak256(0x00, 0x40)\n      0x00\n      swap2\n      pop\n      sload\n      swap1\n      0x0100\n      exp\n      swap1\n      div\n      0xff\n      and\n      dup2\n      jump\t// out\n        /* \"@openzeppelin/contracts/utils/Strings.sol\":392:1095  function toString(uint256 value) internal pure returns (string memory) {... */\n    tag_92:\n        /* \"@openzeppelin/contracts/utils/Strings.sol\":448:461  string memory */\n      0x60\n        /* \"@openzeppelin/contracts/utils/Strings.sol\":674:675  0 */\n      0x00\n        /* \"@openzeppelin/contracts/utils/Strings.sol\":665:670  value */\n      dup3\n        /* \"@openzeppelin/contracts/utils/Strings.sol\":665:675  value == 0 */\n      sub\n        /* \"@openzeppelin/contracts/utils/Strings.sol\":661:712  if (value == 0) {... */\n      tag_127\n      jumpi\n        /* \"@openzeppelin/contracts/utils/Strings.sol\":691:701  return \"0\" */\n      mload(0x40)\n      dup1\n      0x40\n      add\n      0x40\n      mstore\n      dup1\n      0x01\n      dup2\n      mstore\n      0x20\n      add\n      0x3000000000000000000000000000000000000000000000000000000000000000\n      dup2\n      mstore\n      pop\n      swap1\n      pop\n      jump(tag_126)\n        /* \"@openzeppelin/contracts/utils/Strings.sol\":661:712  if (value == 0) {... */\n    tag_127:\n        /* \"@openzeppelin/contracts/utils/Strings.sol\":721:733  uint256 temp */\n      0x00\n        /* \"@openzeppelin/contracts/utils/Strings.sol\":736:741  value */\n      dup3\n        /* \"@openzeppelin/contracts/utils/Strings.sol\":721:741  uint256 temp = value */\n      swap1\n      pop\n        /* \"@openzeppelin/contracts/utils/Strings.sol\":751:765  uint256 digits */\n      0x00\n        /* \"@openzeppelin/contracts/utils/Strings.sol\":775:850  while (temp != 0) {... */\n    tag_128:\n        /* \"@openzeppelin/contracts/utils/Strings.sol\":790:791  0 */\n      0x00\n        /* \"@openzeppelin/contracts/utils/Strings.sol\":782:786  temp */\n      dup3\n        /* \"@openzeppelin/contracts/utils/Strings.sol\":782:791  temp != 0 */\n      eq\n        /* \"@openzeppelin/contracts/utils/Strings.sol\":775:850  while (temp != 0) {... */\n      tag_129\n      jumpi\n        /* \"@openzeppelin/contracts/utils/Strings.sol\":807:815  digits++ */\n      dup1\n      dup1\n      tag_130\n      swap1\n      tag_131\n      jump\t// in\n    tag_130:\n      swap2\n      pop\n      pop\n        /* \"@openzeppelin/contracts/utils/Strings.sol\":837:839  10 */\n      0x0a\n        /* \"@openzeppelin/contracts/utils/Strings.sol\":829:839  temp /= 10 */\n      dup3\n      tag_132\n      swap2\n      swap1\n      tag_80\n      jump\t// in\n    tag_132:\n      swap2\n      pop\n        /* \"@openzeppelin/contracts/utils/Strings.sol\":775:850  while (temp != 0) {... */\n      jump(tag_128)\n    tag_129:\n        /* \"@openzeppelin/contracts/utils/Strings.sol\":859:878  bytes memory buffer */\n      0x00\n        /* \"@openzeppelin/contracts/utils/Strings.sol\":891:897  digits */\n      dup2\n        /* \"@openzeppelin/contracts/utils/Strings.sol\":881:898  new bytes(digits) */\n      0xffffffffffffffff\n      dup2\n      gt\n      iszero\n      tag_133\n      jumpi\n      tag_134\n      tag_135\n      jump\t// in\n    tag_134:\n    tag_133:\n      mload(0x40)\n      swap1\n      dup1\n      dup3\n      mstore\n      dup1\n      0x1f\n      add\n      not(0x1f)\n      and\n      0x20\n      add\n      dup3\n      add\n      0x40\n      mstore\n      dup1\n      iszero\n      tag_136\n      jumpi\n      dup2\n      0x20\n      add\n      0x01\n      dup3\n      mul\n      dup1\n      calldatasize\n      dup4\n      calldatacopy\n      dup1\n      dup3\n      add\n      swap2\n      pop\n      pop\n      swap1\n      pop\n    tag_136:\n      pop\n        /* \"@openzeppelin/contracts/utils/Strings.sol\":859:898  bytes memory buffer = new bytes(digits) */\n      swap1\n      pop\n        /* \"@openzeppelin/contracts/utils/Strings.sol\":908:1058  while (value != 0) {... */\n    tag_137:\n        /* \"@openzeppelin/contracts/utils/Strings.sol\":924:925  0 */\n      0x00\n        /* \"@openzeppelin/contracts/utils/Strings.sol\":915:920  value */\n      dup6\n        /* \"@openzeppelin/contracts/utils/Strings.sol\":915:925  value != 0 */\n      eq\n        /* \"@openzeppelin/contracts/utils/Strings.sol\":908:1058  while (value != 0) {... */\n      tag_138\n      jumpi\n        /* \"@openzeppelin/contracts/utils/Strings.sol\":951:952  1 */\n      0x01\n        /* \"@openzeppelin/contracts/utils/Strings.sol\":941:952  digits -= 1 */\n      dup3\n      tag_139\n      swap2\n      swap1\n      tag_84\n      jump\t// in\n    tag_139:\n      swap2\n      pop\n        /* \"@openzeppelin/contracts/utils/Strings.sol\":1017:1019  10 */\n      0x0a\n        /* \"@openzeppelin/contracts/utils/Strings.sol\":1009:1014  value */\n      dup6\n        /* \"@openzeppelin/contracts/utils/Strings.sol\":1009:1019  value % 10 */\n      tag_140\n      swap2\n      swap1\n      tag_72\n      jump\t// in\n    tag_140:\n        /* \"@openzeppelin/contracts/utils/Strings.sol\":996:998  48 */\n      0x30\n        /* \"@openzeppelin/contracts/utils/Strings.sol\":996:1020  48 + uint256(value % 10) */\n      tag_141\n      swap2\n      swap1\n      tag_123\n      jump\t// in\n    tag_141:\n        /* \"@openzeppelin/contracts/utils/Strings.sol\":983:1022  bytes1(uint8(48 + uint256(value % 10))) */\n      0xf8\n      shl\n        /* \"@openzeppelin/contracts/utils/Strings.sol\":966:972  buffer */\n      dup2\n        /* \"@openzeppelin/contracts/utils/Strings.sol\":973:979  digits */\n      dup4\n        /* \"@openzeppelin/contracts/utils/Strings.sol\":966:980  buffer[digits] */\n      dup2\n      mload\n      dup2\n      lt\n      tag_142\n      jumpi\n      tag_143\n      tag_109\n      jump\t// in\n    tag_143:\n    tag_142:\n      0x20\n      add\n      add\n        /* \"@openzeppelin/contracts/utils/Strings.sol\":966:1022  buffer[digits] = bytes1(uint8(48 + uint256(value % 10))) */\n      swap1\n      not(0xffffffffffffffffffffffffffffffffffffffffffffffffffffffffffffff)\n      and\n      swap1\n      dup2\n      0x00\n      byte\n      swap1\n      mstore8\n      pop\n        /* \"@openzeppelin/contracts/utils/Strings.sol\":1045:1047  10 */\n      0x0a\n        /* \"@openzeppelin/contracts/utils/Strings.sol\":1036:1047  value /= 10 */\n      dup6\n      tag_144\n      swap2\n      swap1\n      tag_80\n      jump\t// in\n    tag_144:\n      swap5\n      pop\n        /* \"@openzeppelin/contracts/utils/Strings.sol\":908:1058  while (value != 0) {... */\n      jump(tag_137)\n    tag_138:\n        /* \"@openzeppelin/contracts/utils/Strings.sol\":1081:1087  buffer */\n      dup1\n        /* \"@openzeppelin/contracts/utils/Strings.sol\":1067:1088  return string(buffer) */\n      swap4\n      pop\n      pop\n      pop\n      pop\n        /* \"@openzeppelin/contracts/utils/Strings.sol\":392:1095  function toString(uint256 value) internal pure returns (string memory) {... */\n    tag_126:\n      swap2\n      swap1\n      pop\n      jump\t// out\n        /* \"#utility.yul\":7:84   */\n    tag_145:\n        /* \"#utility.yul\":44:51   */\n      0x00\n        /* \"#utility.yul\":73:78   */\n      dup2\n        /* \"#utility.yul\":62:78   */\n      swap1\n      pop\n        /* \"#utility.yul\":7:84   */\n      swap2\n      swap1\n      pop\n      jump\t// out\n        /* \"#utility.yul\":90:208   */\n    tag_146:\n        /* \"#utility.yul\":177:201   */\n      tag_181\n        /* \"#utility.yul\":195:200   */\n      dup2\n        /* \"#utility.yul\":177:201   */\n      tag_145\n      jump\t// in\n    tag_181:\n        /* \"#utility.yul\":172:175   */\n      dup3\n        /* \"#utility.yul\":165:202   */\n      mstore\n        /* \"#utility.yul\":90:208   */\n      pop\n      pop\n      jump\t// out\n        /* \"#utility.yul\":214:436   */\n    tag_19:\n        /* \"#utility.yul\":307:311   */\n      0x00\n        /* \"#utility.yul\":345:347   */\n      0x20\n        /* \"#utility.yul\":334:343   */\n      dup3\n        /* \"#utility.yul\":330:348   */\n      add\n        /* \"#utility.yul\":322:348   */\n      swap1\n      pop\n        /* \"#utility.yul\":358:429   */\n      tag_183\n        /* \"#utility.yul\":426:427   */\n      0x00\n        /* \"#utility.yul\":415:424   */\n      dup4\n        /* \"#utility.yul\":411:428   */\n      add\n        /* \"#utility.yul\":402:408   */\n      dup5\n        /* \"#utility.yul\":358:429   */\n      tag_146\n      jump\t// in\n    tag_183:\n        /* \"#utility.yul\":214:436   */\n      swap3\n      swap2\n      pop\n      pop\n      jump\t// out\n        /* \"#utility.yul\":523:640   */\n    tag_148:\n        /* \"#utility.yul\":632:633   */\n      0x00\n        /* \"#utility.yul\":629:630   */\n      dup1\n        /* \"#utility.yul\":622:634   */\n      revert\n        /* \"#utility.yul\":769:891   */\n    tag_150:\n        /* \"#utility.yul\":842:866   */\n      tag_188\n        /* \"#utility.yul\":860:865   */\n      dup2\n        /* \"#utility.yul\":842:866   */\n      tag_145\n      jump\t// in\n    tag_188:\n        /* \"#utility.yul\":835:840   */\n      dup2\n        /* \"#utility.yul\":832:867   */\n      eq\n        /* \"#utility.yul\":822:885   */\n      tag_189\n      jumpi\n        /* \"#utility.yul\":881:882   */\n      0x00\n        /* \"#utility.yul\":878:879   */\n      dup1\n        /* \"#utility.yul\":871:883   */\n      revert\n        /* \"#utility.yul\":822:885   */\n    tag_189:\n        /* \"#utility.yul\":769:891   */\n      pop\n      jump\t// out\n        /* \"#utility.yul\":897:1036   */\n    tag_151:\n        /* \"#utility.yul\":943:948   */\n      0x00\n        /* \"#utility.yul\":981:987   */\n      dup2\n        /* \"#utility.yul\":968:988   */\n      calldataload\n        /* \"#utility.yul\":959:988   */\n      swap1\n      pop\n        /* \"#utility.yul\":997:1030   */\n      tag_191\n        /* \"#utility.yul\":1024:1029   */\n      dup2\n        /* \"#utility.yul\":997:1030   */\n      tag_150\n      jump\t// in\n    tag_191:\n        /* \"#utility.yul\":897:1036   */\n      swap3\n      swap2\n      pop\n      pop\n      jump\t// out\n        /* \"#utility.yul\":1042:1371   */\n    tag_23:\n        /* \"#utility.yul\":1101:1107   */\n      0x00\n        /* \"#utility.yul\":1150:1152   */\n      0x20\n        /* \"#utility.yul\":1138:1147   */\n      dup3\n        /* \"#utility.yul\":1129:1136   */\n      dup5\n        /* \"#utility.yul\":1125:1148   */\n      sub\n        /* \"#utility.yul\":1121:1153   */\n      slt\n        /* \"#utility.yul\":1118:1237   */\n      iszero\n      tag_193\n      jumpi\n        /* \"#utility.yul\":1156:1235   */\n      tag_194\n      tag_148\n      jump\t// in\n    tag_194:\n        /* \"#utility.yul\":1118:1237   */\n    tag_193:\n        /* \"#utility.yul\":1276:1277   */\n      0x00\n        /* \"#utility.yul\":1301:1354   */\n      tag_195\n        /* \"#utility.yul\":1346:1353   */\n      dup5\n        /* \"#utility.yul\":1337:1343   */\n      dup3\n        /* \"#utility.yul\":1326:1335   */\n      dup6\n        /* \"#utility.yul\":1322:1344   */\n      add\n        /* \"#utility.yul\":1301:1354   */\n      tag_151\n      jump\t// in\n    tag_195:\n        /* \"#utility.yul\":1291:1354   */\n      swap2\n      pop\n        /* \"#utility.yul\":1247:1364   */\n      pop\n        /* \"#utility.yul\":1042:1371   */\n      swap3\n      swap2\n      pop\n      pop\n      jump\t// out\n        /* \"#utility.yul\":1377:1503   */\n    tag_152:\n        /* \"#utility.yul\":1414:1421   */\n      0x00\n        /* \"#utility.yul\":1454:1496   */\n      0xffffffffffffffffffffffffffffffffffffffff\n        /* \"#utility.yul\":1447:1452   */\n      dup3\n        /* \"#utility.yul\":1443:1497   */\n      and\n        /* \"#utility.yul\":1432:1497   */\n      swap1\n      pop\n        /* \"#utility.yul\":1377:1503   */\n      swap2\n      swap1\n      pop\n      jump\t// out\n        /* \"#utility.yul\":1509:1613   */\n    tag_153:\n        /* \"#utility.yul\":1554:1561   */\n      0x00\n        /* \"#utility.yul\":1583:1607   */\n      tag_198\n        /* \"#utility.yul\":1601:1606   */\n      dup3\n        /* \"#utility.yul\":1583:1607   */\n      tag_152\n      jump\t// in\n    tag_198:\n        /* \"#utility.yul\":1572:1607   */\n      swap1\n      pop\n        /* \"#utility.yul\":1509:1613   */\n      swap2\n      swap1\n      pop\n      jump\t// out\n        /* \"#utility.yul\":1619:1761   */\n    tag_154:\n        /* \"#utility.yul\":1722:1754   */\n      tag_200\n        /* \"#utility.yul\":1748:1753   */\n      dup2\n        /* \"#utility.yul\":1722:1754   */\n      tag_153\n      jump\t// in\n    tag_200:\n        /* \"#utility.yul\":1717:1720   */\n      dup3\n        /* \"#utility.yul\":1710:1755   */\n      mstore\n        /* \"#utility.yul\":1619:1761   */\n      pop\n      pop\n      jump\t// out\n        /* \"#utility.yul\":1767:2021   */\n    tag_34:\n        /* \"#utility.yul\":1876:1880   */\n      0x00\n        /* \"#utility.yul\":1914:1916   */\n      0x20\n        /* \"#utility.yul\":1903:1912   */\n      dup3\n        /* \"#utility.yul\":1899:1917   */\n      add\n        /* \"#utility.yul\":1891:1917   */\n      swap1\n      pop\n        /* \"#utility.yul\":1927:2014   */\n      tag_202\n        /* \"#utility.yul\":2011:2012   */\n      0x00\n        /* \"#utility.yul\":2000:2009   */\n      dup4\n        /* \"#utility.yul\":1996:2013   */\n      add\n        /* \"#utility.yul\":1987:1993   */\n      dup5\n        /* \"#utility.yul\":1927:2014   */\n      tag_154\n      jump\t// in\n    tag_202:\n        /* \"#utility.yul\":1767:2021   */\n      swap3\n      swap2\n      pop\n      pop\n      jump\t// out\n        /* \"#utility.yul\":2027:2165   */\n    tag_155:\n        /* \"#utility.yul\":2108:2140   */\n      tag_204\n        /* \"#utility.yul\":2134:2139   */\n      dup2\n        /* \"#utility.yul\":2108:2140   */\n      tag_153\n      jump\t// in\n    tag_204:\n        /* \"#utility.yul\":2101:2106   */\n      dup2\n        /* \"#utility.yul\":2098:2141   */\n      eq\n        /* \"#utility.yul\":2088:2159   */\n      tag_205\n      jumpi\n        /* \"#utility.yul\":2155:2156   */\n      0x00\n        /* \"#utility.yul\":2152:2153   */\n      dup1\n        /* \"#utility.yul\":2145:2157   */\n      revert\n        /* \"#utility.yul\":2088:2159   */\n    tag_205:\n        /* \"#utility.yul\":2027:2165   */\n      pop\n      jump\t// out\n        /* \"#utility.yul\":2171:2326   */\n    tag_156:\n        /* \"#utility.yul\":2225:2230   */\n      0x00\n        /* \"#utility.yul\":2263:2269   */\n      dup2\n        /* \"#utility.yul\":2250:2270   */\n      calldataload\n        /* \"#utility.yul\":2241:2270   */\n      swap1\n      pop\n        /* \"#utility.yul\":2279:2320   */\n      tag_207\n        /* \"#utility.yul\":2314:2319   */\n      dup2\n        /* \"#utility.yul\":2279:2320   */\n      tag_155\n      jump\t// in\n    tag_207:\n        /* \"#utility.yul\":2171:2326   */\n      swap3\n      swap2\n      pop\n      pop\n      jump\t// out\n        /* \"#utility.yul\":2332:2677   */\n    tag_49:\n        /* \"#utility.yul\":2399:2405   */\n      0x00\n        /* \"#utility.yul\":2448:2450   */\n      0x20\n        /* \"#utility.yul\":2436:2445   */\n      dup3\n        /* \"#utility.yul\":2427:2434   */\n      dup5\n        /* \"#utility.yul\":2423:2446   */\n      sub\n        /* \"#utility.yul\":2419:2451   */\n      slt\n        /* \"#utility.yul\":2416:2535   */\n      iszero\n      tag_209\n      jumpi\n        /* \"#utility.yul\":2454:2533   */\n      tag_210\n      tag_148\n      jump\t// in\n    tag_210:\n        /* \"#utility.yul\":2416:2535   */\n    tag_209:\n        /* \"#utility.yul\":2574:2575   */\n      0x00\n        /* \"#utility.yul\":2599:2660   */\n      tag_211\n        /* \"#utility.yul\":2652:2659   */\n      dup5\n        /* \"#utility.yul\":2643:2649   */\n      dup3\n        /* \"#utility.yul\":2632:2641   */\n      dup6\n        /* \"#utility.yul\":2628:2650   */\n      add\n        /* \"#utility.yul\":2599:2660   */\n      tag_156\n      jump\t// in\n    tag_211:\n        /* \"#utility.yul\":2589:2660   */\n      swap2\n      pop\n        /* \"#utility.yul\":2545:2670   */\n      pop\n        /* \"#utility.yul\":2332:2677   */\n      swap3\n      swap2\n      pop\n      pop\n      jump\t// out\n        /* \"#utility.yul\":2683:2773   */\n    tag_157:\n        /* \"#utility.yul\":2717:2724   */\n      0x00\n        /* \"#utility.yul\":2760:2765   */\n      dup2\n        /* \"#utility.yul\":2753:2766   */\n      iszero\n        /* \"#utility.yul\":2746:2767   */\n      iszero\n        /* \"#utility.yul\":2735:2767   */\n      swap1\n      pop\n        /* \"#utility.yul\":2683:2773   */\n      swap2\n      swap1\n      pop\n      jump\t// out\n        /* \"#utility.yul\":2779:2888   */\n    tag_158:\n        /* \"#utility.yul\":2860:2881   */\n      tag_214\n        /* \"#utility.yul\":2875:2880   */\n      dup2\n        /* \"#utility.yul\":2860:2881   */\n      tag_157\n      jump\t// in\n    tag_214:\n        /* \"#utility.yul\":2855:2858   */\n      dup3\n        /* \"#utility.yul\":2848:2882   */\n      mstore\n        /* \"#utility.yul\":2779:2888   */\n      pop\n      pop\n      jump\t// out\n        /* \"#utility.yul\":2894:3104   */\n    tag_52:\n        /* \"#utility.yul\":2981:2985   */\n      0x00\n        /* \"#utility.yul\":3019:3021   */\n      0x20\n        /* \"#utility.yul\":3008:3017   */\n      dup3\n        /* \"#utility.yul\":3004:3022   */\n      add\n        /* \"#utility.yul\":2996:3022   */\n      swap1\n      pop\n        /* \"#utility.yul\":3032:3097   */\n      tag_216\n        /* \"#utility.yul\":3094:3095   */\n      0x00\n        /* \"#utility.yul\":3083:3092   */\n      dup4\n        /* \"#utility.yul\":3079:3096   */\n      add\n        /* \"#utility.yul\":3070:3076   */\n      dup5\n        /* \"#utility.yul\":3032:3097   */\n      tag_158\n      jump\t// in\n    tag_216:\n        /* \"#utility.yul\":2894:3104   */\n      swap3\n      swap2\n      pop\n      pop\n      jump\t// out\n        /* \"#utility.yul\":3110:3206   */\n    tag_159:\n        /* \"#utility.yul\":3147:3154   */\n      0x00\n        /* \"#utility.yul\":3176:3200   */\n      tag_218\n        /* \"#utility.yul\":3194:3199   */\n      dup3\n        /* \"#utility.yul\":3176:3200   */\n      tag_152\n      jump\t// in\n    tag_218:\n        /* \"#utility.yul\":3165:3200   */\n      swap1\n      pop\n        /* \"#utility.yul\":3110:3206   */\n      swap2\n      swap1\n      pop\n      jump\t// out\n        /* \"#utility.yul\":3212:3334   */\n    tag_160:\n        /* \"#utility.yul\":3285:3309   */\n      tag_220\n        /* \"#utility.yul\":3303:3308   */\n      dup2\n        /* \"#utility.yul\":3285:3309   */\n      tag_159\n      jump\t// in\n    tag_220:\n        /* \"#utility.yul\":3278:3283   */\n      dup2\n        /* \"#utility.yul\":3275:3310   */\n      eq\n        /* \"#utility.yul\":3265:3328   */\n      tag_221\n      jumpi\n        /* \"#utility.yul\":3324:3325   */\n      0x00\n        /* \"#utility.yul\":3321:3322   */\n      dup1\n        /* \"#utility.yul\":3314:3326   */\n      revert\n        /* \"#utility.yul\":3265:3328   */\n    tag_221:\n        /* \"#utility.yul\":3212:3334   */\n      pop\n      jump\t// out\n        /* \"#utility.yul\":3340:3479   */\n    tag_161:\n        /* \"#utility.yul\":3386:3391   */\n      0x00\n        /* \"#utility.yul\":3424:3430   */\n      dup2\n        /* \"#utility.yul\":3411:3431   */\n      calldataload\n        /* \"#utility.yul\":3402:3431   */\n      swap1\n      pop\n        /* \"#utility.yul\":3440:3473   */\n      tag_223\n        /* \"#utility.yul\":3467:3472   */\n      dup2\n        /* \"#utility.yul\":3440:3473   */\n      tag_160\n      jump\t// in\n    tag_223:\n        /* \"#utility.yul\":3340:3479   */\n      swap3\n      swap2\n      pop\n      pop\n      jump\t// out\n        /* \"#utility.yul\":3485:3814   */\n    tag_64:\n        /* \"#utility.yul\":3544:3550   */\n      0x00\n        /* \"#utility.yul\":3593:3595   */\n      0x20\n        /* \"#utility.yul\":3581:3590   */\n      dup3\n        /* \"#utility.yul\":3572:3579   */\n      dup5\n        /* \"#utility.yul\":3568:3591   */\n      sub\n        /* \"#utility.yul\":3564:3596   */\n      slt\n        /* \"#utility.yul\":3561:3680   */\n      iszero\n      tag_225\n      jumpi\n        /* \"#utility.yul\":3599:3678   */\n      tag_226\n      tag_148\n      jump\t// in\n    tag_226:\n        /* \"#utility.yul\":3561:3680   */\n    tag_225:\n        /* \"#utility.yul\":3719:3720   */\n      0x00\n        /* \"#utility.yul\":3744:3797   */\n      tag_227\n        /* \"#utility.yul\":3789:3796   */\n      dup5\n        /* \"#utility.yul\":3780:3786   */\n      dup3\n        /* \"#utility.yul\":3769:3778   */\n      dup6\n        /* \"#utility.yul\":3765:3787   */\n      add\n        /* \"#utility.yul\":3744:3797   */\n      tag_161\n      jump\t// in\n    tag_227:\n        /* \"#utility.yul\":3734:3797   */\n      swap2\n      pop\n        /* \"#utility.yul\":3690:3807   */\n      pop\n        /* \"#utility.yul\":3485:3814   */\n      swap3\n      swap2\n      pop\n      pop\n      jump\t// out\n        /* \"#utility.yul\":3820:3899   */\n    tag_162:\n        /* \"#utility.yul\":3859:3866   */\n      0x00\n        /* \"#utility.yul\":3888:3893   */\n      dup2\n        /* \"#utility.yul\":3877:3893   */\n      swap1\n      pop\n        /* \"#utility.yul\":3820:3899   */\n      swap2\n      swap1\n      pop\n      jump\t// out\n        /* \"#utility.yul\":3905:4062   */\n    tag_163:\n        /* \"#utility.yul\":4010:4055   */\n      tag_230\n        /* \"#utility.yul\":4030:4054   */\n      tag_231\n        /* \"#utility.yul\":4048:4053   */\n      dup3\n        /* \"#utility.yul\":4030:4054   */\n      tag_145\n      jump\t// in\n    tag_231:\n        /* \"#utility.yul\":4010:4055   */\n      tag_162\n      jump\t// in\n    tag_230:\n        /* \"#utility.yul\":4005:4008   */\n      dup3\n        /* \"#utility.yul\":3998:4056   */\n      mstore\n        /* \"#utility.yul\":3905:4062   */\n      pop\n      pop\n      jump\t// out\n        /* \"#utility.yul\":4068:4465   */\n    tag_70:\n        /* \"#utility.yul\":4208:4211   */\n      0x00\n        /* \"#utility.yul\":4223:4298   */\n      tag_233\n        /* \"#utility.yul\":4294:4297   */\n      dup3\n        /* \"#utility.yul\":4285:4291   */\n      dup6\n        /* \"#utility.yul\":4223:4298   */\n      tag_163\n      jump\t// in\n    tag_233:\n        /* \"#utility.yul\":4323:4325   */\n      0x20\n        /* \"#utility.yul\":4318:4321   */\n      dup3\n        /* \"#utility.yul\":4314:4326   */\n      add\n        /* \"#utility.yul\":4307:4326   */\n      swap2\n      pop\n        /* \"#utility.yul\":4336:4411   */\n      tag_234\n        /* \"#utility.yul\":4407:4410   */\n      dup3\n        /* \"#utility.yul\":4398:4404   */\n      dup5\n        /* \"#utility.yul\":4336:4411   */\n      tag_163\n      jump\t// in\n    tag_234:\n        /* \"#utility.yul\":4436:4438   */\n      0x20\n        /* \"#utility.yul\":4431:4434   */\n      dup3\n        /* \"#utility.yul\":4427:4439   */\n      add\n        /* \"#utility.yul\":4420:4439   */\n      swap2\n      pop\n        /* \"#utility.yul\":4456:4459   */\n      dup2\n        /* \"#utility.yul\":4449:4459   */\n      swap1\n      pop\n        /* \"#utility.yul\":4068:4465   */\n      swap4\n      swap3\n      pop\n      pop\n      pop\n      jump\t// out\n        /* \"#utility.yul\":4471:4651   */\n    tag_164:\n        /* \"#utility.yul\":4519:4596   */\n      0x4e487b7100000000000000000000000000000000000000000000000000000000\n        /* \"#utility.yul\":4516:4517   */\n      0x00\n        /* \"#utility.yul\":4509:4597   */\n      mstore\n        /* \"#utility.yul\":4616:4620   */\n      0x12\n        /* \"#utility.yul\":4613:4614   */\n      0x04\n        /* \"#utility.yul\":4606:4621   */\n      mstore\n        /* \"#utility.yul\":4640:4644   */\n      0x24\n        /* \"#utility.yul\":4637:4638   */\n      0x00\n        /* \"#utility.yul\":4630:4645   */\n      revert\n        /* \"#utility.yul\":4657:4833   */\n    tag_72:\n        /* \"#utility.yul\":4689:4690   */\n      0x00\n        /* \"#utility.yul\":4706:4726   */\n      tag_237\n        /* \"#utility.yul\":4724:4725   */\n      dup3\n        /* \"#utility.yul\":4706:4726   */\n      tag_145\n      jump\t// in\n    tag_237:\n        /* \"#utility.yul\":4701:4726   */\n      swap2\n      pop\n        /* \"#utility.yul\":4740:4760   */\n      tag_238\n        /* \"#utility.yul\":4758:4759   */\n      dup4\n        /* \"#utility.yul\":4740:4760   */\n      tag_145\n      jump\t// in\n    tag_238:\n        /* \"#utility.yul\":4735:4760   */\n      swap3\n      pop\n        /* \"#utility.yul\":4779:4780   */\n      dup3\n        /* \"#utility.yul\":4769:4804   */\n      tag_239\n      jumpi\n        /* \"#utility.yul\":4784:4802   */\n      tag_240\n      tag_164\n      jump\t// in\n    tag_240:\n        /* \"#utility.yul\":4769:4804   */\n    tag_239:\n        /* \"#utility.yul\":4825:4826   */\n      dup3\n        /* \"#utility.yul\":4822:4823   */\n      dup3\n        /* \"#utility.yul\":4818:4827   */\n      mod\n        /* \"#utility.yul\":4813:4827   */\n      swap1\n      pop\n        /* \"#utility.yul\":4657:4833   */\n      swap3\n      swap2\n      pop\n      pop\n      jump\t// out\n        /* \"#utility.yul\":4839:5019   */\n    tag_165:\n        /* \"#utility.yul\":4887:4964   */\n      0x4e487b7100000000000000000000000000000000000000000000000000000000\n        /* \"#utility.yul\":4884:4885   */\n      0x00\n        /* \"#utility.yul\":4877:4965   */\n      mstore\n        /* \"#utility.yul\":4984:4988   */\n      0x11\n        /* \"#utility.yul\":4981:4982   */\n      0x04\n        /* \"#utility.yul\":4974:4989   */\n      mstore\n        /* \"#utility.yul\":5008:5012   */\n      0x24\n        /* \"#utility.yul\":5005:5006   */\n      0x00\n        /* \"#utility.yul\":4998:5013   */\n      revert\n        /* \"#utility.yul\":5025:5435   */\n    tag_78:\n        /* \"#utility.yul\":5065:5072   */\n      0x00\n        /* \"#utility.yul\":5088:5108   */\n      tag_243\n        /* \"#utility.yul\":5106:5107   */\n      dup3\n        /* \"#utility.yul\":5088:5108   */\n      tag_145\n      jump\t// in\n    tag_243:\n        /* \"#utility.yul\":5083:5108   */\n      swap2\n      pop\n        /* \"#utility.yul\":5122:5142   */\n      tag_244\n        /* \"#utility.yul\":5140:5141   */\n      dup4\n        /* \"#utility.yul\":5122:5142   */\n      tag_145\n      jump\t// in\n    tag_244:\n        /* \"#utility.yul\":5117:5142   */\n      swap3\n      pop\n        /* \"#utility.yul\":5177:5178   */\n      dup3\n        /* \"#utility.yul\":5174:5175   */\n      dup3\n        /* \"#utility.yul\":5170:5179   */\n      mul\n        /* \"#utility.yul\":5199:5229   */\n      tag_245\n        /* \"#utility.yul\":5217:5228   */\n      dup2\n        /* \"#utility.yul\":5199:5229   */\n      tag_145\n      jump\t// in\n    tag_245:\n        /* \"#utility.yul\":5188:5229   */\n      swap2\n      pop\n        /* \"#utility.yul\":5378:5379   */\n      dup3\n        /* \"#utility.yul\":5369:5376   */\n      dup3\n        /* \"#utility.yul\":5365:5380   */\n      div\n        /* \"#utility.yul\":5362:5363   */\n      dup5\n        /* \"#utility.yul\":5359:5381   */\n      eq\n        /* \"#utility.yul\":5339:5340   */\n      dup4\n        /* \"#utility.yul\":5332:5341   */\n      iszero\n        /* \"#utility.yul\":5312:5395   */\n      or\n        /* \"#utility.yul\":5289:5428   */\n      tag_246\n      jumpi\n        /* \"#utility.yul\":5408:5426   */\n      tag_247\n      tag_165\n      jump\t// in\n    tag_247:\n        /* \"#utility.yul\":5289:5428   */\n    tag_246:\n        /* \"#utility.yul\":5073:5435   */\n      pop\n        /* \"#utility.yul\":5025:5435   */\n      swap3\n      swap2\n      pop\n      pop\n      jump\t// out\n        /* \"#utility.yul\":5441:5626   */\n    tag_80:\n        /* \"#utility.yul\":5481:5482   */\n      0x00\n        /* \"#utility.yul\":5498:5518   */\n      tag_249\n        /* \"#utility.yul\":5516:5517   */\n      dup3\n        /* \"#utility.yul\":5498:5518   */\n      tag_145\n      jump\t// in\n    tag_249:\n        /* \"#utility.yul\":5493:5518   */\n      swap2\n      pop\n        /* \"#utility.yul\":5532:5552   */\n      tag_250\n        /* \"#utility.yul\":5550:5551   */\n      dup4\n        /* \"#utility.yul\":5532:5552   */\n      tag_145\n      jump\t// in\n    tag_250:\n        /* \"#utility.yul\":5527:5552   */\n      swap3\n      pop\n        /* \"#utility.yul\":5571:5572   */\n      dup3\n        /* \"#utility.yul\":5561:5596   */\n      tag_251\n      jumpi\n        /* \"#utility.yul\":5576:5594   */\n      tag_252\n      tag_164\n      jump\t// in\n    tag_252:\n        /* \"#utility.yul\":5561:5596   */\n    tag_251:\n        /* \"#utility.yul\":5618:5619   */\n      dup3\n        /* \"#utility.yul\":5615:5616   */\n      dup3\n        /* \"#utility.yul\":5611:5620   */\n      div\n        /* \"#utility.yul\":5606:5620   */\n      swap1\n      pop\n        /* \"#utility.yul\":5441:5626   */\n      swap3\n      swap2\n      pop\n      pop\n      jump\t// out\n        /* \"#utility.yul\":5632:5826   */\n    tag_84:\n        /* \"#utility.yul\":5672:5676   */\n      0x00\n        /* \"#utility.yul\":5692:5712   */\n      tag_254\n        /* \"#utility.yul\":5710:5711   */\n      dup3\n        /* \"#utility.yul\":5692:5712   */\n      tag_145\n      jump\t// in\n    tag_254:\n        /* \"#utility.yul\":5687:5712   */\n      swap2\n      pop\n        /* \"#utility.yul\":5726:5746   */\n      tag_255\n        /* \"#utility.yul\":5744:5745   */\n      dup4\n        /* \"#utility.yul\":5726:5746   */\n      tag_145\n      jump\t// in\n    tag_255:\n        /* \"#utility.yul\":5721:5746   */\n      swap3\n      pop\n        /* \"#utility.yul\":5770:5771   */\n      dup3\n        /* \"#utility.yul\":5767:5768   */\n      dup3\n        /* \"#utility.yul\":5763:5772   */\n      sub\n        /* \"#utility.yul\":5755:5772   */\n      swap1\n      pop\n        /* \"#utility.yul\":5794:5795   */\n      dup2\n        /* \"#utility.yul\":5788:5792   */\n      dup2\n        /* \"#utility.yul\":5785:5796   */\n      gt\n        /* \"#utility.yul\":5782:5819   */\n      iszero\n      tag_256\n      jumpi\n        /* \"#utility.yul\":5799:5817   */\n      tag_257\n      tag_165\n      jump\t// in\n    tag_257:\n        /* \"#utility.yul\":5782:5819   */\n    tag_256:\n        /* \"#utility.yul\":5632:5826   */\n      swap3\n      swap2\n      pop\n      pop\n      jump\t// out\n        /* \"#utility.yul\":5832:6021   */\n    tag_166:\n        /* \"#utility.yul\":6001:6014   */\n      0x54686520616d6f756e7420000000000000000000000000000000000000000000\n        /* \"#utility.yul\":5996:5999   */\n      dup2\n        /* \"#utility.yul\":5989:6015   */\n      mstore\n        /* \"#utility.yul\":5832:6021   */\n      pop\n      jump\t// out\n        /* \"#utility.yul\":6027:6126   */\n    tag_167:\n        /* \"#utility.yul\":6079:6085   */\n      0x00\n        /* \"#utility.yul\":6113:6118   */\n      dup2\n        /* \"#utility.yul\":6107:6119   */\n      mload\n        /* \"#utility.yul\":6097:6119   */\n      swap1\n      pop\n        /* \"#utility.yul\":6027:6126   */\n      swap2\n      swap1\n      pop\n      jump\t// out\n        /* \"#utility.yul\":6132:6280   */\n    tag_168:\n        /* \"#utility.yul\":6234:6245   */\n      0x00\n        /* \"#utility.yul\":6271:6274   */\n      dup2\n        /* \"#utility.yul\":6256:6274   */\n      swap1\n      pop\n        /* \"#utility.yul\":6132:6280   */\n      swap3\n      swap2\n      pop\n      pop\n      jump\t// out\n        /* \"#utility.yul\":6286:6532   */\n    tag_169:\n        /* \"#utility.yul\":6367:6368   */\n      0x00\n        /* \"#utility.yul\":6377:6490   */\n    tag_262:\n        /* \"#utility.yul\":6391:6397   */\n      dup4\n        /* \"#utility.yul\":6388:6389   */\n      dup2\n        /* \"#utility.yul\":6385:6398   */\n      lt\n        /* \"#utility.yul\":6377:6490   */\n      iszero\n      tag_264\n      jumpi\n        /* \"#utility.yul\":6476:6477   */\n      dup1\n        /* \"#utility.yul\":6471:6474   */\n      dup3\n        /* \"#utility.yul\":6467:6478   */\n      add\n        /* \"#utility.yul\":6461:6479   */\n      mload\n        /* \"#utility.yul\":6457:6458   */\n      dup2\n        /* \"#utility.yul\":6452:6455   */\n      dup5\n        /* \"#utility.yul\":6448:6459   */\n      add\n        /* \"#utility.yul\":6441:6480   */\n      mstore\n        /* \"#utility.yul\":6413:6415   */\n      0x20\n        /* \"#utility.yul\":6410:6411   */\n      dup2\n        /* \"#utility.yul\":6406:6416   */\n      add\n        /* \"#utility.yul\":6401:6416   */\n      swap1\n      pop\n        /* \"#utility.yul\":6377:6490   */\n      jump(tag_262)\n    tag_264:\n        /* \"#utility.yul\":6524:6525   */\n      0x00\n        /* \"#utility.yul\":6515:6521   */\n      dup5\n        /* \"#utility.yul\":6510:6513   */\n      dup5\n        /* \"#utility.yul\":6506:6522   */\n      add\n        /* \"#utility.yul\":6499:6526   */\n      mstore\n        /* \"#utility.yul\":6348:6532   */\n      pop\n        /* \"#utility.yul\":6286:6532   */\n      pop\n      pop\n      pop\n      jump\t// out\n        /* \"#utility.yul\":6538:6928   */\n    tag_170:\n        /* \"#utility.yul\":6644:6647   */\n      0x00\n        /* \"#utility.yul\":6672:6711   */\n      tag_266\n        /* \"#utility.yul\":6705:6710   */\n      dup3\n        /* \"#utility.yul\":6672:6711   */\n      tag_167\n      jump\t// in\n    tag_266:\n        /* \"#utility.yul\":6727:6816   */\n      tag_267\n        /* \"#utility.yul\":6809:6815   */\n      dup2\n        /* \"#utility.yul\":6804:6807   */\n      dup6\n        /* \"#utility.yul\":6727:6816   */\n      tag_168\n      jump\t// in\n    tag_267:\n        /* \"#utility.yul\":6720:6816   */\n      swap4\n      pop\n        /* \"#utility.yul\":6825:6890   */\n      tag_268\n        /* \"#utility.yul\":6883:6889   */\n      dup2\n        /* \"#utility.yul\":6878:6881   */\n      dup6\n        /* \"#utility.yul\":6871:6875   */\n      0x20\n        /* \"#utility.yul\":6864:6869   */\n      dup7\n        /* \"#utility.yul\":6860:6876   */\n      add\n        /* \"#utility.yul\":6825:6890   */\n      tag_169\n      jump\t// in\n    tag_268:\n        /* \"#utility.yul\":6915:6921   */\n      dup1\n        /* \"#utility.yul\":6910:6913   */\n      dup5\n        /* \"#utility.yul\":6906:6922   */\n      add\n        /* \"#utility.yul\":6899:6922   */\n      swap2\n      pop\n        /* \"#utility.yul\":6648:6928   */\n      pop\n        /* \"#utility.yul\":6538:6928   */\n      swap3\n      swap2\n      pop\n      pop\n      jump\t// out\n        /* \"#utility.yul\":6934:7159   */\n    tag_171:\n        /* \"#utility.yul\":7074:7108   */\n      0x2069732067726561746572207468616e2074686520636f6e7472616374206261\n        /* \"#utility.yul\":7070:7071   */\n      0x00\n        /* \"#utility.yul\":7062:7068   */\n      dup3\n        /* \"#utility.yul\":7058:7072   */\n      add\n        /* \"#utility.yul\":7051:7109   */\n      mstore\n        /* \"#utility.yul\":7143:7151   */\n      0x6c616e6365200000000000000000000000000000000000000000000000000000\n        /* \"#utility.yul\":7138:7140   */\n      0x20\n        /* \"#utility.yul\":7130:7136   */\n      dup3\n        /* \"#utility.yul\":7126:7141   */\n      add\n        /* \"#utility.yul\":7119:7152   */\n      mstore\n        /* \"#utility.yul\":6934:7159   */\n      pop\n      jump\t// out\n        /* \"#utility.yul\":7165:7567   */\n    tag_172:\n        /* \"#utility.yul\":7325:7328   */\n      0x00\n        /* \"#utility.yul\":7346:7431   */\n      tag_271\n        /* \"#utility.yul\":7428:7430   */\n      0x26\n        /* \"#utility.yul\":7423:7426   */\n      dup4\n        /* \"#utility.yul\":7346:7431   */\n      tag_168\n      jump\t// in\n    tag_271:\n        /* \"#utility.yul\":7339:7431   */\n      swap2\n      pop\n        /* \"#utility.yul\":7440:7533   */\n      tag_272\n        /* \"#utility.yul\":7529:7532   */\n      dup3\n        /* \"#utility.yul\":7440:7533   */\n      tag_171\n      jump\t// in\n    tag_272:\n        /* \"#utility.yul\":7558:7560   */\n      0x26\n        /* \"#utility.yul\":7553:7556   */\n      dup3\n        /* \"#utility.yul\":7549:7561   */\n      add\n        /* \"#utility.yul\":7542:7561   */\n      swap1\n      pop\n        /* \"#utility.yul\":7165:7567   */\n      swap2\n      swap1\n      pop\n      jump\t// out\n        /* \"#utility.yul\":7573:8541   */\n    tag_95:\n        /* \"#utility.yul\":7945:7948   */\n      0x00\n        /* \"#utility.yul\":7960:8098   */\n      tag_274\n        /* \"#utility.yul\":8094:8097   */\n      dup3\n        /* \"#utility.yul\":7960:8098   */\n      tag_166\n      jump\t// in\n    tag_274:\n        /* \"#utility.yul\":8123:8125   */\n      0x0b\n        /* \"#utility.yul\":8118:8121   */\n      dup3\n        /* \"#utility.yul\":8114:8126   */\n      add\n        /* \"#utility.yul\":8107:8126   */\n      swap2\n      pop\n        /* \"#utility.yul\":8143:8238   */\n      tag_275\n        /* \"#utility.yul\":8234:8237   */\n      dup3\n        /* \"#utility.yul\":8225:8231   */\n      dup6\n        /* \"#utility.yul\":8143:8238   */\n      tag_170\n      jump\t// in\n    tag_275:\n        /* \"#utility.yul\":8136:8238   */\n      swap2\n      pop\n        /* \"#utility.yul\":8255:8403   */\n      tag_276\n        /* \"#utility.yul\":8399:8402   */\n      dup3\n        /* \"#utility.yul\":8255:8403   */\n      tag_172\n      jump\t// in\n    tag_276:\n        /* \"#utility.yul\":8248:8403   */\n      swap2\n      pop\n        /* \"#utility.yul\":8420:8515   */\n      tag_277\n        /* \"#utility.yul\":8511:8514   */\n      dup3\n        /* \"#utility.yul\":8502:8508   */\n      dup5\n        /* \"#utility.yul\":8420:8515   */\n      tag_170\n      jump\t// in\n    tag_277:\n        /* \"#utility.yul\":8413:8515   */\n      swap2\n      pop\n        /* \"#utility.yul\":8532:8535   */\n      dup2\n        /* \"#utility.yul\":8525:8535   */\n      swap1\n      pop\n        /* \"#utility.yul\":7573:8541   */\n      swap4\n      swap3\n      pop\n      pop\n      pop\n      jump\t// out\n        /* \"#utility.yul\":8547:8716   */\n    tag_173:\n        /* \"#utility.yul\":8631:8642   */\n      0x00\n        /* \"#utility.yul\":8665:8671   */\n      dup3\n        /* \"#utility.yul\":8660:8663   */\n      dup3\n        /* \"#utility.yul\":8653:8672   */\n      mstore\n        /* \"#utility.yul\":8705:8709   */\n      0x20\n        /* \"#utility.yul\":8700:8703   */\n      dup3\n        /* \"#utility.yul\":8696:8710   */\n      add\n        /* \"#utility.yul\":8681:8710   */\n      swap1\n      pop\n        /* \"#utility.yul\":8547:8716   */\n      swap3\n      swap2\n      pop\n      pop\n      jump\t// out\n        /* \"#utility.yul\":8722:8824   */\n    tag_174:\n        /* \"#utility.yul\":8763:8769   */\n      0x00\n        /* \"#utility.yul\":8814:8816   */\n      0x1f\n        /* \"#utility.yul\":8810:8817   */\n      not\n        /* \"#utility.yul\":8805:8807   */\n      0x1f\n        /* \"#utility.yul\":8798:8803   */\n      dup4\n        /* \"#utility.yul\":8794:8808   */\n      add\n        /* \"#utility.yul\":8790:8818   */\n      and\n        /* \"#utility.yul\":8780:8818   */\n      swap1\n      pop\n        /* \"#utility.yul\":8722:8824   */\n      swap2\n      swap1\n      pop\n      jump\t// out\n        /* \"#utility.yul\":8830:9207   */\n    tag_175:\n        /* \"#utility.yul\":8918:8921   */\n      0x00\n        /* \"#utility.yul\":8946:8985   */\n      tag_281\n        /* \"#utility.yul\":8979:8984   */\n      dup3\n        /* \"#utility.yul\":8946:8985   */\n      tag_167\n      jump\t// in\n    tag_281:\n        /* \"#utility.yul\":9001:9072   */\n      tag_282\n        /* \"#utility.yul\":9065:9071   */\n      dup2\n        /* \"#utility.yul\":9060:9063   */\n      dup6\n        /* \"#utility.yul\":9001:9072   */\n      tag_173\n      jump\t// in\n    tag_282:\n        /* \"#utility.yul\":8994:9072   */\n      swap4\n      pop\n        /* \"#utility.yul\":9081:9146   */\n      tag_283\n        /* \"#utility.yul\":9139:9145   */\n      dup2\n        /* \"#utility.yul\":9134:9137   */\n      dup6\n        /* \"#utility.yul\":9127:9131   */\n      0x20\n        /* \"#utility.yul\":9120:9125   */\n      dup7\n        /* \"#utility.yul\":9116:9132   */\n      add\n        /* \"#utility.yul\":9081:9146   */\n      tag_169\n      jump\t// in\n    tag_283:\n        /* \"#utility.yul\":9171:9200   */\n      tag_284\n        /* \"#utility.yul\":9193:9199   */\n      dup2\n        /* \"#utility.yul\":9171:9200   */\n      tag_174\n      jump\t// in\n    tag_284:\n        /* \"#utility.yul\":9166:9169   */\n      dup5\n        /* \"#utility.yul\":9162:9201   */\n      add\n        /* \"#utility.yul\":9155:9201   */\n      swap2\n      pop\n        /* \"#utility.yul\":8922:9207   */\n      pop\n        /* \"#utility.yul\":8830:9207   */\n      swap3\n      swap2\n      pop\n      pop\n      jump\t// out\n        /* \"#utility.yul\":9213:9526   */\n    tag_98:\n        /* \"#utility.yul\":9326:9330   */\n      0x00\n        /* \"#utility.yul\":9364:9366   */\n      0x20\n        /* \"#utility.yul\":9353:9362   */\n      dup3\n        /* \"#utility.yul\":9349:9367   */\n      add\n        /* \"#utility.yul\":9341:9367   */\n      swap1\n      pop\n        /* \"#utility.yul\":9413:9422   */\n      dup2\n        /* \"#utility.yul\":9407:9411   */\n      dup2\n        /* \"#utility.yul\":9403:9423   */\n      sub\n        /* \"#utility.yul\":9399:9400   */\n      0x00\n        /* \"#utility.yul\":9388:9397   */\n      dup4\n        /* \"#utility.yul\":9384:9401   */\n      add\n        /* \"#utility.yul\":9377:9424   */\n      mstore\n        /* \"#utility.yul\":9441:9519   */\n      tag_286\n        /* \"#utility.yul\":9514:9518   */\n      dup2\n        /* \"#utility.yul\":9505:9511   */\n      dup5\n        /* \"#utility.yul\":9441:9519   */\n      tag_175\n      jump\t// in\n    tag_286:\n        /* \"#utility.yul\":9433:9519   */\n      swap1\n      pop\n        /* \"#utility.yul\":9213:9526   */\n      swap3\n      swap2\n      pop\n      pop\n      jump\t// out\n        /* \"#utility.yul\":9532:9712   */\n    tag_109:\n        /* \"#utility.yul\":9580:9657   */\n      0x4e487b7100000000000000000000000000000000000000000000000000000000\n        /* \"#utility.yul\":9577:9578   */\n      0x00\n        /* \"#utility.yul\":9570:9658   */\n      mstore\n        /* \"#utility.yul\":9677:9681   */\n      0x32\n        /* \"#utility.yul\":9674:9675   */\n      0x04\n        /* \"#utility.yul\":9667:9682   */\n      mstore\n        /* \"#utility.yul\":9701:9705   */\n      0x24\n        /* \"#utility.yul\":9698:9699   */\n      0x00\n        /* \"#utility.yul\":9691:9706   */\n      revert\n        /* \"#utility.yul\":9718:9950   */\n    tag_176:\n        /* \"#utility.yul\":9858:9892   */\n      0x5468697320616464726573732068617320616c726561647920656e7465726564\n        /* \"#utility.yul\":9854:9855   */\n      0x00\n        /* \"#utility.yul\":9846:9852   */\n      dup3\n        /* \"#utility.yul\":9842:9856   */\n      add\n        /* \"#utility.yul\":9835:9893   */\n      mstore\n        /* \"#utility.yul\":9927:9942   */\n      0x20746865206c6f74746572792e00000000000000000000000000000000000000\n        /* \"#utility.yul\":9922:9924   */\n      0x20\n        /* \"#utility.yul\":9914:9920   */\n      dup3\n        /* \"#utility.yul\":9910:9925   */\n      add\n        /* \"#utility.yul\":9903:9943   */\n      mstore\n        /* \"#utility.yul\":9718:9950   */\n      pop\n      jump\t// out\n        /* \"#utility.yul\":9956:10322   */\n    tag_177:\n        /* \"#utility.yul\":10098:10101   */\n      0x00\n        /* \"#utility.yul\":10119:10186   */\n      tag_290\n        /* \"#utility.yul\":10183:10185   */\n      0x2d\n        /* \"#utility.yul\":10178:10181   */\n      dup4\n        /* \"#utility.yul\":10119:10186   */\n      tag_173\n      jump\t// in\n    tag_290:\n        /* \"#utility.yul\":10112:10186   */\n      swap2\n      pop\n        /* \"#utility.yul\":10195:10288   */\n      tag_291\n        /* \"#utility.yul\":10284:10287   */\n      dup3\n        /* \"#utility.yul\":10195:10288   */\n      tag_176\n      jump\t// in\n    tag_291:\n        /* \"#utility.yul\":10313:10315   */\n      0x40\n        /* \"#utility.yul\":10308:10311   */\n      dup3\n        /* \"#utility.yul\":10304:10316   */\n      add\n        /* \"#utility.yul\":10297:10316   */\n      swap1\n      pop\n        /* \"#utility.yul\":9956:10322   */\n      swap2\n      swap1\n      pop\n      jump\t// out\n        /* \"#utility.yul\":10328:10747   */\n    tag_119:\n        /* \"#utility.yul\":10494:10498   */\n      0x00\n        /* \"#utility.yul\":10532:10534   */\n      0x20\n        /* \"#utility.yul\":10521:10530   */\n      dup3\n        /* \"#utility.yul\":10517:10535   */\n      add\n        /* \"#utility.yul\":10509:10535   */\n      swap1\n      pop\n        /* \"#utility.yul\":10581:10590   */\n      dup2\n        /* \"#utility.yul\":10575:10579   */\n      dup2\n        /* \"#utility.yul\":10571:10591   */\n      sub\n        /* \"#utility.yul\":10567:10568   */\n      0x00\n        /* \"#utility.yul\":10556:10565   */\n      dup4\n        /* \"#utility.yul\":10552:10569   */\n      add\n        /* \"#utility.yul\":10545:10592   */\n      mstore\n        /* \"#utility.yul\":10609:10740   */\n      tag_293\n        /* \"#utility.yul\":10735:10739   */\n      dup2\n        /* \"#utility.yul\":10609:10740   */\n      tag_177\n      jump\t// in\n    tag_293:\n        /* \"#utility.yul\":10601:10740   */\n      swap1\n      pop\n        /* \"#utility.yul\":10328:10747   */\n      swap2\n      swap1\n      pop\n      jump\t// out\n        /* \"#utility.yul\":10753:10944   */\n    tag_123:\n        /* \"#utility.yul\":10793:10796   */\n      0x00\n        /* \"#utility.yul\":10812:10832   */\n      tag_295\n        /* \"#utility.yul\":10830:10831   */\n      dup3\n        /* \"#utility.yul\":10812:10832   */\n      tag_145\n      jump\t// in\n    tag_295:\n        /* \"#utility.yul\":10807:10832   */\n      swap2\n      pop\n        /* \"#utility.yul\":10846:10866   */\n      tag_296\n        /* \"#utility.yul\":10864:10865   */\n      dup4\n        /* \"#utility.yul\":10846:10866   */\n      tag_145\n      jump\t// in\n    tag_296:\n        /* \"#utility.yul\":10841:10866   */\n      swap3\n      pop\n        /* \"#utility.yul\":10889:10890   */\n      dup3\n        /* \"#utility.yul\":10886:10887   */\n      dup3\n        /* \"#utility.yul\":10882:10891   */\n      add\n        /* \"#utility.yul\":10875:10891   */\n      swap1\n      pop\n        /* \"#utility.yul\":10910:10913   */\n      dup1\n        /* \"#utility.yul\":10907:10908   */\n      dup3\n        /* \"#utility.yul\":10904:10914   */\n      gt\n        /* \"#utility.yul\":10901:10937   */\n      iszero\n      tag_297\n      jumpi\n        /* \"#utility.yul\":10917:10935   */\n      tag_298\n      tag_165\n      jump\t// in\n    tag_298:\n        /* \"#utility.yul\":10901:10937   */\n    tag_297:\n        /* \"#utility.yul\":10753:10944   */\n      swap3\n      swap2\n      pop\n      pop\n      jump\t// out\n        /* \"#utility.yul\":10950:11183   */\n    tag_131:\n        /* \"#utility.yul\":10989:10992   */\n      0x00\n        /* \"#utility.yul\":11012:11036   */\n      tag_300\n        /* \"#utility.yul\":11030:11035   */\n      dup3\n        /* \"#utility.yul\":11012:11036   */\n      tag_145\n      jump\t// in\n    tag_300:\n        /* \"#utility.yul\":11003:11036   */\n      swap2\n      pop\n        /* \"#utility.yul\":11058:11124   */\n      0xffffffffffffffffffffffffffffffffffffffffffffffffffffffffffffffff\n        /* \"#utility.yul\":11051:11056   */\n      dup3\n        /* \"#utility.yul\":11048:11125   */\n      sub\n        /* \"#utility.yul\":11045:11148   */\n      tag_301\n      jumpi\n        /* \"#utility.yul\":11128:11146   */\n      tag_302\n      tag_165\n      jump\t// in\n    tag_302:\n        /* \"#utility.yul\":11045:11148   */\n    tag_301:\n        /* \"#utility.yul\":11175:11176   */\n      0x01\n        /* \"#utility.yul\":11168:11173   */\n      dup3\n        /* \"#utility.yul\":11164:11177   */\n      add\n        /* \"#utility.yul\":11157:11177   */\n      swap1\n      pop\n        /* \"#utility.yul\":10950:11183   */\n      swap2\n      swap1\n      pop\n      jump\t// out\n        /* \"#utility.yul\":11189:11369   */\n    tag_135:\n        /* \"#utility.yul\":11237:11314   */\n      0x4e487b7100000000000000000000000000000000000000000000000000000000\n        /* \"#utility.yul\":11234:11235   */\n      0x00\n        /* \"#utility.yul\":11227:11315   */\n      mstore\n        /* \"#utility.yul\":11334:11338   */\n      0x41\n        /* \"#utility.yul\":11331:11332   */\n      0x04\n        /* \"#utility.yul\":11324:11339   */\n      mstore\n        /* \"#utility.yul\":11358:11362   */\n      0x24\n        /* \"#utility.yul\":11355:11356   */\n      0x00\n        /* \"#utility.yul\":11348:11363   */\n      revert\n\n    auxdata: 0xa2646970667358221220a3cf9cc1cd87f2fe3645ec5934557a0d747ca175d276718587e929352560930d64736f6c63430008110033\n}\n",
				"bytecode": {
					"linkReferences": {},
					"object": "6080604052611024806100136000396000f3fe6080604052600436106100a75760003560e01c8063853828b611610064578063853828b6146101bc578063912a90bb146101d3578063a8a5400814610210578063b5cc453914610239578063bd097e2114610243578063bff82dee1461024d576100a7565b806312065fe0146100ac57806312845966146100d75780631593a8c71461011457806327dff1431461012b5780632e1a7d4d146101685780637f79824314610191575b600080fd5b3480156100b857600080fd5b506100c161028a565b6040516100ce919061096c565b60405180910390f35b3480156100e357600080fd5b506100fe60048036038101906100f991906109b8565b610292565b60405161010b919061096c565b60405180910390f35b34801561012057600080fd5b506101296102d7565b005b34801561013757600080fd5b50610152600480360381019061014d91906109b8565b6103ff565b60405161015f9190610a26565b60405180910390f35b34801561017457600080fd5b5061018f600480360381019061018a91906109b8565b61043e565b005b34801561019d57600080fd5b506101a6610521565b6040516101b39190610a26565b60405180910390f35b3480156101c857600080fd5b506101d16105a4565b005b3480156101df57600080fd5b506101fa60048036038101906101f59190610a6d565b610608565b6040516102079190610ab5565b60405180910390f35b34801561021c57600080fd5b5061023760048036038101906102329190610a6d565b61065e565b005b6102416107ae565b005b61024b6107d1565b005b34801561025957600080fd5b50610274600480360381019061026f9190610b0e565b6107d3565b6040516102819190610ab5565b60405180910390f35b600047905090565b60008044426040516020016102a8929190610b5c565b6040516020818303038152906040528051906020012060001c905082816102cf9190610bb7565b915050919050565b60006102e1610521565b9050600073ffffffffffffffffffffffffffffffffffffffff168173ffffffffffffffffffffffffffffffffffffffff1603156103fc5760006064600a60005461032b9190610c17565b6103359190610c59565b905073ab8483f64d9c6d1ecf9b849ae677dd3315835cb273ffffffffffffffffffffffffffffffffffffffff166108fc829081150290604051600060405180830381858888f19350505050158015610391573d6000803e3d6000fd5b50806000808282546103a39190610c8a565b925050819055508173ffffffffffffffffffffffffffffffffffffffff166108fc6000549081150290604051600060405180830381858888f193505050501580156103f2573d6000803e3d6000fd5b5060008081905550505b50565b6002818154811061040f57600080fd5b906000526020600020016000915054906101000a900473ffffffffffffffffffffffffffffffffffffffff1681565b600061044861028a565b905080821115610457836107f3565b610460836107f3565b604051602001610471929190610dc7565b604051602081830303815290604052906104c1576040517f08c379a00000000000000000000000000000000000000000000000000000000081526004016104b89190610e60565b60405180910390fd5b5073ab8483f64d9c6d1ecf9b849ae677dd3315835cb273ffffffffffffffffffffffffffffffffffffffff166108fc839081150290604051600060405180830381858888f1935050505015801561051c573d6000803e3d6000fd5b505050565b60008060028054905090506000808203610540576000925050506105a1565b60018203610551576000905061055d565b61055a82610292565b90505b6002818154811061057157610570610e82565b5b9060005260206000200160009054906101000a900473ffffffffffffffffffffffffffffffffffffffff16925050505b90565b73ab8483f64d9c6d1ecf9b849ae677dd3315835cb273ffffffffffffffffffffffffffffffffffffffff166108fc6105da61028a565b9081150290604051600060405180830381858888f19350505050158015610605573d6000803e3d6000fd5b50565b6000600160008373ffffffffffffffffffffffffffffffffffffffff1673ffffffffffffffffffffffffffffffffffffffff16815260200190815260200160002060009054906101000a900460ff169050919050565b6000600160008373ffffffffffffffffffffffffffffffffffffffff1673ffffffffffffffffffffffffffffffffffffffff16815260200190815260200160002060009054906101000a900460ff16905080156106f0576040517f08c379a00000000000000000000000000000000000000000000000000000000081526004016106e790610f23565b60405180910390fd5b60018060008473ffffffffffffffffffffffffffffffffffffffff1673ffffffffffffffffffffffffffffffffffffffff16815260200190815260200160002060006101000a81548160ff0219169083151502179055506002829080600181540180825580915050600190039060005260206000200160009091909190916101000a81548173ffffffffffffffffffffffffffffffffffffffff021916908373ffffffffffffffffffffffffffffffffffffffff1602179055505050565b346000808282546107bf9190610f43565b925050819055506107cf3361065e565b565b565b60016020528060005260406000206000915054906101000a900460ff1681565b60606000820361083a576040518060400160405280600181526020017f3000000000000000000000000000000000000000000000000000000000000000815250905061094e565b600082905060005b6000821461086c57808061085590610f77565b915050600a826108659190610c59565b9150610842565b60008167ffffffffffffffff81111561088857610887610fbf565b5b6040519080825280601f01601f1916602001820160405280156108ba5781602001600182028036833780820191505090505b5090505b60008514610947576001826108d39190610c8a565b9150600a856108e29190610bb7565b60306108ee9190610f43565b60f81b81838151811061090457610903610e82565b5b60200101907effffffffffffffffffffffffffffffffffffffffffffffffffffffffffffff1916908160001a905350600a856109409190610c59565b94506108be565b8093505050505b919050565b6000819050919050565b61096681610953565b82525050565b6000602082019050610981600083018461095d565b92915050565b600080fd5b61099581610953565b81146109a057600080fd5b50565b6000813590506109b28161098c565b92915050565b6000602082840312156109ce576109cd610987565b5b60006109dc848285016109a3565b91505092915050565b600073ffffffffffffffffffffffffffffffffffffffff82169050919050565b6000610a10826109e5565b9050919050565b610a2081610a05565b82525050565b6000602082019050610a3b6000830184610a17565b92915050565b610a4a81610a05565b8114610a5557600080fd5b50565b600081359050610a6781610a41565b92915050565b600060208284031215610a8357610a82610987565b5b6000610a9184828501610a58565b91505092915050565b60008115159050919050565b610aaf81610a9a565b82525050565b6000602082019050610aca6000830184610aa6565b92915050565b6000610adb826109e5565b9050919050565b610aeb81610ad0565b8114610af657600080fd5b50565b600081359050610b0881610ae2565b92915050565b600060208284031215610b2457610b23610987565b5b6000610b3284828501610af9565b91505092915050565b6000819050919050565b610b56610b5182610953565b610b3b565b82525050565b6000610b688285610b45565b602082019150610b788284610b45565b6020820191508190509392505050565b7f4e487b7100000000000000000000000000000000000000000000000000000000600052601260045260246000fd5b6000610bc282610953565b9150610bcd83610953565b925082610bdd57610bdc610b88565b5b828206905092915050565b7f4e487b7100000000000000000000000000000000000000000000000000000000600052601160045260246000fd5b6000610c2282610953565b9150610c2d83610953565b9250828202610c3b81610953565b91508282048414831517610c5257610c51610be8565b5b5092915050565b6000610c6482610953565b9150610c6f83610953565b925082610c7f57610c7e610b88565b5b828204905092915050565b6000610c9582610953565b9150610ca083610953565b9250828203905081811115610cb857610cb7610be8565b5b92915050565b7f54686520616d6f756e7420000000000000000000000000000000000000000000815250565b600081519050919050565b600081905092915050565b60005b83811015610d18578082015181840152602081019050610cfd565b60008484015250505050565b6000610d2f82610ce4565b610d398185610cef565b9350610d49818560208601610cfa565b80840191505092915050565b7f2069732067726561746572207468616e2074686520636f6e747261637420626160008201527f6c616e6365200000000000000000000000000000000000000000000000000000602082015250565b6000610db1602683610cef565b9150610dbc82610d55565b602682019050919050565b6000610dd282610cbe565b600b82019150610de28285610d24565b9150610ded82610da4565b9150610df98284610d24565b91508190509392505050565b600082825260208201905092915050565b6000601f19601f8301169050919050565b6000610e3282610ce4565b610e3c8185610e05565b9350610e4c818560208601610cfa565b610e5581610e16565b840191505092915050565b60006020820190508181036000830152610e7a8184610e27565b905092915050565b7f4e487b7100000000000000000000000000000000000000000000000000000000600052603260045260246000fd5b7f5468697320616464726573732068617320616c726561647920656e746572656460008201527f20746865206c6f74746572792e00000000000000000000000000000000000000602082015250565b6000610f0d602d83610e05565b9150610f1882610eb1565b604082019050919050565b60006020820190508181036000830152610f3c81610f00565b9050919050565b6000610f4e82610953565b9150610f5983610953565b9250828201905080821115610f7157610f70610be8565b5b92915050565b6000610f8282610953565b91507fffffffffffffffffffffffffffffffffffffffffffffffffffffffffffffffff8203610fb457610fb3610be8565b5b600182019050919050565b7f4e487b7100000000000000000000000000000000000000000000000000000000600052604160045260246000fdfea2646970667358221220a3cf9cc1cd87f2fe3645ec5934557a0d747ca175d276718587e929352560930d64736f6c63430008110033",
					"opcodes": "PUSH1 0x80 PUSH1 0x40 MSTORE PUSH2 0x1024 DUP1 PUSH2 0x13 PUSH1 0x0 CODECOPY PUSH1 0x0 RETURN INVALID PUSH1 0x80 PUSH1 0x40 MSTORE PUSH1 0x4 CALLDATASIZE LT PUSH2 0xA7 JUMPI PUSH1 0x0 CALLDATALOAD PUSH1 0xE0 SHR DUP1 PUSH4 0x853828B6 GT PUSH2 0x64 JUMPI DUP1 PUSH4 0x853828B6 EQ PUSH2 0x1BC JUMPI DUP1 PUSH4 0x912A90BB EQ PUSH2 0x1D3 JUMPI DUP1 PUSH4 0xA8A54008 EQ PUSH2 0x210 JUMPI DUP1 PUSH4 0xB5CC4539 EQ PUSH2 0x239 JUMPI DUP1 PUSH4 0xBD097E21 EQ PUSH2 0x243 JUMPI DUP1 PUSH4 0xBFF82DEE EQ PUSH2 0x24D JUMPI PUSH2 0xA7 JUMP JUMPDEST DUP1 PUSH4 0x12065FE0 EQ PUSH2 0xAC JUMPI DUP1 PUSH4 0x12845966 EQ PUSH2 0xD7 JUMPI DUP1 PUSH4 0x1593A8C7 EQ PUSH2 0x114 JUMPI DUP1 PUSH4 0x27DFF143 EQ PUSH2 0x12B JUMPI DUP1 PUSH4 0x2E1A7D4D EQ PUSH2 0x168 JUMPI DUP1 PUSH4 0x7F798243 EQ PUSH2 0x191 JUMPI JUMPDEST PUSH1 0x0 DUP1 REVERT JUMPDEST CALLVALUE DUP1 ISZERO PUSH2 0xB8 JUMPI PUSH1 0x0 DUP1 REVERT JUMPDEST POP PUSH2 0xC1 PUSH2 0x28A JUMP JUMPDEST PUSH1 0x40 MLOAD PUSH2 0xCE SWAP2 SWAP1 PUSH2 0x96C JUMP JUMPDEST PUSH1 0x40 MLOAD DUP1 SWAP2 SUB SWAP1 RETURN JUMPDEST CALLVALUE DUP1 ISZERO PUSH2 0xE3 JUMPI PUSH1 0x0 DUP1 REVERT JUMPDEST POP PUSH2 0xFE PUSH1 0x4 DUP1 CALLDATASIZE SUB DUP2 ADD SWAP1 PUSH2 0xF9 SWAP2 SWAP1 PUSH2 0x9B8 JUMP JUMPDEST PUSH2 0x292 JUMP JUMPDEST PUSH1 0x40 MLOAD PUSH2 0x10B SWAP2 SWAP1 PUSH2 0x96C JUMP JUMPDEST PUSH1 0x40 MLOAD DUP1 SWAP2 SUB SWAP1 RETURN JUMPDEST CALLVALUE DUP1 ISZERO PUSH2 0x120 JUMPI PUSH1 0x0 DUP1 REVERT JUMPDEST POP PUSH2 0x129 PUSH2 0x2D7 JUMP JUMPDEST STOP JUMPDEST CALLVALUE DUP1 ISZERO PUSH2 0x137 JUMPI PUSH1 0x0 DUP1 REVERT JUMPDEST POP PUSH2 0x152 PUSH1 0x4 DUP1 CALLDATASIZE SUB DUP2 ADD SWAP1 PUSH2 0x14D SWAP2 SWAP1 PUSH2 0x9B8 JUMP JUMPDEST PUSH2 0x3FF JUMP JUMPDEST PUSH1 0x40 MLOAD PUSH2 0x15F SWAP2 SWAP1 PUSH2 0xA26 JUMP JUMPDEST PUSH1 0x40 MLOAD DUP1 SWAP2 SUB SWAP1 RETURN JUMPDEST CALLVALUE DUP1 ISZERO PUSH2 0x174 JUMPI PUSH1 0x0 DUP1 REVERT JUMPDEST POP PUSH2 0x18F PUSH1 0x4 DUP1 CALLDATASIZE SUB DUP2 ADD SWAP1 PUSH2 0x18A SWAP2 SWAP1 PUSH2 0x9B8 JUMP JUMPDEST PUSH2 0x43E JUMP JUMPDEST STOP JUMPDEST CALLVALUE DUP1 ISZERO PUSH2 0x19D JUMPI PUSH1 0x0 DUP1 REVERT JUMPDEST POP PUSH2 0x1A6 PUSH2 0x521 JUMP JUMPDEST PUSH1 0x40 MLOAD PUSH2 0x1B3 SWAP2 SWAP1 PUSH2 0xA26 JUMP JUMPDEST PUSH1 0x40 MLOAD DUP1 SWAP2 SUB SWAP1 RETURN JUMPDEST CALLVALUE DUP1 ISZERO PUSH2 0x1C8 JUMPI PUSH1 0x0 DUP1 REVERT JUMPDEST POP PUSH2 0x1D1 PUSH2 0x5A4 JUMP JUMPDEST STOP JUMPDEST CALLVALUE DUP1 ISZERO PUSH2 0x1DF JUMPI PUSH1 0x0 DUP1 REVERT JUMPDEST POP PUSH2 0x1FA PUSH1 0x4 DUP1 CALLDATASIZE SUB DUP2 ADD SWAP1 PUSH2 0x1F5 SWAP2 SWAP1 PUSH2 0xA6D JUMP JUMPDEST PUSH2 0x608 JUMP JUMPDEST PUSH1 0x40 MLOAD PUSH2 0x207 SWAP2 SWAP1 PUSH2 0xAB5 JUMP JUMPDEST PUSH1 0x40 MLOAD DUP1 SWAP2 SUB SWAP1 RETURN JUMPDEST CALLVALUE DUP1 ISZERO PUSH2 0x21C JUMPI PUSH1 0x0 DUP1 REVERT JUMPDEST POP PUSH2 0x237 PUSH1 0x4 DUP1 CALLDATASIZE SUB DUP2 ADD SWAP1 PUSH2 0x232 SWAP2 SWAP1 PUSH2 0xA6D JUMP JUMPDEST PUSH2 0x65E JUMP JUMPDEST STOP JUMPDEST PUSH2 0x241 PUSH2 0x7AE JUMP JUMPDEST STOP JUMPDEST PUSH2 0x24B PUSH2 0x7D1 JUMP JUMPDEST STOP JUMPDEST CALLVALUE DUP1 ISZERO PUSH2 0x259 JUMPI PUSH1 0x0 DUP1 REVERT JUMPDEST POP PUSH2 0x274 PUSH1 0x4 DUP1 CALLDATASIZE SUB DUP2 ADD SWAP1 PUSH2 0x26F SWAP2 SWAP1 PUSH2 0xB0E JUMP JUMPDEST PUSH2 0x7D3 JUMP JUMPDEST PUSH1 0x40 MLOAD PUSH2 0x281 SWAP2 SWAP1 PUSH2 0xAB5 JUMP JUMPDEST PUSH1 0x40 MLOAD DUP1 SWAP2 SUB SWAP1 RETURN JUMPDEST PUSH1 0x0 SELFBALANCE SWAP1 POP SWAP1 JUMP JUMPDEST PUSH1 0x0 DUP1 DIFFICULTY TIMESTAMP PUSH1 0x40 MLOAD PUSH1 0x20 ADD PUSH2 0x2A8 SWAP3 SWAP2 SWAP1 PUSH2 0xB5C JUMP JUMPDEST PUSH1 0x40 MLOAD PUSH1 0x20 DUP2 DUP4 SUB SUB DUP2 MSTORE SWAP1 PUSH1 0x40 MSTORE DUP1 MLOAD SWAP1 PUSH1 0x20 ADD KECCAK256 PUSH1 0x0 SHR SWAP1 POP DUP3 DUP2 PUSH2 0x2CF SWAP2 SWAP1 PUSH2 0xBB7 JUMP JUMPDEST SWAP2 POP POP SWAP2 SWAP1 POP JUMP JUMPDEST PUSH1 0x0 PUSH2 0x2E1 PUSH2 0x521 JUMP JUMPDEST SWAP1 POP PUSH1 0x0 PUSH20 0xFFFFFFFFFFFFFFFFFFFFFFFFFFFFFFFFFFFFFFFF AND DUP2 PUSH20 0xFFFFFFFFFFFFFFFFFFFFFFFFFFFFFFFFFFFFFFFF AND SUB ISZERO PUSH2 0x3FC JUMPI PUSH1 0x0 PUSH1 0x64 PUSH1 0xA PUSH1 0x0 SLOAD PUSH2 0x32B SWAP2 SWAP1 PUSH2 0xC17 JUMP JUMPDEST PUSH2 0x335 SWAP2 SWAP1 PUSH2 0xC59 JUMP JUMPDEST SWAP1 POP PUSH20 0xAB8483F64D9C6D1ECF9B849AE677DD3315835CB2 PUSH20 0xFFFFFFFFFFFFFFFFFFFFFFFFFFFFFFFFFFFFFFFF AND PUSH2 0x8FC DUP3 SWAP1 DUP2 ISZERO MUL SWAP1 PUSH1 0x40 MLOAD PUSH1 0x0 PUSH1 0x40 MLOAD DUP1 DUP4 SUB DUP2 DUP6 DUP9 DUP9 CALL SWAP4 POP POP POP POP ISZERO DUP1 ISZERO PUSH2 0x391 JUMPI RETURNDATASIZE PUSH1 0x0 DUP1 RETURNDATACOPY RETURNDATASIZE PUSH1 0x0 REVERT JUMPDEST POP DUP1 PUSH1 0x0 DUP1 DUP3 DUP3 SLOAD PUSH2 0x3A3 SWAP2 SWAP1 PUSH2 0xC8A JUMP JUMPDEST SWAP3 POP POP DUP2 SWAP1 SSTORE POP DUP2 PUSH20 0xFFFFFFFFFFFFFFFFFFFFFFFFFFFFFFFFFFFFFFFF AND PUSH2 0x8FC PUSH1 0x0 SLOAD SWAP1 DUP2 ISZERO MUL SWAP1 PUSH1 0x40 MLOAD PUSH1 0x0 PUSH1 0x40 MLOAD DUP1 DUP4 SUB DUP2 DUP6 DUP9 DUP9 CALL SWAP4 POP POP POP POP ISZERO DUP1 ISZERO PUSH2 0x3F2 JUMPI RETURNDATASIZE PUSH1 0x0 DUP1 RETURNDATACOPY RETURNDATASIZE PUSH1 0x0 REVERT JUMPDEST POP PUSH1 0x0 DUP1 DUP2 SWAP1 SSTORE POP POP JUMPDEST POP JUMP JUMPDEST PUSH1 0x2 DUP2 DUP2 SLOAD DUP2 LT PUSH2 0x40F JUMPI PUSH1 0x0 DUP1 REVERT JUMPDEST SWAP1 PUSH1 0x0 MSTORE PUSH1 0x20 PUSH1 0x0 KECCAK256 ADD PUSH1 0x0 SWAP2 POP SLOAD SWAP1 PUSH2 0x100 EXP SWAP1 DIV PUSH20 0xFFFFFFFFFFFFFFFFFFFFFFFFFFFFFFFFFFFFFFFF AND DUP2 JUMP JUMPDEST PUSH1 0x0 PUSH2 0x448 PUSH2 0x28A JUMP JUMPDEST SWAP1 POP DUP1 DUP3 GT ISZERO PUSH2 0x457 DUP4 PUSH2 0x7F3 JUMP JUMPDEST PUSH2 0x460 DUP4 PUSH2 0x7F3 JUMP JUMPDEST PUSH1 0x40 MLOAD PUSH1 0x20 ADD PUSH2 0x471 SWAP3 SWAP2 SWAP1 PUSH2 0xDC7 JUMP JUMPDEST PUSH1 0x40 MLOAD PUSH1 0x20 DUP2 DUP4 SUB SUB DUP2 MSTORE SWAP1 PUSH1 0x40 MSTORE SWAP1 PUSH2 0x4C1 JUMPI PUSH1 0x40 MLOAD PUSH32 0x8C379A000000000000000000000000000000000000000000000000000000000 DUP2 MSTORE PUSH1 0x4 ADD PUSH2 0x4B8 SWAP2 SWAP1 PUSH2 0xE60 JUMP JUMPDEST PUSH1 0x40 MLOAD DUP1 SWAP2 SUB SWAP1 REVERT JUMPDEST POP PUSH20 0xAB8483F64D9C6D1ECF9B849AE677DD3315835CB2 PUSH20 0xFFFFFFFFFFFFFFFFFFFFFFFFFFFFFFFFFFFFFFFF AND PUSH2 0x8FC DUP4 SWAP1 DUP2 ISZERO MUL SWAP1 PUSH1 0x40 MLOAD PUSH1 0x0 PUSH1 0x40 MLOAD DUP1 DUP4 SUB DUP2 DUP6 DUP9 DUP9 CALL SWAP4 POP POP POP POP ISZERO DUP1 ISZERO PUSH2 0x51C JUMPI RETURNDATASIZE PUSH1 0x0 DUP1 RETURNDATACOPY RETURNDATASIZE PUSH1 0x0 REVERT JUMPDEST POP POP POP JUMP JUMPDEST PUSH1 0x0 DUP1 PUSH1 0x2 DUP1 SLOAD SWAP1 POP SWAP1 POP PUSH1 0x0 DUP1 DUP3 SUB PUSH2 0x540 JUMPI PUSH1 0x0 SWAP3 POP POP POP PUSH2 0x5A1 JUMP JUMPDEST PUSH1 0x1 DUP3 SUB PUSH2 0x551 JUMPI PUSH1 0x0 SWAP1 POP PUSH2 0x55D JUMP JUMPDEST PUSH2 0x55A DUP3 PUSH2 0x292 JUMP JUMPDEST SWAP1 POP JUMPDEST PUSH1 0x2 DUP2 DUP2 SLOAD DUP2 LT PUSH2 0x571 JUMPI PUSH2 0x570 PUSH2 0xE82 JUMP JUMPDEST JUMPDEST SWAP1 PUSH1 0x0 MSTORE PUSH1 0x20 PUSH1 0x0 KECCAK256 ADD PUSH1 0x0 SWAP1 SLOAD SWAP1 PUSH2 0x100 EXP SWAP1 DIV PUSH20 0xFFFFFFFFFFFFFFFFFFFFFFFFFFFFFFFFFFFFFFFF AND SWAP3 POP POP POP JUMPDEST SWAP1 JUMP JUMPDEST PUSH20 0xAB8483F64D9C6D1ECF9B849AE677DD3315835CB2 PUSH20 0xFFFFFFFFFFFFFFFFFFFFFFFFFFFFFFFFFFFFFFFF AND PUSH2 0x8FC PUSH2 0x5DA PUSH2 0x28A JUMP JUMPDEST SWAP1 DUP2 ISZERO MUL SWAP1 PUSH1 0x40 MLOAD PUSH1 0x0 PUSH1 0x40 MLOAD DUP1 DUP4 SUB DUP2 DUP6 DUP9 DUP9 CALL SWAP4 POP POP POP POP ISZERO DUP1 ISZERO PUSH2 0x605 JUMPI RETURNDATASIZE PUSH1 0x0 DUP1 RETURNDATACOPY RETURNDATASIZE PUSH1 0x0 REVERT JUMPDEST POP JUMP JUMPDEST PUSH1 0x0 PUSH1 0x1 PUSH1 0x0 DUP4 PUSH20 0xFFFFFFFFFFFFFFFFFFFFFFFFFFFFFFFFFFFFFFFF AND PUSH20 0xFFFFFFFFFFFFFFFFFFFFFFFFFFFFFFFFFFFFFFFF AND DUP2 MSTORE PUSH1 0x20 ADD SWAP1 DUP2 MSTORE PUSH1 0x20 ADD PUSH1 0x0 KECCAK256 PUSH1 0x0 SWAP1 SLOAD SWAP1 PUSH2 0x100 EXP SWAP1 DIV PUSH1 0xFF AND SWAP1 POP SWAP2 SWAP1 POP JUMP JUMPDEST PUSH1 0x0 PUSH1 0x1 PUSH1 0x0 DUP4 PUSH20 0xFFFFFFFFFFFFFFFFFFFFFFFFFFFFFFFFFFFFFFFF AND PUSH20 0xFFFFFFFFFFFFFFFFFFFFFFFFFFFFFFFFFFFFFFFF AND DUP2 MSTORE PUSH1 0x20 ADD SWAP1 DUP2 MSTORE PUSH1 0x20 ADD PUSH1 0x0 KECCAK256 PUSH1 0x0 SWAP1 SLOAD SWAP1 PUSH2 0x100 EXP SWAP1 DIV PUSH1 0xFF AND SWAP1 POP DUP1 ISZERO PUSH2 0x6F0 JUMPI PUSH1 0x40 MLOAD PUSH32 0x8C379A000000000000000000000000000000000000000000000000000000000 DUP2 MSTORE PUSH1 0x4 ADD PUSH2 0x6E7 SWAP1 PUSH2 0xF23 JUMP JUMPDEST PUSH1 0x40 MLOAD DUP1 SWAP2 SUB SWAP1 REVERT JUMPDEST PUSH1 0x1 DUP1 PUSH1 0x0 DUP5 PUSH20 0xFFFFFFFFFFFFFFFFFFFFFFFFFFFFFFFFFFFFFFFF AND PUSH20 0xFFFFFFFFFFFFFFFFFFFFFFFFFFFFFFFFFFFFFFFF AND DUP2 MSTORE PUSH1 0x20 ADD SWAP1 DUP2 MSTORE PUSH1 0x20 ADD PUSH1 0x0 KECCAK256 PUSH1 0x0 PUSH2 0x100 EXP DUP2 SLOAD DUP2 PUSH1 0xFF MUL NOT AND SWAP1 DUP4 ISZERO ISZERO MUL OR SWAP1 SSTORE POP PUSH1 0x2 DUP3 SWAP1 DUP1 PUSH1 0x1 DUP2 SLOAD ADD DUP1 DUP3 SSTORE DUP1 SWAP2 POP POP PUSH1 0x1 SWAP1 SUB SWAP1 PUSH1 0x0 MSTORE PUSH1 0x20 PUSH1 0x0 KECCAK256 ADD PUSH1 0x0 SWAP1 SWAP2 SWAP1 SWAP2 SWAP1 SWAP2 PUSH2 0x100 EXP DUP2 SLOAD DUP2 PUSH20 0xFFFFFFFFFFFFFFFFFFFFFFFFFFFFFFFFFFFFFFFF MUL NOT AND SWAP1 DUP4 PUSH20 0xFFFFFFFFFFFFFFFFFFFFFFFFFFFFFFFFFFFFFFFF AND MUL OR SWAP1 SSTORE POP POP POP JUMP JUMPDEST CALLVALUE PUSH1 0x0 DUP1 DUP3 DUP3 SLOAD PUSH2 0x7BF SWAP2 SWAP1 PUSH2 0xF43 JUMP JUMPDEST SWAP3 POP POP DUP2 SWAP1 SSTORE POP PUSH2 0x7CF CALLER PUSH2 0x65E JUMP JUMPDEST JUMP JUMPDEST JUMP JUMPDEST PUSH1 0x1 PUSH1 0x20 MSTORE DUP1 PUSH1 0x0 MSTORE PUSH1 0x40 PUSH1 0x0 KECCAK256 PUSH1 0x0 SWAP2 POP SLOAD SWAP1 PUSH2 0x100 EXP SWAP1 DIV PUSH1 0xFF AND DUP2 JUMP JUMPDEST PUSH1 0x60 PUSH1 0x0 DUP3 SUB PUSH2 0x83A JUMPI PUSH1 0x40 MLOAD DUP1 PUSH1 0x40 ADD PUSH1 0x40 MSTORE DUP1 PUSH1 0x1 DUP2 MSTORE PUSH1 0x20 ADD PUSH32 0x3000000000000000000000000000000000000000000000000000000000000000 DUP2 MSTORE POP SWAP1 POP PUSH2 0x94E JUMP JUMPDEST PUSH1 0x0 DUP3 SWAP1 POP PUSH1 0x0 JUMPDEST PUSH1 0x0 DUP3 EQ PUSH2 0x86C JUMPI DUP1 DUP1 PUSH2 0x855 SWAP1 PUSH2 0xF77 JUMP JUMPDEST SWAP2 POP POP PUSH1 0xA DUP3 PUSH2 0x865 SWAP2 SWAP1 PUSH2 0xC59 JUMP JUMPDEST SWAP2 POP PUSH2 0x842 JUMP JUMPDEST PUSH1 0x0 DUP2 PUSH8 0xFFFFFFFFFFFFFFFF DUP2 GT ISZERO PUSH2 0x888 JUMPI PUSH2 0x887 PUSH2 0xFBF JUMP JUMPDEST JUMPDEST PUSH1 0x40 MLOAD SWAP1 DUP1 DUP3 MSTORE DUP1 PUSH1 0x1F ADD PUSH1 0x1F NOT AND PUSH1 0x20 ADD DUP3 ADD PUSH1 0x40 MSTORE DUP1 ISZERO PUSH2 0x8BA JUMPI DUP2 PUSH1 0x20 ADD PUSH1 0x1 DUP3 MUL DUP1 CALLDATASIZE DUP4 CALLDATACOPY DUP1 DUP3 ADD SWAP2 POP POP SWAP1 POP JUMPDEST POP SWAP1 POP JUMPDEST PUSH1 0x0 DUP6 EQ PUSH2 0x947 JUMPI PUSH1 0x1 DUP3 PUSH2 0x8D3 SWAP2 SWAP1 PUSH2 0xC8A JUMP JUMPDEST SWAP2 POP PUSH1 0xA DUP6 PUSH2 0x8E2 SWAP2 SWAP1 PUSH2 0xBB7 JUMP JUMPDEST PUSH1 0x30 PUSH2 0x8EE SWAP2 SWAP1 PUSH2 0xF43 JUMP JUMPDEST PUSH1 0xF8 SHL DUP2 DUP4 DUP2 MLOAD DUP2 LT PUSH2 0x904 JUMPI PUSH2 0x903 PUSH2 0xE82 JUMP JUMPDEST JUMPDEST PUSH1 0x20 ADD ADD SWAP1 PUSH31 0xFFFFFFFFFFFFFFFFFFFFFFFFFFFFFFFFFFFFFFFFFFFFFFFFFFFFFFFFFFFFFF NOT AND SWAP1 DUP2 PUSH1 0x0 BYTE SWAP1 MSTORE8 POP PUSH1 0xA DUP6 PUSH2 0x940 SWAP2 SWAP1 PUSH2 0xC59 JUMP JUMPDEST SWAP5 POP PUSH2 0x8BE JUMP JUMPDEST DUP1 SWAP4 POP POP POP POP JUMPDEST SWAP2 SWAP1 POP JUMP JUMPDEST PUSH1 0x0 DUP2 SWAP1 POP SWAP2 SWAP1 POP JUMP JUMPDEST PUSH2 0x966 DUP2 PUSH2 0x953 JUMP JUMPDEST DUP3 MSTORE POP POP JUMP JUMPDEST PUSH1 0x0 PUSH1 0x20 DUP3 ADD SWAP1 POP PUSH2 0x981 PUSH1 0x0 DUP4 ADD DUP5 PUSH2 0x95D JUMP JUMPDEST SWAP3 SWAP2 POP POP JUMP JUMPDEST PUSH1 0x0 DUP1 REVERT JUMPDEST PUSH2 0x995 DUP2 PUSH2 0x953 JUMP JUMPDEST DUP2 EQ PUSH2 0x9A0 JUMPI PUSH1 0x0 DUP1 REVERT JUMPDEST POP JUMP JUMPDEST PUSH1 0x0 DUP2 CALLDATALOAD SWAP1 POP PUSH2 0x9B2 DUP2 PUSH2 0x98C JUMP JUMPDEST SWAP3 SWAP2 POP POP JUMP JUMPDEST PUSH1 0x0 PUSH1 0x20 DUP3 DUP5 SUB SLT ISZERO PUSH2 0x9CE JUMPI PUSH2 0x9CD PUSH2 0x987 JUMP JUMPDEST JUMPDEST PUSH1 0x0 PUSH2 0x9DC DUP5 DUP3 DUP6 ADD PUSH2 0x9A3 JUMP JUMPDEST SWAP2 POP POP SWAP3 SWAP2 POP POP JUMP JUMPDEST PUSH1 0x0 PUSH20 0xFFFFFFFFFFFFFFFFFFFFFFFFFFFFFFFFFFFFFFFF DUP3 AND SWAP1 POP SWAP2 SWAP1 POP JUMP JUMPDEST PUSH1 0x0 PUSH2 0xA10 DUP3 PUSH2 0x9E5 JUMP JUMPDEST SWAP1 POP SWAP2 SWAP1 POP JUMP JUMPDEST PUSH2 0xA20 DUP2 PUSH2 0xA05 JUMP JUMPDEST DUP3 MSTORE POP POP JUMP JUMPDEST PUSH1 0x0 PUSH1 0x20 DUP3 ADD SWAP1 POP PUSH2 0xA3B PUSH1 0x0 DUP4 ADD DUP5 PUSH2 0xA17 JUMP JUMPDEST SWAP3 SWAP2 POP POP JUMP JUMPDEST PUSH2 0xA4A DUP2 PUSH2 0xA05 JUMP JUMPDEST DUP2 EQ PUSH2 0xA55 JUMPI PUSH1 0x0 DUP1 REVERT JUMPDEST POP JUMP JUMPDEST PUSH1 0x0 DUP2 CALLDATALOAD SWAP1 POP PUSH2 0xA67 DUP2 PUSH2 0xA41 JUMP JUMPDEST SWAP3 SWAP2 POP POP JUMP JUMPDEST PUSH1 0x0 PUSH1 0x20 DUP3 DUP5 SUB SLT ISZERO PUSH2 0xA83 JUMPI PUSH2 0xA82 PUSH2 0x987 JUMP JUMPDEST JUMPDEST PUSH1 0x0 PUSH2 0xA91 DUP5 DUP3 DUP6 ADD PUSH2 0xA58 JUMP JUMPDEST SWAP2 POP POP SWAP3 SWAP2 POP POP JUMP JUMPDEST PUSH1 0x0 DUP2 ISZERO ISZERO SWAP1 POP SWAP2 SWAP1 POP JUMP JUMPDEST PUSH2 0xAAF DUP2 PUSH2 0xA9A JUMP JUMPDEST DUP3 MSTORE POP POP JUMP JUMPDEST PUSH1 0x0 PUSH1 0x20 DUP3 ADD SWAP1 POP PUSH2 0xACA PUSH1 0x0 DUP4 ADD DUP5 PUSH2 0xAA6 JUMP JUMPDEST SWAP3 SWAP2 POP POP JUMP JUMPDEST PUSH1 0x0 PUSH2 0xADB DUP3 PUSH2 0x9E5 JUMP JUMPDEST SWAP1 POP SWAP2 SWAP1 POP JUMP JUMPDEST PUSH2 0xAEB DUP2 PUSH2 0xAD0 JUMP JUMPDEST DUP2 EQ PUSH2 0xAF6 JUMPI PUSH1 0x0 DUP1 REVERT JUMPDEST POP JUMP JUMPDEST PUSH1 0x0 DUP2 CALLDATALOAD SWAP1 POP PUSH2 0xB08 DUP2 PUSH2 0xAE2 JUMP JUMPDEST SWAP3 SWAP2 POP POP JUMP JUMPDEST PUSH1 0x0 PUSH1 0x20 DUP3 DUP5 SUB SLT ISZERO PUSH2 0xB24 JUMPI PUSH2 0xB23 PUSH2 0x987 JUMP JUMPDEST JUMPDEST PUSH1 0x0 PUSH2 0xB32 DUP5 DUP3 DUP6 ADD PUSH2 0xAF9 JUMP JUMPDEST SWAP2 POP POP SWAP3 SWAP2 POP POP JUMP JUMPDEST PUSH1 0x0 DUP2 SWAP1 POP SWAP2 SWAP1 POP JUMP JUMPDEST PUSH2 0xB56 PUSH2 0xB51 DUP3 PUSH2 0x953 JUMP JUMPDEST PUSH2 0xB3B JUMP JUMPDEST DUP3 MSTORE POP POP JUMP JUMPDEST PUSH1 0x0 PUSH2 0xB68 DUP3 DUP6 PUSH2 0xB45 JUMP JUMPDEST PUSH1 0x20 DUP3 ADD SWAP2 POP PUSH2 0xB78 DUP3 DUP5 PUSH2 0xB45 JUMP JUMPDEST PUSH1 0x20 DUP3 ADD SWAP2 POP DUP2 SWAP1 POP SWAP4 SWAP3 POP POP POP JUMP JUMPDEST PUSH32 0x4E487B7100000000000000000000000000000000000000000000000000000000 PUSH1 0x0 MSTORE PUSH1 0x12 PUSH1 0x4 MSTORE PUSH1 0x24 PUSH1 0x0 REVERT JUMPDEST PUSH1 0x0 PUSH2 0xBC2 DUP3 PUSH2 0x953 JUMP JUMPDEST SWAP2 POP PUSH2 0xBCD DUP4 PUSH2 0x953 JUMP JUMPDEST SWAP3 POP DUP3 PUSH2 0xBDD JUMPI PUSH2 0xBDC PUSH2 0xB88 JUMP JUMPDEST JUMPDEST DUP3 DUP3 MOD SWAP1 POP SWAP3 SWAP2 POP POP JUMP JUMPDEST PUSH32 0x4E487B7100000000000000000000000000000000000000000000000000000000 PUSH1 0x0 MSTORE PUSH1 0x11 PUSH1 0x4 MSTORE PUSH1 0x24 PUSH1 0x0 REVERT JUMPDEST PUSH1 0x0 PUSH2 0xC22 DUP3 PUSH2 0x953 JUMP JUMPDEST SWAP2 POP PUSH2 0xC2D DUP4 PUSH2 0x953 JUMP JUMPDEST SWAP3 POP DUP3 DUP3 MUL PUSH2 0xC3B DUP2 PUSH2 0x953 JUMP JUMPDEST SWAP2 POP DUP3 DUP3 DIV DUP5 EQ DUP4 ISZERO OR PUSH2 0xC52 JUMPI PUSH2 0xC51 PUSH2 0xBE8 JUMP JUMPDEST JUMPDEST POP SWAP3 SWAP2 POP POP JUMP JUMPDEST PUSH1 0x0 PUSH2 0xC64 DUP3 PUSH2 0x953 JUMP JUMPDEST SWAP2 POP PUSH2 0xC6F DUP4 PUSH2 0x953 JUMP JUMPDEST SWAP3 POP DUP3 PUSH2 0xC7F JUMPI PUSH2 0xC7E PUSH2 0xB88 JUMP JUMPDEST JUMPDEST DUP3 DUP3 DIV SWAP1 POP SWAP3 SWAP2 POP POP JUMP JUMPDEST PUSH1 0x0 PUSH2 0xC95 DUP3 PUSH2 0x953 JUMP JUMPDEST SWAP2 POP PUSH2 0xCA0 DUP4 PUSH2 0x953 JUMP JUMPDEST SWAP3 POP DUP3 DUP3 SUB SWAP1 POP DUP2 DUP2 GT ISZERO PUSH2 0xCB8 JUMPI PUSH2 0xCB7 PUSH2 0xBE8 JUMP JUMPDEST JUMPDEST SWAP3 SWAP2 POP POP JUMP JUMPDEST PUSH32 0x54686520616D6F756E7420000000000000000000000000000000000000000000 DUP2 MSTORE POP JUMP JUMPDEST PUSH1 0x0 DUP2 MLOAD SWAP1 POP SWAP2 SWAP1 POP JUMP JUMPDEST PUSH1 0x0 DUP2 SWAP1 POP SWAP3 SWAP2 POP POP JUMP JUMPDEST PUSH1 0x0 JUMPDEST DUP4 DUP2 LT ISZERO PUSH2 0xD18 JUMPI DUP1 DUP3 ADD MLOAD DUP2 DUP5 ADD MSTORE PUSH1 0x20 DUP2 ADD SWAP1 POP PUSH2 0xCFD JUMP JUMPDEST PUSH1 0x0 DUP5 DUP5 ADD MSTORE POP POP POP POP JUMP JUMPDEST PUSH1 0x0 PUSH2 0xD2F DUP3 PUSH2 0xCE4 JUMP JUMPDEST PUSH2 0xD39 DUP2 DUP6 PUSH2 0xCEF JUMP JUMPDEST SWAP4 POP PUSH2 0xD49 DUP2 DUP6 PUSH1 0x20 DUP7 ADD PUSH2 0xCFA JUMP JUMPDEST DUP1 DUP5 ADD SWAP2 POP POP SWAP3 SWAP2 POP POP JUMP JUMPDEST PUSH32 0x2069732067726561746572207468616E2074686520636F6E7472616374206261 PUSH1 0x0 DUP3 ADD MSTORE PUSH32 0x6C616E6365200000000000000000000000000000000000000000000000000000 PUSH1 0x20 DUP3 ADD MSTORE POP JUMP JUMPDEST PUSH1 0x0 PUSH2 0xDB1 PUSH1 0x26 DUP4 PUSH2 0xCEF JUMP JUMPDEST SWAP2 POP PUSH2 0xDBC DUP3 PUSH2 0xD55 JUMP JUMPDEST PUSH1 0x26 DUP3 ADD SWAP1 POP SWAP2 SWAP1 POP JUMP JUMPDEST PUSH1 0x0 PUSH2 0xDD2 DUP3 PUSH2 0xCBE JUMP JUMPDEST PUSH1 0xB DUP3 ADD SWAP2 POP PUSH2 0xDE2 DUP3 DUP6 PUSH2 0xD24 JUMP JUMPDEST SWAP2 POP PUSH2 0xDED DUP3 PUSH2 0xDA4 JUMP JUMPDEST SWAP2 POP PUSH2 0xDF9 DUP3 DUP5 PUSH2 0xD24 JUMP JUMPDEST SWAP2 POP DUP2 SWAP1 POP SWAP4 SWAP3 POP POP POP JUMP JUMPDEST PUSH1 0x0 DUP3 DUP3 MSTORE PUSH1 0x20 DUP3 ADD SWAP1 POP SWAP3 SWAP2 POP POP JUMP JUMPDEST PUSH1 0x0 PUSH1 0x1F NOT PUSH1 0x1F DUP4 ADD AND SWAP1 POP SWAP2 SWAP1 POP JUMP JUMPDEST PUSH1 0x0 PUSH2 0xE32 DUP3 PUSH2 0xCE4 JUMP JUMPDEST PUSH2 0xE3C DUP2 DUP6 PUSH2 0xE05 JUMP JUMPDEST SWAP4 POP PUSH2 0xE4C DUP2 DUP6 PUSH1 0x20 DUP7 ADD PUSH2 0xCFA JUMP JUMPDEST PUSH2 0xE55 DUP2 PUSH2 0xE16 JUMP JUMPDEST DUP5 ADD SWAP2 POP POP SWAP3 SWAP2 POP POP JUMP JUMPDEST PUSH1 0x0 PUSH1 0x20 DUP3 ADD SWAP1 POP DUP2 DUP2 SUB PUSH1 0x0 DUP4 ADD MSTORE PUSH2 0xE7A DUP2 DUP5 PUSH2 0xE27 JUMP JUMPDEST SWAP1 POP SWAP3 SWAP2 POP POP JUMP JUMPDEST PUSH32 0x4E487B7100000000000000000000000000000000000000000000000000000000 PUSH1 0x0 MSTORE PUSH1 0x32 PUSH1 0x4 MSTORE PUSH1 0x24 PUSH1 0x0 REVERT JUMPDEST PUSH32 0x5468697320616464726573732068617320616C726561647920656E7465726564 PUSH1 0x0 DUP3 ADD MSTORE PUSH32 0x20746865206C6F74746572792E00000000000000000000000000000000000000 PUSH1 0x20 DUP3 ADD MSTORE POP JUMP JUMPDEST PUSH1 0x0 PUSH2 0xF0D PUSH1 0x2D DUP4 PUSH2 0xE05 JUMP JUMPDEST SWAP2 POP PUSH2 0xF18 DUP3 PUSH2 0xEB1 JUMP JUMPDEST PUSH1 0x40 DUP3 ADD SWAP1 POP SWAP2 SWAP1 POP JUMP JUMPDEST PUSH1 0x0 PUSH1 0x20 DUP3 ADD SWAP1 POP DUP2 DUP2 SUB PUSH1 0x0 DUP4 ADD MSTORE PUSH2 0xF3C DUP2 PUSH2 0xF00 JUMP JUMPDEST SWAP1 POP SWAP2 SWAP1 POP JUMP JUMPDEST PUSH1 0x0 PUSH2 0xF4E DUP3 PUSH2 0x953 JUMP JUMPDEST SWAP2 POP PUSH2 0xF59 DUP4 PUSH2 0x953 JUMP JUMPDEST SWAP3 POP DUP3 DUP3 ADD SWAP1 POP DUP1 DUP3 GT ISZERO PUSH2 0xF71 JUMPI PUSH2 0xF70 PUSH2 0xBE8 JUMP JUMPDEST JUMPDEST SWAP3 SWAP2 POP POP JUMP JUMPDEST PUSH1 0x0 PUSH2 0xF82 DUP3 PUSH2 0x953 JUMP JUMPDEST SWAP2 POP PUSH32 0xFFFFFFFFFFFFFFFFFFFFFFFFFFFFFFFFFFFFFFFFFFFFFFFFFFFFFFFFFFFFFFFF DUP3 SUB PUSH2 0xFB4 JUMPI PUSH2 0xFB3 PUSH2 0xBE8 JUMP JUMPDEST JUMPDEST PUSH1 0x1 DUP3 ADD SWAP1 POP SWAP2 SWAP1 POP JUMP JUMPDEST PUSH32 0x4E487B7100000000000000000000000000000000000000000000000000000000 PUSH1 0x0 MSTORE PUSH1 0x41 PUSH1 0x4 MSTORE PUSH1 0x24 PUSH1 0x0 REVERT INVALID LOG2 PUSH5 0x6970667358 0x22 SLT KECCAK256 LOG3 0xCF SWAP13 0xC1 0xCD DUP8 CALLCODE INVALID CALLDATASIZE GASLIMIT 0xEC MSIZE CALLVALUE SSTORE PUSH27 0xD747CA175D276718587E929352560930D64736F6C634300081100 CALLER "
				},
				"gasEstimates": {
					"creation": {
						"codeDepositCost": "826400",
						"executionCost": "840",
						"totalCost": "827240"
					},
					"external": {
						"chooseWinningAddress()": "infinite",
						"endLottery()": "infinite",
						"fundContract()": "208",
						"fundLottery()": "infinite",
						"getBalance()": "340",
						"isAddressPlaying(address)": "2905",
						"list_playerAddress(uint256)": "5023",
						"map_isPlaying(address)": "2955",
						"randomInt(uint256)": "infinite",
						"registerAddress(address)": "75694",
						"withdraw(uint256)": "infinite",
						"withdrawAll()": "infinite"
					}
				},
				"methodIdentifiers": {
					"chooseWinningAddress()": "7f798243",
					"endLottery()": "1593a8c7",
					"fundContract()": "bd097e21",
					"fundLottery()": "b5cc4539",
					"getBalance()": "12065fe0",
					"isAddressPlaying(address)": "912a90bb",
					"list_playerAddress(uint256)": "27dff143",
					"map_isPlaying(address)": "bff82dee",
					"randomInt(uint256)": "12845966",
					"registerAddress(address)": "a8a54008",
					"withdraw(uint256)": "2e1a7d4d",
					"withdrawAll()": "853828b6"
				}
			},
			"storageLayout": {
				"storage": [
					{
						"astId": 246,
						"contract": "contracts/lottery.sol:Lottery",
						"label": "totalPrize",
						"offset": 0,
						"slot": "0",
						"type": "t_uint256"
					},
					{
						"astId": 250,
						"contract": "contracts/lottery.sol:Lottery",
						"label": "map_isPlaying",
						"offset": 0,
						"slot": "1",
						"type": "t_mapping(t_address,t_bool)"
					},
					{
						"astId": 253,
						"contract": "contracts/lottery.sol:Lottery",
						"label": "list_playerAddress",
						"offset": 0,
						"slot": "2",
						"type": "t_array(t_address_payable)dyn_storage"
					}
				],
				"types": {
					"t_address": {
						"encoding": "inplace",
						"label": "address",
						"numberOfBytes": "20"
					},
					"t_address_payable": {
						"encoding": "inplace",
						"label": "address payable",
						"numberOfBytes": "20"
					},
					"t_array(t_address_payable)dyn_storage": {
						"base": "t_address_payable",
						"encoding": "dynamic_array",
						"label": "address payable[]",
						"numberOfBytes": "32"
					},
					"t_bool": {
						"encoding": "inplace",
						"label": "bool",
						"numberOfBytes": "1"
					},
					"t_mapping(t_address,t_bool)": {
						"encoding": "mapping",
						"key": "t_address",
						"label": "mapping(address => bool)",
						"numberOfBytes": "32",
						"value": "t_bool"
					},
					"t_uint256": {
						"encoding": "inplace",
						"label": "uint256",
						"numberOfBytes": "32"
					}
				}
			},
			"userdoc": {
				"kind": "user",
				"methods": {},
				"version": 1
			}
		}
	}
}