{
	"contracts/lottery.sol": {
		"Lottery": {
			"abi": [
				{
					"inputs": [],
					"stateMutability": "payable",
					"type": "constructor"
				},
				{
					"inputs": [],
					"name": "chooseWinningAddress",
					"outputs": [
						{
							"internalType": "address payable",
							"name": "",
							"type": "address"
						}
					],
					"stateMutability": "view",
					"type": "function"
				},
				{
					"inputs": [],
					"name": "disableContract",
					"outputs": [],
					"stateMutability": "nonpayable",
					"type": "function"
				},
				{
					"inputs": [],
					"name": "enableContract",
					"outputs": [],
					"stateMutability": "nonpayable",
					"type": "function"
				},
				{
					"inputs": [],
					"name": "endLottery",
					"outputs": [],
					"stateMutability": "nonpayable",
					"type": "function"
				},
				{
					"inputs": [],
					"name": "fundContract",
					"outputs": [],
					"stateMutability": "payable",
					"type": "function"
				},
				{
					"inputs": [],
					"name": "fundLottery",
					"outputs": [],
					"stateMutability": "payable",
					"type": "function"
				},
				{
					"inputs": [],
					"name": "getBalance",
					"outputs": [
						{
							"internalType": "uint256",
							"name": "",
							"type": "uint256"
						}
					],
					"stateMutability": "view",
					"type": "function"
				},
				{
					"inputs": [
						{
							"internalType": "address payable",
							"name": "playerAddress",
							"type": "address"
						}
					],
					"name": "isAddressPlaying",
					"outputs": [
						{
							"internalType": "bool",
							"name": "",
							"type": "bool"
						}
					],
					"stateMutability": "view",
					"type": "function"
				},
				{
					"inputs": [
						{
							"internalType": "uint256",
							"name": "",
							"type": "uint256"
						}
					],
					"name": "list_playerAddress",
					"outputs": [
						{
							"internalType": "address payable",
							"name": "",
							"type": "address"
						}
					],
					"stateMutability": "view",
					"type": "function"
				},
				{
					"inputs": [
						{
							"internalType": "address",
							"name": "",
							"type": "address"
						}
					],
					"name": "map_isPlaying",
					"outputs": [
						{
							"internalType": "bool",
							"name": "",
							"type": "bool"
						}
					],
					"stateMutability": "view",
					"type": "function"
				},
				{
					"inputs": [
						{
							"internalType": "uint256",
							"name": "N",
							"type": "uint256"
						}
					],
					"name": "randomInt",
					"outputs": [
						{
							"internalType": "uint256",
							"name": "",
							"type": "uint256"
						}
					],
					"stateMutability": "view",
					"type": "function"
				},
				{
					"inputs": [
						{
							"internalType": "address payable",
							"name": "playerAddress",
							"type": "address"
						}
					],
					"name": "registerAddress",
					"outputs": [],
					"stateMutability": "nonpayable",
					"type": "function"
				},
				{
					"inputs": [],
					"name": "requireContractEnabled",
					"outputs": [],
					"stateMutability": "view",
					"type": "function"
				},
				{
					"inputs": [
						{
							"internalType": "uint256",
							"name": "amount",
							"type": "uint256"
						}
					],
					"name": "withdraw",
					"outputs": [],
					"stateMutability": "nonpayable",
					"type": "function"
				},
				{
					"inputs": [],
					"name": "withdrawAll",
					"outputs": [],
					"stateMutability": "nonpayable",
					"type": "function"
				}
			],
			"devdoc": {
				"custom:dev-run-script": "./scripts/deploy_with_ethers.ts",
				"details": "A blockchain lottery",
				"kind": "dev",
				"methods": {},
				"title": "Lottery",
				"version": 1
			},
			"evm": {
				"assembly": "    /* \"contracts/lottery.sol\":248:5825  contract Lottery {... */\n  mstore(0x40, 0x80)\n    /* \"contracts/lottery.sol\":978:982  true */\n  0x01\n    /* \"contracts/lottery.sol\":958:975  isContractEnabled */\n  0x00\n  dup1\n    /* \"contracts/lottery.sol\":958:982  isContractEnabled = true */\n  0x0100\n  exp\n  dup2\n  sload\n  dup2\n  0xff\n  mul\n  not\n  and\n  swap1\n  dup4\n  iszero\n  iszero\n  mul\n  or\n  swap1\n  sstore\n  pop\n    /* \"contracts/lottery.sol\":248:5825  contract Lottery {... */\n  dataSize(sub_0)\n  dup1\n  dataOffset(sub_0)\n  0x00\n  codecopy\n  0x00\n  return\nstop\n\nsub_0: assembly {\n        /* \"contracts/lottery.sol\":248:5825  contract Lottery {... */\n      mstore(0x40, 0x80)\n      jumpi(tag_1, lt(calldatasize, 0x04))\n      shr(0xe0, calldataload(0x00))\n      dup1\n      0x7f798243\n      gt\n      tag_17\n      jumpi\n      dup1\n      0xa8a54008\n      gt\n      tag_18\n      jumpi\n      dup1\n      0xa8a54008\n      eq\n      tag_13\n      jumpi\n      dup1\n      0xb5cc4539\n      eq\n      tag_14\n      jumpi\n      dup1\n      0xbd097e21\n      eq\n      tag_15\n      jumpi\n      dup1\n      0xbff82dee\n      eq\n      tag_16\n      jumpi\n      jump(tag_1)\n    tag_18:\n      dup1\n      0x7f798243\n      eq\n      tag_9\n      jumpi\n      dup1\n      0x853828b6\n      eq\n      tag_10\n      jumpi\n      dup1\n      0x894ba833\n      eq\n      tag_11\n      jumpi\n      dup1\n      0x912a90bb\n      eq\n      tag_12\n      jumpi\n      jump(tag_1)\n    tag_17:\n      dup1\n      0x27dff143\n      gt\n      tag_19\n      jumpi\n      dup1\n      0x27dff143\n      eq\n      tag_5\n      jumpi\n      dup1\n      0x2e1a7d4d\n      eq\n      tag_6\n      jumpi\n      dup1\n      0x367edd32\n      eq\n      tag_7\n      jumpi\n      dup1\n      0x3b4ad0e5\n      eq\n      tag_8\n      jumpi\n      jump(tag_1)\n    tag_19:\n      dup1\n      0x12065fe0\n      eq\n      tag_2\n      jumpi\n      dup1\n      0x12845966\n      eq\n      tag_3\n      jumpi\n      dup1\n      0x1593a8c7\n      eq\n      tag_4\n      jumpi\n    tag_1:\n      0x00\n      dup1\n      revert\n        /* \"contracts/lottery.sol\":4373:4469  function getBalance() public view returns (uint) {... */\n    tag_2:\n      callvalue\n      dup1\n      iszero\n      tag_20\n      jumpi\n      0x00\n      dup1\n      revert\n    tag_20:\n      pop\n      tag_21\n      tag_22\n      jump\t// in\n    tag_21:\n      mload(0x40)\n      tag_23\n      swap2\n      swap1\n      tag_24\n      jump\t// in\n    tag_23:\n      mload(0x40)\n      dup1\n      swap2\n      sub\n      swap1\n      return\n        /* \"contracts/lottery.sol\":4477:4718  function randomInt(uint N) public view returns (uint) {... */\n    tag_3:\n      callvalue\n      dup1\n      iszero\n      tag_25\n      jumpi\n      0x00\n      dup1\n      revert\n    tag_25:\n      pop\n      tag_26\n      0x04\n      dup1\n      calldatasize\n      sub\n      dup2\n      add\n      swap1\n      tag_27\n      swap2\n      swap1\n      tag_28\n      jump\t// in\n    tag_27:\n      tag_29\n      jump\t// in\n    tag_26:\n      mload(0x40)\n      tag_30\n      swap2\n      swap1\n      tag_24\n      jump\t// in\n    tag_30:\n      mload(0x40)\n      dup1\n      swap2\n      sub\n      swap1\n      return\n        /* \"contracts/lottery.sol\":2976:3575  function endLottery() public {... */\n    tag_4:\n      callvalue\n      dup1\n      iszero\n      tag_31\n      jumpi\n      0x00\n      dup1\n      revert\n    tag_31:\n      pop\n      tag_32\n      tag_33\n      jump\t// in\n    tag_32:\n      stop\n        /* \"contracts/lottery.sol\":873:916  address payable[] public list_playerAddress */\n    tag_5:\n      callvalue\n      dup1\n      iszero\n      tag_34\n      jumpi\n      0x00\n      dup1\n      revert\n    tag_34:\n      pop\n      tag_35\n      0x04\n      dup1\n      calldatasize\n      sub\n      dup2\n      add\n      swap1\n      tag_36\n      swap2\n      swap1\n      tag_28\n      jump\t// in\n    tag_36:\n      tag_37\n      jump\t// in\n    tag_35:\n      mload(0x40)\n      tag_38\n      swap2\n      swap1\n      tag_39\n      jump\t// in\n    tag_38:\n      mload(0x40)\n      dup1\n      swap2\n      sub\n      swap1\n      return\n        /* \"contracts/lottery.sol\":4002:4365  function withdraw(uint amount) public {... */\n    tag_6:\n      callvalue\n      dup1\n      iszero\n      tag_40\n      jumpi\n      0x00\n      dup1\n      revert\n    tag_40:\n      pop\n      tag_41\n      0x04\n      dup1\n      calldatasize\n      sub\n      dup2\n      add\n      swap1\n      tag_42\n      swap2\n      swap1\n      tag_28\n      jump\t// in\n    tag_42:\n      tag_43\n      jump\t// in\n    tag_41:\n      stop\n        /* \"contracts/lottery.sol\":4726:4824  function enableContract() public {... */\n    tag_7:\n      callvalue\n      dup1\n      iszero\n      tag_44\n      jumpi\n      0x00\n      dup1\n      revert\n    tag_44:\n      pop\n      tag_45\n      tag_46\n      jump\t// in\n    tag_45:\n      stop\n        /* \"contracts/lottery.sol\":998:1129  function requireContractEnabled() public view {... */\n    tag_8:\n      callvalue\n      dup1\n      iszero\n      tag_47\n      jumpi\n      0x00\n      dup1\n      revert\n    tag_47:\n      pop\n      tag_48\n      tag_49\n      jump\t// in\n    tag_48:\n      stop\n        /* \"contracts/lottery.sol\":2173:2968  function chooseWinningAddress() public view returns (address payable) {... */\n    tag_9:\n      callvalue\n      dup1\n      iszero\n      tag_50\n      jumpi\n      0x00\n      dup1\n      revert\n    tag_50:\n      pop\n      tag_51\n      tag_52\n      jump\t// in\n    tag_51:\n      mload(0x40)\n      tag_53\n      swap2\n      swap1\n      tag_39\n      jump\t// in\n    tag_53:\n      mload(0x40)\n      dup1\n      swap2\n      sub\n      swap1\n      return\n        /* \"contracts/lottery.sol\":3841:3994  function withdrawAll() public {... */\n    tag_10:\n      callvalue\n      dup1\n      iszero\n      tag_54\n      jumpi\n      0x00\n      dup1\n      revert\n    tag_54:\n      pop\n      tag_55\n      tag_56\n      jump\t// in\n    tag_55:\n      stop\n        /* \"contracts/lottery.sol\":4832:4930  function disableContract() public {... */\n    tag_11:\n      callvalue\n      dup1\n      iszero\n      tag_57\n      jumpi\n      0x00\n      dup1\n      revert\n    tag_57:\n      pop\n      tag_58\n      tag_59\n      jump\t// in\n    tag_58:\n      stop\n        /* \"contracts/lottery.sol\":2027:2165  function isAddressPlaying(address payable playerAddress) public view returns (bool) {... */\n    tag_12:\n      callvalue\n      dup1\n      iszero\n      tag_60\n      jumpi\n      0x00\n      dup1\n      revert\n    tag_60:\n      pop\n      tag_61\n      0x04\n      dup1\n      calldatasize\n      sub\n      dup2\n      add\n      swap1\n      tag_62\n      swap2\n      swap1\n      tag_63\n      jump\t// in\n    tag_62:\n      tag_64\n      jump\t// in\n    tag_61:\n      mload(0x40)\n      tag_65\n      swap2\n      swap1\n      tag_66\n      jump\t// in\n    tag_65:\n      mload(0x40)\n      dup1\n      swap2\n      sub\n      swap1\n      return\n        /* \"contracts/lottery.sol\":1545:2015  function registerAddress(address payable playerAddress) public {... */\n    tag_13:\n      callvalue\n      dup1\n      iszero\n      tag_67\n      jumpi\n      0x00\n      dup1\n      revert\n    tag_67:\n      pop\n      tag_68\n      0x04\n      dup1\n      calldatasize\n      sub\n      dup2\n      add\n      swap1\n      tag_69\n      swap2\n      swap1\n      tag_63\n      jump\t// in\n    tag_69:\n      tag_70\n      jump\t// in\n    tag_68:\n      stop\n        /* \"contracts/lottery.sol\":1137:1537  function fundLottery() external payable {... */\n    tag_14:\n      tag_71\n      tag_72\n      jump\t// in\n    tag_71:\n      stop\n        /* \"contracts/lottery.sol\":3583:3833  function fundContract() external payable {... */\n    tag_15:\n      tag_73\n      tag_74\n      jump\t// in\n    tag_73:\n      stop\n        /* \"contracts/lottery.sol\":821:866  mapping(address => bool) public map_isPlaying */\n    tag_16:\n      callvalue\n      dup1\n      iszero\n      tag_75\n      jumpi\n      0x00\n      dup1\n      revert\n    tag_75:\n      pop\n      tag_76\n      0x04\n      dup1\n      calldatasize\n      sub\n      dup2\n      add\n      swap1\n      tag_77\n      swap2\n      swap1\n      tag_78\n      jump\t// in\n    tag_77:\n      tag_79\n      jump\t// in\n    tag_76:\n      mload(0x40)\n      tag_80\n      swap2\n      swap1\n      tag_66\n      jump\t// in\n    tag_80:\n      mload(0x40)\n      dup1\n      swap2\n      sub\n      swap1\n      return\n        /* \"contracts/lottery.sol\":4373:4469  function getBalance() public view returns (uint) {... */\n    tag_22:\n        /* \"contracts/lottery.sol\":4416:4420  uint */\n      0x00\n        /* \"contracts/lottery.sol\":4440:4461  address(this).balance */\n      selfbalance\n        /* \"contracts/lottery.sol\":4433:4461  return address(this).balance */\n      swap1\n      pop\n        /* \"contracts/lottery.sol\":4373:4469  function getBalance() public view returns (uint) {... */\n      swap1\n      jump\t// out\n        /* \"contracts/lottery.sol\":4477:4718  function randomInt(uint N) public view returns (uint) {... */\n    tag_29:\n        /* \"contracts/lottery.sol\":4525:4529  uint */\n      0x00\n        /* \"contracts/lottery.sol\":4592:4607  uint randomHash */\n      dup1\n        /* \"contracts/lottery.sol\":4642:4658  block.difficulty */\n      difficulty\n        /* \"contracts/lottery.sol\":4660:4675  block.timestamp */\n      timestamp\n        /* \"contracts/lottery.sol\":4625:4676  abi.encodePacked(block.difficulty, block.timestamp) */\n      add(0x20, mload(0x40))\n      tag_83\n      swap3\n      swap2\n      swap1\n      tag_84\n      jump\t// in\n    tag_83:\n      mload(0x40)\n      0x20\n      dup2\n      dup4\n      sub\n      sub\n      dup2\n      mstore\n      swap1\n      0x40\n      mstore\n        /* \"contracts/lottery.sol\":4615:4677  keccak256(abi.encodePacked(block.difficulty, block.timestamp)) */\n      dup1\n      mload\n      swap1\n      0x20\n      add\n      keccak256\n        /* \"contracts/lottery.sol\":4610:4678  uint(keccak256(abi.encodePacked(block.difficulty, block.timestamp))) */\n      0x00\n      shr\n        /* \"contracts/lottery.sol\":4592:4678  uint randomHash = uint(keccak256(abi.encodePacked(block.difficulty, block.timestamp))) */\n      swap1\n      pop\n        /* \"contracts/lottery.sol\":4709:4710  N */\n      dup3\n        /* \"contracts/lottery.sol\":4696:4706  randomHash */\n      dup2\n        /* \"contracts/lottery.sol\":4696:4710  randomHash % N */\n      tag_85\n      swap2\n      swap1\n      tag_86\n      jump\t// in\n    tag_85:\n        /* \"contracts/lottery.sol\":4689:4710  return randomHash % N */\n      swap2\n      pop\n      pop\n        /* \"contracts/lottery.sol\":4477:4718  function randomInt(uint N) public view returns (uint) {... */\n      swap2\n      swap1\n      pop\n      jump\t// out\n        /* \"contracts/lottery.sol\":2976:3575  function endLottery() public {... */\n    tag_33:\n        /* \"contracts/lottery.sol\":3016:3046  address payable winningAddress */\n      0x00\n        /* \"contracts/lottery.sol\":3049:3071  chooseWinningAddress() */\n      tag_88\n        /* \"contracts/lottery.sol\":3049:3069  chooseWinningAddress */\n      tag_52\n        /* \"contracts/lottery.sol\":3049:3071  chooseWinningAddress() */\n      jump\t// in\n    tag_88:\n        /* \"contracts/lottery.sol\":3016:3071  address payable winningAddress = chooseWinningAddress() */\n      swap1\n      pop\n        /* \"contracts/lottery.sol\":404:446  0x0000000000000000000000000000000000000000 */\n      0x00\n        /* \"contracts/lottery.sol\":3085:3114  winningAddress == zeroAddress */\n      0xffffffffffffffffffffffffffffffffffffffff\n      and\n        /* \"contracts/lottery.sol\":3085:3099  winningAddress */\n      dup2\n        /* \"contracts/lottery.sol\":3085:3114  winningAddress == zeroAddress */\n      0xffffffffffffffffffffffffffffffffffffffff\n      and\n      sub\n        /* \"contracts/lottery.sol\":3082:3568  if(winningAddress == zeroAddress) {... */\n      iszero\n      tag_90\n      jumpi\n        /* \"contracts/lottery.sol\":3311:3329  uint operatorPrize */\n      0x00\n        /* \"contracts/lottery.sol\":3359:3362  100 */\n      0x64\n        /* \"contracts/lottery.sol\":686:688  10 */\n      0x0a\n        /* \"contracts/lottery.sol\":3332:3342  totalPrize */\n      sload(0x01)\n        /* \"contracts/lottery.sol\":3332:3356  totalPrize * operatorCut */\n      tag_91\n      swap2\n      swap1\n      tag_92\n      jump\t// in\n    tag_91:\n        /* \"contracts/lottery.sol\":3332:3362  totalPrize * operatorCut / 100 */\n      tag_93\n      swap2\n      swap1\n      tag_94\n      jump\t// in\n    tag_93:\n        /* \"contracts/lottery.sol\":3311:3362  uint operatorPrize = totalPrize * operatorCut / 100 */\n      swap1\n      pop\n        /* \"contracts/lottery.sol\":3377:3393  uint winnerPrize */\n      0x00\n        /* \"contracts/lottery.sol\":3409:3422  operatorPrize */\n      dup2\n        /* \"contracts/lottery.sol\":3396:3406  totalPrize */\n      sload(0x01)\n        /* \"contracts/lottery.sol\":3396:3422  totalPrize - operatorPrize */\n      tag_95\n      swap2\n      swap1\n      tag_96\n      jump\t// in\n    tag_95:\n        /* \"contracts/lottery.sol\":3377:3422  uint winnerPrize = totalPrize - operatorPrize */\n      swap1\n      pop\n        /* \"contracts/lottery.sol\":3450:3451  0 */\n      0x00\n        /* \"contracts/lottery.sol\":3437:3447  totalPrize */\n      0x01\n        /* \"contracts/lottery.sol\":3437:3451  totalPrize = 0 */\n      dup2\n      swap1\n      sstore\n      pop\n        /* \"contracts/lottery.sol\":608:650  0xAb8483F64d9C6d1EcF9b849Ae677dD3315835cb2 */\n      0xab8483f64d9c6d1ecf9b849ae677dd3315835cb2\n        /* \"contracts/lottery.sol\":3466:3490  operatorAddress.transfer */\n      0xffffffffffffffffffffffffffffffffffffffff\n      and\n        /* \"contracts/lottery.sol\":3466:3505  operatorAddress.transfer(operatorPrize) */\n      0x08fc\n        /* \"contracts/lottery.sol\":3491:3504  operatorPrize */\n      dup4\n        /* \"contracts/lottery.sol\":3466:3505  operatorAddress.transfer(operatorPrize) */\n      swap1\n      dup2\n      iszero\n      mul\n      swap1\n      mload(0x40)\n      0x00\n      mload(0x40)\n      dup1\n      dup4\n      sub\n      dup2\n      dup6\n      dup9\n      dup9\n      call\n      swap4\n      pop\n      pop\n      pop\n      pop\n      iszero\n      dup1\n      iszero\n      tag_98\n      jumpi\n      returndatasize\n      0x00\n      dup1\n      returndatacopy\n      revert(0x00, returndatasize)\n    tag_98:\n      pop\n        /* \"contracts/lottery.sol\":3520:3534  winningAddress */\n      dup3\n        /* \"contracts/lottery.sol\":3520:3543  winningAddress.transfer */\n      0xffffffffffffffffffffffffffffffffffffffff\n      and\n        /* \"contracts/lottery.sol\":3520:3556  winningAddress.transfer(winnerPrize) */\n      0x08fc\n        /* \"contracts/lottery.sol\":3544:3555  winnerPrize */\n      dup3\n        /* \"contracts/lottery.sol\":3520:3556  winningAddress.transfer(winnerPrize) */\n      swap1\n      dup2\n      iszero\n      mul\n      swap1\n      mload(0x40)\n      0x00\n      mload(0x40)\n      dup1\n      dup4\n      sub\n      dup2\n      dup6\n      dup9\n      dup9\n      call\n      swap4\n      pop\n      pop\n      pop\n      pop\n      iszero\n      dup1\n      iszero\n      tag_100\n      jumpi\n      returndatasize\n      0x00\n      dup1\n      returndatacopy\n      revert(0x00, returndatasize)\n    tag_100:\n      pop\n        /* \"contracts/lottery.sol\":3194:3568  {... */\n      pop\n      pop\n        /* \"contracts/lottery.sol\":3082:3568  if(winningAddress == zeroAddress) {... */\n    tag_90:\n        /* \"contracts/lottery.sol\":3005:3575  {... */\n      pop\n        /* \"contracts/lottery.sol\":2976:3575  function endLottery() public {... */\n      jump\t// out\n        /* \"contracts/lottery.sol\":873:916  address payable[] public list_playerAddress */\n    tag_37:\n      0x03\n      dup2\n      dup2\n      sload\n      dup2\n      lt\n      tag_101\n      jumpi\n      0x00\n      dup1\n      revert\n    tag_101:\n      swap1\n      0x00\n      mstore\n      keccak256(0x00, 0x20)\n      add\n      0x00\n      swap2\n      pop\n      sload\n      swap1\n      0x0100\n      exp\n      swap1\n      div\n      0xffffffffffffffffffffffffffffffffffffffff\n      and\n      dup2\n      jump\t// out\n        /* \"contracts/lottery.sol\":4002:4365  function withdraw(uint amount) public {... */\n    tag_43:\n        /* \"contracts/lottery.sol\":4125:4137  uint balance */\n      0x00\n        /* \"contracts/lottery.sol\":4140:4152  getBalance() */\n      tag_104\n        /* \"contracts/lottery.sol\":4140:4150  getBalance */\n      tag_22\n        /* \"contracts/lottery.sol\":4140:4152  getBalance() */\n      jump\t// in\n    tag_104:\n        /* \"contracts/lottery.sol\":4125:4152  uint balance = getBalance() */\n      swap1\n      pop\n        /* \"contracts/lottery.sol\":4181:4188  balance */\n      dup1\n        /* \"contracts/lottery.sol\":4171:4177  amount */\n      dup3\n        /* \"contracts/lottery.sol\":4171:4188  amount <= balance */\n      gt\n      iszero\n        /* \"contracts/lottery.sol\":4219:4243  Strings.toString(amount) */\n      tag_105\n        /* \"contracts/lottery.sol\":4236:4242  amount */\n      dup4\n        /* \"contracts/lottery.sol\":4219:4235  Strings.toString */\n      tag_106\n        /* \"contracts/lottery.sol\":4219:4243  Strings.toString(amount) */\n      jump\t// in\n    tag_105:\n        /* \"contracts/lottery.sol\":4287:4312  Strings.toString(balance) */\n      tag_107\n        /* \"contracts/lottery.sol\":4304:4311  balance */\n      dup4\n        /* \"contracts/lottery.sol\":4287:4303  Strings.toString */\n      tag_106\n        /* \"contracts/lottery.sol\":4287:4312  Strings.toString(balance) */\n      jump\t// in\n    tag_107:\n        /* \"contracts/lottery.sol\":4190:4313  string.concat(\"The amount \", Strings.toString(amount), \" is greater than the contract balance \", Strings.toString(balance)) */\n      add(0x20, mload(0x40))\n      tag_108\n      swap3\n      swap2\n      swap1\n      tag_109\n      jump\t// in\n    tag_108:\n      mload(0x40)\n      0x20\n      dup2\n      dup4\n      sub\n      sub\n      dup2\n      mstore\n      swap1\n      0x40\n      mstore\n        /* \"contracts/lottery.sol\":4163:4314  require(amount <= balance, string.concat(\"The amount \", Strings.toString(amount), \" is greater than the contract balance \", Strings.toString(balance))) */\n      swap1\n      tag_110\n      jumpi\n      mload(0x40)\n      0x08c379a000000000000000000000000000000000000000000000000000000000\n      dup2\n      mstore\n      0x04\n      add\n      tag_111\n      swap2\n      swap1\n      tag_112\n      jump\t// in\n    tag_111:\n      mload(0x40)\n      dup1\n      swap2\n      sub\n      swap1\n      revert\n    tag_110:\n      pop\n        /* \"contracts/lottery.sol\":608:650  0xAb8483F64d9C6d1EcF9b849Ae677dD3315835cb2 */\n      0xab8483f64d9c6d1ecf9b849ae677dd3315835cb2\n        /* \"contracts/lottery.sol\":4325:4349  operatorAddress.transfer */\n      0xffffffffffffffffffffffffffffffffffffffff\n      and\n        /* \"contracts/lottery.sol\":4325:4357  operatorAddress.transfer(amount) */\n      0x08fc\n        /* \"contracts/lottery.sol\":4350:4356  amount */\n      dup4\n        /* \"contracts/lottery.sol\":4325:4357  operatorAddress.transfer(amount) */\n      swap1\n      dup2\n      iszero\n      mul\n      swap1\n      mload(0x40)\n      0x00\n      mload(0x40)\n      dup1\n      dup4\n      sub\n      dup2\n      dup6\n      dup9\n      dup9\n      call\n      swap4\n      pop\n      pop\n      pop\n      pop\n      iszero\n      dup1\n      iszero\n      tag_114\n      jumpi\n      returndatasize\n      0x00\n      dup1\n      returndatacopy\n      revert(0x00, returndatasize)\n    tag_114:\n      pop\n        /* \"contracts/lottery.sol\":4040:4365  {... */\n      pop\n        /* \"contracts/lottery.sol\":4002:4365  function withdraw(uint amount) public {... */\n      pop\n      jump\t// out\n        /* \"contracts/lottery.sol\":4726:4824  function enableContract() public {... */\n    tag_46:\n      jump\t// out\n        /* \"contracts/lottery.sol\":998:1129  function requireContractEnabled() public view {... */\n    tag_49:\n        /* \"contracts/lottery.sol\":1063:1080  isContractEnabled */\n      0x00\n      dup1\n      sload\n      swap1\n      0x0100\n      exp\n      swap1\n      div\n      0xff\n      and\n        /* \"contracts/lottery.sol\":1055:1121  require(isContractEnabled, \"This contract is currently disabled.\") */\n      tag_117\n      jumpi\n      mload(0x40)\n      0x08c379a000000000000000000000000000000000000000000000000000000000\n      dup2\n      mstore\n      0x04\n      add\n      tag_118\n      swap1\n      tag_119\n      jump\t// in\n    tag_118:\n      mload(0x40)\n      dup1\n      swap2\n      sub\n      swap1\n      revert\n    tag_117:\n        /* \"contracts/lottery.sol\":998:1129  function requireContractEnabled() public view {... */\n      jump\t// out\n        /* \"contracts/lottery.sol\":2173:2968  function chooseWinningAddress() public view returns (address payable) {... */\n    tag_52:\n        /* \"contracts/lottery.sol\":2226:2241  address payable */\n      0x00\n        /* \"contracts/lottery.sol\":2254:2269  uint numPlayers */\n      dup1\n        /* \"contracts/lottery.sol\":2272:2290  list_playerAddress */\n      0x03\n        /* \"contracts/lottery.sol\":2272:2297  list_playerAddress.length */\n      dup1\n      sload\n      swap1\n      pop\n        /* \"contracts/lottery.sol\":2254:2297  uint numPlayers = list_playerAddress.length */\n      swap1\n      pop\n        /* \"contracts/lottery.sol\":2308:2319  uint winner */\n      0x00\n        /* \"contracts/lottery.sol\":2428:2429  0 */\n      dup1\n        /* \"contracts/lottery.sol\":2414:2424  numPlayers */\n      dup3\n        /* \"contracts/lottery.sol\":2414:2429  numPlayers == 0 */\n      sub\n        /* \"contracts/lottery.sol\":2411:2915  if(numPlayers == 0) {... */\n      tag_121\n      jumpi\n        /* \"contracts/lottery.sol\":404:446  0x0000000000000000000000000000000000000000 */\n      0x00\n        /* \"contracts/lottery.sol\":2515:2533  return zeroAddress */\n      swap3\n      pop\n      pop\n      pop\n      jump(tag_120)\n        /* \"contracts/lottery.sol\":2411:2915  if(numPlayers == 0) {... */\n    tag_121:\n        /* \"contracts/lottery.sol\":2577:2578  1 */\n      0x01\n        /* \"contracts/lottery.sol\":2563:2573  numPlayers */\n      dup3\n        /* \"contracts/lottery.sol\":2563:2578  numPlayers == 1 */\n      sub\n        /* \"contracts/lottery.sol\":2560:2915  if(numPlayers == 1) {... */\n      tag_123\n      jumpi\n        /* \"contracts/lottery.sol\":2707:2708  0 */\n      0x00\n        /* \"contracts/lottery.sol\":2698:2708  winner = 0 */\n      swap1\n      pop\n        /* \"contracts/lottery.sol\":2560:2915  if(numPlayers == 1) {... */\n      jump(tag_124)\n    tag_123:\n        /* \"contracts/lottery.sol\":2882:2903  randomInt(numPlayers) */\n      tag_125\n        /* \"contracts/lottery.sol\":2892:2902  numPlayers */\n      dup3\n        /* \"contracts/lottery.sol\":2882:2891  randomInt */\n      tag_29\n        /* \"contracts/lottery.sol\":2882:2903  randomInt(numPlayers) */\n      jump\t// in\n    tag_125:\n        /* \"contracts/lottery.sol\":2873:2903  winner = randomInt(numPlayers) */\n      swap1\n      pop\n        /* \"contracts/lottery.sol\":2560:2915  if(numPlayers == 1) {... */\n    tag_124:\n        /* \"contracts/lottery.sol\":2934:2952  list_playerAddress */\n      0x03\n        /* \"contracts/lottery.sol\":2953:2959  winner */\n      dup2\n        /* \"contracts/lottery.sol\":2934:2960  list_playerAddress[winner] */\n      dup2\n      sload\n      dup2\n      lt\n      tag_126\n      jumpi\n      tag_127\n      tag_128\n      jump\t// in\n    tag_127:\n    tag_126:\n      swap1\n      0x00\n      mstore\n      keccak256(0x00, 0x20)\n      add\n      0x00\n      swap1\n      sload\n      swap1\n      0x0100\n      exp\n      swap1\n      div\n      0xffffffffffffffffffffffffffffffffffffffff\n      and\n        /* \"contracts/lottery.sol\":2927:2960  return list_playerAddress[winner] */\n      swap3\n      pop\n      pop\n      pop\n        /* \"contracts/lottery.sol\":2173:2968  function chooseWinningAddress() public view returns (address payable) {... */\n    tag_120:\n      swap1\n      jump\t// out\n        /* \"contracts/lottery.sol\":3841:3994  function withdrawAll() public {... */\n    tag_56:\n        /* \"contracts/lottery.sol\":608:650  0xAb8483F64d9C6d1EcF9b849Ae677dD3315835cb2 */\n      0xab8483f64d9c6d1ecf9b849ae677dd3315835cb2\n        /* \"contracts/lottery.sol\":3948:3972  operatorAddress.transfer */\n      0xffffffffffffffffffffffffffffffffffffffff\n      and\n        /* \"contracts/lottery.sol\":3948:3986  operatorAddress.transfer(getBalance()) */\n      0x08fc\n        /* \"contracts/lottery.sol\":3973:3985  getBalance() */\n      tag_131\n        /* \"contracts/lottery.sol\":3973:3983  getBalance */\n      tag_22\n        /* \"contracts/lottery.sol\":3973:3985  getBalance() */\n      jump\t// in\n    tag_131:\n        /* \"contracts/lottery.sol\":3948:3986  operatorAddress.transfer(getBalance()) */\n      swap1\n      dup2\n      iszero\n      mul\n      swap1\n      mload(0x40)\n      0x00\n      mload(0x40)\n      dup1\n      dup4\n      sub\n      dup2\n      dup6\n      dup9\n      dup9\n      call\n      swap4\n      pop\n      pop\n      pop\n      pop\n      iszero\n      dup1\n      iszero\n      tag_133\n      jumpi\n      returndatasize\n      0x00\n      dup1\n      returndatacopy\n      revert(0x00, returndatasize)\n    tag_133:\n      pop\n        /* \"contracts/lottery.sol\":3841:3994  function withdrawAll() public {... */\n      jump\t// out\n        /* \"contracts/lottery.sol\":4832:4930  function disableContract() public {... */\n    tag_59:\n      jump\t// out\n        /* \"contracts/lottery.sol\":2027:2165  function isAddressPlaying(address payable playerAddress) public view returns (bool) {... */\n    tag_64:\n        /* \"contracts/lottery.sol\":2105:2109  bool */\n      0x00\n        /* \"contracts/lottery.sol\":2129:2142  map_isPlaying */\n      0x02\n        /* \"contracts/lottery.sol\":2129:2157  map_isPlaying[playerAddress] */\n      0x00\n        /* \"contracts/lottery.sol\":2143:2156  playerAddress */\n      dup4\n        /* \"contracts/lottery.sol\":2129:2157  map_isPlaying[playerAddress] */\n      0xffffffffffffffffffffffffffffffffffffffff\n      and\n      0xffffffffffffffffffffffffffffffffffffffff\n      and\n      dup2\n      mstore\n      0x20\n      add\n      swap1\n      dup2\n      mstore\n      0x20\n      add\n      0x00\n      keccak256\n      0x00\n      swap1\n      sload\n      swap1\n      0x0100\n      exp\n      swap1\n      div\n      0xff\n      and\n        /* \"contracts/lottery.sol\":2122:2157  return map_isPlaying[playerAddress] */\n      swap1\n      pop\n        /* \"contracts/lottery.sol\":2027:2165  function isAddressPlaying(address payable playerAddress) public view returns (bool) {... */\n      swap2\n      swap1\n      pop\n      jump\t// out\n        /* \"contracts/lottery.sol\":1545:2015  function registerAddress(address payable playerAddress) public {... */\n    tag_70:\n        /* \"contracts/lottery.sol\":1724:1738  bool isPlaying */\n      0x00\n        /* \"contracts/lottery.sol\":1741:1754  map_isPlaying */\n      0x02\n        /* \"contracts/lottery.sol\":1741:1769  map_isPlaying[playerAddress] */\n      0x00\n        /* \"contracts/lottery.sol\":1755:1768  playerAddress */\n      dup4\n        /* \"contracts/lottery.sol\":1741:1769  map_isPlaying[playerAddress] */\n      0xffffffffffffffffffffffffffffffffffffffff\n      and\n      0xffffffffffffffffffffffffffffffffffffffff\n      and\n      dup2\n      mstore\n      0x20\n      add\n      swap1\n      dup2\n      mstore\n      0x20\n      add\n      0x00\n      keccak256\n      0x00\n      swap1\n      sload\n      swap1\n      0x0100\n      exp\n      swap1\n      div\n      0xff\n      and\n        /* \"contracts/lottery.sol\":1724:1769  bool isPlaying = map_isPlaying[playerAddress] */\n      swap1\n      pop\n        /* \"contracts/lottery.sol\":1789:1798  isPlaying */\n      dup1\n        /* \"contracts/lottery.sol\":1788:1798  !isPlaying */\n      iszero\n        /* \"contracts/lottery.sol\":1780:1848  require(!isPlaying, \"This address has already entered the lottery.\") */\n      tag_137\n      jumpi\n      mload(0x40)\n      0x08c379a000000000000000000000000000000000000000000000000000000000\n      dup2\n      mstore\n      0x04\n      add\n      tag_138\n      swap1\n      tag_139\n      jump\t// in\n    tag_138:\n      mload(0x40)\n      dup1\n      swap2\n      sub\n      swap1\n      revert\n    tag_137:\n        /* \"contracts/lottery.sol\":1954:1958  true */\n      0x01\n        /* \"contracts/lottery.sol\":1923:1936  map_isPlaying */\n      0x02\n        /* \"contracts/lottery.sol\":1923:1951  map_isPlaying[playerAddress] */\n      0x00\n        /* \"contracts/lottery.sol\":1937:1950  playerAddress */\n      dup5\n        /* \"contracts/lottery.sol\":1923:1951  map_isPlaying[playerAddress] */\n      0xffffffffffffffffffffffffffffffffffffffff\n      and\n      0xffffffffffffffffffffffffffffffffffffffff\n      and\n      dup2\n      mstore\n      0x20\n      add\n      swap1\n      dup2\n      mstore\n      0x20\n      add\n      0x00\n      keccak256\n      0x00\n        /* \"contracts/lottery.sol\":1923:1958  map_isPlaying[playerAddress] = true */\n      0x0100\n      exp\n      dup2\n      sload\n      dup2\n      0xff\n      mul\n      not\n      and\n      swap1\n      dup4\n      iszero\n      iszero\n      mul\n      or\n      swap1\n      sstore\n      pop\n        /* \"contracts/lottery.sol\":1969:1987  list_playerAddress */\n      0x03\n        /* \"contracts/lottery.sol\":1993:2006  playerAddress */\n      dup3\n        /* \"contracts/lottery.sol\":1969:2007  list_playerAddress.push(playerAddress) */\n      swap1\n      dup1\n      0x01\n      dup2\n      sload\n      add\n      dup1\n      dup3\n      sstore\n      dup1\n      swap2\n      pop\n      pop\n      0x01\n      swap1\n      sub\n      swap1\n      0x00\n      mstore\n      keccak256(0x00, 0x20)\n      add\n      0x00\n      swap1\n      swap2\n      swap1\n      swap2\n      swap1\n      swap2\n      0x0100\n      exp\n      dup2\n      sload\n      dup2\n      0xffffffffffffffffffffffffffffffffffffffff\n      mul\n      not\n      and\n      swap1\n      dup4\n      0xffffffffffffffffffffffffffffffffffffffff\n      and\n      mul\n      or\n      swap1\n      sstore\n      pop\n        /* \"contracts/lottery.sol\":1608:2015  {... */\n      pop\n        /* \"contracts/lottery.sol\":1545:2015  function registerAddress(address payable playerAddress) public {... */\n      pop\n      jump\t// out\n        /* \"contracts/lottery.sol\":1137:1537  function fundLottery() external payable {... */\n    tag_72:\n        /* \"contracts/lottery.sol\":1422:1446  requireContractEnabled() */\n      tag_142\n        /* \"contracts/lottery.sol\":1422:1444  requireContractEnabled */\n      tag_49\n        /* \"contracts/lottery.sol\":1422:1446  requireContractEnabled() */\n      jump\t// in\n    tag_142:\n        /* \"contracts/lottery.sol\":1473:1482  msg.value */\n      callvalue\n        /* \"contracts/lottery.sol\":1459:1469  totalPrize */\n      0x01\n      0x00\n        /* \"contracts/lottery.sol\":1459:1482  totalPrize += msg.value */\n      dup3\n      dup3\n      sload\n      tag_143\n      swap2\n      swap1\n      tag_144\n      jump\t// in\n    tag_143:\n      swap3\n      pop\n      pop\n      dup2\n      swap1\n      sstore\n      pop\n        /* \"contracts/lottery.sol\":1493:1529  registerAddress(payable(msg.sender)) */\n      tag_145\n        /* \"contracts/lottery.sol\":1517:1527  msg.sender */\n      caller\n        /* \"contracts/lottery.sol\":1493:1508  registerAddress */\n      tag_70\n        /* \"contracts/lottery.sol\":1493:1529  registerAddress(payable(msg.sender)) */\n      jump\t// in\n    tag_145:\n        /* \"contracts/lottery.sol\":1137:1537  function fundLottery() external payable {... */\n      jump\t// out\n        /* \"contracts/lottery.sol\":3583:3833  function fundContract() external payable {... */\n    tag_74:\n      jump\t// out\n        /* \"contracts/lottery.sol\":821:866  mapping(address => bool) public map_isPlaying */\n    tag_79:\n      mstore(0x20, 0x02)\n      dup1\n      0x00\n      mstore\n      keccak256(0x00, 0x40)\n      0x00\n      swap2\n      pop\n      sload\n      swap1\n      0x0100\n      exp\n      swap1\n      div\n      0xff\n      and\n      dup2\n      jump\t// out\n        /* \"@openzeppelin/contracts/utils/Strings.sol\":392:1095  function toString(uint256 value) internal pure returns (string memory) {... */\n    tag_106:\n        /* \"@openzeppelin/contracts/utils/Strings.sol\":448:461  string memory */\n      0x60\n        /* \"@openzeppelin/contracts/utils/Strings.sol\":674:675  0 */\n      0x00\n        /* \"@openzeppelin/contracts/utils/Strings.sol\":665:670  value */\n      dup3\n        /* \"@openzeppelin/contracts/utils/Strings.sol\":665:675  value == 0 */\n      sub\n        /* \"@openzeppelin/contracts/utils/Strings.sol\":661:712  if (value == 0) {... */\n      tag_148\n      jumpi\n        /* \"@openzeppelin/contracts/utils/Strings.sol\":691:701  return \"0\" */\n      mload(0x40)\n      dup1\n      0x40\n      add\n      0x40\n      mstore\n      dup1\n      0x01\n      dup2\n      mstore\n      0x20\n      add\n      0x3000000000000000000000000000000000000000000000000000000000000000\n      dup2\n      mstore\n      pop\n      swap1\n      pop\n      jump(tag_147)\n        /* \"@openzeppelin/contracts/utils/Strings.sol\":661:712  if (value == 0) {... */\n    tag_148:\n        /* \"@openzeppelin/contracts/utils/Strings.sol\":721:733  uint256 temp */\n      0x00\n        /* \"@openzeppelin/contracts/utils/Strings.sol\":736:741  value */\n      dup3\n        /* \"@openzeppelin/contracts/utils/Strings.sol\":721:741  uint256 temp = value */\n      swap1\n      pop\n        /* \"@openzeppelin/contracts/utils/Strings.sol\":751:765  uint256 digits */\n      0x00\n        /* \"@openzeppelin/contracts/utils/Strings.sol\":775:850  while (temp != 0) {... */\n    tag_149:\n        /* \"@openzeppelin/contracts/utils/Strings.sol\":790:791  0 */\n      0x00\n        /* \"@openzeppelin/contracts/utils/Strings.sol\":782:786  temp */\n      dup3\n        /* \"@openzeppelin/contracts/utils/Strings.sol\":782:791  temp != 0 */\n      eq\n        /* \"@openzeppelin/contracts/utils/Strings.sol\":775:850  while (temp != 0) {... */\n      tag_150\n      jumpi\n        /* \"@openzeppelin/contracts/utils/Strings.sol\":807:815  digits++ */\n      dup1\n      dup1\n      tag_151\n      swap1\n      tag_152\n      jump\t// in\n    tag_151:\n      swap2\n      pop\n      pop\n        /* \"@openzeppelin/contracts/utils/Strings.sol\":837:839  10 */\n      0x0a\n        /* \"@openzeppelin/contracts/utils/Strings.sol\":829:839  temp /= 10 */\n      dup3\n      tag_153\n      swap2\n      swap1\n      tag_94\n      jump\t// in\n    tag_153:\n      swap2\n      pop\n        /* \"@openzeppelin/contracts/utils/Strings.sol\":775:850  while (temp != 0) {... */\n      jump(tag_149)\n    tag_150:\n        /* \"@openzeppelin/contracts/utils/Strings.sol\":859:878  bytes memory buffer */\n      0x00\n        /* \"@openzeppelin/contracts/utils/Strings.sol\":891:897  digits */\n      dup2\n        /* \"@openzeppelin/contracts/utils/Strings.sol\":881:898  new bytes(digits) */\n      0xffffffffffffffff\n      dup2\n      gt\n      iszero\n      tag_154\n      jumpi\n      tag_155\n      tag_156\n      jump\t// in\n    tag_155:\n    tag_154:\n      mload(0x40)\n      swap1\n      dup1\n      dup3\n      mstore\n      dup1\n      0x1f\n      add\n      not(0x1f)\n      and\n      0x20\n      add\n      dup3\n      add\n      0x40\n      mstore\n      dup1\n      iszero\n      tag_157\n      jumpi\n      dup2\n      0x20\n      add\n      0x01\n      dup3\n      mul\n      dup1\n      calldatasize\n      dup4\n      calldatacopy\n      dup1\n      dup3\n      add\n      swap2\n      pop\n      pop\n      swap1\n      pop\n    tag_157:\n      pop\n        /* \"@openzeppelin/contracts/utils/Strings.sol\":859:898  bytes memory buffer = new bytes(digits) */\n      swap1\n      pop\n        /* \"@openzeppelin/contracts/utils/Strings.sol\":908:1058  while (value != 0) {... */\n    tag_158:\n        /* \"@openzeppelin/contracts/utils/Strings.sol\":924:925  0 */\n      0x00\n        /* \"@openzeppelin/contracts/utils/Strings.sol\":915:920  value */\n      dup6\n        /* \"@openzeppelin/contracts/utils/Strings.sol\":915:925  value != 0 */\n      eq\n        /* \"@openzeppelin/contracts/utils/Strings.sol\":908:1058  while (value != 0) {... */\n      tag_159\n      jumpi\n        /* \"@openzeppelin/contracts/utils/Strings.sol\":951:952  1 */\n      0x01\n        /* \"@openzeppelin/contracts/utils/Strings.sol\":941:952  digits -= 1 */\n      dup3\n      tag_160\n      swap2\n      swap1\n      tag_96\n      jump\t// in\n    tag_160:\n      swap2\n      pop\n        /* \"@openzeppelin/contracts/utils/Strings.sol\":1017:1019  10 */\n      0x0a\n        /* \"@openzeppelin/contracts/utils/Strings.sol\":1009:1014  value */\n      dup6\n        /* \"@openzeppelin/contracts/utils/Strings.sol\":1009:1019  value % 10 */\n      tag_161\n      swap2\n      swap1\n      tag_86\n      jump\t// in\n    tag_161:\n        /* \"@openzeppelin/contracts/utils/Strings.sol\":996:998  48 */\n      0x30\n        /* \"@openzeppelin/contracts/utils/Strings.sol\":996:1020  48 + uint256(value % 10) */\n      tag_162\n      swap2\n      swap1\n      tag_144\n      jump\t// in\n    tag_162:\n        /* \"@openzeppelin/contracts/utils/Strings.sol\":983:1022  bytes1(uint8(48 + uint256(value % 10))) */\n      0xf8\n      shl\n        /* \"@openzeppelin/contracts/utils/Strings.sol\":966:972  buffer */\n      dup2\n        /* \"@openzeppelin/contracts/utils/Strings.sol\":973:979  digits */\n      dup4\n        /* \"@openzeppelin/contracts/utils/Strings.sol\":966:980  buffer[digits] */\n      dup2\n      mload\n      dup2\n      lt\n      tag_163\n      jumpi\n      tag_164\n      tag_128\n      jump\t// in\n    tag_164:\n    tag_163:\n      0x20\n      add\n      add\n        /* \"@openzeppelin/contracts/utils/Strings.sol\":966:1022  buffer[digits] = bytes1(uint8(48 + uint256(value % 10))) */\n      swap1\n      not(0xffffffffffffffffffffffffffffffffffffffffffffffffffffffffffffff)\n      and\n      swap1\n      dup2\n      0x00\n      byte\n      swap1\n      mstore8\n      pop\n        /* \"@openzeppelin/contracts/utils/Strings.sol\":1045:1047  10 */\n      0x0a\n        /* \"@openzeppelin/contracts/utils/Strings.sol\":1036:1047  value /= 10 */\n      dup6\n      tag_165\n      swap2\n      swap1\n      tag_94\n      jump\t// in\n    tag_165:\n      swap5\n      pop\n        /* \"@openzeppelin/contracts/utils/Strings.sol\":908:1058  while (value != 0) {... */\n      jump(tag_158)\n    tag_159:\n        /* \"@openzeppelin/contracts/utils/Strings.sol\":1081:1087  buffer */\n      dup1\n        /* \"@openzeppelin/contracts/utils/Strings.sol\":1067:1088  return string(buffer) */\n      swap4\n      pop\n      pop\n      pop\n      pop\n        /* \"@openzeppelin/contracts/utils/Strings.sol\":392:1095  function toString(uint256 value) internal pure returns (string memory) {... */\n    tag_147:\n      swap2\n      swap1\n      pop\n      jump\t// out\n        /* \"#utility.yul\":7:84   */\n    tag_166:\n        /* \"#utility.yul\":44:51   */\n      0x00\n        /* \"#utility.yul\":73:78   */\n      dup2\n        /* \"#utility.yul\":62:78   */\n      swap1\n      pop\n        /* \"#utility.yul\":7:84   */\n      swap2\n      swap1\n      pop\n      jump\t// out\n        /* \"#utility.yul\":90:208   */\n    tag_167:\n        /* \"#utility.yul\":177:201   */\n      tag_204\n        /* \"#utility.yul\":195:200   */\n      dup2\n        /* \"#utility.yul\":177:201   */\n      tag_166\n      jump\t// in\n    tag_204:\n        /* \"#utility.yul\":172:175   */\n      dup3\n        /* \"#utility.yul\":165:202   */\n      mstore\n        /* \"#utility.yul\":90:208   */\n      pop\n      pop\n      jump\t// out\n        /* \"#utility.yul\":214:436   */\n    tag_24:\n        /* \"#utility.yul\":307:311   */\n      0x00\n        /* \"#utility.yul\":345:347   */\n      0x20\n        /* \"#utility.yul\":334:343   */\n      dup3\n        /* \"#utility.yul\":330:348   */\n      add\n        /* \"#utility.yul\":322:348   */\n      swap1\n      pop\n        /* \"#utility.yul\":358:429   */\n      tag_206\n        /* \"#utility.yul\":426:427   */\n      0x00\n        /* \"#utility.yul\":415:424   */\n      dup4\n        /* \"#utility.yul\":411:428   */\n      add\n        /* \"#utility.yul\":402:408   */\n      dup5\n        /* \"#utility.yul\":358:429   */\n      tag_167\n      jump\t// in\n    tag_206:\n        /* \"#utility.yul\":214:436   */\n      swap3\n      swap2\n      pop\n      pop\n      jump\t// out\n        /* \"#utility.yul\":523:640   */\n    tag_169:\n        /* \"#utility.yul\":632:633   */\n      0x00\n        /* \"#utility.yul\":629:630   */\n      dup1\n        /* \"#utility.yul\":622:634   */\n      revert\n        /* \"#utility.yul\":769:891   */\n    tag_171:\n        /* \"#utility.yul\":842:866   */\n      tag_211\n        /* \"#utility.yul\":860:865   */\n      dup2\n        /* \"#utility.yul\":842:866   */\n      tag_166\n      jump\t// in\n    tag_211:\n        /* \"#utility.yul\":835:840   */\n      dup2\n        /* \"#utility.yul\":832:867   */\n      eq\n        /* \"#utility.yul\":822:885   */\n      tag_212\n      jumpi\n        /* \"#utility.yul\":881:882   */\n      0x00\n        /* \"#utility.yul\":878:879   */\n      dup1\n        /* \"#utility.yul\":871:883   */\n      revert\n        /* \"#utility.yul\":822:885   */\n    tag_212:\n        /* \"#utility.yul\":769:891   */\n      pop\n      jump\t// out\n        /* \"#utility.yul\":897:1036   */\n    tag_172:\n        /* \"#utility.yul\":943:948   */\n      0x00\n        /* \"#utility.yul\":981:987   */\n      dup2\n        /* \"#utility.yul\":968:988   */\n      calldataload\n        /* \"#utility.yul\":959:988   */\n      swap1\n      pop\n        /* \"#utility.yul\":997:1030   */\n      tag_214\n        /* \"#utility.yul\":1024:1029   */\n      dup2\n        /* \"#utility.yul\":997:1030   */\n      tag_171\n      jump\t// in\n    tag_214:\n        /* \"#utility.yul\":897:1036   */\n      swap3\n      swap2\n      pop\n      pop\n      jump\t// out\n        /* \"#utility.yul\":1042:1371   */\n    tag_28:\n        /* \"#utility.yul\":1101:1107   */\n      0x00\n        /* \"#utility.yul\":1150:1152   */\n      0x20\n        /* \"#utility.yul\":1138:1147   */\n      dup3\n        /* \"#utility.yul\":1129:1136   */\n      dup5\n        /* \"#utility.yul\":1125:1148   */\n      sub\n        /* \"#utility.yul\":1121:1153   */\n      slt\n        /* \"#utility.yul\":1118:1237   */\n      iszero\n      tag_216\n      jumpi\n        /* \"#utility.yul\":1156:1235   */\n      tag_217\n      tag_169\n      jump\t// in\n    tag_217:\n        /* \"#utility.yul\":1118:1237   */\n    tag_216:\n        /* \"#utility.yul\":1276:1277   */\n      0x00\n        /* \"#utility.yul\":1301:1354   */\n      tag_218\n        /* \"#utility.yul\":1346:1353   */\n      dup5\n        /* \"#utility.yul\":1337:1343   */\n      dup3\n        /* \"#utility.yul\":1326:1335   */\n      dup6\n        /* \"#utility.yul\":1322:1344   */\n      add\n        /* \"#utility.yul\":1301:1354   */\n      tag_172\n      jump\t// in\n    tag_218:\n        /* \"#utility.yul\":1291:1354   */\n      swap2\n      pop\n        /* \"#utility.yul\":1247:1364   */\n      pop\n        /* \"#utility.yul\":1042:1371   */\n      swap3\n      swap2\n      pop\n      pop\n      jump\t// out\n        /* \"#utility.yul\":1377:1503   */\n    tag_173:\n        /* \"#utility.yul\":1414:1421   */\n      0x00\n        /* \"#utility.yul\":1454:1496   */\n      0xffffffffffffffffffffffffffffffffffffffff\n        /* \"#utility.yul\":1447:1452   */\n      dup3\n        /* \"#utility.yul\":1443:1497   */\n      and\n        /* \"#utility.yul\":1432:1497   */\n      swap1\n      pop\n        /* \"#utility.yul\":1377:1503   */\n      swap2\n      swap1\n      pop\n      jump\t// out\n        /* \"#utility.yul\":1509:1613   */\n    tag_174:\n        /* \"#utility.yul\":1554:1561   */\n      0x00\n        /* \"#utility.yul\":1583:1607   */\n      tag_221\n        /* \"#utility.yul\":1601:1606   */\n      dup3\n        /* \"#utility.yul\":1583:1607   */\n      tag_173\n      jump\t// in\n    tag_221:\n        /* \"#utility.yul\":1572:1607   */\n      swap1\n      pop\n        /* \"#utility.yul\":1509:1613   */\n      swap2\n      swap1\n      pop\n      jump\t// out\n        /* \"#utility.yul\":1619:1761   */\n    tag_175:\n        /* \"#utility.yul\":1722:1754   */\n      tag_223\n        /* \"#utility.yul\":1748:1753   */\n      dup2\n        /* \"#utility.yul\":1722:1754   */\n      tag_174\n      jump\t// in\n    tag_223:\n        /* \"#utility.yul\":1717:1720   */\n      dup3\n        /* \"#utility.yul\":1710:1755   */\n      mstore\n        /* \"#utility.yul\":1619:1761   */\n      pop\n      pop\n      jump\t// out\n        /* \"#utility.yul\":1767:2021   */\n    tag_39:\n        /* \"#utility.yul\":1876:1880   */\n      0x00\n        /* \"#utility.yul\":1914:1916   */\n      0x20\n        /* \"#utility.yul\":1903:1912   */\n      dup3\n        /* \"#utility.yul\":1899:1917   */\n      add\n        /* \"#utility.yul\":1891:1917   */\n      swap1\n      pop\n        /* \"#utility.yul\":1927:2014   */\n      tag_225\n        /* \"#utility.yul\":2011:2012   */\n      0x00\n        /* \"#utility.yul\":2000:2009   */\n      dup4\n        /* \"#utility.yul\":1996:2013   */\n      add\n        /* \"#utility.yul\":1987:1993   */\n      dup5\n        /* \"#utility.yul\":1927:2014   */\n      tag_175\n      jump\t// in\n    tag_225:\n        /* \"#utility.yul\":1767:2021   */\n      swap3\n      swap2\n      pop\n      pop\n      jump\t// out\n        /* \"#utility.yul\":2027:2165   */\n    tag_176:\n        /* \"#utility.yul\":2108:2140   */\n      tag_227\n        /* \"#utility.yul\":2134:2139   */\n      dup2\n        /* \"#utility.yul\":2108:2140   */\n      tag_174\n      jump\t// in\n    tag_227:\n        /* \"#utility.yul\":2101:2106   */\n      dup2\n        /* \"#utility.yul\":2098:2141   */\n      eq\n        /* \"#utility.yul\":2088:2159   */\n      tag_228\n      jumpi\n        /* \"#utility.yul\":2155:2156   */\n      0x00\n        /* \"#utility.yul\":2152:2153   */\n      dup1\n        /* \"#utility.yul\":2145:2157   */\n      revert\n        /* \"#utility.yul\":2088:2159   */\n    tag_228:\n        /* \"#utility.yul\":2027:2165   */\n      pop\n      jump\t// out\n        /* \"#utility.yul\":2171:2326   */\n    tag_177:\n        /* \"#utility.yul\":2225:2230   */\n      0x00\n        /* \"#utility.yul\":2263:2269   */\n      dup2\n        /* \"#utility.yul\":2250:2270   */\n      calldataload\n        /* \"#utility.yul\":2241:2270   */\n      swap1\n      pop\n        /* \"#utility.yul\":2279:2320   */\n      tag_230\n        /* \"#utility.yul\":2314:2319   */\n      dup2\n        /* \"#utility.yul\":2279:2320   */\n      tag_176\n      jump\t// in\n    tag_230:\n        /* \"#utility.yul\":2171:2326   */\n      swap3\n      swap2\n      pop\n      pop\n      jump\t// out\n        /* \"#utility.yul\":2332:2677   */\n    tag_63:\n        /* \"#utility.yul\":2399:2405   */\n      0x00\n        /* \"#utility.yul\":2448:2450   */\n      0x20\n        /* \"#utility.yul\":2436:2445   */\n      dup3\n        /* \"#utility.yul\":2427:2434   */\n      dup5\n        /* \"#utility.yul\":2423:2446   */\n      sub\n        /* \"#utility.yul\":2419:2451   */\n      slt\n        /* \"#utility.yul\":2416:2535   */\n      iszero\n      tag_232\n      jumpi\n        /* \"#utility.yul\":2454:2533   */\n      tag_233\n      tag_169\n      jump\t// in\n    tag_233:\n        /* \"#utility.yul\":2416:2535   */\n    tag_232:\n        /* \"#utility.yul\":2574:2575   */\n      0x00\n        /* \"#utility.yul\":2599:2660   */\n      tag_234\n        /* \"#utility.yul\":2652:2659   */\n      dup5\n        /* \"#utility.yul\":2643:2649   */\n      dup3\n        /* \"#utility.yul\":2632:2641   */\n      dup6\n        /* \"#utility.yul\":2628:2650   */\n      add\n        /* \"#utility.yul\":2599:2660   */\n      tag_177\n      jump\t// in\n    tag_234:\n        /* \"#utility.yul\":2589:2660   */\n      swap2\n      pop\n        /* \"#utility.yul\":2545:2670   */\n      pop\n        /* \"#utility.yul\":2332:2677   */\n      swap3\n      swap2\n      pop\n      pop\n      jump\t// out\n        /* \"#utility.yul\":2683:2773   */\n    tag_178:\n        /* \"#utility.yul\":2717:2724   */\n      0x00\n        /* \"#utility.yul\":2760:2765   */\n      dup2\n        /* \"#utility.yul\":2753:2766   */\n      iszero\n        /* \"#utility.yul\":2746:2767   */\n      iszero\n        /* \"#utility.yul\":2735:2767   */\n      swap1\n      pop\n        /* \"#utility.yul\":2683:2773   */\n      swap2\n      swap1\n      pop\n      jump\t// out\n        /* \"#utility.yul\":2779:2888   */\n    tag_179:\n        /* \"#utility.yul\":2860:2881   */\n      tag_237\n        /* \"#utility.yul\":2875:2880   */\n      dup2\n        /* \"#utility.yul\":2860:2881   */\n      tag_178\n      jump\t// in\n    tag_237:\n        /* \"#utility.yul\":2855:2858   */\n      dup3\n        /* \"#utility.yul\":2848:2882   */\n      mstore\n        /* \"#utility.yul\":2779:2888   */\n      pop\n      pop\n      jump\t// out\n        /* \"#utility.yul\":2894:3104   */\n    tag_66:\n        /* \"#utility.yul\":2981:2985   */\n      0x00\n        /* \"#utility.yul\":3019:3021   */\n      0x20\n        /* \"#utility.yul\":3008:3017   */\n      dup3\n        /* \"#utility.yul\":3004:3022   */\n      add\n        /* \"#utility.yul\":2996:3022   */\n      swap1\n      pop\n        /* \"#utility.yul\":3032:3097   */\n      tag_239\n        /* \"#utility.yul\":3094:3095   */\n      0x00\n        /* \"#utility.yul\":3083:3092   */\n      dup4\n        /* \"#utility.yul\":3079:3096   */\n      add\n        /* \"#utility.yul\":3070:3076   */\n      dup5\n        /* \"#utility.yul\":3032:3097   */\n      tag_179\n      jump\t// in\n    tag_239:\n        /* \"#utility.yul\":2894:3104   */\n      swap3\n      swap2\n      pop\n      pop\n      jump\t// out\n        /* \"#utility.yul\":3110:3206   */\n    tag_180:\n        /* \"#utility.yul\":3147:3154   */\n      0x00\n        /* \"#utility.yul\":3176:3200   */\n      tag_241\n        /* \"#utility.yul\":3194:3199   */\n      dup3\n        /* \"#utility.yul\":3176:3200   */\n      tag_173\n      jump\t// in\n    tag_241:\n        /* \"#utility.yul\":3165:3200   */\n      swap1\n      pop\n        /* \"#utility.yul\":3110:3206   */\n      swap2\n      swap1\n      pop\n      jump\t// out\n        /* \"#utility.yul\":3212:3334   */\n    tag_181:\n        /* \"#utility.yul\":3285:3309   */\n      tag_243\n        /* \"#utility.yul\":3303:3308   */\n      dup2\n        /* \"#utility.yul\":3285:3309   */\n      tag_180\n      jump\t// in\n    tag_243:\n        /* \"#utility.yul\":3278:3283   */\n      dup2\n        /* \"#utility.yul\":3275:3310   */\n      eq\n        /* \"#utility.yul\":3265:3328   */\n      tag_244\n      jumpi\n        /* \"#utility.yul\":3324:3325   */\n      0x00\n        /* \"#utility.yul\":3321:3322   */\n      dup1\n        /* \"#utility.yul\":3314:3326   */\n      revert\n        /* \"#utility.yul\":3265:3328   */\n    tag_244:\n        /* \"#utility.yul\":3212:3334   */\n      pop\n      jump\t// out\n        /* \"#utility.yul\":3340:3479   */\n    tag_182:\n        /* \"#utility.yul\":3386:3391   */\n      0x00\n        /* \"#utility.yul\":3424:3430   */\n      dup2\n        /* \"#utility.yul\":3411:3431   */\n      calldataload\n        /* \"#utility.yul\":3402:3431   */\n      swap1\n      pop\n        /* \"#utility.yul\":3440:3473   */\n      tag_246\n        /* \"#utility.yul\":3467:3472   */\n      dup2\n        /* \"#utility.yul\":3440:3473   */\n      tag_181\n      jump\t// in\n    tag_246:\n        /* \"#utility.yul\":3340:3479   */\n      swap3\n      swap2\n      pop\n      pop\n      jump\t// out\n        /* \"#utility.yul\":3485:3814   */\n    tag_78:\n        /* \"#utility.yul\":3544:3550   */\n      0x00\n        /* \"#utility.yul\":3593:3595   */\n      0x20\n        /* \"#utility.yul\":3581:3590   */\n      dup3\n        /* \"#utility.yul\":3572:3579   */\n      dup5\n        /* \"#utility.yul\":3568:3591   */\n      sub\n        /* \"#utility.yul\":3564:3596   */\n      slt\n        /* \"#utility.yul\":3561:3680   */\n      iszero\n      tag_248\n      jumpi\n        /* \"#utility.yul\":3599:3678   */\n      tag_249\n      tag_169\n      jump\t// in\n    tag_249:\n        /* \"#utility.yul\":3561:3680   */\n    tag_248:\n        /* \"#utility.yul\":3719:3720   */\n      0x00\n        /* \"#utility.yul\":3744:3797   */\n      tag_250\n        /* \"#utility.yul\":3789:3796   */\n      dup5\n        /* \"#utility.yul\":3780:3786   */\n      dup3\n        /* \"#utility.yul\":3769:3778   */\n      dup6\n        /* \"#utility.yul\":3765:3787   */\n      add\n        /* \"#utility.yul\":3744:3797   */\n      tag_182\n      jump\t// in\n    tag_250:\n        /* \"#utility.yul\":3734:3797   */\n      swap2\n      pop\n        /* \"#utility.yul\":3690:3807   */\n      pop\n        /* \"#utility.yul\":3485:3814   */\n      swap3\n      swap2\n      pop\n      pop\n      jump\t// out\n        /* \"#utility.yul\":3820:3899   */\n    tag_183:\n        /* \"#utility.yul\":3859:3866   */\n      0x00\n        /* \"#utility.yul\":3888:3893   */\n      dup2\n        /* \"#utility.yul\":3877:3893   */\n      swap1\n      pop\n        /* \"#utility.yul\":3820:3899   */\n      swap2\n      swap1\n      pop\n      jump\t// out\n        /* \"#utility.yul\":3905:4062   */\n    tag_184:\n        /* \"#utility.yul\":4010:4055   */\n      tag_253\n        /* \"#utility.yul\":4030:4054   */\n      tag_254\n        /* \"#utility.yul\":4048:4053   */\n      dup3\n        /* \"#utility.yul\":4030:4054   */\n      tag_166\n      jump\t// in\n    tag_254:\n        /* \"#utility.yul\":4010:4055   */\n      tag_183\n      jump\t// in\n    tag_253:\n        /* \"#utility.yul\":4005:4008   */\n      dup3\n        /* \"#utility.yul\":3998:4056   */\n      mstore\n        /* \"#utility.yul\":3905:4062   */\n      pop\n      pop\n      jump\t// out\n        /* \"#utility.yul\":4068:4465   */\n    tag_84:\n        /* \"#utility.yul\":4208:4211   */\n      0x00\n        /* \"#utility.yul\":4223:4298   */\n      tag_256\n        /* \"#utility.yul\":4294:4297   */\n      dup3\n        /* \"#utility.yul\":4285:4291   */\n      dup6\n        /* \"#utility.yul\":4223:4298   */\n      tag_184\n      jump\t// in\n    tag_256:\n        /* \"#utility.yul\":4323:4325   */\n      0x20\n        /* \"#utility.yul\":4318:4321   */\n      dup3\n        /* \"#utility.yul\":4314:4326   */\n      add\n        /* \"#utility.yul\":4307:4326   */\n      swap2\n      pop\n        /* \"#utility.yul\":4336:4411   */\n      tag_257\n        /* \"#utility.yul\":4407:4410   */\n      dup3\n        /* \"#utility.yul\":4398:4404   */\n      dup5\n        /* \"#utility.yul\":4336:4411   */\n      tag_184\n      jump\t// in\n    tag_257:\n        /* \"#utility.yul\":4436:4438   */\n      0x20\n        /* \"#utility.yul\":4431:4434   */\n      dup3\n        /* \"#utility.yul\":4427:4439   */\n      add\n        /* \"#utility.yul\":4420:4439   */\n      swap2\n      pop\n        /* \"#utility.yul\":4456:4459   */\n      dup2\n        /* \"#utility.yul\":4449:4459   */\n      swap1\n      pop\n        /* \"#utility.yul\":4068:4465   */\n      swap4\n      swap3\n      pop\n      pop\n      pop\n      jump\t// out\n        /* \"#utility.yul\":4471:4651   */\n    tag_185:\n        /* \"#utility.yul\":4519:4596   */\n      0x4e487b7100000000000000000000000000000000000000000000000000000000\n        /* \"#utility.yul\":4516:4517   */\n      0x00\n        /* \"#utility.yul\":4509:4597   */\n      mstore\n        /* \"#utility.yul\":4616:4620   */\n      0x12\n        /* \"#utility.yul\":4613:4614   */\n      0x04\n        /* \"#utility.yul\":4606:4621   */\n      mstore\n        /* \"#utility.yul\":4640:4644   */\n      0x24\n        /* \"#utility.yul\":4637:4638   */\n      0x00\n        /* \"#utility.yul\":4630:4645   */\n      revert\n        /* \"#utility.yul\":4657:4833   */\n    tag_86:\n        /* \"#utility.yul\":4689:4690   */\n      0x00\n        /* \"#utility.yul\":4706:4726   */\n      tag_260\n        /* \"#utility.yul\":4724:4725   */\n      dup3\n        /* \"#utility.yul\":4706:4726   */\n      tag_166\n      jump\t// in\n    tag_260:\n        /* \"#utility.yul\":4701:4726   */\n      swap2\n      pop\n        /* \"#utility.yul\":4740:4760   */\n      tag_261\n        /* \"#utility.yul\":4758:4759   */\n      dup4\n        /* \"#utility.yul\":4740:4760   */\n      tag_166\n      jump\t// in\n    tag_261:\n        /* \"#utility.yul\":4735:4760   */\n      swap3\n      pop\n        /* \"#utility.yul\":4779:4780   */\n      dup3\n        /* \"#utility.yul\":4769:4804   */\n      tag_262\n      jumpi\n        /* \"#utility.yul\":4784:4802   */\n      tag_263\n      tag_185\n      jump\t// in\n    tag_263:\n        /* \"#utility.yul\":4769:4804   */\n    tag_262:\n        /* \"#utility.yul\":4825:4826   */\n      dup3\n        /* \"#utility.yul\":4822:4823   */\n      dup3\n        /* \"#utility.yul\":4818:4827   */\n      mod\n        /* \"#utility.yul\":4813:4827   */\n      swap1\n      pop\n        /* \"#utility.yul\":4657:4833   */\n      swap3\n      swap2\n      pop\n      pop\n      jump\t// out\n        /* \"#utility.yul\":4839:5019   */\n    tag_186:\n        /* \"#utility.yul\":4887:4964   */\n      0x4e487b7100000000000000000000000000000000000000000000000000000000\n        /* \"#utility.yul\":4884:4885   */\n      0x00\n        /* \"#utility.yul\":4877:4965   */\n      mstore\n        /* \"#utility.yul\":4984:4988   */\n      0x11\n        /* \"#utility.yul\":4981:4982   */\n      0x04\n        /* \"#utility.yul\":4974:4989   */\n      mstore\n        /* \"#utility.yul\":5008:5012   */\n      0x24\n        /* \"#utility.yul\":5005:5006   */\n      0x00\n        /* \"#utility.yul\":4998:5013   */\n      revert\n        /* \"#utility.yul\":5025:5435   */\n    tag_92:\n        /* \"#utility.yul\":5065:5072   */\n      0x00\n        /* \"#utility.yul\":5088:5108   */\n      tag_266\n        /* \"#utility.yul\":5106:5107   */\n      dup3\n        /* \"#utility.yul\":5088:5108   */\n      tag_166\n      jump\t// in\n    tag_266:\n        /* \"#utility.yul\":5083:5108   */\n      swap2\n      pop\n        /* \"#utility.yul\":5122:5142   */\n      tag_267\n        /* \"#utility.yul\":5140:5141   */\n      dup4\n        /* \"#utility.yul\":5122:5142   */\n      tag_166\n      jump\t// in\n    tag_267:\n        /* \"#utility.yul\":5117:5142   */\n      swap3\n      pop\n        /* \"#utility.yul\":5177:5178   */\n      dup3\n        /* \"#utility.yul\":5174:5175   */\n      dup3\n        /* \"#utility.yul\":5170:5179   */\n      mul\n        /* \"#utility.yul\":5199:5229   */\n      tag_268\n        /* \"#utility.yul\":5217:5228   */\n      dup2\n        /* \"#utility.yul\":5199:5229   */\n      tag_166\n      jump\t// in\n    tag_268:\n        /* \"#utility.yul\":5188:5229   */\n      swap2\n      pop\n        /* \"#utility.yul\":5378:5379   */\n      dup3\n        /* \"#utility.yul\":5369:5376   */\n      dup3\n        /* \"#utility.yul\":5365:5380   */\n      div\n        /* \"#utility.yul\":5362:5363   */\n      dup5\n        /* \"#utility.yul\":5359:5381   */\n      eq\n        /* \"#utility.yul\":5339:5340   */\n      dup4\n        /* \"#utility.yul\":5332:5341   */\n      iszero\n        /* \"#utility.yul\":5312:5395   */\n      or\n        /* \"#utility.yul\":5289:5428   */\n      tag_269\n      jumpi\n        /* \"#utility.yul\":5408:5426   */\n      tag_270\n      tag_186\n      jump\t// in\n    tag_270:\n        /* \"#utility.yul\":5289:5428   */\n    tag_269:\n        /* \"#utility.yul\":5073:5435   */\n      pop\n        /* \"#utility.yul\":5025:5435   */\n      swap3\n      swap2\n      pop\n      pop\n      jump\t// out\n        /* \"#utility.yul\":5441:5626   */\n    tag_94:\n        /* \"#utility.yul\":5481:5482   */\n      0x00\n        /* \"#utility.yul\":5498:5518   */\n      tag_272\n        /* \"#utility.yul\":5516:5517   */\n      dup3\n        /* \"#utility.yul\":5498:5518   */\n      tag_166\n      jump\t// in\n    tag_272:\n        /* \"#utility.yul\":5493:5518   */\n      swap2\n      pop\n        /* \"#utility.yul\":5532:5552   */\n      tag_273\n        /* \"#utility.yul\":5550:5551   */\n      dup4\n        /* \"#utility.yul\":5532:5552   */\n      tag_166\n      jump\t// in\n    tag_273:\n        /* \"#utility.yul\":5527:5552   */\n      swap3\n      pop\n        /* \"#utility.yul\":5571:5572   */\n      dup3\n        /* \"#utility.yul\":5561:5596   */\n      tag_274\n      jumpi\n        /* \"#utility.yul\":5576:5594   */\n      tag_275\n      tag_185\n      jump\t// in\n    tag_275:\n        /* \"#utility.yul\":5561:5596   */\n    tag_274:\n        /* \"#utility.yul\":5618:5619   */\n      dup3\n        /* \"#utility.yul\":5615:5616   */\n      dup3\n        /* \"#utility.yul\":5611:5620   */\n      div\n        /* \"#utility.yul\":5606:5620   */\n      swap1\n      pop\n        /* \"#utility.yul\":5441:5626   */\n      swap3\n      swap2\n      pop\n      pop\n      jump\t// out\n        /* \"#utility.yul\":5632:5826   */\n    tag_96:\n        /* \"#utility.yul\":5672:5676   */\n      0x00\n        /* \"#utility.yul\":5692:5712   */\n      tag_277\n        /* \"#utility.yul\":5710:5711   */\n      dup3\n        /* \"#utility.yul\":5692:5712   */\n      tag_166\n      jump\t// in\n    tag_277:\n        /* \"#utility.yul\":5687:5712   */\n      swap2\n      pop\n        /* \"#utility.yul\":5726:5746   */\n      tag_278\n        /* \"#utility.yul\":5744:5745   */\n      dup4\n        /* \"#utility.yul\":5726:5746   */\n      tag_166\n      jump\t// in\n    tag_278:\n        /* \"#utility.yul\":5721:5746   */\n      swap3\n      pop\n        /* \"#utility.yul\":5770:5771   */\n      dup3\n        /* \"#utility.yul\":5767:5768   */\n      dup3\n        /* \"#utility.yul\":5763:5772   */\n      sub\n        /* \"#utility.yul\":5755:5772   */\n      swap1\n      pop\n        /* \"#utility.yul\":5794:5795   */\n      dup2\n        /* \"#utility.yul\":5788:5792   */\n      dup2\n        /* \"#utility.yul\":5785:5796   */\n      gt\n        /* \"#utility.yul\":5782:5819   */\n      iszero\n      tag_279\n      jumpi\n        /* \"#utility.yul\":5799:5817   */\n      tag_280\n      tag_186\n      jump\t// in\n    tag_280:\n        /* \"#utility.yul\":5782:5819   */\n    tag_279:\n        /* \"#utility.yul\":5632:5826   */\n      swap3\n      swap2\n      pop\n      pop\n      jump\t// out\n        /* \"#utility.yul\":5832:6021   */\n    tag_187:\n        /* \"#utility.yul\":6001:6014   */\n      0x54686520616d6f756e7420000000000000000000000000000000000000000000\n        /* \"#utility.yul\":5996:5999   */\n      dup2\n        /* \"#utility.yul\":5989:6015   */\n      mstore\n        /* \"#utility.yul\":5832:6021   */\n      pop\n      jump\t// out\n        /* \"#utility.yul\":6027:6126   */\n    tag_188:\n        /* \"#utility.yul\":6079:6085   */\n      0x00\n        /* \"#utility.yul\":6113:6118   */\n      dup2\n        /* \"#utility.yul\":6107:6119   */\n      mload\n        /* \"#utility.yul\":6097:6119   */\n      swap1\n      pop\n        /* \"#utility.yul\":6027:6126   */\n      swap2\n      swap1\n      pop\n      jump\t// out\n        /* \"#utility.yul\":6132:6280   */\n    tag_189:\n        /* \"#utility.yul\":6234:6245   */\n      0x00\n        /* \"#utility.yul\":6271:6274   */\n      dup2\n        /* \"#utility.yul\":6256:6274   */\n      swap1\n      pop\n        /* \"#utility.yul\":6132:6280   */\n      swap3\n      swap2\n      pop\n      pop\n      jump\t// out\n        /* \"#utility.yul\":6286:6532   */\n    tag_190:\n        /* \"#utility.yul\":6367:6368   */\n      0x00\n        /* \"#utility.yul\":6377:6490   */\n    tag_285:\n        /* \"#utility.yul\":6391:6397   */\n      dup4\n        /* \"#utility.yul\":6388:6389   */\n      dup2\n        /* \"#utility.yul\":6385:6398   */\n      lt\n        /* \"#utility.yul\":6377:6490   */\n      iszero\n      tag_287\n      jumpi\n        /* \"#utility.yul\":6476:6477   */\n      dup1\n        /* \"#utility.yul\":6471:6474   */\n      dup3\n        /* \"#utility.yul\":6467:6478   */\n      add\n        /* \"#utility.yul\":6461:6479   */\n      mload\n        /* \"#utility.yul\":6457:6458   */\n      dup2\n        /* \"#utility.yul\":6452:6455   */\n      dup5\n        /* \"#utility.yul\":6448:6459   */\n      add\n        /* \"#utility.yul\":6441:6480   */\n      mstore\n        /* \"#utility.yul\":6413:6415   */\n      0x20\n        /* \"#utility.yul\":6410:6411   */\n      dup2\n        /* \"#utility.yul\":6406:6416   */\n      add\n        /* \"#utility.yul\":6401:6416   */\n      swap1\n      pop\n        /* \"#utility.yul\":6377:6490   */\n      jump(tag_285)\n    tag_287:\n        /* \"#utility.yul\":6524:6525   */\n      0x00\n        /* \"#utility.yul\":6515:6521   */\n      dup5\n        /* \"#utility.yul\":6510:6513   */\n      dup5\n        /* \"#utility.yul\":6506:6522   */\n      add\n        /* \"#utility.yul\":6499:6526   */\n      mstore\n        /* \"#utility.yul\":6348:6532   */\n      pop\n        /* \"#utility.yul\":6286:6532   */\n      pop\n      pop\n      pop\n      jump\t// out\n        /* \"#utility.yul\":6538:6928   */\n    tag_191:\n        /* \"#utility.yul\":6644:6647   */\n      0x00\n        /* \"#utility.yul\":6672:6711   */\n      tag_289\n        /* \"#utility.yul\":6705:6710   */\n      dup3\n        /* \"#utility.yul\":6672:6711   */\n      tag_188\n      jump\t// in\n    tag_289:\n        /* \"#utility.yul\":6727:6816   */\n      tag_290\n        /* \"#utility.yul\":6809:6815   */\n      dup2\n        /* \"#utility.yul\":6804:6807   */\n      dup6\n        /* \"#utility.yul\":6727:6816   */\n      tag_189\n      jump\t// in\n    tag_290:\n        /* \"#utility.yul\":6720:6816   */\n      swap4\n      pop\n        /* \"#utility.yul\":6825:6890   */\n      tag_291\n        /* \"#utility.yul\":6883:6889   */\n      dup2\n        /* \"#utility.yul\":6878:6881   */\n      dup6\n        /* \"#utility.yul\":6871:6875   */\n      0x20\n        /* \"#utility.yul\":6864:6869   */\n      dup7\n        /* \"#utility.yul\":6860:6876   */\n      add\n        /* \"#utility.yul\":6825:6890   */\n      tag_190\n      jump\t// in\n    tag_291:\n        /* \"#utility.yul\":6915:6921   */\n      dup1\n        /* \"#utility.yul\":6910:6913   */\n      dup5\n        /* \"#utility.yul\":6906:6922   */\n      add\n        /* \"#utility.yul\":6899:6922   */\n      swap2\n      pop\n        /* \"#utility.yul\":6648:6928   */\n      pop\n        /* \"#utility.yul\":6538:6928   */\n      swap3\n      swap2\n      pop\n      pop\n      jump\t// out\n        /* \"#utility.yul\":6934:7159   */\n    tag_192:\n        /* \"#utility.yul\":7074:7108   */\n      0x2069732067726561746572207468616e2074686520636f6e7472616374206261\n        /* \"#utility.yul\":7070:7071   */\n      0x00\n        /* \"#utility.yul\":7062:7068   */\n      dup3\n        /* \"#utility.yul\":7058:7072   */\n      add\n        /* \"#utility.yul\":7051:7109   */\n      mstore\n        /* \"#utility.yul\":7143:7151   */\n      0x6c616e6365200000000000000000000000000000000000000000000000000000\n        /* \"#utility.yul\":7138:7140   */\n      0x20\n        /* \"#utility.yul\":7130:7136   */\n      dup3\n        /* \"#utility.yul\":7126:7141   */\n      add\n        /* \"#utility.yul\":7119:7152   */\n      mstore\n        /* \"#utility.yul\":6934:7159   */\n      pop\n      jump\t// out\n        /* \"#utility.yul\":7165:7567   */\n    tag_193:\n        /* \"#utility.yul\":7325:7328   */\n      0x00\n        /* \"#utility.yul\":7346:7431   */\n      tag_294\n        /* \"#utility.yul\":7428:7430   */\n      0x26\n        /* \"#utility.yul\":7423:7426   */\n      dup4\n        /* \"#utility.yul\":7346:7431   */\n      tag_189\n      jump\t// in\n    tag_294:\n        /* \"#utility.yul\":7339:7431   */\n      swap2\n      pop\n        /* \"#utility.yul\":7440:7533   */\n      tag_295\n        /* \"#utility.yul\":7529:7532   */\n      dup3\n        /* \"#utility.yul\":7440:7533   */\n      tag_192\n      jump\t// in\n    tag_295:\n        /* \"#utility.yul\":7558:7560   */\n      0x26\n        /* \"#utility.yul\":7553:7556   */\n      dup3\n        /* \"#utility.yul\":7549:7561   */\n      add\n        /* \"#utility.yul\":7542:7561   */\n      swap1\n      pop\n        /* \"#utility.yul\":7165:7567   */\n      swap2\n      swap1\n      pop\n      jump\t// out\n        /* \"#utility.yul\":7573:8541   */\n    tag_109:\n        /* \"#utility.yul\":7945:7948   */\n      0x00\n        /* \"#utility.yul\":7960:8098   */\n      tag_297\n        /* \"#utility.yul\":8094:8097   */\n      dup3\n        /* \"#utility.yul\":7960:8098   */\n      tag_187\n      jump\t// in\n    tag_297:\n        /* \"#utility.yul\":8123:8125   */\n      0x0b\n        /* \"#utility.yul\":8118:8121   */\n      dup3\n        /* \"#utility.yul\":8114:8126   */\n      add\n        /* \"#utility.yul\":8107:8126   */\n      swap2\n      pop\n        /* \"#utility.yul\":8143:8238   */\n      tag_298\n        /* \"#utility.yul\":8234:8237   */\n      dup3\n        /* \"#utility.yul\":8225:8231   */\n      dup6\n        /* \"#utility.yul\":8143:8238   */\n      tag_191\n      jump\t// in\n    tag_298:\n        /* \"#utility.yul\":8136:8238   */\n      swap2\n      pop\n        /* \"#utility.yul\":8255:8403   */\n      tag_299\n        /* \"#utility.yul\":8399:8402   */\n      dup3\n        /* \"#utility.yul\":8255:8403   */\n      tag_193\n      jump\t// in\n    tag_299:\n        /* \"#utility.yul\":8248:8403   */\n      swap2\n      pop\n        /* \"#utility.yul\":8420:8515   */\n      tag_300\n        /* \"#utility.yul\":8511:8514   */\n      dup3\n        /* \"#utility.yul\":8502:8508   */\n      dup5\n        /* \"#utility.yul\":8420:8515   */\n      tag_191\n      jump\t// in\n    tag_300:\n        /* \"#utility.yul\":8413:8515   */\n      swap2\n      pop\n        /* \"#utility.yul\":8532:8535   */\n      dup2\n        /* \"#utility.yul\":8525:8535   */\n      swap1\n      pop\n        /* \"#utility.yul\":7573:8541   */\n      swap4\n      swap3\n      pop\n      pop\n      pop\n      jump\t// out\n        /* \"#utility.yul\":8547:8716   */\n    tag_194:\n        /* \"#utility.yul\":8631:8642   */\n      0x00\n        /* \"#utility.yul\":8665:8671   */\n      dup3\n        /* \"#utility.yul\":8660:8663   */\n      dup3\n        /* \"#utility.yul\":8653:8672   */\n      mstore\n        /* \"#utility.yul\":8705:8709   */\n      0x20\n        /* \"#utility.yul\":8700:8703   */\n      dup3\n        /* \"#utility.yul\":8696:8710   */\n      add\n        /* \"#utility.yul\":8681:8710   */\n      swap1\n      pop\n        /* \"#utility.yul\":8547:8716   */\n      swap3\n      swap2\n      pop\n      pop\n      jump\t// out\n        /* \"#utility.yul\":8722:8824   */\n    tag_195:\n        /* \"#utility.yul\":8763:8769   */\n      0x00\n        /* \"#utility.yul\":8814:8816   */\n      0x1f\n        /* \"#utility.yul\":8810:8817   */\n      not\n        /* \"#utility.yul\":8805:8807   */\n      0x1f\n        /* \"#utility.yul\":8798:8803   */\n      dup4\n        /* \"#utility.yul\":8794:8808   */\n      add\n        /* \"#utility.yul\":8790:8818   */\n      and\n        /* \"#utility.yul\":8780:8818   */\n      swap1\n      pop\n        /* \"#utility.yul\":8722:8824   */\n      swap2\n      swap1\n      pop\n      jump\t// out\n        /* \"#utility.yul\":8830:9207   */\n    tag_196:\n        /* \"#utility.yul\":8918:8921   */\n      0x00\n        /* \"#utility.yul\":8946:8985   */\n      tag_304\n        /* \"#utility.yul\":8979:8984   */\n      dup3\n        /* \"#utility.yul\":8946:8985   */\n      tag_188\n      jump\t// in\n    tag_304:\n        /* \"#utility.yul\":9001:9072   */\n      tag_305\n        /* \"#utility.yul\":9065:9071   */\n      dup2\n        /* \"#utility.yul\":9060:9063   */\n      dup6\n        /* \"#utility.yul\":9001:9072   */\n      tag_194\n      jump\t// in\n    tag_305:\n        /* \"#utility.yul\":8994:9072   */\n      swap4\n      pop\n        /* \"#utility.yul\":9081:9146   */\n      tag_306\n        /* \"#utility.yul\":9139:9145   */\n      dup2\n        /* \"#utility.yul\":9134:9137   */\n      dup6\n        /* \"#utility.yul\":9127:9131   */\n      0x20\n        /* \"#utility.yul\":9120:9125   */\n      dup7\n        /* \"#utility.yul\":9116:9132   */\n      add\n        /* \"#utility.yul\":9081:9146   */\n      tag_190\n      jump\t// in\n    tag_306:\n        /* \"#utility.yul\":9171:9200   */\n      tag_307\n        /* \"#utility.yul\":9193:9199   */\n      dup2\n        /* \"#utility.yul\":9171:9200   */\n      tag_195\n      jump\t// in\n    tag_307:\n        /* \"#utility.yul\":9166:9169   */\n      dup5\n        /* \"#utility.yul\":9162:9201   */\n      add\n        /* \"#utility.yul\":9155:9201   */\n      swap2\n      pop\n        /* \"#utility.yul\":8922:9207   */\n      pop\n        /* \"#utility.yul\":8830:9207   */\n      swap3\n      swap2\n      pop\n      pop\n      jump\t// out\n        /* \"#utility.yul\":9213:9526   */\n    tag_112:\n        /* \"#utility.yul\":9326:9330   */\n      0x00\n        /* \"#utility.yul\":9364:9366   */\n      0x20\n        /* \"#utility.yul\":9353:9362   */\n      dup3\n        /* \"#utility.yul\":9349:9367   */\n      add\n        /* \"#utility.yul\":9341:9367   */\n      swap1\n      pop\n        /* \"#utility.yul\":9413:9422   */\n      dup2\n        /* \"#utility.yul\":9407:9411   */\n      dup2\n        /* \"#utility.yul\":9403:9423   */\n      sub\n        /* \"#utility.yul\":9399:9400   */\n      0x00\n        /* \"#utility.yul\":9388:9397   */\n      dup4\n        /* \"#utility.yul\":9384:9401   */\n      add\n        /* \"#utility.yul\":9377:9424   */\n      mstore\n        /* \"#utility.yul\":9441:9519   */\n      tag_309\n        /* \"#utility.yul\":9514:9518   */\n      dup2\n        /* \"#utility.yul\":9505:9511   */\n      dup5\n        /* \"#utility.yul\":9441:9519   */\n      tag_196\n      jump\t// in\n    tag_309:\n        /* \"#utility.yul\":9433:9519   */\n      swap1\n      pop\n        /* \"#utility.yul\":9213:9526   */\n      swap3\n      swap2\n      pop\n      pop\n      jump\t// out\n        /* \"#utility.yul\":9532:9755   */\n    tag_197:\n        /* \"#utility.yul\":9672:9706   */\n      0x5468697320636f6e74726163742069732063757272656e746c79206469736162\n        /* \"#utility.yul\":9668:9669   */\n      0x00\n        /* \"#utility.yul\":9660:9666   */\n      dup3\n        /* \"#utility.yul\":9656:9670   */\n      add\n        /* \"#utility.yul\":9649:9707   */\n      mstore\n        /* \"#utility.yul\":9741:9747   */\n      0x6c65642e00000000000000000000000000000000000000000000000000000000\n        /* \"#utility.yul\":9736:9738   */\n      0x20\n        /* \"#utility.yul\":9728:9734   */\n      dup3\n        /* \"#utility.yul\":9724:9739   */\n      add\n        /* \"#utility.yul\":9717:9748   */\n      mstore\n        /* \"#utility.yul\":9532:9755   */\n      pop\n      jump\t// out\n        /* \"#utility.yul\":9761:10127   */\n    tag_198:\n        /* \"#utility.yul\":9903:9906   */\n      0x00\n        /* \"#utility.yul\":9924:9991   */\n      tag_312\n        /* \"#utility.yul\":9988:9990   */\n      0x24\n        /* \"#utility.yul\":9983:9986   */\n      dup4\n        /* \"#utility.yul\":9924:9991   */\n      tag_194\n      jump\t// in\n    tag_312:\n        /* \"#utility.yul\":9917:9991   */\n      swap2\n      pop\n        /* \"#utility.yul\":10000:10093   */\n      tag_313\n        /* \"#utility.yul\":10089:10092   */\n      dup3\n        /* \"#utility.yul\":10000:10093   */\n      tag_197\n      jump\t// in\n    tag_313:\n        /* \"#utility.yul\":10118:10120   */\n      0x40\n        /* \"#utility.yul\":10113:10116   */\n      dup3\n        /* \"#utility.yul\":10109:10121   */\n      add\n        /* \"#utility.yul\":10102:10121   */\n      swap1\n      pop\n        /* \"#utility.yul\":9761:10127   */\n      swap2\n      swap1\n      pop\n      jump\t// out\n        /* \"#utility.yul\":10133:10552   */\n    tag_119:\n        /* \"#utility.yul\":10299:10303   */\n      0x00\n        /* \"#utility.yul\":10337:10339   */\n      0x20\n        /* \"#utility.yul\":10326:10335   */\n      dup3\n        /* \"#utility.yul\":10322:10340   */\n      add\n        /* \"#utility.yul\":10314:10340   */\n      swap1\n      pop\n        /* \"#utility.yul\":10386:10395   */\n      dup2\n        /* \"#utility.yul\":10380:10384   */\n      dup2\n        /* \"#utility.yul\":10376:10396   */\n      sub\n        /* \"#utility.yul\":10372:10373   */\n      0x00\n        /* \"#utility.yul\":10361:10370   */\n      dup4\n        /* \"#utility.yul\":10357:10374   */\n      add\n        /* \"#utility.yul\":10350:10397   */\n      mstore\n        /* \"#utility.yul\":10414:10545   */\n      tag_315\n        /* \"#utility.yul\":10540:10544   */\n      dup2\n        /* \"#utility.yul\":10414:10545   */\n      tag_198\n      jump\t// in\n    tag_315:\n        /* \"#utility.yul\":10406:10545   */\n      swap1\n      pop\n        /* \"#utility.yul\":10133:10552   */\n      swap2\n      swap1\n      pop\n      jump\t// out\n        /* \"#utility.yul\":10558:10738   */\n    tag_128:\n        /* \"#utility.yul\":10606:10683   */\n      0x4e487b7100000000000000000000000000000000000000000000000000000000\n        /* \"#utility.yul\":10603:10604   */\n      0x00\n        /* \"#utility.yul\":10596:10684   */\n      mstore\n        /* \"#utility.yul\":10703:10707   */\n      0x32\n        /* \"#utility.yul\":10700:10701   */\n      0x04\n        /* \"#utility.yul\":10693:10708   */\n      mstore\n        /* \"#utility.yul\":10727:10731   */\n      0x24\n        /* \"#utility.yul\":10724:10725   */\n      0x00\n        /* \"#utility.yul\":10717:10732   */\n      revert\n        /* \"#utility.yul\":10744:10976   */\n    tag_199:\n        /* \"#utility.yul\":10884:10918   */\n      0x5468697320616464726573732068617320616c726561647920656e7465726564\n        /* \"#utility.yul\":10880:10881   */\n      0x00\n        /* \"#utility.yul\":10872:10878   */\n      dup3\n        /* \"#utility.yul\":10868:10882   */\n      add\n        /* \"#utility.yul\":10861:10919   */\n      mstore\n        /* \"#utility.yul\":10953:10968   */\n      0x20746865206c6f74746572792e00000000000000000000000000000000000000\n        /* \"#utility.yul\":10948:10950   */\n      0x20\n        /* \"#utility.yul\":10940:10946   */\n      dup3\n        /* \"#utility.yul\":10936:10951   */\n      add\n        /* \"#utility.yul\":10929:10969   */\n      mstore\n        /* \"#utility.yul\":10744:10976   */\n      pop\n      jump\t// out\n        /* \"#utility.yul\":10982:11348   */\n    tag_200:\n        /* \"#utility.yul\":11124:11127   */\n      0x00\n        /* \"#utility.yul\":11145:11212   */\n      tag_319\n        /* \"#utility.yul\":11209:11211   */\n      0x2d\n        /* \"#utility.yul\":11204:11207   */\n      dup4\n        /* \"#utility.yul\":11145:11212   */\n      tag_194\n      jump\t// in\n    tag_319:\n        /* \"#utility.yul\":11138:11212   */\n      swap2\n      pop\n        /* \"#utility.yul\":11221:11314   */\n      tag_320\n        /* \"#utility.yul\":11310:11313   */\n      dup3\n        /* \"#utility.yul\":11221:11314   */\n      tag_199\n      jump\t// in\n    tag_320:\n        /* \"#utility.yul\":11339:11341   */\n      0x40\n        /* \"#utility.yul\":11334:11337   */\n      dup3\n        /* \"#utility.yul\":11330:11342   */\n      add\n        /* \"#utility.yul\":11323:11342   */\n      swap1\n      pop\n        /* \"#utility.yul\":10982:11348   */\n      swap2\n      swap1\n      pop\n      jump\t// out\n        /* \"#utility.yul\":11354:11773   */\n    tag_139:\n        /* \"#utility.yul\":11520:11524   */\n      0x00\n        /* \"#utility.yul\":11558:11560   */\n      0x20\n        /* \"#utility.yul\":11547:11556   */\n      dup3\n        /* \"#utility.yul\":11543:11561   */\n      add\n        /* \"#utility.yul\":11535:11561   */\n      swap1\n      pop\n        /* \"#utility.yul\":11607:11616   */\n      dup2\n        /* \"#utility.yul\":11601:11605   */\n      dup2\n        /* \"#utility.yul\":11597:11617   */\n      sub\n        /* \"#utility.yul\":11593:11594   */\n      0x00\n        /* \"#utility.yul\":11582:11591   */\n      dup4\n        /* \"#utility.yul\":11578:11595   */\n      add\n        /* \"#utility.yul\":11571:11618   */\n      mstore\n        /* \"#utility.yul\":11635:11766   */\n      tag_322\n        /* \"#utility.yul\":11761:11765   */\n      dup2\n        /* \"#utility.yul\":11635:11766   */\n      tag_200\n      jump\t// in\n    tag_322:\n        /* \"#utility.yul\":11627:11766   */\n      swap1\n      pop\n        /* \"#utility.yul\":11354:11773   */\n      swap2\n      swap1\n      pop\n      jump\t// out\n        /* \"#utility.yul\":11779:11970   */\n    tag_144:\n        /* \"#utility.yul\":11819:11822   */\n      0x00\n        /* \"#utility.yul\":11838:11858   */\n      tag_324\n        /* \"#utility.yul\":11856:11857   */\n      dup3\n        /* \"#utility.yul\":11838:11858   */\n      tag_166\n      jump\t// in\n    tag_324:\n        /* \"#utility.yul\":11833:11858   */\n      swap2\n      pop\n        /* \"#utility.yul\":11872:11892   */\n      tag_325\n        /* \"#utility.yul\":11890:11891   */\n      dup4\n        /* \"#utility.yul\":11872:11892   */\n      tag_166\n      jump\t// in\n    tag_325:\n        /* \"#utility.yul\":11867:11892   */\n      swap3\n      pop\n        /* \"#utility.yul\":11915:11916   */\n      dup3\n        /* \"#utility.yul\":11912:11913   */\n      dup3\n        /* \"#utility.yul\":11908:11917   */\n      add\n        /* \"#utility.yul\":11901:11917   */\n      swap1\n      pop\n        /* \"#utility.yul\":11936:11939   */\n      dup1\n        /* \"#utility.yul\":11933:11934   */\n      dup3\n        /* \"#utility.yul\":11930:11940   */\n      gt\n        /* \"#utility.yul\":11927:11963   */\n      iszero\n      tag_326\n      jumpi\n        /* \"#utility.yul\":11943:11961   */\n      tag_327\n      tag_186\n      jump\t// in\n    tag_327:\n        /* \"#utility.yul\":11927:11963   */\n    tag_326:\n        /* \"#utility.yul\":11779:11970   */\n      swap3\n      swap2\n      pop\n      pop\n      jump\t// out\n        /* \"#utility.yul\":11976:12209   */\n    tag_152:\n        /* \"#utility.yul\":12015:12018   */\n      0x00\n        /* \"#utility.yul\":12038:12062   */\n      tag_329\n        /* \"#utility.yul\":12056:12061   */\n      dup3\n        /* \"#utility.yul\":12038:12062   */\n      tag_166\n      jump\t// in\n    tag_329:\n        /* \"#utility.yul\":12029:12062   */\n      swap2\n      pop\n        /* \"#utility.yul\":12084:12150   */\n      0xffffffffffffffffffffffffffffffffffffffffffffffffffffffffffffffff\n        /* \"#utility.yul\":12077:12082   */\n      dup3\n        /* \"#utility.yul\":12074:12151   */\n      sub\n        /* \"#utility.yul\":12071:12174   */\n      tag_330\n      jumpi\n        /* \"#utility.yul\":12154:12172   */\n      tag_331\n      tag_186\n      jump\t// in\n    tag_331:\n        /* \"#utility.yul\":12071:12174   */\n    tag_330:\n        /* \"#utility.yul\":12201:12202   */\n      0x01\n        /* \"#utility.yul\":12194:12199   */\n      dup3\n        /* \"#utility.yul\":12190:12203   */\n      add\n        /* \"#utility.yul\":12183:12203   */\n      swap1\n      pop\n        /* \"#utility.yul\":11976:12209   */\n      swap2\n      swap1\n      pop\n      jump\t// out\n        /* \"#utility.yul\":12215:12395   */\n    tag_156:\n        /* \"#utility.yul\":12263:12340   */\n      0x4e487b7100000000000000000000000000000000000000000000000000000000\n        /* \"#utility.yul\":12260:12261   */\n      0x00\n        /* \"#utility.yul\":12253:12341   */\n      mstore\n        /* \"#utility.yul\":12360:12364   */\n      0x41\n        /* \"#utility.yul\":12357:12358   */\n      0x04\n        /* \"#utility.yul\":12350:12365   */\n      mstore\n        /* \"#utility.yul\":12384:12388   */\n      0x24\n        /* \"#utility.yul\":12381:12382   */\n      0x00\n        /* \"#utility.yul\":12374:12389   */\n      revert\n\n    auxdata: 0xa2646970667358221220c2ecbe7ed27885d6e4a1c668f85f196586af10e899ceeb91ada19f710f0af2cc64736f6c63430008110033\n}\n",
				"bytecode": {
					"linkReferences": {},
					"object": "608060405260016000806101000a81548160ff0219169083151502179055506111938061002d6000396000f3fe6080604052600436106100e85760003560e01c80637f7982431161008a578063a8a5400811610059578063a8a5400814610296578063b5cc4539146102bf578063bd097e21146102c9578063bff82dee146102d3576100e8565b80637f79824314610200578063853828b61461022b578063894ba83314610242578063912a90bb14610259576100e8565b806327dff143116100c657806327dff1431461016c5780632e1a7d4d146101a9578063367edd32146101d25780633b4ad0e5146101e9576100e8565b806312065fe0146100ed57806312845966146101185780631593a8c714610155575b600080fd5b3480156100f957600080fd5b50610102610310565b60405161010f9190610a49565b60405180910390f35b34801561012457600080fd5b5061013f600480360381019061013a9190610a95565b610318565b60405161014c9190610a49565b60405180910390f35b34801561016157600080fd5b5061016a61035d565b005b34801561017857600080fd5b50610193600480360381019061018e9190610a95565b61047f565b6040516101a09190610b03565b60405180910390f35b3480156101b557600080fd5b506101d060048036038101906101cb9190610a95565b6104be565b005b3480156101de57600080fd5b506101e76105a1565b005b3480156101f557600080fd5b506101fe6105a3565b005b34801561020c57600080fd5b506102156105f2565b6040516102229190610b03565b60405180910390f35b34801561023757600080fd5b50610240610675565b005b34801561024e57600080fd5b506102576106d9565b005b34801561026557600080fd5b50610280600480360381019061027b9190610b4a565b6106db565b60405161028d9190610b92565b60405180910390f35b3480156102a257600080fd5b506102bd60048036038101906102b89190610b4a565b610731565b005b6102c7610882565b005b6102d16108ae565b005b3480156102df57600080fd5b506102fa60048036038101906102f59190610beb565b6108b0565b6040516103079190610b92565b60405180910390f35b600047905090565b600080444260405160200161032e929190610c39565b6040516020818303038152906040528051906020012060001c905082816103559190610c94565b915050919050565b60006103676105f2565b9050600073ffffffffffffffffffffffffffffffffffffffff168173ffffffffffffffffffffffffffffffffffffffff16031561047c5760006064600a6001546103b19190610cf4565b6103bb9190610d36565b90506000816001546103cd9190610d67565b9050600060018190555073ab8483f64d9c6d1ecf9b849ae677dd3315835cb273ffffffffffffffffffffffffffffffffffffffff166108fc839081150290604051600060405180830381858888f19350505050158015610431573d6000803e3d6000fd5b508273ffffffffffffffffffffffffffffffffffffffff166108fc829081150290604051600060405180830381858888f19350505050158015610478573d6000803e3d6000fd5b5050505b50565b6003818154811061048f57600080fd5b906000526020600020016000915054906101000a900473ffffffffffffffffffffffffffffffffffffffff1681565b60006104c8610310565b9050808211156104d7836108d0565b6104e0836108d0565b6040516020016104f1929190610ea4565b60405160208183030381529060405290610541576040517f08c379a00000000000000000000000000000000000000000000000000000000081526004016105389190610f3d565b60405180910390fd5b5073ab8483f64d9c6d1ecf9b849ae677dd3315835cb273ffffffffffffffffffffffffffffffffffffffff166108fc839081150290604051600060405180830381858888f1935050505015801561059c573d6000803e3d6000fd5b505050565b565b60008054906101000a900460ff166105f0576040517f08c379a00000000000000000000000000000000000000000000000000000000081526004016105e790610fd1565b60405180910390fd5b565b6000806003805490509050600080820361061157600092505050610672565b60018203610622576000905061062e565b61062b82610318565b90505b6003818154811061064257610641610ff1565b5b9060005260206000200160009054906101000a900473ffffffffffffffffffffffffffffffffffffffff16925050505b90565b73ab8483f64d9c6d1ecf9b849ae677dd3315835cb273ffffffffffffffffffffffffffffffffffffffff166108fc6106ab610310565b9081150290604051600060405180830381858888f193505050501580156106d6573d6000803e3d6000fd5b50565b565b6000600260008373ffffffffffffffffffffffffffffffffffffffff1673ffffffffffffffffffffffffffffffffffffffff16815260200190815260200160002060009054906101000a900460ff169050919050565b6000600260008373ffffffffffffffffffffffffffffffffffffffff1673ffffffffffffffffffffffffffffffffffffffff16815260200190815260200160002060009054906101000a900460ff16905080156107c3576040517f08c379a00000000000000000000000000000000000000000000000000000000081526004016107ba90611092565b60405180910390fd5b6001600260008473ffffffffffffffffffffffffffffffffffffffff1673ffffffffffffffffffffffffffffffffffffffff16815260200190815260200160002060006101000a81548160ff0219169083151502179055506003829080600181540180825580915050600190039060005260206000200160009091909190916101000a81548173ffffffffffffffffffffffffffffffffffffffff021916908373ffffffffffffffffffffffffffffffffffffffff1602179055505050565b61088a6105a3565b346001600082825461089c91906110b2565b925050819055506108ac33610731565b565b565b60026020528060005260406000206000915054906101000a900460ff1681565b606060008203610917576040518060400160405280600181526020017f30000000000000000000000000000000000000000000000000000000000000008152509050610a2b565b600082905060005b60008214610949578080610932906110e6565b915050600a826109429190610d36565b915061091f565b60008167ffffffffffffffff8111156109655761096461112e565b5b6040519080825280601f01601f1916602001820160405280156109975781602001600182028036833780820191505090505b5090505b60008514610a24576001826109b09190610d67565b9150600a856109bf9190610c94565b60306109cb91906110b2565b60f81b8183815181106109e1576109e0610ff1565b5b60200101907effffffffffffffffffffffffffffffffffffffffffffffffffffffffffffff1916908160001a905350600a85610a1d9190610d36565b945061099b565b8093505050505b919050565b6000819050919050565b610a4381610a30565b82525050565b6000602082019050610a5e6000830184610a3a565b92915050565b600080fd5b610a7281610a30565b8114610a7d57600080fd5b50565b600081359050610a8f81610a69565b92915050565b600060208284031215610aab57610aaa610a64565b5b6000610ab984828501610a80565b91505092915050565b600073ffffffffffffffffffffffffffffffffffffffff82169050919050565b6000610aed82610ac2565b9050919050565b610afd81610ae2565b82525050565b6000602082019050610b186000830184610af4565b92915050565b610b2781610ae2565b8114610b3257600080fd5b50565b600081359050610b4481610b1e565b92915050565b600060208284031215610b6057610b5f610a64565b5b6000610b6e84828501610b35565b91505092915050565b60008115159050919050565b610b8c81610b77565b82525050565b6000602082019050610ba76000830184610b83565b92915050565b6000610bb882610ac2565b9050919050565b610bc881610bad565b8114610bd357600080fd5b50565b600081359050610be581610bbf565b92915050565b600060208284031215610c0157610c00610a64565b5b6000610c0f84828501610bd6565b91505092915050565b6000819050919050565b610c33610c2e82610a30565b610c18565b82525050565b6000610c458285610c22565b602082019150610c558284610c22565b6020820191508190509392505050565b7f4e487b7100000000000000000000000000000000000000000000000000000000600052601260045260246000fd5b6000610c9f82610a30565b9150610caa83610a30565b925082610cba57610cb9610c65565b5b828206905092915050565b7f4e487b7100000000000000000000000000000000000000000000000000000000600052601160045260246000fd5b6000610cff82610a30565b9150610d0a83610a30565b9250828202610d1881610a30565b91508282048414831517610d2f57610d2e610cc5565b5b5092915050565b6000610d4182610a30565b9150610d4c83610a30565b925082610d5c57610d5b610c65565b5b828204905092915050565b6000610d7282610a30565b9150610d7d83610a30565b9250828203905081811115610d9557610d94610cc5565b5b92915050565b7f54686520616d6f756e7420000000000000000000000000000000000000000000815250565b600081519050919050565b600081905092915050565b60005b83811015610df5578082015181840152602081019050610dda565b60008484015250505050565b6000610e0c82610dc1565b610e168185610dcc565b9350610e26818560208601610dd7565b80840191505092915050565b7f2069732067726561746572207468616e2074686520636f6e747261637420626160008201527f6c616e6365200000000000000000000000000000000000000000000000000000602082015250565b6000610e8e602683610dcc565b9150610e9982610e32565b602682019050919050565b6000610eaf82610d9b565b600b82019150610ebf8285610e01565b9150610eca82610e81565b9150610ed68284610e01565b91508190509392505050565b600082825260208201905092915050565b6000601f19601f8301169050919050565b6000610f0f82610dc1565b610f198185610ee2565b9350610f29818560208601610dd7565b610f3281610ef3565b840191505092915050565b60006020820190508181036000830152610f578184610f04565b905092915050565b7f5468697320636f6e74726163742069732063757272656e746c7920646973616260008201527f6c65642e00000000000000000000000000000000000000000000000000000000602082015250565b6000610fbb602483610ee2565b9150610fc682610f5f565b604082019050919050565b60006020820190508181036000830152610fea81610fae565b9050919050565b7f4e487b7100000000000000000000000000000000000000000000000000000000600052603260045260246000fd5b7f5468697320616464726573732068617320616c726561647920656e746572656460008201527f20746865206c6f74746572792e00000000000000000000000000000000000000602082015250565b600061107c602d83610ee2565b915061108782611020565b604082019050919050565b600060208201905081810360008301526110ab8161106f565b9050919050565b60006110bd82610a30565b91506110c883610a30565b92508282019050808211156110e0576110df610cc5565b5b92915050565b60006110f182610a30565b91507fffffffffffffffffffffffffffffffffffffffffffffffffffffffffffffffff820361112357611122610cc5565b5b600182019050919050565b7f4e487b7100000000000000000000000000000000000000000000000000000000600052604160045260246000fdfea2646970667358221220c2ecbe7ed27885d6e4a1c668f85f196586af10e899ceeb91ada19f710f0af2cc64736f6c63430008110033",
					"opcodes": "PUSH1 0x80 PUSH1 0x40 MSTORE PUSH1 0x1 PUSH1 0x0 DUP1 PUSH2 0x100 EXP DUP2 SLOAD DUP2 PUSH1 0xFF MUL NOT AND SWAP1 DUP4 ISZERO ISZERO MUL OR SWAP1 SSTORE POP PUSH2 0x1193 DUP1 PUSH2 0x2D PUSH1 0x0 CODECOPY PUSH1 0x0 RETURN INVALID PUSH1 0x80 PUSH1 0x40 MSTORE PUSH1 0x4 CALLDATASIZE LT PUSH2 0xE8 JUMPI PUSH1 0x0 CALLDATALOAD PUSH1 0xE0 SHR DUP1 PUSH4 0x7F798243 GT PUSH2 0x8A JUMPI DUP1 PUSH4 0xA8A54008 GT PUSH2 0x59 JUMPI DUP1 PUSH4 0xA8A54008 EQ PUSH2 0x296 JUMPI DUP1 PUSH4 0xB5CC4539 EQ PUSH2 0x2BF JUMPI DUP1 PUSH4 0xBD097E21 EQ PUSH2 0x2C9 JUMPI DUP1 PUSH4 0xBFF82DEE EQ PUSH2 0x2D3 JUMPI PUSH2 0xE8 JUMP JUMPDEST DUP1 PUSH4 0x7F798243 EQ PUSH2 0x200 JUMPI DUP1 PUSH4 0x853828B6 EQ PUSH2 0x22B JUMPI DUP1 PUSH4 0x894BA833 EQ PUSH2 0x242 JUMPI DUP1 PUSH4 0x912A90BB EQ PUSH2 0x259 JUMPI PUSH2 0xE8 JUMP JUMPDEST DUP1 PUSH4 0x27DFF143 GT PUSH2 0xC6 JUMPI DUP1 PUSH4 0x27DFF143 EQ PUSH2 0x16C JUMPI DUP1 PUSH4 0x2E1A7D4D EQ PUSH2 0x1A9 JUMPI DUP1 PUSH4 0x367EDD32 EQ PUSH2 0x1D2 JUMPI DUP1 PUSH4 0x3B4AD0E5 EQ PUSH2 0x1E9 JUMPI PUSH2 0xE8 JUMP JUMPDEST DUP1 PUSH4 0x12065FE0 EQ PUSH2 0xED JUMPI DUP1 PUSH4 0x12845966 EQ PUSH2 0x118 JUMPI DUP1 PUSH4 0x1593A8C7 EQ PUSH2 0x155 JUMPI JUMPDEST PUSH1 0x0 DUP1 REVERT JUMPDEST CALLVALUE DUP1 ISZERO PUSH2 0xF9 JUMPI PUSH1 0x0 DUP1 REVERT JUMPDEST POP PUSH2 0x102 PUSH2 0x310 JUMP JUMPDEST PUSH1 0x40 MLOAD PUSH2 0x10F SWAP2 SWAP1 PUSH2 0xA49 JUMP JUMPDEST PUSH1 0x40 MLOAD DUP1 SWAP2 SUB SWAP1 RETURN JUMPDEST CALLVALUE DUP1 ISZERO PUSH2 0x124 JUMPI PUSH1 0x0 DUP1 REVERT JUMPDEST POP PUSH2 0x13F PUSH1 0x4 DUP1 CALLDATASIZE SUB DUP2 ADD SWAP1 PUSH2 0x13A SWAP2 SWAP1 PUSH2 0xA95 JUMP JUMPDEST PUSH2 0x318 JUMP JUMPDEST PUSH1 0x40 MLOAD PUSH2 0x14C SWAP2 SWAP1 PUSH2 0xA49 JUMP JUMPDEST PUSH1 0x40 MLOAD DUP1 SWAP2 SUB SWAP1 RETURN JUMPDEST CALLVALUE DUP1 ISZERO PUSH2 0x161 JUMPI PUSH1 0x0 DUP1 REVERT JUMPDEST POP PUSH2 0x16A PUSH2 0x35D JUMP JUMPDEST STOP JUMPDEST CALLVALUE DUP1 ISZERO PUSH2 0x178 JUMPI PUSH1 0x0 DUP1 REVERT JUMPDEST POP PUSH2 0x193 PUSH1 0x4 DUP1 CALLDATASIZE SUB DUP2 ADD SWAP1 PUSH2 0x18E SWAP2 SWAP1 PUSH2 0xA95 JUMP JUMPDEST PUSH2 0x47F JUMP JUMPDEST PUSH1 0x40 MLOAD PUSH2 0x1A0 SWAP2 SWAP1 PUSH2 0xB03 JUMP JUMPDEST PUSH1 0x40 MLOAD DUP1 SWAP2 SUB SWAP1 RETURN JUMPDEST CALLVALUE DUP1 ISZERO PUSH2 0x1B5 JUMPI PUSH1 0x0 DUP1 REVERT JUMPDEST POP PUSH2 0x1D0 PUSH1 0x4 DUP1 CALLDATASIZE SUB DUP2 ADD SWAP1 PUSH2 0x1CB SWAP2 SWAP1 PUSH2 0xA95 JUMP JUMPDEST PUSH2 0x4BE JUMP JUMPDEST STOP JUMPDEST CALLVALUE DUP1 ISZERO PUSH2 0x1DE JUMPI PUSH1 0x0 DUP1 REVERT JUMPDEST POP PUSH2 0x1E7 PUSH2 0x5A1 JUMP JUMPDEST STOP JUMPDEST CALLVALUE DUP1 ISZERO PUSH2 0x1F5 JUMPI PUSH1 0x0 DUP1 REVERT JUMPDEST POP PUSH2 0x1FE PUSH2 0x5A3 JUMP JUMPDEST STOP JUMPDEST CALLVALUE DUP1 ISZERO PUSH2 0x20C JUMPI PUSH1 0x0 DUP1 REVERT JUMPDEST POP PUSH2 0x215 PUSH2 0x5F2 JUMP JUMPDEST PUSH1 0x40 MLOAD PUSH2 0x222 SWAP2 SWAP1 PUSH2 0xB03 JUMP JUMPDEST PUSH1 0x40 MLOAD DUP1 SWAP2 SUB SWAP1 RETURN JUMPDEST CALLVALUE DUP1 ISZERO PUSH2 0x237 JUMPI PUSH1 0x0 DUP1 REVERT JUMPDEST POP PUSH2 0x240 PUSH2 0x675 JUMP JUMPDEST STOP JUMPDEST CALLVALUE DUP1 ISZERO PUSH2 0x24E JUMPI PUSH1 0x0 DUP1 REVERT JUMPDEST POP PUSH2 0x257 PUSH2 0x6D9 JUMP JUMPDEST STOP JUMPDEST CALLVALUE DUP1 ISZERO PUSH2 0x265 JUMPI PUSH1 0x0 DUP1 REVERT JUMPDEST POP PUSH2 0x280 PUSH1 0x4 DUP1 CALLDATASIZE SUB DUP2 ADD SWAP1 PUSH2 0x27B SWAP2 SWAP1 PUSH2 0xB4A JUMP JUMPDEST PUSH2 0x6DB JUMP JUMPDEST PUSH1 0x40 MLOAD PUSH2 0x28D SWAP2 SWAP1 PUSH2 0xB92 JUMP JUMPDEST PUSH1 0x40 MLOAD DUP1 SWAP2 SUB SWAP1 RETURN JUMPDEST CALLVALUE DUP1 ISZERO PUSH2 0x2A2 JUMPI PUSH1 0x0 DUP1 REVERT JUMPDEST POP PUSH2 0x2BD PUSH1 0x4 DUP1 CALLDATASIZE SUB DUP2 ADD SWAP1 PUSH2 0x2B8 SWAP2 SWAP1 PUSH2 0xB4A JUMP JUMPDEST PUSH2 0x731 JUMP JUMPDEST STOP JUMPDEST PUSH2 0x2C7 PUSH2 0x882 JUMP JUMPDEST STOP JUMPDEST PUSH2 0x2D1 PUSH2 0x8AE JUMP JUMPDEST STOP JUMPDEST CALLVALUE DUP1 ISZERO PUSH2 0x2DF JUMPI PUSH1 0x0 DUP1 REVERT JUMPDEST POP PUSH2 0x2FA PUSH1 0x4 DUP1 CALLDATASIZE SUB DUP2 ADD SWAP1 PUSH2 0x2F5 SWAP2 SWAP1 PUSH2 0xBEB JUMP JUMPDEST PUSH2 0x8B0 JUMP JUMPDEST PUSH1 0x40 MLOAD PUSH2 0x307 SWAP2 SWAP1 PUSH2 0xB92 JUMP JUMPDEST PUSH1 0x40 MLOAD DUP1 SWAP2 SUB SWAP1 RETURN JUMPDEST PUSH1 0x0 SELFBALANCE SWAP1 POP SWAP1 JUMP JUMPDEST PUSH1 0x0 DUP1 DIFFICULTY TIMESTAMP PUSH1 0x40 MLOAD PUSH1 0x20 ADD PUSH2 0x32E SWAP3 SWAP2 SWAP1 PUSH2 0xC39 JUMP JUMPDEST PUSH1 0x40 MLOAD PUSH1 0x20 DUP2 DUP4 SUB SUB DUP2 MSTORE SWAP1 PUSH1 0x40 MSTORE DUP1 MLOAD SWAP1 PUSH1 0x20 ADD KECCAK256 PUSH1 0x0 SHR SWAP1 POP DUP3 DUP2 PUSH2 0x355 SWAP2 SWAP1 PUSH2 0xC94 JUMP JUMPDEST SWAP2 POP POP SWAP2 SWAP1 POP JUMP JUMPDEST PUSH1 0x0 PUSH2 0x367 PUSH2 0x5F2 JUMP JUMPDEST SWAP1 POP PUSH1 0x0 PUSH20 0xFFFFFFFFFFFFFFFFFFFFFFFFFFFFFFFFFFFFFFFF AND DUP2 PUSH20 0xFFFFFFFFFFFFFFFFFFFFFFFFFFFFFFFFFFFFFFFF AND SUB ISZERO PUSH2 0x47C JUMPI PUSH1 0x0 PUSH1 0x64 PUSH1 0xA PUSH1 0x1 SLOAD PUSH2 0x3B1 SWAP2 SWAP1 PUSH2 0xCF4 JUMP JUMPDEST PUSH2 0x3BB SWAP2 SWAP1 PUSH2 0xD36 JUMP JUMPDEST SWAP1 POP PUSH1 0x0 DUP2 PUSH1 0x1 SLOAD PUSH2 0x3CD SWAP2 SWAP1 PUSH2 0xD67 JUMP JUMPDEST SWAP1 POP PUSH1 0x0 PUSH1 0x1 DUP2 SWAP1 SSTORE POP PUSH20 0xAB8483F64D9C6D1ECF9B849AE677DD3315835CB2 PUSH20 0xFFFFFFFFFFFFFFFFFFFFFFFFFFFFFFFFFFFFFFFF AND PUSH2 0x8FC DUP4 SWAP1 DUP2 ISZERO MUL SWAP1 PUSH1 0x40 MLOAD PUSH1 0x0 PUSH1 0x40 MLOAD DUP1 DUP4 SUB DUP2 DUP6 DUP9 DUP9 CALL SWAP4 POP POP POP POP ISZERO DUP1 ISZERO PUSH2 0x431 JUMPI RETURNDATASIZE PUSH1 0x0 DUP1 RETURNDATACOPY RETURNDATASIZE PUSH1 0x0 REVERT JUMPDEST POP DUP3 PUSH20 0xFFFFFFFFFFFFFFFFFFFFFFFFFFFFFFFFFFFFFFFF AND PUSH2 0x8FC DUP3 SWAP1 DUP2 ISZERO MUL SWAP1 PUSH1 0x40 MLOAD PUSH1 0x0 PUSH1 0x40 MLOAD DUP1 DUP4 SUB DUP2 DUP6 DUP9 DUP9 CALL SWAP4 POP POP POP POP ISZERO DUP1 ISZERO PUSH2 0x478 JUMPI RETURNDATASIZE PUSH1 0x0 DUP1 RETURNDATACOPY RETURNDATASIZE PUSH1 0x0 REVERT JUMPDEST POP POP POP JUMPDEST POP JUMP JUMPDEST PUSH1 0x3 DUP2 DUP2 SLOAD DUP2 LT PUSH2 0x48F JUMPI PUSH1 0x0 DUP1 REVERT JUMPDEST SWAP1 PUSH1 0x0 MSTORE PUSH1 0x20 PUSH1 0x0 KECCAK256 ADD PUSH1 0x0 SWAP2 POP SLOAD SWAP1 PUSH2 0x100 EXP SWAP1 DIV PUSH20 0xFFFFFFFFFFFFFFFFFFFFFFFFFFFFFFFFFFFFFFFF AND DUP2 JUMP JUMPDEST PUSH1 0x0 PUSH2 0x4C8 PUSH2 0x310 JUMP JUMPDEST SWAP1 POP DUP1 DUP3 GT ISZERO PUSH2 0x4D7 DUP4 PUSH2 0x8D0 JUMP JUMPDEST PUSH2 0x4E0 DUP4 PUSH2 0x8D0 JUMP JUMPDEST PUSH1 0x40 MLOAD PUSH1 0x20 ADD PUSH2 0x4F1 SWAP3 SWAP2 SWAP1 PUSH2 0xEA4 JUMP JUMPDEST PUSH1 0x40 MLOAD PUSH1 0x20 DUP2 DUP4 SUB SUB DUP2 MSTORE SWAP1 PUSH1 0x40 MSTORE SWAP1 PUSH2 0x541 JUMPI PUSH1 0x40 MLOAD PUSH32 0x8C379A000000000000000000000000000000000000000000000000000000000 DUP2 MSTORE PUSH1 0x4 ADD PUSH2 0x538 SWAP2 SWAP1 PUSH2 0xF3D JUMP JUMPDEST PUSH1 0x40 MLOAD DUP1 SWAP2 SUB SWAP1 REVERT JUMPDEST POP PUSH20 0xAB8483F64D9C6D1ECF9B849AE677DD3315835CB2 PUSH20 0xFFFFFFFFFFFFFFFFFFFFFFFFFFFFFFFFFFFFFFFF AND PUSH2 0x8FC DUP4 SWAP1 DUP2 ISZERO MUL SWAP1 PUSH1 0x40 MLOAD PUSH1 0x0 PUSH1 0x40 MLOAD DUP1 DUP4 SUB DUP2 DUP6 DUP9 DUP9 CALL SWAP4 POP POP POP POP ISZERO DUP1 ISZERO PUSH2 0x59C JUMPI RETURNDATASIZE PUSH1 0x0 DUP1 RETURNDATACOPY RETURNDATASIZE PUSH1 0x0 REVERT JUMPDEST POP POP POP JUMP JUMPDEST JUMP JUMPDEST PUSH1 0x0 DUP1 SLOAD SWAP1 PUSH2 0x100 EXP SWAP1 DIV PUSH1 0xFF AND PUSH2 0x5F0 JUMPI PUSH1 0x40 MLOAD PUSH32 0x8C379A000000000000000000000000000000000000000000000000000000000 DUP2 MSTORE PUSH1 0x4 ADD PUSH2 0x5E7 SWAP1 PUSH2 0xFD1 JUMP JUMPDEST PUSH1 0x40 MLOAD DUP1 SWAP2 SUB SWAP1 REVERT JUMPDEST JUMP JUMPDEST PUSH1 0x0 DUP1 PUSH1 0x3 DUP1 SLOAD SWAP1 POP SWAP1 POP PUSH1 0x0 DUP1 DUP3 SUB PUSH2 0x611 JUMPI PUSH1 0x0 SWAP3 POP POP POP PUSH2 0x672 JUMP JUMPDEST PUSH1 0x1 DUP3 SUB PUSH2 0x622 JUMPI PUSH1 0x0 SWAP1 POP PUSH2 0x62E JUMP JUMPDEST PUSH2 0x62B DUP3 PUSH2 0x318 JUMP JUMPDEST SWAP1 POP JUMPDEST PUSH1 0x3 DUP2 DUP2 SLOAD DUP2 LT PUSH2 0x642 JUMPI PUSH2 0x641 PUSH2 0xFF1 JUMP JUMPDEST JUMPDEST SWAP1 PUSH1 0x0 MSTORE PUSH1 0x20 PUSH1 0x0 KECCAK256 ADD PUSH1 0x0 SWAP1 SLOAD SWAP1 PUSH2 0x100 EXP SWAP1 DIV PUSH20 0xFFFFFFFFFFFFFFFFFFFFFFFFFFFFFFFFFFFFFFFF AND SWAP3 POP POP POP JUMPDEST SWAP1 JUMP JUMPDEST PUSH20 0xAB8483F64D9C6D1ECF9B849AE677DD3315835CB2 PUSH20 0xFFFFFFFFFFFFFFFFFFFFFFFFFFFFFFFFFFFFFFFF AND PUSH2 0x8FC PUSH2 0x6AB PUSH2 0x310 JUMP JUMPDEST SWAP1 DUP2 ISZERO MUL SWAP1 PUSH1 0x40 MLOAD PUSH1 0x0 PUSH1 0x40 MLOAD DUP1 DUP4 SUB DUP2 DUP6 DUP9 DUP9 CALL SWAP4 POP POP POP POP ISZERO DUP1 ISZERO PUSH2 0x6D6 JUMPI RETURNDATASIZE PUSH1 0x0 DUP1 RETURNDATACOPY RETURNDATASIZE PUSH1 0x0 REVERT JUMPDEST POP JUMP JUMPDEST JUMP JUMPDEST PUSH1 0x0 PUSH1 0x2 PUSH1 0x0 DUP4 PUSH20 0xFFFFFFFFFFFFFFFFFFFFFFFFFFFFFFFFFFFFFFFF AND PUSH20 0xFFFFFFFFFFFFFFFFFFFFFFFFFFFFFFFFFFFFFFFF AND DUP2 MSTORE PUSH1 0x20 ADD SWAP1 DUP2 MSTORE PUSH1 0x20 ADD PUSH1 0x0 KECCAK256 PUSH1 0x0 SWAP1 SLOAD SWAP1 PUSH2 0x100 EXP SWAP1 DIV PUSH1 0xFF AND SWAP1 POP SWAP2 SWAP1 POP JUMP JUMPDEST PUSH1 0x0 PUSH1 0x2 PUSH1 0x0 DUP4 PUSH20 0xFFFFFFFFFFFFFFFFFFFFFFFFFFFFFFFFFFFFFFFF AND PUSH20 0xFFFFFFFFFFFFFFFFFFFFFFFFFFFFFFFFFFFFFFFF AND DUP2 MSTORE PUSH1 0x20 ADD SWAP1 DUP2 MSTORE PUSH1 0x20 ADD PUSH1 0x0 KECCAK256 PUSH1 0x0 SWAP1 SLOAD SWAP1 PUSH2 0x100 EXP SWAP1 DIV PUSH1 0xFF AND SWAP1 POP DUP1 ISZERO PUSH2 0x7C3 JUMPI PUSH1 0x40 MLOAD PUSH32 0x8C379A000000000000000000000000000000000000000000000000000000000 DUP2 MSTORE PUSH1 0x4 ADD PUSH2 0x7BA SWAP1 PUSH2 0x1092 JUMP JUMPDEST PUSH1 0x40 MLOAD DUP1 SWAP2 SUB SWAP1 REVERT JUMPDEST PUSH1 0x1 PUSH1 0x2 PUSH1 0x0 DUP5 PUSH20 0xFFFFFFFFFFFFFFFFFFFFFFFFFFFFFFFFFFFFFFFF AND PUSH20 0xFFFFFFFFFFFFFFFFFFFFFFFFFFFFFFFFFFFFFFFF AND DUP2 MSTORE PUSH1 0x20 ADD SWAP1 DUP2 MSTORE PUSH1 0x20 ADD PUSH1 0x0 KECCAK256 PUSH1 0x0 PUSH2 0x100 EXP DUP2 SLOAD DUP2 PUSH1 0xFF MUL NOT AND SWAP1 DUP4 ISZERO ISZERO MUL OR SWAP1 SSTORE POP PUSH1 0x3 DUP3 SWAP1 DUP1 PUSH1 0x1 DUP2 SLOAD ADD DUP1 DUP3 SSTORE DUP1 SWAP2 POP POP PUSH1 0x1 SWAP1 SUB SWAP1 PUSH1 0x0 MSTORE PUSH1 0x20 PUSH1 0x0 KECCAK256 ADD PUSH1 0x0 SWAP1 SWAP2 SWAP1 SWAP2 SWAP1 SWAP2 PUSH2 0x100 EXP DUP2 SLOAD DUP2 PUSH20 0xFFFFFFFFFFFFFFFFFFFFFFFFFFFFFFFFFFFFFFFF MUL NOT AND SWAP1 DUP4 PUSH20 0xFFFFFFFFFFFFFFFFFFFFFFFFFFFFFFFFFFFFFFFF AND MUL OR SWAP1 SSTORE POP POP POP JUMP JUMPDEST PUSH2 0x88A PUSH2 0x5A3 JUMP JUMPDEST CALLVALUE PUSH1 0x1 PUSH1 0x0 DUP3 DUP3 SLOAD PUSH2 0x89C SWAP2 SWAP1 PUSH2 0x10B2 JUMP JUMPDEST SWAP3 POP POP DUP2 SWAP1 SSTORE POP PUSH2 0x8AC CALLER PUSH2 0x731 JUMP JUMPDEST JUMP JUMPDEST JUMP JUMPDEST PUSH1 0x2 PUSH1 0x20 MSTORE DUP1 PUSH1 0x0 MSTORE PUSH1 0x40 PUSH1 0x0 KECCAK256 PUSH1 0x0 SWAP2 POP SLOAD SWAP1 PUSH2 0x100 EXP SWAP1 DIV PUSH1 0xFF AND DUP2 JUMP JUMPDEST PUSH1 0x60 PUSH1 0x0 DUP3 SUB PUSH2 0x917 JUMPI PUSH1 0x40 MLOAD DUP1 PUSH1 0x40 ADD PUSH1 0x40 MSTORE DUP1 PUSH1 0x1 DUP2 MSTORE PUSH1 0x20 ADD PUSH32 0x3000000000000000000000000000000000000000000000000000000000000000 DUP2 MSTORE POP SWAP1 POP PUSH2 0xA2B JUMP JUMPDEST PUSH1 0x0 DUP3 SWAP1 POP PUSH1 0x0 JUMPDEST PUSH1 0x0 DUP3 EQ PUSH2 0x949 JUMPI DUP1 DUP1 PUSH2 0x932 SWAP1 PUSH2 0x10E6 JUMP JUMPDEST SWAP2 POP POP PUSH1 0xA DUP3 PUSH2 0x942 SWAP2 SWAP1 PUSH2 0xD36 JUMP JUMPDEST SWAP2 POP PUSH2 0x91F JUMP JUMPDEST PUSH1 0x0 DUP2 PUSH8 0xFFFFFFFFFFFFFFFF DUP2 GT ISZERO PUSH2 0x965 JUMPI PUSH2 0x964 PUSH2 0x112E JUMP JUMPDEST JUMPDEST PUSH1 0x40 MLOAD SWAP1 DUP1 DUP3 MSTORE DUP1 PUSH1 0x1F ADD PUSH1 0x1F NOT AND PUSH1 0x20 ADD DUP3 ADD PUSH1 0x40 MSTORE DUP1 ISZERO PUSH2 0x997 JUMPI DUP2 PUSH1 0x20 ADD PUSH1 0x1 DUP3 MUL DUP1 CALLDATASIZE DUP4 CALLDATACOPY DUP1 DUP3 ADD SWAP2 POP POP SWAP1 POP JUMPDEST POP SWAP1 POP JUMPDEST PUSH1 0x0 DUP6 EQ PUSH2 0xA24 JUMPI PUSH1 0x1 DUP3 PUSH2 0x9B0 SWAP2 SWAP1 PUSH2 0xD67 JUMP JUMPDEST SWAP2 POP PUSH1 0xA DUP6 PUSH2 0x9BF SWAP2 SWAP1 PUSH2 0xC94 JUMP JUMPDEST PUSH1 0x30 PUSH2 0x9CB SWAP2 SWAP1 PUSH2 0x10B2 JUMP JUMPDEST PUSH1 0xF8 SHL DUP2 DUP4 DUP2 MLOAD DUP2 LT PUSH2 0x9E1 JUMPI PUSH2 0x9E0 PUSH2 0xFF1 JUMP JUMPDEST JUMPDEST PUSH1 0x20 ADD ADD SWAP1 PUSH31 0xFFFFFFFFFFFFFFFFFFFFFFFFFFFFFFFFFFFFFFFFFFFFFFFFFFFFFFFFFFFFFF NOT AND SWAP1 DUP2 PUSH1 0x0 BYTE SWAP1 MSTORE8 POP PUSH1 0xA DUP6 PUSH2 0xA1D SWAP2 SWAP1 PUSH2 0xD36 JUMP JUMPDEST SWAP5 POP PUSH2 0x99B JUMP JUMPDEST DUP1 SWAP4 POP POP POP POP JUMPDEST SWAP2 SWAP1 POP JUMP JUMPDEST PUSH1 0x0 DUP2 SWAP1 POP SWAP2 SWAP1 POP JUMP JUMPDEST PUSH2 0xA43 DUP2 PUSH2 0xA30 JUMP JUMPDEST DUP3 MSTORE POP POP JUMP JUMPDEST PUSH1 0x0 PUSH1 0x20 DUP3 ADD SWAP1 POP PUSH2 0xA5E PUSH1 0x0 DUP4 ADD DUP5 PUSH2 0xA3A JUMP JUMPDEST SWAP3 SWAP2 POP POP JUMP JUMPDEST PUSH1 0x0 DUP1 REVERT JUMPDEST PUSH2 0xA72 DUP2 PUSH2 0xA30 JUMP JUMPDEST DUP2 EQ PUSH2 0xA7D JUMPI PUSH1 0x0 DUP1 REVERT JUMPDEST POP JUMP JUMPDEST PUSH1 0x0 DUP2 CALLDATALOAD SWAP1 POP PUSH2 0xA8F DUP2 PUSH2 0xA69 JUMP JUMPDEST SWAP3 SWAP2 POP POP JUMP JUMPDEST PUSH1 0x0 PUSH1 0x20 DUP3 DUP5 SUB SLT ISZERO PUSH2 0xAAB JUMPI PUSH2 0xAAA PUSH2 0xA64 JUMP JUMPDEST JUMPDEST PUSH1 0x0 PUSH2 0xAB9 DUP5 DUP3 DUP6 ADD PUSH2 0xA80 JUMP JUMPDEST SWAP2 POP POP SWAP3 SWAP2 POP POP JUMP JUMPDEST PUSH1 0x0 PUSH20 0xFFFFFFFFFFFFFFFFFFFFFFFFFFFFFFFFFFFFFFFF DUP3 AND SWAP1 POP SWAP2 SWAP1 POP JUMP JUMPDEST PUSH1 0x0 PUSH2 0xAED DUP3 PUSH2 0xAC2 JUMP JUMPDEST SWAP1 POP SWAP2 SWAP1 POP JUMP JUMPDEST PUSH2 0xAFD DUP2 PUSH2 0xAE2 JUMP JUMPDEST DUP3 MSTORE POP POP JUMP JUMPDEST PUSH1 0x0 PUSH1 0x20 DUP3 ADD SWAP1 POP PUSH2 0xB18 PUSH1 0x0 DUP4 ADD DUP5 PUSH2 0xAF4 JUMP JUMPDEST SWAP3 SWAP2 POP POP JUMP JUMPDEST PUSH2 0xB27 DUP2 PUSH2 0xAE2 JUMP JUMPDEST DUP2 EQ PUSH2 0xB32 JUMPI PUSH1 0x0 DUP1 REVERT JUMPDEST POP JUMP JUMPDEST PUSH1 0x0 DUP2 CALLDATALOAD SWAP1 POP PUSH2 0xB44 DUP2 PUSH2 0xB1E JUMP JUMPDEST SWAP3 SWAP2 POP POP JUMP JUMPDEST PUSH1 0x0 PUSH1 0x20 DUP3 DUP5 SUB SLT ISZERO PUSH2 0xB60 JUMPI PUSH2 0xB5F PUSH2 0xA64 JUMP JUMPDEST JUMPDEST PUSH1 0x0 PUSH2 0xB6E DUP5 DUP3 DUP6 ADD PUSH2 0xB35 JUMP JUMPDEST SWAP2 POP POP SWAP3 SWAP2 POP POP JUMP JUMPDEST PUSH1 0x0 DUP2 ISZERO ISZERO SWAP1 POP SWAP2 SWAP1 POP JUMP JUMPDEST PUSH2 0xB8C DUP2 PUSH2 0xB77 JUMP JUMPDEST DUP3 MSTORE POP POP JUMP JUMPDEST PUSH1 0x0 PUSH1 0x20 DUP3 ADD SWAP1 POP PUSH2 0xBA7 PUSH1 0x0 DUP4 ADD DUP5 PUSH2 0xB83 JUMP JUMPDEST SWAP3 SWAP2 POP POP JUMP JUMPDEST PUSH1 0x0 PUSH2 0xBB8 DUP3 PUSH2 0xAC2 JUMP JUMPDEST SWAP1 POP SWAP2 SWAP1 POP JUMP JUMPDEST PUSH2 0xBC8 DUP2 PUSH2 0xBAD JUMP JUMPDEST DUP2 EQ PUSH2 0xBD3 JUMPI PUSH1 0x0 DUP1 REVERT JUMPDEST POP JUMP JUMPDEST PUSH1 0x0 DUP2 CALLDATALOAD SWAP1 POP PUSH2 0xBE5 DUP2 PUSH2 0xBBF JUMP JUMPDEST SWAP3 SWAP2 POP POP JUMP JUMPDEST PUSH1 0x0 PUSH1 0x20 DUP3 DUP5 SUB SLT ISZERO PUSH2 0xC01 JUMPI PUSH2 0xC00 PUSH2 0xA64 JUMP JUMPDEST JUMPDEST PUSH1 0x0 PUSH2 0xC0F DUP5 DUP3 DUP6 ADD PUSH2 0xBD6 JUMP JUMPDEST SWAP2 POP POP SWAP3 SWAP2 POP POP JUMP JUMPDEST PUSH1 0x0 DUP2 SWAP1 POP SWAP2 SWAP1 POP JUMP JUMPDEST PUSH2 0xC33 PUSH2 0xC2E DUP3 PUSH2 0xA30 JUMP JUMPDEST PUSH2 0xC18 JUMP JUMPDEST DUP3 MSTORE POP POP JUMP JUMPDEST PUSH1 0x0 PUSH2 0xC45 DUP3 DUP6 PUSH2 0xC22 JUMP JUMPDEST PUSH1 0x20 DUP3 ADD SWAP2 POP PUSH2 0xC55 DUP3 DUP5 PUSH2 0xC22 JUMP JUMPDEST PUSH1 0x20 DUP3 ADD SWAP2 POP DUP2 SWAP1 POP SWAP4 SWAP3 POP POP POP JUMP JUMPDEST PUSH32 0x4E487B7100000000000000000000000000000000000000000000000000000000 PUSH1 0x0 MSTORE PUSH1 0x12 PUSH1 0x4 MSTORE PUSH1 0x24 PUSH1 0x0 REVERT JUMPDEST PUSH1 0x0 PUSH2 0xC9F DUP3 PUSH2 0xA30 JUMP JUMPDEST SWAP2 POP PUSH2 0xCAA DUP4 PUSH2 0xA30 JUMP JUMPDEST SWAP3 POP DUP3 PUSH2 0xCBA JUMPI PUSH2 0xCB9 PUSH2 0xC65 JUMP JUMPDEST JUMPDEST DUP3 DUP3 MOD SWAP1 POP SWAP3 SWAP2 POP POP JUMP JUMPDEST PUSH32 0x4E487B7100000000000000000000000000000000000000000000000000000000 PUSH1 0x0 MSTORE PUSH1 0x11 PUSH1 0x4 MSTORE PUSH1 0x24 PUSH1 0x0 REVERT JUMPDEST PUSH1 0x0 PUSH2 0xCFF DUP3 PUSH2 0xA30 JUMP JUMPDEST SWAP2 POP PUSH2 0xD0A DUP4 PUSH2 0xA30 JUMP JUMPDEST SWAP3 POP DUP3 DUP3 MUL PUSH2 0xD18 DUP2 PUSH2 0xA30 JUMP JUMPDEST SWAP2 POP DUP3 DUP3 DIV DUP5 EQ DUP4 ISZERO OR PUSH2 0xD2F JUMPI PUSH2 0xD2E PUSH2 0xCC5 JUMP JUMPDEST JUMPDEST POP SWAP3 SWAP2 POP POP JUMP JUMPDEST PUSH1 0x0 PUSH2 0xD41 DUP3 PUSH2 0xA30 JUMP JUMPDEST SWAP2 POP PUSH2 0xD4C DUP4 PUSH2 0xA30 JUMP JUMPDEST SWAP3 POP DUP3 PUSH2 0xD5C JUMPI PUSH2 0xD5B PUSH2 0xC65 JUMP JUMPDEST JUMPDEST DUP3 DUP3 DIV SWAP1 POP SWAP3 SWAP2 POP POP JUMP JUMPDEST PUSH1 0x0 PUSH2 0xD72 DUP3 PUSH2 0xA30 JUMP JUMPDEST SWAP2 POP PUSH2 0xD7D DUP4 PUSH2 0xA30 JUMP JUMPDEST SWAP3 POP DUP3 DUP3 SUB SWAP1 POP DUP2 DUP2 GT ISZERO PUSH2 0xD95 JUMPI PUSH2 0xD94 PUSH2 0xCC5 JUMP JUMPDEST JUMPDEST SWAP3 SWAP2 POP POP JUMP JUMPDEST PUSH32 0x54686520616D6F756E7420000000000000000000000000000000000000000000 DUP2 MSTORE POP JUMP JUMPDEST PUSH1 0x0 DUP2 MLOAD SWAP1 POP SWAP2 SWAP1 POP JUMP JUMPDEST PUSH1 0x0 DUP2 SWAP1 POP SWAP3 SWAP2 POP POP JUMP JUMPDEST PUSH1 0x0 JUMPDEST DUP4 DUP2 LT ISZERO PUSH2 0xDF5 JUMPI DUP1 DUP3 ADD MLOAD DUP2 DUP5 ADD MSTORE PUSH1 0x20 DUP2 ADD SWAP1 POP PUSH2 0xDDA JUMP JUMPDEST PUSH1 0x0 DUP5 DUP5 ADD MSTORE POP POP POP POP JUMP JUMPDEST PUSH1 0x0 PUSH2 0xE0C DUP3 PUSH2 0xDC1 JUMP JUMPDEST PUSH2 0xE16 DUP2 DUP6 PUSH2 0xDCC JUMP JUMPDEST SWAP4 POP PUSH2 0xE26 DUP2 DUP6 PUSH1 0x20 DUP7 ADD PUSH2 0xDD7 JUMP JUMPDEST DUP1 DUP5 ADD SWAP2 POP POP SWAP3 SWAP2 POP POP JUMP JUMPDEST PUSH32 0x2069732067726561746572207468616E2074686520636F6E7472616374206261 PUSH1 0x0 DUP3 ADD MSTORE PUSH32 0x6C616E6365200000000000000000000000000000000000000000000000000000 PUSH1 0x20 DUP3 ADD MSTORE POP JUMP JUMPDEST PUSH1 0x0 PUSH2 0xE8E PUSH1 0x26 DUP4 PUSH2 0xDCC JUMP JUMPDEST SWAP2 POP PUSH2 0xE99 DUP3 PUSH2 0xE32 JUMP JUMPDEST PUSH1 0x26 DUP3 ADD SWAP1 POP SWAP2 SWAP1 POP JUMP JUMPDEST PUSH1 0x0 PUSH2 0xEAF DUP3 PUSH2 0xD9B JUMP JUMPDEST PUSH1 0xB DUP3 ADD SWAP2 POP PUSH2 0xEBF DUP3 DUP6 PUSH2 0xE01 JUMP JUMPDEST SWAP2 POP PUSH2 0xECA DUP3 PUSH2 0xE81 JUMP JUMPDEST SWAP2 POP PUSH2 0xED6 DUP3 DUP5 PUSH2 0xE01 JUMP JUMPDEST SWAP2 POP DUP2 SWAP1 POP SWAP4 SWAP3 POP POP POP JUMP JUMPDEST PUSH1 0x0 DUP3 DUP3 MSTORE PUSH1 0x20 DUP3 ADD SWAP1 POP SWAP3 SWAP2 POP POP JUMP JUMPDEST PUSH1 0x0 PUSH1 0x1F NOT PUSH1 0x1F DUP4 ADD AND SWAP1 POP SWAP2 SWAP1 POP JUMP JUMPDEST PUSH1 0x0 PUSH2 0xF0F DUP3 PUSH2 0xDC1 JUMP JUMPDEST PUSH2 0xF19 DUP2 DUP6 PUSH2 0xEE2 JUMP JUMPDEST SWAP4 POP PUSH2 0xF29 DUP2 DUP6 PUSH1 0x20 DUP7 ADD PUSH2 0xDD7 JUMP JUMPDEST PUSH2 0xF32 DUP2 PUSH2 0xEF3 JUMP JUMPDEST DUP5 ADD SWAP2 POP POP SWAP3 SWAP2 POP POP JUMP JUMPDEST PUSH1 0x0 PUSH1 0x20 DUP3 ADD SWAP1 POP DUP2 DUP2 SUB PUSH1 0x0 DUP4 ADD MSTORE PUSH2 0xF57 DUP2 DUP5 PUSH2 0xF04 JUMP JUMPDEST SWAP1 POP SWAP3 SWAP2 POP POP JUMP JUMPDEST PUSH32 0x5468697320636F6E74726163742069732063757272656E746C79206469736162 PUSH1 0x0 DUP3 ADD MSTORE PUSH32 0x6C65642E00000000000000000000000000000000000000000000000000000000 PUSH1 0x20 DUP3 ADD MSTORE POP JUMP JUMPDEST PUSH1 0x0 PUSH2 0xFBB PUSH1 0x24 DUP4 PUSH2 0xEE2 JUMP JUMPDEST SWAP2 POP PUSH2 0xFC6 DUP3 PUSH2 0xF5F JUMP JUMPDEST PUSH1 0x40 DUP3 ADD SWAP1 POP SWAP2 SWAP1 POP JUMP JUMPDEST PUSH1 0x0 PUSH1 0x20 DUP3 ADD SWAP1 POP DUP2 DUP2 SUB PUSH1 0x0 DUP4 ADD MSTORE PUSH2 0xFEA DUP2 PUSH2 0xFAE JUMP JUMPDEST SWAP1 POP SWAP2 SWAP1 POP JUMP JUMPDEST PUSH32 0x4E487B7100000000000000000000000000000000000000000000000000000000 PUSH1 0x0 MSTORE PUSH1 0x32 PUSH1 0x4 MSTORE PUSH1 0x24 PUSH1 0x0 REVERT JUMPDEST PUSH32 0x5468697320616464726573732068617320616C726561647920656E7465726564 PUSH1 0x0 DUP3 ADD MSTORE PUSH32 0x20746865206C6F74746572792E00000000000000000000000000000000000000 PUSH1 0x20 DUP3 ADD MSTORE POP JUMP JUMPDEST PUSH1 0x0 PUSH2 0x107C PUSH1 0x2D DUP4 PUSH2 0xEE2 JUMP JUMPDEST SWAP2 POP PUSH2 0x1087 DUP3 PUSH2 0x1020 JUMP JUMPDEST PUSH1 0x40 DUP3 ADD SWAP1 POP SWAP2 SWAP1 POP JUMP JUMPDEST PUSH1 0x0 PUSH1 0x20 DUP3 ADD SWAP1 POP DUP2 DUP2 SUB PUSH1 0x0 DUP4 ADD MSTORE PUSH2 0x10AB DUP2 PUSH2 0x106F JUMP JUMPDEST SWAP1 POP SWAP2 SWAP1 POP JUMP JUMPDEST PUSH1 0x0 PUSH2 0x10BD DUP3 PUSH2 0xA30 JUMP JUMPDEST SWAP2 POP PUSH2 0x10C8 DUP4 PUSH2 0xA30 JUMP JUMPDEST SWAP3 POP DUP3 DUP3 ADD SWAP1 POP DUP1 DUP3 GT ISZERO PUSH2 0x10E0 JUMPI PUSH2 0x10DF PUSH2 0xCC5 JUMP JUMPDEST JUMPDEST SWAP3 SWAP2 POP POP JUMP JUMPDEST PUSH1 0x0 PUSH2 0x10F1 DUP3 PUSH2 0xA30 JUMP JUMPDEST SWAP2 POP PUSH32 0xFFFFFFFFFFFFFFFFFFFFFFFFFFFFFFFFFFFFFFFFFFFFFFFFFFFFFFFFFFFFFFFF DUP3 SUB PUSH2 0x1123 JUMPI PUSH2 0x1122 PUSH2 0xCC5 JUMP JUMPDEST JUMPDEST PUSH1 0x1 DUP3 ADD SWAP1 POP SWAP2 SWAP1 POP JUMP JUMPDEST PUSH32 0x4E487B7100000000000000000000000000000000000000000000000000000000 PUSH1 0x0 MSTORE PUSH1 0x41 PUSH1 0x4 MSTORE PUSH1 0x24 PUSH1 0x0 REVERT INVALID LOG2 PUSH5 0x6970667358 0x22 SLT KECCAK256 0xC2 0xEC 0xBE PUSH31 0xD27885D6E4A1C668F85F196586AF10E899CEEB91ADA19F710F0AF2CC64736F PUSH13 0x63430008110033000000000000 "
				},
				"gasEstimates": {
					"creation": {
						"codeDepositCost": "899800",
						"executionCost": "25178",
						"totalCost": "924978"
					},
					"external": {
						"chooseWinningAddress()": "infinite",
						"disableContract()": "211",
						"enableContract()": "211",
						"endLottery()": "infinite",
						"fundContract()": "186",
						"fundLottery()": "infinite",
						"getBalance()": "363",
						"isAddressPlaying(address)": "2972",
						"list_playerAddress(uint256)": "4979",
						"map_isPlaying(address)": "2933",
						"randomInt(uint256)": "infinite",
						"registerAddress(address)": "75672",
						"requireContractEnabled()": "2690",
						"withdraw(uint256)": "infinite",
						"withdrawAll()": "infinite"
					}
				},
				"methodIdentifiers": {
					"chooseWinningAddress()": "7f798243",
					"disableContract()": "894ba833",
					"enableContract()": "367edd32",
					"endLottery()": "1593a8c7",
					"fundContract()": "bd097e21",
					"fundLottery()": "b5cc4539",
					"getBalance()": "12065fe0",
					"isAddressPlaying(address)": "912a90bb",
					"list_playerAddress(uint256)": "27dff143",
					"map_isPlaying(address)": "bff82dee",
					"randomInt(uint256)": "12845966",
					"registerAddress(address)": "a8a54008",
					"requireContractEnabled()": "3b4ad0e5",
					"withdraw(uint256)": "2e1a7d4d",
					"withdrawAll()": "853828b6"
				}
			},
			"storageLayout": {
				"storage": [
					{
						"astId": 231,
						"contract": "contracts/lottery.sol:Lottery",
						"label": "isContractEnabled",
						"offset": 0,
						"slot": "0",
						"type": "t_bool"
					},
					{
						"astId": 248,
						"contract": "contracts/lottery.sol:Lottery",
						"label": "totalPrize",
						"offset": 0,
						"slot": "1",
						"type": "t_uint256"
					},
					{
						"astId": 252,
						"contract": "contracts/lottery.sol:Lottery",
						"label": "map_isPlaying",
						"offset": 0,
						"slot": "2",
						"type": "t_mapping(t_address,t_bool)"
					},
					{
						"astId": 255,
						"contract": "contracts/lottery.sol:Lottery",
						"label": "list_playerAddress",
						"offset": 0,
						"slot": "3",
						"type": "t_array(t_address_payable)dyn_storage"
					}
				],
				"types": {
					"t_address": {
						"encoding": "inplace",
						"label": "address",
						"numberOfBytes": "20"
					},
					"t_address_payable": {
						"encoding": "inplace",
						"label": "address payable",
						"numberOfBytes": "20"
					},
					"t_array(t_address_payable)dyn_storage": {
						"base": "t_address_payable",
						"encoding": "dynamic_array",
						"label": "address payable[]",
						"numberOfBytes": "32"
					},
					"t_bool": {
						"encoding": "inplace",
						"label": "bool",
						"numberOfBytes": "1"
					},
					"t_mapping(t_address,t_bool)": {
						"encoding": "mapping",
						"key": "t_address",
						"label": "mapping(address => bool)",
						"numberOfBytes": "32",
						"value": "t_bool"
					},
					"t_uint256": {
						"encoding": "inplace",
						"label": "uint256",
						"numberOfBytes": "32"
					}
				}
			},
			"userdoc": {
				"kind": "user",
				"methods": {},
				"version": 1
			}
		}
	}
}