{
	"contracts/lottery.sol": {
		"Lottery": {
			"abi": [
				{
					"inputs": [],
					"name": "chooseWinningAddress",
					"outputs": [
						{
							"internalType": "address payable",
							"name": "",
							"type": "address"
						}
					],
					"stateMutability": "view",
					"type": "function"
				},
				{
					"inputs": [],
					"name": "endLottery",
					"outputs": [],
					"stateMutability": "view",
					"type": "function"
				},
				{
					"inputs": [],
					"name": "getBalance",
					"outputs": [
						{
							"internalType": "uint256",
							"name": "",
							"type": "uint256"
						}
					],
					"stateMutability": "view",
					"type": "function"
				},
				{
					"inputs": [
						{
							"internalType": "address payable",
							"name": "playerAddress",
							"type": "address"
						}
					],
					"name": "isAddressPlaying",
					"outputs": [
						{
							"internalType": "bool",
							"name": "",
							"type": "bool"
						}
					],
					"stateMutability": "view",
					"type": "function"
				},
				{
					"inputs": [
						{
							"internalType": "uint256",
							"name": "",
							"type": "uint256"
						}
					],
					"name": "list_playerAddress",
					"outputs": [
						{
							"internalType": "address payable",
							"name": "",
							"type": "address"
						}
					],
					"stateMutability": "view",
					"type": "function"
				},
				{
					"inputs": [
						{
							"internalType": "address",
							"name": "",
							"type": "address"
						}
					],
					"name": "map_isPlaying",
					"outputs": [
						{
							"internalType": "bool",
							"name": "",
							"type": "bool"
						}
					],
					"stateMutability": "view",
					"type": "function"
				},
				{
					"inputs": [
						{
							"internalType": "uint256",
							"name": "N",
							"type": "uint256"
						}
					],
					"name": "randomInt",
					"outputs": [
						{
							"internalType": "uint256",
							"name": "",
							"type": "uint256"
						}
					],
					"stateMutability": "view",
					"type": "function"
				},
				{
					"inputs": [
						{
							"internalType": "address payable",
							"name": "playerAddress",
							"type": "address"
						}
					],
					"name": "registerAddress",
					"outputs": [],
					"stateMutability": "nonpayable",
					"type": "function"
				},
				{
					"stateMutability": "payable",
					"type": "receive"
				}
			],
			"devdoc": {
				"custom:dev-run-script": "./scripts/deploy_with_ethers.ts",
				"details": "A blockchain lottery",
				"kind": "dev",
				"methods": {},
				"title": "Lottery",
				"version": 1
			},
			"evm": {
				"assembly": "    /* \"contracts/lottery.sol\":193:4072  contract Lottery {... */\n  mstore(0x40, 0x80)\n  callvalue\n  dup1\n  iszero\n  tag_1\n  jumpi\n  0x00\n  dup1\n  revert\ntag_1:\n  pop\n  dataSize(sub_0)\n  dup1\n  dataOffset(sub_0)\n  0x00\n  codecopy\n  0x00\n  return\nstop\n\nsub_0: assembly {\n        /* \"contracts/lottery.sol\":193:4072  contract Lottery {... */\n      mstore(0x40, 0x80)\n      jumpi(tag_1, lt(calldatasize, 0x04))\n      shr(0xe0, calldataload(0x00))\n      dup1\n      0x7f798243\n      gt\n      tag_11\n      jumpi\n      dup1\n      0x7f798243\n      eq\n      tag_7\n      jumpi\n      dup1\n      0x912a90bb\n      eq\n      tag_8\n      jumpi\n      dup1\n      0xa8a54008\n      eq\n      tag_9\n      jumpi\n      dup1\n      0xbff82dee\n      eq\n      tag_10\n      jumpi\n      jump(tag_2)\n    tag_11:\n      dup1\n      0x12065fe0\n      eq\n      tag_3\n      jumpi\n      dup1\n      0x12845966\n      eq\n      tag_4\n      jumpi\n      dup1\n      0x1593a8c7\n      eq\n      tag_5\n      jumpi\n      dup1\n      0x27dff143\n      eq\n      tag_6\n      jumpi\n      jump(tag_2)\n    tag_1:\n      jumpi(tag_2, calldatasize)\n        /* \"contracts/lottery.sol\":844:880  registerAddress(payable(msg.sender)) */\n      tag_14\n        /* \"contracts/lottery.sol\":868:878  msg.sender */\n      caller\n        /* \"contracts/lottery.sol\":844:859  registerAddress */\n      tag_15\n        /* \"contracts/lottery.sol\":844:880  registerAddress(payable(msg.sender)) */\n      jump\t// in\n    tag_14:\n        /* \"contracts/lottery.sol\":193:4072  contract Lottery {... */\n      stop\n    tag_2:\n      0x00\n      dup1\n      revert\n        /* \"contracts/lottery.sol\":2837:2936  function getBalance() public view returns (uint256) {... */\n    tag_3:\n      callvalue\n      dup1\n      iszero\n      tag_16\n      jumpi\n      0x00\n      dup1\n      revert\n    tag_16:\n      pop\n      tag_17\n      tag_18\n      jump\t// in\n    tag_17:\n      mload(0x40)\n      tag_19\n      swap2\n      swap1\n      tag_20\n      jump\t// in\n    tag_19:\n      mload(0x40)\n      dup1\n      swap2\n      sub\n      swap1\n      return\n        /* \"contracts/lottery.sol\":2944:3185  function randomInt(uint N) public view returns (uint) {... */\n    tag_4:\n      callvalue\n      dup1\n      iszero\n      tag_21\n      jumpi\n      0x00\n      dup1\n      revert\n    tag_21:\n      pop\n      tag_22\n      0x04\n      dup1\n      calldatasize\n      sub\n      dup2\n      add\n      swap1\n      tag_23\n      swap2\n      swap1\n      tag_24\n      jump\t// in\n    tag_23:\n      tag_25\n      jump\t// in\n    tag_22:\n      mload(0x40)\n      tag_26\n      swap2\n      swap1\n      tag_20\n      jump\t// in\n    tag_26:\n      mload(0x40)\n      dup1\n      swap2\n      sub\n      swap1\n      return\n        /* \"contracts/lottery.sol\":2327:2829  function endLottery() public view {... */\n    tag_5:\n      callvalue\n      dup1\n      iszero\n      tag_27\n      jumpi\n      0x00\n      dup1\n      revert\n    tag_27:\n      pop\n      tag_28\n      tag_29\n      jump\t// in\n    tag_28:\n      stop\n        /* \"contracts/lottery.sol\":469:512  address payable[] public list_playerAddress */\n    tag_6:\n      callvalue\n      dup1\n      iszero\n      tag_30\n      jumpi\n      0x00\n      dup1\n      revert\n    tag_30:\n      pop\n      tag_31\n      0x04\n      dup1\n      calldatasize\n      sub\n      dup2\n      add\n      swap1\n      tag_32\n      swap2\n      swap1\n      tag_24\n      jump\t// in\n    tag_32:\n      tag_33\n      jump\t// in\n    tag_31:\n      mload(0x40)\n      tag_34\n      swap2\n      swap1\n      tag_35\n      jump\t// in\n    tag_34:\n      mload(0x40)\n      dup1\n      swap2\n      sub\n      swap1\n      return\n        /* \"contracts/lottery.sol\":1524:2319  function chooseWinningAddress() public view returns (address payable) {... */\n    tag_7:\n      callvalue\n      dup1\n      iszero\n      tag_36\n      jumpi\n      0x00\n      dup1\n      revert\n    tag_36:\n      pop\n      tag_37\n      tag_38\n      jump\t// in\n    tag_37:\n      mload(0x40)\n      tag_39\n      swap2\n      swap1\n      tag_35\n      jump\t// in\n    tag_39:\n      mload(0x40)\n      dup1\n      swap2\n      sub\n      swap1\n      return\n        /* \"contracts/lottery.sol\":1378:1516  function isAddressPlaying(address payable playerAddress) public view returns (bool) {... */\n    tag_8:\n      callvalue\n      dup1\n      iszero\n      tag_40\n      jumpi\n      0x00\n      dup1\n      revert\n    tag_40:\n      pop\n      tag_41\n      0x04\n      dup1\n      calldatasize\n      sub\n      dup2\n      add\n      swap1\n      tag_42\n      swap2\n      swap1\n      tag_43\n      jump\t// in\n    tag_42:\n      tag_44\n      jump\t// in\n    tag_41:\n      mload(0x40)\n      tag_45\n      swap2\n      swap1\n      tag_46\n      jump\t// in\n    tag_45:\n      mload(0x40)\n      dup1\n      swap2\n      sub\n      swap1\n      return\n        /* \"contracts/lottery.sol\":896:1366  function registerAddress(address payable playerAddress) public {... */\n    tag_9:\n      callvalue\n      dup1\n      iszero\n      tag_47\n      jumpi\n      0x00\n      dup1\n      revert\n    tag_47:\n      pop\n      tag_48\n      0x04\n      dup1\n      calldatasize\n      sub\n      dup2\n      add\n      swap1\n      tag_49\n      swap2\n      swap1\n      tag_43\n      jump\t// in\n    tag_49:\n      tag_15\n      jump\t// in\n    tag_48:\n      stop\n        /* \"contracts/lottery.sol\":417:462  mapping(address => bool) public map_isPlaying */\n    tag_10:\n      callvalue\n      dup1\n      iszero\n      tag_50\n      jumpi\n      0x00\n      dup1\n      revert\n    tag_50:\n      pop\n      tag_51\n      0x04\n      dup1\n      calldatasize\n      sub\n      dup2\n      add\n      swap1\n      tag_52\n      swap2\n      swap1\n      tag_53\n      jump\t// in\n    tag_52:\n      tag_54\n      jump\t// in\n    tag_51:\n      mload(0x40)\n      tag_55\n      swap2\n      swap1\n      tag_46\n      jump\t// in\n    tag_55:\n      mload(0x40)\n      dup1\n      swap2\n      sub\n      swap1\n      return\n        /* \"contracts/lottery.sol\":896:1366  function registerAddress(address payable playerAddress) public {... */\n    tag_15:\n        /* \"contracts/lottery.sol\":1075:1089  bool isPlaying */\n      0x00\n        /* \"contracts/lottery.sol\":1092:1105  map_isPlaying */\n      dup1\n        /* \"contracts/lottery.sol\":1092:1120  map_isPlaying[playerAddress] */\n      0x00\n        /* \"contracts/lottery.sol\":1106:1119  playerAddress */\n      dup4\n        /* \"contracts/lottery.sol\":1092:1120  map_isPlaying[playerAddress] */\n      0xffffffffffffffffffffffffffffffffffffffff\n      and\n      0xffffffffffffffffffffffffffffffffffffffff\n      and\n      dup2\n      mstore\n      0x20\n      add\n      swap1\n      dup2\n      mstore\n      0x20\n      add\n      0x00\n      keccak256\n      0x00\n      swap1\n      sload\n      swap1\n      0x0100\n      exp\n      swap1\n      div\n      0xff\n      and\n        /* \"contracts/lottery.sol\":1075:1120  bool isPlaying = map_isPlaying[playerAddress] */\n      swap1\n      pop\n        /* \"contracts/lottery.sol\":1140:1149  isPlaying */\n      dup1\n        /* \"contracts/lottery.sol\":1139:1149  !isPlaying */\n      iszero\n        /* \"contracts/lottery.sol\":1131:1199  require(!isPlaying, \"This address has already entered the lottery.\") */\n      tag_57\n      jumpi\n      mload(0x40)\n      0x08c379a000000000000000000000000000000000000000000000000000000000\n      dup2\n      mstore\n      0x04\n      add\n      tag_58\n      swap1\n      tag_59\n      jump\t// in\n    tag_58:\n      mload(0x40)\n      dup1\n      swap2\n      sub\n      swap1\n      revert\n    tag_57:\n        /* \"contracts/lottery.sol\":1305:1309  true */\n      0x01\n        /* \"contracts/lottery.sol\":1274:1287  map_isPlaying */\n      0x00\n        /* \"contracts/lottery.sol\":1274:1302  map_isPlaying[playerAddress] */\n      dup1\n        /* \"contracts/lottery.sol\":1288:1301  playerAddress */\n      dup5\n        /* \"contracts/lottery.sol\":1274:1302  map_isPlaying[playerAddress] */\n      0xffffffffffffffffffffffffffffffffffffffff\n      and\n      0xffffffffffffffffffffffffffffffffffffffff\n      and\n      dup2\n      mstore\n      0x20\n      add\n      swap1\n      dup2\n      mstore\n      0x20\n      add\n      0x00\n      keccak256\n      0x00\n        /* \"contracts/lottery.sol\":1274:1309  map_isPlaying[playerAddress] = true */\n      0x0100\n      exp\n      dup2\n      sload\n      dup2\n      0xff\n      mul\n      not\n      and\n      swap1\n      dup4\n      iszero\n      iszero\n      mul\n      or\n      swap1\n      sstore\n      pop\n        /* \"contracts/lottery.sol\":1320:1338  list_playerAddress */\n      0x01\n        /* \"contracts/lottery.sol\":1344:1357  playerAddress */\n      dup3\n        /* \"contracts/lottery.sol\":1320:1358  list_playerAddress.push(playerAddress) */\n      swap1\n      dup1\n      0x01\n      dup2\n      sload\n      add\n      dup1\n      dup3\n      sstore\n      dup1\n      swap2\n      pop\n      pop\n      0x01\n      swap1\n      sub\n      swap1\n      0x00\n      mstore\n      keccak256(0x00, 0x20)\n      add\n      0x00\n      swap1\n      swap2\n      swap1\n      swap2\n      swap1\n      swap2\n      0x0100\n      exp\n      dup2\n      sload\n      dup2\n      0xffffffffffffffffffffffffffffffffffffffff\n      mul\n      not\n      and\n      swap1\n      dup4\n      0xffffffffffffffffffffffffffffffffffffffff\n      and\n      mul\n      or\n      swap1\n      sstore\n      pop\n        /* \"contracts/lottery.sol\":959:1366  {... */\n      pop\n        /* \"contracts/lottery.sol\":896:1366  function registerAddress(address payable playerAddress) public {... */\n      pop\n      jump\t// out\n        /* \"contracts/lottery.sol\":2837:2936  function getBalance() public view returns (uint256) {... */\n    tag_18:\n        /* \"contracts/lottery.sol\":2880:2887  uint256 */\n      0x00\n        /* \"contracts/lottery.sol\":2907:2928  address(this).balance */\n      selfbalance\n        /* \"contracts/lottery.sol\":2900:2928  return address(this).balance */\n      swap1\n      pop\n        /* \"contracts/lottery.sol\":2837:2936  function getBalance() public view returns (uint256) {... */\n      swap1\n      jump\t// out\n        /* \"contracts/lottery.sol\":2944:3185  function randomInt(uint N) public view returns (uint) {... */\n    tag_25:\n        /* \"contracts/lottery.sol\":2992:2996  uint */\n      0x00\n        /* \"contracts/lottery.sol\":3059:3074  uint randomHash */\n      dup1\n        /* \"contracts/lottery.sol\":3109:3125  block.difficulty */\n      difficulty\n        /* \"contracts/lottery.sol\":3127:3142  block.timestamp */\n      timestamp\n        /* \"contracts/lottery.sol\":3092:3143  abi.encodePacked(block.difficulty, block.timestamp) */\n      add(0x20, mload(0x40))\n      tag_63\n      swap3\n      swap2\n      swap1\n      tag_64\n      jump\t// in\n    tag_63:\n      mload(0x40)\n      0x20\n      dup2\n      dup4\n      sub\n      sub\n      dup2\n      mstore\n      swap1\n      0x40\n      mstore\n        /* \"contracts/lottery.sol\":3082:3144  keccak256(abi.encodePacked(block.difficulty, block.timestamp)) */\n      dup1\n      mload\n      swap1\n      0x20\n      add\n      keccak256\n        /* \"contracts/lottery.sol\":3077:3145  uint(keccak256(abi.encodePacked(block.difficulty, block.timestamp))) */\n      0x00\n      shr\n        /* \"contracts/lottery.sol\":3059:3145  uint randomHash = uint(keccak256(abi.encodePacked(block.difficulty, block.timestamp))) */\n      swap1\n      pop\n        /* \"contracts/lottery.sol\":3176:3177  N */\n      dup3\n        /* \"contracts/lottery.sol\":3163:3173  randomHash */\n      dup2\n        /* \"contracts/lottery.sol\":3163:3177  randomHash % N */\n      tag_65\n      swap2\n      swap1\n      tag_66\n      jump\t// in\n    tag_65:\n        /* \"contracts/lottery.sol\":3156:3177  return randomHash % N */\n      swap2\n      pop\n      pop\n        /* \"contracts/lottery.sol\":2944:3185  function randomInt(uint N) public view returns (uint) {... */\n      swap2\n      swap1\n      pop\n      jump\t// out\n        /* \"contracts/lottery.sol\":2327:2829  function endLottery() public view {... */\n    tag_29:\n        /* \"contracts/lottery.sol\":2372:2402  address payable winningAddress */\n      0x00\n        /* \"contracts/lottery.sol\":2405:2427  chooseWinningAddress() */\n      tag_68\n        /* \"contracts/lottery.sol\":2405:2425  chooseWinningAddress */\n      tag_38\n        /* \"contracts/lottery.sol\":2405:2427  chooseWinningAddress() */\n      jump\t// in\n    tag_68:\n        /* \"contracts/lottery.sol\":2372:2427  address payable winningAddress = chooseWinningAddress() */\n      swap1\n      pop\n        /* \"contracts/lottery.sol\":2361:2829  {... */\n      pop\n        /* \"contracts/lottery.sol\":2327:2829  function endLottery() public view {... */\n      jump\t// out\n        /* \"contracts/lottery.sol\":469:512  address payable[] public list_playerAddress */\n    tag_33:\n      0x01\n      dup2\n      dup2\n      sload\n      dup2\n      lt\n      tag_71\n      jumpi\n      0x00\n      dup1\n      revert\n    tag_71:\n      swap1\n      0x00\n      mstore\n      keccak256(0x00, 0x20)\n      add\n      0x00\n      swap2\n      pop\n      sload\n      swap1\n      0x0100\n      exp\n      swap1\n      div\n      0xffffffffffffffffffffffffffffffffffffffff\n      and\n      dup2\n      jump\t// out\n        /* \"contracts/lottery.sol\":1524:2319  function chooseWinningAddress() public view returns (address payable) {... */\n    tag_38:\n        /* \"contracts/lottery.sol\":1577:1592  address payable */\n      0x00\n        /* \"contracts/lottery.sol\":1605:1620  uint numPlayers */\n      dup1\n        /* \"contracts/lottery.sol\":1623:1641  list_playerAddress */\n      0x01\n        /* \"contracts/lottery.sol\":1623:1648  list_playerAddress.length */\n      dup1\n      sload\n      swap1\n      pop\n        /* \"contracts/lottery.sol\":1605:1648  uint numPlayers = list_playerAddress.length */\n      swap1\n      pop\n        /* \"contracts/lottery.sol\":1659:1670  uint winner */\n      0x00\n        /* \"contracts/lottery.sol\":1779:1780  0 */\n      dup1\n        /* \"contracts/lottery.sol\":1765:1775  numPlayers */\n      dup3\n        /* \"contracts/lottery.sol\":1765:1780  numPlayers == 0 */\n      sub\n        /* \"contracts/lottery.sol\":1762:2266  if(numPlayers == 0) {... */\n      tag_74\n      jumpi\n        /* \"contracts/lottery.sol\":264:306  0x0000000000000000000000000000000000000000 */\n      0x00\n        /* \"contracts/lottery.sol\":1866:1884  return zeroAddress */\n      swap3\n      pop\n      pop\n      pop\n      jump(tag_73)\n        /* \"contracts/lottery.sol\":1762:2266  if(numPlayers == 0) {... */\n    tag_74:\n        /* \"contracts/lottery.sol\":1928:1929  1 */\n      0x01\n        /* \"contracts/lottery.sol\":1914:1924  numPlayers */\n      dup3\n        /* \"contracts/lottery.sol\":1914:1929  numPlayers == 1 */\n      sub\n        /* \"contracts/lottery.sol\":1911:2266  if(numPlayers == 1) {... */\n      tag_76\n      jumpi\n        /* \"contracts/lottery.sol\":2058:2059  0 */\n      0x00\n        /* \"contracts/lottery.sol\":2049:2059  winner = 0 */\n      swap1\n      pop\n        /* \"contracts/lottery.sol\":1911:2266  if(numPlayers == 1) {... */\n      jump(tag_77)\n    tag_76:\n        /* \"contracts/lottery.sol\":2233:2254  randomInt(numPlayers) */\n      tag_78\n        /* \"contracts/lottery.sol\":2243:2253  numPlayers */\n      dup3\n        /* \"contracts/lottery.sol\":2233:2242  randomInt */\n      tag_25\n        /* \"contracts/lottery.sol\":2233:2254  randomInt(numPlayers) */\n      jump\t// in\n    tag_78:\n        /* \"contracts/lottery.sol\":2224:2254  winner = randomInt(numPlayers) */\n      swap1\n      pop\n        /* \"contracts/lottery.sol\":1911:2266  if(numPlayers == 1) {... */\n    tag_77:\n        /* \"contracts/lottery.sol\":2285:2303  list_playerAddress */\n      0x01\n        /* \"contracts/lottery.sol\":2304:2310  winner */\n      dup2\n        /* \"contracts/lottery.sol\":2285:2311  list_playerAddress[winner] */\n      dup2\n      sload\n      dup2\n      lt\n      tag_79\n      jumpi\n      tag_80\n      tag_81\n      jump\t// in\n    tag_80:\n    tag_79:\n      swap1\n      0x00\n      mstore\n      keccak256(0x00, 0x20)\n      add\n      0x00\n      swap1\n      sload\n      swap1\n      0x0100\n      exp\n      swap1\n      div\n      0xffffffffffffffffffffffffffffffffffffffff\n      and\n        /* \"contracts/lottery.sol\":2278:2311  return list_playerAddress[winner] */\n      swap3\n      pop\n      pop\n      pop\n        /* \"contracts/lottery.sol\":1524:2319  function chooseWinningAddress() public view returns (address payable) {... */\n    tag_73:\n      swap1\n      jump\t// out\n        /* \"contracts/lottery.sol\":1378:1516  function isAddressPlaying(address payable playerAddress) public view returns (bool) {... */\n    tag_44:\n        /* \"contracts/lottery.sol\":1456:1460  bool */\n      0x00\n        /* \"contracts/lottery.sol\":1480:1493  map_isPlaying */\n      dup1\n        /* \"contracts/lottery.sol\":1480:1508  map_isPlaying[playerAddress] */\n      0x00\n        /* \"contracts/lottery.sol\":1494:1507  playerAddress */\n      dup4\n        /* \"contracts/lottery.sol\":1480:1508  map_isPlaying[playerAddress] */\n      0xffffffffffffffffffffffffffffffffffffffff\n      and\n      0xffffffffffffffffffffffffffffffffffffffff\n      and\n      dup2\n      mstore\n      0x20\n      add\n      swap1\n      dup2\n      mstore\n      0x20\n      add\n      0x00\n      keccak256\n      0x00\n      swap1\n      sload\n      swap1\n      0x0100\n      exp\n      swap1\n      div\n      0xff\n      and\n        /* \"contracts/lottery.sol\":1473:1508  return map_isPlaying[playerAddress] */\n      swap1\n      pop\n        /* \"contracts/lottery.sol\":1378:1516  function isAddressPlaying(address payable playerAddress) public view returns (bool) {... */\n      swap2\n      swap1\n      pop\n      jump\t// out\n        /* \"contracts/lottery.sol\":417:462  mapping(address => bool) public map_isPlaying */\n    tag_54:\n      mstore(0x20, 0x00)\n      dup1\n      0x00\n      mstore\n      keccak256(0x00, 0x40)\n      0x00\n      swap2\n      pop\n      sload\n      swap1\n      0x0100\n      exp\n      swap1\n      div\n      0xff\n      and\n      dup2\n      jump\t// out\n        /* \"#utility.yul\":7:84   */\n    tag_84:\n        /* \"#utility.yul\":44:51   */\n      0x00\n        /* \"#utility.yul\":73:78   */\n      dup2\n        /* \"#utility.yul\":62:78   */\n      swap1\n      pop\n        /* \"#utility.yul\":7:84   */\n      swap2\n      swap1\n      pop\n      jump\t// out\n        /* \"#utility.yul\":90:208   */\n    tag_85:\n        /* \"#utility.yul\":177:201   */\n      tag_110\n        /* \"#utility.yul\":195:200   */\n      dup2\n        /* \"#utility.yul\":177:201   */\n      tag_84\n      jump\t// in\n    tag_110:\n        /* \"#utility.yul\":172:175   */\n      dup3\n        /* \"#utility.yul\":165:202   */\n      mstore\n        /* \"#utility.yul\":90:208   */\n      pop\n      pop\n      jump\t// out\n        /* \"#utility.yul\":214:436   */\n    tag_20:\n        /* \"#utility.yul\":307:311   */\n      0x00\n        /* \"#utility.yul\":345:347   */\n      0x20\n        /* \"#utility.yul\":334:343   */\n      dup3\n        /* \"#utility.yul\":330:348   */\n      add\n        /* \"#utility.yul\":322:348   */\n      swap1\n      pop\n        /* \"#utility.yul\":358:429   */\n      tag_112\n        /* \"#utility.yul\":426:427   */\n      0x00\n        /* \"#utility.yul\":415:424   */\n      dup4\n        /* \"#utility.yul\":411:428   */\n      add\n        /* \"#utility.yul\":402:408   */\n      dup5\n        /* \"#utility.yul\":358:429   */\n      tag_85\n      jump\t// in\n    tag_112:\n        /* \"#utility.yul\":214:436   */\n      swap3\n      swap2\n      pop\n      pop\n      jump\t// out\n        /* \"#utility.yul\":523:640   */\n    tag_87:\n        /* \"#utility.yul\":632:633   */\n      0x00\n        /* \"#utility.yul\":629:630   */\n      dup1\n        /* \"#utility.yul\":622:634   */\n      revert\n        /* \"#utility.yul\":769:891   */\n    tag_89:\n        /* \"#utility.yul\":842:866   */\n      tag_117\n        /* \"#utility.yul\":860:865   */\n      dup2\n        /* \"#utility.yul\":842:866   */\n      tag_84\n      jump\t// in\n    tag_117:\n        /* \"#utility.yul\":835:840   */\n      dup2\n        /* \"#utility.yul\":832:867   */\n      eq\n        /* \"#utility.yul\":822:885   */\n      tag_118\n      jumpi\n        /* \"#utility.yul\":881:882   */\n      0x00\n        /* \"#utility.yul\":878:879   */\n      dup1\n        /* \"#utility.yul\":871:883   */\n      revert\n        /* \"#utility.yul\":822:885   */\n    tag_118:\n        /* \"#utility.yul\":769:891   */\n      pop\n      jump\t// out\n        /* \"#utility.yul\":897:1036   */\n    tag_90:\n        /* \"#utility.yul\":943:948   */\n      0x00\n        /* \"#utility.yul\":981:987   */\n      dup2\n        /* \"#utility.yul\":968:988   */\n      calldataload\n        /* \"#utility.yul\":959:988   */\n      swap1\n      pop\n        /* \"#utility.yul\":997:1030   */\n      tag_120\n        /* \"#utility.yul\":1024:1029   */\n      dup2\n        /* \"#utility.yul\":997:1030   */\n      tag_89\n      jump\t// in\n    tag_120:\n        /* \"#utility.yul\":897:1036   */\n      swap3\n      swap2\n      pop\n      pop\n      jump\t// out\n        /* \"#utility.yul\":1042:1371   */\n    tag_24:\n        /* \"#utility.yul\":1101:1107   */\n      0x00\n        /* \"#utility.yul\":1150:1152   */\n      0x20\n        /* \"#utility.yul\":1138:1147   */\n      dup3\n        /* \"#utility.yul\":1129:1136   */\n      dup5\n        /* \"#utility.yul\":1125:1148   */\n      sub\n        /* \"#utility.yul\":1121:1153   */\n      slt\n        /* \"#utility.yul\":1118:1237   */\n      iszero\n      tag_122\n      jumpi\n        /* \"#utility.yul\":1156:1235   */\n      tag_123\n      tag_87\n      jump\t// in\n    tag_123:\n        /* \"#utility.yul\":1118:1237   */\n    tag_122:\n        /* \"#utility.yul\":1276:1277   */\n      0x00\n        /* \"#utility.yul\":1301:1354   */\n      tag_124\n        /* \"#utility.yul\":1346:1353   */\n      dup5\n        /* \"#utility.yul\":1337:1343   */\n      dup3\n        /* \"#utility.yul\":1326:1335   */\n      dup6\n        /* \"#utility.yul\":1322:1344   */\n      add\n        /* \"#utility.yul\":1301:1354   */\n      tag_90\n      jump\t// in\n    tag_124:\n        /* \"#utility.yul\":1291:1354   */\n      swap2\n      pop\n        /* \"#utility.yul\":1247:1364   */\n      pop\n        /* \"#utility.yul\":1042:1371   */\n      swap3\n      swap2\n      pop\n      pop\n      jump\t// out\n        /* \"#utility.yul\":1377:1503   */\n    tag_91:\n        /* \"#utility.yul\":1414:1421   */\n      0x00\n        /* \"#utility.yul\":1454:1496   */\n      0xffffffffffffffffffffffffffffffffffffffff\n        /* \"#utility.yul\":1447:1452   */\n      dup3\n        /* \"#utility.yul\":1443:1497   */\n      and\n        /* \"#utility.yul\":1432:1497   */\n      swap1\n      pop\n        /* \"#utility.yul\":1377:1503   */\n      swap2\n      swap1\n      pop\n      jump\t// out\n        /* \"#utility.yul\":1509:1613   */\n    tag_92:\n        /* \"#utility.yul\":1554:1561   */\n      0x00\n        /* \"#utility.yul\":1583:1607   */\n      tag_127\n        /* \"#utility.yul\":1601:1606   */\n      dup3\n        /* \"#utility.yul\":1583:1607   */\n      tag_91\n      jump\t// in\n    tag_127:\n        /* \"#utility.yul\":1572:1607   */\n      swap1\n      pop\n        /* \"#utility.yul\":1509:1613   */\n      swap2\n      swap1\n      pop\n      jump\t// out\n        /* \"#utility.yul\":1619:1761   */\n    tag_93:\n        /* \"#utility.yul\":1722:1754   */\n      tag_129\n        /* \"#utility.yul\":1748:1753   */\n      dup2\n        /* \"#utility.yul\":1722:1754   */\n      tag_92\n      jump\t// in\n    tag_129:\n        /* \"#utility.yul\":1717:1720   */\n      dup3\n        /* \"#utility.yul\":1710:1755   */\n      mstore\n        /* \"#utility.yul\":1619:1761   */\n      pop\n      pop\n      jump\t// out\n        /* \"#utility.yul\":1767:2021   */\n    tag_35:\n        /* \"#utility.yul\":1876:1880   */\n      0x00\n        /* \"#utility.yul\":1914:1916   */\n      0x20\n        /* \"#utility.yul\":1903:1912   */\n      dup3\n        /* \"#utility.yul\":1899:1917   */\n      add\n        /* \"#utility.yul\":1891:1917   */\n      swap1\n      pop\n        /* \"#utility.yul\":1927:2014   */\n      tag_131\n        /* \"#utility.yul\":2011:2012   */\n      0x00\n        /* \"#utility.yul\":2000:2009   */\n      dup4\n        /* \"#utility.yul\":1996:2013   */\n      add\n        /* \"#utility.yul\":1987:1993   */\n      dup5\n        /* \"#utility.yul\":1927:2014   */\n      tag_93\n      jump\t// in\n    tag_131:\n        /* \"#utility.yul\":1767:2021   */\n      swap3\n      swap2\n      pop\n      pop\n      jump\t// out\n        /* \"#utility.yul\":2027:2165   */\n    tag_94:\n        /* \"#utility.yul\":2108:2140   */\n      tag_133\n        /* \"#utility.yul\":2134:2139   */\n      dup2\n        /* \"#utility.yul\":2108:2140   */\n      tag_92\n      jump\t// in\n    tag_133:\n        /* \"#utility.yul\":2101:2106   */\n      dup2\n        /* \"#utility.yul\":2098:2141   */\n      eq\n        /* \"#utility.yul\":2088:2159   */\n      tag_134\n      jumpi\n        /* \"#utility.yul\":2155:2156   */\n      0x00\n        /* \"#utility.yul\":2152:2153   */\n      dup1\n        /* \"#utility.yul\":2145:2157   */\n      revert\n        /* \"#utility.yul\":2088:2159   */\n    tag_134:\n        /* \"#utility.yul\":2027:2165   */\n      pop\n      jump\t// out\n        /* \"#utility.yul\":2171:2326   */\n    tag_95:\n        /* \"#utility.yul\":2225:2230   */\n      0x00\n        /* \"#utility.yul\":2263:2269   */\n      dup2\n        /* \"#utility.yul\":2250:2270   */\n      calldataload\n        /* \"#utility.yul\":2241:2270   */\n      swap1\n      pop\n        /* \"#utility.yul\":2279:2320   */\n      tag_136\n        /* \"#utility.yul\":2314:2319   */\n      dup2\n        /* \"#utility.yul\":2279:2320   */\n      tag_94\n      jump\t// in\n    tag_136:\n        /* \"#utility.yul\":2171:2326   */\n      swap3\n      swap2\n      pop\n      pop\n      jump\t// out\n        /* \"#utility.yul\":2332:2677   */\n    tag_43:\n        /* \"#utility.yul\":2399:2405   */\n      0x00\n        /* \"#utility.yul\":2448:2450   */\n      0x20\n        /* \"#utility.yul\":2436:2445   */\n      dup3\n        /* \"#utility.yul\":2427:2434   */\n      dup5\n        /* \"#utility.yul\":2423:2446   */\n      sub\n        /* \"#utility.yul\":2419:2451   */\n      slt\n        /* \"#utility.yul\":2416:2535   */\n      iszero\n      tag_138\n      jumpi\n        /* \"#utility.yul\":2454:2533   */\n      tag_139\n      tag_87\n      jump\t// in\n    tag_139:\n        /* \"#utility.yul\":2416:2535   */\n    tag_138:\n        /* \"#utility.yul\":2574:2575   */\n      0x00\n        /* \"#utility.yul\":2599:2660   */\n      tag_140\n        /* \"#utility.yul\":2652:2659   */\n      dup5\n        /* \"#utility.yul\":2643:2649   */\n      dup3\n        /* \"#utility.yul\":2632:2641   */\n      dup6\n        /* \"#utility.yul\":2628:2650   */\n      add\n        /* \"#utility.yul\":2599:2660   */\n      tag_95\n      jump\t// in\n    tag_140:\n        /* \"#utility.yul\":2589:2660   */\n      swap2\n      pop\n        /* \"#utility.yul\":2545:2670   */\n      pop\n        /* \"#utility.yul\":2332:2677   */\n      swap3\n      swap2\n      pop\n      pop\n      jump\t// out\n        /* \"#utility.yul\":2683:2773   */\n    tag_96:\n        /* \"#utility.yul\":2717:2724   */\n      0x00\n        /* \"#utility.yul\":2760:2765   */\n      dup2\n        /* \"#utility.yul\":2753:2766   */\n      iszero\n        /* \"#utility.yul\":2746:2767   */\n      iszero\n        /* \"#utility.yul\":2735:2767   */\n      swap1\n      pop\n        /* \"#utility.yul\":2683:2773   */\n      swap2\n      swap1\n      pop\n      jump\t// out\n        /* \"#utility.yul\":2779:2888   */\n    tag_97:\n        /* \"#utility.yul\":2860:2881   */\n      tag_143\n        /* \"#utility.yul\":2875:2880   */\n      dup2\n        /* \"#utility.yul\":2860:2881   */\n      tag_96\n      jump\t// in\n    tag_143:\n        /* \"#utility.yul\":2855:2858   */\n      dup3\n        /* \"#utility.yul\":2848:2882   */\n      mstore\n        /* \"#utility.yul\":2779:2888   */\n      pop\n      pop\n      jump\t// out\n        /* \"#utility.yul\":2894:3104   */\n    tag_46:\n        /* \"#utility.yul\":2981:2985   */\n      0x00\n        /* \"#utility.yul\":3019:3021   */\n      0x20\n        /* \"#utility.yul\":3008:3017   */\n      dup3\n        /* \"#utility.yul\":3004:3022   */\n      add\n        /* \"#utility.yul\":2996:3022   */\n      swap1\n      pop\n        /* \"#utility.yul\":3032:3097   */\n      tag_145\n        /* \"#utility.yul\":3094:3095   */\n      0x00\n        /* \"#utility.yul\":3083:3092   */\n      dup4\n        /* \"#utility.yul\":3079:3096   */\n      add\n        /* \"#utility.yul\":3070:3076   */\n      dup5\n        /* \"#utility.yul\":3032:3097   */\n      tag_97\n      jump\t// in\n    tag_145:\n        /* \"#utility.yul\":2894:3104   */\n      swap3\n      swap2\n      pop\n      pop\n      jump\t// out\n        /* \"#utility.yul\":3110:3206   */\n    tag_98:\n        /* \"#utility.yul\":3147:3154   */\n      0x00\n        /* \"#utility.yul\":3176:3200   */\n      tag_147\n        /* \"#utility.yul\":3194:3199   */\n      dup3\n        /* \"#utility.yul\":3176:3200   */\n      tag_91\n      jump\t// in\n    tag_147:\n        /* \"#utility.yul\":3165:3200   */\n      swap1\n      pop\n        /* \"#utility.yul\":3110:3206   */\n      swap2\n      swap1\n      pop\n      jump\t// out\n        /* \"#utility.yul\":3212:3334   */\n    tag_99:\n        /* \"#utility.yul\":3285:3309   */\n      tag_149\n        /* \"#utility.yul\":3303:3308   */\n      dup2\n        /* \"#utility.yul\":3285:3309   */\n      tag_98\n      jump\t// in\n    tag_149:\n        /* \"#utility.yul\":3278:3283   */\n      dup2\n        /* \"#utility.yul\":3275:3310   */\n      eq\n        /* \"#utility.yul\":3265:3328   */\n      tag_150\n      jumpi\n        /* \"#utility.yul\":3324:3325   */\n      0x00\n        /* \"#utility.yul\":3321:3322   */\n      dup1\n        /* \"#utility.yul\":3314:3326   */\n      revert\n        /* \"#utility.yul\":3265:3328   */\n    tag_150:\n        /* \"#utility.yul\":3212:3334   */\n      pop\n      jump\t// out\n        /* \"#utility.yul\":3340:3479   */\n    tag_100:\n        /* \"#utility.yul\":3386:3391   */\n      0x00\n        /* \"#utility.yul\":3424:3430   */\n      dup2\n        /* \"#utility.yul\":3411:3431   */\n      calldataload\n        /* \"#utility.yul\":3402:3431   */\n      swap1\n      pop\n        /* \"#utility.yul\":3440:3473   */\n      tag_152\n        /* \"#utility.yul\":3467:3472   */\n      dup2\n        /* \"#utility.yul\":3440:3473   */\n      tag_99\n      jump\t// in\n    tag_152:\n        /* \"#utility.yul\":3340:3479   */\n      swap3\n      swap2\n      pop\n      pop\n      jump\t// out\n        /* \"#utility.yul\":3485:3814   */\n    tag_53:\n        /* \"#utility.yul\":3544:3550   */\n      0x00\n        /* \"#utility.yul\":3593:3595   */\n      0x20\n        /* \"#utility.yul\":3581:3590   */\n      dup3\n        /* \"#utility.yul\":3572:3579   */\n      dup5\n        /* \"#utility.yul\":3568:3591   */\n      sub\n        /* \"#utility.yul\":3564:3596   */\n      slt\n        /* \"#utility.yul\":3561:3680   */\n      iszero\n      tag_154\n      jumpi\n        /* \"#utility.yul\":3599:3678   */\n      tag_155\n      tag_87\n      jump\t// in\n    tag_155:\n        /* \"#utility.yul\":3561:3680   */\n    tag_154:\n        /* \"#utility.yul\":3719:3720   */\n      0x00\n        /* \"#utility.yul\":3744:3797   */\n      tag_156\n        /* \"#utility.yul\":3789:3796   */\n      dup5\n        /* \"#utility.yul\":3780:3786   */\n      dup3\n        /* \"#utility.yul\":3769:3778   */\n      dup6\n        /* \"#utility.yul\":3765:3787   */\n      add\n        /* \"#utility.yul\":3744:3797   */\n      tag_100\n      jump\t// in\n    tag_156:\n        /* \"#utility.yul\":3734:3797   */\n      swap2\n      pop\n        /* \"#utility.yul\":3690:3807   */\n      pop\n        /* \"#utility.yul\":3485:3814   */\n      swap3\n      swap2\n      pop\n      pop\n      jump\t// out\n        /* \"#utility.yul\":3820:3989   */\n    tag_101:\n        /* \"#utility.yul\":3904:3915   */\n      0x00\n        /* \"#utility.yul\":3938:3944   */\n      dup3\n        /* \"#utility.yul\":3933:3936   */\n      dup3\n        /* \"#utility.yul\":3926:3945   */\n      mstore\n        /* \"#utility.yul\":3978:3982   */\n      0x20\n        /* \"#utility.yul\":3973:3976   */\n      dup3\n        /* \"#utility.yul\":3969:3983   */\n      add\n        /* \"#utility.yul\":3954:3983   */\n      swap1\n      pop\n        /* \"#utility.yul\":3820:3989   */\n      swap3\n      swap2\n      pop\n      pop\n      jump\t// out\n        /* \"#utility.yul\":3995:4227   */\n    tag_102:\n        /* \"#utility.yul\":4135:4169   */\n      0x5468697320616464726573732068617320616c726561647920656e7465726564\n        /* \"#utility.yul\":4131:4132   */\n      0x00\n        /* \"#utility.yul\":4123:4129   */\n      dup3\n        /* \"#utility.yul\":4119:4133   */\n      add\n        /* \"#utility.yul\":4112:4170   */\n      mstore\n        /* \"#utility.yul\":4204:4219   */\n      0x20746865206c6f74746572792e00000000000000000000000000000000000000\n        /* \"#utility.yul\":4199:4201   */\n      0x20\n        /* \"#utility.yul\":4191:4197   */\n      dup3\n        /* \"#utility.yul\":4187:4202   */\n      add\n        /* \"#utility.yul\":4180:4220   */\n      mstore\n        /* \"#utility.yul\":3995:4227   */\n      pop\n      jump\t// out\n        /* \"#utility.yul\":4233:4599   */\n    tag_103:\n        /* \"#utility.yul\":4375:4378   */\n      0x00\n        /* \"#utility.yul\":4396:4463   */\n      tag_160\n        /* \"#utility.yul\":4460:4462   */\n      0x2d\n        /* \"#utility.yul\":4455:4458   */\n      dup4\n        /* \"#utility.yul\":4396:4463   */\n      tag_101\n      jump\t// in\n    tag_160:\n        /* \"#utility.yul\":4389:4463   */\n      swap2\n      pop\n        /* \"#utility.yul\":4472:4565   */\n      tag_161\n        /* \"#utility.yul\":4561:4564   */\n      dup3\n        /* \"#utility.yul\":4472:4565   */\n      tag_102\n      jump\t// in\n    tag_161:\n        /* \"#utility.yul\":4590:4592   */\n      0x40\n        /* \"#utility.yul\":4585:4588   */\n      dup3\n        /* \"#utility.yul\":4581:4593   */\n      add\n        /* \"#utility.yul\":4574:4593   */\n      swap1\n      pop\n        /* \"#utility.yul\":4233:4599   */\n      swap2\n      swap1\n      pop\n      jump\t// out\n        /* \"#utility.yul\":4605:5024   */\n    tag_59:\n        /* \"#utility.yul\":4771:4775   */\n      0x00\n        /* \"#utility.yul\":4809:4811   */\n      0x20\n        /* \"#utility.yul\":4798:4807   */\n      dup3\n        /* \"#utility.yul\":4794:4812   */\n      add\n        /* \"#utility.yul\":4786:4812   */\n      swap1\n      pop\n        /* \"#utility.yul\":4858:4867   */\n      dup2\n        /* \"#utility.yul\":4852:4856   */\n      dup2\n        /* \"#utility.yul\":4848:4868   */\n      sub\n        /* \"#utility.yul\":4844:4845   */\n      0x00\n        /* \"#utility.yul\":4833:4842   */\n      dup4\n        /* \"#utility.yul\":4829:4846   */\n      add\n        /* \"#utility.yul\":4822:4869   */\n      mstore\n        /* \"#utility.yul\":4886:5017   */\n      tag_163\n        /* \"#utility.yul\":5012:5016   */\n      dup2\n        /* \"#utility.yul\":4886:5017   */\n      tag_103\n      jump\t// in\n    tag_163:\n        /* \"#utility.yul\":4878:5017   */\n      swap1\n      pop\n        /* \"#utility.yul\":4605:5024   */\n      swap2\n      swap1\n      pop\n      jump\t// out\n        /* \"#utility.yul\":5030:5109   */\n    tag_104:\n        /* \"#utility.yul\":5069:5076   */\n      0x00\n        /* \"#utility.yul\":5098:5103   */\n      dup2\n        /* \"#utility.yul\":5087:5103   */\n      swap1\n      pop\n        /* \"#utility.yul\":5030:5109   */\n      swap2\n      swap1\n      pop\n      jump\t// out\n        /* \"#utility.yul\":5115:5272   */\n    tag_105:\n        /* \"#utility.yul\":5220:5265   */\n      tag_166\n        /* \"#utility.yul\":5240:5264   */\n      tag_167\n        /* \"#utility.yul\":5258:5263   */\n      dup3\n        /* \"#utility.yul\":5240:5264   */\n      tag_84\n      jump\t// in\n    tag_167:\n        /* \"#utility.yul\":5220:5265   */\n      tag_104\n      jump\t// in\n    tag_166:\n        /* \"#utility.yul\":5215:5218   */\n      dup3\n        /* \"#utility.yul\":5208:5266   */\n      mstore\n        /* \"#utility.yul\":5115:5272   */\n      pop\n      pop\n      jump\t// out\n        /* \"#utility.yul\":5278:5675   */\n    tag_64:\n        /* \"#utility.yul\":5418:5421   */\n      0x00\n        /* \"#utility.yul\":5433:5508   */\n      tag_169\n        /* \"#utility.yul\":5504:5507   */\n      dup3\n        /* \"#utility.yul\":5495:5501   */\n      dup6\n        /* \"#utility.yul\":5433:5508   */\n      tag_105\n      jump\t// in\n    tag_169:\n        /* \"#utility.yul\":5533:5535   */\n      0x20\n        /* \"#utility.yul\":5528:5531   */\n      dup3\n        /* \"#utility.yul\":5524:5536   */\n      add\n        /* \"#utility.yul\":5517:5536   */\n      swap2\n      pop\n        /* \"#utility.yul\":5546:5621   */\n      tag_170\n        /* \"#utility.yul\":5617:5620   */\n      dup3\n        /* \"#utility.yul\":5608:5614   */\n      dup5\n        /* \"#utility.yul\":5546:5621   */\n      tag_105\n      jump\t// in\n    tag_170:\n        /* \"#utility.yul\":5646:5648   */\n      0x20\n        /* \"#utility.yul\":5641:5644   */\n      dup3\n        /* \"#utility.yul\":5637:5649   */\n      add\n        /* \"#utility.yul\":5630:5649   */\n      swap2\n      pop\n        /* \"#utility.yul\":5666:5669   */\n      dup2\n        /* \"#utility.yul\":5659:5669   */\n      swap1\n      pop\n        /* \"#utility.yul\":5278:5675   */\n      swap4\n      swap3\n      pop\n      pop\n      pop\n      jump\t// out\n        /* \"#utility.yul\":5681:5861   */\n    tag_106:\n        /* \"#utility.yul\":5729:5806   */\n      0x4e487b7100000000000000000000000000000000000000000000000000000000\n        /* \"#utility.yul\":5726:5727   */\n      0x00\n        /* \"#utility.yul\":5719:5807   */\n      mstore\n        /* \"#utility.yul\":5826:5830   */\n      0x12\n        /* \"#utility.yul\":5823:5824   */\n      0x04\n        /* \"#utility.yul\":5816:5831   */\n      mstore\n        /* \"#utility.yul\":5850:5854   */\n      0x24\n        /* \"#utility.yul\":5847:5848   */\n      0x00\n        /* \"#utility.yul\":5840:5855   */\n      revert\n        /* \"#utility.yul\":5867:6043   */\n    tag_66:\n        /* \"#utility.yul\":5899:5900   */\n      0x00\n        /* \"#utility.yul\":5916:5936   */\n      tag_173\n        /* \"#utility.yul\":5934:5935   */\n      dup3\n        /* \"#utility.yul\":5916:5936   */\n      tag_84\n      jump\t// in\n    tag_173:\n        /* \"#utility.yul\":5911:5936   */\n      swap2\n      pop\n        /* \"#utility.yul\":5950:5970   */\n      tag_174\n        /* \"#utility.yul\":5968:5969   */\n      dup4\n        /* \"#utility.yul\":5950:5970   */\n      tag_84\n      jump\t// in\n    tag_174:\n        /* \"#utility.yul\":5945:5970   */\n      swap3\n      pop\n        /* \"#utility.yul\":5989:5990   */\n      dup3\n        /* \"#utility.yul\":5979:6014   */\n      tag_175\n      jumpi\n        /* \"#utility.yul\":5994:6012   */\n      tag_176\n      tag_106\n      jump\t// in\n    tag_176:\n        /* \"#utility.yul\":5979:6014   */\n    tag_175:\n        /* \"#utility.yul\":6035:6036   */\n      dup3\n        /* \"#utility.yul\":6032:6033   */\n      dup3\n        /* \"#utility.yul\":6028:6037   */\n      mod\n        /* \"#utility.yul\":6023:6037   */\n      swap1\n      pop\n        /* \"#utility.yul\":5867:6043   */\n      swap3\n      swap2\n      pop\n      pop\n      jump\t// out\n        /* \"#utility.yul\":6049:6229   */\n    tag_81:\n        /* \"#utility.yul\":6097:6174   */\n      0x4e487b7100000000000000000000000000000000000000000000000000000000\n        /* \"#utility.yul\":6094:6095   */\n      0x00\n        /* \"#utility.yul\":6087:6175   */\n      mstore\n        /* \"#utility.yul\":6194:6198   */\n      0x32\n        /* \"#utility.yul\":6191:6192   */\n      0x04\n        /* \"#utility.yul\":6184:6199   */\n      mstore\n        /* \"#utility.yul\":6218:6222   */\n      0x24\n        /* \"#utility.yul\":6215:6216   */\n      0x00\n        /* \"#utility.yul\":6208:6223   */\n      revert\n\n    auxdata: 0xa26469706673582212207b3dc784c7b84ffe4795bb31b03da6f00444366e1f2f2ee2ee2a966a5104142564736f6c63430008110033\n}\n",
				"bytecode": {
					"linkReferences": {},
					"object": "608060405234801561001057600080fd5b5061089d806100206000396000f3fe60806040526004361061007f5760003560e01c80637f7982431161004e5780637f79824314610150578063912a90bb1461017b578063a8a54008146101b8578063bff82dee146101e15761008f565b806312065fe01461009457806312845966146100bf5780631593a8c7146100fc57806327dff143146101135761008f565b3661008f5761008d3361021e565b005b600080fd5b3480156100a057600080fd5b506100a961036d565b6040516100b69190610519565b60405180910390f35b3480156100cb57600080fd5b506100e660048036038101906100e19190610565565b610375565b6040516100f39190610519565b60405180910390f35b34801561010857600080fd5b506101116103ba565b005b34801561011f57600080fd5b5061013a60048036038101906101359190610565565b6103c9565b60405161014791906105d3565b60405180910390f35b34801561015c57600080fd5b50610165610408565b60405161017291906105d3565b60405180910390f35b34801561018757600080fd5b506101a2600480360381019061019d919061061a565b61048b565b6040516101af9190610662565b60405180910390f35b3480156101c457600080fd5b506101df60048036038101906101da919061061a565b61021e565b005b3480156101ed57600080fd5b50610208600480360381019061020391906106bb565b6104e0565b6040516102159190610662565b60405180910390f35b60008060008373ffffffffffffffffffffffffffffffffffffffff1673ffffffffffffffffffffffffffffffffffffffff16815260200190815260200160002060009054906101000a900460ff16905080156102af576040517f08c379a00000000000000000000000000000000000000000000000000000000081526004016102a69061076b565b60405180910390fd5b60016000808473ffffffffffffffffffffffffffffffffffffffff1673ffffffffffffffffffffffffffffffffffffffff16815260200190815260200160002060006101000a81548160ff0219169083151502179055506001829080600181540180825580915050600190039060005260206000200160009091909190916101000a81548173ffffffffffffffffffffffffffffffffffffffff021916908373ffffffffffffffffffffffffffffffffffffffff1602179055505050565b600047905090565b600080444260405160200161038b9291906107ac565b6040516020818303038152906040528051906020012060001c905082816103b29190610807565b915050919050565b60006103c4610408565b905050565b600181815481106103d957600080fd5b906000526020600020016000915054906101000a900473ffffffffffffffffffffffffffffffffffffffff1681565b6000806001805490509050600080820361042757600092505050610488565b600182036104385760009050610444565b61044182610375565b90505b6001818154811061045857610457610838565b5b9060005260206000200160009054906101000a900473ffffffffffffffffffffffffffffffffffffffff16925050505b90565b60008060008373ffffffffffffffffffffffffffffffffffffffff1673ffffffffffffffffffffffffffffffffffffffff16815260200190815260200160002060009054906101000a900460ff169050919050565b60006020528060005260406000206000915054906101000a900460ff1681565b6000819050919050565b61051381610500565b82525050565b600060208201905061052e600083018461050a565b92915050565b600080fd5b61054281610500565b811461054d57600080fd5b50565b60008135905061055f81610539565b92915050565b60006020828403121561057b5761057a610534565b5b600061058984828501610550565b91505092915050565b600073ffffffffffffffffffffffffffffffffffffffff82169050919050565b60006105bd82610592565b9050919050565b6105cd816105b2565b82525050565b60006020820190506105e860008301846105c4565b92915050565b6105f7816105b2565b811461060257600080fd5b50565b600081359050610614816105ee565b92915050565b6000602082840312156106305761062f610534565b5b600061063e84828501610605565b91505092915050565b60008115159050919050565b61065c81610647565b82525050565b60006020820190506106776000830184610653565b92915050565b600061068882610592565b9050919050565b6106988161067d565b81146106a357600080fd5b50565b6000813590506106b58161068f565b92915050565b6000602082840312156106d1576106d0610534565b5b60006106df848285016106a6565b91505092915050565b600082825260208201905092915050565b7f5468697320616464726573732068617320616c726561647920656e746572656460008201527f20746865206c6f74746572792e00000000000000000000000000000000000000602082015250565b6000610755602d836106e8565b9150610760826106f9565b604082019050919050565b6000602082019050818103600083015261078481610748565b9050919050565b6000819050919050565b6107a66107a182610500565b61078b565b82525050565b60006107b88285610795565b6020820191506107c88284610795565b6020820191508190509392505050565b7f4e487b7100000000000000000000000000000000000000000000000000000000600052601260045260246000fd5b600061081282610500565b915061081d83610500565b92508261082d5761082c6107d8565b5b828206905092915050565b7f4e487b7100000000000000000000000000000000000000000000000000000000600052603260045260246000fdfea26469706673582212207b3dc784c7b84ffe4795bb31b03da6f00444366e1f2f2ee2ee2a966a5104142564736f6c63430008110033",
					"opcodes": "PUSH1 0x80 PUSH1 0x40 MSTORE CALLVALUE DUP1 ISZERO PUSH2 0x10 JUMPI PUSH1 0x0 DUP1 REVERT JUMPDEST POP PUSH2 0x89D DUP1 PUSH2 0x20 PUSH1 0x0 CODECOPY PUSH1 0x0 RETURN INVALID PUSH1 0x80 PUSH1 0x40 MSTORE PUSH1 0x4 CALLDATASIZE LT PUSH2 0x7F JUMPI PUSH1 0x0 CALLDATALOAD PUSH1 0xE0 SHR DUP1 PUSH4 0x7F798243 GT PUSH2 0x4E JUMPI DUP1 PUSH4 0x7F798243 EQ PUSH2 0x150 JUMPI DUP1 PUSH4 0x912A90BB EQ PUSH2 0x17B JUMPI DUP1 PUSH4 0xA8A54008 EQ PUSH2 0x1B8 JUMPI DUP1 PUSH4 0xBFF82DEE EQ PUSH2 0x1E1 JUMPI PUSH2 0x8F JUMP JUMPDEST DUP1 PUSH4 0x12065FE0 EQ PUSH2 0x94 JUMPI DUP1 PUSH4 0x12845966 EQ PUSH2 0xBF JUMPI DUP1 PUSH4 0x1593A8C7 EQ PUSH2 0xFC JUMPI DUP1 PUSH4 0x27DFF143 EQ PUSH2 0x113 JUMPI PUSH2 0x8F JUMP JUMPDEST CALLDATASIZE PUSH2 0x8F JUMPI PUSH2 0x8D CALLER PUSH2 0x21E JUMP JUMPDEST STOP JUMPDEST PUSH1 0x0 DUP1 REVERT JUMPDEST CALLVALUE DUP1 ISZERO PUSH2 0xA0 JUMPI PUSH1 0x0 DUP1 REVERT JUMPDEST POP PUSH2 0xA9 PUSH2 0x36D JUMP JUMPDEST PUSH1 0x40 MLOAD PUSH2 0xB6 SWAP2 SWAP1 PUSH2 0x519 JUMP JUMPDEST PUSH1 0x40 MLOAD DUP1 SWAP2 SUB SWAP1 RETURN JUMPDEST CALLVALUE DUP1 ISZERO PUSH2 0xCB JUMPI PUSH1 0x0 DUP1 REVERT JUMPDEST POP PUSH2 0xE6 PUSH1 0x4 DUP1 CALLDATASIZE SUB DUP2 ADD SWAP1 PUSH2 0xE1 SWAP2 SWAP1 PUSH2 0x565 JUMP JUMPDEST PUSH2 0x375 JUMP JUMPDEST PUSH1 0x40 MLOAD PUSH2 0xF3 SWAP2 SWAP1 PUSH2 0x519 JUMP JUMPDEST PUSH1 0x40 MLOAD DUP1 SWAP2 SUB SWAP1 RETURN JUMPDEST CALLVALUE DUP1 ISZERO PUSH2 0x108 JUMPI PUSH1 0x0 DUP1 REVERT JUMPDEST POP PUSH2 0x111 PUSH2 0x3BA JUMP JUMPDEST STOP JUMPDEST CALLVALUE DUP1 ISZERO PUSH2 0x11F JUMPI PUSH1 0x0 DUP1 REVERT JUMPDEST POP PUSH2 0x13A PUSH1 0x4 DUP1 CALLDATASIZE SUB DUP2 ADD SWAP1 PUSH2 0x135 SWAP2 SWAP1 PUSH2 0x565 JUMP JUMPDEST PUSH2 0x3C9 JUMP JUMPDEST PUSH1 0x40 MLOAD PUSH2 0x147 SWAP2 SWAP1 PUSH2 0x5D3 JUMP JUMPDEST PUSH1 0x40 MLOAD DUP1 SWAP2 SUB SWAP1 RETURN JUMPDEST CALLVALUE DUP1 ISZERO PUSH2 0x15C JUMPI PUSH1 0x0 DUP1 REVERT JUMPDEST POP PUSH2 0x165 PUSH2 0x408 JUMP JUMPDEST PUSH1 0x40 MLOAD PUSH2 0x172 SWAP2 SWAP1 PUSH2 0x5D3 JUMP JUMPDEST PUSH1 0x40 MLOAD DUP1 SWAP2 SUB SWAP1 RETURN JUMPDEST CALLVALUE DUP1 ISZERO PUSH2 0x187 JUMPI PUSH1 0x0 DUP1 REVERT JUMPDEST POP PUSH2 0x1A2 PUSH1 0x4 DUP1 CALLDATASIZE SUB DUP2 ADD SWAP1 PUSH2 0x19D SWAP2 SWAP1 PUSH2 0x61A JUMP JUMPDEST PUSH2 0x48B JUMP JUMPDEST PUSH1 0x40 MLOAD PUSH2 0x1AF SWAP2 SWAP1 PUSH2 0x662 JUMP JUMPDEST PUSH1 0x40 MLOAD DUP1 SWAP2 SUB SWAP1 RETURN JUMPDEST CALLVALUE DUP1 ISZERO PUSH2 0x1C4 JUMPI PUSH1 0x0 DUP1 REVERT JUMPDEST POP PUSH2 0x1DF PUSH1 0x4 DUP1 CALLDATASIZE SUB DUP2 ADD SWAP1 PUSH2 0x1DA SWAP2 SWAP1 PUSH2 0x61A JUMP JUMPDEST PUSH2 0x21E JUMP JUMPDEST STOP JUMPDEST CALLVALUE DUP1 ISZERO PUSH2 0x1ED JUMPI PUSH1 0x0 DUP1 REVERT JUMPDEST POP PUSH2 0x208 PUSH1 0x4 DUP1 CALLDATASIZE SUB DUP2 ADD SWAP1 PUSH2 0x203 SWAP2 SWAP1 PUSH2 0x6BB JUMP JUMPDEST PUSH2 0x4E0 JUMP JUMPDEST PUSH1 0x40 MLOAD PUSH2 0x215 SWAP2 SWAP1 PUSH2 0x662 JUMP JUMPDEST PUSH1 0x40 MLOAD DUP1 SWAP2 SUB SWAP1 RETURN JUMPDEST PUSH1 0x0 DUP1 PUSH1 0x0 DUP4 PUSH20 0xFFFFFFFFFFFFFFFFFFFFFFFFFFFFFFFFFFFFFFFF AND PUSH20 0xFFFFFFFFFFFFFFFFFFFFFFFFFFFFFFFFFFFFFFFF AND DUP2 MSTORE PUSH1 0x20 ADD SWAP1 DUP2 MSTORE PUSH1 0x20 ADD PUSH1 0x0 KECCAK256 PUSH1 0x0 SWAP1 SLOAD SWAP1 PUSH2 0x100 EXP SWAP1 DIV PUSH1 0xFF AND SWAP1 POP DUP1 ISZERO PUSH2 0x2AF JUMPI PUSH1 0x40 MLOAD PUSH32 0x8C379A000000000000000000000000000000000000000000000000000000000 DUP2 MSTORE PUSH1 0x4 ADD PUSH2 0x2A6 SWAP1 PUSH2 0x76B JUMP JUMPDEST PUSH1 0x40 MLOAD DUP1 SWAP2 SUB SWAP1 REVERT JUMPDEST PUSH1 0x1 PUSH1 0x0 DUP1 DUP5 PUSH20 0xFFFFFFFFFFFFFFFFFFFFFFFFFFFFFFFFFFFFFFFF AND PUSH20 0xFFFFFFFFFFFFFFFFFFFFFFFFFFFFFFFFFFFFFFFF AND DUP2 MSTORE PUSH1 0x20 ADD SWAP1 DUP2 MSTORE PUSH1 0x20 ADD PUSH1 0x0 KECCAK256 PUSH1 0x0 PUSH2 0x100 EXP DUP2 SLOAD DUP2 PUSH1 0xFF MUL NOT AND SWAP1 DUP4 ISZERO ISZERO MUL OR SWAP1 SSTORE POP PUSH1 0x1 DUP3 SWAP1 DUP1 PUSH1 0x1 DUP2 SLOAD ADD DUP1 DUP3 SSTORE DUP1 SWAP2 POP POP PUSH1 0x1 SWAP1 SUB SWAP1 PUSH1 0x0 MSTORE PUSH1 0x20 PUSH1 0x0 KECCAK256 ADD PUSH1 0x0 SWAP1 SWAP2 SWAP1 SWAP2 SWAP1 SWAP2 PUSH2 0x100 EXP DUP2 SLOAD DUP2 PUSH20 0xFFFFFFFFFFFFFFFFFFFFFFFFFFFFFFFFFFFFFFFF MUL NOT AND SWAP1 DUP4 PUSH20 0xFFFFFFFFFFFFFFFFFFFFFFFFFFFFFFFFFFFFFFFF AND MUL OR SWAP1 SSTORE POP POP POP JUMP JUMPDEST PUSH1 0x0 SELFBALANCE SWAP1 POP SWAP1 JUMP JUMPDEST PUSH1 0x0 DUP1 DIFFICULTY TIMESTAMP PUSH1 0x40 MLOAD PUSH1 0x20 ADD PUSH2 0x38B SWAP3 SWAP2 SWAP1 PUSH2 0x7AC JUMP JUMPDEST PUSH1 0x40 MLOAD PUSH1 0x20 DUP2 DUP4 SUB SUB DUP2 MSTORE SWAP1 PUSH1 0x40 MSTORE DUP1 MLOAD SWAP1 PUSH1 0x20 ADD KECCAK256 PUSH1 0x0 SHR SWAP1 POP DUP3 DUP2 PUSH2 0x3B2 SWAP2 SWAP1 PUSH2 0x807 JUMP JUMPDEST SWAP2 POP POP SWAP2 SWAP1 POP JUMP JUMPDEST PUSH1 0x0 PUSH2 0x3C4 PUSH2 0x408 JUMP JUMPDEST SWAP1 POP POP JUMP JUMPDEST PUSH1 0x1 DUP2 DUP2 SLOAD DUP2 LT PUSH2 0x3D9 JUMPI PUSH1 0x0 DUP1 REVERT JUMPDEST SWAP1 PUSH1 0x0 MSTORE PUSH1 0x20 PUSH1 0x0 KECCAK256 ADD PUSH1 0x0 SWAP2 POP SLOAD SWAP1 PUSH2 0x100 EXP SWAP1 DIV PUSH20 0xFFFFFFFFFFFFFFFFFFFFFFFFFFFFFFFFFFFFFFFF AND DUP2 JUMP JUMPDEST PUSH1 0x0 DUP1 PUSH1 0x1 DUP1 SLOAD SWAP1 POP SWAP1 POP PUSH1 0x0 DUP1 DUP3 SUB PUSH2 0x427 JUMPI PUSH1 0x0 SWAP3 POP POP POP PUSH2 0x488 JUMP JUMPDEST PUSH1 0x1 DUP3 SUB PUSH2 0x438 JUMPI PUSH1 0x0 SWAP1 POP PUSH2 0x444 JUMP JUMPDEST PUSH2 0x441 DUP3 PUSH2 0x375 JUMP JUMPDEST SWAP1 POP JUMPDEST PUSH1 0x1 DUP2 DUP2 SLOAD DUP2 LT PUSH2 0x458 JUMPI PUSH2 0x457 PUSH2 0x838 JUMP JUMPDEST JUMPDEST SWAP1 PUSH1 0x0 MSTORE PUSH1 0x20 PUSH1 0x0 KECCAK256 ADD PUSH1 0x0 SWAP1 SLOAD SWAP1 PUSH2 0x100 EXP SWAP1 DIV PUSH20 0xFFFFFFFFFFFFFFFFFFFFFFFFFFFFFFFFFFFFFFFF AND SWAP3 POP POP POP JUMPDEST SWAP1 JUMP JUMPDEST PUSH1 0x0 DUP1 PUSH1 0x0 DUP4 PUSH20 0xFFFFFFFFFFFFFFFFFFFFFFFFFFFFFFFFFFFFFFFF AND PUSH20 0xFFFFFFFFFFFFFFFFFFFFFFFFFFFFFFFFFFFFFFFF AND DUP2 MSTORE PUSH1 0x20 ADD SWAP1 DUP2 MSTORE PUSH1 0x20 ADD PUSH1 0x0 KECCAK256 PUSH1 0x0 SWAP1 SLOAD SWAP1 PUSH2 0x100 EXP SWAP1 DIV PUSH1 0xFF AND SWAP1 POP SWAP2 SWAP1 POP JUMP JUMPDEST PUSH1 0x0 PUSH1 0x20 MSTORE DUP1 PUSH1 0x0 MSTORE PUSH1 0x40 PUSH1 0x0 KECCAK256 PUSH1 0x0 SWAP2 POP SLOAD SWAP1 PUSH2 0x100 EXP SWAP1 DIV PUSH1 0xFF AND DUP2 JUMP JUMPDEST PUSH1 0x0 DUP2 SWAP1 POP SWAP2 SWAP1 POP JUMP JUMPDEST PUSH2 0x513 DUP2 PUSH2 0x500 JUMP JUMPDEST DUP3 MSTORE POP POP JUMP JUMPDEST PUSH1 0x0 PUSH1 0x20 DUP3 ADD SWAP1 POP PUSH2 0x52E PUSH1 0x0 DUP4 ADD DUP5 PUSH2 0x50A JUMP JUMPDEST SWAP3 SWAP2 POP POP JUMP JUMPDEST PUSH1 0x0 DUP1 REVERT JUMPDEST PUSH2 0x542 DUP2 PUSH2 0x500 JUMP JUMPDEST DUP2 EQ PUSH2 0x54D JUMPI PUSH1 0x0 DUP1 REVERT JUMPDEST POP JUMP JUMPDEST PUSH1 0x0 DUP2 CALLDATALOAD SWAP1 POP PUSH2 0x55F DUP2 PUSH2 0x539 JUMP JUMPDEST SWAP3 SWAP2 POP POP JUMP JUMPDEST PUSH1 0x0 PUSH1 0x20 DUP3 DUP5 SUB SLT ISZERO PUSH2 0x57B JUMPI PUSH2 0x57A PUSH2 0x534 JUMP JUMPDEST JUMPDEST PUSH1 0x0 PUSH2 0x589 DUP5 DUP3 DUP6 ADD PUSH2 0x550 JUMP JUMPDEST SWAP2 POP POP SWAP3 SWAP2 POP POP JUMP JUMPDEST PUSH1 0x0 PUSH20 0xFFFFFFFFFFFFFFFFFFFFFFFFFFFFFFFFFFFFFFFF DUP3 AND SWAP1 POP SWAP2 SWAP1 POP JUMP JUMPDEST PUSH1 0x0 PUSH2 0x5BD DUP3 PUSH2 0x592 JUMP JUMPDEST SWAP1 POP SWAP2 SWAP1 POP JUMP JUMPDEST PUSH2 0x5CD DUP2 PUSH2 0x5B2 JUMP JUMPDEST DUP3 MSTORE POP POP JUMP JUMPDEST PUSH1 0x0 PUSH1 0x20 DUP3 ADD SWAP1 POP PUSH2 0x5E8 PUSH1 0x0 DUP4 ADD DUP5 PUSH2 0x5C4 JUMP JUMPDEST SWAP3 SWAP2 POP POP JUMP JUMPDEST PUSH2 0x5F7 DUP2 PUSH2 0x5B2 JUMP JUMPDEST DUP2 EQ PUSH2 0x602 JUMPI PUSH1 0x0 DUP1 REVERT JUMPDEST POP JUMP JUMPDEST PUSH1 0x0 DUP2 CALLDATALOAD SWAP1 POP PUSH2 0x614 DUP2 PUSH2 0x5EE JUMP JUMPDEST SWAP3 SWAP2 POP POP JUMP JUMPDEST PUSH1 0x0 PUSH1 0x20 DUP3 DUP5 SUB SLT ISZERO PUSH2 0x630 JUMPI PUSH2 0x62F PUSH2 0x534 JUMP JUMPDEST JUMPDEST PUSH1 0x0 PUSH2 0x63E DUP5 DUP3 DUP6 ADD PUSH2 0x605 JUMP JUMPDEST SWAP2 POP POP SWAP3 SWAP2 POP POP JUMP JUMPDEST PUSH1 0x0 DUP2 ISZERO ISZERO SWAP1 POP SWAP2 SWAP1 POP JUMP JUMPDEST PUSH2 0x65C DUP2 PUSH2 0x647 JUMP JUMPDEST DUP3 MSTORE POP POP JUMP JUMPDEST PUSH1 0x0 PUSH1 0x20 DUP3 ADD SWAP1 POP PUSH2 0x677 PUSH1 0x0 DUP4 ADD DUP5 PUSH2 0x653 JUMP JUMPDEST SWAP3 SWAP2 POP POP JUMP JUMPDEST PUSH1 0x0 PUSH2 0x688 DUP3 PUSH2 0x592 JUMP JUMPDEST SWAP1 POP SWAP2 SWAP1 POP JUMP JUMPDEST PUSH2 0x698 DUP2 PUSH2 0x67D JUMP JUMPDEST DUP2 EQ PUSH2 0x6A3 JUMPI PUSH1 0x0 DUP1 REVERT JUMPDEST POP JUMP JUMPDEST PUSH1 0x0 DUP2 CALLDATALOAD SWAP1 POP PUSH2 0x6B5 DUP2 PUSH2 0x68F JUMP JUMPDEST SWAP3 SWAP2 POP POP JUMP JUMPDEST PUSH1 0x0 PUSH1 0x20 DUP3 DUP5 SUB SLT ISZERO PUSH2 0x6D1 JUMPI PUSH2 0x6D0 PUSH2 0x534 JUMP JUMPDEST JUMPDEST PUSH1 0x0 PUSH2 0x6DF DUP5 DUP3 DUP6 ADD PUSH2 0x6A6 JUMP JUMPDEST SWAP2 POP POP SWAP3 SWAP2 POP POP JUMP JUMPDEST PUSH1 0x0 DUP3 DUP3 MSTORE PUSH1 0x20 DUP3 ADD SWAP1 POP SWAP3 SWAP2 POP POP JUMP JUMPDEST PUSH32 0x5468697320616464726573732068617320616C726561647920656E7465726564 PUSH1 0x0 DUP3 ADD MSTORE PUSH32 0x20746865206C6F74746572792E00000000000000000000000000000000000000 PUSH1 0x20 DUP3 ADD MSTORE POP JUMP JUMPDEST PUSH1 0x0 PUSH2 0x755 PUSH1 0x2D DUP4 PUSH2 0x6E8 JUMP JUMPDEST SWAP2 POP PUSH2 0x760 DUP3 PUSH2 0x6F9 JUMP JUMPDEST PUSH1 0x40 DUP3 ADD SWAP1 POP SWAP2 SWAP1 POP JUMP JUMPDEST PUSH1 0x0 PUSH1 0x20 DUP3 ADD SWAP1 POP DUP2 DUP2 SUB PUSH1 0x0 DUP4 ADD MSTORE PUSH2 0x784 DUP2 PUSH2 0x748 JUMP JUMPDEST SWAP1 POP SWAP2 SWAP1 POP JUMP JUMPDEST PUSH1 0x0 DUP2 SWAP1 POP SWAP2 SWAP1 POP JUMP JUMPDEST PUSH2 0x7A6 PUSH2 0x7A1 DUP3 PUSH2 0x500 JUMP JUMPDEST PUSH2 0x78B JUMP JUMPDEST DUP3 MSTORE POP POP JUMP JUMPDEST PUSH1 0x0 PUSH2 0x7B8 DUP3 DUP6 PUSH2 0x795 JUMP JUMPDEST PUSH1 0x20 DUP3 ADD SWAP2 POP PUSH2 0x7C8 DUP3 DUP5 PUSH2 0x795 JUMP JUMPDEST PUSH1 0x20 DUP3 ADD SWAP2 POP DUP2 SWAP1 POP SWAP4 SWAP3 POP POP POP JUMP JUMPDEST PUSH32 0x4E487B7100000000000000000000000000000000000000000000000000000000 PUSH1 0x0 MSTORE PUSH1 0x12 PUSH1 0x4 MSTORE PUSH1 0x24 PUSH1 0x0 REVERT JUMPDEST PUSH1 0x0 PUSH2 0x812 DUP3 PUSH2 0x500 JUMP JUMPDEST SWAP2 POP PUSH2 0x81D DUP4 PUSH2 0x500 JUMP JUMPDEST SWAP3 POP DUP3 PUSH2 0x82D JUMPI PUSH2 0x82C PUSH2 0x7D8 JUMP JUMPDEST JUMPDEST DUP3 DUP3 MOD SWAP1 POP SWAP3 SWAP2 POP POP JUMP JUMPDEST PUSH32 0x4E487B7100000000000000000000000000000000000000000000000000000000 PUSH1 0x0 MSTORE PUSH1 0x32 PUSH1 0x4 MSTORE PUSH1 0x24 PUSH1 0x0 REVERT INVALID LOG2 PUSH5 0x6970667358 0x22 SLT KECCAK256 PUSH28 0x3DC784C7B84FFE4795BB31B03DA6F00444366E1F2F2EE2EE2A966A51 DIV EQ 0x25 PUSH5 0x736F6C6343 STOP ADDMOD GT STOP CALLER "
				},
				"gasEstimates": {
					"creation": {
						"codeDepositCost": "441000",
						"executionCost": "474",
						"totalCost": "441474"
					},
					"external": {
						"chooseWinningAddress()": "infinite",
						"endLottery()": "infinite",
						"getBalance()": "340",
						"isAddressPlaying(address)": "2905",
						"list_playerAddress(uint256)": "5023",
						"map_isPlaying(address)": "2911",
						"randomInt(uint256)": "infinite",
						"registerAddress(address)": "75694"
					}
				},
				"methodIdentifiers": {
					"chooseWinningAddress()": "7f798243",
					"endLottery()": "1593a8c7",
					"getBalance()": "12065fe0",
					"isAddressPlaying(address)": "912a90bb",
					"list_playerAddress(uint256)": "27dff143",
					"map_isPlaying(address)": "bff82dee",
					"randomInt(uint256)": "12845966",
					"registerAddress(address)": "a8a54008"
				}
			},
			"storageLayout": {
				"storage": [
					{
						"astId": 18,
						"contract": "contracts/lottery.sol:Lottery",
						"label": "map_isPlaying",
						"offset": 0,
						"slot": "0",
						"type": "t_mapping(t_address,t_bool)"
					},
					{
						"astId": 21,
						"contract": "contracts/lottery.sol:Lottery",
						"label": "list_playerAddress",
						"offset": 0,
						"slot": "1",
						"type": "t_array(t_address_payable)dyn_storage"
					}
				],
				"types": {
					"t_address": {
						"encoding": "inplace",
						"label": "address",
						"numberOfBytes": "20"
					},
					"t_address_payable": {
						"encoding": "inplace",
						"label": "address payable",
						"numberOfBytes": "20"
					},
					"t_array(t_address_payable)dyn_storage": {
						"base": "t_address_payable",
						"encoding": "dynamic_array",
						"label": "address payable[]",
						"numberOfBytes": "32"
					},
					"t_bool": {
						"encoding": "inplace",
						"label": "bool",
						"numberOfBytes": "1"
					},
					"t_mapping(t_address,t_bool)": {
						"encoding": "mapping",
						"key": "t_address",
						"label": "mapping(address => bool)",
						"numberOfBytes": "32",
						"value": "t_bool"
					}
				}
			},
			"userdoc": {
				"kind": "user",
				"methods": {},
				"version": 1
			}
		}
	}
}