{
	"contracts/lottery.sol": {
		"Lottery": {
			"abi": [
				{
					"inputs": [],
					"stateMutability": "payable",
					"type": "constructor"
				},
				{
					"inputs": [],
					"name": "chooseWinningAddress",
					"outputs": [
						{
							"internalType": "address payable",
							"name": "",
							"type": "address"
						}
					],
					"stateMutability": "view",
					"type": "function"
				},
				{
					"inputs": [],
					"name": "endLottery",
					"outputs": [],
					"stateMutability": "nonpayable",
					"type": "function"
				},
				{
					"inputs": [],
					"name": "fundContract",
					"outputs": [],
					"stateMutability": "payable",
					"type": "function"
				},
				{
					"inputs": [],
					"name": "fundLottery",
					"outputs": [],
					"stateMutability": "payable",
					"type": "function"
				},
				{
					"inputs": [],
					"name": "getBalance",
					"outputs": [
						{
							"internalType": "uint256",
							"name": "",
							"type": "uint256"
						}
					],
					"stateMutability": "view",
					"type": "function"
				},
				{
					"inputs": [
						{
							"internalType": "address payable",
							"name": "playerAddress",
							"type": "address"
						}
					],
					"name": "isAddressPlaying",
					"outputs": [
						{
							"internalType": "bool",
							"name": "",
							"type": "bool"
						}
					],
					"stateMutability": "view",
					"type": "function"
				},
				{
					"inputs": [
						{
							"internalType": "uint256",
							"name": "",
							"type": "uint256"
						}
					],
					"name": "list_playerAddress",
					"outputs": [
						{
							"internalType": "address payable",
							"name": "",
							"type": "address"
						}
					],
					"stateMutability": "view",
					"type": "function"
				},
				{
					"inputs": [
						{
							"internalType": "address",
							"name": "",
							"type": "address"
						}
					],
					"name": "map_isPlaying",
					"outputs": [
						{
							"internalType": "bool",
							"name": "",
							"type": "bool"
						}
					],
					"stateMutability": "view",
					"type": "function"
				},
				{
					"inputs": [
						{
							"internalType": "uint256",
							"name": "N",
							"type": "uint256"
						}
					],
					"name": "randomInt",
					"outputs": [
						{
							"internalType": "uint256",
							"name": "",
							"type": "uint256"
						}
					],
					"stateMutability": "view",
					"type": "function"
				},
				{
					"inputs": [
						{
							"internalType": "address payable",
							"name": "playerAddress",
							"type": "address"
						}
					],
					"name": "registerAddress",
					"outputs": [],
					"stateMutability": "nonpayable",
					"type": "function"
				},
				{
					"inputs": [
						{
							"internalType": "uint256",
							"name": "amount",
							"type": "uint256"
						}
					],
					"name": "withdraw",
					"outputs": [],
					"stateMutability": "nonpayable",
					"type": "function"
				},
				{
					"inputs": [],
					"name": "withdrawAll",
					"outputs": [],
					"stateMutability": "nonpayable",
					"type": "function"
				}
			],
			"devdoc": {
				"custom:dev-run-script": "./scripts/deploy_with_ethers.ts",
				"details": "A blockchain lottery",
				"kind": "dev",
				"methods": {},
				"title": "Lottery",
				"version": 1
			},
			"evm": {
				"assembly": "    /* \"contracts/lottery.sol\":248:5317  contract Lottery {... */\n  mstore(0x40, 0x80)\n  dataSize(sub_0)\n  dup1\n  dataOffset(sub_0)\n  0x00\n  codecopy\n  0x00\n  return\nstop\n\nsub_0: assembly {\n        /* \"contracts/lottery.sol\":248:5317  contract Lottery {... */\n      mstore(0x40, 0x80)\n      jumpi(tag_1, lt(calldatasize, 0x04))\n      shr(0xe0, calldataload(0x00))\n      dup1\n      0x853828b6\n      gt\n      tag_14\n      jumpi\n      dup1\n      0x853828b6\n      eq\n      tag_8\n      jumpi\n      dup1\n      0x912a90bb\n      eq\n      tag_9\n      jumpi\n      dup1\n      0xa8a54008\n      eq\n      tag_10\n      jumpi\n      dup1\n      0xb5cc4539\n      eq\n      tag_11\n      jumpi\n      dup1\n      0xbd097e21\n      eq\n      tag_12\n      jumpi\n      dup1\n      0xbff82dee\n      eq\n      tag_13\n      jumpi\n      jump(tag_1)\n    tag_14:\n      dup1\n      0x12065fe0\n      eq\n      tag_2\n      jumpi\n      dup1\n      0x12845966\n      eq\n      tag_3\n      jumpi\n      dup1\n      0x1593a8c7\n      eq\n      tag_4\n      jumpi\n      dup1\n      0x27dff143\n      eq\n      tag_5\n      jumpi\n      dup1\n      0x2e1a7d4d\n      eq\n      tag_6\n      jumpi\n      dup1\n      0x7f798243\n      eq\n      tag_7\n      jumpi\n    tag_1:\n      0x00\n      dup1\n      revert\n        /* \"contracts/lottery.sol\":4077:4173  function getBalance() public view returns (uint) {... */\n    tag_2:\n      callvalue\n      dup1\n      iszero\n      tag_15\n      jumpi\n      0x00\n      dup1\n      revert\n    tag_15:\n      pop\n      tag_16\n      tag_17\n      jump\t// in\n    tag_16:\n      mload(0x40)\n      tag_18\n      swap2\n      swap1\n      tag_19\n      jump\t// in\n    tag_18:\n      mload(0x40)\n      dup1\n      swap2\n      sub\n      swap1\n      return\n        /* \"contracts/lottery.sol\":4181:4422  function randomInt(uint N) public view returns (uint) {... */\n    tag_3:\n      callvalue\n      dup1\n      iszero\n      tag_20\n      jumpi\n      0x00\n      dup1\n      revert\n    tag_20:\n      pop\n      tag_21\n      0x04\n      dup1\n      calldatasize\n      sub\n      dup2\n      add\n      swap1\n      tag_22\n      swap2\n      swap1\n      tag_23\n      jump\t// in\n    tag_22:\n      tag_24\n      jump\t// in\n    tag_21:\n      mload(0x40)\n      tag_25\n      swap2\n      swap1\n      tag_19\n      jump\t// in\n    tag_25:\n      mload(0x40)\n      dup1\n      swap2\n      sub\n      swap1\n      return\n        /* \"contracts/lottery.sol\":2680:3279  function endLottery() public {... */\n    tag_4:\n      callvalue\n      dup1\n      iszero\n      tag_26\n      jumpi\n      0x00\n      dup1\n      revert\n    tag_26:\n      pop\n      tag_27\n      tag_28\n      jump\t// in\n    tag_27:\n      stop\n        /* \"contracts/lottery.sol\":788:831  address payable[] public list_playerAddress */\n    tag_5:\n      callvalue\n      dup1\n      iszero\n      tag_29\n      jumpi\n      0x00\n      dup1\n      revert\n    tag_29:\n      pop\n      tag_30\n      0x04\n      dup1\n      calldatasize\n      sub\n      dup2\n      add\n      swap1\n      tag_31\n      swap2\n      swap1\n      tag_23\n      jump\t// in\n    tag_31:\n      tag_32\n      jump\t// in\n    tag_30:\n      mload(0x40)\n      tag_33\n      swap2\n      swap1\n      tag_34\n      jump\t// in\n    tag_33:\n      mload(0x40)\n      dup1\n      swap2\n      sub\n      swap1\n      return\n        /* \"contracts/lottery.sol\":3706:4069  function withdraw(uint amount) public {... */\n    tag_6:\n      callvalue\n      dup1\n      iszero\n      tag_35\n      jumpi\n      0x00\n      dup1\n      revert\n    tag_35:\n      pop\n      tag_36\n      0x04\n      dup1\n      calldatasize\n      sub\n      dup2\n      add\n      swap1\n      tag_37\n      swap2\n      swap1\n      tag_23\n      jump\t// in\n    tag_37:\n      tag_38\n      jump\t// in\n    tag_36:\n      stop\n        /* \"contracts/lottery.sol\":1877:2672  function chooseWinningAddress() public view returns (address payable) {... */\n    tag_7:\n      callvalue\n      dup1\n      iszero\n      tag_39\n      jumpi\n      0x00\n      dup1\n      revert\n    tag_39:\n      pop\n      tag_40\n      tag_41\n      jump\t// in\n    tag_40:\n      mload(0x40)\n      tag_42\n      swap2\n      swap1\n      tag_34\n      jump\t// in\n    tag_42:\n      mload(0x40)\n      dup1\n      swap2\n      sub\n      swap1\n      return\n        /* \"contracts/lottery.sol\":3545:3698  function withdrawAll() public {... */\n    tag_8:\n      callvalue\n      dup1\n      iszero\n      tag_43\n      jumpi\n      0x00\n      dup1\n      revert\n    tag_43:\n      pop\n      tag_44\n      tag_45\n      jump\t// in\n    tag_44:\n      stop\n        /* \"contracts/lottery.sol\":1731:1869  function isAddressPlaying(address payable playerAddress) public view returns (bool) {... */\n    tag_9:\n      callvalue\n      dup1\n      iszero\n      tag_46\n      jumpi\n      0x00\n      dup1\n      revert\n    tag_46:\n      pop\n      tag_47\n      0x04\n      dup1\n      calldatasize\n      sub\n      dup2\n      add\n      swap1\n      tag_48\n      swap2\n      swap1\n      tag_49\n      jump\t// in\n    tag_48:\n      tag_50\n      jump\t// in\n    tag_47:\n      mload(0x40)\n      tag_51\n      swap2\n      swap1\n      tag_52\n      jump\t// in\n    tag_51:\n      mload(0x40)\n      dup1\n      swap2\n      sub\n      swap1\n      return\n        /* \"contracts/lottery.sol\":1241:1719  function registerAddress(address payable playerAddress) public {... */\n    tag_10:\n      callvalue\n      dup1\n      iszero\n      tag_53\n      jumpi\n      0x00\n      dup1\n      revert\n    tag_53:\n      pop\n      tag_54\n      0x04\n      dup1\n      calldatasize\n      sub\n      dup2\n      add\n      swap1\n      tag_55\n      swap2\n      swap1\n      tag_49\n      jump\t// in\n    tag_55:\n      tag_56\n      jump\t// in\n    tag_54:\n      stop\n        /* \"contracts/lottery.sol\":872:1233  function fundLottery() public payable {... */\n    tag_11:\n      tag_57\n      tag_58\n      jump\t// in\n    tag_57:\n      stop\n        /* \"contracts/lottery.sol\":3287:3537  function fundContract() external payable {... */\n    tag_12:\n      tag_59\n      tag_60\n      jump\t// in\n    tag_59:\n      stop\n        /* \"contracts/lottery.sol\":736:781  mapping(address => bool) public map_isPlaying */\n    tag_13:\n      callvalue\n      dup1\n      iszero\n      tag_61\n      jumpi\n      0x00\n      dup1\n      revert\n    tag_61:\n      pop\n      tag_62\n      0x04\n      dup1\n      calldatasize\n      sub\n      dup2\n      add\n      swap1\n      tag_63\n      swap2\n      swap1\n      tag_64\n      jump\t// in\n    tag_63:\n      tag_65\n      jump\t// in\n    tag_62:\n      mload(0x40)\n      tag_66\n      swap2\n      swap1\n      tag_52\n      jump\t// in\n    tag_66:\n      mload(0x40)\n      dup1\n      swap2\n      sub\n      swap1\n      return\n        /* \"contracts/lottery.sol\":4077:4173  function getBalance() public view returns (uint) {... */\n    tag_17:\n        /* \"contracts/lottery.sol\":4120:4124  uint */\n      0x00\n        /* \"contracts/lottery.sol\":4144:4165  address(this).balance */\n      selfbalance\n        /* \"contracts/lottery.sol\":4137:4165  return address(this).balance */\n      swap1\n      pop\n        /* \"contracts/lottery.sol\":4077:4173  function getBalance() public view returns (uint) {... */\n      swap1\n      jump\t// out\n        /* \"contracts/lottery.sol\":4181:4422  function randomInt(uint N) public view returns (uint) {... */\n    tag_24:\n        /* \"contracts/lottery.sol\":4229:4233  uint */\n      0x00\n        /* \"contracts/lottery.sol\":4296:4311  uint randomHash */\n      dup1\n        /* \"contracts/lottery.sol\":4346:4362  block.difficulty */\n      difficulty\n        /* \"contracts/lottery.sol\":4364:4379  block.timestamp */\n      timestamp\n        /* \"contracts/lottery.sol\":4329:4380  abi.encodePacked(block.difficulty, block.timestamp) */\n      add(0x20, mload(0x40))\n      tag_69\n      swap3\n      swap2\n      swap1\n      tag_70\n      jump\t// in\n    tag_69:\n      mload(0x40)\n      0x20\n      dup2\n      dup4\n      sub\n      sub\n      dup2\n      mstore\n      swap1\n      0x40\n      mstore\n        /* \"contracts/lottery.sol\":4319:4381  keccak256(abi.encodePacked(block.difficulty, block.timestamp)) */\n      dup1\n      mload\n      swap1\n      0x20\n      add\n      keccak256\n        /* \"contracts/lottery.sol\":4314:4382  uint(keccak256(abi.encodePacked(block.difficulty, block.timestamp))) */\n      0x00\n      shr\n        /* \"contracts/lottery.sol\":4296:4382  uint randomHash = uint(keccak256(abi.encodePacked(block.difficulty, block.timestamp))) */\n      swap1\n      pop\n        /* \"contracts/lottery.sol\":4413:4414  N */\n      dup3\n        /* \"contracts/lottery.sol\":4400:4410  randomHash */\n      dup2\n        /* \"contracts/lottery.sol\":4400:4414  randomHash % N */\n      tag_71\n      swap2\n      swap1\n      tag_72\n      jump\t// in\n    tag_71:\n        /* \"contracts/lottery.sol\":4393:4414  return randomHash % N */\n      swap2\n      pop\n      pop\n        /* \"contracts/lottery.sol\":4181:4422  function randomInt(uint N) public view returns (uint) {... */\n      swap2\n      swap1\n      pop\n      jump\t// out\n        /* \"contracts/lottery.sol\":2680:3279  function endLottery() public {... */\n    tag_28:\n        /* \"contracts/lottery.sol\":2720:2750  address payable winningAddress */\n      0x00\n        /* \"contracts/lottery.sol\":2753:2775  chooseWinningAddress() */\n      tag_74\n        /* \"contracts/lottery.sol\":2753:2773  chooseWinningAddress */\n      tag_41\n        /* \"contracts/lottery.sol\":2753:2775  chooseWinningAddress() */\n      jump\t// in\n    tag_74:\n        /* \"contracts/lottery.sol\":2720:2775  address payable winningAddress = chooseWinningAddress() */\n      swap1\n      pop\n        /* \"contracts/lottery.sol\":319:361  0x0000000000000000000000000000000000000000 */\n      0x00\n        /* \"contracts/lottery.sol\":2789:2818  winningAddress == zeroAddress */\n      0xffffffffffffffffffffffffffffffffffffffff\n      and\n        /* \"contracts/lottery.sol\":2789:2803  winningAddress */\n      dup2\n        /* \"contracts/lottery.sol\":2789:2818  winningAddress == zeroAddress */\n      0xffffffffffffffffffffffffffffffffffffffff\n      and\n      sub\n        /* \"contracts/lottery.sol\":2786:3272  if(winningAddress == zeroAddress) {... */\n      iszero\n      tag_76\n      jumpi\n        /* \"contracts/lottery.sol\":3015:3033  uint operatorPrize */\n      0x00\n        /* \"contracts/lottery.sol\":3063:3066  100 */\n      0x64\n        /* \"contracts/lottery.sol\":601:603  10 */\n      0x0a\n        /* \"contracts/lottery.sol\":3036:3046  totalPrize */\n      sload(0x00)\n        /* \"contracts/lottery.sol\":3036:3060  totalPrize * operatorCut */\n      tag_77\n      swap2\n      swap1\n      tag_78\n      jump\t// in\n    tag_77:\n        /* \"contracts/lottery.sol\":3036:3066  totalPrize * operatorCut / 100 */\n      tag_79\n      swap2\n      swap1\n      tag_80\n      jump\t// in\n    tag_79:\n        /* \"contracts/lottery.sol\":3015:3066  uint operatorPrize = totalPrize * operatorCut / 100 */\n      swap1\n      pop\n        /* \"contracts/lottery.sol\":3081:3097  uint winnerPrize */\n      0x00\n        /* \"contracts/lottery.sol\":3113:3126  operatorPrize */\n      dup2\n        /* \"contracts/lottery.sol\":3100:3110  totalPrize */\n      sload(0x00)\n        /* \"contracts/lottery.sol\":3100:3126  totalPrize - operatorPrize */\n      tag_81\n      swap2\n      swap1\n      tag_82\n      jump\t// in\n    tag_81:\n        /* \"contracts/lottery.sol\":3081:3126  uint winnerPrize = totalPrize - operatorPrize */\n      swap1\n      pop\n        /* \"contracts/lottery.sol\":3154:3155  0 */\n      0x00\n        /* \"contracts/lottery.sol\":3141:3151  totalPrize */\n      dup1\n        /* \"contracts/lottery.sol\":3141:3155  totalPrize = 0 */\n      dup2\n      swap1\n      sstore\n      pop\n        /* \"contracts/lottery.sol\":523:565  0xAb8483F64d9C6d1EcF9b849Ae677dD3315835cb2 */\n      0xab8483f64d9c6d1ecf9b849ae677dd3315835cb2\n        /* \"contracts/lottery.sol\":3170:3194  operatorAddress.transfer */\n      0xffffffffffffffffffffffffffffffffffffffff\n      and\n        /* \"contracts/lottery.sol\":3170:3209  operatorAddress.transfer(operatorPrize) */\n      0x08fc\n        /* \"contracts/lottery.sol\":3195:3208  operatorPrize */\n      dup4\n        /* \"contracts/lottery.sol\":3170:3209  operatorAddress.transfer(operatorPrize) */\n      swap1\n      dup2\n      iszero\n      mul\n      swap1\n      mload(0x40)\n      0x00\n      mload(0x40)\n      dup1\n      dup4\n      sub\n      dup2\n      dup6\n      dup9\n      dup9\n      call\n      swap4\n      pop\n      pop\n      pop\n      pop\n      iszero\n      dup1\n      iszero\n      tag_84\n      jumpi\n      returndatasize\n      0x00\n      dup1\n      returndatacopy\n      revert(0x00, returndatasize)\n    tag_84:\n      pop\n        /* \"contracts/lottery.sol\":3224:3238  winningAddress */\n      dup3\n        /* \"contracts/lottery.sol\":3224:3247  winningAddress.transfer */\n      0xffffffffffffffffffffffffffffffffffffffff\n      and\n        /* \"contracts/lottery.sol\":3224:3260  winningAddress.transfer(winnerPrize) */\n      0x08fc\n        /* \"contracts/lottery.sol\":3248:3259  winnerPrize */\n      dup3\n        /* \"contracts/lottery.sol\":3224:3260  winningAddress.transfer(winnerPrize) */\n      swap1\n      dup2\n      iszero\n      mul\n      swap1\n      mload(0x40)\n      0x00\n      mload(0x40)\n      dup1\n      dup4\n      sub\n      dup2\n      dup6\n      dup9\n      dup9\n      call\n      swap4\n      pop\n      pop\n      pop\n      pop\n      iszero\n      dup1\n      iszero\n      tag_86\n      jumpi\n      returndatasize\n      0x00\n      dup1\n      returndatacopy\n      revert(0x00, returndatasize)\n    tag_86:\n      pop\n        /* \"contracts/lottery.sol\":2898:3272  {... */\n      pop\n      pop\n        /* \"contracts/lottery.sol\":2786:3272  if(winningAddress == zeroAddress) {... */\n    tag_76:\n        /* \"contracts/lottery.sol\":2709:3279  {... */\n      pop\n        /* \"contracts/lottery.sol\":2680:3279  function endLottery() public {... */\n      jump\t// out\n        /* \"contracts/lottery.sol\":788:831  address payable[] public list_playerAddress */\n    tag_32:\n      0x02\n      dup2\n      dup2\n      sload\n      dup2\n      lt\n      tag_87\n      jumpi\n      0x00\n      dup1\n      revert\n    tag_87:\n      swap1\n      0x00\n      mstore\n      keccak256(0x00, 0x20)\n      add\n      0x00\n      swap2\n      pop\n      sload\n      swap1\n      0x0100\n      exp\n      swap1\n      div\n      0xffffffffffffffffffffffffffffffffffffffff\n      and\n      dup2\n      jump\t// out\n        /* \"contracts/lottery.sol\":3706:4069  function withdraw(uint amount) public {... */\n    tag_38:\n        /* \"contracts/lottery.sol\":3829:3841  uint balance */\n      0x00\n        /* \"contracts/lottery.sol\":3844:3856  getBalance() */\n      tag_90\n        /* \"contracts/lottery.sol\":3844:3854  getBalance */\n      tag_17\n        /* \"contracts/lottery.sol\":3844:3856  getBalance() */\n      jump\t// in\n    tag_90:\n        /* \"contracts/lottery.sol\":3829:3856  uint balance = getBalance() */\n      swap1\n      pop\n        /* \"contracts/lottery.sol\":3885:3892  balance */\n      dup1\n        /* \"contracts/lottery.sol\":3875:3881  amount */\n      dup3\n        /* \"contracts/lottery.sol\":3875:3892  amount <= balance */\n      gt\n      iszero\n        /* \"contracts/lottery.sol\":3923:3947  Strings.toString(amount) */\n      tag_91\n        /* \"contracts/lottery.sol\":3940:3946  amount */\n      dup4\n        /* \"contracts/lottery.sol\":3923:3939  Strings.toString */\n      tag_92\n        /* \"contracts/lottery.sol\":3923:3947  Strings.toString(amount) */\n      jump\t// in\n    tag_91:\n        /* \"contracts/lottery.sol\":3991:4016  Strings.toString(balance) */\n      tag_93\n        /* \"contracts/lottery.sol\":4008:4015  balance */\n      dup4\n        /* \"contracts/lottery.sol\":3991:4007  Strings.toString */\n      tag_92\n        /* \"contracts/lottery.sol\":3991:4016  Strings.toString(balance) */\n      jump\t// in\n    tag_93:\n        /* \"contracts/lottery.sol\":3894:4017  string.concat(\"The amount \", Strings.toString(amount), \" is greater than the contract balance \", Strings.toString(balance)) */\n      add(0x20, mload(0x40))\n      tag_94\n      swap3\n      swap2\n      swap1\n      tag_95\n      jump\t// in\n    tag_94:\n      mload(0x40)\n      0x20\n      dup2\n      dup4\n      sub\n      sub\n      dup2\n      mstore\n      swap1\n      0x40\n      mstore\n        /* \"contracts/lottery.sol\":3867:4018  require(amount <= balance, string.concat(\"The amount \", Strings.toString(amount), \" is greater than the contract balance \", Strings.toString(balance))) */\n      swap1\n      tag_96\n      jumpi\n      mload(0x40)\n      0x08c379a000000000000000000000000000000000000000000000000000000000\n      dup2\n      mstore\n      0x04\n      add\n      tag_97\n      swap2\n      swap1\n      tag_98\n      jump\t// in\n    tag_97:\n      mload(0x40)\n      dup1\n      swap2\n      sub\n      swap1\n      revert\n    tag_96:\n      pop\n        /* \"contracts/lottery.sol\":523:565  0xAb8483F64d9C6d1EcF9b849Ae677dD3315835cb2 */\n      0xab8483f64d9c6d1ecf9b849ae677dd3315835cb2\n        /* \"contracts/lottery.sol\":4029:4053  operatorAddress.transfer */\n      0xffffffffffffffffffffffffffffffffffffffff\n      and\n        /* \"contracts/lottery.sol\":4029:4061  operatorAddress.transfer(amount) */\n      0x08fc\n        /* \"contracts/lottery.sol\":4054:4060  amount */\n      dup4\n        /* \"contracts/lottery.sol\":4029:4061  operatorAddress.transfer(amount) */\n      swap1\n      dup2\n      iszero\n      mul\n      swap1\n      mload(0x40)\n      0x00\n      mload(0x40)\n      dup1\n      dup4\n      sub\n      dup2\n      dup6\n      dup9\n      dup9\n      call\n      swap4\n      pop\n      pop\n      pop\n      pop\n      iszero\n      dup1\n      iszero\n      tag_100\n      jumpi\n      returndatasize\n      0x00\n      dup1\n      returndatacopy\n      revert(0x00, returndatasize)\n    tag_100:\n      pop\n        /* \"contracts/lottery.sol\":3744:4069  {... */\n      pop\n        /* \"contracts/lottery.sol\":3706:4069  function withdraw(uint amount) public {... */\n      pop\n      jump\t// out\n        /* \"contracts/lottery.sol\":1877:2672  function chooseWinningAddress() public view returns (address payable) {... */\n    tag_41:\n        /* \"contracts/lottery.sol\":1930:1945  address payable */\n      0x00\n        /* \"contracts/lottery.sol\":1958:1973  uint numPlayers */\n      dup1\n        /* \"contracts/lottery.sol\":1976:1994  list_playerAddress */\n      0x02\n        /* \"contracts/lottery.sol\":1976:2001  list_playerAddress.length */\n      dup1\n      sload\n      swap1\n      pop\n        /* \"contracts/lottery.sol\":1958:2001  uint numPlayers = list_playerAddress.length */\n      swap1\n      pop\n        /* \"contracts/lottery.sol\":2012:2023  uint winner */\n      0x00\n        /* \"contracts/lottery.sol\":2132:2133  0 */\n      dup1\n        /* \"contracts/lottery.sol\":2118:2128  numPlayers */\n      dup3\n        /* \"contracts/lottery.sol\":2118:2133  numPlayers == 0 */\n      sub\n        /* \"contracts/lottery.sol\":2115:2619  if(numPlayers == 0) {... */\n      tag_102\n      jumpi\n        /* \"contracts/lottery.sol\":319:361  0x0000000000000000000000000000000000000000 */\n      0x00\n        /* \"contracts/lottery.sol\":2219:2237  return zeroAddress */\n      swap3\n      pop\n      pop\n      pop\n      jump(tag_101)\n        /* \"contracts/lottery.sol\":2115:2619  if(numPlayers == 0) {... */\n    tag_102:\n        /* \"contracts/lottery.sol\":2281:2282  1 */\n      0x01\n        /* \"contracts/lottery.sol\":2267:2277  numPlayers */\n      dup3\n        /* \"contracts/lottery.sol\":2267:2282  numPlayers == 1 */\n      sub\n        /* \"contracts/lottery.sol\":2264:2619  if(numPlayers == 1) {... */\n      tag_104\n      jumpi\n        /* \"contracts/lottery.sol\":2411:2412  0 */\n      0x00\n        /* \"contracts/lottery.sol\":2402:2412  winner = 0 */\n      swap1\n      pop\n        /* \"contracts/lottery.sol\":2264:2619  if(numPlayers == 1) {... */\n      jump(tag_105)\n    tag_104:\n        /* \"contracts/lottery.sol\":2586:2607  randomInt(numPlayers) */\n      tag_106\n        /* \"contracts/lottery.sol\":2596:2606  numPlayers */\n      dup3\n        /* \"contracts/lottery.sol\":2586:2595  randomInt */\n      tag_24\n        /* \"contracts/lottery.sol\":2586:2607  randomInt(numPlayers) */\n      jump\t// in\n    tag_106:\n        /* \"contracts/lottery.sol\":2577:2607  winner = randomInt(numPlayers) */\n      swap1\n      pop\n        /* \"contracts/lottery.sol\":2264:2619  if(numPlayers == 1) {... */\n    tag_105:\n        /* \"contracts/lottery.sol\":2638:2656  list_playerAddress */\n      0x02\n        /* \"contracts/lottery.sol\":2657:2663  winner */\n      dup2\n        /* \"contracts/lottery.sol\":2638:2664  list_playerAddress[winner] */\n      dup2\n      sload\n      dup2\n      lt\n      tag_107\n      jumpi\n      tag_108\n      tag_109\n      jump\t// in\n    tag_108:\n    tag_107:\n      swap1\n      0x00\n      mstore\n      keccak256(0x00, 0x20)\n      add\n      0x00\n      swap1\n      sload\n      swap1\n      0x0100\n      exp\n      swap1\n      div\n      0xffffffffffffffffffffffffffffffffffffffff\n      and\n        /* \"contracts/lottery.sol\":2631:2664  return list_playerAddress[winner] */\n      swap3\n      pop\n      pop\n      pop\n        /* \"contracts/lottery.sol\":1877:2672  function chooseWinningAddress() public view returns (address payable) {... */\n    tag_101:\n      swap1\n      jump\t// out\n        /* \"contracts/lottery.sol\":3545:3698  function withdrawAll() public {... */\n    tag_45:\n        /* \"contracts/lottery.sol\":523:565  0xAb8483F64d9C6d1EcF9b849Ae677dD3315835cb2 */\n      0xab8483f64d9c6d1ecf9b849ae677dd3315835cb2\n        /* \"contracts/lottery.sol\":3652:3676  operatorAddress.transfer */\n      0xffffffffffffffffffffffffffffffffffffffff\n      and\n        /* \"contracts/lottery.sol\":3652:3690  operatorAddress.transfer(getBalance()) */\n      0x08fc\n        /* \"contracts/lottery.sol\":3677:3689  getBalance() */\n      tag_112\n        /* \"contracts/lottery.sol\":3677:3687  getBalance */\n      tag_17\n        /* \"contracts/lottery.sol\":3677:3689  getBalance() */\n      jump\t// in\n    tag_112:\n        /* \"contracts/lottery.sol\":3652:3690  operatorAddress.transfer(getBalance()) */\n      swap1\n      dup2\n      iszero\n      mul\n      swap1\n      mload(0x40)\n      0x00\n      mload(0x40)\n      dup1\n      dup4\n      sub\n      dup2\n      dup6\n      dup9\n      dup9\n      call\n      swap4\n      pop\n      pop\n      pop\n      pop\n      iszero\n      dup1\n      iszero\n      tag_114\n      jumpi\n      returndatasize\n      0x00\n      dup1\n      returndatacopy\n      revert(0x00, returndatasize)\n    tag_114:\n      pop\n        /* \"contracts/lottery.sol\":3545:3698  function withdrawAll() public {... */\n      jump\t// out\n        /* \"contracts/lottery.sol\":1731:1869  function isAddressPlaying(address payable playerAddress) public view returns (bool) {... */\n    tag_50:\n        /* \"contracts/lottery.sol\":1809:1813  bool */\n      0x00\n        /* \"contracts/lottery.sol\":1833:1846  map_isPlaying */\n      0x01\n        /* \"contracts/lottery.sol\":1833:1861  map_isPlaying[playerAddress] */\n      0x00\n        /* \"contracts/lottery.sol\":1847:1860  playerAddress */\n      dup4\n        /* \"contracts/lottery.sol\":1833:1861  map_isPlaying[playerAddress] */\n      0xffffffffffffffffffffffffffffffffffffffff\n      and\n      0xffffffffffffffffffffffffffffffffffffffff\n      and\n      dup2\n      mstore\n      0x20\n      add\n      swap1\n      dup2\n      mstore\n      0x20\n      add\n      0x00\n      keccak256\n      0x00\n      swap1\n      sload\n      swap1\n      0x0100\n      exp\n      swap1\n      div\n      0xff\n      and\n        /* \"contracts/lottery.sol\":1826:1861  return map_isPlaying[playerAddress] */\n      swap1\n      pop\n        /* \"contracts/lottery.sol\":1731:1869  function isAddressPlaying(address payable playerAddress) public view returns (bool) {... */\n      swap2\n      swap1\n      pop\n      jump\t// out\n        /* \"contracts/lottery.sol\":1241:1719  function registerAddress(address payable playerAddress) public {... */\n    tag_56:\n      pop\n      jump\t// out\n        /* \"contracts/lottery.sol\":872:1233  function fundLottery() public payable {... */\n    tag_58:\n        /* \"contracts/lottery.sol\":1169:1178  msg.value */\n      callvalue\n        /* \"contracts/lottery.sol\":1155:1165  totalPrize */\n      0x00\n      dup1\n        /* \"contracts/lottery.sol\":1155:1178  totalPrize += msg.value */\n      dup3\n      dup3\n      sload\n      tag_118\n      swap2\n      swap1\n      tag_119\n      jump\t// in\n    tag_118:\n      swap3\n      pop\n      pop\n      dup2\n      swap1\n      sstore\n      pop\n        /* \"contracts/lottery.sol\":1189:1225  registerAddress(payable(msg.sender)) */\n      tag_120\n        /* \"contracts/lottery.sol\":1213:1223  msg.sender */\n      caller\n        /* \"contracts/lottery.sol\":1189:1204  registerAddress */\n      tag_56\n        /* \"contracts/lottery.sol\":1189:1225  registerAddress(payable(msg.sender)) */\n      jump\t// in\n    tag_120:\n        /* \"contracts/lottery.sol\":872:1233  function fundLottery() public payable {... */\n      jump\t// out\n        /* \"contracts/lottery.sol\":3287:3537  function fundContract() external payable {... */\n    tag_60:\n      jump\t// out\n        /* \"contracts/lottery.sol\":736:781  mapping(address => bool) public map_isPlaying */\n    tag_65:\n      mstore(0x20, 0x01)\n      dup1\n      0x00\n      mstore\n      keccak256(0x00, 0x40)\n      0x00\n      swap2\n      pop\n      sload\n      swap1\n      0x0100\n      exp\n      swap1\n      div\n      0xff\n      and\n      dup2\n      jump\t// out\n        /* \"@openzeppelin/contracts/utils/Strings.sol\":392:1095  function toString(uint256 value) internal pure returns (string memory) {... */\n    tag_92:\n        /* \"@openzeppelin/contracts/utils/Strings.sol\":448:461  string memory */\n      0x60\n        /* \"@openzeppelin/contracts/utils/Strings.sol\":674:675  0 */\n      0x00\n        /* \"@openzeppelin/contracts/utils/Strings.sol\":665:670  value */\n      dup3\n        /* \"@openzeppelin/contracts/utils/Strings.sol\":665:675  value == 0 */\n      sub\n        /* \"@openzeppelin/contracts/utils/Strings.sol\":661:712  if (value == 0) {... */\n      tag_123\n      jumpi\n        /* \"@openzeppelin/contracts/utils/Strings.sol\":691:701  return \"0\" */\n      mload(0x40)\n      dup1\n      0x40\n      add\n      0x40\n      mstore\n      dup1\n      0x01\n      dup2\n      mstore\n      0x20\n      add\n      0x3000000000000000000000000000000000000000000000000000000000000000\n      dup2\n      mstore\n      pop\n      swap1\n      pop\n      jump(tag_122)\n        /* \"@openzeppelin/contracts/utils/Strings.sol\":661:712  if (value == 0) {... */\n    tag_123:\n        /* \"@openzeppelin/contracts/utils/Strings.sol\":721:733  uint256 temp */\n      0x00\n        /* \"@openzeppelin/contracts/utils/Strings.sol\":736:741  value */\n      dup3\n        /* \"@openzeppelin/contracts/utils/Strings.sol\":721:741  uint256 temp = value */\n      swap1\n      pop\n        /* \"@openzeppelin/contracts/utils/Strings.sol\":751:765  uint256 digits */\n      0x00\n        /* \"@openzeppelin/contracts/utils/Strings.sol\":775:850  while (temp != 0) {... */\n    tag_124:\n        /* \"@openzeppelin/contracts/utils/Strings.sol\":790:791  0 */\n      0x00\n        /* \"@openzeppelin/contracts/utils/Strings.sol\":782:786  temp */\n      dup3\n        /* \"@openzeppelin/contracts/utils/Strings.sol\":782:791  temp != 0 */\n      eq\n        /* \"@openzeppelin/contracts/utils/Strings.sol\":775:850  while (temp != 0) {... */\n      tag_125\n      jumpi\n        /* \"@openzeppelin/contracts/utils/Strings.sol\":807:815  digits++ */\n      dup1\n      dup1\n      tag_126\n      swap1\n      tag_127\n      jump\t// in\n    tag_126:\n      swap2\n      pop\n      pop\n        /* \"@openzeppelin/contracts/utils/Strings.sol\":837:839  10 */\n      0x0a\n        /* \"@openzeppelin/contracts/utils/Strings.sol\":829:839  temp /= 10 */\n      dup3\n      tag_128\n      swap2\n      swap1\n      tag_80\n      jump\t// in\n    tag_128:\n      swap2\n      pop\n        /* \"@openzeppelin/contracts/utils/Strings.sol\":775:850  while (temp != 0) {... */\n      jump(tag_124)\n    tag_125:\n        /* \"@openzeppelin/contracts/utils/Strings.sol\":859:878  bytes memory buffer */\n      0x00\n        /* \"@openzeppelin/contracts/utils/Strings.sol\":891:897  digits */\n      dup2\n        /* \"@openzeppelin/contracts/utils/Strings.sol\":881:898  new bytes(digits) */\n      0xffffffffffffffff\n      dup2\n      gt\n      iszero\n      tag_129\n      jumpi\n      tag_130\n      tag_131\n      jump\t// in\n    tag_130:\n    tag_129:\n      mload(0x40)\n      swap1\n      dup1\n      dup3\n      mstore\n      dup1\n      0x1f\n      add\n      not(0x1f)\n      and\n      0x20\n      add\n      dup3\n      add\n      0x40\n      mstore\n      dup1\n      iszero\n      tag_132\n      jumpi\n      dup2\n      0x20\n      add\n      0x01\n      dup3\n      mul\n      dup1\n      calldatasize\n      dup4\n      calldatacopy\n      dup1\n      dup3\n      add\n      swap2\n      pop\n      pop\n      swap1\n      pop\n    tag_132:\n      pop\n        /* \"@openzeppelin/contracts/utils/Strings.sol\":859:898  bytes memory buffer = new bytes(digits) */\n      swap1\n      pop\n        /* \"@openzeppelin/contracts/utils/Strings.sol\":908:1058  while (value != 0) {... */\n    tag_133:\n        /* \"@openzeppelin/contracts/utils/Strings.sol\":924:925  0 */\n      0x00\n        /* \"@openzeppelin/contracts/utils/Strings.sol\":915:920  value */\n      dup6\n        /* \"@openzeppelin/contracts/utils/Strings.sol\":915:925  value != 0 */\n      eq\n        /* \"@openzeppelin/contracts/utils/Strings.sol\":908:1058  while (value != 0) {... */\n      tag_134\n      jumpi\n        /* \"@openzeppelin/contracts/utils/Strings.sol\":951:952  1 */\n      0x01\n        /* \"@openzeppelin/contracts/utils/Strings.sol\":941:952  digits -= 1 */\n      dup3\n      tag_135\n      swap2\n      swap1\n      tag_82\n      jump\t// in\n    tag_135:\n      swap2\n      pop\n        /* \"@openzeppelin/contracts/utils/Strings.sol\":1017:1019  10 */\n      0x0a\n        /* \"@openzeppelin/contracts/utils/Strings.sol\":1009:1014  value */\n      dup6\n        /* \"@openzeppelin/contracts/utils/Strings.sol\":1009:1019  value % 10 */\n      tag_136\n      swap2\n      swap1\n      tag_72\n      jump\t// in\n    tag_136:\n        /* \"@openzeppelin/contracts/utils/Strings.sol\":996:998  48 */\n      0x30\n        /* \"@openzeppelin/contracts/utils/Strings.sol\":996:1020  48 + uint256(value % 10) */\n      tag_137\n      swap2\n      swap1\n      tag_119\n      jump\t// in\n    tag_137:\n        /* \"@openzeppelin/contracts/utils/Strings.sol\":983:1022  bytes1(uint8(48 + uint256(value % 10))) */\n      0xf8\n      shl\n        /* \"@openzeppelin/contracts/utils/Strings.sol\":966:972  buffer */\n      dup2\n        /* \"@openzeppelin/contracts/utils/Strings.sol\":973:979  digits */\n      dup4\n        /* \"@openzeppelin/contracts/utils/Strings.sol\":966:980  buffer[digits] */\n      dup2\n      mload\n      dup2\n      lt\n      tag_138\n      jumpi\n      tag_139\n      tag_109\n      jump\t// in\n    tag_139:\n    tag_138:\n      0x20\n      add\n      add\n        /* \"@openzeppelin/contracts/utils/Strings.sol\":966:1022  buffer[digits] = bytes1(uint8(48 + uint256(value % 10))) */\n      swap1\n      not(0xffffffffffffffffffffffffffffffffffffffffffffffffffffffffffffff)\n      and\n      swap1\n      dup2\n      0x00\n      byte\n      swap1\n      mstore8\n      pop\n        /* \"@openzeppelin/contracts/utils/Strings.sol\":1045:1047  10 */\n      0x0a\n        /* \"@openzeppelin/contracts/utils/Strings.sol\":1036:1047  value /= 10 */\n      dup6\n      tag_140\n      swap2\n      swap1\n      tag_80\n      jump\t// in\n    tag_140:\n      swap5\n      pop\n        /* \"@openzeppelin/contracts/utils/Strings.sol\":908:1058  while (value != 0) {... */\n      jump(tag_133)\n    tag_134:\n        /* \"@openzeppelin/contracts/utils/Strings.sol\":1081:1087  buffer */\n      dup1\n        /* \"@openzeppelin/contracts/utils/Strings.sol\":1067:1088  return string(buffer) */\n      swap4\n      pop\n      pop\n      pop\n      pop\n        /* \"@openzeppelin/contracts/utils/Strings.sol\":392:1095  function toString(uint256 value) internal pure returns (string memory) {... */\n    tag_122:\n      swap2\n      swap1\n      pop\n      jump\t// out\n        /* \"#utility.yul\":7:84   */\n    tag_141:\n        /* \"#utility.yul\":44:51   */\n      0x00\n        /* \"#utility.yul\":73:78   */\n      dup2\n        /* \"#utility.yul\":62:78   */\n      swap1\n      pop\n        /* \"#utility.yul\":7:84   */\n      swap2\n      swap1\n      pop\n      jump\t// out\n        /* \"#utility.yul\":90:208   */\n    tag_142:\n        /* \"#utility.yul\":177:201   */\n      tag_175\n        /* \"#utility.yul\":195:200   */\n      dup2\n        /* \"#utility.yul\":177:201   */\n      tag_141\n      jump\t// in\n    tag_175:\n        /* \"#utility.yul\":172:175   */\n      dup3\n        /* \"#utility.yul\":165:202   */\n      mstore\n        /* \"#utility.yul\":90:208   */\n      pop\n      pop\n      jump\t// out\n        /* \"#utility.yul\":214:436   */\n    tag_19:\n        /* \"#utility.yul\":307:311   */\n      0x00\n        /* \"#utility.yul\":345:347   */\n      0x20\n        /* \"#utility.yul\":334:343   */\n      dup3\n        /* \"#utility.yul\":330:348   */\n      add\n        /* \"#utility.yul\":322:348   */\n      swap1\n      pop\n        /* \"#utility.yul\":358:429   */\n      tag_177\n        /* \"#utility.yul\":426:427   */\n      0x00\n        /* \"#utility.yul\":415:424   */\n      dup4\n        /* \"#utility.yul\":411:428   */\n      add\n        /* \"#utility.yul\":402:408   */\n      dup5\n        /* \"#utility.yul\":358:429   */\n      tag_142\n      jump\t// in\n    tag_177:\n        /* \"#utility.yul\":214:436   */\n      swap3\n      swap2\n      pop\n      pop\n      jump\t// out\n        /* \"#utility.yul\":523:640   */\n    tag_144:\n        /* \"#utility.yul\":632:633   */\n      0x00\n        /* \"#utility.yul\":629:630   */\n      dup1\n        /* \"#utility.yul\":622:634   */\n      revert\n        /* \"#utility.yul\":769:891   */\n    tag_146:\n        /* \"#utility.yul\":842:866   */\n      tag_182\n        /* \"#utility.yul\":860:865   */\n      dup2\n        /* \"#utility.yul\":842:866   */\n      tag_141\n      jump\t// in\n    tag_182:\n        /* \"#utility.yul\":835:840   */\n      dup2\n        /* \"#utility.yul\":832:867   */\n      eq\n        /* \"#utility.yul\":822:885   */\n      tag_183\n      jumpi\n        /* \"#utility.yul\":881:882   */\n      0x00\n        /* \"#utility.yul\":878:879   */\n      dup1\n        /* \"#utility.yul\":871:883   */\n      revert\n        /* \"#utility.yul\":822:885   */\n    tag_183:\n        /* \"#utility.yul\":769:891   */\n      pop\n      jump\t// out\n        /* \"#utility.yul\":897:1036   */\n    tag_147:\n        /* \"#utility.yul\":943:948   */\n      0x00\n        /* \"#utility.yul\":981:987   */\n      dup2\n        /* \"#utility.yul\":968:988   */\n      calldataload\n        /* \"#utility.yul\":959:988   */\n      swap1\n      pop\n        /* \"#utility.yul\":997:1030   */\n      tag_185\n        /* \"#utility.yul\":1024:1029   */\n      dup2\n        /* \"#utility.yul\":997:1030   */\n      tag_146\n      jump\t// in\n    tag_185:\n        /* \"#utility.yul\":897:1036   */\n      swap3\n      swap2\n      pop\n      pop\n      jump\t// out\n        /* \"#utility.yul\":1042:1371   */\n    tag_23:\n        /* \"#utility.yul\":1101:1107   */\n      0x00\n        /* \"#utility.yul\":1150:1152   */\n      0x20\n        /* \"#utility.yul\":1138:1147   */\n      dup3\n        /* \"#utility.yul\":1129:1136   */\n      dup5\n        /* \"#utility.yul\":1125:1148   */\n      sub\n        /* \"#utility.yul\":1121:1153   */\n      slt\n        /* \"#utility.yul\":1118:1237   */\n      iszero\n      tag_187\n      jumpi\n        /* \"#utility.yul\":1156:1235   */\n      tag_188\n      tag_144\n      jump\t// in\n    tag_188:\n        /* \"#utility.yul\":1118:1237   */\n    tag_187:\n        /* \"#utility.yul\":1276:1277   */\n      0x00\n        /* \"#utility.yul\":1301:1354   */\n      tag_189\n        /* \"#utility.yul\":1346:1353   */\n      dup5\n        /* \"#utility.yul\":1337:1343   */\n      dup3\n        /* \"#utility.yul\":1326:1335   */\n      dup6\n        /* \"#utility.yul\":1322:1344   */\n      add\n        /* \"#utility.yul\":1301:1354   */\n      tag_147\n      jump\t// in\n    tag_189:\n        /* \"#utility.yul\":1291:1354   */\n      swap2\n      pop\n        /* \"#utility.yul\":1247:1364   */\n      pop\n        /* \"#utility.yul\":1042:1371   */\n      swap3\n      swap2\n      pop\n      pop\n      jump\t// out\n        /* \"#utility.yul\":1377:1503   */\n    tag_148:\n        /* \"#utility.yul\":1414:1421   */\n      0x00\n        /* \"#utility.yul\":1454:1496   */\n      0xffffffffffffffffffffffffffffffffffffffff\n        /* \"#utility.yul\":1447:1452   */\n      dup3\n        /* \"#utility.yul\":1443:1497   */\n      and\n        /* \"#utility.yul\":1432:1497   */\n      swap1\n      pop\n        /* \"#utility.yul\":1377:1503   */\n      swap2\n      swap1\n      pop\n      jump\t// out\n        /* \"#utility.yul\":1509:1613   */\n    tag_149:\n        /* \"#utility.yul\":1554:1561   */\n      0x00\n        /* \"#utility.yul\":1583:1607   */\n      tag_192\n        /* \"#utility.yul\":1601:1606   */\n      dup3\n        /* \"#utility.yul\":1583:1607   */\n      tag_148\n      jump\t// in\n    tag_192:\n        /* \"#utility.yul\":1572:1607   */\n      swap1\n      pop\n        /* \"#utility.yul\":1509:1613   */\n      swap2\n      swap1\n      pop\n      jump\t// out\n        /* \"#utility.yul\":1619:1761   */\n    tag_150:\n        /* \"#utility.yul\":1722:1754   */\n      tag_194\n        /* \"#utility.yul\":1748:1753   */\n      dup2\n        /* \"#utility.yul\":1722:1754   */\n      tag_149\n      jump\t// in\n    tag_194:\n        /* \"#utility.yul\":1717:1720   */\n      dup3\n        /* \"#utility.yul\":1710:1755   */\n      mstore\n        /* \"#utility.yul\":1619:1761   */\n      pop\n      pop\n      jump\t// out\n        /* \"#utility.yul\":1767:2021   */\n    tag_34:\n        /* \"#utility.yul\":1876:1880   */\n      0x00\n        /* \"#utility.yul\":1914:1916   */\n      0x20\n        /* \"#utility.yul\":1903:1912   */\n      dup3\n        /* \"#utility.yul\":1899:1917   */\n      add\n        /* \"#utility.yul\":1891:1917   */\n      swap1\n      pop\n        /* \"#utility.yul\":1927:2014   */\n      tag_196\n        /* \"#utility.yul\":2011:2012   */\n      0x00\n        /* \"#utility.yul\":2000:2009   */\n      dup4\n        /* \"#utility.yul\":1996:2013   */\n      add\n        /* \"#utility.yul\":1987:1993   */\n      dup5\n        /* \"#utility.yul\":1927:2014   */\n      tag_150\n      jump\t// in\n    tag_196:\n        /* \"#utility.yul\":1767:2021   */\n      swap3\n      swap2\n      pop\n      pop\n      jump\t// out\n        /* \"#utility.yul\":2027:2165   */\n    tag_151:\n        /* \"#utility.yul\":2108:2140   */\n      tag_198\n        /* \"#utility.yul\":2134:2139   */\n      dup2\n        /* \"#utility.yul\":2108:2140   */\n      tag_149\n      jump\t// in\n    tag_198:\n        /* \"#utility.yul\":2101:2106   */\n      dup2\n        /* \"#utility.yul\":2098:2141   */\n      eq\n        /* \"#utility.yul\":2088:2159   */\n      tag_199\n      jumpi\n        /* \"#utility.yul\":2155:2156   */\n      0x00\n        /* \"#utility.yul\":2152:2153   */\n      dup1\n        /* \"#utility.yul\":2145:2157   */\n      revert\n        /* \"#utility.yul\":2088:2159   */\n    tag_199:\n        /* \"#utility.yul\":2027:2165   */\n      pop\n      jump\t// out\n        /* \"#utility.yul\":2171:2326   */\n    tag_152:\n        /* \"#utility.yul\":2225:2230   */\n      0x00\n        /* \"#utility.yul\":2263:2269   */\n      dup2\n        /* \"#utility.yul\":2250:2270   */\n      calldataload\n        /* \"#utility.yul\":2241:2270   */\n      swap1\n      pop\n        /* \"#utility.yul\":2279:2320   */\n      tag_201\n        /* \"#utility.yul\":2314:2319   */\n      dup2\n        /* \"#utility.yul\":2279:2320   */\n      tag_151\n      jump\t// in\n    tag_201:\n        /* \"#utility.yul\":2171:2326   */\n      swap3\n      swap2\n      pop\n      pop\n      jump\t// out\n        /* \"#utility.yul\":2332:2677   */\n    tag_49:\n        /* \"#utility.yul\":2399:2405   */\n      0x00\n        /* \"#utility.yul\":2448:2450   */\n      0x20\n        /* \"#utility.yul\":2436:2445   */\n      dup3\n        /* \"#utility.yul\":2427:2434   */\n      dup5\n        /* \"#utility.yul\":2423:2446   */\n      sub\n        /* \"#utility.yul\":2419:2451   */\n      slt\n        /* \"#utility.yul\":2416:2535   */\n      iszero\n      tag_203\n      jumpi\n        /* \"#utility.yul\":2454:2533   */\n      tag_204\n      tag_144\n      jump\t// in\n    tag_204:\n        /* \"#utility.yul\":2416:2535   */\n    tag_203:\n        /* \"#utility.yul\":2574:2575   */\n      0x00\n        /* \"#utility.yul\":2599:2660   */\n      tag_205\n        /* \"#utility.yul\":2652:2659   */\n      dup5\n        /* \"#utility.yul\":2643:2649   */\n      dup3\n        /* \"#utility.yul\":2632:2641   */\n      dup6\n        /* \"#utility.yul\":2628:2650   */\n      add\n        /* \"#utility.yul\":2599:2660   */\n      tag_152\n      jump\t// in\n    tag_205:\n        /* \"#utility.yul\":2589:2660   */\n      swap2\n      pop\n        /* \"#utility.yul\":2545:2670   */\n      pop\n        /* \"#utility.yul\":2332:2677   */\n      swap3\n      swap2\n      pop\n      pop\n      jump\t// out\n        /* \"#utility.yul\":2683:2773   */\n    tag_153:\n        /* \"#utility.yul\":2717:2724   */\n      0x00\n        /* \"#utility.yul\":2760:2765   */\n      dup2\n        /* \"#utility.yul\":2753:2766   */\n      iszero\n        /* \"#utility.yul\":2746:2767   */\n      iszero\n        /* \"#utility.yul\":2735:2767   */\n      swap1\n      pop\n        /* \"#utility.yul\":2683:2773   */\n      swap2\n      swap1\n      pop\n      jump\t// out\n        /* \"#utility.yul\":2779:2888   */\n    tag_154:\n        /* \"#utility.yul\":2860:2881   */\n      tag_208\n        /* \"#utility.yul\":2875:2880   */\n      dup2\n        /* \"#utility.yul\":2860:2881   */\n      tag_153\n      jump\t// in\n    tag_208:\n        /* \"#utility.yul\":2855:2858   */\n      dup3\n        /* \"#utility.yul\":2848:2882   */\n      mstore\n        /* \"#utility.yul\":2779:2888   */\n      pop\n      pop\n      jump\t// out\n        /* \"#utility.yul\":2894:3104   */\n    tag_52:\n        /* \"#utility.yul\":2981:2985   */\n      0x00\n        /* \"#utility.yul\":3019:3021   */\n      0x20\n        /* \"#utility.yul\":3008:3017   */\n      dup3\n        /* \"#utility.yul\":3004:3022   */\n      add\n        /* \"#utility.yul\":2996:3022   */\n      swap1\n      pop\n        /* \"#utility.yul\":3032:3097   */\n      tag_210\n        /* \"#utility.yul\":3094:3095   */\n      0x00\n        /* \"#utility.yul\":3083:3092   */\n      dup4\n        /* \"#utility.yul\":3079:3096   */\n      add\n        /* \"#utility.yul\":3070:3076   */\n      dup5\n        /* \"#utility.yul\":3032:3097   */\n      tag_154\n      jump\t// in\n    tag_210:\n        /* \"#utility.yul\":2894:3104   */\n      swap3\n      swap2\n      pop\n      pop\n      jump\t// out\n        /* \"#utility.yul\":3110:3206   */\n    tag_155:\n        /* \"#utility.yul\":3147:3154   */\n      0x00\n        /* \"#utility.yul\":3176:3200   */\n      tag_212\n        /* \"#utility.yul\":3194:3199   */\n      dup3\n        /* \"#utility.yul\":3176:3200   */\n      tag_148\n      jump\t// in\n    tag_212:\n        /* \"#utility.yul\":3165:3200   */\n      swap1\n      pop\n        /* \"#utility.yul\":3110:3206   */\n      swap2\n      swap1\n      pop\n      jump\t// out\n        /* \"#utility.yul\":3212:3334   */\n    tag_156:\n        /* \"#utility.yul\":3285:3309   */\n      tag_214\n        /* \"#utility.yul\":3303:3308   */\n      dup2\n        /* \"#utility.yul\":3285:3309   */\n      tag_155\n      jump\t// in\n    tag_214:\n        /* \"#utility.yul\":3278:3283   */\n      dup2\n        /* \"#utility.yul\":3275:3310   */\n      eq\n        /* \"#utility.yul\":3265:3328   */\n      tag_215\n      jumpi\n        /* \"#utility.yul\":3324:3325   */\n      0x00\n        /* \"#utility.yul\":3321:3322   */\n      dup1\n        /* \"#utility.yul\":3314:3326   */\n      revert\n        /* \"#utility.yul\":3265:3328   */\n    tag_215:\n        /* \"#utility.yul\":3212:3334   */\n      pop\n      jump\t// out\n        /* \"#utility.yul\":3340:3479   */\n    tag_157:\n        /* \"#utility.yul\":3386:3391   */\n      0x00\n        /* \"#utility.yul\":3424:3430   */\n      dup2\n        /* \"#utility.yul\":3411:3431   */\n      calldataload\n        /* \"#utility.yul\":3402:3431   */\n      swap1\n      pop\n        /* \"#utility.yul\":3440:3473   */\n      tag_217\n        /* \"#utility.yul\":3467:3472   */\n      dup2\n        /* \"#utility.yul\":3440:3473   */\n      tag_156\n      jump\t// in\n    tag_217:\n        /* \"#utility.yul\":3340:3479   */\n      swap3\n      swap2\n      pop\n      pop\n      jump\t// out\n        /* \"#utility.yul\":3485:3814   */\n    tag_64:\n        /* \"#utility.yul\":3544:3550   */\n      0x00\n        /* \"#utility.yul\":3593:3595   */\n      0x20\n        /* \"#utility.yul\":3581:3590   */\n      dup3\n        /* \"#utility.yul\":3572:3579   */\n      dup5\n        /* \"#utility.yul\":3568:3591   */\n      sub\n        /* \"#utility.yul\":3564:3596   */\n      slt\n        /* \"#utility.yul\":3561:3680   */\n      iszero\n      tag_219\n      jumpi\n        /* \"#utility.yul\":3599:3678   */\n      tag_220\n      tag_144\n      jump\t// in\n    tag_220:\n        /* \"#utility.yul\":3561:3680   */\n    tag_219:\n        /* \"#utility.yul\":3719:3720   */\n      0x00\n        /* \"#utility.yul\":3744:3797   */\n      tag_221\n        /* \"#utility.yul\":3789:3796   */\n      dup5\n        /* \"#utility.yul\":3780:3786   */\n      dup3\n        /* \"#utility.yul\":3769:3778   */\n      dup6\n        /* \"#utility.yul\":3765:3787   */\n      add\n        /* \"#utility.yul\":3744:3797   */\n      tag_157\n      jump\t// in\n    tag_221:\n        /* \"#utility.yul\":3734:3797   */\n      swap2\n      pop\n        /* \"#utility.yul\":3690:3807   */\n      pop\n        /* \"#utility.yul\":3485:3814   */\n      swap3\n      swap2\n      pop\n      pop\n      jump\t// out\n        /* \"#utility.yul\":3820:3899   */\n    tag_158:\n        /* \"#utility.yul\":3859:3866   */\n      0x00\n        /* \"#utility.yul\":3888:3893   */\n      dup2\n        /* \"#utility.yul\":3877:3893   */\n      swap1\n      pop\n        /* \"#utility.yul\":3820:3899   */\n      swap2\n      swap1\n      pop\n      jump\t// out\n        /* \"#utility.yul\":3905:4062   */\n    tag_159:\n        /* \"#utility.yul\":4010:4055   */\n      tag_224\n        /* \"#utility.yul\":4030:4054   */\n      tag_225\n        /* \"#utility.yul\":4048:4053   */\n      dup3\n        /* \"#utility.yul\":4030:4054   */\n      tag_141\n      jump\t// in\n    tag_225:\n        /* \"#utility.yul\":4010:4055   */\n      tag_158\n      jump\t// in\n    tag_224:\n        /* \"#utility.yul\":4005:4008   */\n      dup3\n        /* \"#utility.yul\":3998:4056   */\n      mstore\n        /* \"#utility.yul\":3905:4062   */\n      pop\n      pop\n      jump\t// out\n        /* \"#utility.yul\":4068:4465   */\n    tag_70:\n        /* \"#utility.yul\":4208:4211   */\n      0x00\n        /* \"#utility.yul\":4223:4298   */\n      tag_227\n        /* \"#utility.yul\":4294:4297   */\n      dup3\n        /* \"#utility.yul\":4285:4291   */\n      dup6\n        /* \"#utility.yul\":4223:4298   */\n      tag_159\n      jump\t// in\n    tag_227:\n        /* \"#utility.yul\":4323:4325   */\n      0x20\n        /* \"#utility.yul\":4318:4321   */\n      dup3\n        /* \"#utility.yul\":4314:4326   */\n      add\n        /* \"#utility.yul\":4307:4326   */\n      swap2\n      pop\n        /* \"#utility.yul\":4336:4411   */\n      tag_228\n        /* \"#utility.yul\":4407:4410   */\n      dup3\n        /* \"#utility.yul\":4398:4404   */\n      dup5\n        /* \"#utility.yul\":4336:4411   */\n      tag_159\n      jump\t// in\n    tag_228:\n        /* \"#utility.yul\":4436:4438   */\n      0x20\n        /* \"#utility.yul\":4431:4434   */\n      dup3\n        /* \"#utility.yul\":4427:4439   */\n      add\n        /* \"#utility.yul\":4420:4439   */\n      swap2\n      pop\n        /* \"#utility.yul\":4456:4459   */\n      dup2\n        /* \"#utility.yul\":4449:4459   */\n      swap1\n      pop\n        /* \"#utility.yul\":4068:4465   */\n      swap4\n      swap3\n      pop\n      pop\n      pop\n      jump\t// out\n        /* \"#utility.yul\":4471:4651   */\n    tag_160:\n        /* \"#utility.yul\":4519:4596   */\n      0x4e487b7100000000000000000000000000000000000000000000000000000000\n        /* \"#utility.yul\":4516:4517   */\n      0x00\n        /* \"#utility.yul\":4509:4597   */\n      mstore\n        /* \"#utility.yul\":4616:4620   */\n      0x12\n        /* \"#utility.yul\":4613:4614   */\n      0x04\n        /* \"#utility.yul\":4606:4621   */\n      mstore\n        /* \"#utility.yul\":4640:4644   */\n      0x24\n        /* \"#utility.yul\":4637:4638   */\n      0x00\n        /* \"#utility.yul\":4630:4645   */\n      revert\n        /* \"#utility.yul\":4657:4833   */\n    tag_72:\n        /* \"#utility.yul\":4689:4690   */\n      0x00\n        /* \"#utility.yul\":4706:4726   */\n      tag_231\n        /* \"#utility.yul\":4724:4725   */\n      dup3\n        /* \"#utility.yul\":4706:4726   */\n      tag_141\n      jump\t// in\n    tag_231:\n        /* \"#utility.yul\":4701:4726   */\n      swap2\n      pop\n        /* \"#utility.yul\":4740:4760   */\n      tag_232\n        /* \"#utility.yul\":4758:4759   */\n      dup4\n        /* \"#utility.yul\":4740:4760   */\n      tag_141\n      jump\t// in\n    tag_232:\n        /* \"#utility.yul\":4735:4760   */\n      swap3\n      pop\n        /* \"#utility.yul\":4779:4780   */\n      dup3\n        /* \"#utility.yul\":4769:4804   */\n      tag_233\n      jumpi\n        /* \"#utility.yul\":4784:4802   */\n      tag_234\n      tag_160\n      jump\t// in\n    tag_234:\n        /* \"#utility.yul\":4769:4804   */\n    tag_233:\n        /* \"#utility.yul\":4825:4826   */\n      dup3\n        /* \"#utility.yul\":4822:4823   */\n      dup3\n        /* \"#utility.yul\":4818:4827   */\n      mod\n        /* \"#utility.yul\":4813:4827   */\n      swap1\n      pop\n        /* \"#utility.yul\":4657:4833   */\n      swap3\n      swap2\n      pop\n      pop\n      jump\t// out\n        /* \"#utility.yul\":4839:5019   */\n    tag_161:\n        /* \"#utility.yul\":4887:4964   */\n      0x4e487b7100000000000000000000000000000000000000000000000000000000\n        /* \"#utility.yul\":4884:4885   */\n      0x00\n        /* \"#utility.yul\":4877:4965   */\n      mstore\n        /* \"#utility.yul\":4984:4988   */\n      0x11\n        /* \"#utility.yul\":4981:4982   */\n      0x04\n        /* \"#utility.yul\":4974:4989   */\n      mstore\n        /* \"#utility.yul\":5008:5012   */\n      0x24\n        /* \"#utility.yul\":5005:5006   */\n      0x00\n        /* \"#utility.yul\":4998:5013   */\n      revert\n        /* \"#utility.yul\":5025:5435   */\n    tag_78:\n        /* \"#utility.yul\":5065:5072   */\n      0x00\n        /* \"#utility.yul\":5088:5108   */\n      tag_237\n        /* \"#utility.yul\":5106:5107   */\n      dup3\n        /* \"#utility.yul\":5088:5108   */\n      tag_141\n      jump\t// in\n    tag_237:\n        /* \"#utility.yul\":5083:5108   */\n      swap2\n      pop\n        /* \"#utility.yul\":5122:5142   */\n      tag_238\n        /* \"#utility.yul\":5140:5141   */\n      dup4\n        /* \"#utility.yul\":5122:5142   */\n      tag_141\n      jump\t// in\n    tag_238:\n        /* \"#utility.yul\":5117:5142   */\n      swap3\n      pop\n        /* \"#utility.yul\":5177:5178   */\n      dup3\n        /* \"#utility.yul\":5174:5175   */\n      dup3\n        /* \"#utility.yul\":5170:5179   */\n      mul\n        /* \"#utility.yul\":5199:5229   */\n      tag_239\n        /* \"#utility.yul\":5217:5228   */\n      dup2\n        /* \"#utility.yul\":5199:5229   */\n      tag_141\n      jump\t// in\n    tag_239:\n        /* \"#utility.yul\":5188:5229   */\n      swap2\n      pop\n        /* \"#utility.yul\":5378:5379   */\n      dup3\n        /* \"#utility.yul\":5369:5376   */\n      dup3\n        /* \"#utility.yul\":5365:5380   */\n      div\n        /* \"#utility.yul\":5362:5363   */\n      dup5\n        /* \"#utility.yul\":5359:5381   */\n      eq\n        /* \"#utility.yul\":5339:5340   */\n      dup4\n        /* \"#utility.yul\":5332:5341   */\n      iszero\n        /* \"#utility.yul\":5312:5395   */\n      or\n        /* \"#utility.yul\":5289:5428   */\n      tag_240\n      jumpi\n        /* \"#utility.yul\":5408:5426   */\n      tag_241\n      tag_161\n      jump\t// in\n    tag_241:\n        /* \"#utility.yul\":5289:5428   */\n    tag_240:\n        /* \"#utility.yul\":5073:5435   */\n      pop\n        /* \"#utility.yul\":5025:5435   */\n      swap3\n      swap2\n      pop\n      pop\n      jump\t// out\n        /* \"#utility.yul\":5441:5626   */\n    tag_80:\n        /* \"#utility.yul\":5481:5482   */\n      0x00\n        /* \"#utility.yul\":5498:5518   */\n      tag_243\n        /* \"#utility.yul\":5516:5517   */\n      dup3\n        /* \"#utility.yul\":5498:5518   */\n      tag_141\n      jump\t// in\n    tag_243:\n        /* \"#utility.yul\":5493:5518   */\n      swap2\n      pop\n        /* \"#utility.yul\":5532:5552   */\n      tag_244\n        /* \"#utility.yul\":5550:5551   */\n      dup4\n        /* \"#utility.yul\":5532:5552   */\n      tag_141\n      jump\t// in\n    tag_244:\n        /* \"#utility.yul\":5527:5552   */\n      swap3\n      pop\n        /* \"#utility.yul\":5571:5572   */\n      dup3\n        /* \"#utility.yul\":5561:5596   */\n      tag_245\n      jumpi\n        /* \"#utility.yul\":5576:5594   */\n      tag_246\n      tag_160\n      jump\t// in\n    tag_246:\n        /* \"#utility.yul\":5561:5596   */\n    tag_245:\n        /* \"#utility.yul\":5618:5619   */\n      dup3\n        /* \"#utility.yul\":5615:5616   */\n      dup3\n        /* \"#utility.yul\":5611:5620   */\n      div\n        /* \"#utility.yul\":5606:5620   */\n      swap1\n      pop\n        /* \"#utility.yul\":5441:5626   */\n      swap3\n      swap2\n      pop\n      pop\n      jump\t// out\n        /* \"#utility.yul\":5632:5826   */\n    tag_82:\n        /* \"#utility.yul\":5672:5676   */\n      0x00\n        /* \"#utility.yul\":5692:5712   */\n      tag_248\n        /* \"#utility.yul\":5710:5711   */\n      dup3\n        /* \"#utility.yul\":5692:5712   */\n      tag_141\n      jump\t// in\n    tag_248:\n        /* \"#utility.yul\":5687:5712   */\n      swap2\n      pop\n        /* \"#utility.yul\":5726:5746   */\n      tag_249\n        /* \"#utility.yul\":5744:5745   */\n      dup4\n        /* \"#utility.yul\":5726:5746   */\n      tag_141\n      jump\t// in\n    tag_249:\n        /* \"#utility.yul\":5721:5746   */\n      swap3\n      pop\n        /* \"#utility.yul\":5770:5771   */\n      dup3\n        /* \"#utility.yul\":5767:5768   */\n      dup3\n        /* \"#utility.yul\":5763:5772   */\n      sub\n        /* \"#utility.yul\":5755:5772   */\n      swap1\n      pop\n        /* \"#utility.yul\":5794:5795   */\n      dup2\n        /* \"#utility.yul\":5788:5792   */\n      dup2\n        /* \"#utility.yul\":5785:5796   */\n      gt\n        /* \"#utility.yul\":5782:5819   */\n      iszero\n      tag_250\n      jumpi\n        /* \"#utility.yul\":5799:5817   */\n      tag_251\n      tag_161\n      jump\t// in\n    tag_251:\n        /* \"#utility.yul\":5782:5819   */\n    tag_250:\n        /* \"#utility.yul\":5632:5826   */\n      swap3\n      swap2\n      pop\n      pop\n      jump\t// out\n        /* \"#utility.yul\":5832:6021   */\n    tag_162:\n        /* \"#utility.yul\":6001:6014   */\n      0x54686520616d6f756e7420000000000000000000000000000000000000000000\n        /* \"#utility.yul\":5996:5999   */\n      dup2\n        /* \"#utility.yul\":5989:6015   */\n      mstore\n        /* \"#utility.yul\":5832:6021   */\n      pop\n      jump\t// out\n        /* \"#utility.yul\":6027:6126   */\n    tag_163:\n        /* \"#utility.yul\":6079:6085   */\n      0x00\n        /* \"#utility.yul\":6113:6118   */\n      dup2\n        /* \"#utility.yul\":6107:6119   */\n      mload\n        /* \"#utility.yul\":6097:6119   */\n      swap1\n      pop\n        /* \"#utility.yul\":6027:6126   */\n      swap2\n      swap1\n      pop\n      jump\t// out\n        /* \"#utility.yul\":6132:6280   */\n    tag_164:\n        /* \"#utility.yul\":6234:6245   */\n      0x00\n        /* \"#utility.yul\":6271:6274   */\n      dup2\n        /* \"#utility.yul\":6256:6274   */\n      swap1\n      pop\n        /* \"#utility.yul\":6132:6280   */\n      swap3\n      swap2\n      pop\n      pop\n      jump\t// out\n        /* \"#utility.yul\":6286:6532   */\n    tag_165:\n        /* \"#utility.yul\":6367:6368   */\n      0x00\n        /* \"#utility.yul\":6377:6490   */\n    tag_256:\n        /* \"#utility.yul\":6391:6397   */\n      dup4\n        /* \"#utility.yul\":6388:6389   */\n      dup2\n        /* \"#utility.yul\":6385:6398   */\n      lt\n        /* \"#utility.yul\":6377:6490   */\n      iszero\n      tag_258\n      jumpi\n        /* \"#utility.yul\":6476:6477   */\n      dup1\n        /* \"#utility.yul\":6471:6474   */\n      dup3\n        /* \"#utility.yul\":6467:6478   */\n      add\n        /* \"#utility.yul\":6461:6479   */\n      mload\n        /* \"#utility.yul\":6457:6458   */\n      dup2\n        /* \"#utility.yul\":6452:6455   */\n      dup5\n        /* \"#utility.yul\":6448:6459   */\n      add\n        /* \"#utility.yul\":6441:6480   */\n      mstore\n        /* \"#utility.yul\":6413:6415   */\n      0x20\n        /* \"#utility.yul\":6410:6411   */\n      dup2\n        /* \"#utility.yul\":6406:6416   */\n      add\n        /* \"#utility.yul\":6401:6416   */\n      swap1\n      pop\n        /* \"#utility.yul\":6377:6490   */\n      jump(tag_256)\n    tag_258:\n        /* \"#utility.yul\":6524:6525   */\n      0x00\n        /* \"#utility.yul\":6515:6521   */\n      dup5\n        /* \"#utility.yul\":6510:6513   */\n      dup5\n        /* \"#utility.yul\":6506:6522   */\n      add\n        /* \"#utility.yul\":6499:6526   */\n      mstore\n        /* \"#utility.yul\":6348:6532   */\n      pop\n        /* \"#utility.yul\":6286:6532   */\n      pop\n      pop\n      pop\n      jump\t// out\n        /* \"#utility.yul\":6538:6928   */\n    tag_166:\n        /* \"#utility.yul\":6644:6647   */\n      0x00\n        /* \"#utility.yul\":6672:6711   */\n      tag_260\n        /* \"#utility.yul\":6705:6710   */\n      dup3\n        /* \"#utility.yul\":6672:6711   */\n      tag_163\n      jump\t// in\n    tag_260:\n        /* \"#utility.yul\":6727:6816   */\n      tag_261\n        /* \"#utility.yul\":6809:6815   */\n      dup2\n        /* \"#utility.yul\":6804:6807   */\n      dup6\n        /* \"#utility.yul\":6727:6816   */\n      tag_164\n      jump\t// in\n    tag_261:\n        /* \"#utility.yul\":6720:6816   */\n      swap4\n      pop\n        /* \"#utility.yul\":6825:6890   */\n      tag_262\n        /* \"#utility.yul\":6883:6889   */\n      dup2\n        /* \"#utility.yul\":6878:6881   */\n      dup6\n        /* \"#utility.yul\":6871:6875   */\n      0x20\n        /* \"#utility.yul\":6864:6869   */\n      dup7\n        /* \"#utility.yul\":6860:6876   */\n      add\n        /* \"#utility.yul\":6825:6890   */\n      tag_165\n      jump\t// in\n    tag_262:\n        /* \"#utility.yul\":6915:6921   */\n      dup1\n        /* \"#utility.yul\":6910:6913   */\n      dup5\n        /* \"#utility.yul\":6906:6922   */\n      add\n        /* \"#utility.yul\":6899:6922   */\n      swap2\n      pop\n        /* \"#utility.yul\":6648:6928   */\n      pop\n        /* \"#utility.yul\":6538:6928   */\n      swap3\n      swap2\n      pop\n      pop\n      jump\t// out\n        /* \"#utility.yul\":6934:7159   */\n    tag_167:\n        /* \"#utility.yul\":7074:7108   */\n      0x2069732067726561746572207468616e2074686520636f6e7472616374206261\n        /* \"#utility.yul\":7070:7071   */\n      0x00\n        /* \"#utility.yul\":7062:7068   */\n      dup3\n        /* \"#utility.yul\":7058:7072   */\n      add\n        /* \"#utility.yul\":7051:7109   */\n      mstore\n        /* \"#utility.yul\":7143:7151   */\n      0x6c616e6365200000000000000000000000000000000000000000000000000000\n        /* \"#utility.yul\":7138:7140   */\n      0x20\n        /* \"#utility.yul\":7130:7136   */\n      dup3\n        /* \"#utility.yul\":7126:7141   */\n      add\n        /* \"#utility.yul\":7119:7152   */\n      mstore\n        /* \"#utility.yul\":6934:7159   */\n      pop\n      jump\t// out\n        /* \"#utility.yul\":7165:7567   */\n    tag_168:\n        /* \"#utility.yul\":7325:7328   */\n      0x00\n        /* \"#utility.yul\":7346:7431   */\n      tag_265\n        /* \"#utility.yul\":7428:7430   */\n      0x26\n        /* \"#utility.yul\":7423:7426   */\n      dup4\n        /* \"#utility.yul\":7346:7431   */\n      tag_164\n      jump\t// in\n    tag_265:\n        /* \"#utility.yul\":7339:7431   */\n      swap2\n      pop\n        /* \"#utility.yul\":7440:7533   */\n      tag_266\n        /* \"#utility.yul\":7529:7532   */\n      dup3\n        /* \"#utility.yul\":7440:7533   */\n      tag_167\n      jump\t// in\n    tag_266:\n        /* \"#utility.yul\":7558:7560   */\n      0x26\n        /* \"#utility.yul\":7553:7556   */\n      dup3\n        /* \"#utility.yul\":7549:7561   */\n      add\n        /* \"#utility.yul\":7542:7561   */\n      swap1\n      pop\n        /* \"#utility.yul\":7165:7567   */\n      swap2\n      swap1\n      pop\n      jump\t// out\n        /* \"#utility.yul\":7573:8541   */\n    tag_95:\n        /* \"#utility.yul\":7945:7948   */\n      0x00\n        /* \"#utility.yul\":7960:8098   */\n      tag_268\n        /* \"#utility.yul\":8094:8097   */\n      dup3\n        /* \"#utility.yul\":7960:8098   */\n      tag_162\n      jump\t// in\n    tag_268:\n        /* \"#utility.yul\":8123:8125   */\n      0x0b\n        /* \"#utility.yul\":8118:8121   */\n      dup3\n        /* \"#utility.yul\":8114:8126   */\n      add\n        /* \"#utility.yul\":8107:8126   */\n      swap2\n      pop\n        /* \"#utility.yul\":8143:8238   */\n      tag_269\n        /* \"#utility.yul\":8234:8237   */\n      dup3\n        /* \"#utility.yul\":8225:8231   */\n      dup6\n        /* \"#utility.yul\":8143:8238   */\n      tag_166\n      jump\t// in\n    tag_269:\n        /* \"#utility.yul\":8136:8238   */\n      swap2\n      pop\n        /* \"#utility.yul\":8255:8403   */\n      tag_270\n        /* \"#utility.yul\":8399:8402   */\n      dup3\n        /* \"#utility.yul\":8255:8403   */\n      tag_168\n      jump\t// in\n    tag_270:\n        /* \"#utility.yul\":8248:8403   */\n      swap2\n      pop\n        /* \"#utility.yul\":8420:8515   */\n      tag_271\n        /* \"#utility.yul\":8511:8514   */\n      dup3\n        /* \"#utility.yul\":8502:8508   */\n      dup5\n        /* \"#utility.yul\":8420:8515   */\n      tag_166\n      jump\t// in\n    tag_271:\n        /* \"#utility.yul\":8413:8515   */\n      swap2\n      pop\n        /* \"#utility.yul\":8532:8535   */\n      dup2\n        /* \"#utility.yul\":8525:8535   */\n      swap1\n      pop\n        /* \"#utility.yul\":7573:8541   */\n      swap4\n      swap3\n      pop\n      pop\n      pop\n      jump\t// out\n        /* \"#utility.yul\":8547:8716   */\n    tag_169:\n        /* \"#utility.yul\":8631:8642   */\n      0x00\n        /* \"#utility.yul\":8665:8671   */\n      dup3\n        /* \"#utility.yul\":8660:8663   */\n      dup3\n        /* \"#utility.yul\":8653:8672   */\n      mstore\n        /* \"#utility.yul\":8705:8709   */\n      0x20\n        /* \"#utility.yul\":8700:8703   */\n      dup3\n        /* \"#utility.yul\":8696:8710   */\n      add\n        /* \"#utility.yul\":8681:8710   */\n      swap1\n      pop\n        /* \"#utility.yul\":8547:8716   */\n      swap3\n      swap2\n      pop\n      pop\n      jump\t// out\n        /* \"#utility.yul\":8722:8824   */\n    tag_170:\n        /* \"#utility.yul\":8763:8769   */\n      0x00\n        /* \"#utility.yul\":8814:8816   */\n      0x1f\n        /* \"#utility.yul\":8810:8817   */\n      not\n        /* \"#utility.yul\":8805:8807   */\n      0x1f\n        /* \"#utility.yul\":8798:8803   */\n      dup4\n        /* \"#utility.yul\":8794:8808   */\n      add\n        /* \"#utility.yul\":8790:8818   */\n      and\n        /* \"#utility.yul\":8780:8818   */\n      swap1\n      pop\n        /* \"#utility.yul\":8722:8824   */\n      swap2\n      swap1\n      pop\n      jump\t// out\n        /* \"#utility.yul\":8830:9207   */\n    tag_171:\n        /* \"#utility.yul\":8918:8921   */\n      0x00\n        /* \"#utility.yul\":8946:8985   */\n      tag_275\n        /* \"#utility.yul\":8979:8984   */\n      dup3\n        /* \"#utility.yul\":8946:8985   */\n      tag_163\n      jump\t// in\n    tag_275:\n        /* \"#utility.yul\":9001:9072   */\n      tag_276\n        /* \"#utility.yul\":9065:9071   */\n      dup2\n        /* \"#utility.yul\":9060:9063   */\n      dup6\n        /* \"#utility.yul\":9001:9072   */\n      tag_169\n      jump\t// in\n    tag_276:\n        /* \"#utility.yul\":8994:9072   */\n      swap4\n      pop\n        /* \"#utility.yul\":9081:9146   */\n      tag_277\n        /* \"#utility.yul\":9139:9145   */\n      dup2\n        /* \"#utility.yul\":9134:9137   */\n      dup6\n        /* \"#utility.yul\":9127:9131   */\n      0x20\n        /* \"#utility.yul\":9120:9125   */\n      dup7\n        /* \"#utility.yul\":9116:9132   */\n      add\n        /* \"#utility.yul\":9081:9146   */\n      tag_165\n      jump\t// in\n    tag_277:\n        /* \"#utility.yul\":9171:9200   */\n      tag_278\n        /* \"#utility.yul\":9193:9199   */\n      dup2\n        /* \"#utility.yul\":9171:9200   */\n      tag_170\n      jump\t// in\n    tag_278:\n        /* \"#utility.yul\":9166:9169   */\n      dup5\n        /* \"#utility.yul\":9162:9201   */\n      add\n        /* \"#utility.yul\":9155:9201   */\n      swap2\n      pop\n        /* \"#utility.yul\":8922:9207   */\n      pop\n        /* \"#utility.yul\":8830:9207   */\n      swap3\n      swap2\n      pop\n      pop\n      jump\t// out\n        /* \"#utility.yul\":9213:9526   */\n    tag_98:\n        /* \"#utility.yul\":9326:9330   */\n      0x00\n        /* \"#utility.yul\":9364:9366   */\n      0x20\n        /* \"#utility.yul\":9353:9362   */\n      dup3\n        /* \"#utility.yul\":9349:9367   */\n      add\n        /* \"#utility.yul\":9341:9367   */\n      swap1\n      pop\n        /* \"#utility.yul\":9413:9422   */\n      dup2\n        /* \"#utility.yul\":9407:9411   */\n      dup2\n        /* \"#utility.yul\":9403:9423   */\n      sub\n        /* \"#utility.yul\":9399:9400   */\n      0x00\n        /* \"#utility.yul\":9388:9397   */\n      dup4\n        /* \"#utility.yul\":9384:9401   */\n      add\n        /* \"#utility.yul\":9377:9424   */\n      mstore\n        /* \"#utility.yul\":9441:9519   */\n      tag_280\n        /* \"#utility.yul\":9514:9518   */\n      dup2\n        /* \"#utility.yul\":9505:9511   */\n      dup5\n        /* \"#utility.yul\":9441:9519   */\n      tag_171\n      jump\t// in\n    tag_280:\n        /* \"#utility.yul\":9433:9519   */\n      swap1\n      pop\n        /* \"#utility.yul\":9213:9526   */\n      swap3\n      swap2\n      pop\n      pop\n      jump\t// out\n        /* \"#utility.yul\":9532:9712   */\n    tag_109:\n        /* \"#utility.yul\":9580:9657   */\n      0x4e487b7100000000000000000000000000000000000000000000000000000000\n        /* \"#utility.yul\":9577:9578   */\n      0x00\n        /* \"#utility.yul\":9570:9658   */\n      mstore\n        /* \"#utility.yul\":9677:9681   */\n      0x32\n        /* \"#utility.yul\":9674:9675   */\n      0x04\n        /* \"#utility.yul\":9667:9682   */\n      mstore\n        /* \"#utility.yul\":9701:9705   */\n      0x24\n        /* \"#utility.yul\":9698:9699   */\n      0x00\n        /* \"#utility.yul\":9691:9706   */\n      revert\n        /* \"#utility.yul\":9718:9909   */\n    tag_119:\n        /* \"#utility.yul\":9758:9761   */\n      0x00\n        /* \"#utility.yul\":9777:9797   */\n      tag_283\n        /* \"#utility.yul\":9795:9796   */\n      dup3\n        /* \"#utility.yul\":9777:9797   */\n      tag_141\n      jump\t// in\n    tag_283:\n        /* \"#utility.yul\":9772:9797   */\n      swap2\n      pop\n        /* \"#utility.yul\":9811:9831   */\n      tag_284\n        /* \"#utility.yul\":9829:9830   */\n      dup4\n        /* \"#utility.yul\":9811:9831   */\n      tag_141\n      jump\t// in\n    tag_284:\n        /* \"#utility.yul\":9806:9831   */\n      swap3\n      pop\n        /* \"#utility.yul\":9854:9855   */\n      dup3\n        /* \"#utility.yul\":9851:9852   */\n      dup3\n        /* \"#utility.yul\":9847:9856   */\n      add\n        /* \"#utility.yul\":9840:9856   */\n      swap1\n      pop\n        /* \"#utility.yul\":9875:9878   */\n      dup1\n        /* \"#utility.yul\":9872:9873   */\n      dup3\n        /* \"#utility.yul\":9869:9879   */\n      gt\n        /* \"#utility.yul\":9866:9902   */\n      iszero\n      tag_285\n      jumpi\n        /* \"#utility.yul\":9882:9900   */\n      tag_286\n      tag_161\n      jump\t// in\n    tag_286:\n        /* \"#utility.yul\":9866:9902   */\n    tag_285:\n        /* \"#utility.yul\":9718:9909   */\n      swap3\n      swap2\n      pop\n      pop\n      jump\t// out\n        /* \"#utility.yul\":9915:10148   */\n    tag_127:\n        /* \"#utility.yul\":9954:9957   */\n      0x00\n        /* \"#utility.yul\":9977:10001   */\n      tag_288\n        /* \"#utility.yul\":9995:10000   */\n      dup3\n        /* \"#utility.yul\":9977:10001   */\n      tag_141\n      jump\t// in\n    tag_288:\n        /* \"#utility.yul\":9968:10001   */\n      swap2\n      pop\n        /* \"#utility.yul\":10023:10089   */\n      0xffffffffffffffffffffffffffffffffffffffffffffffffffffffffffffffff\n        /* \"#utility.yul\":10016:10021   */\n      dup3\n        /* \"#utility.yul\":10013:10090   */\n      sub\n        /* \"#utility.yul\":10010:10113   */\n      tag_289\n      jumpi\n        /* \"#utility.yul\":10093:10111   */\n      tag_290\n      tag_161\n      jump\t// in\n    tag_290:\n        /* \"#utility.yul\":10010:10113   */\n    tag_289:\n        /* \"#utility.yul\":10140:10141   */\n      0x01\n        /* \"#utility.yul\":10133:10138   */\n      dup3\n        /* \"#utility.yul\":10129:10142   */\n      add\n        /* \"#utility.yul\":10122:10142   */\n      swap1\n      pop\n        /* \"#utility.yul\":9915:10148   */\n      swap2\n      swap1\n      pop\n      jump\t// out\n        /* \"#utility.yul\":10154:10334   */\n    tag_131:\n        /* \"#utility.yul\":10202:10279   */\n      0x4e487b7100000000000000000000000000000000000000000000000000000000\n        /* \"#utility.yul\":10199:10200   */\n      0x00\n        /* \"#utility.yul\":10192:10280   */\n      mstore\n        /* \"#utility.yul\":10299:10303   */\n      0x41\n        /* \"#utility.yul\":10296:10297   */\n      0x04\n        /* \"#utility.yul\":10289:10304   */\n      mstore\n        /* \"#utility.yul\":10323:10327   */\n      0x24\n        /* \"#utility.yul\":10320:10321   */\n      0x00\n        /* \"#utility.yul\":10313:10328   */\n      revert\n\n    auxdata: 0xa264697066735822122092ab720fc0d113ce871f3071900349d5470e2b807f03e7a172d19d4460d5c13964736f6c63430008110033\n}\n",
				"bytecode": {
					"linkReferences": {},
					"object": "6080604052610e3e806100136000396000f3fe6080604052600436106100a75760003560e01c8063853828b611610064578063853828b6146101bc578063912a90bb146101d3578063a8a5400814610210578063b5cc453914610239578063bd097e2114610243578063bff82dee1461024d576100a7565b806312065fe0146100ac57806312845966146100d75780631593a8c71461011457806327dff1431461012b5780632e1a7d4d146101685780637f79824314610191575b600080fd5b3480156100b857600080fd5b506100c161028a565b6040516100ce9190610818565b60405180910390f35b3480156100e357600080fd5b506100fe60048036038101906100f99190610864565b610292565b60405161010b9190610818565b60405180910390f35b34801561012057600080fd5b506101296102d7565b005b34801561013757600080fd5b50610152600480360381019061014d9190610864565b6103f8565b60405161015f91906108d2565b60405180910390f35b34801561017457600080fd5b5061018f600480360381019061018a9190610864565b610437565b005b34801561019d57600080fd5b506101a661051a565b6040516101b391906108d2565b60405180910390f35b3480156101c857600080fd5b506101d161059d565b005b3480156101df57600080fd5b506101fa60048036038101906101f59190610919565b610601565b6040516102079190610961565b60405180910390f35b34801561021c57600080fd5b5061023760048036038101906102329190610919565b610657565b005b61024161065a565b005b61024b61067d565b005b34801561025957600080fd5b50610274600480360381019061026f91906109ba565b61067f565b6040516102819190610961565b60405180910390f35b600047905090565b60008044426040516020016102a8929190610a08565b6040516020818303038152906040528051906020012060001c905082816102cf9190610a63565b915050919050565b60006102e161051a565b9050600073ffffffffffffffffffffffffffffffffffffffff168173ffffffffffffffffffffffffffffffffffffffff1603156103f55760006064600a60005461032b9190610ac3565b6103359190610b05565b90506000816000546103479190610b36565b90506000808190555073ab8483f64d9c6d1ecf9b849ae677dd3315835cb273ffffffffffffffffffffffffffffffffffffffff166108fc839081150290604051600060405180830381858888f193505050501580156103aa573d6000803e3d6000fd5b508273ffffffffffffffffffffffffffffffffffffffff166108fc829081150290604051600060405180830381858888f193505050501580156103f1573d6000803e3d6000fd5b5050505b50565b6002818154811061040857600080fd5b906000526020600020016000915054906101000a900473ffffffffffffffffffffffffffffffffffffffff1681565b600061044161028a565b9050808211156104508361069f565b6104598361069f565b60405160200161046a929190610c73565b604051602081830303815290604052906104ba576040517f08c379a00000000000000000000000000000000000000000000000000000000081526004016104b19190610d0c565b60405180910390fd5b5073ab8483f64d9c6d1ecf9b849ae677dd3315835cb273ffffffffffffffffffffffffffffffffffffffff166108fc839081150290604051600060405180830381858888f19350505050158015610515573d6000803e3d6000fd5b505050565b600080600280549050905060008082036105395760009250505061059a565b6001820361054a5760009050610556565b61055382610292565b90505b6002818154811061056a57610569610d2e565b5b9060005260206000200160009054906101000a900473ffffffffffffffffffffffffffffffffffffffff16925050505b90565b73ab8483f64d9c6d1ecf9b849ae677dd3315835cb273ffffffffffffffffffffffffffffffffffffffff166108fc6105d361028a565b9081150290604051600060405180830381858888f193505050501580156105fe573d6000803e3d6000fd5b50565b6000600160008373ffffffffffffffffffffffffffffffffffffffff1673ffffffffffffffffffffffffffffffffffffffff16815260200190815260200160002060009054906101000a900460ff169050919050565b50565b3460008082825461066b9190610d5d565b9250508190555061067b33610657565b565b565b60016020528060005260406000206000915054906101000a900460ff1681565b6060600082036106e6576040518060400160405280600181526020017f300000000000000000000000000000000000000000000000000000000000000081525090506107fa565b600082905060005b6000821461071857808061070190610d91565b915050600a826107119190610b05565b91506106ee565b60008167ffffffffffffffff81111561073457610733610dd9565b5b6040519080825280601f01601f1916602001820160405280156107665781602001600182028036833780820191505090505b5090505b600085146107f35760018261077f9190610b36565b9150600a8561078e9190610a63565b603061079a9190610d5d565b60f81b8183815181106107b0576107af610d2e565b5b60200101907effffffffffffffffffffffffffffffffffffffffffffffffffffffffffffff1916908160001a905350600a856107ec9190610b05565b945061076a565b8093505050505b919050565b6000819050919050565b610812816107ff565b82525050565b600060208201905061082d6000830184610809565b92915050565b600080fd5b610841816107ff565b811461084c57600080fd5b50565b60008135905061085e81610838565b92915050565b60006020828403121561087a57610879610833565b5b60006108888482850161084f565b91505092915050565b600073ffffffffffffffffffffffffffffffffffffffff82169050919050565b60006108bc82610891565b9050919050565b6108cc816108b1565b82525050565b60006020820190506108e760008301846108c3565b92915050565b6108f6816108b1565b811461090157600080fd5b50565b600081359050610913816108ed565b92915050565b60006020828403121561092f5761092e610833565b5b600061093d84828501610904565b91505092915050565b60008115159050919050565b61095b81610946565b82525050565b60006020820190506109766000830184610952565b92915050565b600061098782610891565b9050919050565b6109978161097c565b81146109a257600080fd5b50565b6000813590506109b48161098e565b92915050565b6000602082840312156109d0576109cf610833565b5b60006109de848285016109a5565b91505092915050565b6000819050919050565b610a026109fd826107ff565b6109e7565b82525050565b6000610a1482856109f1565b602082019150610a2482846109f1565b6020820191508190509392505050565b7f4e487b7100000000000000000000000000000000000000000000000000000000600052601260045260246000fd5b6000610a6e826107ff565b9150610a79836107ff565b925082610a8957610a88610a34565b5b828206905092915050565b7f4e487b7100000000000000000000000000000000000000000000000000000000600052601160045260246000fd5b6000610ace826107ff565b9150610ad9836107ff565b9250828202610ae7816107ff565b91508282048414831517610afe57610afd610a94565b5b5092915050565b6000610b10826107ff565b9150610b1b836107ff565b925082610b2b57610b2a610a34565b5b828204905092915050565b6000610b41826107ff565b9150610b4c836107ff565b9250828203905081811115610b6457610b63610a94565b5b92915050565b7f54686520616d6f756e7420000000000000000000000000000000000000000000815250565b600081519050919050565b600081905092915050565b60005b83811015610bc4578082015181840152602081019050610ba9565b60008484015250505050565b6000610bdb82610b90565b610be58185610b9b565b9350610bf5818560208601610ba6565b80840191505092915050565b7f2069732067726561746572207468616e2074686520636f6e747261637420626160008201527f6c616e6365200000000000000000000000000000000000000000000000000000602082015250565b6000610c5d602683610b9b565b9150610c6882610c01565b602682019050919050565b6000610c7e82610b6a565b600b82019150610c8e8285610bd0565b9150610c9982610c50565b9150610ca58284610bd0565b91508190509392505050565b600082825260208201905092915050565b6000601f19601f8301169050919050565b6000610cde82610b90565b610ce88185610cb1565b9350610cf8818560208601610ba6565b610d0181610cc2565b840191505092915050565b60006020820190508181036000830152610d268184610cd3565b905092915050565b7f4e487b7100000000000000000000000000000000000000000000000000000000600052603260045260246000fd5b6000610d68826107ff565b9150610d73836107ff565b9250828201905080821115610d8b57610d8a610a94565b5b92915050565b6000610d9c826107ff565b91507fffffffffffffffffffffffffffffffffffffffffffffffffffffffffffffffff8203610dce57610dcd610a94565b5b600182019050919050565b7f4e487b7100000000000000000000000000000000000000000000000000000000600052604160045260246000fdfea264697066735822122092ab720fc0d113ce871f3071900349d5470e2b807f03e7a172d19d4460d5c13964736f6c63430008110033",
					"opcodes": "PUSH1 0x80 PUSH1 0x40 MSTORE PUSH2 0xE3E DUP1 PUSH2 0x13 PUSH1 0x0 CODECOPY PUSH1 0x0 RETURN INVALID PUSH1 0x80 PUSH1 0x40 MSTORE PUSH1 0x4 CALLDATASIZE LT PUSH2 0xA7 JUMPI PUSH1 0x0 CALLDATALOAD PUSH1 0xE0 SHR DUP1 PUSH4 0x853828B6 GT PUSH2 0x64 JUMPI DUP1 PUSH4 0x853828B6 EQ PUSH2 0x1BC JUMPI DUP1 PUSH4 0x912A90BB EQ PUSH2 0x1D3 JUMPI DUP1 PUSH4 0xA8A54008 EQ PUSH2 0x210 JUMPI DUP1 PUSH4 0xB5CC4539 EQ PUSH2 0x239 JUMPI DUP1 PUSH4 0xBD097E21 EQ PUSH2 0x243 JUMPI DUP1 PUSH4 0xBFF82DEE EQ PUSH2 0x24D JUMPI PUSH2 0xA7 JUMP JUMPDEST DUP1 PUSH4 0x12065FE0 EQ PUSH2 0xAC JUMPI DUP1 PUSH4 0x12845966 EQ PUSH2 0xD7 JUMPI DUP1 PUSH4 0x1593A8C7 EQ PUSH2 0x114 JUMPI DUP1 PUSH4 0x27DFF143 EQ PUSH2 0x12B JUMPI DUP1 PUSH4 0x2E1A7D4D EQ PUSH2 0x168 JUMPI DUP1 PUSH4 0x7F798243 EQ PUSH2 0x191 JUMPI JUMPDEST PUSH1 0x0 DUP1 REVERT JUMPDEST CALLVALUE DUP1 ISZERO PUSH2 0xB8 JUMPI PUSH1 0x0 DUP1 REVERT JUMPDEST POP PUSH2 0xC1 PUSH2 0x28A JUMP JUMPDEST PUSH1 0x40 MLOAD PUSH2 0xCE SWAP2 SWAP1 PUSH2 0x818 JUMP JUMPDEST PUSH1 0x40 MLOAD DUP1 SWAP2 SUB SWAP1 RETURN JUMPDEST CALLVALUE DUP1 ISZERO PUSH2 0xE3 JUMPI PUSH1 0x0 DUP1 REVERT JUMPDEST POP PUSH2 0xFE PUSH1 0x4 DUP1 CALLDATASIZE SUB DUP2 ADD SWAP1 PUSH2 0xF9 SWAP2 SWAP1 PUSH2 0x864 JUMP JUMPDEST PUSH2 0x292 JUMP JUMPDEST PUSH1 0x40 MLOAD PUSH2 0x10B SWAP2 SWAP1 PUSH2 0x818 JUMP JUMPDEST PUSH1 0x40 MLOAD DUP1 SWAP2 SUB SWAP1 RETURN JUMPDEST CALLVALUE DUP1 ISZERO PUSH2 0x120 JUMPI PUSH1 0x0 DUP1 REVERT JUMPDEST POP PUSH2 0x129 PUSH2 0x2D7 JUMP JUMPDEST STOP JUMPDEST CALLVALUE DUP1 ISZERO PUSH2 0x137 JUMPI PUSH1 0x0 DUP1 REVERT JUMPDEST POP PUSH2 0x152 PUSH1 0x4 DUP1 CALLDATASIZE SUB DUP2 ADD SWAP1 PUSH2 0x14D SWAP2 SWAP1 PUSH2 0x864 JUMP JUMPDEST PUSH2 0x3F8 JUMP JUMPDEST PUSH1 0x40 MLOAD PUSH2 0x15F SWAP2 SWAP1 PUSH2 0x8D2 JUMP JUMPDEST PUSH1 0x40 MLOAD DUP1 SWAP2 SUB SWAP1 RETURN JUMPDEST CALLVALUE DUP1 ISZERO PUSH2 0x174 JUMPI PUSH1 0x0 DUP1 REVERT JUMPDEST POP PUSH2 0x18F PUSH1 0x4 DUP1 CALLDATASIZE SUB DUP2 ADD SWAP1 PUSH2 0x18A SWAP2 SWAP1 PUSH2 0x864 JUMP JUMPDEST PUSH2 0x437 JUMP JUMPDEST STOP JUMPDEST CALLVALUE DUP1 ISZERO PUSH2 0x19D JUMPI PUSH1 0x0 DUP1 REVERT JUMPDEST POP PUSH2 0x1A6 PUSH2 0x51A JUMP JUMPDEST PUSH1 0x40 MLOAD PUSH2 0x1B3 SWAP2 SWAP1 PUSH2 0x8D2 JUMP JUMPDEST PUSH1 0x40 MLOAD DUP1 SWAP2 SUB SWAP1 RETURN JUMPDEST CALLVALUE DUP1 ISZERO PUSH2 0x1C8 JUMPI PUSH1 0x0 DUP1 REVERT JUMPDEST POP PUSH2 0x1D1 PUSH2 0x59D JUMP JUMPDEST STOP JUMPDEST CALLVALUE DUP1 ISZERO PUSH2 0x1DF JUMPI PUSH1 0x0 DUP1 REVERT JUMPDEST POP PUSH2 0x1FA PUSH1 0x4 DUP1 CALLDATASIZE SUB DUP2 ADD SWAP1 PUSH2 0x1F5 SWAP2 SWAP1 PUSH2 0x919 JUMP JUMPDEST PUSH2 0x601 JUMP JUMPDEST PUSH1 0x40 MLOAD PUSH2 0x207 SWAP2 SWAP1 PUSH2 0x961 JUMP JUMPDEST PUSH1 0x40 MLOAD DUP1 SWAP2 SUB SWAP1 RETURN JUMPDEST CALLVALUE DUP1 ISZERO PUSH2 0x21C JUMPI PUSH1 0x0 DUP1 REVERT JUMPDEST POP PUSH2 0x237 PUSH1 0x4 DUP1 CALLDATASIZE SUB DUP2 ADD SWAP1 PUSH2 0x232 SWAP2 SWAP1 PUSH2 0x919 JUMP JUMPDEST PUSH2 0x657 JUMP JUMPDEST STOP JUMPDEST PUSH2 0x241 PUSH2 0x65A JUMP JUMPDEST STOP JUMPDEST PUSH2 0x24B PUSH2 0x67D JUMP JUMPDEST STOP JUMPDEST CALLVALUE DUP1 ISZERO PUSH2 0x259 JUMPI PUSH1 0x0 DUP1 REVERT JUMPDEST POP PUSH2 0x274 PUSH1 0x4 DUP1 CALLDATASIZE SUB DUP2 ADD SWAP1 PUSH2 0x26F SWAP2 SWAP1 PUSH2 0x9BA JUMP JUMPDEST PUSH2 0x67F JUMP JUMPDEST PUSH1 0x40 MLOAD PUSH2 0x281 SWAP2 SWAP1 PUSH2 0x961 JUMP JUMPDEST PUSH1 0x40 MLOAD DUP1 SWAP2 SUB SWAP1 RETURN JUMPDEST PUSH1 0x0 SELFBALANCE SWAP1 POP SWAP1 JUMP JUMPDEST PUSH1 0x0 DUP1 DIFFICULTY TIMESTAMP PUSH1 0x40 MLOAD PUSH1 0x20 ADD PUSH2 0x2A8 SWAP3 SWAP2 SWAP1 PUSH2 0xA08 JUMP JUMPDEST PUSH1 0x40 MLOAD PUSH1 0x20 DUP2 DUP4 SUB SUB DUP2 MSTORE SWAP1 PUSH1 0x40 MSTORE DUP1 MLOAD SWAP1 PUSH1 0x20 ADD KECCAK256 PUSH1 0x0 SHR SWAP1 POP DUP3 DUP2 PUSH2 0x2CF SWAP2 SWAP1 PUSH2 0xA63 JUMP JUMPDEST SWAP2 POP POP SWAP2 SWAP1 POP JUMP JUMPDEST PUSH1 0x0 PUSH2 0x2E1 PUSH2 0x51A JUMP JUMPDEST SWAP1 POP PUSH1 0x0 PUSH20 0xFFFFFFFFFFFFFFFFFFFFFFFFFFFFFFFFFFFFFFFF AND DUP2 PUSH20 0xFFFFFFFFFFFFFFFFFFFFFFFFFFFFFFFFFFFFFFFF AND SUB ISZERO PUSH2 0x3F5 JUMPI PUSH1 0x0 PUSH1 0x64 PUSH1 0xA PUSH1 0x0 SLOAD PUSH2 0x32B SWAP2 SWAP1 PUSH2 0xAC3 JUMP JUMPDEST PUSH2 0x335 SWAP2 SWAP1 PUSH2 0xB05 JUMP JUMPDEST SWAP1 POP PUSH1 0x0 DUP2 PUSH1 0x0 SLOAD PUSH2 0x347 SWAP2 SWAP1 PUSH2 0xB36 JUMP JUMPDEST SWAP1 POP PUSH1 0x0 DUP1 DUP2 SWAP1 SSTORE POP PUSH20 0xAB8483F64D9C6D1ECF9B849AE677DD3315835CB2 PUSH20 0xFFFFFFFFFFFFFFFFFFFFFFFFFFFFFFFFFFFFFFFF AND PUSH2 0x8FC DUP4 SWAP1 DUP2 ISZERO MUL SWAP1 PUSH1 0x40 MLOAD PUSH1 0x0 PUSH1 0x40 MLOAD DUP1 DUP4 SUB DUP2 DUP6 DUP9 DUP9 CALL SWAP4 POP POP POP POP ISZERO DUP1 ISZERO PUSH2 0x3AA JUMPI RETURNDATASIZE PUSH1 0x0 DUP1 RETURNDATACOPY RETURNDATASIZE PUSH1 0x0 REVERT JUMPDEST POP DUP3 PUSH20 0xFFFFFFFFFFFFFFFFFFFFFFFFFFFFFFFFFFFFFFFF AND PUSH2 0x8FC DUP3 SWAP1 DUP2 ISZERO MUL SWAP1 PUSH1 0x40 MLOAD PUSH1 0x0 PUSH1 0x40 MLOAD DUP1 DUP4 SUB DUP2 DUP6 DUP9 DUP9 CALL SWAP4 POP POP POP POP ISZERO DUP1 ISZERO PUSH2 0x3F1 JUMPI RETURNDATASIZE PUSH1 0x0 DUP1 RETURNDATACOPY RETURNDATASIZE PUSH1 0x0 REVERT JUMPDEST POP POP POP JUMPDEST POP JUMP JUMPDEST PUSH1 0x2 DUP2 DUP2 SLOAD DUP2 LT PUSH2 0x408 JUMPI PUSH1 0x0 DUP1 REVERT JUMPDEST SWAP1 PUSH1 0x0 MSTORE PUSH1 0x20 PUSH1 0x0 KECCAK256 ADD PUSH1 0x0 SWAP2 POP SLOAD SWAP1 PUSH2 0x100 EXP SWAP1 DIV PUSH20 0xFFFFFFFFFFFFFFFFFFFFFFFFFFFFFFFFFFFFFFFF AND DUP2 JUMP JUMPDEST PUSH1 0x0 PUSH2 0x441 PUSH2 0x28A JUMP JUMPDEST SWAP1 POP DUP1 DUP3 GT ISZERO PUSH2 0x450 DUP4 PUSH2 0x69F JUMP JUMPDEST PUSH2 0x459 DUP4 PUSH2 0x69F JUMP JUMPDEST PUSH1 0x40 MLOAD PUSH1 0x20 ADD PUSH2 0x46A SWAP3 SWAP2 SWAP1 PUSH2 0xC73 JUMP JUMPDEST PUSH1 0x40 MLOAD PUSH1 0x20 DUP2 DUP4 SUB SUB DUP2 MSTORE SWAP1 PUSH1 0x40 MSTORE SWAP1 PUSH2 0x4BA JUMPI PUSH1 0x40 MLOAD PUSH32 0x8C379A000000000000000000000000000000000000000000000000000000000 DUP2 MSTORE PUSH1 0x4 ADD PUSH2 0x4B1 SWAP2 SWAP1 PUSH2 0xD0C JUMP JUMPDEST PUSH1 0x40 MLOAD DUP1 SWAP2 SUB SWAP1 REVERT JUMPDEST POP PUSH20 0xAB8483F64D9C6D1ECF9B849AE677DD3315835CB2 PUSH20 0xFFFFFFFFFFFFFFFFFFFFFFFFFFFFFFFFFFFFFFFF AND PUSH2 0x8FC DUP4 SWAP1 DUP2 ISZERO MUL SWAP1 PUSH1 0x40 MLOAD PUSH1 0x0 PUSH1 0x40 MLOAD DUP1 DUP4 SUB DUP2 DUP6 DUP9 DUP9 CALL SWAP4 POP POP POP POP ISZERO DUP1 ISZERO PUSH2 0x515 JUMPI RETURNDATASIZE PUSH1 0x0 DUP1 RETURNDATACOPY RETURNDATASIZE PUSH1 0x0 REVERT JUMPDEST POP POP POP JUMP JUMPDEST PUSH1 0x0 DUP1 PUSH1 0x2 DUP1 SLOAD SWAP1 POP SWAP1 POP PUSH1 0x0 DUP1 DUP3 SUB PUSH2 0x539 JUMPI PUSH1 0x0 SWAP3 POP POP POP PUSH2 0x59A JUMP JUMPDEST PUSH1 0x1 DUP3 SUB PUSH2 0x54A JUMPI PUSH1 0x0 SWAP1 POP PUSH2 0x556 JUMP JUMPDEST PUSH2 0x553 DUP3 PUSH2 0x292 JUMP JUMPDEST SWAP1 POP JUMPDEST PUSH1 0x2 DUP2 DUP2 SLOAD DUP2 LT PUSH2 0x56A JUMPI PUSH2 0x569 PUSH2 0xD2E JUMP JUMPDEST JUMPDEST SWAP1 PUSH1 0x0 MSTORE PUSH1 0x20 PUSH1 0x0 KECCAK256 ADD PUSH1 0x0 SWAP1 SLOAD SWAP1 PUSH2 0x100 EXP SWAP1 DIV PUSH20 0xFFFFFFFFFFFFFFFFFFFFFFFFFFFFFFFFFFFFFFFF AND SWAP3 POP POP POP JUMPDEST SWAP1 JUMP JUMPDEST PUSH20 0xAB8483F64D9C6D1ECF9B849AE677DD3315835CB2 PUSH20 0xFFFFFFFFFFFFFFFFFFFFFFFFFFFFFFFFFFFFFFFF AND PUSH2 0x8FC PUSH2 0x5D3 PUSH2 0x28A JUMP JUMPDEST SWAP1 DUP2 ISZERO MUL SWAP1 PUSH1 0x40 MLOAD PUSH1 0x0 PUSH1 0x40 MLOAD DUP1 DUP4 SUB DUP2 DUP6 DUP9 DUP9 CALL SWAP4 POP POP POP POP ISZERO DUP1 ISZERO PUSH2 0x5FE JUMPI RETURNDATASIZE PUSH1 0x0 DUP1 RETURNDATACOPY RETURNDATASIZE PUSH1 0x0 REVERT JUMPDEST POP JUMP JUMPDEST PUSH1 0x0 PUSH1 0x1 PUSH1 0x0 DUP4 PUSH20 0xFFFFFFFFFFFFFFFFFFFFFFFFFFFFFFFFFFFFFFFF AND PUSH20 0xFFFFFFFFFFFFFFFFFFFFFFFFFFFFFFFFFFFFFFFF AND DUP2 MSTORE PUSH1 0x20 ADD SWAP1 DUP2 MSTORE PUSH1 0x20 ADD PUSH1 0x0 KECCAK256 PUSH1 0x0 SWAP1 SLOAD SWAP1 PUSH2 0x100 EXP SWAP1 DIV PUSH1 0xFF AND SWAP1 POP SWAP2 SWAP1 POP JUMP JUMPDEST POP JUMP JUMPDEST CALLVALUE PUSH1 0x0 DUP1 DUP3 DUP3 SLOAD PUSH2 0x66B SWAP2 SWAP1 PUSH2 0xD5D JUMP JUMPDEST SWAP3 POP POP DUP2 SWAP1 SSTORE POP PUSH2 0x67B CALLER PUSH2 0x657 JUMP JUMPDEST JUMP JUMPDEST JUMP JUMPDEST PUSH1 0x1 PUSH1 0x20 MSTORE DUP1 PUSH1 0x0 MSTORE PUSH1 0x40 PUSH1 0x0 KECCAK256 PUSH1 0x0 SWAP2 POP SLOAD SWAP1 PUSH2 0x100 EXP SWAP1 DIV PUSH1 0xFF AND DUP2 JUMP JUMPDEST PUSH1 0x60 PUSH1 0x0 DUP3 SUB PUSH2 0x6E6 JUMPI PUSH1 0x40 MLOAD DUP1 PUSH1 0x40 ADD PUSH1 0x40 MSTORE DUP1 PUSH1 0x1 DUP2 MSTORE PUSH1 0x20 ADD PUSH32 0x3000000000000000000000000000000000000000000000000000000000000000 DUP2 MSTORE POP SWAP1 POP PUSH2 0x7FA JUMP JUMPDEST PUSH1 0x0 DUP3 SWAP1 POP PUSH1 0x0 JUMPDEST PUSH1 0x0 DUP3 EQ PUSH2 0x718 JUMPI DUP1 DUP1 PUSH2 0x701 SWAP1 PUSH2 0xD91 JUMP JUMPDEST SWAP2 POP POP PUSH1 0xA DUP3 PUSH2 0x711 SWAP2 SWAP1 PUSH2 0xB05 JUMP JUMPDEST SWAP2 POP PUSH2 0x6EE JUMP JUMPDEST PUSH1 0x0 DUP2 PUSH8 0xFFFFFFFFFFFFFFFF DUP2 GT ISZERO PUSH2 0x734 JUMPI PUSH2 0x733 PUSH2 0xDD9 JUMP JUMPDEST JUMPDEST PUSH1 0x40 MLOAD SWAP1 DUP1 DUP3 MSTORE DUP1 PUSH1 0x1F ADD PUSH1 0x1F NOT AND PUSH1 0x20 ADD DUP3 ADD PUSH1 0x40 MSTORE DUP1 ISZERO PUSH2 0x766 JUMPI DUP2 PUSH1 0x20 ADD PUSH1 0x1 DUP3 MUL DUP1 CALLDATASIZE DUP4 CALLDATACOPY DUP1 DUP3 ADD SWAP2 POP POP SWAP1 POP JUMPDEST POP SWAP1 POP JUMPDEST PUSH1 0x0 DUP6 EQ PUSH2 0x7F3 JUMPI PUSH1 0x1 DUP3 PUSH2 0x77F SWAP2 SWAP1 PUSH2 0xB36 JUMP JUMPDEST SWAP2 POP PUSH1 0xA DUP6 PUSH2 0x78E SWAP2 SWAP1 PUSH2 0xA63 JUMP JUMPDEST PUSH1 0x30 PUSH2 0x79A SWAP2 SWAP1 PUSH2 0xD5D JUMP JUMPDEST PUSH1 0xF8 SHL DUP2 DUP4 DUP2 MLOAD DUP2 LT PUSH2 0x7B0 JUMPI PUSH2 0x7AF PUSH2 0xD2E JUMP JUMPDEST JUMPDEST PUSH1 0x20 ADD ADD SWAP1 PUSH31 0xFFFFFFFFFFFFFFFFFFFFFFFFFFFFFFFFFFFFFFFFFFFFFFFFFFFFFFFFFFFFFF NOT AND SWAP1 DUP2 PUSH1 0x0 BYTE SWAP1 MSTORE8 POP PUSH1 0xA DUP6 PUSH2 0x7EC SWAP2 SWAP1 PUSH2 0xB05 JUMP JUMPDEST SWAP5 POP PUSH2 0x76A JUMP JUMPDEST DUP1 SWAP4 POP POP POP POP JUMPDEST SWAP2 SWAP1 POP JUMP JUMPDEST PUSH1 0x0 DUP2 SWAP1 POP SWAP2 SWAP1 POP JUMP JUMPDEST PUSH2 0x812 DUP2 PUSH2 0x7FF JUMP JUMPDEST DUP3 MSTORE POP POP JUMP JUMPDEST PUSH1 0x0 PUSH1 0x20 DUP3 ADD SWAP1 POP PUSH2 0x82D PUSH1 0x0 DUP4 ADD DUP5 PUSH2 0x809 JUMP JUMPDEST SWAP3 SWAP2 POP POP JUMP JUMPDEST PUSH1 0x0 DUP1 REVERT JUMPDEST PUSH2 0x841 DUP2 PUSH2 0x7FF JUMP JUMPDEST DUP2 EQ PUSH2 0x84C JUMPI PUSH1 0x0 DUP1 REVERT JUMPDEST POP JUMP JUMPDEST PUSH1 0x0 DUP2 CALLDATALOAD SWAP1 POP PUSH2 0x85E DUP2 PUSH2 0x838 JUMP JUMPDEST SWAP3 SWAP2 POP POP JUMP JUMPDEST PUSH1 0x0 PUSH1 0x20 DUP3 DUP5 SUB SLT ISZERO PUSH2 0x87A JUMPI PUSH2 0x879 PUSH2 0x833 JUMP JUMPDEST JUMPDEST PUSH1 0x0 PUSH2 0x888 DUP5 DUP3 DUP6 ADD PUSH2 0x84F JUMP JUMPDEST SWAP2 POP POP SWAP3 SWAP2 POP POP JUMP JUMPDEST PUSH1 0x0 PUSH20 0xFFFFFFFFFFFFFFFFFFFFFFFFFFFFFFFFFFFFFFFF DUP3 AND SWAP1 POP SWAP2 SWAP1 POP JUMP JUMPDEST PUSH1 0x0 PUSH2 0x8BC DUP3 PUSH2 0x891 JUMP JUMPDEST SWAP1 POP SWAP2 SWAP1 POP JUMP JUMPDEST PUSH2 0x8CC DUP2 PUSH2 0x8B1 JUMP JUMPDEST DUP3 MSTORE POP POP JUMP JUMPDEST PUSH1 0x0 PUSH1 0x20 DUP3 ADD SWAP1 POP PUSH2 0x8E7 PUSH1 0x0 DUP4 ADD DUP5 PUSH2 0x8C3 JUMP JUMPDEST SWAP3 SWAP2 POP POP JUMP JUMPDEST PUSH2 0x8F6 DUP2 PUSH2 0x8B1 JUMP JUMPDEST DUP2 EQ PUSH2 0x901 JUMPI PUSH1 0x0 DUP1 REVERT JUMPDEST POP JUMP JUMPDEST PUSH1 0x0 DUP2 CALLDATALOAD SWAP1 POP PUSH2 0x913 DUP2 PUSH2 0x8ED JUMP JUMPDEST SWAP3 SWAP2 POP POP JUMP JUMPDEST PUSH1 0x0 PUSH1 0x20 DUP3 DUP5 SUB SLT ISZERO PUSH2 0x92F JUMPI PUSH2 0x92E PUSH2 0x833 JUMP JUMPDEST JUMPDEST PUSH1 0x0 PUSH2 0x93D DUP5 DUP3 DUP6 ADD PUSH2 0x904 JUMP JUMPDEST SWAP2 POP POP SWAP3 SWAP2 POP POP JUMP JUMPDEST PUSH1 0x0 DUP2 ISZERO ISZERO SWAP1 POP SWAP2 SWAP1 POP JUMP JUMPDEST PUSH2 0x95B DUP2 PUSH2 0x946 JUMP JUMPDEST DUP3 MSTORE POP POP JUMP JUMPDEST PUSH1 0x0 PUSH1 0x20 DUP3 ADD SWAP1 POP PUSH2 0x976 PUSH1 0x0 DUP4 ADD DUP5 PUSH2 0x952 JUMP JUMPDEST SWAP3 SWAP2 POP POP JUMP JUMPDEST PUSH1 0x0 PUSH2 0x987 DUP3 PUSH2 0x891 JUMP JUMPDEST SWAP1 POP SWAP2 SWAP1 POP JUMP JUMPDEST PUSH2 0x997 DUP2 PUSH2 0x97C JUMP JUMPDEST DUP2 EQ PUSH2 0x9A2 JUMPI PUSH1 0x0 DUP1 REVERT JUMPDEST POP JUMP JUMPDEST PUSH1 0x0 DUP2 CALLDATALOAD SWAP1 POP PUSH2 0x9B4 DUP2 PUSH2 0x98E JUMP JUMPDEST SWAP3 SWAP2 POP POP JUMP JUMPDEST PUSH1 0x0 PUSH1 0x20 DUP3 DUP5 SUB SLT ISZERO PUSH2 0x9D0 JUMPI PUSH2 0x9CF PUSH2 0x833 JUMP JUMPDEST JUMPDEST PUSH1 0x0 PUSH2 0x9DE DUP5 DUP3 DUP6 ADD PUSH2 0x9A5 JUMP JUMPDEST SWAP2 POP POP SWAP3 SWAP2 POP POP JUMP JUMPDEST PUSH1 0x0 DUP2 SWAP1 POP SWAP2 SWAP1 POP JUMP JUMPDEST PUSH2 0xA02 PUSH2 0x9FD DUP3 PUSH2 0x7FF JUMP JUMPDEST PUSH2 0x9E7 JUMP JUMPDEST DUP3 MSTORE POP POP JUMP JUMPDEST PUSH1 0x0 PUSH2 0xA14 DUP3 DUP6 PUSH2 0x9F1 JUMP JUMPDEST PUSH1 0x20 DUP3 ADD SWAP2 POP PUSH2 0xA24 DUP3 DUP5 PUSH2 0x9F1 JUMP JUMPDEST PUSH1 0x20 DUP3 ADD SWAP2 POP DUP2 SWAP1 POP SWAP4 SWAP3 POP POP POP JUMP JUMPDEST PUSH32 0x4E487B7100000000000000000000000000000000000000000000000000000000 PUSH1 0x0 MSTORE PUSH1 0x12 PUSH1 0x4 MSTORE PUSH1 0x24 PUSH1 0x0 REVERT JUMPDEST PUSH1 0x0 PUSH2 0xA6E DUP3 PUSH2 0x7FF JUMP JUMPDEST SWAP2 POP PUSH2 0xA79 DUP4 PUSH2 0x7FF JUMP JUMPDEST SWAP3 POP DUP3 PUSH2 0xA89 JUMPI PUSH2 0xA88 PUSH2 0xA34 JUMP JUMPDEST JUMPDEST DUP3 DUP3 MOD SWAP1 POP SWAP3 SWAP2 POP POP JUMP JUMPDEST PUSH32 0x4E487B7100000000000000000000000000000000000000000000000000000000 PUSH1 0x0 MSTORE PUSH1 0x11 PUSH1 0x4 MSTORE PUSH1 0x24 PUSH1 0x0 REVERT JUMPDEST PUSH1 0x0 PUSH2 0xACE DUP3 PUSH2 0x7FF JUMP JUMPDEST SWAP2 POP PUSH2 0xAD9 DUP4 PUSH2 0x7FF JUMP JUMPDEST SWAP3 POP DUP3 DUP3 MUL PUSH2 0xAE7 DUP2 PUSH2 0x7FF JUMP JUMPDEST SWAP2 POP DUP3 DUP3 DIV DUP5 EQ DUP4 ISZERO OR PUSH2 0xAFE JUMPI PUSH2 0xAFD PUSH2 0xA94 JUMP JUMPDEST JUMPDEST POP SWAP3 SWAP2 POP POP JUMP JUMPDEST PUSH1 0x0 PUSH2 0xB10 DUP3 PUSH2 0x7FF JUMP JUMPDEST SWAP2 POP PUSH2 0xB1B DUP4 PUSH2 0x7FF JUMP JUMPDEST SWAP3 POP DUP3 PUSH2 0xB2B JUMPI PUSH2 0xB2A PUSH2 0xA34 JUMP JUMPDEST JUMPDEST DUP3 DUP3 DIV SWAP1 POP SWAP3 SWAP2 POP POP JUMP JUMPDEST PUSH1 0x0 PUSH2 0xB41 DUP3 PUSH2 0x7FF JUMP JUMPDEST SWAP2 POP PUSH2 0xB4C DUP4 PUSH2 0x7FF JUMP JUMPDEST SWAP3 POP DUP3 DUP3 SUB SWAP1 POP DUP2 DUP2 GT ISZERO PUSH2 0xB64 JUMPI PUSH2 0xB63 PUSH2 0xA94 JUMP JUMPDEST JUMPDEST SWAP3 SWAP2 POP POP JUMP JUMPDEST PUSH32 0x54686520616D6F756E7420000000000000000000000000000000000000000000 DUP2 MSTORE POP JUMP JUMPDEST PUSH1 0x0 DUP2 MLOAD SWAP1 POP SWAP2 SWAP1 POP JUMP JUMPDEST PUSH1 0x0 DUP2 SWAP1 POP SWAP3 SWAP2 POP POP JUMP JUMPDEST PUSH1 0x0 JUMPDEST DUP4 DUP2 LT ISZERO PUSH2 0xBC4 JUMPI DUP1 DUP3 ADD MLOAD DUP2 DUP5 ADD MSTORE PUSH1 0x20 DUP2 ADD SWAP1 POP PUSH2 0xBA9 JUMP JUMPDEST PUSH1 0x0 DUP5 DUP5 ADD MSTORE POP POP POP POP JUMP JUMPDEST PUSH1 0x0 PUSH2 0xBDB DUP3 PUSH2 0xB90 JUMP JUMPDEST PUSH2 0xBE5 DUP2 DUP6 PUSH2 0xB9B JUMP JUMPDEST SWAP4 POP PUSH2 0xBF5 DUP2 DUP6 PUSH1 0x20 DUP7 ADD PUSH2 0xBA6 JUMP JUMPDEST DUP1 DUP5 ADD SWAP2 POP POP SWAP3 SWAP2 POP POP JUMP JUMPDEST PUSH32 0x2069732067726561746572207468616E2074686520636F6E7472616374206261 PUSH1 0x0 DUP3 ADD MSTORE PUSH32 0x6C616E6365200000000000000000000000000000000000000000000000000000 PUSH1 0x20 DUP3 ADD MSTORE POP JUMP JUMPDEST PUSH1 0x0 PUSH2 0xC5D PUSH1 0x26 DUP4 PUSH2 0xB9B JUMP JUMPDEST SWAP2 POP PUSH2 0xC68 DUP3 PUSH2 0xC01 JUMP JUMPDEST PUSH1 0x26 DUP3 ADD SWAP1 POP SWAP2 SWAP1 POP JUMP JUMPDEST PUSH1 0x0 PUSH2 0xC7E DUP3 PUSH2 0xB6A JUMP JUMPDEST PUSH1 0xB DUP3 ADD SWAP2 POP PUSH2 0xC8E DUP3 DUP6 PUSH2 0xBD0 JUMP JUMPDEST SWAP2 POP PUSH2 0xC99 DUP3 PUSH2 0xC50 JUMP JUMPDEST SWAP2 POP PUSH2 0xCA5 DUP3 DUP5 PUSH2 0xBD0 JUMP JUMPDEST SWAP2 POP DUP2 SWAP1 POP SWAP4 SWAP3 POP POP POP JUMP JUMPDEST PUSH1 0x0 DUP3 DUP3 MSTORE PUSH1 0x20 DUP3 ADD SWAP1 POP SWAP3 SWAP2 POP POP JUMP JUMPDEST PUSH1 0x0 PUSH1 0x1F NOT PUSH1 0x1F DUP4 ADD AND SWAP1 POP SWAP2 SWAP1 POP JUMP JUMPDEST PUSH1 0x0 PUSH2 0xCDE DUP3 PUSH2 0xB90 JUMP JUMPDEST PUSH2 0xCE8 DUP2 DUP6 PUSH2 0xCB1 JUMP JUMPDEST SWAP4 POP PUSH2 0xCF8 DUP2 DUP6 PUSH1 0x20 DUP7 ADD PUSH2 0xBA6 JUMP JUMPDEST PUSH2 0xD01 DUP2 PUSH2 0xCC2 JUMP JUMPDEST DUP5 ADD SWAP2 POP POP SWAP3 SWAP2 POP POP JUMP JUMPDEST PUSH1 0x0 PUSH1 0x20 DUP3 ADD SWAP1 POP DUP2 DUP2 SUB PUSH1 0x0 DUP4 ADD MSTORE PUSH2 0xD26 DUP2 DUP5 PUSH2 0xCD3 JUMP JUMPDEST SWAP1 POP SWAP3 SWAP2 POP POP JUMP JUMPDEST PUSH32 0x4E487B7100000000000000000000000000000000000000000000000000000000 PUSH1 0x0 MSTORE PUSH1 0x32 PUSH1 0x4 MSTORE PUSH1 0x24 PUSH1 0x0 REVERT JUMPDEST PUSH1 0x0 PUSH2 0xD68 DUP3 PUSH2 0x7FF JUMP JUMPDEST SWAP2 POP PUSH2 0xD73 DUP4 PUSH2 0x7FF JUMP JUMPDEST SWAP3 POP DUP3 DUP3 ADD SWAP1 POP DUP1 DUP3 GT ISZERO PUSH2 0xD8B JUMPI PUSH2 0xD8A PUSH2 0xA94 JUMP JUMPDEST JUMPDEST SWAP3 SWAP2 POP POP JUMP JUMPDEST PUSH1 0x0 PUSH2 0xD9C DUP3 PUSH2 0x7FF JUMP JUMPDEST SWAP2 POP PUSH32 0xFFFFFFFFFFFFFFFFFFFFFFFFFFFFFFFFFFFFFFFFFFFFFFFFFFFFFFFFFFFFFFFF DUP3 SUB PUSH2 0xDCE JUMPI PUSH2 0xDCD PUSH2 0xA94 JUMP JUMPDEST JUMPDEST PUSH1 0x1 DUP3 ADD SWAP1 POP SWAP2 SWAP1 POP JUMP JUMPDEST PUSH32 0x4E487B7100000000000000000000000000000000000000000000000000000000 PUSH1 0x0 MSTORE PUSH1 0x41 PUSH1 0x4 MSTORE PUSH1 0x24 PUSH1 0x0 REVERT INVALID LOG2 PUSH5 0x6970667358 0x22 SLT KECCAK256 SWAP3 0xAB PUSH19 0xFC0D113CE871F3071900349D5470E2B807F03 0xE7 LOG1 PUSH19 0xD19D4460D5C13964736F6C6343000811003300 "
				},
				"gasEstimates": {
					"creation": {
						"codeDepositCost": "729200",
						"executionCost": "736",
						"totalCost": "729936"
					},
					"external": {
						"chooseWinningAddress()": "infinite",
						"endLottery()": "infinite",
						"fundContract()": "208",
						"fundLottery()": "infinite",
						"getBalance()": "340",
						"isAddressPlaying(address)": "2905",
						"list_playerAddress(uint256)": "5023",
						"map_isPlaying(address)": "2955",
						"randomInt(uint256)": "infinite",
						"registerAddress(address)": "499",
						"withdraw(uint256)": "infinite",
						"withdrawAll()": "infinite"
					}
				},
				"methodIdentifiers": {
					"chooseWinningAddress()": "7f798243",
					"endLottery()": "1593a8c7",
					"fundContract()": "bd097e21",
					"fundLottery()": "b5cc4539",
					"getBalance()": "12065fe0",
					"isAddressPlaying(address)": "912a90bb",
					"list_playerAddress(uint256)": "27dff143",
					"map_isPlaying(address)": "bff82dee",
					"randomInt(uint256)": "12845966",
					"registerAddress(address)": "a8a54008",
					"withdraw(uint256)": "2e1a7d4d",
					"withdrawAll()": "853828b6"
				}
			},
			"storageLayout": {
				"storage": [
					{
						"astId": 246,
						"contract": "contracts/lottery.sol:Lottery",
						"label": "totalPrize",
						"offset": 0,
						"slot": "0",
						"type": "t_uint256"
					},
					{
						"astId": 250,
						"contract": "contracts/lottery.sol:Lottery",
						"label": "map_isPlaying",
						"offset": 0,
						"slot": "1",
						"type": "t_mapping(t_address,t_bool)"
					},
					{
						"astId": 253,
						"contract": "contracts/lottery.sol:Lottery",
						"label": "list_playerAddress",
						"offset": 0,
						"slot": "2",
						"type": "t_array(t_address_payable)dyn_storage"
					}
				],
				"types": {
					"t_address": {
						"encoding": "inplace",
						"label": "address",
						"numberOfBytes": "20"
					},
					"t_address_payable": {
						"encoding": "inplace",
						"label": "address payable",
						"numberOfBytes": "20"
					},
					"t_array(t_address_payable)dyn_storage": {
						"base": "t_address_payable",
						"encoding": "dynamic_array",
						"label": "address payable[]",
						"numberOfBytes": "32"
					},
					"t_bool": {
						"encoding": "inplace",
						"label": "bool",
						"numberOfBytes": "1"
					},
					"t_mapping(t_address,t_bool)": {
						"encoding": "mapping",
						"key": "t_address",
						"label": "mapping(address => bool)",
						"numberOfBytes": "32",
						"value": "t_bool"
					},
					"t_uint256": {
						"encoding": "inplace",
						"label": "uint256",
						"numberOfBytes": "32"
					}
				}
			},
			"userdoc": {
				"kind": "user",
				"methods": {},
				"version": 1
			}
		}
	}
}