{
	"contracts/lottery.sol": {
		"Lottery": {
			"abi": [
				{
					"inputs": [
						{
							"internalType": "address payable",
							"name": "playerAddress",
							"type": "address"
						}
					],
					"name": "isAddressPlaying",
					"outputs": [
						{
							"internalType": "bool",
							"name": "",
							"type": "bool"
						}
					],
					"stateMutability": "view",
					"type": "function"
				},
				{
					"inputs": [
						{
							"internalType": "uint256",
							"name": "",
							"type": "uint256"
						}
					],
					"name": "list_playerAddress",
					"outputs": [
						{
							"internalType": "address payable",
							"name": "",
							"type": "address"
						}
					],
					"stateMutability": "view",
					"type": "function"
				},
				{
					"inputs": [
						{
							"internalType": "address",
							"name": "",
							"type": "address"
						}
					],
					"name": "map_isPlaying",
					"outputs": [
						{
							"internalType": "bool",
							"name": "",
							"type": "bool"
						}
					],
					"stateMutability": "view",
					"type": "function"
				},
				{
					"inputs": [
						{
							"internalType": "address payable",
							"name": "playerAddress",
							"type": "address"
						}
					],
					"name": "registerAddress",
					"outputs": [],
					"stateMutability": "nonpayable",
					"type": "function"
				}
			],
			"devdoc": {
				"custom:dev-run-script": "./scripts/deploy_with_ethers.ts",
				"details": "A blockchain lottery",
				"kind": "dev",
				"methods": {},
				"title": "Lottery",
				"version": 1
			},
			"evm": {
				"assembly": "    /* \"contracts/lottery.sol\":192:1193  contract Lottery {\r... */\n  mstore(0x40, 0x80)\n  callvalue\n  dup1\n  iszero\n  tag_1\n  jumpi\n  0x00\n  dup1\n  revert\ntag_1:\n  pop\n  dataSize(sub_0)\n  dup1\n  dataOffset(sub_0)\n  0x00\n  codecopy\n  0x00\n  return\nstop\n\nsub_0: assembly {\n        /* \"contracts/lottery.sol\":192:1193  contract Lottery {\r... */\n      mstore(0x40, 0x80)\n      callvalue\n      dup1\n      iszero\n      tag_1\n      jumpi\n      0x00\n      dup1\n      revert\n    tag_1:\n      pop\n      jumpi(tag_2, lt(calldatasize, 0x04))\n      shr(0xe0, calldataload(0x00))\n      dup1\n      0x27dff143\n      eq\n      tag_3\n      jumpi\n      dup1\n      0x912a90bb\n      eq\n      tag_4\n      jumpi\n      dup1\n      0xa8a54008\n      eq\n      tag_5\n      jumpi\n      dup1\n      0xbff82dee\n      eq\n      tag_6\n      jumpi\n    tag_2:\n      0x00\n      dup1\n      revert\n        /* \"contracts/lottery.sol\":268:311  address payable[] public list_playerAddress */\n    tag_3:\n      tag_7\n      0x04\n      dup1\n      calldatasize\n      sub\n      dup2\n      add\n      swap1\n      tag_8\n      swap2\n      swap1\n      tag_9\n      jump\t// in\n    tag_8:\n      tag_10\n      jump\t// in\n    tag_7:\n      mload(0x40)\n      tag_11\n      swap2\n      swap1\n      tag_12\n      jump\t// in\n    tag_11:\n      mload(0x40)\n      dup1\n      swap2\n      sub\n      swap1\n      return\n        /* \"contracts/lottery.sol\":753:939  function isAddressPlaying(address payable playerAddress) public view returns (bool) {\r... */\n    tag_4:\n      tag_13\n      0x04\n      dup1\n      calldatasize\n      sub\n      dup2\n      add\n      swap1\n      tag_14\n      swap2\n      swap1\n      tag_15\n      jump\t// in\n    tag_14:\n      tag_16\n      jump\t// in\n    tag_13:\n      mload(0x40)\n      tag_17\n      swap2\n      swap1\n      tag_18\n      jump\t// in\n    tag_17:\n      mload(0x40)\n      dup1\n      swap2\n      sub\n      swap1\n      return\n        /* \"contracts/lottery.sol\":320:741  function registerAddress(address payable playerAddress) public {\r... */\n    tag_5:\n      tag_19\n      0x04\n      dup1\n      calldatasize\n      sub\n      dup2\n      add\n      swap1\n      tag_20\n      swap2\n      swap1\n      tag_15\n      jump\t// in\n    tag_20:\n      tag_21\n      jump\t// in\n    tag_19:\n      stop\n        /* \"contracts/lottery.sol\":216:261  mapping(address => bool) public map_isPlaying */\n    tag_6:\n      tag_22\n      0x04\n      dup1\n      calldatasize\n      sub\n      dup2\n      add\n      swap1\n      tag_23\n      swap2\n      swap1\n      tag_24\n      jump\t// in\n    tag_23:\n      tag_25\n      jump\t// in\n    tag_22:\n      mload(0x40)\n      tag_26\n      swap2\n      swap1\n      tag_18\n      jump\t// in\n    tag_26:\n      mload(0x40)\n      dup1\n      swap2\n      sub\n      swap1\n      return\n        /* \"contracts/lottery.sol\":268:311  address payable[] public list_playerAddress */\n    tag_10:\n      0x01\n      dup2\n      dup2\n      sload\n      dup2\n      lt\n      tag_27\n      jumpi\n      0x00\n      dup1\n      revert\n    tag_27:\n      swap1\n      0x00\n      mstore\n      keccak256(0x00, 0x20)\n      add\n      0x00\n      swap2\n      pop\n      sload\n      swap1\n      0x0100\n      exp\n      swap1\n      div\n      0xffffffffffffffffffffffffffffffffffffffff\n      and\n      dup2\n      jump\t// out\n        /* \"contracts/lottery.sol\":753:939  function isAddressPlaying(address payable playerAddress) public view returns (bool) {\r... */\n    tag_16:\n        /* \"contracts/lottery.sol\":831:835  bool */\n      0x00\n        /* \"contracts/lottery.sol\":903:916  map_isPlaying */\n      dup1\n        /* \"contracts/lottery.sol\":903:931  map_isPlaying[playerAddress] */\n      0x00\n        /* \"contracts/lottery.sol\":917:930  playerAddress */\n      dup4\n        /* \"contracts/lottery.sol\":903:931  map_isPlaying[playerAddress] */\n      0xffffffffffffffffffffffffffffffffffffffff\n      and\n      0xffffffffffffffffffffffffffffffffffffffff\n      and\n      dup2\n      mstore\n      0x20\n      add\n      swap1\n      dup2\n      mstore\n      0x20\n      add\n      0x00\n      keccak256\n      0x00\n      swap1\n      sload\n      swap1\n      0x0100\n      exp\n      swap1\n      div\n      0xff\n      and\n        /* \"contracts/lottery.sol\":896:931  return map_isPlaying[playerAddress] */\n      swap1\n      pop\n        /* \"contracts/lottery.sol\":753:939  function isAddressPlaying(address payable playerAddress) public view returns (bool) {\r... */\n      swap2\n      swap1\n      pop\n      jump\t// out\n        /* \"contracts/lottery.sol\":320:741  function registerAddress(address payable playerAddress) public {\r... */\n    tag_21:\n        /* \"contracts/lottery.sol\":499:513  bool isPlaying */\n      0x00\n        /* \"contracts/lottery.sol\":516:529  map_isPlaying */\n      dup1\n        /* \"contracts/lottery.sol\":516:544  map_isPlaying[playerAddress] */\n      0x00\n        /* \"contracts/lottery.sol\":530:543  playerAddress */\n      dup4\n        /* \"contracts/lottery.sol\":516:544  map_isPlaying[playerAddress] */\n      0xffffffffffffffffffffffffffffffffffffffff\n      and\n      0xffffffffffffffffffffffffffffffffffffffff\n      and\n      dup2\n      mstore\n      0x20\n      add\n      swap1\n      dup2\n      mstore\n      0x20\n      add\n      0x00\n      keccak256\n      0x00\n      swap1\n      sload\n      swap1\n      0x0100\n      exp\n      swap1\n      div\n      0xff\n      and\n        /* \"contracts/lottery.sol\":499:544  bool isPlaying = map_isPlaying[playerAddress] */\n      swap1\n      pop\n        /* \"contracts/lottery.sol\":564:573  isPlaying */\n      dup1\n        /* \"contracts/lottery.sol\":563:573  !isPlaying */\n      iszero\n        /* \"contracts/lottery.sol\":555:623  require(!isPlaying, \"This address has already entered the lottery.\") */\n      tag_31\n      jumpi\n      mload(0x40)\n      0x08c379a000000000000000000000000000000000000000000000000000000000\n      dup2\n      mstore\n      0x04\n      add\n      tag_32\n      swap1\n      tag_33\n      jump\t// in\n    tag_32:\n      mload(0x40)\n      dup1\n      swap2\n      sub\n      swap1\n      revert\n    tag_31:\n        /* \"contracts/lottery.sol\":729:733  true */\n      0x01\n        /* \"contracts/lottery.sol\":698:711  map_isPlaying */\n      0x00\n        /* \"contracts/lottery.sol\":698:726  map_isPlaying[playerAddress] */\n      dup1\n        /* \"contracts/lottery.sol\":712:725  playerAddress */\n      dup5\n        /* \"contracts/lottery.sol\":698:726  map_isPlaying[playerAddress] */\n      0xffffffffffffffffffffffffffffffffffffffff\n      and\n      0xffffffffffffffffffffffffffffffffffffffff\n      and\n      dup2\n      mstore\n      0x20\n      add\n      swap1\n      dup2\n      mstore\n      0x20\n      add\n      0x00\n      keccak256\n      0x00\n        /* \"contracts/lottery.sol\":698:733  map_isPlaying[playerAddress] = true */\n      0x0100\n      exp\n      dup2\n      sload\n      dup2\n      0xff\n      mul\n      not\n      and\n      swap1\n      dup4\n      iszero\n      iszero\n      mul\n      or\n      swap1\n      sstore\n      pop\n        /* \"contracts/lottery.sol\":383:741  {\r... */\n      pop\n        /* \"contracts/lottery.sol\":320:741  function registerAddress(address payable playerAddress) public {\r... */\n      pop\n      jump\t// out\n        /* \"contracts/lottery.sol\":216:261  mapping(address => bool) public map_isPlaying */\n    tag_25:\n      mstore(0x20, 0x00)\n      dup1\n      0x00\n      mstore\n      keccak256(0x00, 0x40)\n      0x00\n      swap2\n      pop\n      sload\n      swap1\n      0x0100\n      exp\n      swap1\n      div\n      0xff\n      and\n      dup2\n      jump\t// out\n        /* \"#utility.yul\":7:146   */\n    tag_35:\n        /* \"#utility.yul\":53:58   */\n      0x00\n        /* \"#utility.yul\":91:97   */\n      dup2\n        /* \"#utility.yul\":78:98   */\n      calldataload\n        /* \"#utility.yul\":69:98   */\n      swap1\n      pop\n        /* \"#utility.yul\":107:140   */\n      tag_37\n        /* \"#utility.yul\":134:139   */\n      dup2\n        /* \"#utility.yul\":107:140   */\n      tag_38\n      jump\t// in\n    tag_37:\n        /* \"#utility.yul\":7:146   */\n      swap3\n      swap2\n      pop\n      pop\n      jump\t// out\n        /* \"#utility.yul\":152:307   */\n    tag_39:\n        /* \"#utility.yul\":206:211   */\n      0x00\n        /* \"#utility.yul\":244:250   */\n      dup2\n        /* \"#utility.yul\":231:251   */\n      calldataload\n        /* \"#utility.yul\":222:251   */\n      swap1\n      pop\n        /* \"#utility.yul\":260:301   */\n      tag_41\n        /* \"#utility.yul\":295:300   */\n      dup2\n        /* \"#utility.yul\":260:301   */\n      tag_42\n      jump\t// in\n    tag_41:\n        /* \"#utility.yul\":152:307   */\n      swap3\n      swap2\n      pop\n      pop\n      jump\t// out\n        /* \"#utility.yul\":313:452   */\n    tag_43:\n        /* \"#utility.yul\":359:364   */\n      0x00\n        /* \"#utility.yul\":397:403   */\n      dup2\n        /* \"#utility.yul\":384:404   */\n      calldataload\n        /* \"#utility.yul\":375:404   */\n      swap1\n      pop\n        /* \"#utility.yul\":413:446   */\n      tag_45\n        /* \"#utility.yul\":440:445   */\n      dup2\n        /* \"#utility.yul\":413:446   */\n      tag_46\n      jump\t// in\n    tag_45:\n        /* \"#utility.yul\":313:452   */\n      swap3\n      swap2\n      pop\n      pop\n      jump\t// out\n        /* \"#utility.yul\":458:787   */\n    tag_24:\n        /* \"#utility.yul\":517:523   */\n      0x00\n        /* \"#utility.yul\":566:568   */\n      0x20\n        /* \"#utility.yul\":554:563   */\n      dup3\n        /* \"#utility.yul\":545:552   */\n      dup5\n        /* \"#utility.yul\":541:564   */\n      sub\n        /* \"#utility.yul\":537:569   */\n      slt\n        /* \"#utility.yul\":534:653   */\n      iszero\n      tag_48\n      jumpi\n        /* \"#utility.yul\":572:651   */\n      tag_49\n      tag_50\n      jump\t// in\n    tag_49:\n        /* \"#utility.yul\":534:653   */\n    tag_48:\n        /* \"#utility.yul\":692:693   */\n      0x00\n        /* \"#utility.yul\":717:770   */\n      tag_51\n        /* \"#utility.yul\":762:769   */\n      dup5\n        /* \"#utility.yul\":753:759   */\n      dup3\n        /* \"#utility.yul\":742:751   */\n      dup6\n        /* \"#utility.yul\":738:760   */\n      add\n        /* \"#utility.yul\":717:770   */\n      tag_35\n      jump\t// in\n    tag_51:\n        /* \"#utility.yul\":707:770   */\n      swap2\n      pop\n        /* \"#utility.yul\":663:780   */\n      pop\n        /* \"#utility.yul\":458:787   */\n      swap3\n      swap2\n      pop\n      pop\n      jump\t// out\n        /* \"#utility.yul\":793:1138   */\n    tag_15:\n        /* \"#utility.yul\":860:866   */\n      0x00\n        /* \"#utility.yul\":909:911   */\n      0x20\n        /* \"#utility.yul\":897:906   */\n      dup3\n        /* \"#utility.yul\":888:895   */\n      dup5\n        /* \"#utility.yul\":884:907   */\n      sub\n        /* \"#utility.yul\":880:912   */\n      slt\n        /* \"#utility.yul\":877:996   */\n      iszero\n      tag_53\n      jumpi\n        /* \"#utility.yul\":915:994   */\n      tag_54\n      tag_50\n      jump\t// in\n    tag_54:\n        /* \"#utility.yul\":877:996   */\n    tag_53:\n        /* \"#utility.yul\":1035:1036   */\n      0x00\n        /* \"#utility.yul\":1060:1121   */\n      tag_55\n        /* \"#utility.yul\":1113:1120   */\n      dup5\n        /* \"#utility.yul\":1104:1110   */\n      dup3\n        /* \"#utility.yul\":1093:1102   */\n      dup6\n        /* \"#utility.yul\":1089:1111   */\n      add\n        /* \"#utility.yul\":1060:1121   */\n      tag_39\n      jump\t// in\n    tag_55:\n        /* \"#utility.yul\":1050:1121   */\n      swap2\n      pop\n        /* \"#utility.yul\":1006:1131   */\n      pop\n        /* \"#utility.yul\":793:1138   */\n      swap3\n      swap2\n      pop\n      pop\n      jump\t// out\n        /* \"#utility.yul\":1144:1473   */\n    tag_9:\n        /* \"#utility.yul\":1203:1209   */\n      0x00\n        /* \"#utility.yul\":1252:1254   */\n      0x20\n        /* \"#utility.yul\":1240:1249   */\n      dup3\n        /* \"#utility.yul\":1231:1238   */\n      dup5\n        /* \"#utility.yul\":1227:1250   */\n      sub\n        /* \"#utility.yul\":1223:1255   */\n      slt\n        /* \"#utility.yul\":1220:1339   */\n      iszero\n      tag_57\n      jumpi\n        /* \"#utility.yul\":1258:1337   */\n      tag_58\n      tag_50\n      jump\t// in\n    tag_58:\n        /* \"#utility.yul\":1220:1339   */\n    tag_57:\n        /* \"#utility.yul\":1378:1379   */\n      0x00\n        /* \"#utility.yul\":1403:1456   */\n      tag_59\n        /* \"#utility.yul\":1448:1455   */\n      dup5\n        /* \"#utility.yul\":1439:1445   */\n      dup3\n        /* \"#utility.yul\":1428:1437   */\n      dup6\n        /* \"#utility.yul\":1424:1446   */\n      add\n        /* \"#utility.yul\":1403:1456   */\n      tag_43\n      jump\t// in\n    tag_59:\n        /* \"#utility.yul\":1393:1456   */\n      swap2\n      pop\n        /* \"#utility.yul\":1349:1466   */\n      pop\n        /* \"#utility.yul\":1144:1473   */\n      swap3\n      swap2\n      pop\n      pop\n      jump\t// out\n        /* \"#utility.yul\":1479:1621   */\n    tag_60:\n        /* \"#utility.yul\":1582:1614   */\n      tag_62\n        /* \"#utility.yul\":1608:1613   */\n      dup2\n        /* \"#utility.yul\":1582:1614   */\n      tag_63\n      jump\t// in\n    tag_62:\n        /* \"#utility.yul\":1577:1580   */\n      dup3\n        /* \"#utility.yul\":1570:1615   */\n      mstore\n        /* \"#utility.yul\":1479:1621   */\n      pop\n      pop\n      jump\t// out\n        /* \"#utility.yul\":1627:1736   */\n    tag_64:\n        /* \"#utility.yul\":1708:1729   */\n      tag_66\n        /* \"#utility.yul\":1723:1728   */\n      dup2\n        /* \"#utility.yul\":1708:1729   */\n      tag_67\n      jump\t// in\n    tag_66:\n        /* \"#utility.yul\":1703:1706   */\n      dup3\n        /* \"#utility.yul\":1696:1730   */\n      mstore\n        /* \"#utility.yul\":1627:1736   */\n      pop\n      pop\n      jump\t// out\n        /* \"#utility.yul\":1742:2108   */\n    tag_68:\n        /* \"#utility.yul\":1884:1887   */\n      0x00\n        /* \"#utility.yul\":1905:1972   */\n      tag_70\n        /* \"#utility.yul\":1969:1971   */\n      0x2d\n        /* \"#utility.yul\":1964:1967   */\n      dup4\n        /* \"#utility.yul\":1905:1972   */\n      tag_71\n      jump\t// in\n    tag_70:\n        /* \"#utility.yul\":1898:1972   */\n      swap2\n      pop\n        /* \"#utility.yul\":1981:2074   */\n      tag_72\n        /* \"#utility.yul\":2070:2073   */\n      dup3\n        /* \"#utility.yul\":1981:2074   */\n      tag_73\n      jump\t// in\n    tag_72:\n        /* \"#utility.yul\":2099:2101   */\n      0x40\n        /* \"#utility.yul\":2094:2097   */\n      dup3\n        /* \"#utility.yul\":2090:2102   */\n      add\n        /* \"#utility.yul\":2083:2102   */\n      swap1\n      pop\n        /* \"#utility.yul\":1742:2108   */\n      swap2\n      swap1\n      pop\n      jump\t// out\n        /* \"#utility.yul\":2114:2368   */\n    tag_12:\n        /* \"#utility.yul\":2223:2227   */\n      0x00\n        /* \"#utility.yul\":2261:2263   */\n      0x20\n        /* \"#utility.yul\":2250:2259   */\n      dup3\n        /* \"#utility.yul\":2246:2264   */\n      add\n        /* \"#utility.yul\":2238:2264   */\n      swap1\n      pop\n        /* \"#utility.yul\":2274:2361   */\n      tag_75\n        /* \"#utility.yul\":2358:2359   */\n      0x00\n        /* \"#utility.yul\":2347:2356   */\n      dup4\n        /* \"#utility.yul\":2343:2360   */\n      add\n        /* \"#utility.yul\":2334:2340   */\n      dup5\n        /* \"#utility.yul\":2274:2361   */\n      tag_60\n      jump\t// in\n    tag_75:\n        /* \"#utility.yul\":2114:2368   */\n      swap3\n      swap2\n      pop\n      pop\n      jump\t// out\n        /* \"#utility.yul\":2374:2584   */\n    tag_18:\n        /* \"#utility.yul\":2461:2465   */\n      0x00\n        /* \"#utility.yul\":2499:2501   */\n      0x20\n        /* \"#utility.yul\":2488:2497   */\n      dup3\n        /* \"#utility.yul\":2484:2502   */\n      add\n        /* \"#utility.yul\":2476:2502   */\n      swap1\n      pop\n        /* \"#utility.yul\":2512:2577   */\n      tag_77\n        /* \"#utility.yul\":2574:2575   */\n      0x00\n        /* \"#utility.yul\":2563:2572   */\n      dup4\n        /* \"#utility.yul\":2559:2576   */\n      add\n        /* \"#utility.yul\":2550:2556   */\n      dup5\n        /* \"#utility.yul\":2512:2577   */\n      tag_64\n      jump\t// in\n    tag_77:\n        /* \"#utility.yul\":2374:2584   */\n      swap3\n      swap2\n      pop\n      pop\n      jump\t// out\n        /* \"#utility.yul\":2590:3009   */\n    tag_33:\n        /* \"#utility.yul\":2756:2760   */\n      0x00\n        /* \"#utility.yul\":2794:2796   */\n      0x20\n        /* \"#utility.yul\":2783:2792   */\n      dup3\n        /* \"#utility.yul\":2779:2797   */\n      add\n        /* \"#utility.yul\":2771:2797   */\n      swap1\n      pop\n        /* \"#utility.yul\":2843:2852   */\n      dup2\n        /* \"#utility.yul\":2837:2841   */\n      dup2\n        /* \"#utility.yul\":2833:2853   */\n      sub\n        /* \"#utility.yul\":2829:2830   */\n      0x00\n        /* \"#utility.yul\":2818:2827   */\n      dup4\n        /* \"#utility.yul\":2814:2831   */\n      add\n        /* \"#utility.yul\":2807:2854   */\n      mstore\n        /* \"#utility.yul\":2871:3002   */\n      tag_79\n        /* \"#utility.yul\":2997:3001   */\n      dup2\n        /* \"#utility.yul\":2871:3002   */\n      tag_68\n      jump\t// in\n    tag_79:\n        /* \"#utility.yul\":2863:3002   */\n      swap1\n      pop\n        /* \"#utility.yul\":2590:3009   */\n      swap2\n      swap1\n      pop\n      jump\t// out\n        /* \"#utility.yul\":3096:3265   */\n    tag_71:\n        /* \"#utility.yul\":3180:3191   */\n      0x00\n        /* \"#utility.yul\":3214:3220   */\n      dup3\n        /* \"#utility.yul\":3209:3212   */\n      dup3\n        /* \"#utility.yul\":3202:3221   */\n      mstore\n        /* \"#utility.yul\":3254:3258   */\n      0x20\n        /* \"#utility.yul\":3249:3252   */\n      dup3\n        /* \"#utility.yul\":3245:3259   */\n      add\n        /* \"#utility.yul\":3230:3259   */\n      swap1\n      pop\n        /* \"#utility.yul\":3096:3265   */\n      swap3\n      swap2\n      pop\n      pop\n      jump\t// out\n        /* \"#utility.yul\":3271:3367   */\n    tag_83:\n        /* \"#utility.yul\":3308:3315   */\n      0x00\n        /* \"#utility.yul\":3337:3361   */\n      tag_85\n        /* \"#utility.yul\":3355:3360   */\n      dup3\n        /* \"#utility.yul\":3337:3361   */\n      tag_86\n      jump\t// in\n    tag_85:\n        /* \"#utility.yul\":3326:3361   */\n      swap1\n      pop\n        /* \"#utility.yul\":3271:3367   */\n      swap2\n      swap1\n      pop\n      jump\t// out\n        /* \"#utility.yul\":3373:3477   */\n    tag_63:\n        /* \"#utility.yul\":3418:3425   */\n      0x00\n        /* \"#utility.yul\":3447:3471   */\n      tag_88\n        /* \"#utility.yul\":3465:3470   */\n      dup3\n        /* \"#utility.yul\":3447:3471   */\n      tag_86\n      jump\t// in\n    tag_88:\n        /* \"#utility.yul\":3436:3471   */\n      swap1\n      pop\n        /* \"#utility.yul\":3373:3477   */\n      swap2\n      swap1\n      pop\n      jump\t// out\n        /* \"#utility.yul\":3483:3573   */\n    tag_67:\n        /* \"#utility.yul\":3517:3524   */\n      0x00\n        /* \"#utility.yul\":3560:3565   */\n      dup2\n        /* \"#utility.yul\":3553:3566   */\n      iszero\n        /* \"#utility.yul\":3546:3567   */\n      iszero\n        /* \"#utility.yul\":3535:3567   */\n      swap1\n      pop\n        /* \"#utility.yul\":3483:3573   */\n      swap2\n      swap1\n      pop\n      jump\t// out\n        /* \"#utility.yul\":3579:3705   */\n    tag_86:\n        /* \"#utility.yul\":3616:3623   */\n      0x00\n        /* \"#utility.yul\":3656:3698   */\n      0xffffffffffffffffffffffffffffffffffffffff\n        /* \"#utility.yul\":3649:3654   */\n      dup3\n        /* \"#utility.yul\":3645:3699   */\n      and\n        /* \"#utility.yul\":3634:3699   */\n      swap1\n      pop\n        /* \"#utility.yul\":3579:3705   */\n      swap2\n      swap1\n      pop\n      jump\t// out\n        /* \"#utility.yul\":3711:3788   */\n    tag_91:\n        /* \"#utility.yul\":3748:3755   */\n      0x00\n        /* \"#utility.yul\":3777:3782   */\n      dup2\n        /* \"#utility.yul\":3766:3782   */\n      swap1\n      pop\n        /* \"#utility.yul\":3711:3788   */\n      swap2\n      swap1\n      pop\n      jump\t// out\n        /* \"#utility.yul\":3917:4034   */\n    tag_50:\n        /* \"#utility.yul\":4026:4027   */\n      0x00\n        /* \"#utility.yul\":4023:4024   */\n      dup1\n        /* \"#utility.yul\":4016:4028   */\n      revert\n        /* \"#utility.yul\":4040:4272   */\n    tag_73:\n        /* \"#utility.yul\":4180:4214   */\n      0x5468697320616464726573732068617320616c726561647920656e7465726564\n        /* \"#utility.yul\":4176:4177   */\n      0x00\n        /* \"#utility.yul\":4168:4174   */\n      dup3\n        /* \"#utility.yul\":4164:4178   */\n      add\n        /* \"#utility.yul\":4157:4215   */\n      mstore\n        /* \"#utility.yul\":4249:4264   */\n      0x20746865206c6f74746572792e00000000000000000000000000000000000000\n        /* \"#utility.yul\":4244:4246   */\n      0x20\n        /* \"#utility.yul\":4236:4242   */\n      dup3\n        /* \"#utility.yul\":4232:4247   */\n      add\n        /* \"#utility.yul\":4225:4265   */\n      mstore\n        /* \"#utility.yul\":4040:4272   */\n      pop\n      jump\t// out\n        /* \"#utility.yul\":4278:4400   */\n    tag_38:\n        /* \"#utility.yul\":4351:4375   */\n      tag_98\n        /* \"#utility.yul\":4369:4374   */\n      dup2\n        /* \"#utility.yul\":4351:4375   */\n      tag_83\n      jump\t// in\n    tag_98:\n        /* \"#utility.yul\":4344:4349   */\n      dup2\n        /* \"#utility.yul\":4341:4376   */\n      eq\n        /* \"#utility.yul\":4331:4394   */\n      tag_99\n      jumpi\n        /* \"#utility.yul\":4390:4391   */\n      0x00\n        /* \"#utility.yul\":4387:4388   */\n      dup1\n        /* \"#utility.yul\":4380:4392   */\n      revert\n        /* \"#utility.yul\":4331:4394   */\n    tag_99:\n        /* \"#utility.yul\":4278:4400   */\n      pop\n      jump\t// out\n        /* \"#utility.yul\":4406:4544   */\n    tag_42:\n        /* \"#utility.yul\":4487:4519   */\n      tag_101\n        /* \"#utility.yul\":4513:4518   */\n      dup2\n        /* \"#utility.yul\":4487:4519   */\n      tag_63\n      jump\t// in\n    tag_101:\n        /* \"#utility.yul\":4480:4485   */\n      dup2\n        /* \"#utility.yul\":4477:4520   */\n      eq\n        /* \"#utility.yul\":4467:4538   */\n      tag_102\n      jumpi\n        /* \"#utility.yul\":4534:4535   */\n      0x00\n        /* \"#utility.yul\":4531:4532   */\n      dup1\n        /* \"#utility.yul\":4524:4536   */\n      revert\n        /* \"#utility.yul\":4467:4538   */\n    tag_102:\n        /* \"#utility.yul\":4406:4544   */\n      pop\n      jump\t// out\n        /* \"#utility.yul\":4550:4672   */\n    tag_46:\n        /* \"#utility.yul\":4623:4647   */\n      tag_104\n        /* \"#utility.yul\":4641:4646   */\n      dup2\n        /* \"#utility.yul\":4623:4647   */\n      tag_91\n      jump\t// in\n    tag_104:\n        /* \"#utility.yul\":4616:4621   */\n      dup2\n        /* \"#utility.yul\":4613:4648   */\n      eq\n        /* \"#utility.yul\":4603:4666   */\n      tag_105\n      jumpi\n        /* \"#utility.yul\":4662:4663   */\n      0x00\n        /* \"#utility.yul\":4659:4660   */\n      dup1\n        /* \"#utility.yul\":4652:4664   */\n      revert\n        /* \"#utility.yul\":4603:4666   */\n    tag_105:\n        /* \"#utility.yul\":4550:4672   */\n      pop\n      jump\t// out\n\n    auxdata: 0xa2646970667358221220970e48f2586c41c702b5947e1d51fc58aef7393730df5da32e1ab558798c2fb464736f6c63430008070033\n}\n",
				"bytecode": {
					"linkReferences": {},
					"object": "608060405234801561001057600080fd5b50610534806100206000396000f3fe608060405234801561001057600080fd5b506004361061004c5760003560e01c806327dff14314610051578063912a90bb14610081578063a8a54008146100b1578063bff82dee146100cd575b600080fd5b61006b60048036038101906100669190610336565b6100fd565b60405161007891906103a4565b60405180910390f35b61009b60048036038101906100969190610309565b61013c565b6040516100a891906103bf565b60405180910390f35b6100cb60048036038101906100c69190610309565b610191565b005b6100e760048036038101906100e291906102dc565b61027d565b6040516100f491906103bf565b60405180910390f35b6001818154811061010d57600080fd5b906000526020600020016000915054906101000a900473ffffffffffffffffffffffffffffffffffffffff1681565b60008060008373ffffffffffffffffffffffffffffffffffffffff1673ffffffffffffffffffffffffffffffffffffffff16815260200190815260200160002060009054906101000a900460ff169050919050565b60008060008373ffffffffffffffffffffffffffffffffffffffff1673ffffffffffffffffffffffffffffffffffffffff16815260200190815260200160002060009054906101000a900460ff1690508015610222576040517f08c379a0000000000000000000000000000000000000000000000000000000008152600401610219906103da565b60405180910390fd5b60016000808473ffffffffffffffffffffffffffffffffffffffff1673ffffffffffffffffffffffffffffffffffffffff16815260200190815260200160002060006101000a81548160ff0219169083151502179055505050565b60006020528060005260406000206000915054906101000a900460ff1681565b6000813590506102ac816104b9565b92915050565b6000813590506102c1816104d0565b92915050565b6000813590506102d6816104e7565b92915050565b6000602082840312156102f2576102f1610465565b5b60006103008482850161029d565b91505092915050565b60006020828403121561031f5761031e610465565b5b600061032d848285016102b2565b91505092915050565b60006020828403121561034c5761034b610465565b5b600061035a848285016102c7565b91505092915050565b61036c8161041d565b82525050565b61037b8161042f565b82525050565b600061038e602d836103fa565b91506103998261046a565b604082019050919050565b60006020820190506103b96000830184610363565b92915050565b60006020820190506103d46000830184610372565b92915050565b600060208201905081810360008301526103f381610381565b9050919050565b600082825260208201905092915050565b60006104168261043b565b9050919050565b60006104288261043b565b9050919050565b60008115159050919050565b600073ffffffffffffffffffffffffffffffffffffffff82169050919050565b6000819050919050565b600080fd5b7f5468697320616464726573732068617320616c726561647920656e746572656460008201527f20746865206c6f74746572792e00000000000000000000000000000000000000602082015250565b6104c28161040b565b81146104cd57600080fd5b50565b6104d98161041d565b81146104e457600080fd5b50565b6104f08161045b565b81146104fb57600080fd5b5056fea2646970667358221220970e48f2586c41c702b5947e1d51fc58aef7393730df5da32e1ab558798c2fb464736f6c63430008070033",
					"opcodes": "PUSH1 0x80 PUSH1 0x40 MSTORE CALLVALUE DUP1 ISZERO PUSH2 0x10 JUMPI PUSH1 0x0 DUP1 REVERT JUMPDEST POP PUSH2 0x534 DUP1 PUSH2 0x20 PUSH1 0x0 CODECOPY PUSH1 0x0 RETURN INVALID PUSH1 0x80 PUSH1 0x40 MSTORE CALLVALUE DUP1 ISZERO PUSH2 0x10 JUMPI PUSH1 0x0 DUP1 REVERT JUMPDEST POP PUSH1 0x4 CALLDATASIZE LT PUSH2 0x4C JUMPI PUSH1 0x0 CALLDATALOAD PUSH1 0xE0 SHR DUP1 PUSH4 0x27DFF143 EQ PUSH2 0x51 JUMPI DUP1 PUSH4 0x912A90BB EQ PUSH2 0x81 JUMPI DUP1 PUSH4 0xA8A54008 EQ PUSH2 0xB1 JUMPI DUP1 PUSH4 0xBFF82DEE EQ PUSH2 0xCD JUMPI JUMPDEST PUSH1 0x0 DUP1 REVERT JUMPDEST PUSH2 0x6B PUSH1 0x4 DUP1 CALLDATASIZE SUB DUP2 ADD SWAP1 PUSH2 0x66 SWAP2 SWAP1 PUSH2 0x336 JUMP JUMPDEST PUSH2 0xFD JUMP JUMPDEST PUSH1 0x40 MLOAD PUSH2 0x78 SWAP2 SWAP1 PUSH2 0x3A4 JUMP JUMPDEST PUSH1 0x40 MLOAD DUP1 SWAP2 SUB SWAP1 RETURN JUMPDEST PUSH2 0x9B PUSH1 0x4 DUP1 CALLDATASIZE SUB DUP2 ADD SWAP1 PUSH2 0x96 SWAP2 SWAP1 PUSH2 0x309 JUMP JUMPDEST PUSH2 0x13C JUMP JUMPDEST PUSH1 0x40 MLOAD PUSH2 0xA8 SWAP2 SWAP1 PUSH2 0x3BF JUMP JUMPDEST PUSH1 0x40 MLOAD DUP1 SWAP2 SUB SWAP1 RETURN JUMPDEST PUSH2 0xCB PUSH1 0x4 DUP1 CALLDATASIZE SUB DUP2 ADD SWAP1 PUSH2 0xC6 SWAP2 SWAP1 PUSH2 0x309 JUMP JUMPDEST PUSH2 0x191 JUMP JUMPDEST STOP JUMPDEST PUSH2 0xE7 PUSH1 0x4 DUP1 CALLDATASIZE SUB DUP2 ADD SWAP1 PUSH2 0xE2 SWAP2 SWAP1 PUSH2 0x2DC JUMP JUMPDEST PUSH2 0x27D JUMP JUMPDEST PUSH1 0x40 MLOAD PUSH2 0xF4 SWAP2 SWAP1 PUSH2 0x3BF JUMP JUMPDEST PUSH1 0x40 MLOAD DUP1 SWAP2 SUB SWAP1 RETURN JUMPDEST PUSH1 0x1 DUP2 DUP2 SLOAD DUP2 LT PUSH2 0x10D JUMPI PUSH1 0x0 DUP1 REVERT JUMPDEST SWAP1 PUSH1 0x0 MSTORE PUSH1 0x20 PUSH1 0x0 KECCAK256 ADD PUSH1 0x0 SWAP2 POP SLOAD SWAP1 PUSH2 0x100 EXP SWAP1 DIV PUSH20 0xFFFFFFFFFFFFFFFFFFFFFFFFFFFFFFFFFFFFFFFF AND DUP2 JUMP JUMPDEST PUSH1 0x0 DUP1 PUSH1 0x0 DUP4 PUSH20 0xFFFFFFFFFFFFFFFFFFFFFFFFFFFFFFFFFFFFFFFF AND PUSH20 0xFFFFFFFFFFFFFFFFFFFFFFFFFFFFFFFFFFFFFFFF AND DUP2 MSTORE PUSH1 0x20 ADD SWAP1 DUP2 MSTORE PUSH1 0x20 ADD PUSH1 0x0 KECCAK256 PUSH1 0x0 SWAP1 SLOAD SWAP1 PUSH2 0x100 EXP SWAP1 DIV PUSH1 0xFF AND SWAP1 POP SWAP2 SWAP1 POP JUMP JUMPDEST PUSH1 0x0 DUP1 PUSH1 0x0 DUP4 PUSH20 0xFFFFFFFFFFFFFFFFFFFFFFFFFFFFFFFFFFFFFFFF AND PUSH20 0xFFFFFFFFFFFFFFFFFFFFFFFFFFFFFFFFFFFFFFFF AND DUP2 MSTORE PUSH1 0x20 ADD SWAP1 DUP2 MSTORE PUSH1 0x20 ADD PUSH1 0x0 KECCAK256 PUSH1 0x0 SWAP1 SLOAD SWAP1 PUSH2 0x100 EXP SWAP1 DIV PUSH1 0xFF AND SWAP1 POP DUP1 ISZERO PUSH2 0x222 JUMPI PUSH1 0x40 MLOAD PUSH32 0x8C379A000000000000000000000000000000000000000000000000000000000 DUP2 MSTORE PUSH1 0x4 ADD PUSH2 0x219 SWAP1 PUSH2 0x3DA JUMP JUMPDEST PUSH1 0x40 MLOAD DUP1 SWAP2 SUB SWAP1 REVERT JUMPDEST PUSH1 0x1 PUSH1 0x0 DUP1 DUP5 PUSH20 0xFFFFFFFFFFFFFFFFFFFFFFFFFFFFFFFFFFFFFFFF AND PUSH20 0xFFFFFFFFFFFFFFFFFFFFFFFFFFFFFFFFFFFFFFFF AND DUP2 MSTORE PUSH1 0x20 ADD SWAP1 DUP2 MSTORE PUSH1 0x20 ADD PUSH1 0x0 KECCAK256 PUSH1 0x0 PUSH2 0x100 EXP DUP2 SLOAD DUP2 PUSH1 0xFF MUL NOT AND SWAP1 DUP4 ISZERO ISZERO MUL OR SWAP1 SSTORE POP POP POP JUMP JUMPDEST PUSH1 0x0 PUSH1 0x20 MSTORE DUP1 PUSH1 0x0 MSTORE PUSH1 0x40 PUSH1 0x0 KECCAK256 PUSH1 0x0 SWAP2 POP SLOAD SWAP1 PUSH2 0x100 EXP SWAP1 DIV PUSH1 0xFF AND DUP2 JUMP JUMPDEST PUSH1 0x0 DUP2 CALLDATALOAD SWAP1 POP PUSH2 0x2AC DUP2 PUSH2 0x4B9 JUMP JUMPDEST SWAP3 SWAP2 POP POP JUMP JUMPDEST PUSH1 0x0 DUP2 CALLDATALOAD SWAP1 POP PUSH2 0x2C1 DUP2 PUSH2 0x4D0 JUMP JUMPDEST SWAP3 SWAP2 POP POP JUMP JUMPDEST PUSH1 0x0 DUP2 CALLDATALOAD SWAP1 POP PUSH2 0x2D6 DUP2 PUSH2 0x4E7 JUMP JUMPDEST SWAP3 SWAP2 POP POP JUMP JUMPDEST PUSH1 0x0 PUSH1 0x20 DUP3 DUP5 SUB SLT ISZERO PUSH2 0x2F2 JUMPI PUSH2 0x2F1 PUSH2 0x465 JUMP JUMPDEST JUMPDEST PUSH1 0x0 PUSH2 0x300 DUP5 DUP3 DUP6 ADD PUSH2 0x29D JUMP JUMPDEST SWAP2 POP POP SWAP3 SWAP2 POP POP JUMP JUMPDEST PUSH1 0x0 PUSH1 0x20 DUP3 DUP5 SUB SLT ISZERO PUSH2 0x31F JUMPI PUSH2 0x31E PUSH2 0x465 JUMP JUMPDEST JUMPDEST PUSH1 0x0 PUSH2 0x32D DUP5 DUP3 DUP6 ADD PUSH2 0x2B2 JUMP JUMPDEST SWAP2 POP POP SWAP3 SWAP2 POP POP JUMP JUMPDEST PUSH1 0x0 PUSH1 0x20 DUP3 DUP5 SUB SLT ISZERO PUSH2 0x34C JUMPI PUSH2 0x34B PUSH2 0x465 JUMP JUMPDEST JUMPDEST PUSH1 0x0 PUSH2 0x35A DUP5 DUP3 DUP6 ADD PUSH2 0x2C7 JUMP JUMPDEST SWAP2 POP POP SWAP3 SWAP2 POP POP JUMP JUMPDEST PUSH2 0x36C DUP2 PUSH2 0x41D JUMP JUMPDEST DUP3 MSTORE POP POP JUMP JUMPDEST PUSH2 0x37B DUP2 PUSH2 0x42F JUMP JUMPDEST DUP3 MSTORE POP POP JUMP JUMPDEST PUSH1 0x0 PUSH2 0x38E PUSH1 0x2D DUP4 PUSH2 0x3FA JUMP JUMPDEST SWAP2 POP PUSH2 0x399 DUP3 PUSH2 0x46A JUMP JUMPDEST PUSH1 0x40 DUP3 ADD SWAP1 POP SWAP2 SWAP1 POP JUMP JUMPDEST PUSH1 0x0 PUSH1 0x20 DUP3 ADD SWAP1 POP PUSH2 0x3B9 PUSH1 0x0 DUP4 ADD DUP5 PUSH2 0x363 JUMP JUMPDEST SWAP3 SWAP2 POP POP JUMP JUMPDEST PUSH1 0x0 PUSH1 0x20 DUP3 ADD SWAP1 POP PUSH2 0x3D4 PUSH1 0x0 DUP4 ADD DUP5 PUSH2 0x372 JUMP JUMPDEST SWAP3 SWAP2 POP POP JUMP JUMPDEST PUSH1 0x0 PUSH1 0x20 DUP3 ADD SWAP1 POP DUP2 DUP2 SUB PUSH1 0x0 DUP4 ADD MSTORE PUSH2 0x3F3 DUP2 PUSH2 0x381 JUMP JUMPDEST SWAP1 POP SWAP2 SWAP1 POP JUMP JUMPDEST PUSH1 0x0 DUP3 DUP3 MSTORE PUSH1 0x20 DUP3 ADD SWAP1 POP SWAP3 SWAP2 POP POP JUMP JUMPDEST PUSH1 0x0 PUSH2 0x416 DUP3 PUSH2 0x43B JUMP JUMPDEST SWAP1 POP SWAP2 SWAP1 POP JUMP JUMPDEST PUSH1 0x0 PUSH2 0x428 DUP3 PUSH2 0x43B JUMP JUMPDEST SWAP1 POP SWAP2 SWAP1 POP JUMP JUMPDEST PUSH1 0x0 DUP2 ISZERO ISZERO SWAP1 POP SWAP2 SWAP1 POP JUMP JUMPDEST PUSH1 0x0 PUSH20 0xFFFFFFFFFFFFFFFFFFFFFFFFFFFFFFFFFFFFFFFF DUP3 AND SWAP1 POP SWAP2 SWAP1 POP JUMP JUMPDEST PUSH1 0x0 DUP2 SWAP1 POP SWAP2 SWAP1 POP JUMP JUMPDEST PUSH1 0x0 DUP1 REVERT JUMPDEST PUSH32 0x5468697320616464726573732068617320616C726561647920656E7465726564 PUSH1 0x0 DUP3 ADD MSTORE PUSH32 0x20746865206C6F74746572792E00000000000000000000000000000000000000 PUSH1 0x20 DUP3 ADD MSTORE POP JUMP JUMPDEST PUSH2 0x4C2 DUP2 PUSH2 0x40B JUMP JUMPDEST DUP2 EQ PUSH2 0x4CD JUMPI PUSH1 0x0 DUP1 REVERT JUMPDEST POP JUMP JUMPDEST PUSH2 0x4D9 DUP2 PUSH2 0x41D JUMP JUMPDEST DUP2 EQ PUSH2 0x4E4 JUMPI PUSH1 0x0 DUP1 REVERT JUMPDEST POP JUMP JUMPDEST PUSH2 0x4F0 DUP2 PUSH2 0x45B JUMP JUMPDEST DUP2 EQ PUSH2 0x4FB JUMPI PUSH1 0x0 DUP1 REVERT JUMPDEST POP JUMP INVALID LOG2 PUSH5 0x6970667358 0x22 SLT KECCAK256 SWAP8 0xE BASEFEE CALLCODE PC PUSH13 0x41C702B5947E1D51FC58AEF739 CALLDATACOPY ADDRESS 0xDF 0x5D LOG3 0x2E BYTE 0xB5 PC PUSH26 0x8C2FB464736F6C63430008070033000000000000000000000000 "
				},
				"gasEstimates": {
					"creation": {
						"codeDepositCost": "266400",
						"executionCost": "306",
						"totalCost": "266706"
					},
					"external": {
						"isAddressPlaying(address)": "2883",
						"list_playerAddress(uint256)": "4934",
						"map_isPlaying(address)": "2889",
						"registerAddress(address)": "27093"
					}
				},
				"methodIdentifiers": {
					"isAddressPlaying(address)": "912a90bb",
					"list_playerAddress(uint256)": "27dff143",
					"map_isPlaying(address)": "bff82dee",
					"registerAddress(address)": "a8a54008"
				}
			},
			"storageLayout": {
				"storage": [
					{
						"astId": 6,
						"contract": "contracts/lottery.sol:Lottery",
						"label": "map_isPlaying",
						"offset": 0,
						"slot": "0",
						"type": "t_mapping(t_address,t_bool)"
					},
					{
						"astId": 9,
						"contract": "contracts/lottery.sol:Lottery",
						"label": "list_playerAddress",
						"offset": 0,
						"slot": "1",
						"type": "t_array(t_address_payable)dyn_storage"
					}
				],
				"types": {
					"t_address": {
						"encoding": "inplace",
						"label": "address",
						"numberOfBytes": "20"
					},
					"t_address_payable": {
						"encoding": "inplace",
						"label": "address payable",
						"numberOfBytes": "20"
					},
					"t_array(t_address_payable)dyn_storage": {
						"base": "t_address_payable",
						"encoding": "dynamic_array",
						"label": "address payable[]",
						"numberOfBytes": "32"
					},
					"t_bool": {
						"encoding": "inplace",
						"label": "bool",
						"numberOfBytes": "1"
					},
					"t_mapping(t_address,t_bool)": {
						"encoding": "mapping",
						"key": "t_address",
						"label": "mapping(address => bool)",
						"numberOfBytes": "32",
						"value": "t_bool"
					}
				}
			},
			"userdoc": {
				"kind": "user",
				"methods": {},
				"version": 1
			}
		}
	}
}