{
	"contracts/lottery.sol": {
		"Lottery": {
			"abi": [
				{
					"inputs": [],
					"stateMutability": "payable",
					"type": "constructor"
				},
				{
					"inputs": [],
					"name": "addBonusPrizePool",
					"outputs": [],
					"stateMutability": "payable",
					"type": "function"
				},
				{
					"inputs": [],
					"name": "addContractFunds",
					"outputs": [],
					"stateMutability": "payable",
					"type": "function"
				},
				{
					"inputs": [
						{
							"internalType": "address payable",
							"name": "playerAddress",
							"type": "address"
						}
					],
					"name": "addressWinChanceString",
					"outputs": [
						{
							"internalType": "string",
							"name": "",
							"type": "string"
						}
					],
					"stateMutability": "view",
					"type": "function"
				},
				{
					"inputs": [],
					"name": "chooseWinningAddress",
					"outputs": [
						{
							"internalType": "address payable",
							"name": "",
							"type": "address"
						}
					],
					"stateMutability": "view",
					"type": "function"
				},
				{
					"inputs": [],
					"name": "disableContract",
					"outputs": [],
					"stateMutability": "nonpayable",
					"type": "function"
				},
				{
					"inputs": [],
					"name": "enableContract",
					"outputs": [],
					"stateMutability": "nonpayable",
					"type": "function"
				},
				{
					"inputs": [],
					"name": "endLottery",
					"outputs": [],
					"stateMutability": "nonpayable",
					"type": "function"
				},
				{
					"inputs": [],
					"name": "getAccountedContractBalance",
					"outputs": [
						{
							"internalType": "uint256",
							"name": "",
							"type": "uint256"
						}
					],
					"stateMutability": "view",
					"type": "function"
				},
				{
					"inputs": [],
					"name": "getBonusPrizePool",
					"outputs": [
						{
							"internalType": "uint256",
							"name": "",
							"type": "uint256"
						}
					],
					"stateMutability": "view",
					"type": "function"
				},
				{
					"inputs": [],
					"name": "getContractBalance",
					"outputs": [
						{
							"internalType": "uint256",
							"name": "",
							"type": "uint256"
						}
					],
					"stateMutability": "view",
					"type": "function"
				},
				{
					"inputs": [],
					"name": "getContractFunds",
					"outputs": [
						{
							"internalType": "uint256",
							"name": "",
							"type": "uint256"
						}
					],
					"stateMutability": "view",
					"type": "function"
				},
				{
					"inputs": [],
					"name": "getExtraContractBalance",
					"outputs": [
						{
							"internalType": "uint256",
							"name": "",
							"type": "uint256"
						}
					],
					"stateMutability": "view",
					"type": "function"
				},
				{
					"inputs": [],
					"name": "getOperatorContractBalance",
					"outputs": [
						{
							"internalType": "uint256",
							"name": "",
							"type": "uint256"
						}
					],
					"stateMutability": "view",
					"type": "function"
				},
				{
					"inputs": [],
					"name": "getPlayerPrizePool",
					"outputs": [
						{
							"internalType": "uint256",
							"name": "",
							"type": "uint256"
						}
					],
					"stateMutability": "view",
					"type": "function"
				},
				{
					"inputs": [
						{
							"internalType": "address payable",
							"name": "playerAddress",
							"type": "address"
						}
					],
					"name": "isAddressPlaying",
					"outputs": [
						{
							"internalType": "bool",
							"name": "",
							"type": "bool"
						}
					],
					"stateMutability": "view",
					"type": "function"
				},
				{
					"inputs": [
						{
							"internalType": "address",
							"name": "",
							"type": "address"
						}
					],
					"name": "map_address2NumTickets",
					"outputs": [
						{
							"internalType": "uint256",
							"name": "",
							"type": "uint256"
						}
					],
					"stateMutability": "view",
					"type": "function"
				},
				{
					"inputs": [
						{
							"internalType": "uint256",
							"name": "",
							"type": "uint256"
						}
					],
					"name": "map_ticket2Address",
					"outputs": [
						{
							"internalType": "address payable",
							"name": "",
							"type": "address"
						}
					],
					"stateMutability": "view",
					"type": "function"
				},
				{
					"inputs": [
						{
							"internalType": "uint256",
							"name": "N",
							"type": "uint256"
						}
					],
					"name": "randomInt",
					"outputs": [
						{
							"internalType": "uint256",
							"name": "",
							"type": "uint256"
						}
					],
					"stateMutability": "view",
					"type": "function"
				},
				{
					"inputs": [],
					"name": "removeAllContractFunds",
					"outputs": [],
					"stateMutability": "nonpayable",
					"type": "function"
				},
				{
					"inputs": [
						{
							"internalType": "uint256",
							"name": "amount",
							"type": "uint256"
						}
					],
					"name": "removeContractFunds",
					"outputs": [],
					"stateMutability": "nonpayable",
					"type": "function"
				},
				{
					"inputs": [],
					"name": "requireContractEnabled",
					"outputs": [],
					"stateMutability": "view",
					"type": "function"
				},
				{
					"inputs": [
						{
							"internalType": "address payable",
							"name": "playerAddress",
							"type": "address"
						}
					],
					"name": "totalAddressTickets",
					"outputs": [
						{
							"internalType": "uint256",
							"name": "",
							"type": "uint256"
						}
					],
					"stateMutability": "view",
					"type": "function"
				},
				{
					"inputs": [],
					"name": "totalTickets",
					"outputs": [
						{
							"internalType": "uint256",
							"name": "",
							"type": "uint256"
						}
					],
					"stateMutability": "view",
					"type": "function"
				},
				{
					"stateMutability": "payable",
					"type": "receive"
				}
			],
			"devdoc": {
				"custom:dev-run-script": "./scripts/deploy_with_ethers.ts",
				"details": "A blockchain lottery",
				"kind": "dev",
				"methods": {},
				"title": "Lottery",
				"version": 1
			},
			"evm": {
				"assembly": "    /* \"contracts/lottery.sol\":248:11319  contract Lottery {... */\n  mstore(0x40, 0x80)\n    /* \"contracts/lottery.sol\":2134:2143  100000000 */\n  0x05f5e100\n    /* \"contracts/lottery.sol\":2115:2143  uint ticketPrice = 100000000 */\n  0x05\n  sstore\n    /* \"contracts/lottery.sol\":2496:2500  true */\n  0x01\n    /* \"contracts/lottery.sol\":2476:2493  isContractEnabled */\n  0x00\n  dup1\n    /* \"contracts/lottery.sol\":2476:2500  isContractEnabled = true */\n  0x0100\n  exp\n  dup2\n  sload\n  dup2\n  0xff\n  mul\n  not\n  and\n  swap1\n  dup4\n  iszero\n  iszero\n  mul\n  or\n  swap1\n  sstore\n  pop\n    /* \"contracts/lottery.sol\":248:11319  contract Lottery {... */\n  dataSize(sub_0)\n  dup1\n  dataOffset(sub_0)\n  0x00\n  codecopy\n  0x00\n  return\nstop\n\nsub_0: assembly {\n        /* \"contracts/lottery.sol\":248:11319  contract Lottery {... */\n      mstore(0x40, 0x80)\n      jumpi(tag_1, lt(calldatasize, 0x04))\n      shr(0xe0, calldataload(0x00))\n      dup1\n      0x7f798243\n      gt\n      tag_26\n      jumpi\n      dup1\n      0x97d47113\n      gt\n      tag_27\n      jumpi\n      dup1\n      0x97d47113\n      eq\n      tag_20\n      jumpi\n      dup1\n      0xc68298e9\n      eq\n      tag_21\n      jumpi\n      dup1\n      0xd1cdb323\n      eq\n      tag_22\n      jumpi\n      dup1\n      0xdd11247e\n      eq\n      tag_23\n      jumpi\n      dup1\n      0xe0cb8a81\n      eq\n      tag_24\n      jumpi\n      dup1\n      0xf0d5c534\n      eq\n      tag_25\n      jumpi\n      jump(tag_2)\n    tag_27:\n      dup1\n      0x7f798243\n      eq\n      tag_14\n      jumpi\n      dup1\n      0x80eaad30\n      eq\n      tag_15\n      jumpi\n      dup1\n      0x894ba833\n      eq\n      tag_16\n      jumpi\n      dup1\n      0x8a5ef8c6\n      eq\n      tag_17\n      jumpi\n      dup1\n      0x912a90bb\n      eq\n      tag_18\n      jumpi\n      dup1\n      0x944b3fe5\n      eq\n      tag_19\n      jumpi\n      jump(tag_2)\n    tag_26:\n      dup1\n      0x367edd32\n      gt\n      tag_28\n      jumpi\n      dup1\n      0x367edd32\n      eq\n      tag_8\n      jumpi\n      dup1\n      0x3b4ad0e5\n      eq\n      tag_9\n      jumpi\n      dup1\n      0x605e16ec\n      eq\n      tag_10\n      jumpi\n      dup1\n      0x6f9fb98a\n      eq\n      tag_11\n      jumpi\n      dup1\n      0x7363ef8a\n      eq\n      tag_12\n      jumpi\n      dup1\n      0x7c623f7b\n      eq\n      tag_13\n      jumpi\n      jump(tag_2)\n    tag_28:\n      dup1\n      0x8b8d89\n      eq\n      tag_3\n      jumpi\n      dup1\n      0x12845966\n      eq\n      tag_4\n      jumpi\n      dup1\n      0x1593a8c7\n      eq\n      tag_5\n      jumpi\n      dup1\n      0x1e462c2c\n      eq\n      tag_6\n      jumpi\n      dup1\n      0x2a41a975\n      eq\n      tag_7\n      jumpi\n      jump(tag_2)\n    tag_1:\n      jumpi(tag_2, calldatasize)\n        /* \"contracts/lottery.sol\":2679:2701  address payable sender */\n      0x00\n        /* \"contracts/lottery.sol\":2712:2722  msg.sender */\n      caller\n        /* \"contracts/lottery.sol\":2679:2723  address payable sender = payable(msg.sender) */\n      swap1\n      pop\n        /* \"contracts/lottery.sol\":2734:2744  uint value */\n      0x00\n        /* \"contracts/lottery.sol\":2747:2756  msg.value */\n      callvalue\n        /* \"contracts/lottery.sol\":2734:2756  uint value = msg.value */\n      swap1\n      pop\n        /* \"contracts/lottery.sol\":687:729  0xAb8483F64d9C6d1EcF9b849Ae677dD3315835cb2 */\n      0xab8483f64d9c6d1ecf9b849ae677dd3315835cb2\n        /* \"contracts/lottery.sol\":2772:2797  sender == operatorAddress */\n      0xffffffffffffffffffffffffffffffffffffffff\n      and\n        /* \"contracts/lottery.sol\":2772:2778  sender */\n      dup3\n        /* \"contracts/lottery.sol\":2772:2797  sender == operatorAddress */\n      0xffffffffffffffffffffffffffffffffffffffff\n      and\n      sub\n        /* \"contracts/lottery.sol\":2769:3563  if(sender == operatorAddress) {... */\n      tag_31\n      jumpi\n        /* \"contracts/lottery.sol\":2831:2836  value */\n      dup1\n        /* \"contracts/lottery.sol\":2814:2827  contractFunds */\n      0x01\n      0x00\n        /* \"contracts/lottery.sol\":2814:2836  contractFunds += value */\n      dup3\n      dup3\n      sload\n      tag_32\n      swap2\n      swap1\n      tag_33\n      jump\t// in\n    tag_32:\n      swap3\n      pop\n      pop\n      dup2\n      swap1\n      sstore\n      pop\n        /* \"contracts/lottery.sol\":2769:3563  if(sender == operatorAddress) {... */\n      jump(tag_34)\n    tag_31:\n        /* \"contracts/lottery.sol\":2954:2978  requireContractEnabled() */\n      tag_35\n        /* \"contracts/lottery.sol\":2954:2976  requireContractEnabled */\n      tag_36\n        /* \"contracts/lottery.sol\":2954:2978  requireContractEnabled() */\n      jump\t// in\n    tag_35:\n        /* \"contracts/lottery.sol\":3135:3150  uint numTickets */\n      0x00\n        /* \"contracts/lottery.sol\":3161:3172  ticketPrice */\n      sload(0x05)\n        /* \"contracts/lottery.sol\":3153:3158  value */\n      dup3\n        /* \"contracts/lottery.sol\":3153:3172  value / ticketPrice */\n      tag_37\n      swap2\n      swap1\n      tag_38\n      jump\t// in\n    tag_37:\n        /* \"contracts/lottery.sol\":3135:3172  uint numTickets = value / ticketPrice */\n      swap1\n      pop\n        /* \"contracts/lottery.sol\":3219:3230  ticketPrice */\n      sload(0x05)\n        /* \"contracts/lottery.sol\":3206:3216  numTickets */\n      dup2\n        /* \"contracts/lottery.sol\":3206:3230  numTickets * ticketPrice */\n      tag_39\n      swap2\n      swap1\n      tag_40\n      jump\t// in\n    tag_39:\n        /* \"contracts/lottery.sol\":3187:3202  playerPrizePool */\n      0x02\n      0x00\n        /* \"contracts/lottery.sol\":3187:3230  playerPrizePool += numTickets * ticketPrice */\n      dup3\n      dup3\n      sload\n      tag_41\n      swap2\n      swap1\n      tag_33\n      jump\t// in\n    tag_41:\n      swap3\n      pop\n      pop\n      dup2\n      swap1\n      sstore\n      pop\n        /* \"contracts/lottery.sol\":3281:3291  numTickets */\n      dup1\n        /* \"contracts/lottery.sol\":3247:3269  map_address2NumTickets */\n      0x07\n        /* \"contracts/lottery.sol\":3247:3277  map_address2NumTickets[sender] */\n      0x00\n        /* \"contracts/lottery.sol\":3270:3276  sender */\n      dup6\n        /* \"contracts/lottery.sol\":3247:3277  map_address2NumTickets[sender] */\n      0xffffffffffffffffffffffffffffffffffffffff\n      and\n      0xffffffffffffffffffffffffffffffffffffffff\n      and\n      dup2\n      mstore\n      0x20\n      add\n      swap1\n      dup2\n      mstore\n      0x20\n      add\n      0x00\n      keccak256\n      0x00\n        /* \"contracts/lottery.sol\":3247:3291  map_address2NumTickets[sender] += numTickets */\n      dup3\n      dup3\n      sload\n      tag_42\n      swap2\n      swap1\n      tag_33\n      jump\t// in\n    tag_42:\n      swap3\n      pop\n      pop\n      dup2\n      swap1\n      sstore\n      pop\n        /* \"contracts/lottery.sol\":3312:3318  uint i */\n      0x00\n        /* \"contracts/lottery.sol\":3308:3430  for(uint i = 0; i < numTickets; i++) {... */\n    tag_43:\n        /* \"contracts/lottery.sol\":3328:3338  numTickets */\n      dup2\n        /* \"contracts/lottery.sol\":3324:3325  i */\n      dup2\n        /* \"contracts/lottery.sol\":3324:3338  i < numTickets */\n      lt\n        /* \"contracts/lottery.sol\":3308:3430  for(uint i = 0; i < numTickets; i++) {... */\n      iszero\n      tag_44\n      jumpi\n        /* \"contracts/lottery.sol\":3408:3414  sender */\n      dup4\n        /* \"contracts/lottery.sol\":3364:3382  map_ticket2Address */\n      0x06\n        /* \"contracts/lottery.sol\":3364:3405  map_ticket2Address[currentTicketNumber++] */\n      0x00\n        /* \"contracts/lottery.sol\":3383:3402  currentTicketNumber */\n      0x04\n      0x00\n        /* \"contracts/lottery.sol\":3383:3404  currentTicketNumber++ */\n      dup2\n      sload\n      dup1\n      swap3\n      swap2\n      swap1\n      tag_46\n      swap1\n      tag_47\n      jump\t// in\n    tag_46:\n      swap2\n      swap1\n      pop\n      sstore\n        /* \"contracts/lottery.sol\":3364:3405  map_ticket2Address[currentTicketNumber++] */\n      dup2\n      mstore\n      0x20\n      add\n      swap1\n      dup2\n      mstore\n      0x20\n      add\n      0x00\n      keccak256\n      0x00\n        /* \"contracts/lottery.sol\":3364:3414  map_ticket2Address[currentTicketNumber++] = sender */\n      0x0100\n      exp\n      dup2\n      sload\n      dup2\n      0xffffffffffffffffffffffffffffffffffffffff\n      mul\n      not\n      and\n      swap1\n      dup4\n      0xffffffffffffffffffffffffffffffffffffffff\n      and\n      mul\n      or\n      swap1\n      sstore\n      pop\n        /* \"contracts/lottery.sol\":3340:3343  i++ */\n      dup1\n      dup1\n      tag_48\n      swap1\n      tag_47\n      jump\t// in\n    tag_48:\n      swap2\n      pop\n      pop\n        /* \"contracts/lottery.sol\":3308:3430  for(uint i = 0; i < numTickets; i++) {... */\n      jump(tag_43)\n    tag_44:\n      pop\n        /* \"contracts/lottery.sol\":2939:3563  {... */\n      pop\n        /* \"contracts/lottery.sol\":2769:3563  if(sender == operatorAddress) {... */\n    tag_34:\n        /* \"contracts/lottery.sol\":2543:3570  {... */\n      stop\n        /* \"contracts/lottery.sol\":248:11319  contract Lottery {... */\n    tag_2:\n      0x00\n      dup1\n      revert\n        /* \"contracts/lottery.sol\":6044:6335  function addContractFunds() external payable {... */\n    tag_3:\n      tag_49\n      tag_50\n      jump\t// in\n    tag_49:\n      stop\n        /* \"contracts/lottery.sol\":5161:5402  function randomInt(uint N) public view returns (uint) {... */\n    tag_4:\n      callvalue\n      dup1\n      iszero\n      tag_51\n      jumpi\n      0x00\n      dup1\n      revert\n    tag_51:\n      pop\n      tag_52\n      0x04\n      dup1\n      calldatasize\n      sub\n      dup2\n      add\n      swap1\n      tag_53\n      swap2\n      swap1\n      tag_54\n      jump\t// in\n    tag_53:\n      tag_55\n      jump\t// in\n    tag_52:\n      mload(0x40)\n      tag_56\n      swap2\n      swap1\n      tag_57\n      jump\t// in\n    tag_56:\n      mload(0x40)\n      dup1\n      swap2\n      sub\n      swap1\n      return\n        /* \"contracts/lottery.sol\":4448:5112  function endLottery() public {... */\n    tag_5:\n      callvalue\n      dup1\n      iszero\n      tag_58\n      jumpi\n      0x00\n      dup1\n      revert\n    tag_58:\n      pop\n      tag_59\n      tag_60\n      jump\t// in\n    tag_59:\n      stop\n        /* \"contracts/lottery.sol\":2215:2269  mapping(address => uint) public map_address2NumTickets */\n    tag_6:\n      callvalue\n      dup1\n      iszero\n      tag_61\n      jumpi\n      0x00\n      dup1\n      revert\n    tag_61:\n      pop\n      tag_62\n      0x04\n      dup1\n      calldatasize\n      sub\n      dup2\n      add\n      swap1\n      tag_63\n      swap2\n      swap1\n      tag_64\n      jump\t// in\n    tag_63:\n      tag_65\n      jump\t// in\n    tag_62:\n      mload(0x40)\n      tag_66\n      swap2\n      swap1\n      tag_57\n      jump\t// in\n    tag_66:\n      mload(0x40)\n      dup1\n      swap2\n      sub\n      swap1\n      return\n        /* \"contracts/lottery.sol\":6700:7268  function getExtraContractBalance() public view returns (uint) {... */\n    tag_7:\n      callvalue\n      dup1\n      iszero\n      tag_67\n      jumpi\n      0x00\n      dup1\n      revert\n    tag_67:\n      pop\n      tag_68\n      tag_69\n      jump\t// in\n    tag_68:\n      mload(0x40)\n      tag_70\n      swap2\n      swap1\n      tag_57\n      jump\t// in\n    tag_70:\n      mload(0x40)\n      dup1\n      swap2\n      sub\n      swap1\n      return\n        /* \"contracts/lottery.sol\":5455:5596  function enableContract() public {... */\n    tag_8:\n      callvalue\n      dup1\n      iszero\n      tag_71\n      jumpi\n      0x00\n      dup1\n      revert\n    tag_71:\n      pop\n      tag_72\n      tag_73\n      jump\t// in\n    tag_72:\n      stop\n        /* \"contracts/lottery.sol\":5756:5887  function requireContractEnabled() public view {... */\n    tag_9:\n      callvalue\n      dup1\n      iszero\n      tag_74\n      jumpi\n      0x00\n      dup1\n      revert\n    tag_74:\n      pop\n      tag_75\n      tag_36\n      jump\t// in\n    tag_75:\n      stop\n        /* \"contracts/lottery.sol\":8093:8301  function removeAllContractFunds() public {... */\n    tag_10:\n      callvalue\n      dup1\n      iszero\n      tag_76\n      jumpi\n      0x00\n      dup1\n      revert\n    tag_76:\n      pop\n      tag_77\n      tag_78\n      jump\t// in\n    tag_77:\n      stop\n        /* \"contracts/lottery.sol\":6343:6544  function getContractBalance() public view returns (uint) {... */\n    tag_11:\n      callvalue\n      dup1\n      iszero\n      tag_79\n      jumpi\n      0x00\n      dup1\n      revert\n    tag_79:\n      pop\n      tag_80\n      tag_81\n      jump\t// in\n    tag_80:\n      mload(0x40)\n      tag_82\n      swap2\n      swap1\n      tag_57\n      jump\t// in\n    tag_82:\n      mload(0x40)\n      dup1\n      swap2\n      sub\n      swap1\n      return\n        /* \"contracts/lottery.sol\":9293:9443  function totalAddressTickets(address payable playerAddress) public view returns (uint) {... */\n    tag_12:\n      callvalue\n      dup1\n      iszero\n      tag_83\n      jumpi\n      0x00\n      dup1\n      revert\n    tag_83:\n      pop\n      tag_84\n      0x04\n      dup1\n      calldatasize\n      sub\n      dup2\n      add\n      swap1\n      tag_85\n      swap2\n      swap1\n      tag_86\n      jump\t// in\n    tag_85:\n      tag_87\n      jump\t// in\n    tag_84:\n      mload(0x40)\n      tag_88\n      swap2\n      swap1\n      tag_57\n      jump\t// in\n    tag_88:\n      mload(0x40)\n      dup1\n      swap2\n      sub\n      swap1\n      return\n        /* \"contracts/lottery.sol\":8309:8409  function getPlayerPrizePool() external view returns (uint) {... */\n    tag_13:\n      callvalue\n      dup1\n      iszero\n      tag_89\n      jumpi\n      0x00\n      dup1\n      revert\n    tag_89:\n      pop\n      tag_90\n      tag_91\n      jump\t// in\n    tag_90:\n      mload(0x40)\n      tag_92\n      swap2\n      swap1\n      tag_57\n      jump\t// in\n    tag_92:\n      mload(0x40)\n      dup1\n      swap2\n      sub\n      swap1\n      return\n        /* \"contracts/lottery.sol\":3623:4440  function chooseWinningAddress() public view returns (address payable) {... */\n    tag_14:\n      callvalue\n      dup1\n      iszero\n      tag_93\n      jumpi\n      0x00\n      dup1\n      revert\n    tag_93:\n      pop\n      tag_94\n      tag_95\n      jump\t// in\n    tag_94:\n      mload(0x40)\n      tag_96\n      swap2\n      swap1\n      tag_97\n      jump\t// in\n    tag_96:\n      mload(0x40)\n      dup1\n      swap2\n      sub\n      swap1\n      return\n        /* \"contracts/lottery.sol\":9555:10379  function addressWinChanceString(address payable playerAddress) public view returns (string memory) {... */\n    tag_15:\n      callvalue\n      dup1\n      iszero\n      tag_98\n      jumpi\n      0x00\n      dup1\n      revert\n    tag_98:\n      pop\n      tag_99\n      0x04\n      dup1\n      calldatasize\n      sub\n      dup2\n      add\n      swap1\n      tag_100\n      swap2\n      swap1\n      tag_86\n      jump\t// in\n    tag_100:\n      tag_101\n      jump\t// in\n    tag_99:\n      mload(0x40)\n      tag_102\n      swap2\n      swap1\n      tag_103\n      jump\t// in\n    tag_102:\n      mload(0x40)\n      dup1\n      swap2\n      sub\n      swap1\n      return\n        /* \"contracts/lottery.sol\":5604:5748  function disableContract() public {... */\n    tag_16:\n      callvalue\n      dup1\n      iszero\n      tag_104\n      jumpi\n      0x00\n      dup1\n      revert\n    tag_104:\n      pop\n      tag_105\n      tag_106\n      jump\t// in\n    tag_105:\n      stop\n        /* \"contracts/lottery.sol\":2150:2208  mapping(uint => address payable) public map_ticket2Address */\n    tag_17:\n      callvalue\n      dup1\n      iszero\n      tag_107\n      jumpi\n      0x00\n      dup1\n      revert\n    tag_107:\n      pop\n      tag_108\n      0x04\n      dup1\n      calldatasize\n      sub\n      dup2\n      add\n      swap1\n      tag_109\n      swap2\n      swap1\n      tag_54\n      jump\t// in\n    tag_109:\n      tag_110\n      jump\t// in\n    tag_108:\n      mload(0x40)\n      tag_111\n      swap2\n      swap1\n      tag_97\n      jump\t// in\n    tag_111:\n      mload(0x40)\n      dup1\n      swap2\n      sub\n      swap1\n      return\n        /* \"contracts/lottery.sol\":9134:9285  function isAddressPlaying(address payable playerAddress) public view returns (bool) {... */\n    tag_18:\n      callvalue\n      dup1\n      iszero\n      tag_112\n      jumpi\n      0x00\n      dup1\n      revert\n    tag_112:\n      pop\n      tag_113\n      0x04\n      dup1\n      calldatasize\n      sub\n      dup2\n      add\n      swap1\n      tag_114\n      swap2\n      swap1\n      tag_86\n      jump\t// in\n    tag_114:\n      tag_115\n      jump\t// in\n    tag_113:\n      mload(0x40)\n      tag_116\n      swap2\n      swap1\n      tag_117\n      jump\t// in\n    tag_116:\n      mload(0x40)\n      dup1\n      swap2\n      sub\n      swap1\n      return\n        /* \"contracts/lottery.sol\":7481:8085  function removeContractFunds(uint amount) public {... */\n    tag_19:\n      callvalue\n      dup1\n      iszero\n      tag_118\n      jumpi\n      0x00\n      dup1\n      revert\n    tag_118:\n      pop\n      tag_119\n      0x04\n      dup1\n      calldatasize\n      sub\n      dup2\n      add\n      swap1\n      tag_120\n      swap2\n      swap1\n      tag_54\n      jump\t// in\n    tag_120:\n      tag_121\n      jump\t// in\n    tag_119:\n      stop\n        /* \"contracts/lottery.sol\":8944:9083  function addBonusPrizePool() external payable {... */\n    tag_20:\n      tag_122\n      tag_123\n      jump\t// in\n    tag_122:\n      stop\n        /* \"contracts/lottery.sol\":7276:7473  function getOperatorContractBalance() public view returns (uint) {... */\n    tag_21:\n      callvalue\n      dup1\n      iszero\n      tag_124\n      jumpi\n      0x00\n      dup1\n      revert\n    tag_124:\n      pop\n      tag_125\n      tag_126\n      jump\t// in\n    tag_125:\n      mload(0x40)\n      tag_127\n      swap2\n      swap1\n      tag_57\n      jump\t// in\n    tag_127:\n      mload(0x40)\n      dup1\n      swap2\n      sub\n      swap1\n      return\n        /* \"contracts/lottery.sol\":6552:6692  function getAccountedContractBalance() public view returns (uint) {... */\n    tag_22:\n      callvalue\n      dup1\n      iszero\n      tag_128\n      jumpi\n      0x00\n      dup1\n      revert\n    tag_128:\n      pop\n      tag_129\n      tag_130\n      jump\t// in\n    tag_129:\n      mload(0x40)\n      tag_131\n      swap2\n      swap1\n      tag_57\n      jump\t// in\n    tag_131:\n      mload(0x40)\n      dup1\n      swap2\n      sub\n      swap1\n      return\n        /* \"contracts/lottery.sol\":9451:9547  function totalTickets() public view returns (uint) {... */\n    tag_23:\n      callvalue\n      dup1\n      iszero\n      tag_132\n      jumpi\n      0x00\n      dup1\n      revert\n    tag_132:\n      pop\n      tag_133\n      tag_134\n      jump\t// in\n    tag_133:\n      mload(0x40)\n      tag_135\n      swap2\n      swap1\n      tag_57\n      jump\t// in\n    tag_135:\n      mload(0x40)\n      dup1\n      swap2\n      sub\n      swap1\n      return\n        /* \"contracts/lottery.sol\":5940:6036  function getContractFunds() external view returns (uint) {... */\n    tag_24:\n      callvalue\n      dup1\n      iszero\n      tag_136\n      jumpi\n      0x00\n      dup1\n      revert\n    tag_136:\n      pop\n      tag_137\n      tag_138\n      jump\t// in\n    tag_137:\n      mload(0x40)\n      tag_139\n      swap2\n      swap1\n      tag_57\n      jump\t// in\n    tag_139:\n      mload(0x40)\n      dup1\n      swap2\n      sub\n      swap1\n      return\n        /* \"contracts/lottery.sol\":8838:8936  function getBonusPrizePool() external view returns (uint) {... */\n    tag_25:\n      callvalue\n      dup1\n      iszero\n      tag_140\n      jumpi\n      0x00\n      dup1\n      revert\n    tag_140:\n      pop\n      tag_141\n      tag_142\n      jump\t// in\n    tag_141:\n      mload(0x40)\n      tag_143\n      swap2\n      swap1\n      tag_57\n      jump\t// in\n    tag_143:\n      mload(0x40)\n      dup1\n      swap2\n      sub\n      swap1\n      return\n        /* \"contracts/lottery.sol\":5756:5887  function requireContractEnabled() public view {... */\n    tag_36:\n        /* \"contracts/lottery.sol\":5821:5838  isContractEnabled */\n      0x00\n      dup1\n      sload\n      swap1\n      0x0100\n      exp\n      swap1\n      div\n      0xff\n      and\n        /* \"contracts/lottery.sol\":5813:5879  require(isContractEnabled, \"This contract is currently disabled.\") */\n      tag_145\n      jumpi\n      mload(0x40)\n      0x08c379a000000000000000000000000000000000000000000000000000000000\n      dup2\n      mstore\n      0x04\n      add\n      tag_146\n      swap1\n      tag_147\n      jump\t// in\n    tag_146:\n      mload(0x40)\n      dup1\n      swap2\n      sub\n      swap1\n      revert\n    tag_145:\n        /* \"contracts/lottery.sol\":5756:5887  function requireContractEnabled() public view {... */\n      jump\t// out\n        /* \"contracts/lottery.sol\":6044:6335  function addContractFunds() external payable {... */\n    tag_50:\n        /* \"contracts/lottery.sol\":6318:6327  msg.value */\n      callvalue\n        /* \"contracts/lottery.sol\":6301:6314  contractFunds */\n      0x01\n      0x00\n        /* \"contracts/lottery.sol\":6301:6327  contractFunds += msg.value */\n      dup3\n      dup3\n      sload\n      tag_149\n      swap2\n      swap1\n      tag_33\n      jump\t// in\n    tag_149:\n      swap3\n      pop\n      pop\n      dup2\n      swap1\n      sstore\n      pop\n        /* \"contracts/lottery.sol\":6044:6335  function addContractFunds() external payable {... */\n      jump\t// out\n        /* \"contracts/lottery.sol\":5161:5402  function randomInt(uint N) public view returns (uint) {... */\n    tag_55:\n        /* \"contracts/lottery.sol\":5209:5213  uint */\n      0x00\n        /* \"contracts/lottery.sol\":5276:5291  uint randomHash */\n      dup1\n        /* \"contracts/lottery.sol\":5326:5342  block.difficulty */\n      difficulty\n        /* \"contracts/lottery.sol\":5344:5359  block.timestamp */\n      timestamp\n        /* \"contracts/lottery.sol\":5309:5360  abi.encodePacked(block.difficulty, block.timestamp) */\n      add(0x20, mload(0x40))\n      tag_151\n      swap3\n      swap2\n      swap1\n      tag_152\n      jump\t// in\n    tag_151:\n      mload(0x40)\n      0x20\n      dup2\n      dup4\n      sub\n      sub\n      dup2\n      mstore\n      swap1\n      0x40\n      mstore\n        /* \"contracts/lottery.sol\":5299:5361  keccak256(abi.encodePacked(block.difficulty, block.timestamp)) */\n      dup1\n      mload\n      swap1\n      0x20\n      add\n      keccak256\n        /* \"contracts/lottery.sol\":5294:5362  uint(keccak256(abi.encodePacked(block.difficulty, block.timestamp))) */\n      0x00\n      shr\n        /* \"contracts/lottery.sol\":5276:5362  uint randomHash = uint(keccak256(abi.encodePacked(block.difficulty, block.timestamp))) */\n      swap1\n      pop\n        /* \"contracts/lottery.sol\":5393:5394  N */\n      dup3\n        /* \"contracts/lottery.sol\":5380:5390  randomHash */\n      dup2\n        /* \"contracts/lottery.sol\":5380:5394  randomHash % N */\n      tag_153\n      swap2\n      swap1\n      tag_154\n      jump\t// in\n    tag_153:\n        /* \"contracts/lottery.sol\":5373:5394  return randomHash % N */\n      swap2\n      pop\n      pop\n        /* \"contracts/lottery.sol\":5161:5402  function randomInt(uint N) public view returns (uint) {... */\n      swap2\n      swap1\n      pop\n      jump\t// out\n        /* \"contracts/lottery.sol\":4448:5112  function endLottery() public {... */\n    tag_60:\n        /* \"contracts/lottery.sol\":4488:4518  address payable winningAddress */\n      0x00\n        /* \"contracts/lottery.sol\":4521:4543  chooseWinningAddress() */\n      tag_156\n        /* \"contracts/lottery.sol\":4521:4541  chooseWinningAddress */\n      tag_95\n        /* \"contracts/lottery.sol\":4521:4543  chooseWinningAddress() */\n      jump\t// in\n    tag_156:\n        /* \"contracts/lottery.sol\":4488:4543  address payable winningAddress = chooseWinningAddress() */\n      swap1\n      pop\n        /* \"contracts/lottery.sol\":908:950  0x0000000000000000000000000000000000000000 */\n      0x00\n        /* \"contracts/lottery.sol\":4557:4586  winningAddress == zeroAddress */\n      0xffffffffffffffffffffffffffffffffffffffff\n      and\n        /* \"contracts/lottery.sol\":4557:4571  winningAddress */\n      dup2\n        /* \"contracts/lottery.sol\":4557:4586  winningAddress == zeroAddress */\n      0xffffffffffffffffffffffffffffffffffffffff\n      and\n      sub\n        /* \"contracts/lottery.sol\":4554:5105  if(winningAddress == zeroAddress) {... */\n      iszero\n      tag_158\n      jumpi\n        /* \"contracts/lottery.sol\":4783:4801  uint operatorPrize */\n      0x00\n        /* \"contracts/lottery.sol\":4836:4839  100 */\n      0x64\n        /* \"contracts/lottery.sol\":1202:1204  10 */\n      0x0a\n        /* \"contracts/lottery.sol\":4804:4819  playerPrizePool */\n      sload(0x02)\n        /* \"contracts/lottery.sol\":4804:4833  playerPrizePool * operatorCut */\n      tag_159\n      swap2\n      swap1\n      tag_40\n      jump\t// in\n    tag_159:\n        /* \"contracts/lottery.sol\":4804:4839  playerPrizePool * operatorCut / 100 */\n      tag_160\n      swap2\n      swap1\n      tag_38\n      jump\t// in\n    tag_160:\n        /* \"contracts/lottery.sol\":4783:4839  uint operatorPrize = playerPrizePool * operatorCut / 100 */\n      swap1\n      pop\n        /* \"contracts/lottery.sol\":4854:4870  uint winnerPrize */\n      0x00\n        /* \"contracts/lottery.sol\":4908:4921  operatorPrize */\n      dup2\n        /* \"contracts/lottery.sol\":4890:4905  playerPrizePool */\n      sload(0x02)\n        /* \"contracts/lottery.sol\":4873:4887  bonusPrizePool */\n      sload(0x03)\n        /* \"contracts/lottery.sol\":4873:4905  bonusPrizePool + playerPrizePool */\n      tag_161\n      swap2\n      swap1\n      tag_33\n      jump\t// in\n    tag_161:\n        /* \"contracts/lottery.sol\":4873:4921  bonusPrizePool + playerPrizePool - operatorPrize */\n      tag_162\n      swap2\n      swap1\n      tag_163\n      jump\t// in\n    tag_162:\n        /* \"contracts/lottery.sol\":4854:4921  uint winnerPrize = bonusPrizePool + playerPrizePool - operatorPrize */\n      swap1\n      pop\n        /* \"contracts/lottery.sol\":4954:4955  0 */\n      0x00\n        /* \"contracts/lottery.sol\":4936:4951  playerPrizePool */\n      0x02\n        /* \"contracts/lottery.sol\":4936:4955  playerPrizePool = 0 */\n      dup2\n      swap1\n      sstore\n      pop\n        /* \"contracts/lottery.sol\":4987:4988  0 */\n      0x00\n        /* \"contracts/lottery.sol\":4970:4984  bonusPrizePool */\n      0x03\n        /* \"contracts/lottery.sol\":4970:4988  bonusPrizePool = 0 */\n      dup2\n      swap1\n      sstore\n      pop\n        /* \"contracts/lottery.sol\":687:729  0xAb8483F64d9C6d1EcF9b849Ae677dD3315835cb2 */\n      0xab8483f64d9c6d1ecf9b849ae677dd3315835cb2\n        /* \"contracts/lottery.sol\":5003:5027  operatorAddress.transfer */\n      0xffffffffffffffffffffffffffffffffffffffff\n      and\n        /* \"contracts/lottery.sol\":5003:5042  operatorAddress.transfer(operatorPrize) */\n      0x08fc\n        /* \"contracts/lottery.sol\":5028:5041  operatorPrize */\n      dup4\n        /* \"contracts/lottery.sol\":5003:5042  operatorAddress.transfer(operatorPrize) */\n      swap1\n      dup2\n      iszero\n      mul\n      swap1\n      mload(0x40)\n      0x00\n      mload(0x40)\n      dup1\n      dup4\n      sub\n      dup2\n      dup6\n      dup9\n      dup9\n      call\n      swap4\n      pop\n      pop\n      pop\n      pop\n      iszero\n      dup1\n      iszero\n      tag_165\n      jumpi\n      returndatasize\n      0x00\n      dup1\n      returndatacopy\n      revert(0x00, returndatasize)\n    tag_165:\n      pop\n        /* \"contracts/lottery.sol\":5057:5071  winningAddress */\n      dup3\n        /* \"contracts/lottery.sol\":5057:5080  winningAddress.transfer */\n      0xffffffffffffffffffffffffffffffffffffffff\n      and\n        /* \"contracts/lottery.sol\":5057:5093  winningAddress.transfer(winnerPrize) */\n      0x08fc\n        /* \"contracts/lottery.sol\":5081:5092  winnerPrize */\n      dup3\n        /* \"contracts/lottery.sol\":5057:5093  winningAddress.transfer(winnerPrize) */\n      swap1\n      dup2\n      iszero\n      mul\n      swap1\n      mload(0x40)\n      0x00\n      mload(0x40)\n      dup1\n      dup4\n      sub\n      dup2\n      dup6\n      dup9\n      dup9\n      call\n      swap4\n      pop\n      pop\n      pop\n      pop\n      iszero\n      dup1\n      iszero\n      tag_167\n      jumpi\n      returndatasize\n      0x00\n      dup1\n      returndatacopy\n      revert(0x00, returndatasize)\n    tag_167:\n      pop\n        /* \"contracts/lottery.sol\":4666:5105  {... */\n      pop\n      pop\n        /* \"contracts/lottery.sol\":4554:5105  if(winningAddress == zeroAddress) {... */\n    tag_158:\n        /* \"contracts/lottery.sol\":4477:5112  {... */\n      pop\n        /* \"contracts/lottery.sol\":4448:5112  function endLottery() public {... */\n      jump\t// out\n        /* \"contracts/lottery.sol\":2215:2269  mapping(address => uint) public map_address2NumTickets */\n    tag_65:\n      mstore(0x20, 0x07)\n      dup1\n      0x00\n      mstore\n      keccak256(0x00, 0x40)\n      0x00\n      swap2\n      pop\n      swap1\n      pop\n      sload\n      dup2\n      jump\t// out\n        /* \"contracts/lottery.sol\":6700:7268  function getExtraContractBalance() public view returns (uint) {... */\n    tag_69:\n        /* \"contracts/lottery.sol\":6756:6760  uint */\n      0x00\n        /* \"contracts/lottery.sol\":7160:7189  getAccountedContractBalance() */\n      tag_169\n        /* \"contracts/lottery.sol\":7160:7187  getAccountedContractBalance */\n      tag_130\n        /* \"contracts/lottery.sol\":7160:7189  getAccountedContractBalance() */\n      jump\t// in\n    tag_169:\n        /* \"contracts/lottery.sol\":7136:7156  getContractBalance() */\n      tag_170\n        /* \"contracts/lottery.sol\":7136:7154  getContractBalance */\n      tag_81\n        /* \"contracts/lottery.sol\":7136:7156  getContractBalance() */\n      jump\t// in\n    tag_170:\n        /* \"contracts/lottery.sol\":7136:7189  getContractBalance() >= getAccountedContractBalance() */\n      lt\n      iszero\n        /* \"contracts/lottery.sol\":7129:7190  assert(getContractBalance() >= getAccountedContractBalance()) */\n      tag_171\n      jumpi\n      tag_172\n      tag_173\n      jump\t// in\n    tag_172:\n    tag_171:\n        /* \"contracts/lottery.sol\":7231:7260  getAccountedContractBalance() */\n      tag_174\n        /* \"contracts/lottery.sol\":7231:7258  getAccountedContractBalance */\n      tag_130\n        /* \"contracts/lottery.sol\":7231:7260  getAccountedContractBalance() */\n      jump\t// in\n    tag_174:\n        /* \"contracts/lottery.sol\":7208:7228  getContractBalance() */\n      tag_175\n        /* \"contracts/lottery.sol\":7208:7226  getContractBalance */\n      tag_81\n        /* \"contracts/lottery.sol\":7208:7228  getContractBalance() */\n      jump\t// in\n    tag_175:\n        /* \"contracts/lottery.sol\":7208:7260  getContractBalance() - getAccountedContractBalance() */\n      tag_176\n      swap2\n      swap1\n      tag_163\n      jump\t// in\n    tag_176:\n        /* \"contracts/lottery.sol\":7201:7260  return getContractBalance() - getAccountedContractBalance() */\n      swap1\n      pop\n        /* \"contracts/lottery.sol\":6700:7268  function getExtraContractBalance() public view returns (uint) {... */\n      swap1\n      jump\t// out\n        /* \"contracts/lottery.sol\":5455:5596  function enableContract() public {... */\n    tag_73:\n        /* \"contracts/lottery.sol\":5584:5588  true */\n      0x01\n        /* \"contracts/lottery.sol\":5564:5581  isContractEnabled */\n      0x00\n      dup1\n        /* \"contracts/lottery.sol\":5564:5588  isContractEnabled = true */\n      0x0100\n      exp\n      dup2\n      sload\n      dup2\n      0xff\n      mul\n      not\n      and\n      swap1\n      dup4\n      iszero\n      iszero\n      mul\n      or\n      swap1\n      sstore\n      pop\n        /* \"contracts/lottery.sol\":5455:5596  function enableContract() public {... */\n      jump\t// out\n        /* \"contracts/lottery.sol\":8093:8301  function removeAllContractFunds() public {... */\n    tag_78:\n        /* \"contracts/lottery.sol\":8227:8228  0 */\n      0x00\n        /* \"contracts/lottery.sol\":8211:8224  contractFunds */\n      0x01\n        /* \"contracts/lottery.sol\":8211:8228  contractFunds = 0 */\n      dup2\n      swap1\n      sstore\n      pop\n        /* \"contracts/lottery.sol\":687:729  0xAb8483F64d9C6d1EcF9b849Ae677dD3315835cb2 */\n      0xab8483f64d9c6d1ecf9b849ae677dd3315835cb2\n        /* \"contracts/lottery.sol\":8239:8263  operatorAddress.transfer */\n      0xffffffffffffffffffffffffffffffffffffffff\n      and\n        /* \"contracts/lottery.sol\":8239:8293  operatorAddress.transfer(getOperatorContractBalance()) */\n      0x08fc\n        /* \"contracts/lottery.sol\":8264:8292  getOperatorContractBalance() */\n      tag_179\n        /* \"contracts/lottery.sol\":8264:8290  getOperatorContractBalance */\n      tag_126\n        /* \"contracts/lottery.sol\":8264:8292  getOperatorContractBalance() */\n      jump\t// in\n    tag_179:\n        /* \"contracts/lottery.sol\":8239:8293  operatorAddress.transfer(getOperatorContractBalance()) */\n      swap1\n      dup2\n      iszero\n      mul\n      swap1\n      mload(0x40)\n      0x00\n      mload(0x40)\n      dup1\n      dup4\n      sub\n      dup2\n      dup6\n      dup9\n      dup9\n      call\n      swap4\n      pop\n      pop\n      pop\n      pop\n      iszero\n      dup1\n      iszero\n      tag_181\n      jumpi\n      returndatasize\n      0x00\n      dup1\n      returndatacopy\n      revert(0x00, returndatasize)\n    tag_181:\n      pop\n        /* \"contracts/lottery.sol\":8093:8301  function removeAllContractFunds() public {... */\n      jump\t// out\n        /* \"contracts/lottery.sol\":6343:6544  function getContractBalance() public view returns (uint) {... */\n    tag_81:\n        /* \"contracts/lottery.sol\":6394:6398  uint */\n      0x00\n        /* \"contracts/lottery.sol\":6515:6536  address(this).balance */\n      selfbalance\n        /* \"contracts/lottery.sol\":6508:6536  return address(this).balance */\n      swap1\n      pop\n        /* \"contracts/lottery.sol\":6343:6544  function getContractBalance() public view returns (uint) {... */\n      swap1\n      jump\t// out\n        /* \"contracts/lottery.sol\":9293:9443  function totalAddressTickets(address payable playerAddress) public view returns (uint) {... */\n    tag_87:\n        /* \"contracts/lottery.sol\":9374:9378  uint */\n      0x00\n        /* \"contracts/lottery.sol\":9398:9420  map_address2NumTickets */\n      0x07\n        /* \"contracts/lottery.sol\":9398:9435  map_address2NumTickets[playerAddress] */\n      0x00\n        /* \"contracts/lottery.sol\":9421:9434  playerAddress */\n      dup4\n        /* \"contracts/lottery.sol\":9398:9435  map_address2NumTickets[playerAddress] */\n      0xffffffffffffffffffffffffffffffffffffffff\n      and\n      0xffffffffffffffffffffffffffffffffffffffff\n      and\n      dup2\n      mstore\n      0x20\n      add\n      swap1\n      dup2\n      mstore\n      0x20\n      add\n      0x00\n      keccak256\n      sload\n        /* \"contracts/lottery.sol\":9391:9435  return map_address2NumTickets[playerAddress] */\n      swap1\n      pop\n        /* \"contracts/lottery.sol\":9293:9443  function totalAddressTickets(address payable playerAddress) public view returns (uint) {... */\n      swap2\n      swap1\n      pop\n      jump\t// out\n        /* \"contracts/lottery.sol\":8309:8409  function getPlayerPrizePool() external view returns (uint) {... */\n    tag_91:\n        /* \"contracts/lottery.sol\":8362:8366  uint */\n      0x00\n        /* \"contracts/lottery.sol\":8386:8401  playerPrizePool */\n      sload(0x02)\n        /* \"contracts/lottery.sol\":8379:8401  return playerPrizePool */\n      swap1\n      pop\n        /* \"contracts/lottery.sol\":8309:8409  function getPlayerPrizePool() external view returns (uint) {... */\n      swap1\n      jump\t// out\n        /* \"contracts/lottery.sol\":3623:4440  function chooseWinningAddress() public view returns (address payable) {... */\n    tag_95:\n        /* \"contracts/lottery.sol\":3676:3691  address payable */\n      0x00\n        /* \"contracts/lottery.sol\":3704:3719  uint numPlayers */\n      dup1\n        /* \"contracts/lottery.sol\":3722:3741  currentTicketNumber */\n      sload(0x04)\n        /* \"contracts/lottery.sol\":3704:3741  uint numPlayers = currentTicketNumber */\n      swap1\n      pop\n        /* \"contracts/lottery.sol\":3752:3770  uint winningTicket */\n      0x00\n        /* \"contracts/lottery.sol\":3879:3880  0 */\n      dup1\n        /* \"contracts/lottery.sol\":3865:3875  numPlayers */\n      dup3\n        /* \"contracts/lottery.sol\":3865:3880  numPlayers == 0 */\n      sub\n        /* \"contracts/lottery.sol\":3862:4380  if(numPlayers == 0) {... */\n      tag_186\n      jumpi\n        /* \"contracts/lottery.sol\":908:950  0x0000000000000000000000000000000000000000 */\n      0x00\n        /* \"contracts/lottery.sol\":3966:3984  return zeroAddress */\n      swap3\n      pop\n      pop\n      pop\n      jump(tag_185)\n        /* \"contracts/lottery.sol\":3862:4380  if(numPlayers == 0) {... */\n    tag_186:\n        /* \"contracts/lottery.sol\":4028:4029  1 */\n      0x01\n        /* \"contracts/lottery.sol\":4014:4024  numPlayers */\n      dup3\n        /* \"contracts/lottery.sol\":4014:4029  numPlayers == 1 */\n      sub\n        /* \"contracts/lottery.sol\":4011:4380  if(numPlayers == 1) {... */\n      tag_188\n      jumpi\n        /* \"contracts/lottery.sol\":4165:4166  0 */\n      0x00\n        /* \"contracts/lottery.sol\":4149:4166  winningTicket = 0 */\n      swap1\n      pop\n        /* \"contracts/lottery.sol\":4011:4380  if(numPlayers == 1) {... */\n      jump(tag_189)\n    tag_188:\n        /* \"contracts/lottery.sol\":4347:4368  randomInt(numPlayers) */\n      tag_190\n        /* \"contracts/lottery.sol\":4357:4367  numPlayers */\n      dup3\n        /* \"contracts/lottery.sol\":4347:4356  randomInt */\n      tag_55\n        /* \"contracts/lottery.sol\":4347:4368  randomInt(numPlayers) */\n      jump\t// in\n    tag_190:\n        /* \"contracts/lottery.sol\":4331:4368  winningTicket = randomInt(numPlayers) */\n      swap1\n      pop\n        /* \"contracts/lottery.sol\":4011:4380  if(numPlayers == 1) {... */\n    tag_189:\n        /* \"contracts/lottery.sol\":4399:4417  map_ticket2Address */\n      0x06\n        /* \"contracts/lottery.sol\":4399:4432  map_ticket2Address[winningTicket] */\n      0x00\n        /* \"contracts/lottery.sol\":4418:4431  winningTicket */\n      dup3\n        /* \"contracts/lottery.sol\":4399:4432  map_ticket2Address[winningTicket] */\n      dup2\n      mstore\n      0x20\n      add\n      swap1\n      dup2\n      mstore\n      0x20\n      add\n      0x00\n      keccak256\n      0x00\n      swap1\n      sload\n      swap1\n      0x0100\n      exp\n      swap1\n      div\n      0xffffffffffffffffffffffffffffffffffffffff\n      and\n        /* \"contracts/lottery.sol\":4392:4432  return map_ticket2Address[winningTicket] */\n      swap3\n      pop\n      pop\n      pop\n        /* \"contracts/lottery.sol\":3623:4440  function chooseWinningAddress() public view returns (address payable) {... */\n    tag_185:\n      swap1\n      jump\t// out\n        /* \"contracts/lottery.sol\":9555:10379  function addressWinChanceString(address payable playerAddress) public view returns (string memory) {... */\n    tag_101:\n        /* \"contracts/lottery.sol\":9639:9652  string memory */\n      0x60\n        /* \"contracts/lottery.sol\":9888:9889  0 */\n      0x00\n        /* \"contracts/lottery.sol\":9870:9884  totalTickets() */\n      tag_192\n        /* \"contracts/lottery.sol\":9870:9882  totalTickets */\n      tag_134\n        /* \"contracts/lottery.sol\":9870:9884  totalTickets() */\n      jump\t// in\n    tag_192:\n        /* \"contracts/lottery.sol\":9870:9889  totalTickets() == 0 */\n      sub\n        /* \"contracts/lottery.sol\":9867:9927  if(totalTickets() == 0) {... */\n      tag_193\n      jumpi\n        /* \"contracts/lottery.sol\":9906:9915  return \"\" */\n      mload(0x40)\n      dup1\n      0x20\n      add\n      0x40\n      mstore\n      dup1\n      0x00\n      dup2\n      mstore\n      pop\n      swap1\n      pop\n      jump(tag_191)\n        /* \"contracts/lottery.sol\":9867:9927  if(totalTickets() == 0) {... */\n    tag_193:\n        /* \"contracts/lottery.sol\":9937:9958  uint numDecimalPlaces */\n      0x00\n        /* \"contracts/lottery.sol\":9961:9962  4 */\n      0x04\n        /* \"contracts/lottery.sol\":9937:9962  uint numDecimalPlaces = 4 */\n      swap1\n      pop\n        /* \"contracts/lottery.sol\":9973:9987  uint numerator */\n      0x00\n        /* \"contracts/lottery.sol\":10027:10030  100 */\n      0x64\n        /* \"contracts/lottery.sol\":9990:10024  totalAddressTickets(playerAddress) */\n      tag_194\n        /* \"contracts/lottery.sol\":10010:10023  playerAddress */\n      dup6\n        /* \"contracts/lottery.sol\":9990:10009  totalAddressTickets */\n      tag_87\n        /* \"contracts/lottery.sol\":9990:10024  totalAddressTickets(playerAddress) */\n      jump\t// in\n    tag_194:\n        /* \"contracts/lottery.sol\":9990:10030  totalAddressTickets(playerAddress) * 100 */\n      tag_195\n      swap2\n      swap1\n      tag_40\n      jump\t// in\n    tag_195:\n        /* \"contracts/lottery.sol\":9973:10030  uint numerator = totalAddressTickets(playerAddress) * 100 */\n      swap1\n      pop\n        /* \"contracts/lottery.sol\":10041:10057  uint denominator */\n      0x00\n        /* \"contracts/lottery.sol\":10060:10074  totalTickets() */\n      tag_196\n        /* \"contracts/lottery.sol\":10060:10072  totalTickets */\n      tag_134\n        /* \"contracts/lottery.sol\":10060:10074  totalTickets() */\n      jump\t// in\n    tag_196:\n        /* \"contracts/lottery.sol\":10041:10074  uint denominator = totalTickets() */\n      swap1\n      pop\n        /* \"contracts/lottery.sol\":10087:10104  uint chance_front */\n      0x00\n        /* \"contracts/lottery.sol\":10119:10130  denominator */\n      dup2\n        /* \"contracts/lottery.sol\":10107:10116  numerator */\n      dup4\n        /* \"contracts/lottery.sol\":10107:10130  numerator / denominator */\n      tag_197\n      swap2\n      swap1\n      tag_38\n      jump\t// in\n    tag_197:\n        /* \"contracts/lottery.sol\":10087:10130  uint chance_front = numerator / denominator */\n      swap1\n      pop\n        /* \"contracts/lottery.sol\":10141:10156  uint chance_mod */\n      0x00\n        /* \"contracts/lottery.sol\":10194:10210  numDecimalPlaces */\n      dup5\n        /* \"contracts/lottery.sol\":10188:10190  10 */\n      0x0a\n        /* \"contracts/lottery.sol\":10188:10210  10 ** numDecimalPlaces */\n      tag_198\n      swap2\n      swap1\n      tag_199\n      jump\t// in\n    tag_198:\n        /* \"contracts/lottery.sol\":10172:10183  denominator */\n      dup4\n        /* \"contracts/lottery.sol\":10160:10169  numerator */\n      dup6\n        /* \"contracts/lottery.sol\":10160:10183  numerator % denominator */\n      tag_200\n      swap2\n      swap1\n      tag_154\n      jump\t// in\n    tag_200:\n        /* \"contracts/lottery.sol\":10159:10211  (numerator % denominator) * (10 ** numDecimalPlaces) */\n      tag_201\n      swap2\n      swap1\n      tag_40\n      jump\t// in\n    tag_201:\n        /* \"contracts/lottery.sol\":10141:10211  uint chance_mod = (numerator % denominator) * (10 ** numDecimalPlaces) */\n      swap1\n      pop\n        /* \"contracts/lottery.sol\":10222:10238  uint chance_back */\n      0x00\n        /* \"contracts/lottery.sol\":10254:10265  denominator */\n      dup4\n        /* \"contracts/lottery.sol\":10241:10251  chance_mod */\n      dup3\n        /* \"contracts/lottery.sol\":10241:10265  chance_mod / denominator */\n      tag_202\n      swap2\n      swap1\n      tag_38\n      jump\t// in\n    tag_202:\n        /* \"contracts/lottery.sol\":10222:10265  uint chance_back = chance_mod / denominator */\n      swap1\n      pop\n        /* \"contracts/lottery.sol\":10299:10329  Strings.toString(chance_front) */\n      tag_203\n        /* \"contracts/lottery.sol\":10316:10328  chance_front */\n      dup4\n        /* \"contracts/lottery.sol\":10299:10315  Strings.toString */\n      tag_204\n        /* \"contracts/lottery.sol\":10299:10329  Strings.toString(chance_front) */\n      jump\t// in\n    tag_203:\n        /* \"contracts/lottery.sol\":10336:10365  Strings.toString(chance_back) */\n      tag_205\n        /* \"contracts/lottery.sol\":10353:10364  chance_back */\n      dup3\n        /* \"contracts/lottery.sol\":10336:10352  Strings.toString */\n      tag_204\n        /* \"contracts/lottery.sol\":10336:10365  Strings.toString(chance_back) */\n      jump\t// in\n    tag_205:\n        /* \"contracts/lottery.sol\":10285:10371  string.concat(Strings.toString(chance_front), \".\", Strings.toString(chance_back), \"%\") */\n      add(0x20, mload(0x40))\n      tag_206\n      swap3\n      swap2\n      swap1\n      tag_207\n      jump\t// in\n    tag_206:\n      mload(0x40)\n      0x20\n      dup2\n      dup4\n      sub\n      sub\n      dup2\n      mstore\n      swap1\n      0x40\n      mstore\n        /* \"contracts/lottery.sol\":10278:10371  return string.concat(Strings.toString(chance_front), \".\", Strings.toString(chance_back), \"%\") */\n      swap7\n      pop\n      pop\n      pop\n      pop\n      pop\n      pop\n      pop\n        /* \"contracts/lottery.sol\":9555:10379  function addressWinChanceString(address payable playerAddress) public view returns (string memory) {... */\n    tag_191:\n      swap2\n      swap1\n      pop\n      jump\t// out\n        /* \"contracts/lottery.sol\":5604:5748  function disableContract() public {... */\n    tag_106:\n        /* \"contracts/lottery.sol\":5735:5740  false */\n      0x00\n        /* \"contracts/lottery.sol\":5715:5732  isContractEnabled */\n      dup1\n      0x00\n        /* \"contracts/lottery.sol\":5715:5740  isContractEnabled = false */\n      0x0100\n      exp\n      dup2\n      sload\n      dup2\n      0xff\n      mul\n      not\n      and\n      swap1\n      dup4\n      iszero\n      iszero\n      mul\n      or\n      swap1\n      sstore\n      pop\n        /* \"contracts/lottery.sol\":5604:5748  function disableContract() public {... */\n      jump\t// out\n        /* \"contracts/lottery.sol\":2150:2208  mapping(uint => address payable) public map_ticket2Address */\n    tag_110:\n      mstore(0x20, 0x06)\n      dup1\n      0x00\n      mstore\n      keccak256(0x00, 0x40)\n      0x00\n      swap2\n      pop\n      sload\n      swap1\n      0x0100\n      exp\n      swap1\n      div\n      0xffffffffffffffffffffffffffffffffffffffff\n      and\n      dup2\n      jump\t// out\n        /* \"contracts/lottery.sol\":9134:9285  function isAddressPlaying(address payable playerAddress) public view returns (bool) {... */\n    tag_115:\n        /* \"contracts/lottery.sol\":9212:9216  bool */\n      0x00\n        /* \"contracts/lottery.sol\":9276:9277  0 */\n      dup1\n        /* \"contracts/lottery.sol\":9236:9258  map_address2NumTickets */\n      0x07\n        /* \"contracts/lottery.sol\":9236:9273  map_address2NumTickets[playerAddress] */\n      0x00\n        /* \"contracts/lottery.sol\":9259:9272  playerAddress */\n      dup5\n        /* \"contracts/lottery.sol\":9236:9273  map_address2NumTickets[playerAddress] */\n      0xffffffffffffffffffffffffffffffffffffffff\n      and\n      0xffffffffffffffffffffffffffffffffffffffff\n      and\n      dup2\n      mstore\n      0x20\n      add\n      swap1\n      dup2\n      mstore\n      0x20\n      add\n      0x00\n      keccak256\n      sload\n        /* \"contracts/lottery.sol\":9236:9277  map_address2NumTickets[playerAddress] > 0 */\n      gt\n        /* \"contracts/lottery.sol\":9229:9277  return map_address2NumTickets[playerAddress] > 0 */\n      swap1\n      pop\n        /* \"contracts/lottery.sol\":9134:9285  function isAddressPlaying(address payable playerAddress) public view returns (bool) {... */\n      swap2\n      swap1\n      pop\n      jump\t// out\n        /* \"contracts/lottery.sol\":7481:8085  function removeContractFunds(uint amount) public {... */\n    tag_121:\n        /* \"contracts/lottery.sol\":7615:7643  uint operatorContractBalance */\n      0x00\n        /* \"contracts/lottery.sol\":7646:7674  getOperatorContractBalance() */\n      tag_211\n        /* \"contracts/lottery.sol\":7646:7672  getOperatorContractBalance */\n      tag_126\n        /* \"contracts/lottery.sol\":7646:7674  getOperatorContractBalance() */\n      jump\t// in\n    tag_211:\n        /* \"contracts/lottery.sol\":7615:7674  uint operatorContractBalance = getOperatorContractBalance() */\n      swap1\n      pop\n        /* \"contracts/lottery.sol\":7703:7726  operatorContractBalance */\n      dup1\n        /* \"contracts/lottery.sol\":7693:7699  amount */\n      dup3\n        /* \"contracts/lottery.sol\":7693:7726  amount <= operatorContractBalance */\n      gt\n      iszero\n        /* \"contracts/lottery.sol\":7757:7781  Strings.toString(amount) */\n      tag_212\n        /* \"contracts/lottery.sol\":7774:7780  amount */\n      dup4\n        /* \"contracts/lottery.sol\":7757:7773  Strings.toString */\n      tag_204\n        /* \"contracts/lottery.sol\":7757:7781  Strings.toString(amount) */\n      jump\t// in\n    tag_212:\n        /* \"contracts/lottery.sol\":7825:7866  Strings.toString(operatorContractBalance) */\n      tag_213\n        /* \"contracts/lottery.sol\":7842:7865  operatorContractBalance */\n      dup4\n        /* \"contracts/lottery.sol\":7825:7841  Strings.toString */\n      tag_204\n        /* \"contracts/lottery.sol\":7825:7866  Strings.toString(operatorContractBalance) */\n      jump\t// in\n    tag_213:\n        /* \"contracts/lottery.sol\":7728:7867  string.concat(\"The amount \", Strings.toString(amount), \" is greater than the contract balance \", Strings.toString(operatorContractBalance)) */\n      add(0x20, mload(0x40))\n      tag_214\n      swap3\n      swap2\n      swap1\n      tag_215\n      jump\t// in\n    tag_214:\n      mload(0x40)\n      0x20\n      dup2\n      dup4\n      sub\n      sub\n      dup2\n      mstore\n      swap1\n      0x40\n      mstore\n        /* \"contracts/lottery.sol\":7685:7868  require(amount <= operatorContractBalance, string.concat(\"The amount \", Strings.toString(amount), \" is greater than the contract balance \", Strings.toString(operatorContractBalance))) */\n      swap1\n      tag_216\n      jumpi\n      mload(0x40)\n      0x08c379a000000000000000000000000000000000000000000000000000000000\n      dup2\n      mstore\n      0x04\n      add\n      tag_217\n      swap2\n      swap1\n      tag_103\n      jump\t// in\n    tag_217:\n      mload(0x40)\n      dup1\n      swap2\n      sub\n      swap1\n      revert\n    tag_216:\n      pop\n        /* \"contracts/lottery.sol\":8008:8033  getExtraContractBalance() */\n      tag_218\n        /* \"contracts/lottery.sol\":8008:8031  getExtraContractBalance */\n      tag_69\n        /* \"contracts/lottery.sol\":8008:8033  getExtraContractBalance() */\n      jump\t// in\n    tag_218:\n        /* \"contracts/lottery.sol\":7999:8005  amount */\n      dup3\n        /* \"contracts/lottery.sol\":7999:8033  amount - getExtraContractBalance() */\n      tag_219\n      swap2\n      swap1\n      tag_163\n      jump\t// in\n    tag_219:\n        /* \"contracts/lottery.sol\":7981:7994  contractFunds */\n      0x01\n      0x00\n        /* \"contracts/lottery.sol\":7981:8034  contractFunds -= (amount - getExtraContractBalance()) */\n      dup3\n      dup3\n      sload\n      tag_220\n      swap2\n      swap1\n      tag_163\n      jump\t// in\n    tag_220:\n      swap3\n      pop\n      pop\n      dup2\n      swap1\n      sstore\n      pop\n        /* \"contracts/lottery.sol\":687:729  0xAb8483F64d9C6d1EcF9b849Ae677dD3315835cb2 */\n      0xab8483f64d9c6d1ecf9b849ae677dd3315835cb2\n        /* \"contracts/lottery.sol\":8045:8069  operatorAddress.transfer */\n      0xffffffffffffffffffffffffffffffffffffffff\n      and\n        /* \"contracts/lottery.sol\":8045:8077  operatorAddress.transfer(amount) */\n      0x08fc\n        /* \"contracts/lottery.sol\":8070:8076  amount */\n      dup4\n        /* \"contracts/lottery.sol\":8045:8077  operatorAddress.transfer(amount) */\n      swap1\n      dup2\n      iszero\n      mul\n      swap1\n      mload(0x40)\n      0x00\n      mload(0x40)\n      dup1\n      dup4\n      sub\n      dup2\n      dup6\n      dup9\n      dup9\n      call\n      swap4\n      pop\n      pop\n      pop\n      pop\n      iszero\n      dup1\n      iszero\n      tag_222\n      jumpi\n      returndatasize\n      0x00\n      dup1\n      returndatacopy\n      revert(0x00, returndatasize)\n    tag_222:\n      pop\n        /* \"contracts/lottery.sol\":7530:8085  {... */\n      pop\n        /* \"contracts/lottery.sol\":7481:8085  function removeContractFunds(uint amount) public {... */\n      pop\n      jump\t// out\n        /* \"contracts/lottery.sol\":8944:9083  function addBonusPrizePool() external payable {... */\n    tag_123:\n        /* \"contracts/lottery.sol\":9066:9075  msg.value */\n      callvalue\n        /* \"contracts/lottery.sol\":9048:9062  bonusPrizePool */\n      0x03\n      0x00\n        /* \"contracts/lottery.sol\":9048:9075  bonusPrizePool += msg.value */\n      dup3\n      dup3\n      sload\n      tag_224\n      swap2\n      swap1\n      tag_33\n      jump\t// in\n    tag_224:\n      swap3\n      pop\n      pop\n      dup2\n      swap1\n      sstore\n      pop\n        /* \"contracts/lottery.sol\":8944:9083  function addBonusPrizePool() external payable {... */\n      jump\t// out\n        /* \"contracts/lottery.sol\":7276:7473  function getOperatorContractBalance() public view returns (uint) {... */\n    tag_126:\n        /* \"contracts/lottery.sol\":7335:7339  uint */\n      0x00\n        /* \"contracts/lottery.sol\":7440:7465  getExtraContractBalance() */\n      tag_226\n        /* \"contracts/lottery.sol\":7440:7463  getExtraContractBalance */\n      tag_69\n        /* \"contracts/lottery.sol\":7440:7465  getExtraContractBalance() */\n      jump\t// in\n    tag_226:\n        /* \"contracts/lottery.sol\":7424:7437  contractFunds */\n      sload(0x01)\n        /* \"contracts/lottery.sol\":7424:7465  contractFunds + getExtraContractBalance() */\n      tag_227\n      swap2\n      swap1\n      tag_33\n      jump\t// in\n    tag_227:\n        /* \"contracts/lottery.sol\":7417:7465  return contractFunds + getExtraContractBalance() */\n      swap1\n      pop\n        /* \"contracts/lottery.sol\":7276:7473  function getOperatorContractBalance() public view returns (uint) {... */\n      swap1\n      jump\t// out\n        /* \"contracts/lottery.sol\":6552:6692  function getAccountedContractBalance() public view returns (uint) {... */\n    tag_130:\n        /* \"contracts/lottery.sol\":6612:6616  uint */\n      0x00\n        /* \"contracts/lottery.sol\":6670:6684  bonusPrizePool */\n      sload(0x03)\n        /* \"contracts/lottery.sol\":6652:6667  playerPrizePool */\n      sload(0x02)\n        /* \"contracts/lottery.sol\":6636:6649  contractFunds */\n      sload(0x01)\n        /* \"contracts/lottery.sol\":6636:6667  contractFunds + playerPrizePool */\n      tag_229\n      swap2\n      swap1\n      tag_33\n      jump\t// in\n    tag_229:\n        /* \"contracts/lottery.sol\":6636:6684  contractFunds + playerPrizePool + bonusPrizePool */\n      tag_230\n      swap2\n      swap1\n      tag_33\n      jump\t// in\n    tag_230:\n        /* \"contracts/lottery.sol\":6629:6684  return contractFunds + playerPrizePool + bonusPrizePool */\n      swap1\n      pop\n        /* \"contracts/lottery.sol\":6552:6692  function getAccountedContractBalance() public view returns (uint) {... */\n      swap1\n      jump\t// out\n        /* \"contracts/lottery.sol\":9451:9547  function totalTickets() public view returns (uint) {... */\n    tag_134:\n        /* \"contracts/lottery.sol\":9496:9500  uint */\n      0x00\n        /* \"contracts/lottery.sol\":9520:9539  currentTicketNumber */\n      sload(0x04)\n        /* \"contracts/lottery.sol\":9513:9539  return currentTicketNumber */\n      swap1\n      pop\n        /* \"contracts/lottery.sol\":9451:9547  function totalTickets() public view returns (uint) {... */\n      swap1\n      jump\t// out\n        /* \"contracts/lottery.sol\":5940:6036  function getContractFunds() external view returns (uint) {... */\n    tag_138:\n        /* \"contracts/lottery.sol\":5991:5995  uint */\n      0x00\n        /* \"contracts/lottery.sol\":6015:6028  contractFunds */\n      sload(0x01)\n        /* \"contracts/lottery.sol\":6008:6028  return contractFunds */\n      swap1\n      pop\n        /* \"contracts/lottery.sol\":5940:6036  function getContractFunds() external view returns (uint) {... */\n      swap1\n      jump\t// out\n        /* \"contracts/lottery.sol\":8838:8936  function getBonusPrizePool() external view returns (uint) {... */\n    tag_142:\n        /* \"contracts/lottery.sol\":8890:8894  uint */\n      0x00\n        /* \"contracts/lottery.sol\":8914:8928  bonusPrizePool */\n      sload(0x03)\n        /* \"contracts/lottery.sol\":8907:8928  return bonusPrizePool */\n      swap1\n      pop\n        /* \"contracts/lottery.sol\":8838:8936  function getBonusPrizePool() external view returns (uint) {... */\n      swap1\n      jump\t// out\n        /* \"@openzeppelin/contracts/utils/Strings.sol\":392:1095  function toString(uint256 value) internal pure returns (string memory) {... */\n    tag_204:\n        /* \"@openzeppelin/contracts/utils/Strings.sol\":448:461  string memory */\n      0x60\n        /* \"@openzeppelin/contracts/utils/Strings.sol\":674:675  0 */\n      0x00\n        /* \"@openzeppelin/contracts/utils/Strings.sol\":665:670  value */\n      dup3\n        /* \"@openzeppelin/contracts/utils/Strings.sol\":665:675  value == 0 */\n      sub\n        /* \"@openzeppelin/contracts/utils/Strings.sol\":661:712  if (value == 0) {... */\n      tag_235\n      jumpi\n        /* \"@openzeppelin/contracts/utils/Strings.sol\":691:701  return \"0\" */\n      mload(0x40)\n      dup1\n      0x40\n      add\n      0x40\n      mstore\n      dup1\n      0x01\n      dup2\n      mstore\n      0x20\n      add\n      0x3000000000000000000000000000000000000000000000000000000000000000\n      dup2\n      mstore\n      pop\n      swap1\n      pop\n      jump(tag_234)\n        /* \"@openzeppelin/contracts/utils/Strings.sol\":661:712  if (value == 0) {... */\n    tag_235:\n        /* \"@openzeppelin/contracts/utils/Strings.sol\":721:733  uint256 temp */\n      0x00\n        /* \"@openzeppelin/contracts/utils/Strings.sol\":736:741  value */\n      dup3\n        /* \"@openzeppelin/contracts/utils/Strings.sol\":721:741  uint256 temp = value */\n      swap1\n      pop\n        /* \"@openzeppelin/contracts/utils/Strings.sol\":751:765  uint256 digits */\n      0x00\n        /* \"@openzeppelin/contracts/utils/Strings.sol\":775:850  while (temp != 0) {... */\n    tag_236:\n        /* \"@openzeppelin/contracts/utils/Strings.sol\":790:791  0 */\n      0x00\n        /* \"@openzeppelin/contracts/utils/Strings.sol\":782:786  temp */\n      dup3\n        /* \"@openzeppelin/contracts/utils/Strings.sol\":782:791  temp != 0 */\n      eq\n        /* \"@openzeppelin/contracts/utils/Strings.sol\":775:850  while (temp != 0) {... */\n      tag_237\n      jumpi\n        /* \"@openzeppelin/contracts/utils/Strings.sol\":807:815  digits++ */\n      dup1\n      dup1\n      tag_238\n      swap1\n      tag_47\n      jump\t// in\n    tag_238:\n      swap2\n      pop\n      pop\n        /* \"@openzeppelin/contracts/utils/Strings.sol\":837:839  10 */\n      0x0a\n        /* \"@openzeppelin/contracts/utils/Strings.sol\":829:839  temp /= 10 */\n      dup3\n      tag_239\n      swap2\n      swap1\n      tag_38\n      jump\t// in\n    tag_239:\n      swap2\n      pop\n        /* \"@openzeppelin/contracts/utils/Strings.sol\":775:850  while (temp != 0) {... */\n      jump(tag_236)\n    tag_237:\n        /* \"@openzeppelin/contracts/utils/Strings.sol\":859:878  bytes memory buffer */\n      0x00\n        /* \"@openzeppelin/contracts/utils/Strings.sol\":891:897  digits */\n      dup2\n        /* \"@openzeppelin/contracts/utils/Strings.sol\":881:898  new bytes(digits) */\n      0xffffffffffffffff\n      dup2\n      gt\n      iszero\n      tag_240\n      jumpi\n      tag_241\n      tag_242\n      jump\t// in\n    tag_241:\n    tag_240:\n      mload(0x40)\n      swap1\n      dup1\n      dup3\n      mstore\n      dup1\n      0x1f\n      add\n      not(0x1f)\n      and\n      0x20\n      add\n      dup3\n      add\n      0x40\n      mstore\n      dup1\n      iszero\n      tag_243\n      jumpi\n      dup2\n      0x20\n      add\n      0x01\n      dup3\n      mul\n      dup1\n      calldatasize\n      dup4\n      calldatacopy\n      dup1\n      dup3\n      add\n      swap2\n      pop\n      pop\n      swap1\n      pop\n    tag_243:\n      pop\n        /* \"@openzeppelin/contracts/utils/Strings.sol\":859:898  bytes memory buffer = new bytes(digits) */\n      swap1\n      pop\n        /* \"@openzeppelin/contracts/utils/Strings.sol\":908:1058  while (value != 0) {... */\n    tag_244:\n        /* \"@openzeppelin/contracts/utils/Strings.sol\":924:925  0 */\n      0x00\n        /* \"@openzeppelin/contracts/utils/Strings.sol\":915:920  value */\n      dup6\n        /* \"@openzeppelin/contracts/utils/Strings.sol\":915:925  value != 0 */\n      eq\n        /* \"@openzeppelin/contracts/utils/Strings.sol\":908:1058  while (value != 0) {... */\n      tag_245\n      jumpi\n        /* \"@openzeppelin/contracts/utils/Strings.sol\":951:952  1 */\n      0x01\n        /* \"@openzeppelin/contracts/utils/Strings.sol\":941:952  digits -= 1 */\n      dup3\n      tag_246\n      swap2\n      swap1\n      tag_163\n      jump\t// in\n    tag_246:\n      swap2\n      pop\n        /* \"@openzeppelin/contracts/utils/Strings.sol\":1017:1019  10 */\n      0x0a\n        /* \"@openzeppelin/contracts/utils/Strings.sol\":1009:1014  value */\n      dup6\n        /* \"@openzeppelin/contracts/utils/Strings.sol\":1009:1019  value % 10 */\n      tag_247\n      swap2\n      swap1\n      tag_154\n      jump\t// in\n    tag_247:\n        /* \"@openzeppelin/contracts/utils/Strings.sol\":996:998  48 */\n      0x30\n        /* \"@openzeppelin/contracts/utils/Strings.sol\":996:1020  48 + uint256(value % 10) */\n      tag_248\n      swap2\n      swap1\n      tag_33\n      jump\t// in\n    tag_248:\n        /* \"@openzeppelin/contracts/utils/Strings.sol\":983:1022  bytes1(uint8(48 + uint256(value % 10))) */\n      0xf8\n      shl\n        /* \"@openzeppelin/contracts/utils/Strings.sol\":966:972  buffer */\n      dup2\n        /* \"@openzeppelin/contracts/utils/Strings.sol\":973:979  digits */\n      dup4\n        /* \"@openzeppelin/contracts/utils/Strings.sol\":966:980  buffer[digits] */\n      dup2\n      mload\n      dup2\n      lt\n      tag_249\n      jumpi\n      tag_250\n      tag_251\n      jump\t// in\n    tag_250:\n    tag_249:\n      0x20\n      add\n      add\n        /* \"@openzeppelin/contracts/utils/Strings.sol\":966:1022  buffer[digits] = bytes1(uint8(48 + uint256(value % 10))) */\n      swap1\n      not(0xffffffffffffffffffffffffffffffffffffffffffffffffffffffffffffff)\n      and\n      swap1\n      dup2\n      0x00\n      byte\n      swap1\n      mstore8\n      pop\n        /* \"@openzeppelin/contracts/utils/Strings.sol\":1045:1047  10 */\n      0x0a\n        /* \"@openzeppelin/contracts/utils/Strings.sol\":1036:1047  value /= 10 */\n      dup6\n      tag_252\n      swap2\n      swap1\n      tag_38\n      jump\t// in\n    tag_252:\n      swap5\n      pop\n        /* \"@openzeppelin/contracts/utils/Strings.sol\":908:1058  while (value != 0) {... */\n      jump(tag_244)\n    tag_245:\n        /* \"@openzeppelin/contracts/utils/Strings.sol\":1081:1087  buffer */\n      dup1\n        /* \"@openzeppelin/contracts/utils/Strings.sol\":1067:1088  return string(buffer) */\n      swap4\n      pop\n      pop\n      pop\n      pop\n        /* \"@openzeppelin/contracts/utils/Strings.sol\":392:1095  function toString(uint256 value) internal pure returns (string memory) {... */\n    tag_234:\n      swap2\n      swap1\n      pop\n      jump\t// out\n        /* \"#utility.yul\":7:84   */\n    tag_253:\n        /* \"#utility.yul\":44:51   */\n      0x00\n        /* \"#utility.yul\":73:78   */\n      dup2\n        /* \"#utility.yul\":62:78   */\n      swap1\n      pop\n        /* \"#utility.yul\":7:84   */\n      swap2\n      swap1\n      pop\n      jump\t// out\n        /* \"#utility.yul\":90:270   */\n    tag_254:\n        /* \"#utility.yul\":138:215   */\n      0x4e487b7100000000000000000000000000000000000000000000000000000000\n        /* \"#utility.yul\":135:136   */\n      0x00\n        /* \"#utility.yul\":128:216   */\n      mstore\n        /* \"#utility.yul\":235:239   */\n      0x11\n        /* \"#utility.yul\":232:233   */\n      0x04\n        /* \"#utility.yul\":225:240   */\n      mstore\n        /* \"#utility.yul\":259:263   */\n      0x24\n        /* \"#utility.yul\":256:257   */\n      0x00\n        /* \"#utility.yul\":249:264   */\n      revert\n        /* \"#utility.yul\":276:467   */\n    tag_33:\n        /* \"#utility.yul\":316:319   */\n      0x00\n        /* \"#utility.yul\":335:355   */\n      tag_295\n        /* \"#utility.yul\":353:354   */\n      dup3\n        /* \"#utility.yul\":335:355   */\n      tag_253\n      jump\t// in\n    tag_295:\n        /* \"#utility.yul\":330:355   */\n      swap2\n      pop\n        /* \"#utility.yul\":369:389   */\n      tag_296\n        /* \"#utility.yul\":387:388   */\n      dup4\n        /* \"#utility.yul\":369:389   */\n      tag_253\n      jump\t// in\n    tag_296:\n        /* \"#utility.yul\":364:389   */\n      swap3\n      pop\n        /* \"#utility.yul\":412:413   */\n      dup3\n        /* \"#utility.yul\":409:410   */\n      dup3\n        /* \"#utility.yul\":405:414   */\n      add\n        /* \"#utility.yul\":398:414   */\n      swap1\n      pop\n        /* \"#utility.yul\":433:436   */\n      dup1\n        /* \"#utility.yul\":430:431   */\n      dup3\n        /* \"#utility.yul\":427:437   */\n      gt\n        /* \"#utility.yul\":424:460   */\n      iszero\n      tag_297\n      jumpi\n        /* \"#utility.yul\":440:458   */\n      tag_298\n      tag_254\n      jump\t// in\n    tag_298:\n        /* \"#utility.yul\":424:460   */\n    tag_297:\n        /* \"#utility.yul\":276:467   */\n      swap3\n      swap2\n      pop\n      pop\n      jump\t// out\n        /* \"#utility.yul\":473:653   */\n    tag_255:\n        /* \"#utility.yul\":521:598   */\n      0x4e487b7100000000000000000000000000000000000000000000000000000000\n        /* \"#utility.yul\":518:519   */\n      0x00\n        /* \"#utility.yul\":511:599   */\n      mstore\n        /* \"#utility.yul\":618:622   */\n      0x12\n        /* \"#utility.yul\":615:616   */\n      0x04\n        /* \"#utility.yul\":608:623   */\n      mstore\n        /* \"#utility.yul\":642:646   */\n      0x24\n        /* \"#utility.yul\":639:640   */\n      0x00\n        /* \"#utility.yul\":632:647   */\n      revert\n        /* \"#utility.yul\":659:844   */\n    tag_38:\n        /* \"#utility.yul\":699:700   */\n      0x00\n        /* \"#utility.yul\":716:736   */\n      tag_301\n        /* \"#utility.yul\":734:735   */\n      dup3\n        /* \"#utility.yul\":716:736   */\n      tag_253\n      jump\t// in\n    tag_301:\n        /* \"#utility.yul\":711:736   */\n      swap2\n      pop\n        /* \"#utility.yul\":750:770   */\n      tag_302\n        /* \"#utility.yul\":768:769   */\n      dup4\n        /* \"#utility.yul\":750:770   */\n      tag_253\n      jump\t// in\n    tag_302:\n        /* \"#utility.yul\":745:770   */\n      swap3\n      pop\n        /* \"#utility.yul\":789:790   */\n      dup3\n        /* \"#utility.yul\":779:814   */\n      tag_303\n      jumpi\n        /* \"#utility.yul\":794:812   */\n      tag_304\n      tag_255\n      jump\t// in\n    tag_304:\n        /* \"#utility.yul\":779:814   */\n    tag_303:\n        /* \"#utility.yul\":836:837   */\n      dup3\n        /* \"#utility.yul\":833:834   */\n      dup3\n        /* \"#utility.yul\":829:838   */\n      div\n        /* \"#utility.yul\":824:838   */\n      swap1\n      pop\n        /* \"#utility.yul\":659:844   */\n      swap3\n      swap2\n      pop\n      pop\n      jump\t// out\n        /* \"#utility.yul\":850:1260   */\n    tag_40:\n        /* \"#utility.yul\":890:897   */\n      0x00\n        /* \"#utility.yul\":913:933   */\n      tag_306\n        /* \"#utility.yul\":931:932   */\n      dup3\n        /* \"#utility.yul\":913:933   */\n      tag_253\n      jump\t// in\n    tag_306:\n        /* \"#utility.yul\":908:933   */\n      swap2\n      pop\n        /* \"#utility.yul\":947:967   */\n      tag_307\n        /* \"#utility.yul\":965:966   */\n      dup4\n        /* \"#utility.yul\":947:967   */\n      tag_253\n      jump\t// in\n    tag_307:\n        /* \"#utility.yul\":942:967   */\n      swap3\n      pop\n        /* \"#utility.yul\":1002:1003   */\n      dup3\n        /* \"#utility.yul\":999:1000   */\n      dup3\n        /* \"#utility.yul\":995:1004   */\n      mul\n        /* \"#utility.yul\":1024:1054   */\n      tag_308\n        /* \"#utility.yul\":1042:1053   */\n      dup2\n        /* \"#utility.yul\":1024:1054   */\n      tag_253\n      jump\t// in\n    tag_308:\n        /* \"#utility.yul\":1013:1054   */\n      swap2\n      pop\n        /* \"#utility.yul\":1203:1204   */\n      dup3\n        /* \"#utility.yul\":1194:1201   */\n      dup3\n        /* \"#utility.yul\":1190:1205   */\n      div\n        /* \"#utility.yul\":1187:1188   */\n      dup5\n        /* \"#utility.yul\":1184:1206   */\n      eq\n        /* \"#utility.yul\":1164:1165   */\n      dup4\n        /* \"#utility.yul\":1157:1166   */\n      iszero\n        /* \"#utility.yul\":1137:1220   */\n      or\n        /* \"#utility.yul\":1114:1253   */\n      tag_309\n      jumpi\n        /* \"#utility.yul\":1233:1251   */\n      tag_310\n      tag_254\n      jump\t// in\n    tag_310:\n        /* \"#utility.yul\":1114:1253   */\n    tag_309:\n        /* \"#utility.yul\":898:1260   */\n      pop\n        /* \"#utility.yul\":850:1260   */\n      swap3\n      swap2\n      pop\n      pop\n      jump\t// out\n        /* \"#utility.yul\":1266:1499   */\n    tag_47:\n        /* \"#utility.yul\":1305:1308   */\n      0x00\n        /* \"#utility.yul\":1328:1352   */\n      tag_312\n        /* \"#utility.yul\":1346:1351   */\n      dup3\n        /* \"#utility.yul\":1328:1352   */\n      tag_253\n      jump\t// in\n    tag_312:\n        /* \"#utility.yul\":1319:1352   */\n      swap2\n      pop\n        /* \"#utility.yul\":1374:1440   */\n      0xffffffffffffffffffffffffffffffffffffffffffffffffffffffffffffffff\n        /* \"#utility.yul\":1367:1372   */\n      dup3\n        /* \"#utility.yul\":1364:1441   */\n      sub\n        /* \"#utility.yul\":1361:1464   */\n      tag_313\n      jumpi\n        /* \"#utility.yul\":1444:1462   */\n      tag_314\n      tag_254\n      jump\t// in\n    tag_314:\n        /* \"#utility.yul\":1361:1464   */\n    tag_313:\n        /* \"#utility.yul\":1491:1492   */\n      0x01\n        /* \"#utility.yul\":1484:1489   */\n      dup3\n        /* \"#utility.yul\":1480:1493   */\n      add\n        /* \"#utility.yul\":1473:1493   */\n      swap1\n      pop\n        /* \"#utility.yul\":1266:1499   */\n      swap2\n      swap1\n      pop\n      jump\t// out\n        /* \"#utility.yul\":1586:1703   */\n    tag_257:\n        /* \"#utility.yul\":1695:1696   */\n      0x00\n        /* \"#utility.yul\":1692:1693   */\n      dup1\n        /* \"#utility.yul\":1685:1697   */\n      revert\n        /* \"#utility.yul\":1832:1954   */\n    tag_259:\n        /* \"#utility.yul\":1905:1929   */\n      tag_319\n        /* \"#utility.yul\":1923:1928   */\n      dup2\n        /* \"#utility.yul\":1905:1929   */\n      tag_253\n      jump\t// in\n    tag_319:\n        /* \"#utility.yul\":1898:1903   */\n      dup2\n        /* \"#utility.yul\":1895:1930   */\n      eq\n        /* \"#utility.yul\":1885:1948   */\n      tag_320\n      jumpi\n        /* \"#utility.yul\":1944:1945   */\n      0x00\n        /* \"#utility.yul\":1941:1942   */\n      dup1\n        /* \"#utility.yul\":1934:1946   */\n      revert\n        /* \"#utility.yul\":1885:1948   */\n    tag_320:\n        /* \"#utility.yul\":1832:1954   */\n      pop\n      jump\t// out\n        /* \"#utility.yul\":1960:2099   */\n    tag_260:\n        /* \"#utility.yul\":2006:2011   */\n      0x00\n        /* \"#utility.yul\":2044:2050   */\n      dup2\n        /* \"#utility.yul\":2031:2051   */\n      calldataload\n        /* \"#utility.yul\":2022:2051   */\n      swap1\n      pop\n        /* \"#utility.yul\":2060:2093   */\n      tag_322\n        /* \"#utility.yul\":2087:2092   */\n      dup2\n        /* \"#utility.yul\":2060:2093   */\n      tag_259\n      jump\t// in\n    tag_322:\n        /* \"#utility.yul\":1960:2099   */\n      swap3\n      swap2\n      pop\n      pop\n      jump\t// out\n        /* \"#utility.yul\":2105:2434   */\n    tag_54:\n        /* \"#utility.yul\":2164:2170   */\n      0x00\n        /* \"#utility.yul\":2213:2215   */\n      0x20\n        /* \"#utility.yul\":2201:2210   */\n      dup3\n        /* \"#utility.yul\":2192:2199   */\n      dup5\n        /* \"#utility.yul\":2188:2211   */\n      sub\n        /* \"#utility.yul\":2184:2216   */\n      slt\n        /* \"#utility.yul\":2181:2300   */\n      iszero\n      tag_324\n      jumpi\n        /* \"#utility.yul\":2219:2298   */\n      tag_325\n      tag_257\n      jump\t// in\n    tag_325:\n        /* \"#utility.yul\":2181:2300   */\n    tag_324:\n        /* \"#utility.yul\":2339:2340   */\n      0x00\n        /* \"#utility.yul\":2364:2417   */\n      tag_326\n        /* \"#utility.yul\":2409:2416   */\n      dup5\n        /* \"#utility.yul\":2400:2406   */\n      dup3\n        /* \"#utility.yul\":2389:2398   */\n      dup6\n        /* \"#utility.yul\":2385:2407   */\n      add\n        /* \"#utility.yul\":2364:2417   */\n      tag_260\n      jump\t// in\n    tag_326:\n        /* \"#utility.yul\":2354:2417   */\n      swap2\n      pop\n        /* \"#utility.yul\":2310:2427   */\n      pop\n        /* \"#utility.yul\":2105:2434   */\n      swap3\n      swap2\n      pop\n      pop\n      jump\t// out\n        /* \"#utility.yul\":2440:2558   */\n    tag_261:\n        /* \"#utility.yul\":2527:2551   */\n      tag_328\n        /* \"#utility.yul\":2545:2550   */\n      dup2\n        /* \"#utility.yul\":2527:2551   */\n      tag_253\n      jump\t// in\n    tag_328:\n        /* \"#utility.yul\":2522:2525   */\n      dup3\n        /* \"#utility.yul\":2515:2552   */\n      mstore\n        /* \"#utility.yul\":2440:2558   */\n      pop\n      pop\n      jump\t// out\n        /* \"#utility.yul\":2564:2786   */\n    tag_57:\n        /* \"#utility.yul\":2657:2661   */\n      0x00\n        /* \"#utility.yul\":2695:2697   */\n      0x20\n        /* \"#utility.yul\":2684:2693   */\n      dup3\n        /* \"#utility.yul\":2680:2698   */\n      add\n        /* \"#utility.yul\":2672:2698   */\n      swap1\n      pop\n        /* \"#utility.yul\":2708:2779   */\n      tag_330\n        /* \"#utility.yul\":2776:2777   */\n      0x00\n        /* \"#utility.yul\":2765:2774   */\n      dup4\n        /* \"#utility.yul\":2761:2778   */\n      add\n        /* \"#utility.yul\":2752:2758   */\n      dup5\n        /* \"#utility.yul\":2708:2779   */\n      tag_261\n      jump\t// in\n    tag_330:\n        /* \"#utility.yul\":2564:2786   */\n      swap3\n      swap2\n      pop\n      pop\n      jump\t// out\n        /* \"#utility.yul\":2792:2918   */\n    tag_262:\n        /* \"#utility.yul\":2829:2836   */\n      0x00\n        /* \"#utility.yul\":2869:2911   */\n      0xffffffffffffffffffffffffffffffffffffffff\n        /* \"#utility.yul\":2862:2867   */\n      dup3\n        /* \"#utility.yul\":2858:2912   */\n      and\n        /* \"#utility.yul\":2847:2912   */\n      swap1\n      pop\n        /* \"#utility.yul\":2792:2918   */\n      swap2\n      swap1\n      pop\n      jump\t// out\n        /* \"#utility.yul\":2924:3020   */\n    tag_263:\n        /* \"#utility.yul\":2961:2968   */\n      0x00\n        /* \"#utility.yul\":2990:3014   */\n      tag_333\n        /* \"#utility.yul\":3008:3013   */\n      dup3\n        /* \"#utility.yul\":2990:3014   */\n      tag_262\n      jump\t// in\n    tag_333:\n        /* \"#utility.yul\":2979:3014   */\n      swap1\n      pop\n        /* \"#utility.yul\":2924:3020   */\n      swap2\n      swap1\n      pop\n      jump\t// out\n        /* \"#utility.yul\":3026:3148   */\n    tag_264:\n        /* \"#utility.yul\":3099:3123   */\n      tag_335\n        /* \"#utility.yul\":3117:3122   */\n      dup2\n        /* \"#utility.yul\":3099:3123   */\n      tag_263\n      jump\t// in\n    tag_335:\n        /* \"#utility.yul\":3092:3097   */\n      dup2\n        /* \"#utility.yul\":3089:3124   */\n      eq\n        /* \"#utility.yul\":3079:3142   */\n      tag_336\n      jumpi\n        /* \"#utility.yul\":3138:3139   */\n      0x00\n        /* \"#utility.yul\":3135:3136   */\n      dup1\n        /* \"#utility.yul\":3128:3140   */\n      revert\n        /* \"#utility.yul\":3079:3142   */\n    tag_336:\n        /* \"#utility.yul\":3026:3148   */\n      pop\n      jump\t// out\n        /* \"#utility.yul\":3154:3293   */\n    tag_265:\n        /* \"#utility.yul\":3200:3205   */\n      0x00\n        /* \"#utility.yul\":3238:3244   */\n      dup2\n        /* \"#utility.yul\":3225:3245   */\n      calldataload\n        /* \"#utility.yul\":3216:3245   */\n      swap1\n      pop\n        /* \"#utility.yul\":3254:3287   */\n      tag_338\n        /* \"#utility.yul\":3281:3286   */\n      dup2\n        /* \"#utility.yul\":3254:3287   */\n      tag_264\n      jump\t// in\n    tag_338:\n        /* \"#utility.yul\":3154:3293   */\n      swap3\n      swap2\n      pop\n      pop\n      jump\t// out\n        /* \"#utility.yul\":3299:3628   */\n    tag_64:\n        /* \"#utility.yul\":3358:3364   */\n      0x00\n        /* \"#utility.yul\":3407:3409   */\n      0x20\n        /* \"#utility.yul\":3395:3404   */\n      dup3\n        /* \"#utility.yul\":3386:3393   */\n      dup5\n        /* \"#utility.yul\":3382:3405   */\n      sub\n        /* \"#utility.yul\":3378:3410   */\n      slt\n        /* \"#utility.yul\":3375:3494   */\n      iszero\n      tag_340\n      jumpi\n        /* \"#utility.yul\":3413:3492   */\n      tag_341\n      tag_257\n      jump\t// in\n    tag_341:\n        /* \"#utility.yul\":3375:3494   */\n    tag_340:\n        /* \"#utility.yul\":3533:3534   */\n      0x00\n        /* \"#utility.yul\":3558:3611   */\n      tag_342\n        /* \"#utility.yul\":3603:3610   */\n      dup5\n        /* \"#utility.yul\":3594:3600   */\n      dup3\n        /* \"#utility.yul\":3583:3592   */\n      dup6\n        /* \"#utility.yul\":3579:3601   */\n      add\n        /* \"#utility.yul\":3558:3611   */\n      tag_265\n      jump\t// in\n    tag_342:\n        /* \"#utility.yul\":3548:3611   */\n      swap2\n      pop\n        /* \"#utility.yul\":3504:3621   */\n      pop\n        /* \"#utility.yul\":3299:3628   */\n      swap3\n      swap2\n      pop\n      pop\n      jump\t// out\n        /* \"#utility.yul\":3634:3738   */\n    tag_266:\n        /* \"#utility.yul\":3679:3686   */\n      0x00\n        /* \"#utility.yul\":3708:3732   */\n      tag_344\n        /* \"#utility.yul\":3726:3731   */\n      dup3\n        /* \"#utility.yul\":3708:3732   */\n      tag_262\n      jump\t// in\n    tag_344:\n        /* \"#utility.yul\":3697:3732   */\n      swap1\n      pop\n        /* \"#utility.yul\":3634:3738   */\n      swap2\n      swap1\n      pop\n      jump\t// out\n        /* \"#utility.yul\":3744:3882   */\n    tag_267:\n        /* \"#utility.yul\":3825:3857   */\n      tag_346\n        /* \"#utility.yul\":3851:3856   */\n      dup2\n        /* \"#utility.yul\":3825:3857   */\n      tag_266\n      jump\t// in\n    tag_346:\n        /* \"#utility.yul\":3818:3823   */\n      dup2\n        /* \"#utility.yul\":3815:3858   */\n      eq\n        /* \"#utility.yul\":3805:3876   */\n      tag_347\n      jumpi\n        /* \"#utility.yul\":3872:3873   */\n      0x00\n        /* \"#utility.yul\":3869:3870   */\n      dup1\n        /* \"#utility.yul\":3862:3874   */\n      revert\n        /* \"#utility.yul\":3805:3876   */\n    tag_347:\n        /* \"#utility.yul\":3744:3882   */\n      pop\n      jump\t// out\n        /* \"#utility.yul\":3888:4043   */\n    tag_268:\n        /* \"#utility.yul\":3942:3947   */\n      0x00\n        /* \"#utility.yul\":3980:3986   */\n      dup2\n        /* \"#utility.yul\":3967:3987   */\n      calldataload\n        /* \"#utility.yul\":3958:3987   */\n      swap1\n      pop\n        /* \"#utility.yul\":3996:4037   */\n      tag_349\n        /* \"#utility.yul\":4031:4036   */\n      dup2\n        /* \"#utility.yul\":3996:4037   */\n      tag_267\n      jump\t// in\n    tag_349:\n        /* \"#utility.yul\":3888:4043   */\n      swap3\n      swap2\n      pop\n      pop\n      jump\t// out\n        /* \"#utility.yul\":4049:4394   */\n    tag_86:\n        /* \"#utility.yul\":4116:4122   */\n      0x00\n        /* \"#utility.yul\":4165:4167   */\n      0x20\n        /* \"#utility.yul\":4153:4162   */\n      dup3\n        /* \"#utility.yul\":4144:4151   */\n      dup5\n        /* \"#utility.yul\":4140:4163   */\n      sub\n        /* \"#utility.yul\":4136:4168   */\n      slt\n        /* \"#utility.yul\":4133:4252   */\n      iszero\n      tag_351\n      jumpi\n        /* \"#utility.yul\":4171:4250   */\n      tag_352\n      tag_257\n      jump\t// in\n    tag_352:\n        /* \"#utility.yul\":4133:4252   */\n    tag_351:\n        /* \"#utility.yul\":4291:4292   */\n      0x00\n        /* \"#utility.yul\":4316:4377   */\n      tag_353\n        /* \"#utility.yul\":4369:4376   */\n      dup5\n        /* \"#utility.yul\":4360:4366   */\n      dup3\n        /* \"#utility.yul\":4349:4358   */\n      dup6\n        /* \"#utility.yul\":4345:4367   */\n      add\n        /* \"#utility.yul\":4316:4377   */\n      tag_268\n      jump\t// in\n    tag_353:\n        /* \"#utility.yul\":4306:4377   */\n      swap2\n      pop\n        /* \"#utility.yul\":4262:4387   */\n      pop\n        /* \"#utility.yul\":4049:4394   */\n      swap3\n      swap2\n      pop\n      pop\n      jump\t// out\n        /* \"#utility.yul\":4400:4542   */\n    tag_269:\n        /* \"#utility.yul\":4503:4535   */\n      tag_355\n        /* \"#utility.yul\":4529:4534   */\n      dup2\n        /* \"#utility.yul\":4503:4535   */\n      tag_266\n      jump\t// in\n    tag_355:\n        /* \"#utility.yul\":4498:4501   */\n      dup3\n        /* \"#utility.yul\":4491:4536   */\n      mstore\n        /* \"#utility.yul\":4400:4542   */\n      pop\n      pop\n      jump\t// out\n        /* \"#utility.yul\":4548:4802   */\n    tag_97:\n        /* \"#utility.yul\":4657:4661   */\n      0x00\n        /* \"#utility.yul\":4695:4697   */\n      0x20\n        /* \"#utility.yul\":4684:4693   */\n      dup3\n        /* \"#utility.yul\":4680:4698   */\n      add\n        /* \"#utility.yul\":4672:4698   */\n      swap1\n      pop\n        /* \"#utility.yul\":4708:4795   */\n      tag_357\n        /* \"#utility.yul\":4792:4793   */\n      0x00\n        /* \"#utility.yul\":4781:4790   */\n      dup4\n        /* \"#utility.yul\":4777:4794   */\n      add\n        /* \"#utility.yul\":4768:4774   */\n      dup5\n        /* \"#utility.yul\":4708:4795   */\n      tag_269\n      jump\t// in\n    tag_357:\n        /* \"#utility.yul\":4548:4802   */\n      swap3\n      swap2\n      pop\n      pop\n      jump\t// out\n        /* \"#utility.yul\":4808:4907   */\n    tag_270:\n        /* \"#utility.yul\":4860:4866   */\n      0x00\n        /* \"#utility.yul\":4894:4899   */\n      dup2\n        /* \"#utility.yul\":4888:4900   */\n      mload\n        /* \"#utility.yul\":4878:4900   */\n      swap1\n      pop\n        /* \"#utility.yul\":4808:4907   */\n      swap2\n      swap1\n      pop\n      jump\t// out\n        /* \"#utility.yul\":4913:5082   */\n    tag_271:\n        /* \"#utility.yul\":4997:5008   */\n      0x00\n        /* \"#utility.yul\":5031:5037   */\n      dup3\n        /* \"#utility.yul\":5026:5029   */\n      dup3\n        /* \"#utility.yul\":5019:5038   */\n      mstore\n        /* \"#utility.yul\":5071:5075   */\n      0x20\n        /* \"#utility.yul\":5066:5069   */\n      dup3\n        /* \"#utility.yul\":5062:5076   */\n      add\n        /* \"#utility.yul\":5047:5076   */\n      swap1\n      pop\n        /* \"#utility.yul\":4913:5082   */\n      swap3\n      swap2\n      pop\n      pop\n      jump\t// out\n        /* \"#utility.yul\":5088:5334   */\n    tag_272:\n        /* \"#utility.yul\":5169:5170   */\n      0x00\n        /* \"#utility.yul\":5179:5292   */\n    tag_361:\n        /* \"#utility.yul\":5193:5199   */\n      dup4\n        /* \"#utility.yul\":5190:5191   */\n      dup2\n        /* \"#utility.yul\":5187:5200   */\n      lt\n        /* \"#utility.yul\":5179:5292   */\n      iszero\n      tag_363\n      jumpi\n        /* \"#utility.yul\":5278:5279   */\n      dup1\n        /* \"#utility.yul\":5273:5276   */\n      dup3\n        /* \"#utility.yul\":5269:5280   */\n      add\n        /* \"#utility.yul\":5263:5281   */\n      mload\n        /* \"#utility.yul\":5259:5260   */\n      dup2\n        /* \"#utility.yul\":5254:5257   */\n      dup5\n        /* \"#utility.yul\":5250:5261   */\n      add\n        /* \"#utility.yul\":5243:5282   */\n      mstore\n        /* \"#utility.yul\":5215:5217   */\n      0x20\n        /* \"#utility.yul\":5212:5213   */\n      dup2\n        /* \"#utility.yul\":5208:5218   */\n      add\n        /* \"#utility.yul\":5203:5218   */\n      swap1\n      pop\n        /* \"#utility.yul\":5179:5292   */\n      jump(tag_361)\n    tag_363:\n        /* \"#utility.yul\":5326:5327   */\n      0x00\n        /* \"#utility.yul\":5317:5323   */\n      dup5\n        /* \"#utility.yul\":5312:5315   */\n      dup5\n        /* \"#utility.yul\":5308:5324   */\n      add\n        /* \"#utility.yul\":5301:5328   */\n      mstore\n        /* \"#utility.yul\":5150:5334   */\n      pop\n        /* \"#utility.yul\":5088:5334   */\n      pop\n      pop\n      pop\n      jump\t// out\n        /* \"#utility.yul\":5340:5442   */\n    tag_273:\n        /* \"#utility.yul\":5381:5387   */\n      0x00\n        /* \"#utility.yul\":5432:5434   */\n      0x1f\n        /* \"#utility.yul\":5428:5435   */\n      not\n        /* \"#utility.yul\":5423:5425   */\n      0x1f\n        /* \"#utility.yul\":5416:5421   */\n      dup4\n        /* \"#utility.yul\":5412:5426   */\n      add\n        /* \"#utility.yul\":5408:5436   */\n      and\n        /* \"#utility.yul\":5398:5436   */\n      swap1\n      pop\n        /* \"#utility.yul\":5340:5442   */\n      swap2\n      swap1\n      pop\n      jump\t// out\n        /* \"#utility.yul\":5448:5825   */\n    tag_274:\n        /* \"#utility.yul\":5536:5539   */\n      0x00\n        /* \"#utility.yul\":5564:5603   */\n      tag_366\n        /* \"#utility.yul\":5597:5602   */\n      dup3\n        /* \"#utility.yul\":5564:5603   */\n      tag_270\n      jump\t// in\n    tag_366:\n        /* \"#utility.yul\":5619:5690   */\n      tag_367\n        /* \"#utility.yul\":5683:5689   */\n      dup2\n        /* \"#utility.yul\":5678:5681   */\n      dup6\n        /* \"#utility.yul\":5619:5690   */\n      tag_271\n      jump\t// in\n    tag_367:\n        /* \"#utility.yul\":5612:5690   */\n      swap4\n      pop\n        /* \"#utility.yul\":5699:5764   */\n      tag_368\n        /* \"#utility.yul\":5757:5763   */\n      dup2\n        /* \"#utility.yul\":5752:5755   */\n      dup6\n        /* \"#utility.yul\":5745:5749   */\n      0x20\n        /* \"#utility.yul\":5738:5743   */\n      dup7\n        /* \"#utility.yul\":5734:5750   */\n      add\n        /* \"#utility.yul\":5699:5764   */\n      tag_272\n      jump\t// in\n    tag_368:\n        /* \"#utility.yul\":5789:5818   */\n      tag_369\n        /* \"#utility.yul\":5811:5817   */\n      dup2\n        /* \"#utility.yul\":5789:5818   */\n      tag_273\n      jump\t// in\n    tag_369:\n        /* \"#utility.yul\":5784:5787   */\n      dup5\n        /* \"#utility.yul\":5780:5819   */\n      add\n        /* \"#utility.yul\":5773:5819   */\n      swap2\n      pop\n        /* \"#utility.yul\":5540:5825   */\n      pop\n        /* \"#utility.yul\":5448:5825   */\n      swap3\n      swap2\n      pop\n      pop\n      jump\t// out\n        /* \"#utility.yul\":5831:6144   */\n    tag_103:\n        /* \"#utility.yul\":5944:5948   */\n      0x00\n        /* \"#utility.yul\":5982:5984   */\n      0x20\n        /* \"#utility.yul\":5971:5980   */\n      dup3\n        /* \"#utility.yul\":5967:5985   */\n      add\n        /* \"#utility.yul\":5959:5985   */\n      swap1\n      pop\n        /* \"#utility.yul\":6031:6040   */\n      dup2\n        /* \"#utility.yul\":6025:6029   */\n      dup2\n        /* \"#utility.yul\":6021:6041   */\n      sub\n        /* \"#utility.yul\":6017:6018   */\n      0x00\n        /* \"#utility.yul\":6006:6015   */\n      dup4\n        /* \"#utility.yul\":6002:6019   */\n      add\n        /* \"#utility.yul\":5995:6042   */\n      mstore\n        /* \"#utility.yul\":6059:6137   */\n      tag_371\n        /* \"#utility.yul\":6132:6136   */\n      dup2\n        /* \"#utility.yul\":6123:6129   */\n      dup5\n        /* \"#utility.yul\":6059:6137   */\n      tag_274\n      jump\t// in\n    tag_371:\n        /* \"#utility.yul\":6051:6137   */\n      swap1\n      pop\n        /* \"#utility.yul\":5831:6144   */\n      swap3\n      swap2\n      pop\n      pop\n      jump\t// out\n        /* \"#utility.yul\":6150:6240   */\n    tag_275:\n        /* \"#utility.yul\":6184:6191   */\n      0x00\n        /* \"#utility.yul\":6227:6232   */\n      dup2\n        /* \"#utility.yul\":6220:6233   */\n      iszero\n        /* \"#utility.yul\":6213:6234   */\n      iszero\n        /* \"#utility.yul\":6202:6234   */\n      swap1\n      pop\n        /* \"#utility.yul\":6150:6240   */\n      swap2\n      swap1\n      pop\n      jump\t// out\n        /* \"#utility.yul\":6246:6355   */\n    tag_276:\n        /* \"#utility.yul\":6327:6348   */\n      tag_374\n        /* \"#utility.yul\":6342:6347   */\n      dup2\n        /* \"#utility.yul\":6327:6348   */\n      tag_275\n      jump\t// in\n    tag_374:\n        /* \"#utility.yul\":6322:6325   */\n      dup3\n        /* \"#utility.yul\":6315:6349   */\n      mstore\n        /* \"#utility.yul\":6246:6355   */\n      pop\n      pop\n      jump\t// out\n        /* \"#utility.yul\":6361:6571   */\n    tag_117:\n        /* \"#utility.yul\":6448:6452   */\n      0x00\n        /* \"#utility.yul\":6486:6488   */\n      0x20\n        /* \"#utility.yul\":6475:6484   */\n      dup3\n        /* \"#utility.yul\":6471:6489   */\n      add\n        /* \"#utility.yul\":6463:6489   */\n      swap1\n      pop\n        /* \"#utility.yul\":6499:6564   */\n      tag_376\n        /* \"#utility.yul\":6561:6562   */\n      0x00\n        /* \"#utility.yul\":6550:6559   */\n      dup4\n        /* \"#utility.yul\":6546:6563   */\n      add\n        /* \"#utility.yul\":6537:6543   */\n      dup5\n        /* \"#utility.yul\":6499:6564   */\n      tag_276\n      jump\t// in\n    tag_376:\n        /* \"#utility.yul\":6361:6571   */\n      swap3\n      swap2\n      pop\n      pop\n      jump\t// out\n        /* \"#utility.yul\":6577:6800   */\n    tag_277:\n        /* \"#utility.yul\":6717:6751   */\n      0x5468697320636f6e74726163742069732063757272656e746c79206469736162\n        /* \"#utility.yul\":6713:6714   */\n      0x00\n        /* \"#utility.yul\":6705:6711   */\n      dup3\n        /* \"#utility.yul\":6701:6715   */\n      add\n        /* \"#utility.yul\":6694:6752   */\n      mstore\n        /* \"#utility.yul\":6786:6792   */\n      0x6c65642e00000000000000000000000000000000000000000000000000000000\n        /* \"#utility.yul\":6781:6783   */\n      0x20\n        /* \"#utility.yul\":6773:6779   */\n      dup3\n        /* \"#utility.yul\":6769:6784   */\n      add\n        /* \"#utility.yul\":6762:6793   */\n      mstore\n        /* \"#utility.yul\":6577:6800   */\n      pop\n      jump\t// out\n        /* \"#utility.yul\":6806:7172   */\n    tag_278:\n        /* \"#utility.yul\":6948:6951   */\n      0x00\n        /* \"#utility.yul\":6969:7036   */\n      tag_379\n        /* \"#utility.yul\":7033:7035   */\n      0x24\n        /* \"#utility.yul\":7028:7031   */\n      dup4\n        /* \"#utility.yul\":6969:7036   */\n      tag_271\n      jump\t// in\n    tag_379:\n        /* \"#utility.yul\":6962:7036   */\n      swap2\n      pop\n        /* \"#utility.yul\":7045:7138   */\n      tag_380\n        /* \"#utility.yul\":7134:7137   */\n      dup3\n        /* \"#utility.yul\":7045:7138   */\n      tag_277\n      jump\t// in\n    tag_380:\n        /* \"#utility.yul\":7163:7165   */\n      0x40\n        /* \"#utility.yul\":7158:7161   */\n      dup3\n        /* \"#utility.yul\":7154:7166   */\n      add\n        /* \"#utility.yul\":7147:7166   */\n      swap1\n      pop\n        /* \"#utility.yul\":6806:7172   */\n      swap2\n      swap1\n      pop\n      jump\t// out\n        /* \"#utility.yul\":7178:7597   */\n    tag_147:\n        /* \"#utility.yul\":7344:7348   */\n      0x00\n        /* \"#utility.yul\":7382:7384   */\n      0x20\n        /* \"#utility.yul\":7371:7380   */\n      dup3\n        /* \"#utility.yul\":7367:7385   */\n      add\n        /* \"#utility.yul\":7359:7385   */\n      swap1\n      pop\n        /* \"#utility.yul\":7431:7440   */\n      dup2\n        /* \"#utility.yul\":7425:7429   */\n      dup2\n        /* \"#utility.yul\":7421:7441   */\n      sub\n        /* \"#utility.yul\":7417:7418   */\n      0x00\n        /* \"#utility.yul\":7406:7415   */\n      dup4\n        /* \"#utility.yul\":7402:7419   */\n      add\n        /* \"#utility.yul\":7395:7442   */\n      mstore\n        /* \"#utility.yul\":7459:7590   */\n      tag_382\n        /* \"#utility.yul\":7585:7589   */\n      dup2\n        /* \"#utility.yul\":7459:7590   */\n      tag_278\n      jump\t// in\n    tag_382:\n        /* \"#utility.yul\":7451:7590   */\n      swap1\n      pop\n        /* \"#utility.yul\":7178:7597   */\n      swap2\n      swap1\n      pop\n      jump\t// out\n        /* \"#utility.yul\":7603:7682   */\n    tag_279:\n        /* \"#utility.yul\":7642:7649   */\n      0x00\n        /* \"#utility.yul\":7671:7676   */\n      dup2\n        /* \"#utility.yul\":7660:7676   */\n      swap1\n      pop\n        /* \"#utility.yul\":7603:7682   */\n      swap2\n      swap1\n      pop\n      jump\t// out\n        /* \"#utility.yul\":7688:7845   */\n    tag_280:\n        /* \"#utility.yul\":7793:7838   */\n      tag_385\n        /* \"#utility.yul\":7813:7837   */\n      tag_386\n        /* \"#utility.yul\":7831:7836   */\n      dup3\n        /* \"#utility.yul\":7813:7837   */\n      tag_253\n      jump\t// in\n    tag_386:\n        /* \"#utility.yul\":7793:7838   */\n      tag_279\n      jump\t// in\n    tag_385:\n        /* \"#utility.yul\":7788:7791   */\n      dup3\n        /* \"#utility.yul\":7781:7839   */\n      mstore\n        /* \"#utility.yul\":7688:7845   */\n      pop\n      pop\n      jump\t// out\n        /* \"#utility.yul\":7851:8248   */\n    tag_152:\n        /* \"#utility.yul\":7991:7994   */\n      0x00\n        /* \"#utility.yul\":8006:8081   */\n      tag_388\n        /* \"#utility.yul\":8077:8080   */\n      dup3\n        /* \"#utility.yul\":8068:8074   */\n      dup6\n        /* \"#utility.yul\":8006:8081   */\n      tag_280\n      jump\t// in\n    tag_388:\n        /* \"#utility.yul\":8106:8108   */\n      0x20\n        /* \"#utility.yul\":8101:8104   */\n      dup3\n        /* \"#utility.yul\":8097:8109   */\n      add\n        /* \"#utility.yul\":8090:8109   */\n      swap2\n      pop\n        /* \"#utility.yul\":8119:8194   */\n      tag_389\n        /* \"#utility.yul\":8190:8193   */\n      dup3\n        /* \"#utility.yul\":8181:8187   */\n      dup5\n        /* \"#utility.yul\":8119:8194   */\n      tag_280\n      jump\t// in\n    tag_389:\n        /* \"#utility.yul\":8219:8221   */\n      0x20\n        /* \"#utility.yul\":8214:8217   */\n      dup3\n        /* \"#utility.yul\":8210:8222   */\n      add\n        /* \"#utility.yul\":8203:8222   */\n      swap2\n      pop\n        /* \"#utility.yul\":8239:8242   */\n      dup2\n        /* \"#utility.yul\":8232:8242   */\n      swap1\n      pop\n        /* \"#utility.yul\":7851:8248   */\n      swap4\n      swap3\n      pop\n      pop\n      pop\n      jump\t// out\n        /* \"#utility.yul\":8254:8430   */\n    tag_154:\n        /* \"#utility.yul\":8286:8287   */\n      0x00\n        /* \"#utility.yul\":8303:8323   */\n      tag_391\n        /* \"#utility.yul\":8321:8322   */\n      dup3\n        /* \"#utility.yul\":8303:8323   */\n      tag_253\n      jump\t// in\n    tag_391:\n        /* \"#utility.yul\":8298:8323   */\n      swap2\n      pop\n        /* \"#utility.yul\":8337:8357   */\n      tag_392\n        /* \"#utility.yul\":8355:8356   */\n      dup4\n        /* \"#utility.yul\":8337:8357   */\n      tag_253\n      jump\t// in\n    tag_392:\n        /* \"#utility.yul\":8332:8357   */\n      swap3\n      pop\n        /* \"#utility.yul\":8376:8377   */\n      dup3\n        /* \"#utility.yul\":8366:8401   */\n      tag_393\n      jumpi\n        /* \"#utility.yul\":8381:8399   */\n      tag_394\n      tag_255\n      jump\t// in\n    tag_394:\n        /* \"#utility.yul\":8366:8401   */\n    tag_393:\n        /* \"#utility.yul\":8422:8423   */\n      dup3\n        /* \"#utility.yul\":8419:8420   */\n      dup3\n        /* \"#utility.yul\":8415:8424   */\n      mod\n        /* \"#utility.yul\":8410:8424   */\n      swap1\n      pop\n        /* \"#utility.yul\":8254:8430   */\n      swap3\n      swap2\n      pop\n      pop\n      jump\t// out\n        /* \"#utility.yul\":8436:8630   */\n    tag_163:\n        /* \"#utility.yul\":8476:8480   */\n      0x00\n        /* \"#utility.yul\":8496:8516   */\n      tag_396\n        /* \"#utility.yul\":8514:8515   */\n      dup3\n        /* \"#utility.yul\":8496:8516   */\n      tag_253\n      jump\t// in\n    tag_396:\n        /* \"#utility.yul\":8491:8516   */\n      swap2\n      pop\n        /* \"#utility.yul\":8530:8550   */\n      tag_397\n        /* \"#utility.yul\":8548:8549   */\n      dup4\n        /* \"#utility.yul\":8530:8550   */\n      tag_253\n      jump\t// in\n    tag_397:\n        /* \"#utility.yul\":8525:8550   */\n      swap3\n      pop\n        /* \"#utility.yul\":8574:8575   */\n      dup3\n        /* \"#utility.yul\":8571:8572   */\n      dup3\n        /* \"#utility.yul\":8567:8576   */\n      sub\n        /* \"#utility.yul\":8559:8576   */\n      swap1\n      pop\n        /* \"#utility.yul\":8598:8599   */\n      dup2\n        /* \"#utility.yul\":8592:8596   */\n      dup2\n        /* \"#utility.yul\":8589:8600   */\n      gt\n        /* \"#utility.yul\":8586:8623   */\n      iszero\n      tag_398\n      jumpi\n        /* \"#utility.yul\":8603:8621   */\n      tag_399\n      tag_254\n      jump\t// in\n    tag_399:\n        /* \"#utility.yul\":8586:8623   */\n    tag_398:\n        /* \"#utility.yul\":8436:8630   */\n      swap3\n      swap2\n      pop\n      pop\n      jump\t// out\n        /* \"#utility.yul\":8636:8816   */\n    tag_173:\n        /* \"#utility.yul\":8684:8761   */\n      0x4e487b7100000000000000000000000000000000000000000000000000000000\n        /* \"#utility.yul\":8681:8682   */\n      0x00\n        /* \"#utility.yul\":8674:8762   */\n      mstore\n        /* \"#utility.yul\":8781:8785   */\n      0x01\n        /* \"#utility.yul\":8778:8779   */\n      0x04\n        /* \"#utility.yul\":8771:8786   */\n      mstore\n        /* \"#utility.yul\":8805:8809   */\n      0x24\n        /* \"#utility.yul\":8802:8803   */\n      0x00\n        /* \"#utility.yul\":8795:8810   */\n      revert\n        /* \"#utility.yul\":8822:8924   */\n    tag_281:\n        /* \"#utility.yul\":8864:8872   */\n      0x00\n        /* \"#utility.yul\":8911:8916   */\n      dup2\n        /* \"#utility.yul\":8908:8909   */\n      0x01\n        /* \"#utility.yul\":8904:8917   */\n      shr\n        /* \"#utility.yul\":8883:8917   */\n      swap1\n      pop\n        /* \"#utility.yul\":8822:8924   */\n      swap2\n      swap1\n      pop\n      jump\t// out\n        /* \"#utility.yul\":8930:9778   */\n    tag_282:\n        /* \"#utility.yul\":8991:8996   */\n      0x00\n        /* \"#utility.yul\":8998:9002   */\n      dup1\n        /* \"#utility.yul\":9022:9028   */\n      dup3\n        /* \"#utility.yul\":9013:9028   */\n      swap2\n      pop\n        /* \"#utility.yul\":9046:9051   */\n      dup4\n        /* \"#utility.yul\":9037:9051   */\n      swap1\n      pop\n        /* \"#utility.yul\":9060:9772   */\n    tag_403:\n        /* \"#utility.yul\":9081:9082   */\n      0x01\n        /* \"#utility.yul\":9071:9079   */\n      dup6\n        /* \"#utility.yul\":9068:9083   */\n      gt\n        /* \"#utility.yul\":9060:9772   */\n      iszero\n      tag_405\n      jumpi\n        /* \"#utility.yul\":9176:9180   */\n      dup1\n        /* \"#utility.yul\":9171:9174   */\n      dup7\n        /* \"#utility.yul\":9167:9181   */\n      div\n        /* \"#utility.yul\":9161:9165   */\n      dup2\n        /* \"#utility.yul\":9158:9182   */\n      gt\n        /* \"#utility.yul\":9155:9205   */\n      iszero\n      tag_406\n      jumpi\n        /* \"#utility.yul\":9185:9203   */\n      tag_407\n      tag_254\n      jump\t// in\n    tag_407:\n        /* \"#utility.yul\":9155:9205   */\n    tag_406:\n        /* \"#utility.yul\":9235:9236   */\n      0x01\n        /* \"#utility.yul\":9225:9233   */\n      dup6\n        /* \"#utility.yul\":9221:9237   */\n      and\n        /* \"#utility.yul\":9218:9669   */\n      iszero\n      tag_408\n      jumpi\n        /* \"#utility.yul\":9650:9654   */\n      dup1\n        /* \"#utility.yul\":9643:9648   */\n      dup3\n        /* \"#utility.yul\":9639:9655   */\n      mul\n        /* \"#utility.yul\":9630:9655   */\n      swap2\n      pop\n        /* \"#utility.yul\":9218:9669   */\n    tag_408:\n        /* \"#utility.yul\":9700:9704   */\n      dup1\n        /* \"#utility.yul\":9694:9698   */\n      dup2\n        /* \"#utility.yul\":9690:9705   */\n      mul\n        /* \"#utility.yul\":9682:9705   */\n      swap1\n      pop\n        /* \"#utility.yul\":9730:9762   */\n      tag_409\n        /* \"#utility.yul\":9753:9761   */\n      dup6\n        /* \"#utility.yul\":9730:9762   */\n      tag_281\n      jump\t// in\n    tag_409:\n        /* \"#utility.yul\":9718:9762   */\n      swap5\n      pop\n        /* \"#utility.yul\":9060:9772   */\n      jump(tag_403)\n    tag_405:\n        /* \"#utility.yul\":8930:9778   */\n      swap5\n      pop\n      swap5\n      swap3\n      pop\n      pop\n      pop\n      jump\t// out\n        /* \"#utility.yul\":9784:10857   */\n    tag_283:\n        /* \"#utility.yul\":9838:9843   */\n      0x00\n        /* \"#utility.yul\":10029:10037   */\n      dup3\n        /* \"#utility.yul\":10019:10059   */\n      tag_411\n      jumpi\n        /* \"#utility.yul\":10050:10051   */\n      0x01\n        /* \"#utility.yul\":10041:10051   */\n      swap1\n      pop\n        /* \"#utility.yul\":10052:10057   */\n      jump(tag_410)\n        /* \"#utility.yul\":10019:10059   */\n    tag_411:\n        /* \"#utility.yul\":10078:10082   */\n      dup2\n        /* \"#utility.yul\":10068:10104   */\n      tag_412\n      jumpi\n        /* \"#utility.yul\":10095:10096   */\n      0x00\n        /* \"#utility.yul\":10086:10096   */\n      swap1\n      pop\n        /* \"#utility.yul\":10097:10102   */\n      jump(tag_410)\n        /* \"#utility.yul\":10068:10104   */\n    tag_412:\n        /* \"#utility.yul\":10164:10168   */\n      dup2\n        /* \"#utility.yul\":10212:10213   */\n      0x01\n        /* \"#utility.yul\":10207:10234   */\n      dup2\n      eq\n      tag_414\n      jumpi\n        /* \"#utility.yul\":10248:10249   */\n      0x02\n        /* \"#utility.yul\":10243:10434   */\n      dup2\n      eq\n      tag_415\n      jumpi\n        /* \"#utility.yul\":10157:10434   */\n      jump(tag_413)\n        /* \"#utility.yul\":10207:10234   */\n    tag_414:\n        /* \"#utility.yul\":10225:10226   */\n      0x01\n        /* \"#utility.yul\":10216:10226   */\n      swap2\n      pop\n        /* \"#utility.yul\":10227:10232   */\n      pop\n      jump(tag_410)\n        /* \"#utility.yul\":10243:10434   */\n    tag_415:\n        /* \"#utility.yul\":10288:10291   */\n      0xff\n        /* \"#utility.yul\":10278:10286   */\n      dup5\n        /* \"#utility.yul\":10275:10292   */\n      gt\n        /* \"#utility.yul\":10272:10315   */\n      iszero\n      tag_416\n      jumpi\n        /* \"#utility.yul\":10295:10313   */\n      tag_417\n      tag_254\n      jump\t// in\n    tag_417:\n        /* \"#utility.yul\":10272:10315   */\n    tag_416:\n        /* \"#utility.yul\":10344:10352   */\n      dup4\n        /* \"#utility.yul\":10341:10342   */\n      0x02\n        /* \"#utility.yul\":10337:10353   */\n      exp\n        /* \"#utility.yul\":10328:10353   */\n      swap2\n      pop\n        /* \"#utility.yul\":10379:10382   */\n      dup5\n        /* \"#utility.yul\":10372:10377   */\n      dup3\n        /* \"#utility.yul\":10369:10383   */\n      gt\n        /* \"#utility.yul\":10366:10406   */\n      iszero\n      tag_418\n      jumpi\n        /* \"#utility.yul\":10386:10404   */\n      tag_419\n      tag_254\n      jump\t// in\n    tag_419:\n        /* \"#utility.yul\":10366:10406   */\n    tag_418:\n        /* \"#utility.yul\":10419:10424   */\n      pop\n      jump(tag_410)\n        /* \"#utility.yul\":10157:10434   */\n    tag_413:\n      pop\n        /* \"#utility.yul\":10543:10545   */\n      0x20\n        /* \"#utility.yul\":10533:10541   */\n      dup4\n        /* \"#utility.yul\":10530:10546   */\n      lt\n        /* \"#utility.yul\":10524:10527   */\n      0x0133\n        /* \"#utility.yul\":10518:10522   */\n      dup4\n        /* \"#utility.yul\":10515:10528   */\n      lt\n        /* \"#utility.yul\":10511:10547   */\n      and\n        /* \"#utility.yul\":10493:10495   */\n      0x4e\n        /* \"#utility.yul\":10483:10491   */\n      dup5\n        /* \"#utility.yul\":10480:10496   */\n      lt\n        /* \"#utility.yul\":10475:10477   */\n      0x0b\n        /* \"#utility.yul\":10469:10473   */\n      dup5\n        /* \"#utility.yul\":10466:10478   */\n      lt\n        /* \"#utility.yul\":10462:10497   */\n      and\n        /* \"#utility.yul\":10446:10557   */\n      or\n        /* \"#utility.yul\":10443:10689   */\n      iszero\n      tag_420\n      jumpi\n        /* \"#utility.yul\":10599:10607   */\n      dup3\n        /* \"#utility.yul\":10593:10597   */\n      dup3\n        /* \"#utility.yul\":10589:10608   */\n      exp\n        /* \"#utility.yul\":10580:10608   */\n      swap1\n      pop\n        /* \"#utility.yul\":10634:10637   */\n      dup4\n        /* \"#utility.yul\":10627:10632   */\n      dup2\n        /* \"#utility.yul\":10624:10638   */\n      gt\n        /* \"#utility.yul\":10621:10661   */\n      iszero\n      tag_421\n      jumpi\n        /* \"#utility.yul\":10641:10659   */\n      tag_422\n      tag_254\n      jump\t// in\n    tag_422:\n        /* \"#utility.yul\":10621:10661   */\n    tag_421:\n        /* \"#utility.yul\":10674:10679   */\n      jump(tag_410)\n        /* \"#utility.yul\":10443:10689   */\n    tag_420:\n        /* \"#utility.yul\":10714:10756   */\n      tag_423\n        /* \"#utility.yul\":10752:10755   */\n      dup5\n        /* \"#utility.yul\":10742:10750   */\n      dup5\n        /* \"#utility.yul\":10736:10740   */\n      dup5\n        /* \"#utility.yul\":10733:10734   */\n      0x01\n        /* \"#utility.yul\":10714:10756   */\n      tag_282\n      jump\t// in\n    tag_423:\n        /* \"#utility.yul\":10699:10756   */\n      swap3\n      pop\n      swap1\n      pop\n        /* \"#utility.yul\":10788:10792   */\n      dup2\n        /* \"#utility.yul\":10783:10786   */\n      dup5\n        /* \"#utility.yul\":10779:10793   */\n      div\n        /* \"#utility.yul\":10772:10777   */\n      dup2\n        /* \"#utility.yul\":10769:10794   */\n      gt\n        /* \"#utility.yul\":10766:10817   */\n      iszero\n      tag_424\n      jumpi\n        /* \"#utility.yul\":10797:10815   */\n      tag_425\n      tag_254\n      jump\t// in\n    tag_425:\n        /* \"#utility.yul\":10766:10817   */\n    tag_424:\n        /* \"#utility.yul\":10846:10850   */\n      dup2\n        /* \"#utility.yul\":10839:10844   */\n      dup2\n        /* \"#utility.yul\":10835:10851   */\n      mul\n        /* \"#utility.yul\":10826:10851   */\n      swap1\n      pop\n        /* \"#utility.yul\":9784:10857   */\n    tag_410:\n      swap4\n      swap3\n      pop\n      pop\n      pop\n      jump\t// out\n        /* \"#utility.yul\":10863:11148   */\n    tag_199:\n        /* \"#utility.yul\":10923:10928   */\n      0x00\n        /* \"#utility.yul\":10947:10970   */\n      tag_427\n        /* \"#utility.yul\":10965:10969   */\n      dup3\n        /* \"#utility.yul\":10947:10970   */\n      tag_253\n      jump\t// in\n    tag_427:\n        /* \"#utility.yul\":10939:10970   */\n      swap2\n      pop\n        /* \"#utility.yul\":10991:11018   */\n      tag_428\n        /* \"#utility.yul\":11009:11017   */\n      dup4\n        /* \"#utility.yul\":10991:11018   */\n      tag_253\n      jump\t// in\n    tag_428:\n        /* \"#utility.yul\":10979:11018   */\n      swap3\n      pop\n        /* \"#utility.yul\":11037:11141   */\n      tag_429\n        /* \"#utility.yul\":11074:11140   */\n      0xffffffffffffffffffffffffffffffffffffffffffffffffffffffffffffffff\n        /* \"#utility.yul\":11064:11072   */\n      dup5\n        /* \"#utility.yul\":11058:11062   */\n      dup5\n        /* \"#utility.yul\":11037:11141   */\n      tag_283\n      jump\t// in\n    tag_429:\n        /* \"#utility.yul\":11028:11141   */\n      swap1\n      pop\n        /* \"#utility.yul\":10863:11148   */\n      swap3\n      swap2\n      pop\n      pop\n      jump\t// out\n        /* \"#utility.yul\":11154:11302   */\n    tag_284:\n        /* \"#utility.yul\":11256:11267   */\n      0x00\n        /* \"#utility.yul\":11293:11296   */\n      dup2\n        /* \"#utility.yul\":11278:11296   */\n      swap1\n      pop\n        /* \"#utility.yul\":11154:11302   */\n      swap3\n      swap2\n      pop\n      pop\n      jump\t// out\n        /* \"#utility.yul\":11308:11698   */\n    tag_285:\n        /* \"#utility.yul\":11414:11417   */\n      0x00\n        /* \"#utility.yul\":11442:11481   */\n      tag_432\n        /* \"#utility.yul\":11475:11480   */\n      dup3\n        /* \"#utility.yul\":11442:11481   */\n      tag_270\n      jump\t// in\n    tag_432:\n        /* \"#utility.yul\":11497:11586   */\n      tag_433\n        /* \"#utility.yul\":11579:11585   */\n      dup2\n        /* \"#utility.yul\":11574:11577   */\n      dup6\n        /* \"#utility.yul\":11497:11586   */\n      tag_284\n      jump\t// in\n    tag_433:\n        /* \"#utility.yul\":11490:11586   */\n      swap4\n      pop\n        /* \"#utility.yul\":11595:11660   */\n      tag_434\n        /* \"#utility.yul\":11653:11659   */\n      dup2\n        /* \"#utility.yul\":11648:11651   */\n      dup6\n        /* \"#utility.yul\":11641:11645   */\n      0x20\n        /* \"#utility.yul\":11634:11639   */\n      dup7\n        /* \"#utility.yul\":11630:11646   */\n      add\n        /* \"#utility.yul\":11595:11660   */\n      tag_272\n      jump\t// in\n    tag_434:\n        /* \"#utility.yul\":11685:11691   */\n      dup1\n        /* \"#utility.yul\":11680:11683   */\n      dup5\n        /* \"#utility.yul\":11676:11692   */\n      add\n        /* \"#utility.yul\":11669:11692   */\n      swap2\n      pop\n        /* \"#utility.yul\":11418:11698   */\n      pop\n        /* \"#utility.yul\":11308:11698   */\n      swap3\n      swap2\n      pop\n      pop\n      jump\t// out\n        /* \"#utility.yul\":11704:11882   */\n    tag_286:\n        /* \"#utility.yul\":11872:11875   */\n      0x2e00000000000000000000000000000000000000000000000000000000000000\n        /* \"#utility.yul\":11867:11870   */\n      dup2\n        /* \"#utility.yul\":11860:11876   */\n      mstore\n        /* \"#utility.yul\":11704:11882   */\n      pop\n      jump\t// out\n        /* \"#utility.yul\":11888:12066   */\n    tag_287:\n        /* \"#utility.yul\":12056:12059   */\n      0x2500000000000000000000000000000000000000000000000000000000000000\n        /* \"#utility.yul\":12051:12054   */\n      dup2\n        /* \"#utility.yul\":12044:12060   */\n      mstore\n        /* \"#utility.yul\":11888:12066   */\n      pop\n      jump\t// out\n        /* \"#utility.yul\":12072:13035   */\n    tag_207:\n        /* \"#utility.yul\":12432:12435   */\n      0x00\n        /* \"#utility.yul\":12454:12549   */\n      tag_438\n        /* \"#utility.yul\":12545:12548   */\n      dup3\n        /* \"#utility.yul\":12536:12542   */\n      dup6\n        /* \"#utility.yul\":12454:12549   */\n      tag_285\n      jump\t// in\n    tag_438:\n        /* \"#utility.yul\":12447:12549   */\n      swap2\n      pop\n        /* \"#utility.yul\":12559:12696   */\n      tag_439\n        /* \"#utility.yul\":12692:12695   */\n      dup3\n        /* \"#utility.yul\":12559:12696   */\n      tag_286\n      jump\t// in\n    tag_439:\n        /* \"#utility.yul\":12721:12722   */\n      0x01\n        /* \"#utility.yul\":12716:12719   */\n      dup3\n        /* \"#utility.yul\":12712:12723   */\n      add\n        /* \"#utility.yul\":12705:12723   */\n      swap2\n      pop\n        /* \"#utility.yul\":12740:12835   */\n      tag_440\n        /* \"#utility.yul\":12831:12834   */\n      dup3\n        /* \"#utility.yul\":12822:12828   */\n      dup5\n        /* \"#utility.yul\":12740:12835   */\n      tag_285\n      jump\t// in\n    tag_440:\n        /* \"#utility.yul\":12733:12835   */\n      swap2\n      pop\n        /* \"#utility.yul\":12845:12982   */\n      tag_441\n        /* \"#utility.yul\":12978:12981   */\n      dup3\n        /* \"#utility.yul\":12845:12982   */\n      tag_287\n      jump\t// in\n    tag_441:\n        /* \"#utility.yul\":13007:13008   */\n      0x01\n        /* \"#utility.yul\":13002:13005   */\n      dup3\n        /* \"#utility.yul\":12998:13009   */\n      add\n        /* \"#utility.yul\":12991:13009   */\n      swap2\n      pop\n        /* \"#utility.yul\":13026:13029   */\n      dup2\n        /* \"#utility.yul\":13019:13029   */\n      swap1\n      pop\n        /* \"#utility.yul\":12072:13035   */\n      swap4\n      swap3\n      pop\n      pop\n      pop\n      jump\t// out\n        /* \"#utility.yul\":13041:13230   */\n    tag_288:\n        /* \"#utility.yul\":13210:13223   */\n      0x54686520616d6f756e7420000000000000000000000000000000000000000000\n        /* \"#utility.yul\":13205:13208   */\n      dup2\n        /* \"#utility.yul\":13198:13224   */\n      mstore\n        /* \"#utility.yul\":13041:13230   */\n      pop\n      jump\t// out\n        /* \"#utility.yul\":13236:13461   */\n    tag_289:\n        /* \"#utility.yul\":13376:13410   */\n      0x2069732067726561746572207468616e2074686520636f6e7472616374206261\n        /* \"#utility.yul\":13372:13373   */\n      0x00\n        /* \"#utility.yul\":13364:13370   */\n      dup3\n        /* \"#utility.yul\":13360:13374   */\n      add\n        /* \"#utility.yul\":13353:13411   */\n      mstore\n        /* \"#utility.yul\":13445:13453   */\n      0x6c616e6365200000000000000000000000000000000000000000000000000000\n        /* \"#utility.yul\":13440:13442   */\n      0x20\n        /* \"#utility.yul\":13432:13438   */\n      dup3\n        /* \"#utility.yul\":13428:13443   */\n      add\n        /* \"#utility.yul\":13421:13454   */\n      mstore\n        /* \"#utility.yul\":13236:13461   */\n      pop\n      jump\t// out\n        /* \"#utility.yul\":13467:13869   */\n    tag_290:\n        /* \"#utility.yul\":13627:13630   */\n      0x00\n        /* \"#utility.yul\":13648:13733   */\n      tag_445\n        /* \"#utility.yul\":13730:13732   */\n      0x26\n        /* \"#utility.yul\":13725:13728   */\n      dup4\n        /* \"#utility.yul\":13648:13733   */\n      tag_284\n      jump\t// in\n    tag_445:\n        /* \"#utility.yul\":13641:13733   */\n      swap2\n      pop\n        /* \"#utility.yul\":13742:13835   */\n      tag_446\n        /* \"#utility.yul\":13831:13834   */\n      dup3\n        /* \"#utility.yul\":13742:13835   */\n      tag_289\n      jump\t// in\n    tag_446:\n        /* \"#utility.yul\":13860:13862   */\n      0x26\n        /* \"#utility.yul\":13855:13858   */\n      dup3\n        /* \"#utility.yul\":13851:13863   */\n      add\n        /* \"#utility.yul\":13844:13863   */\n      swap1\n      pop\n        /* \"#utility.yul\":13467:13869   */\n      swap2\n      swap1\n      pop\n      jump\t// out\n        /* \"#utility.yul\":13875:14843   */\n    tag_215:\n        /* \"#utility.yul\":14247:14250   */\n      0x00\n        /* \"#utility.yul\":14262:14400   */\n      tag_448\n        /* \"#utility.yul\":14396:14399   */\n      dup3\n        /* \"#utility.yul\":14262:14400   */\n      tag_288\n      jump\t// in\n    tag_448:\n        /* \"#utility.yul\":14425:14427   */\n      0x0b\n        /* \"#utility.yul\":14420:14423   */\n      dup3\n        /* \"#utility.yul\":14416:14428   */\n      add\n        /* \"#utility.yul\":14409:14428   */\n      swap2\n      pop\n        /* \"#utility.yul\":14445:14540   */\n      tag_449\n        /* \"#utility.yul\":14536:14539   */\n      dup3\n        /* \"#utility.yul\":14527:14533   */\n      dup6\n        /* \"#utility.yul\":14445:14540   */\n      tag_285\n      jump\t// in\n    tag_449:\n        /* \"#utility.yul\":14438:14540   */\n      swap2\n      pop\n        /* \"#utility.yul\":14557:14705   */\n      tag_450\n        /* \"#utility.yul\":14701:14704   */\n      dup3\n        /* \"#utility.yul\":14557:14705   */\n      tag_290\n      jump\t// in\n    tag_450:\n        /* \"#utility.yul\":14550:14705   */\n      swap2\n      pop\n        /* \"#utility.yul\":14722:14817   */\n      tag_451\n        /* \"#utility.yul\":14813:14816   */\n      dup3\n        /* \"#utility.yul\":14804:14810   */\n      dup5\n        /* \"#utility.yul\":14722:14817   */\n      tag_285\n      jump\t// in\n    tag_451:\n        /* \"#utility.yul\":14715:14817   */\n      swap2\n      pop\n        /* \"#utility.yul\":14834:14837   */\n      dup2\n        /* \"#utility.yul\":14827:14837   */\n      swap1\n      pop\n        /* \"#utility.yul\":13875:14843   */\n      swap4\n      swap3\n      pop\n      pop\n      pop\n      jump\t// out\n        /* \"#utility.yul\":14849:15029   */\n    tag_242:\n        /* \"#utility.yul\":14897:14974   */\n      0x4e487b7100000000000000000000000000000000000000000000000000000000\n        /* \"#utility.yul\":14894:14895   */\n      0x00\n        /* \"#utility.yul\":14887:14975   */\n      mstore\n        /* \"#utility.yul\":14994:14998   */\n      0x41\n        /* \"#utility.yul\":14991:14992   */\n      0x04\n        /* \"#utility.yul\":14984:14999   */\n      mstore\n        /* \"#utility.yul\":15018:15022   */\n      0x24\n        /* \"#utility.yul\":15015:15016   */\n      0x00\n        /* \"#utility.yul\":15008:15023   */\n      revert\n        /* \"#utility.yul\":15035:15215   */\n    tag_251:\n        /* \"#utility.yul\":15083:15160   */\n      0x4e487b7100000000000000000000000000000000000000000000000000000000\n        /* \"#utility.yul\":15080:15081   */\n      0x00\n        /* \"#utility.yul\":15073:15161   */\n      mstore\n        /* \"#utility.yul\":15180:15184   */\n      0x32\n        /* \"#utility.yul\":15177:15178   */\n      0x04\n        /* \"#utility.yul\":15170:15185   */\n      mstore\n        /* \"#utility.yul\":15204:15208   */\n      0x24\n        /* \"#utility.yul\":15201:15202   */\n      0x00\n        /* \"#utility.yul\":15194:15209   */\n      revert\n\n    auxdata: 0xa2646970667358221220b3bb16455cc930df795934388e790623947eb48292c113950db8877e179cb40164736f6c63430008110033\n}\n",
				"bytecode": {
					"linkReferences": {},
					"object": "60806040526305f5e10060055560016000806101000a81548160ff02191690831515021790555061177b806100356000396000f3fe6080604052600436106101435760003560e01c80637f798243116100b657806397d471131161006f57806397d471131461059d578063c68298e9146105a7578063d1cdb323146105d2578063dd11247e146105fd578063e0cb8a8114610628578063f0d5c53414610653576102d8565b80637f7982431461047b57806380eaad30146104a6578063894ba833146104e35780638a5ef8c6146104fa578063912a90bb14610537578063944b3fe514610574576102d8565b8063367edd3211610108578063367edd32146103a35780633b4ad0e5146103ba578063605e16ec146103d15780636f9fb98a146103e85780637363ef8a146104135780637c623f7b14610450576102d8565b80628b8d89146102dd57806312845966146102e75780631593a8c7146103245780631e462c2c1461033b5780632a41a97514610378576102d8565b366102d8576000339050600034905073ab8483f64d9c6d1ecf9b849ae677dd3315835cb273ffffffffffffffffffffffffffffffffffffffff168273ffffffffffffffffffffffffffffffffffffffff16036101b75780600160008282546101ab9190610ea8565b925050819055506102d6565b6101bf61067e565b6000600554826101cf9190610f0b565b9050600554816101df9190610f3c565b600260008282546101f09190610ea8565b9250508190555080600760008573ffffffffffffffffffffffffffffffffffffffff1673ffffffffffffffffffffffffffffffffffffffff16815260200190815260200160002060008282546102469190610ea8565b9250508190555060005b818110156102d35783600660006004600081548092919061027090610f7e565b91905055815260200190815260200160002060006101000a81548173ffffffffffffffffffffffffffffffffffffffff021916908373ffffffffffffffffffffffffffffffffffffffff16021790555080806102cb90610f7e565b915050610250565b50505b005b600080fd5b6102e56106cd565b005b3480156102f357600080fd5b5061030e60048036038101906103099190610ff7565b6106e8565b60405161031b9190611033565b60405180910390f35b34801561033057600080fd5b5061033961072d565b005b34801561034757600080fd5b50610362600480360381019061035d91906110ac565b610864565b60405161036f9190611033565b60405180910390f35b34801561038457600080fd5b5061038d61087c565b60405161039a9190611033565b60405180910390f35b3480156103af57600080fd5b506103b86108bc565b005b3480156103c657600080fd5b506103cf61067e565b005b3480156103dd57600080fd5b506103e66108d8565b005b3480156103f457600080fd5b506103fd610944565b60405161040a9190611033565b60405180910390f35b34801561041f57600080fd5b5061043a60048036038101906104359190611117565b61094c565b6040516104479190611033565b60405180910390f35b34801561045c57600080fd5b50610465610995565b6040516104729190611033565b60405180910390f35b34801561048757600080fd5b5061049061099f565b60405161049d9190611153565b60405180910390f35b3480156104b257600080fd5b506104cd60048036038101906104c89190611117565b610a14565b6040516104da91906111fe565b60405180910390f35b3480156104ef57600080fd5b506104f8610aee565b005b34801561050657600080fd5b50610521600480360381019061051c9190610ff7565b610b0a565b60405161052e9190611153565b60405180910390f35b34801561054357600080fd5b5061055e60048036038101906105599190611117565b610b3d565b60405161056b919061123b565b60405180910390f35b34801561058057600080fd5b5061059b60048036038101906105969190610ff7565b610b88565b005b6105a5610c96565b005b3480156105b357600080fd5b506105bc610cb1565b6040516105c99190611033565b60405180910390f35b3480156105de57600080fd5b506105e7610ccd565b6040516105f49190611033565b60405180910390f35b34801561060957600080fd5b50610612610cf1565b60405161061f9190611033565b60405180910390f35b34801561063457600080fd5b5061063d610cfb565b60405161064a9190611033565b60405180910390f35b34801561065f57600080fd5b50610668610d05565b6040516106759190611033565b60405180910390f35b60008054906101000a900460ff166106cb576040517f08c379a00000000000000000000000000000000000000000000000000000000081526004016106c2906112c8565b60405180910390fd5b565b34600160008282546106df9190610ea8565b92505081905550565b60008044426040516020016106fe929190611309565b6040516020818303038152906040528051906020012060001c905082816107259190611335565b915050919050565b600061073761099f565b9050600073ffffffffffffffffffffffffffffffffffffffff168173ffffffffffffffffffffffffffffffffffffffff1603156108615760006064600a6002546107819190610f3c565b61078b9190610f0b565b90506000816002546003546107a09190610ea8565b6107aa9190611366565b90506000600281905550600060038190555073ab8483f64d9c6d1ecf9b849ae677dd3315835cb273ffffffffffffffffffffffffffffffffffffffff166108fc839081150290604051600060405180830381858888f19350505050158015610816573d6000803e3d6000fd5b508273ffffffffffffffffffffffffffffffffffffffff166108fc829081150290604051600060405180830381858888f1935050505015801561085d573d6000803e3d6000fd5b5050505b50565b60076020528060005260406000206000915090505481565b6000610886610ccd565b61088e610944565b101561089d5761089c61139a565b5b6108a5610ccd565b6108ad610944565b6108b79190611366565b905090565b60016000806101000a81548160ff021916908315150217905550565b600060018190555073ab8483f64d9c6d1ecf9b849ae677dd3315835cb273ffffffffffffffffffffffffffffffffffffffff166108fc610916610cb1565b9081150290604051600060405180830381858888f19350505050158015610941573d6000803e3d6000fd5b50565b600047905090565b6000600760008373ffffffffffffffffffffffffffffffffffffffff1673ffffffffffffffffffffffffffffffffffffffff168152602001908152602001600020549050919050565b6000600254905090565b600080600454905060008082036109bb57600092505050610a11565b600182036109cc57600090506109d8565b6109d5826106e8565b90505b6006600082815260200190815260200160002060009054906101000a900473ffffffffffffffffffffffffffffffffffffffff16925050505b90565b60606000610a20610cf1565b03610a3c57604051806020016040528060008152509050610ae9565b60006004905060006064610a4f8561094c565b610a599190610f3c565b90506000610a65610cf1565b905060008183610a759190610f0b565b9050600084600a610a8691906114fc565b8385610a929190611335565b610a9c9190610f3c565b905060008382610aac9190610f0b565b9050610ab783610d0f565b610ac082610d0f565b604051602001610ad19291906115cf565b60405160208183030381529060405296505050505050505b919050565b60008060006101000a81548160ff021916908315150217905550565b60066020528060005260406000206000915054906101000a900473ffffffffffffffffffffffffffffffffffffffff1681565b600080600760008473ffffffffffffffffffffffffffffffffffffffff1673ffffffffffffffffffffffffffffffffffffffff16815260200190815260200160002054119050919050565b6000610b92610cb1565b905080821115610ba183610d0f565b610baa83610d0f565b604051602001610bbb9291906116a9565b60405160208183030381529060405290610c0b576040517f08c379a0000000000000000000000000000000000000000000000000000000008152600401610c0291906111fe565b60405180910390fd5b50610c1461087c565b82610c1f9190611366565b60016000828254610c309190611366565b9250508190555073ab8483f64d9c6d1ecf9b849ae677dd3315835cb273ffffffffffffffffffffffffffffffffffffffff166108fc839081150290604051600060405180830381858888f19350505050158015610c91573d6000803e3d6000fd5b505050565b3460036000828254610ca89190610ea8565b92505081905550565b6000610cbb61087c565b600154610cc89190610ea8565b905090565b6000600354600254600154610ce29190610ea8565b610cec9190610ea8565b905090565b6000600454905090565b6000600154905090565b6000600354905090565b606060008203610d56576040518060400160405280600181526020017f30000000000000000000000000000000000000000000000000000000000000008152509050610e6a565b600082905060005b60008214610d88578080610d7190610f7e565b915050600a82610d819190610f0b565b9150610d5e565b60008167ffffffffffffffff811115610da457610da36116e7565b5b6040519080825280601f01601f191660200182016040528015610dd65781602001600182028036833780820191505090505b5090505b60008514610e6357600182610def9190611366565b9150600a85610dfe9190611335565b6030610e0a9190610ea8565b60f81b818381518110610e2057610e1f611716565b5b60200101907effffffffffffffffffffffffffffffffffffffffffffffffffffffffffffff1916908160001a905350600a85610e5c9190610f0b565b9450610dda565b8093505050505b919050565b6000819050919050565b7f4e487b7100000000000000000000000000000000000000000000000000000000600052601160045260246000fd5b6000610eb382610e6f565b9150610ebe83610e6f565b9250828201905080821115610ed657610ed5610e79565b5b92915050565b7f4e487b7100000000000000000000000000000000000000000000000000000000600052601260045260246000fd5b6000610f1682610e6f565b9150610f2183610e6f565b925082610f3157610f30610edc565b5b828204905092915050565b6000610f4782610e6f565b9150610f5283610e6f565b9250828202610f6081610e6f565b91508282048414831517610f7757610f76610e79565b5b5092915050565b6000610f8982610e6f565b91507fffffffffffffffffffffffffffffffffffffffffffffffffffffffffffffffff8203610fbb57610fba610e79565b5b600182019050919050565b600080fd5b610fd481610e6f565b8114610fdf57600080fd5b50565b600081359050610ff181610fcb565b92915050565b60006020828403121561100d5761100c610fc6565b5b600061101b84828501610fe2565b91505092915050565b61102d81610e6f565b82525050565b60006020820190506110486000830184611024565b92915050565b600073ffffffffffffffffffffffffffffffffffffffff82169050919050565b60006110798261104e565b9050919050565b6110898161106e565b811461109457600080fd5b50565b6000813590506110a681611080565b92915050565b6000602082840312156110c2576110c1610fc6565b5b60006110d084828501611097565b91505092915050565b60006110e48261104e565b9050919050565b6110f4816110d9565b81146110ff57600080fd5b50565b600081359050611111816110eb565b92915050565b60006020828403121561112d5761112c610fc6565b5b600061113b84828501611102565b91505092915050565b61114d816110d9565b82525050565b60006020820190506111686000830184611144565b92915050565b600081519050919050565b600082825260208201905092915050565b60005b838110156111a857808201518184015260208101905061118d565b60008484015250505050565b6000601f19601f8301169050919050565b60006111d08261116e565b6111da8185611179565b93506111ea81856020860161118a565b6111f3816111b4565b840191505092915050565b6000602082019050818103600083015261121881846111c5565b905092915050565b60008115159050919050565b61123581611220565b82525050565b6000602082019050611250600083018461122c565b92915050565b7f5468697320636f6e74726163742069732063757272656e746c7920646973616260008201527f6c65642e00000000000000000000000000000000000000000000000000000000602082015250565b60006112b2602483611179565b91506112bd82611256565b604082019050919050565b600060208201905081810360008301526112e1816112a5565b9050919050565b6000819050919050565b6113036112fe82610e6f565b6112e8565b82525050565b600061131582856112f2565b60208201915061132582846112f2565b6020820191508190509392505050565b600061134082610e6f565b915061134b83610e6f565b92508261135b5761135a610edc565b5b828206905092915050565b600061137182610e6f565b915061137c83610e6f565b925082820390508181111561139457611393610e79565b5b92915050565b7f4e487b7100000000000000000000000000000000000000000000000000000000600052600160045260246000fd5b60008160011c9050919050565b6000808291508390505b6001851115611420578086048111156113fc576113fb610e79565b5b600185161561140b5780820291505b8081029050611419856113c9565b94506113e0565b94509492505050565b60008261143957600190506114f5565b8161144757600090506114f5565b816001811461145d576002811461146757611496565b60019150506114f5565b60ff84111561147957611478610e79565b5b8360020a9150848211156114905761148f610e79565b5b506114f5565b5060208310610133831016604e8410600b84101617156114cb5782820a9050838111156114c6576114c5610e79565b5b6114f5565b6114d884848460016113d6565b925090508184048111156114ef576114ee610e79565b5b81810290505b9392505050565b600061150782610e6f565b915061151283610e6f565b925061153f7fffffffffffffffffffffffffffffffffffffffffffffffffffffffffffffffff8484611429565b905092915050565b600081905092915050565b600061155d8261116e565b6115678185611547565b935061157781856020860161118a565b80840191505092915050565b7f2e00000000000000000000000000000000000000000000000000000000000000815250565b7f2500000000000000000000000000000000000000000000000000000000000000815250565b60006115db8285611552565b91506115e682611583565b6001820191506115f68284611552565b9150611601826115a9565b6001820191508190509392505050565b7f54686520616d6f756e7420000000000000000000000000000000000000000000815250565b7f2069732067726561746572207468616e2074686520636f6e747261637420626160008201527f6c616e6365200000000000000000000000000000000000000000000000000000602082015250565b6000611693602683611547565b915061169e82611637565b602682019050919050565b60006116b482611611565b600b820191506116c48285611552565b91506116cf82611686565b91506116db8284611552565b91508190509392505050565b7f4e487b7100000000000000000000000000000000000000000000000000000000600052604160045260246000fd5b7f4e487b7100000000000000000000000000000000000000000000000000000000600052603260045260246000fdfea2646970667358221220b3bb16455cc930df795934388e790623947eb48292c113950db8877e179cb40164736f6c63430008110033",
					"opcodes": "PUSH1 0x80 PUSH1 0x40 MSTORE PUSH4 0x5F5E100 PUSH1 0x5 SSTORE PUSH1 0x1 PUSH1 0x0 DUP1 PUSH2 0x100 EXP DUP2 SLOAD DUP2 PUSH1 0xFF MUL NOT AND SWAP1 DUP4 ISZERO ISZERO MUL OR SWAP1 SSTORE POP PUSH2 0x177B DUP1 PUSH2 0x35 PUSH1 0x0 CODECOPY PUSH1 0x0 RETURN INVALID PUSH1 0x80 PUSH1 0x40 MSTORE PUSH1 0x4 CALLDATASIZE LT PUSH2 0x143 JUMPI PUSH1 0x0 CALLDATALOAD PUSH1 0xE0 SHR DUP1 PUSH4 0x7F798243 GT PUSH2 0xB6 JUMPI DUP1 PUSH4 0x97D47113 GT PUSH2 0x6F JUMPI DUP1 PUSH4 0x97D47113 EQ PUSH2 0x59D JUMPI DUP1 PUSH4 0xC68298E9 EQ PUSH2 0x5A7 JUMPI DUP1 PUSH4 0xD1CDB323 EQ PUSH2 0x5D2 JUMPI DUP1 PUSH4 0xDD11247E EQ PUSH2 0x5FD JUMPI DUP1 PUSH4 0xE0CB8A81 EQ PUSH2 0x628 JUMPI DUP1 PUSH4 0xF0D5C534 EQ PUSH2 0x653 JUMPI PUSH2 0x2D8 JUMP JUMPDEST DUP1 PUSH4 0x7F798243 EQ PUSH2 0x47B JUMPI DUP1 PUSH4 0x80EAAD30 EQ PUSH2 0x4A6 JUMPI DUP1 PUSH4 0x894BA833 EQ PUSH2 0x4E3 JUMPI DUP1 PUSH4 0x8A5EF8C6 EQ PUSH2 0x4FA JUMPI DUP1 PUSH4 0x912A90BB EQ PUSH2 0x537 JUMPI DUP1 PUSH4 0x944B3FE5 EQ PUSH2 0x574 JUMPI PUSH2 0x2D8 JUMP JUMPDEST DUP1 PUSH4 0x367EDD32 GT PUSH2 0x108 JUMPI DUP1 PUSH4 0x367EDD32 EQ PUSH2 0x3A3 JUMPI DUP1 PUSH4 0x3B4AD0E5 EQ PUSH2 0x3BA JUMPI DUP1 PUSH4 0x605E16EC EQ PUSH2 0x3D1 JUMPI DUP1 PUSH4 0x6F9FB98A EQ PUSH2 0x3E8 JUMPI DUP1 PUSH4 0x7363EF8A EQ PUSH2 0x413 JUMPI DUP1 PUSH4 0x7C623F7B EQ PUSH2 0x450 JUMPI PUSH2 0x2D8 JUMP JUMPDEST DUP1 PUSH3 0x8B8D89 EQ PUSH2 0x2DD JUMPI DUP1 PUSH4 0x12845966 EQ PUSH2 0x2E7 JUMPI DUP1 PUSH4 0x1593A8C7 EQ PUSH2 0x324 JUMPI DUP1 PUSH4 0x1E462C2C EQ PUSH2 0x33B JUMPI DUP1 PUSH4 0x2A41A975 EQ PUSH2 0x378 JUMPI PUSH2 0x2D8 JUMP JUMPDEST CALLDATASIZE PUSH2 0x2D8 JUMPI PUSH1 0x0 CALLER SWAP1 POP PUSH1 0x0 CALLVALUE SWAP1 POP PUSH20 0xAB8483F64D9C6D1ECF9B849AE677DD3315835CB2 PUSH20 0xFFFFFFFFFFFFFFFFFFFFFFFFFFFFFFFFFFFFFFFF AND DUP3 PUSH20 0xFFFFFFFFFFFFFFFFFFFFFFFFFFFFFFFFFFFFFFFF AND SUB PUSH2 0x1B7 JUMPI DUP1 PUSH1 0x1 PUSH1 0x0 DUP3 DUP3 SLOAD PUSH2 0x1AB SWAP2 SWAP1 PUSH2 0xEA8 JUMP JUMPDEST SWAP3 POP POP DUP2 SWAP1 SSTORE POP PUSH2 0x2D6 JUMP JUMPDEST PUSH2 0x1BF PUSH2 0x67E JUMP JUMPDEST PUSH1 0x0 PUSH1 0x5 SLOAD DUP3 PUSH2 0x1CF SWAP2 SWAP1 PUSH2 0xF0B JUMP JUMPDEST SWAP1 POP PUSH1 0x5 SLOAD DUP2 PUSH2 0x1DF SWAP2 SWAP1 PUSH2 0xF3C JUMP JUMPDEST PUSH1 0x2 PUSH1 0x0 DUP3 DUP3 SLOAD PUSH2 0x1F0 SWAP2 SWAP1 PUSH2 0xEA8 JUMP JUMPDEST SWAP3 POP POP DUP2 SWAP1 SSTORE POP DUP1 PUSH1 0x7 PUSH1 0x0 DUP6 PUSH20 0xFFFFFFFFFFFFFFFFFFFFFFFFFFFFFFFFFFFFFFFF AND PUSH20 0xFFFFFFFFFFFFFFFFFFFFFFFFFFFFFFFFFFFFFFFF AND DUP2 MSTORE PUSH1 0x20 ADD SWAP1 DUP2 MSTORE PUSH1 0x20 ADD PUSH1 0x0 KECCAK256 PUSH1 0x0 DUP3 DUP3 SLOAD PUSH2 0x246 SWAP2 SWAP1 PUSH2 0xEA8 JUMP JUMPDEST SWAP3 POP POP DUP2 SWAP1 SSTORE POP PUSH1 0x0 JUMPDEST DUP2 DUP2 LT ISZERO PUSH2 0x2D3 JUMPI DUP4 PUSH1 0x6 PUSH1 0x0 PUSH1 0x4 PUSH1 0x0 DUP2 SLOAD DUP1 SWAP3 SWAP2 SWAP1 PUSH2 0x270 SWAP1 PUSH2 0xF7E JUMP JUMPDEST SWAP2 SWAP1 POP SSTORE DUP2 MSTORE PUSH1 0x20 ADD SWAP1 DUP2 MSTORE PUSH1 0x20 ADD PUSH1 0x0 KECCAK256 PUSH1 0x0 PUSH2 0x100 EXP DUP2 SLOAD DUP2 PUSH20 0xFFFFFFFFFFFFFFFFFFFFFFFFFFFFFFFFFFFFFFFF MUL NOT AND SWAP1 DUP4 PUSH20 0xFFFFFFFFFFFFFFFFFFFFFFFFFFFFFFFFFFFFFFFF AND MUL OR SWAP1 SSTORE POP DUP1 DUP1 PUSH2 0x2CB SWAP1 PUSH2 0xF7E JUMP JUMPDEST SWAP2 POP POP PUSH2 0x250 JUMP JUMPDEST POP POP JUMPDEST STOP JUMPDEST PUSH1 0x0 DUP1 REVERT JUMPDEST PUSH2 0x2E5 PUSH2 0x6CD JUMP JUMPDEST STOP JUMPDEST CALLVALUE DUP1 ISZERO PUSH2 0x2F3 JUMPI PUSH1 0x0 DUP1 REVERT JUMPDEST POP PUSH2 0x30E PUSH1 0x4 DUP1 CALLDATASIZE SUB DUP2 ADD SWAP1 PUSH2 0x309 SWAP2 SWAP1 PUSH2 0xFF7 JUMP JUMPDEST PUSH2 0x6E8 JUMP JUMPDEST PUSH1 0x40 MLOAD PUSH2 0x31B SWAP2 SWAP1 PUSH2 0x1033 JUMP JUMPDEST PUSH1 0x40 MLOAD DUP1 SWAP2 SUB SWAP1 RETURN JUMPDEST CALLVALUE DUP1 ISZERO PUSH2 0x330 JUMPI PUSH1 0x0 DUP1 REVERT JUMPDEST POP PUSH2 0x339 PUSH2 0x72D JUMP JUMPDEST STOP JUMPDEST CALLVALUE DUP1 ISZERO PUSH2 0x347 JUMPI PUSH1 0x0 DUP1 REVERT JUMPDEST POP PUSH2 0x362 PUSH1 0x4 DUP1 CALLDATASIZE SUB DUP2 ADD SWAP1 PUSH2 0x35D SWAP2 SWAP1 PUSH2 0x10AC JUMP JUMPDEST PUSH2 0x864 JUMP JUMPDEST PUSH1 0x40 MLOAD PUSH2 0x36F SWAP2 SWAP1 PUSH2 0x1033 JUMP JUMPDEST PUSH1 0x40 MLOAD DUP1 SWAP2 SUB SWAP1 RETURN JUMPDEST CALLVALUE DUP1 ISZERO PUSH2 0x384 JUMPI PUSH1 0x0 DUP1 REVERT JUMPDEST POP PUSH2 0x38D PUSH2 0x87C JUMP JUMPDEST PUSH1 0x40 MLOAD PUSH2 0x39A SWAP2 SWAP1 PUSH2 0x1033 JUMP JUMPDEST PUSH1 0x40 MLOAD DUP1 SWAP2 SUB SWAP1 RETURN JUMPDEST CALLVALUE DUP1 ISZERO PUSH2 0x3AF JUMPI PUSH1 0x0 DUP1 REVERT JUMPDEST POP PUSH2 0x3B8 PUSH2 0x8BC JUMP JUMPDEST STOP JUMPDEST CALLVALUE DUP1 ISZERO PUSH2 0x3C6 JUMPI PUSH1 0x0 DUP1 REVERT JUMPDEST POP PUSH2 0x3CF PUSH2 0x67E JUMP JUMPDEST STOP JUMPDEST CALLVALUE DUP1 ISZERO PUSH2 0x3DD JUMPI PUSH1 0x0 DUP1 REVERT JUMPDEST POP PUSH2 0x3E6 PUSH2 0x8D8 JUMP JUMPDEST STOP JUMPDEST CALLVALUE DUP1 ISZERO PUSH2 0x3F4 JUMPI PUSH1 0x0 DUP1 REVERT JUMPDEST POP PUSH2 0x3FD PUSH2 0x944 JUMP JUMPDEST PUSH1 0x40 MLOAD PUSH2 0x40A SWAP2 SWAP1 PUSH2 0x1033 JUMP JUMPDEST PUSH1 0x40 MLOAD DUP1 SWAP2 SUB SWAP1 RETURN JUMPDEST CALLVALUE DUP1 ISZERO PUSH2 0x41F JUMPI PUSH1 0x0 DUP1 REVERT JUMPDEST POP PUSH2 0x43A PUSH1 0x4 DUP1 CALLDATASIZE SUB DUP2 ADD SWAP1 PUSH2 0x435 SWAP2 SWAP1 PUSH2 0x1117 JUMP JUMPDEST PUSH2 0x94C JUMP JUMPDEST PUSH1 0x40 MLOAD PUSH2 0x447 SWAP2 SWAP1 PUSH2 0x1033 JUMP JUMPDEST PUSH1 0x40 MLOAD DUP1 SWAP2 SUB SWAP1 RETURN JUMPDEST CALLVALUE DUP1 ISZERO PUSH2 0x45C JUMPI PUSH1 0x0 DUP1 REVERT JUMPDEST POP PUSH2 0x465 PUSH2 0x995 JUMP JUMPDEST PUSH1 0x40 MLOAD PUSH2 0x472 SWAP2 SWAP1 PUSH2 0x1033 JUMP JUMPDEST PUSH1 0x40 MLOAD DUP1 SWAP2 SUB SWAP1 RETURN JUMPDEST CALLVALUE DUP1 ISZERO PUSH2 0x487 JUMPI PUSH1 0x0 DUP1 REVERT JUMPDEST POP PUSH2 0x490 PUSH2 0x99F JUMP JUMPDEST PUSH1 0x40 MLOAD PUSH2 0x49D SWAP2 SWAP1 PUSH2 0x1153 JUMP JUMPDEST PUSH1 0x40 MLOAD DUP1 SWAP2 SUB SWAP1 RETURN JUMPDEST CALLVALUE DUP1 ISZERO PUSH2 0x4B2 JUMPI PUSH1 0x0 DUP1 REVERT JUMPDEST POP PUSH2 0x4CD PUSH1 0x4 DUP1 CALLDATASIZE SUB DUP2 ADD SWAP1 PUSH2 0x4C8 SWAP2 SWAP1 PUSH2 0x1117 JUMP JUMPDEST PUSH2 0xA14 JUMP JUMPDEST PUSH1 0x40 MLOAD PUSH2 0x4DA SWAP2 SWAP1 PUSH2 0x11FE JUMP JUMPDEST PUSH1 0x40 MLOAD DUP1 SWAP2 SUB SWAP1 RETURN JUMPDEST CALLVALUE DUP1 ISZERO PUSH2 0x4EF JUMPI PUSH1 0x0 DUP1 REVERT JUMPDEST POP PUSH2 0x4F8 PUSH2 0xAEE JUMP JUMPDEST STOP JUMPDEST CALLVALUE DUP1 ISZERO PUSH2 0x506 JUMPI PUSH1 0x0 DUP1 REVERT JUMPDEST POP PUSH2 0x521 PUSH1 0x4 DUP1 CALLDATASIZE SUB DUP2 ADD SWAP1 PUSH2 0x51C SWAP2 SWAP1 PUSH2 0xFF7 JUMP JUMPDEST PUSH2 0xB0A JUMP JUMPDEST PUSH1 0x40 MLOAD PUSH2 0x52E SWAP2 SWAP1 PUSH2 0x1153 JUMP JUMPDEST PUSH1 0x40 MLOAD DUP1 SWAP2 SUB SWAP1 RETURN JUMPDEST CALLVALUE DUP1 ISZERO PUSH2 0x543 JUMPI PUSH1 0x0 DUP1 REVERT JUMPDEST POP PUSH2 0x55E PUSH1 0x4 DUP1 CALLDATASIZE SUB DUP2 ADD SWAP1 PUSH2 0x559 SWAP2 SWAP1 PUSH2 0x1117 JUMP JUMPDEST PUSH2 0xB3D JUMP JUMPDEST PUSH1 0x40 MLOAD PUSH2 0x56B SWAP2 SWAP1 PUSH2 0x123B JUMP JUMPDEST PUSH1 0x40 MLOAD DUP1 SWAP2 SUB SWAP1 RETURN JUMPDEST CALLVALUE DUP1 ISZERO PUSH2 0x580 JUMPI PUSH1 0x0 DUP1 REVERT JUMPDEST POP PUSH2 0x59B PUSH1 0x4 DUP1 CALLDATASIZE SUB DUP2 ADD SWAP1 PUSH2 0x596 SWAP2 SWAP1 PUSH2 0xFF7 JUMP JUMPDEST PUSH2 0xB88 JUMP JUMPDEST STOP JUMPDEST PUSH2 0x5A5 PUSH2 0xC96 JUMP JUMPDEST STOP JUMPDEST CALLVALUE DUP1 ISZERO PUSH2 0x5B3 JUMPI PUSH1 0x0 DUP1 REVERT JUMPDEST POP PUSH2 0x5BC PUSH2 0xCB1 JUMP JUMPDEST PUSH1 0x40 MLOAD PUSH2 0x5C9 SWAP2 SWAP1 PUSH2 0x1033 JUMP JUMPDEST PUSH1 0x40 MLOAD DUP1 SWAP2 SUB SWAP1 RETURN JUMPDEST CALLVALUE DUP1 ISZERO PUSH2 0x5DE JUMPI PUSH1 0x0 DUP1 REVERT JUMPDEST POP PUSH2 0x5E7 PUSH2 0xCCD JUMP JUMPDEST PUSH1 0x40 MLOAD PUSH2 0x5F4 SWAP2 SWAP1 PUSH2 0x1033 JUMP JUMPDEST PUSH1 0x40 MLOAD DUP1 SWAP2 SUB SWAP1 RETURN JUMPDEST CALLVALUE DUP1 ISZERO PUSH2 0x609 JUMPI PUSH1 0x0 DUP1 REVERT JUMPDEST POP PUSH2 0x612 PUSH2 0xCF1 JUMP JUMPDEST PUSH1 0x40 MLOAD PUSH2 0x61F SWAP2 SWAP1 PUSH2 0x1033 JUMP JUMPDEST PUSH1 0x40 MLOAD DUP1 SWAP2 SUB SWAP1 RETURN JUMPDEST CALLVALUE DUP1 ISZERO PUSH2 0x634 JUMPI PUSH1 0x0 DUP1 REVERT JUMPDEST POP PUSH2 0x63D PUSH2 0xCFB JUMP JUMPDEST PUSH1 0x40 MLOAD PUSH2 0x64A SWAP2 SWAP1 PUSH2 0x1033 JUMP JUMPDEST PUSH1 0x40 MLOAD DUP1 SWAP2 SUB SWAP1 RETURN JUMPDEST CALLVALUE DUP1 ISZERO PUSH2 0x65F JUMPI PUSH1 0x0 DUP1 REVERT JUMPDEST POP PUSH2 0x668 PUSH2 0xD05 JUMP JUMPDEST PUSH1 0x40 MLOAD PUSH2 0x675 SWAP2 SWAP1 PUSH2 0x1033 JUMP JUMPDEST PUSH1 0x40 MLOAD DUP1 SWAP2 SUB SWAP1 RETURN JUMPDEST PUSH1 0x0 DUP1 SLOAD SWAP1 PUSH2 0x100 EXP SWAP1 DIV PUSH1 0xFF AND PUSH2 0x6CB JUMPI PUSH1 0x40 MLOAD PUSH32 0x8C379A000000000000000000000000000000000000000000000000000000000 DUP2 MSTORE PUSH1 0x4 ADD PUSH2 0x6C2 SWAP1 PUSH2 0x12C8 JUMP JUMPDEST PUSH1 0x40 MLOAD DUP1 SWAP2 SUB SWAP1 REVERT JUMPDEST JUMP JUMPDEST CALLVALUE PUSH1 0x1 PUSH1 0x0 DUP3 DUP3 SLOAD PUSH2 0x6DF SWAP2 SWAP1 PUSH2 0xEA8 JUMP JUMPDEST SWAP3 POP POP DUP2 SWAP1 SSTORE POP JUMP JUMPDEST PUSH1 0x0 DUP1 DIFFICULTY TIMESTAMP PUSH1 0x40 MLOAD PUSH1 0x20 ADD PUSH2 0x6FE SWAP3 SWAP2 SWAP1 PUSH2 0x1309 JUMP JUMPDEST PUSH1 0x40 MLOAD PUSH1 0x20 DUP2 DUP4 SUB SUB DUP2 MSTORE SWAP1 PUSH1 0x40 MSTORE DUP1 MLOAD SWAP1 PUSH1 0x20 ADD KECCAK256 PUSH1 0x0 SHR SWAP1 POP DUP3 DUP2 PUSH2 0x725 SWAP2 SWAP1 PUSH2 0x1335 JUMP JUMPDEST SWAP2 POP POP SWAP2 SWAP1 POP JUMP JUMPDEST PUSH1 0x0 PUSH2 0x737 PUSH2 0x99F JUMP JUMPDEST SWAP1 POP PUSH1 0x0 PUSH20 0xFFFFFFFFFFFFFFFFFFFFFFFFFFFFFFFFFFFFFFFF AND DUP2 PUSH20 0xFFFFFFFFFFFFFFFFFFFFFFFFFFFFFFFFFFFFFFFF AND SUB ISZERO PUSH2 0x861 JUMPI PUSH1 0x0 PUSH1 0x64 PUSH1 0xA PUSH1 0x2 SLOAD PUSH2 0x781 SWAP2 SWAP1 PUSH2 0xF3C JUMP JUMPDEST PUSH2 0x78B SWAP2 SWAP1 PUSH2 0xF0B JUMP JUMPDEST SWAP1 POP PUSH1 0x0 DUP2 PUSH1 0x2 SLOAD PUSH1 0x3 SLOAD PUSH2 0x7A0 SWAP2 SWAP1 PUSH2 0xEA8 JUMP JUMPDEST PUSH2 0x7AA SWAP2 SWAP1 PUSH2 0x1366 JUMP JUMPDEST SWAP1 POP PUSH1 0x0 PUSH1 0x2 DUP2 SWAP1 SSTORE POP PUSH1 0x0 PUSH1 0x3 DUP2 SWAP1 SSTORE POP PUSH20 0xAB8483F64D9C6D1ECF9B849AE677DD3315835CB2 PUSH20 0xFFFFFFFFFFFFFFFFFFFFFFFFFFFFFFFFFFFFFFFF AND PUSH2 0x8FC DUP4 SWAP1 DUP2 ISZERO MUL SWAP1 PUSH1 0x40 MLOAD PUSH1 0x0 PUSH1 0x40 MLOAD DUP1 DUP4 SUB DUP2 DUP6 DUP9 DUP9 CALL SWAP4 POP POP POP POP ISZERO DUP1 ISZERO PUSH2 0x816 JUMPI RETURNDATASIZE PUSH1 0x0 DUP1 RETURNDATACOPY RETURNDATASIZE PUSH1 0x0 REVERT JUMPDEST POP DUP3 PUSH20 0xFFFFFFFFFFFFFFFFFFFFFFFFFFFFFFFFFFFFFFFF AND PUSH2 0x8FC DUP3 SWAP1 DUP2 ISZERO MUL SWAP1 PUSH1 0x40 MLOAD PUSH1 0x0 PUSH1 0x40 MLOAD DUP1 DUP4 SUB DUP2 DUP6 DUP9 DUP9 CALL SWAP4 POP POP POP POP ISZERO DUP1 ISZERO PUSH2 0x85D JUMPI RETURNDATASIZE PUSH1 0x0 DUP1 RETURNDATACOPY RETURNDATASIZE PUSH1 0x0 REVERT JUMPDEST POP POP POP JUMPDEST POP JUMP JUMPDEST PUSH1 0x7 PUSH1 0x20 MSTORE DUP1 PUSH1 0x0 MSTORE PUSH1 0x40 PUSH1 0x0 KECCAK256 PUSH1 0x0 SWAP2 POP SWAP1 POP SLOAD DUP2 JUMP JUMPDEST PUSH1 0x0 PUSH2 0x886 PUSH2 0xCCD JUMP JUMPDEST PUSH2 0x88E PUSH2 0x944 JUMP JUMPDEST LT ISZERO PUSH2 0x89D JUMPI PUSH2 0x89C PUSH2 0x139A JUMP JUMPDEST JUMPDEST PUSH2 0x8A5 PUSH2 0xCCD JUMP JUMPDEST PUSH2 0x8AD PUSH2 0x944 JUMP JUMPDEST PUSH2 0x8B7 SWAP2 SWAP1 PUSH2 0x1366 JUMP JUMPDEST SWAP1 POP SWAP1 JUMP JUMPDEST PUSH1 0x1 PUSH1 0x0 DUP1 PUSH2 0x100 EXP DUP2 SLOAD DUP2 PUSH1 0xFF MUL NOT AND SWAP1 DUP4 ISZERO ISZERO MUL OR SWAP1 SSTORE POP JUMP JUMPDEST PUSH1 0x0 PUSH1 0x1 DUP2 SWAP1 SSTORE POP PUSH20 0xAB8483F64D9C6D1ECF9B849AE677DD3315835CB2 PUSH20 0xFFFFFFFFFFFFFFFFFFFFFFFFFFFFFFFFFFFFFFFF AND PUSH2 0x8FC PUSH2 0x916 PUSH2 0xCB1 JUMP JUMPDEST SWAP1 DUP2 ISZERO MUL SWAP1 PUSH1 0x40 MLOAD PUSH1 0x0 PUSH1 0x40 MLOAD DUP1 DUP4 SUB DUP2 DUP6 DUP9 DUP9 CALL SWAP4 POP POP POP POP ISZERO DUP1 ISZERO PUSH2 0x941 JUMPI RETURNDATASIZE PUSH1 0x0 DUP1 RETURNDATACOPY RETURNDATASIZE PUSH1 0x0 REVERT JUMPDEST POP JUMP JUMPDEST PUSH1 0x0 SELFBALANCE SWAP1 POP SWAP1 JUMP JUMPDEST PUSH1 0x0 PUSH1 0x7 PUSH1 0x0 DUP4 PUSH20 0xFFFFFFFFFFFFFFFFFFFFFFFFFFFFFFFFFFFFFFFF AND PUSH20 0xFFFFFFFFFFFFFFFFFFFFFFFFFFFFFFFFFFFFFFFF AND DUP2 MSTORE PUSH1 0x20 ADD SWAP1 DUP2 MSTORE PUSH1 0x20 ADD PUSH1 0x0 KECCAK256 SLOAD SWAP1 POP SWAP2 SWAP1 POP JUMP JUMPDEST PUSH1 0x0 PUSH1 0x2 SLOAD SWAP1 POP SWAP1 JUMP JUMPDEST PUSH1 0x0 DUP1 PUSH1 0x4 SLOAD SWAP1 POP PUSH1 0x0 DUP1 DUP3 SUB PUSH2 0x9BB JUMPI PUSH1 0x0 SWAP3 POP POP POP PUSH2 0xA11 JUMP JUMPDEST PUSH1 0x1 DUP3 SUB PUSH2 0x9CC JUMPI PUSH1 0x0 SWAP1 POP PUSH2 0x9D8 JUMP JUMPDEST PUSH2 0x9D5 DUP3 PUSH2 0x6E8 JUMP JUMPDEST SWAP1 POP JUMPDEST PUSH1 0x6 PUSH1 0x0 DUP3 DUP2 MSTORE PUSH1 0x20 ADD SWAP1 DUP2 MSTORE PUSH1 0x20 ADD PUSH1 0x0 KECCAK256 PUSH1 0x0 SWAP1 SLOAD SWAP1 PUSH2 0x100 EXP SWAP1 DIV PUSH20 0xFFFFFFFFFFFFFFFFFFFFFFFFFFFFFFFFFFFFFFFF AND SWAP3 POP POP POP JUMPDEST SWAP1 JUMP JUMPDEST PUSH1 0x60 PUSH1 0x0 PUSH2 0xA20 PUSH2 0xCF1 JUMP JUMPDEST SUB PUSH2 0xA3C JUMPI PUSH1 0x40 MLOAD DUP1 PUSH1 0x20 ADD PUSH1 0x40 MSTORE DUP1 PUSH1 0x0 DUP2 MSTORE POP SWAP1 POP PUSH2 0xAE9 JUMP JUMPDEST PUSH1 0x0 PUSH1 0x4 SWAP1 POP PUSH1 0x0 PUSH1 0x64 PUSH2 0xA4F DUP6 PUSH2 0x94C JUMP JUMPDEST PUSH2 0xA59 SWAP2 SWAP1 PUSH2 0xF3C JUMP JUMPDEST SWAP1 POP PUSH1 0x0 PUSH2 0xA65 PUSH2 0xCF1 JUMP JUMPDEST SWAP1 POP PUSH1 0x0 DUP2 DUP4 PUSH2 0xA75 SWAP2 SWAP1 PUSH2 0xF0B JUMP JUMPDEST SWAP1 POP PUSH1 0x0 DUP5 PUSH1 0xA PUSH2 0xA86 SWAP2 SWAP1 PUSH2 0x14FC JUMP JUMPDEST DUP4 DUP6 PUSH2 0xA92 SWAP2 SWAP1 PUSH2 0x1335 JUMP JUMPDEST PUSH2 0xA9C SWAP2 SWAP1 PUSH2 0xF3C JUMP JUMPDEST SWAP1 POP PUSH1 0x0 DUP4 DUP3 PUSH2 0xAAC SWAP2 SWAP1 PUSH2 0xF0B JUMP JUMPDEST SWAP1 POP PUSH2 0xAB7 DUP4 PUSH2 0xD0F JUMP JUMPDEST PUSH2 0xAC0 DUP3 PUSH2 0xD0F JUMP JUMPDEST PUSH1 0x40 MLOAD PUSH1 0x20 ADD PUSH2 0xAD1 SWAP3 SWAP2 SWAP1 PUSH2 0x15CF JUMP JUMPDEST PUSH1 0x40 MLOAD PUSH1 0x20 DUP2 DUP4 SUB SUB DUP2 MSTORE SWAP1 PUSH1 0x40 MSTORE SWAP7 POP POP POP POP POP POP POP JUMPDEST SWAP2 SWAP1 POP JUMP JUMPDEST PUSH1 0x0 DUP1 PUSH1 0x0 PUSH2 0x100 EXP DUP2 SLOAD DUP2 PUSH1 0xFF MUL NOT AND SWAP1 DUP4 ISZERO ISZERO MUL OR SWAP1 SSTORE POP JUMP JUMPDEST PUSH1 0x6 PUSH1 0x20 MSTORE DUP1 PUSH1 0x0 MSTORE PUSH1 0x40 PUSH1 0x0 KECCAK256 PUSH1 0x0 SWAP2 POP SLOAD SWAP1 PUSH2 0x100 EXP SWAP1 DIV PUSH20 0xFFFFFFFFFFFFFFFFFFFFFFFFFFFFFFFFFFFFFFFF AND DUP2 JUMP JUMPDEST PUSH1 0x0 DUP1 PUSH1 0x7 PUSH1 0x0 DUP5 PUSH20 0xFFFFFFFFFFFFFFFFFFFFFFFFFFFFFFFFFFFFFFFF AND PUSH20 0xFFFFFFFFFFFFFFFFFFFFFFFFFFFFFFFFFFFFFFFF AND DUP2 MSTORE PUSH1 0x20 ADD SWAP1 DUP2 MSTORE PUSH1 0x20 ADD PUSH1 0x0 KECCAK256 SLOAD GT SWAP1 POP SWAP2 SWAP1 POP JUMP JUMPDEST PUSH1 0x0 PUSH2 0xB92 PUSH2 0xCB1 JUMP JUMPDEST SWAP1 POP DUP1 DUP3 GT ISZERO PUSH2 0xBA1 DUP4 PUSH2 0xD0F JUMP JUMPDEST PUSH2 0xBAA DUP4 PUSH2 0xD0F JUMP JUMPDEST PUSH1 0x40 MLOAD PUSH1 0x20 ADD PUSH2 0xBBB SWAP3 SWAP2 SWAP1 PUSH2 0x16A9 JUMP JUMPDEST PUSH1 0x40 MLOAD PUSH1 0x20 DUP2 DUP4 SUB SUB DUP2 MSTORE SWAP1 PUSH1 0x40 MSTORE SWAP1 PUSH2 0xC0B JUMPI PUSH1 0x40 MLOAD PUSH32 0x8C379A000000000000000000000000000000000000000000000000000000000 DUP2 MSTORE PUSH1 0x4 ADD PUSH2 0xC02 SWAP2 SWAP1 PUSH2 0x11FE JUMP JUMPDEST PUSH1 0x40 MLOAD DUP1 SWAP2 SUB SWAP1 REVERT JUMPDEST POP PUSH2 0xC14 PUSH2 0x87C JUMP JUMPDEST DUP3 PUSH2 0xC1F SWAP2 SWAP1 PUSH2 0x1366 JUMP JUMPDEST PUSH1 0x1 PUSH1 0x0 DUP3 DUP3 SLOAD PUSH2 0xC30 SWAP2 SWAP1 PUSH2 0x1366 JUMP JUMPDEST SWAP3 POP POP DUP2 SWAP1 SSTORE POP PUSH20 0xAB8483F64D9C6D1ECF9B849AE677DD3315835CB2 PUSH20 0xFFFFFFFFFFFFFFFFFFFFFFFFFFFFFFFFFFFFFFFF AND PUSH2 0x8FC DUP4 SWAP1 DUP2 ISZERO MUL SWAP1 PUSH1 0x40 MLOAD PUSH1 0x0 PUSH1 0x40 MLOAD DUP1 DUP4 SUB DUP2 DUP6 DUP9 DUP9 CALL SWAP4 POP POP POP POP ISZERO DUP1 ISZERO PUSH2 0xC91 JUMPI RETURNDATASIZE PUSH1 0x0 DUP1 RETURNDATACOPY RETURNDATASIZE PUSH1 0x0 REVERT JUMPDEST POP POP POP JUMP JUMPDEST CALLVALUE PUSH1 0x3 PUSH1 0x0 DUP3 DUP3 SLOAD PUSH2 0xCA8 SWAP2 SWAP1 PUSH2 0xEA8 JUMP JUMPDEST SWAP3 POP POP DUP2 SWAP1 SSTORE POP JUMP JUMPDEST PUSH1 0x0 PUSH2 0xCBB PUSH2 0x87C JUMP JUMPDEST PUSH1 0x1 SLOAD PUSH2 0xCC8 SWAP2 SWAP1 PUSH2 0xEA8 JUMP JUMPDEST SWAP1 POP SWAP1 JUMP JUMPDEST PUSH1 0x0 PUSH1 0x3 SLOAD PUSH1 0x2 SLOAD PUSH1 0x1 SLOAD PUSH2 0xCE2 SWAP2 SWAP1 PUSH2 0xEA8 JUMP JUMPDEST PUSH2 0xCEC SWAP2 SWAP1 PUSH2 0xEA8 JUMP JUMPDEST SWAP1 POP SWAP1 JUMP JUMPDEST PUSH1 0x0 PUSH1 0x4 SLOAD SWAP1 POP SWAP1 JUMP JUMPDEST PUSH1 0x0 PUSH1 0x1 SLOAD SWAP1 POP SWAP1 JUMP JUMPDEST PUSH1 0x0 PUSH1 0x3 SLOAD SWAP1 POP SWAP1 JUMP JUMPDEST PUSH1 0x60 PUSH1 0x0 DUP3 SUB PUSH2 0xD56 JUMPI PUSH1 0x40 MLOAD DUP1 PUSH1 0x40 ADD PUSH1 0x40 MSTORE DUP1 PUSH1 0x1 DUP2 MSTORE PUSH1 0x20 ADD PUSH32 0x3000000000000000000000000000000000000000000000000000000000000000 DUP2 MSTORE POP SWAP1 POP PUSH2 0xE6A JUMP JUMPDEST PUSH1 0x0 DUP3 SWAP1 POP PUSH1 0x0 JUMPDEST PUSH1 0x0 DUP3 EQ PUSH2 0xD88 JUMPI DUP1 DUP1 PUSH2 0xD71 SWAP1 PUSH2 0xF7E JUMP JUMPDEST SWAP2 POP POP PUSH1 0xA DUP3 PUSH2 0xD81 SWAP2 SWAP1 PUSH2 0xF0B JUMP JUMPDEST SWAP2 POP PUSH2 0xD5E JUMP JUMPDEST PUSH1 0x0 DUP2 PUSH8 0xFFFFFFFFFFFFFFFF DUP2 GT ISZERO PUSH2 0xDA4 JUMPI PUSH2 0xDA3 PUSH2 0x16E7 JUMP JUMPDEST JUMPDEST PUSH1 0x40 MLOAD SWAP1 DUP1 DUP3 MSTORE DUP1 PUSH1 0x1F ADD PUSH1 0x1F NOT AND PUSH1 0x20 ADD DUP3 ADD PUSH1 0x40 MSTORE DUP1 ISZERO PUSH2 0xDD6 JUMPI DUP2 PUSH1 0x20 ADD PUSH1 0x1 DUP3 MUL DUP1 CALLDATASIZE DUP4 CALLDATACOPY DUP1 DUP3 ADD SWAP2 POP POP SWAP1 POP JUMPDEST POP SWAP1 POP JUMPDEST PUSH1 0x0 DUP6 EQ PUSH2 0xE63 JUMPI PUSH1 0x1 DUP3 PUSH2 0xDEF SWAP2 SWAP1 PUSH2 0x1366 JUMP JUMPDEST SWAP2 POP PUSH1 0xA DUP6 PUSH2 0xDFE SWAP2 SWAP1 PUSH2 0x1335 JUMP JUMPDEST PUSH1 0x30 PUSH2 0xE0A SWAP2 SWAP1 PUSH2 0xEA8 JUMP JUMPDEST PUSH1 0xF8 SHL DUP2 DUP4 DUP2 MLOAD DUP2 LT PUSH2 0xE20 JUMPI PUSH2 0xE1F PUSH2 0x1716 JUMP JUMPDEST JUMPDEST PUSH1 0x20 ADD ADD SWAP1 PUSH31 0xFFFFFFFFFFFFFFFFFFFFFFFFFFFFFFFFFFFFFFFFFFFFFFFFFFFFFFFFFFFFFF NOT AND SWAP1 DUP2 PUSH1 0x0 BYTE SWAP1 MSTORE8 POP PUSH1 0xA DUP6 PUSH2 0xE5C SWAP2 SWAP1 PUSH2 0xF0B JUMP JUMPDEST SWAP5 POP PUSH2 0xDDA JUMP JUMPDEST DUP1 SWAP4 POP POP POP POP JUMPDEST SWAP2 SWAP1 POP JUMP JUMPDEST PUSH1 0x0 DUP2 SWAP1 POP SWAP2 SWAP1 POP JUMP JUMPDEST PUSH32 0x4E487B7100000000000000000000000000000000000000000000000000000000 PUSH1 0x0 MSTORE PUSH1 0x11 PUSH1 0x4 MSTORE PUSH1 0x24 PUSH1 0x0 REVERT JUMPDEST PUSH1 0x0 PUSH2 0xEB3 DUP3 PUSH2 0xE6F JUMP JUMPDEST SWAP2 POP PUSH2 0xEBE DUP4 PUSH2 0xE6F JUMP JUMPDEST SWAP3 POP DUP3 DUP3 ADD SWAP1 POP DUP1 DUP3 GT ISZERO PUSH2 0xED6 JUMPI PUSH2 0xED5 PUSH2 0xE79 JUMP JUMPDEST JUMPDEST SWAP3 SWAP2 POP POP JUMP JUMPDEST PUSH32 0x4E487B7100000000000000000000000000000000000000000000000000000000 PUSH1 0x0 MSTORE PUSH1 0x12 PUSH1 0x4 MSTORE PUSH1 0x24 PUSH1 0x0 REVERT JUMPDEST PUSH1 0x0 PUSH2 0xF16 DUP3 PUSH2 0xE6F JUMP JUMPDEST SWAP2 POP PUSH2 0xF21 DUP4 PUSH2 0xE6F JUMP JUMPDEST SWAP3 POP DUP3 PUSH2 0xF31 JUMPI PUSH2 0xF30 PUSH2 0xEDC JUMP JUMPDEST JUMPDEST DUP3 DUP3 DIV SWAP1 POP SWAP3 SWAP2 POP POP JUMP JUMPDEST PUSH1 0x0 PUSH2 0xF47 DUP3 PUSH2 0xE6F JUMP JUMPDEST SWAP2 POP PUSH2 0xF52 DUP4 PUSH2 0xE6F JUMP JUMPDEST SWAP3 POP DUP3 DUP3 MUL PUSH2 0xF60 DUP2 PUSH2 0xE6F JUMP JUMPDEST SWAP2 POP DUP3 DUP3 DIV DUP5 EQ DUP4 ISZERO OR PUSH2 0xF77 JUMPI PUSH2 0xF76 PUSH2 0xE79 JUMP JUMPDEST JUMPDEST POP SWAP3 SWAP2 POP POP JUMP JUMPDEST PUSH1 0x0 PUSH2 0xF89 DUP3 PUSH2 0xE6F JUMP JUMPDEST SWAP2 POP PUSH32 0xFFFFFFFFFFFFFFFFFFFFFFFFFFFFFFFFFFFFFFFFFFFFFFFFFFFFFFFFFFFFFFFF DUP3 SUB PUSH2 0xFBB JUMPI PUSH2 0xFBA PUSH2 0xE79 JUMP JUMPDEST JUMPDEST PUSH1 0x1 DUP3 ADD SWAP1 POP SWAP2 SWAP1 POP JUMP JUMPDEST PUSH1 0x0 DUP1 REVERT JUMPDEST PUSH2 0xFD4 DUP2 PUSH2 0xE6F JUMP JUMPDEST DUP2 EQ PUSH2 0xFDF JUMPI PUSH1 0x0 DUP1 REVERT JUMPDEST POP JUMP JUMPDEST PUSH1 0x0 DUP2 CALLDATALOAD SWAP1 POP PUSH2 0xFF1 DUP2 PUSH2 0xFCB JUMP JUMPDEST SWAP3 SWAP2 POP POP JUMP JUMPDEST PUSH1 0x0 PUSH1 0x20 DUP3 DUP5 SUB SLT ISZERO PUSH2 0x100D JUMPI PUSH2 0x100C PUSH2 0xFC6 JUMP JUMPDEST JUMPDEST PUSH1 0x0 PUSH2 0x101B DUP5 DUP3 DUP6 ADD PUSH2 0xFE2 JUMP JUMPDEST SWAP2 POP POP SWAP3 SWAP2 POP POP JUMP JUMPDEST PUSH2 0x102D DUP2 PUSH2 0xE6F JUMP JUMPDEST DUP3 MSTORE POP POP JUMP JUMPDEST PUSH1 0x0 PUSH1 0x20 DUP3 ADD SWAP1 POP PUSH2 0x1048 PUSH1 0x0 DUP4 ADD DUP5 PUSH2 0x1024 JUMP JUMPDEST SWAP3 SWAP2 POP POP JUMP JUMPDEST PUSH1 0x0 PUSH20 0xFFFFFFFFFFFFFFFFFFFFFFFFFFFFFFFFFFFFFFFF DUP3 AND SWAP1 POP SWAP2 SWAP1 POP JUMP JUMPDEST PUSH1 0x0 PUSH2 0x1079 DUP3 PUSH2 0x104E JUMP JUMPDEST SWAP1 POP SWAP2 SWAP1 POP JUMP JUMPDEST PUSH2 0x1089 DUP2 PUSH2 0x106E JUMP JUMPDEST DUP2 EQ PUSH2 0x1094 JUMPI PUSH1 0x0 DUP1 REVERT JUMPDEST POP JUMP JUMPDEST PUSH1 0x0 DUP2 CALLDATALOAD SWAP1 POP PUSH2 0x10A6 DUP2 PUSH2 0x1080 JUMP JUMPDEST SWAP3 SWAP2 POP POP JUMP JUMPDEST PUSH1 0x0 PUSH1 0x20 DUP3 DUP5 SUB SLT ISZERO PUSH2 0x10C2 JUMPI PUSH2 0x10C1 PUSH2 0xFC6 JUMP JUMPDEST JUMPDEST PUSH1 0x0 PUSH2 0x10D0 DUP5 DUP3 DUP6 ADD PUSH2 0x1097 JUMP JUMPDEST SWAP2 POP POP SWAP3 SWAP2 POP POP JUMP JUMPDEST PUSH1 0x0 PUSH2 0x10E4 DUP3 PUSH2 0x104E JUMP JUMPDEST SWAP1 POP SWAP2 SWAP1 POP JUMP JUMPDEST PUSH2 0x10F4 DUP2 PUSH2 0x10D9 JUMP JUMPDEST DUP2 EQ PUSH2 0x10FF JUMPI PUSH1 0x0 DUP1 REVERT JUMPDEST POP JUMP JUMPDEST PUSH1 0x0 DUP2 CALLDATALOAD SWAP1 POP PUSH2 0x1111 DUP2 PUSH2 0x10EB JUMP JUMPDEST SWAP3 SWAP2 POP POP JUMP JUMPDEST PUSH1 0x0 PUSH1 0x20 DUP3 DUP5 SUB SLT ISZERO PUSH2 0x112D JUMPI PUSH2 0x112C PUSH2 0xFC6 JUMP JUMPDEST JUMPDEST PUSH1 0x0 PUSH2 0x113B DUP5 DUP3 DUP6 ADD PUSH2 0x1102 JUMP JUMPDEST SWAP2 POP POP SWAP3 SWAP2 POP POP JUMP JUMPDEST PUSH2 0x114D DUP2 PUSH2 0x10D9 JUMP JUMPDEST DUP3 MSTORE POP POP JUMP JUMPDEST PUSH1 0x0 PUSH1 0x20 DUP3 ADD SWAP1 POP PUSH2 0x1168 PUSH1 0x0 DUP4 ADD DUP5 PUSH2 0x1144 JUMP JUMPDEST SWAP3 SWAP2 POP POP JUMP JUMPDEST PUSH1 0x0 DUP2 MLOAD SWAP1 POP SWAP2 SWAP1 POP JUMP JUMPDEST PUSH1 0x0 DUP3 DUP3 MSTORE PUSH1 0x20 DUP3 ADD SWAP1 POP SWAP3 SWAP2 POP POP JUMP JUMPDEST PUSH1 0x0 JUMPDEST DUP4 DUP2 LT ISZERO PUSH2 0x11A8 JUMPI DUP1 DUP3 ADD MLOAD DUP2 DUP5 ADD MSTORE PUSH1 0x20 DUP2 ADD SWAP1 POP PUSH2 0x118D JUMP JUMPDEST PUSH1 0x0 DUP5 DUP5 ADD MSTORE POP POP POP POP JUMP JUMPDEST PUSH1 0x0 PUSH1 0x1F NOT PUSH1 0x1F DUP4 ADD AND SWAP1 POP SWAP2 SWAP1 POP JUMP JUMPDEST PUSH1 0x0 PUSH2 0x11D0 DUP3 PUSH2 0x116E JUMP JUMPDEST PUSH2 0x11DA DUP2 DUP6 PUSH2 0x1179 JUMP JUMPDEST SWAP4 POP PUSH2 0x11EA DUP2 DUP6 PUSH1 0x20 DUP7 ADD PUSH2 0x118A JUMP JUMPDEST PUSH2 0x11F3 DUP2 PUSH2 0x11B4 JUMP JUMPDEST DUP5 ADD SWAP2 POP POP SWAP3 SWAP2 POP POP JUMP JUMPDEST PUSH1 0x0 PUSH1 0x20 DUP3 ADD SWAP1 POP DUP2 DUP2 SUB PUSH1 0x0 DUP4 ADD MSTORE PUSH2 0x1218 DUP2 DUP5 PUSH2 0x11C5 JUMP JUMPDEST SWAP1 POP SWAP3 SWAP2 POP POP JUMP JUMPDEST PUSH1 0x0 DUP2 ISZERO ISZERO SWAP1 POP SWAP2 SWAP1 POP JUMP JUMPDEST PUSH2 0x1235 DUP2 PUSH2 0x1220 JUMP JUMPDEST DUP3 MSTORE POP POP JUMP JUMPDEST PUSH1 0x0 PUSH1 0x20 DUP3 ADD SWAP1 POP PUSH2 0x1250 PUSH1 0x0 DUP4 ADD DUP5 PUSH2 0x122C JUMP JUMPDEST SWAP3 SWAP2 POP POP JUMP JUMPDEST PUSH32 0x5468697320636F6E74726163742069732063757272656E746C79206469736162 PUSH1 0x0 DUP3 ADD MSTORE PUSH32 0x6C65642E00000000000000000000000000000000000000000000000000000000 PUSH1 0x20 DUP3 ADD MSTORE POP JUMP JUMPDEST PUSH1 0x0 PUSH2 0x12B2 PUSH1 0x24 DUP4 PUSH2 0x1179 JUMP JUMPDEST SWAP2 POP PUSH2 0x12BD DUP3 PUSH2 0x1256 JUMP JUMPDEST PUSH1 0x40 DUP3 ADD SWAP1 POP SWAP2 SWAP1 POP JUMP JUMPDEST PUSH1 0x0 PUSH1 0x20 DUP3 ADD SWAP1 POP DUP2 DUP2 SUB PUSH1 0x0 DUP4 ADD MSTORE PUSH2 0x12E1 DUP2 PUSH2 0x12A5 JUMP JUMPDEST SWAP1 POP SWAP2 SWAP1 POP JUMP JUMPDEST PUSH1 0x0 DUP2 SWAP1 POP SWAP2 SWAP1 POP JUMP JUMPDEST PUSH2 0x1303 PUSH2 0x12FE DUP3 PUSH2 0xE6F JUMP JUMPDEST PUSH2 0x12E8 JUMP JUMPDEST DUP3 MSTORE POP POP JUMP JUMPDEST PUSH1 0x0 PUSH2 0x1315 DUP3 DUP6 PUSH2 0x12F2 JUMP JUMPDEST PUSH1 0x20 DUP3 ADD SWAP2 POP PUSH2 0x1325 DUP3 DUP5 PUSH2 0x12F2 JUMP JUMPDEST PUSH1 0x20 DUP3 ADD SWAP2 POP DUP2 SWAP1 POP SWAP4 SWAP3 POP POP POP JUMP JUMPDEST PUSH1 0x0 PUSH2 0x1340 DUP3 PUSH2 0xE6F JUMP JUMPDEST SWAP2 POP PUSH2 0x134B DUP4 PUSH2 0xE6F JUMP JUMPDEST SWAP3 POP DUP3 PUSH2 0x135B JUMPI PUSH2 0x135A PUSH2 0xEDC JUMP JUMPDEST JUMPDEST DUP3 DUP3 MOD SWAP1 POP SWAP3 SWAP2 POP POP JUMP JUMPDEST PUSH1 0x0 PUSH2 0x1371 DUP3 PUSH2 0xE6F JUMP JUMPDEST SWAP2 POP PUSH2 0x137C DUP4 PUSH2 0xE6F JUMP JUMPDEST SWAP3 POP DUP3 DUP3 SUB SWAP1 POP DUP2 DUP2 GT ISZERO PUSH2 0x1394 JUMPI PUSH2 0x1393 PUSH2 0xE79 JUMP JUMPDEST JUMPDEST SWAP3 SWAP2 POP POP JUMP JUMPDEST PUSH32 0x4E487B7100000000000000000000000000000000000000000000000000000000 PUSH1 0x0 MSTORE PUSH1 0x1 PUSH1 0x4 MSTORE PUSH1 0x24 PUSH1 0x0 REVERT JUMPDEST PUSH1 0x0 DUP2 PUSH1 0x1 SHR SWAP1 POP SWAP2 SWAP1 POP JUMP JUMPDEST PUSH1 0x0 DUP1 DUP3 SWAP2 POP DUP4 SWAP1 POP JUMPDEST PUSH1 0x1 DUP6 GT ISZERO PUSH2 0x1420 JUMPI DUP1 DUP7 DIV DUP2 GT ISZERO PUSH2 0x13FC JUMPI PUSH2 0x13FB PUSH2 0xE79 JUMP JUMPDEST JUMPDEST PUSH1 0x1 DUP6 AND ISZERO PUSH2 0x140B JUMPI DUP1 DUP3 MUL SWAP2 POP JUMPDEST DUP1 DUP2 MUL SWAP1 POP PUSH2 0x1419 DUP6 PUSH2 0x13C9 JUMP JUMPDEST SWAP5 POP PUSH2 0x13E0 JUMP JUMPDEST SWAP5 POP SWAP5 SWAP3 POP POP POP JUMP JUMPDEST PUSH1 0x0 DUP3 PUSH2 0x1439 JUMPI PUSH1 0x1 SWAP1 POP PUSH2 0x14F5 JUMP JUMPDEST DUP2 PUSH2 0x1447 JUMPI PUSH1 0x0 SWAP1 POP PUSH2 0x14F5 JUMP JUMPDEST DUP2 PUSH1 0x1 DUP2 EQ PUSH2 0x145D JUMPI PUSH1 0x2 DUP2 EQ PUSH2 0x1467 JUMPI PUSH2 0x1496 JUMP JUMPDEST PUSH1 0x1 SWAP2 POP POP PUSH2 0x14F5 JUMP JUMPDEST PUSH1 0xFF DUP5 GT ISZERO PUSH2 0x1479 JUMPI PUSH2 0x1478 PUSH2 0xE79 JUMP JUMPDEST JUMPDEST DUP4 PUSH1 0x2 EXP SWAP2 POP DUP5 DUP3 GT ISZERO PUSH2 0x1490 JUMPI PUSH2 0x148F PUSH2 0xE79 JUMP JUMPDEST JUMPDEST POP PUSH2 0x14F5 JUMP JUMPDEST POP PUSH1 0x20 DUP4 LT PUSH2 0x133 DUP4 LT AND PUSH1 0x4E DUP5 LT PUSH1 0xB DUP5 LT AND OR ISZERO PUSH2 0x14CB JUMPI DUP3 DUP3 EXP SWAP1 POP DUP4 DUP2 GT ISZERO PUSH2 0x14C6 JUMPI PUSH2 0x14C5 PUSH2 0xE79 JUMP JUMPDEST JUMPDEST PUSH2 0x14F5 JUMP JUMPDEST PUSH2 0x14D8 DUP5 DUP5 DUP5 PUSH1 0x1 PUSH2 0x13D6 JUMP JUMPDEST SWAP3 POP SWAP1 POP DUP2 DUP5 DIV DUP2 GT ISZERO PUSH2 0x14EF JUMPI PUSH2 0x14EE PUSH2 0xE79 JUMP JUMPDEST JUMPDEST DUP2 DUP2 MUL SWAP1 POP JUMPDEST SWAP4 SWAP3 POP POP POP JUMP JUMPDEST PUSH1 0x0 PUSH2 0x1507 DUP3 PUSH2 0xE6F JUMP JUMPDEST SWAP2 POP PUSH2 0x1512 DUP4 PUSH2 0xE6F JUMP JUMPDEST SWAP3 POP PUSH2 0x153F PUSH32 0xFFFFFFFFFFFFFFFFFFFFFFFFFFFFFFFFFFFFFFFFFFFFFFFFFFFFFFFFFFFFFFFF DUP5 DUP5 PUSH2 0x1429 JUMP JUMPDEST SWAP1 POP SWAP3 SWAP2 POP POP JUMP JUMPDEST PUSH1 0x0 DUP2 SWAP1 POP SWAP3 SWAP2 POP POP JUMP JUMPDEST PUSH1 0x0 PUSH2 0x155D DUP3 PUSH2 0x116E JUMP JUMPDEST PUSH2 0x1567 DUP2 DUP6 PUSH2 0x1547 JUMP JUMPDEST SWAP4 POP PUSH2 0x1577 DUP2 DUP6 PUSH1 0x20 DUP7 ADD PUSH2 0x118A JUMP JUMPDEST DUP1 DUP5 ADD SWAP2 POP POP SWAP3 SWAP2 POP POP JUMP JUMPDEST PUSH32 0x2E00000000000000000000000000000000000000000000000000000000000000 DUP2 MSTORE POP JUMP JUMPDEST PUSH32 0x2500000000000000000000000000000000000000000000000000000000000000 DUP2 MSTORE POP JUMP JUMPDEST PUSH1 0x0 PUSH2 0x15DB DUP3 DUP6 PUSH2 0x1552 JUMP JUMPDEST SWAP2 POP PUSH2 0x15E6 DUP3 PUSH2 0x1583 JUMP JUMPDEST PUSH1 0x1 DUP3 ADD SWAP2 POP PUSH2 0x15F6 DUP3 DUP5 PUSH2 0x1552 JUMP JUMPDEST SWAP2 POP PUSH2 0x1601 DUP3 PUSH2 0x15A9 JUMP JUMPDEST PUSH1 0x1 DUP3 ADD SWAP2 POP DUP2 SWAP1 POP SWAP4 SWAP3 POP POP POP JUMP JUMPDEST PUSH32 0x54686520616D6F756E7420000000000000000000000000000000000000000000 DUP2 MSTORE POP JUMP JUMPDEST PUSH32 0x2069732067726561746572207468616E2074686520636F6E7472616374206261 PUSH1 0x0 DUP3 ADD MSTORE PUSH32 0x6C616E6365200000000000000000000000000000000000000000000000000000 PUSH1 0x20 DUP3 ADD MSTORE POP JUMP JUMPDEST PUSH1 0x0 PUSH2 0x1693 PUSH1 0x26 DUP4 PUSH2 0x1547 JUMP JUMPDEST SWAP2 POP PUSH2 0x169E DUP3 PUSH2 0x1637 JUMP JUMPDEST PUSH1 0x26 DUP3 ADD SWAP1 POP SWAP2 SWAP1 POP JUMP JUMPDEST PUSH1 0x0 PUSH2 0x16B4 DUP3 PUSH2 0x1611 JUMP JUMPDEST PUSH1 0xB DUP3 ADD SWAP2 POP PUSH2 0x16C4 DUP3 DUP6 PUSH2 0x1552 JUMP JUMPDEST SWAP2 POP PUSH2 0x16CF DUP3 PUSH2 0x1686 JUMP JUMPDEST SWAP2 POP PUSH2 0x16DB DUP3 DUP5 PUSH2 0x1552 JUMP JUMPDEST SWAP2 POP DUP2 SWAP1 POP SWAP4 SWAP3 POP POP POP JUMP JUMPDEST PUSH32 0x4E487B7100000000000000000000000000000000000000000000000000000000 PUSH1 0x0 MSTORE PUSH1 0x41 PUSH1 0x4 MSTORE PUSH1 0x24 PUSH1 0x0 REVERT JUMPDEST PUSH32 0x4E487B7100000000000000000000000000000000000000000000000000000000 PUSH1 0x0 MSTORE PUSH1 0x32 PUSH1 0x4 MSTORE PUSH1 0x24 PUSH1 0x0 REVERT INVALID LOG2 PUSH5 0x6970667358 0x22 SLT KECCAK256 0xB3 0xBB AND GASLIMIT 0x5C 0xC9 ADDRESS 0xDF PUSH26 0x5934388E790623947EB48292C113950DB8877E179CB40164736F PUSH13 0x63430008110033000000000000 "
				},
				"gasEstimates": {
					"creation": {
						"codeDepositCost": "1202200",
						"executionCost": "47597",
						"totalCost": "1249797"
					},
					"external": {
						"addBonusPrizePool()": "infinite",
						"addContractFunds()": "infinite",
						"addressWinChanceString(address)": "infinite",
						"chooseWinningAddress()": "infinite",
						"disableContract()": "24478",
						"enableContract()": "24434",
						"endLottery()": "infinite",
						"getAccountedContractBalance()": "infinite",
						"getBonusPrizePool()": "2569",
						"getContractBalance()": "428",
						"getContractFunds()": "2547",
						"getExtraContractBalance()": "infinite",
						"getOperatorContractBalance()": "infinite",
						"getPlayerPrizePool()": "2570",
						"isAddressPlaying(address)": "2964",
						"map_address2NumTickets(address)": "2904",
						"map_ticket2Address(uint256)": "2928",
						"randomInt(uint256)": "infinite",
						"removeAllContractFunds()": "infinite",
						"removeContractFunds(uint256)": "infinite",
						"requireContractEnabled()": "2646",
						"totalAddressTickets(address)": "2952",
						"totalTickets()": "2525"
					}
				},
				"methodIdentifiers": {
					"addBonusPrizePool()": "97d47113",
					"addContractFunds()": "008b8d89",
					"addressWinChanceString(address)": "80eaad30",
					"chooseWinningAddress()": "7f798243",
					"disableContract()": "894ba833",
					"enableContract()": "367edd32",
					"endLottery()": "1593a8c7",
					"getAccountedContractBalance()": "d1cdb323",
					"getBonusPrizePool()": "f0d5c534",
					"getContractBalance()": "6f9fb98a",
					"getContractFunds()": "e0cb8a81",
					"getExtraContractBalance()": "2a41a975",
					"getOperatorContractBalance()": "c68298e9",
					"getPlayerPrizePool()": "7c623f7b",
					"isAddressPlaying(address)": "912a90bb",
					"map_address2NumTickets(address)": "1e462c2c",
					"map_ticket2Address(uint256)": "8a5ef8c6",
					"randomInt(uint256)": "12845966",
					"removeAllContractFunds()": "605e16ec",
					"removeContractFunds(uint256)": "944b3fe5",
					"requireContractEnabled()": "3b4ad0e5",
					"totalAddressTickets(address)": "7363ef8a",
					"totalTickets()": "dd11247e"
				}
			},
			"storageLayout": {
				"storage": [
					{
						"astId": 231,
						"contract": "contracts/lottery.sol:Lottery",
						"label": "isContractEnabled",
						"offset": 0,
						"slot": "0",
						"type": "t_bool"
					},
					{
						"astId": 248,
						"contract": "contracts/lottery.sol:Lottery",
						"label": "contractFunds",
						"offset": 0,
						"slot": "1",
						"type": "t_uint256"
					},
					{
						"astId": 250,
						"contract": "contracts/lottery.sol:Lottery",
						"label": "playerPrizePool",
						"offset": 0,
						"slot": "2",
						"type": "t_uint256"
					},
					{
						"astId": 252,
						"contract": "contracts/lottery.sol:Lottery",
						"label": "bonusPrizePool",
						"offset": 0,
						"slot": "3",
						"type": "t_uint256"
					},
					{
						"astId": 254,
						"contract": "contracts/lottery.sol:Lottery",
						"label": "currentTicketNumber",
						"offset": 0,
						"slot": "4",
						"type": "t_uint256"
					},
					{
						"astId": 257,
						"contract": "contracts/lottery.sol:Lottery",
						"label": "ticketPrice",
						"offset": 0,
						"slot": "5",
						"type": "t_uint256"
					},
					{
						"astId": 261,
						"contract": "contracts/lottery.sol:Lottery",
						"label": "map_ticket2Address",
						"offset": 0,
						"slot": "6",
						"type": "t_mapping(t_uint256,t_address_payable)"
					},
					{
						"astId": 265,
						"contract": "contracts/lottery.sol:Lottery",
						"label": "map_address2NumTickets",
						"offset": 0,
						"slot": "7",
						"type": "t_mapping(t_address,t_uint256)"
					}
				],
				"types": {
					"t_address": {
						"encoding": "inplace",
						"label": "address",
						"numberOfBytes": "20"
					},
					"t_address_payable": {
						"encoding": "inplace",
						"label": "address payable",
						"numberOfBytes": "20"
					},
					"t_bool": {
						"encoding": "inplace",
						"label": "bool",
						"numberOfBytes": "1"
					},
					"t_mapping(t_address,t_uint256)": {
						"encoding": "mapping",
						"key": "t_address",
						"label": "mapping(address => uint256)",
						"numberOfBytes": "32",
						"value": "t_uint256"
					},
					"t_mapping(t_uint256,t_address_payable)": {
						"encoding": "mapping",
						"key": "t_uint256",
						"label": "mapping(uint256 => address payable)",
						"numberOfBytes": "32",
						"value": "t_address_payable"
					},
					"t_uint256": {
						"encoding": "inplace",
						"label": "uint256",
						"numberOfBytes": "32"
					}
				}
			},
			"userdoc": {
				"kind": "user",
				"methods": {},
				"version": 1
			}
		}
	}
}