{
	"contracts/lottery.sol": {
		"Lottery": {
			"abi": [
				{
					"inputs": [],
					"stateMutability": "payable",
					"type": "constructor"
				},
				{
					"inputs": [],
					"name": "chooseWinningAddress",
					"outputs": [
						{
							"internalType": "address payable",
							"name": "",
							"type": "address"
						}
					],
					"stateMutability": "view",
					"type": "function"
				},
				{
					"inputs": [],
					"name": "endLottery",
					"outputs": [],
					"stateMutability": "nonpayable",
					"type": "function"
				},
				{
					"inputs": [],
					"name": "fundContract",
					"outputs": [],
					"stateMutability": "payable",
					"type": "function"
				},
				{
					"inputs": [],
					"name": "fundLottery",
					"outputs": [],
					"stateMutability": "payable",
					"type": "function"
				},
				{
					"inputs": [],
					"name": "getBalance",
					"outputs": [
						{
							"internalType": "uint256",
							"name": "",
							"type": "uint256"
						}
					],
					"stateMutability": "view",
					"type": "function"
				},
				{
					"inputs": [
						{
							"internalType": "address payable",
							"name": "playerAddress",
							"type": "address"
						}
					],
					"name": "isAddressPlaying",
					"outputs": [
						{
							"internalType": "bool",
							"name": "",
							"type": "bool"
						}
					],
					"stateMutability": "view",
					"type": "function"
				},
				{
					"inputs": [
						{
							"internalType": "uint256",
							"name": "",
							"type": "uint256"
						}
					],
					"name": "list_playerAddress",
					"outputs": [
						{
							"internalType": "address payable",
							"name": "",
							"type": "address"
						}
					],
					"stateMutability": "view",
					"type": "function"
				},
				{
					"inputs": [
						{
							"internalType": "address",
							"name": "",
							"type": "address"
						}
					],
					"name": "map_isPlaying",
					"outputs": [
						{
							"internalType": "bool",
							"name": "",
							"type": "bool"
						}
					],
					"stateMutability": "view",
					"type": "function"
				},
				{
					"inputs": [
						{
							"internalType": "uint256",
							"name": "N",
							"type": "uint256"
						}
					],
					"name": "randomInt",
					"outputs": [
						{
							"internalType": "uint256",
							"name": "",
							"type": "uint256"
						}
					],
					"stateMutability": "view",
					"type": "function"
				},
				{
					"inputs": [
						{
							"internalType": "address payable",
							"name": "playerAddress",
							"type": "address"
						}
					],
					"name": "registerAddress",
					"outputs": [],
					"stateMutability": "nonpayable",
					"type": "function"
				},
				{
					"inputs": [
						{
							"internalType": "address",
							"name": "account",
							"type": "address"
						}
					],
					"name": "toString",
					"outputs": [
						{
							"internalType": "string",
							"name": "",
							"type": "string"
						}
					],
					"stateMutability": "pure",
					"type": "function"
				},
				{
					"inputs": [
						{
							"internalType": "uint256",
							"name": "value",
							"type": "uint256"
						}
					],
					"name": "toString",
					"outputs": [
						{
							"internalType": "string",
							"name": "",
							"type": "string"
						}
					],
					"stateMutability": "pure",
					"type": "function"
				},
				{
					"inputs": [
						{
							"internalType": "bytes",
							"name": "data",
							"type": "bytes"
						}
					],
					"name": "toString",
					"outputs": [
						{
							"internalType": "string",
							"name": "",
							"type": "string"
						}
					],
					"stateMutability": "pure",
					"type": "function"
				},
				{
					"inputs": [
						{
							"internalType": "bytes32",
							"name": "value",
							"type": "bytes32"
						}
					],
					"name": "toString",
					"outputs": [
						{
							"internalType": "string",
							"name": "",
							"type": "string"
						}
					],
					"stateMutability": "pure",
					"type": "function"
				},
				{
					"inputs": [
						{
							"internalType": "uint256",
							"name": "amount",
							"type": "uint256"
						}
					],
					"name": "withdraw",
					"outputs": [],
					"stateMutability": "nonpayable",
					"type": "function"
				},
				{
					"inputs": [],
					"name": "withdrawAll",
					"outputs": [],
					"stateMutability": "nonpayable",
					"type": "function"
				}
			],
			"devdoc": {
				"custom:dev-run-script": "./scripts/deploy_with_ethers.ts",
				"details": "A blockchain lottery",
				"kind": "dev",
				"methods": {},
				"title": "Lottery",
				"version": 1
			},
			"evm": {
				"assembly": "    /* \"contracts/lottery.sol\":248:5285  contract Lottery {... */\n  mstore(0x40, 0x80)\n  dataSize(sub_0)\n  dup1\n  dataOffset(sub_0)\n  0x00\n  codecopy\n  0x00\n  return\nstop\n\nsub_0: assembly {\n        /* \"contracts/lottery.sol\":248:5285  contract Lottery {... */\n      mstore(0x40, 0x80)\n      jumpi(tag_1, lt(calldatasize, 0x04))\n      shr(0xe0, calldataload(0x00))\n      dup1\n      0x7f798243\n      gt\n      tag_18\n      jumpi\n      dup1\n      0xb11a19e8\n      gt\n      tag_19\n      jumpi\n      dup1\n      0xb11a19e8\n      eq\n      tag_14\n      jumpi\n      dup1\n      0xb5cc4539\n      eq\n      tag_15\n      jumpi\n      dup1\n      0xbd097e21\n      eq\n      tag_16\n      jumpi\n      dup1\n      0xbff82dee\n      eq\n      tag_17\n      jumpi\n      jump(tag_1)\n    tag_19:\n      dup1\n      0x7f798243\n      eq\n      tag_10\n      jumpi\n      dup1\n      0x853828b6\n      eq\n      tag_11\n      jumpi\n      dup1\n      0x912a90bb\n      eq\n      tag_12\n      jumpi\n      dup1\n      0xa8a54008\n      eq\n      tag_13\n      jumpi\n      jump(tag_1)\n    tag_18:\n      dup1\n      0x2e1a7d4d\n      gt\n      tag_20\n      jumpi\n      dup1\n      0x2e1a7d4d\n      eq\n      tag_6\n      jumpi\n      dup1\n      0x56ca623e\n      eq\n      tag_7\n      jumpi\n      dup1\n      0x6900a3ae\n      eq\n      tag_8\n      jumpi\n      dup1\n      0x71aad10d\n      eq\n      tag_9\n      jumpi\n      jump(tag_1)\n    tag_20:\n      dup1\n      0x12065fe0\n      eq\n      tag_2\n      jumpi\n      dup1\n      0x12845966\n      eq\n      tag_3\n      jumpi\n      dup1\n      0x1593a8c7\n      eq\n      tag_4\n      jumpi\n      dup1\n      0x27dff143\n      eq\n      tag_5\n      jumpi\n    tag_1:\n      0x00\n      dup1\n      revert\n        /* \"contracts/lottery.sol\":4061:4157  function getBalance() public view returns (uint) {... */\n    tag_2:\n      callvalue\n      dup1\n      iszero\n      tag_21\n      jumpi\n      0x00\n      dup1\n      revert\n    tag_21:\n      pop\n      tag_22\n      tag_23\n      jump\t// in\n    tag_22:\n      mload(0x40)\n      tag_24\n      swap2\n      swap1\n      tag_25\n      jump\t// in\n    tag_24:\n      mload(0x40)\n      dup1\n      swap2\n      sub\n      swap1\n      return\n        /* \"contracts/lottery.sol\":4165:4406  function randomInt(uint N) public view returns (uint) {... */\n    tag_3:\n      callvalue\n      dup1\n      iszero\n      tag_26\n      jumpi\n      0x00\n      dup1\n      revert\n    tag_26:\n      pop\n      tag_27\n      0x04\n      dup1\n      calldatasize\n      sub\n      dup2\n      add\n      swap1\n      tag_28\n      swap2\n      swap1\n      tag_29\n      jump\t// in\n    tag_28:\n      tag_30\n      jump\t// in\n    tag_27:\n      mload(0x40)\n      tag_31\n      swap2\n      swap1\n      tag_25\n      jump\t// in\n    tag_31:\n      mload(0x40)\n      dup1\n      swap2\n      sub\n      swap1\n      return\n        /* \"contracts/lottery.sol\":2674:3263  function endLottery() public {... */\n    tag_4:\n      callvalue\n      dup1\n      iszero\n      tag_32\n      jumpi\n      0x00\n      dup1\n      revert\n    tag_32:\n      pop\n      tag_33\n      tag_34\n      jump\t// in\n    tag_33:\n      stop\n        /* \"contracts/lottery.sol\":788:831  address payable[] public list_playerAddress */\n    tag_5:\n      callvalue\n      dup1\n      iszero\n      tag_35\n      jumpi\n      0x00\n      dup1\n      revert\n    tag_35:\n      pop\n      tag_36\n      0x04\n      dup1\n      calldatasize\n      sub\n      dup2\n      add\n      swap1\n      tag_37\n      swap2\n      swap1\n      tag_29\n      jump\t// in\n    tag_37:\n      tag_38\n      jump\t// in\n    tag_36:\n      mload(0x40)\n      tag_39\n      swap2\n      swap1\n      tag_40\n      jump\t// in\n    tag_39:\n      mload(0x40)\n      dup1\n      swap2\n      sub\n      swap1\n      return\n        /* \"contracts/lottery.sol\":3690:4053  function withdraw(uint amount) public {... */\n    tag_6:\n      callvalue\n      dup1\n      iszero\n      tag_41\n      jumpi\n      0x00\n      dup1\n      revert\n    tag_41:\n      pop\n      tag_42\n      0x04\n      dup1\n      calldatasize\n      sub\n      dup2\n      add\n      swap1\n      tag_43\n      swap2\n      swap1\n      tag_29\n      jump\t// in\n    tag_43:\n      tag_44\n      jump\t// in\n    tag_42:\n      stop\n        /* \"contracts/lottery.sol\":4414:4545  function toString(address account) public pure returns(string memory) {... */\n    tag_7:\n      callvalue\n      dup1\n      iszero\n      tag_45\n      jumpi\n      0x00\n      dup1\n      revert\n    tag_45:\n      pop\n      tag_46\n      0x04\n      dup1\n      calldatasize\n      sub\n      dup2\n      add\n      swap1\n      tag_47\n      swap2\n      swap1\n      tag_48\n      jump\t// in\n    tag_47:\n      tag_49\n      jump\t// in\n    tag_46:\n      mload(0x40)\n      tag_50\n      swap2\n      swap1\n      tag_51\n      jump\t// in\n    tag_50:\n      mload(0x40)\n      dup1\n      swap2\n      sub\n      swap1\n      return\n        /* \"contracts/lottery.sol\":4553:4680  function toString(uint256 value) public pure returns(string memory) {... */\n    tag_8:\n      callvalue\n      dup1\n      iszero\n      tag_52\n      jumpi\n      0x00\n      dup1\n      revert\n    tag_52:\n      pop\n      tag_53\n      0x04\n      dup1\n      calldatasize\n      sub\n      dup2\n      add\n      swap1\n      tag_54\n      swap2\n      swap1\n      tag_29\n      jump\t// in\n    tag_54:\n      tag_55\n      jump\t// in\n    tag_53:\n      mload(0x40)\n      tag_56\n      swap2\n      swap1\n      tag_51\n      jump\t// in\n    tag_56:\n      mload(0x40)\n      dup1\n      swap2\n      sub\n      swap1\n      return\n        /* \"contracts/lottery.sol\":4823:5282  function toString(bytes memory data) public pure returns(string memory) {... */\n    tag_9:\n      callvalue\n      dup1\n      iszero\n      tag_57\n      jumpi\n      0x00\n      dup1\n      revert\n    tag_57:\n      pop\n      tag_58\n      0x04\n      dup1\n      calldatasize\n      sub\n      dup2\n      add\n      swap1\n      tag_59\n      swap2\n      swap1\n      tag_60\n      jump\t// in\n    tag_59:\n      tag_61\n      jump\t// in\n    tag_58:\n      mload(0x40)\n      tag_62\n      swap2\n      swap1\n      tag_51\n      jump\t// in\n    tag_62:\n      mload(0x40)\n      dup1\n      swap2\n      sub\n      swap1\n      return\n        /* \"contracts/lottery.sol\":1871:2666  function chooseWinningAddress() public view returns (address payable) {... */\n    tag_10:\n      callvalue\n      dup1\n      iszero\n      tag_63\n      jumpi\n      0x00\n      dup1\n      revert\n    tag_63:\n      pop\n      tag_64\n      tag_65\n      jump\t// in\n    tag_64:\n      mload(0x40)\n      tag_66\n      swap2\n      swap1\n      tag_40\n      jump\t// in\n    tag_66:\n      mload(0x40)\n      dup1\n      swap2\n      sub\n      swap1\n      return\n        /* \"contracts/lottery.sol\":3529:3682  function withdrawAll() public {... */\n    tag_11:\n      callvalue\n      dup1\n      iszero\n      tag_67\n      jumpi\n      0x00\n      dup1\n      revert\n    tag_67:\n      pop\n      tag_68\n      tag_69\n      jump\t// in\n    tag_68:\n      stop\n        /* \"contracts/lottery.sol\":1725:1863  function isAddressPlaying(address payable playerAddress) public view returns (bool) {... */\n    tag_12:\n      callvalue\n      dup1\n      iszero\n      tag_70\n      jumpi\n      0x00\n      dup1\n      revert\n    tag_70:\n      pop\n      tag_71\n      0x04\n      dup1\n      calldatasize\n      sub\n      dup2\n      add\n      swap1\n      tag_72\n      swap2\n      swap1\n      tag_73\n      jump\t// in\n    tag_72:\n      tag_74\n      jump\t// in\n    tag_71:\n      mload(0x40)\n      tag_75\n      swap2\n      swap1\n      tag_76\n      jump\t// in\n    tag_75:\n      mload(0x40)\n      dup1\n      swap2\n      sub\n      swap1\n      return\n        /* \"contracts/lottery.sol\":1243:1713  function registerAddress(address payable playerAddress) public {... */\n    tag_13:\n      callvalue\n      dup1\n      iszero\n      tag_77\n      jumpi\n      0x00\n      dup1\n      revert\n    tag_77:\n      pop\n      tag_78\n      0x04\n      dup1\n      calldatasize\n      sub\n      dup2\n      add\n      swap1\n      tag_79\n      swap2\n      swap1\n      tag_73\n      jump\t// in\n    tag_79:\n      tag_80\n      jump\t// in\n    tag_78:\n      stop\n        /* \"contracts/lottery.sol\":4688:4815  function toString(bytes32 value) public pure returns(string memory) {... */\n    tag_14:\n      callvalue\n      dup1\n      iszero\n      tag_81\n      jumpi\n      0x00\n      dup1\n      revert\n    tag_81:\n      pop\n      tag_82\n      0x04\n      dup1\n      calldatasize\n      sub\n      dup2\n      add\n      swap1\n      tag_83\n      swap2\n      swap1\n      tag_84\n      jump\t// in\n    tag_83:\n      tag_85\n      jump\t// in\n    tag_82:\n      mload(0x40)\n      tag_86\n      swap2\n      swap1\n      tag_51\n      jump\t// in\n    tag_86:\n      mload(0x40)\n      dup1\n      swap2\n      sub\n      swap1\n      return\n        /* \"contracts/lottery.sol\":872:1235  function fundLottery() external payable {... */\n    tag_15:\n      tag_87\n      tag_88\n      jump\t// in\n    tag_87:\n      stop\n        /* \"contracts/lottery.sol\":3271:3521  function fundContract() external payable {... */\n    tag_16:\n      tag_89\n      tag_90\n      jump\t// in\n    tag_89:\n      stop\n        /* \"contracts/lottery.sol\":736:781  mapping(address => bool) public map_isPlaying */\n    tag_17:\n      callvalue\n      dup1\n      iszero\n      tag_91\n      jumpi\n      0x00\n      dup1\n      revert\n    tag_91:\n      pop\n      tag_92\n      0x04\n      dup1\n      calldatasize\n      sub\n      dup2\n      add\n      swap1\n      tag_93\n      swap2\n      swap1\n      tag_48\n      jump\t// in\n    tag_93:\n      tag_94\n      jump\t// in\n    tag_92:\n      mload(0x40)\n      tag_95\n      swap2\n      swap1\n      tag_76\n      jump\t// in\n    tag_95:\n      mload(0x40)\n      dup1\n      swap2\n      sub\n      swap1\n      return\n        /* \"contracts/lottery.sol\":4061:4157  function getBalance() public view returns (uint) {... */\n    tag_23:\n        /* \"contracts/lottery.sol\":4104:4108  uint */\n      0x00\n        /* \"contracts/lottery.sol\":4128:4149  address(this).balance */\n      selfbalance\n        /* \"contracts/lottery.sol\":4121:4149  return address(this).balance */\n      swap1\n      pop\n        /* \"contracts/lottery.sol\":4061:4157  function getBalance() public view returns (uint) {... */\n      swap1\n      jump\t// out\n        /* \"contracts/lottery.sol\":4165:4406  function randomInt(uint N) public view returns (uint) {... */\n    tag_30:\n        /* \"contracts/lottery.sol\":4213:4217  uint */\n      0x00\n        /* \"contracts/lottery.sol\":4280:4295  uint randomHash */\n      dup1\n        /* \"contracts/lottery.sol\":4330:4346  block.difficulty */\n      difficulty\n        /* \"contracts/lottery.sol\":4348:4363  block.timestamp */\n      timestamp\n        /* \"contracts/lottery.sol\":4313:4364  abi.encodePacked(block.difficulty, block.timestamp) */\n      add(0x20, mload(0x40))\n      tag_98\n      swap3\n      swap2\n      swap1\n      tag_99\n      jump\t// in\n    tag_98:\n      mload(0x40)\n      0x20\n      dup2\n      dup4\n      sub\n      sub\n      dup2\n      mstore\n      swap1\n      0x40\n      mstore\n        /* \"contracts/lottery.sol\":4303:4365  keccak256(abi.encodePacked(block.difficulty, block.timestamp)) */\n      dup1\n      mload\n      swap1\n      0x20\n      add\n      keccak256\n        /* \"contracts/lottery.sol\":4298:4366  uint(keccak256(abi.encodePacked(block.difficulty, block.timestamp))) */\n      0x00\n      shr\n        /* \"contracts/lottery.sol\":4280:4366  uint randomHash = uint(keccak256(abi.encodePacked(block.difficulty, block.timestamp))) */\n      swap1\n      pop\n        /* \"contracts/lottery.sol\":4397:4398  N */\n      dup3\n        /* \"contracts/lottery.sol\":4384:4394  randomHash */\n      dup2\n        /* \"contracts/lottery.sol\":4384:4398  randomHash % N */\n      tag_100\n      swap2\n      swap1\n      tag_101\n      jump\t// in\n    tag_100:\n        /* \"contracts/lottery.sol\":4377:4398  return randomHash % N */\n      swap2\n      pop\n      pop\n        /* \"contracts/lottery.sol\":4165:4406  function randomInt(uint N) public view returns (uint) {... */\n      swap2\n      swap1\n      pop\n      jump\t// out\n        /* \"contracts/lottery.sol\":2674:3263  function endLottery() public {... */\n    tag_34:\n        /* \"contracts/lottery.sol\":2714:2744  address payable winningAddress */\n      0x00\n        /* \"contracts/lottery.sol\":2747:2769  chooseWinningAddress() */\n      tag_103\n        /* \"contracts/lottery.sol\":2747:2767  chooseWinningAddress */\n      tag_65\n        /* \"contracts/lottery.sol\":2747:2769  chooseWinningAddress() */\n      jump\t// in\n    tag_103:\n        /* \"contracts/lottery.sol\":2714:2769  address payable winningAddress = chooseWinningAddress() */\n      swap1\n      pop\n        /* \"contracts/lottery.sol\":319:361  0x0000000000000000000000000000000000000000 */\n      0x00\n        /* \"contracts/lottery.sol\":2783:2812  winningAddress == zeroAddress */\n      0xffffffffffffffffffffffffffffffffffffffff\n      and\n        /* \"contracts/lottery.sol\":2783:2797  winningAddress */\n      dup2\n        /* \"contracts/lottery.sol\":2783:2812  winningAddress == zeroAddress */\n      0xffffffffffffffffffffffffffffffffffffffff\n      and\n      sub\n        /* \"contracts/lottery.sol\":2780:3256  if(winningAddress == zeroAddress) {... */\n      iszero\n      tag_105\n      jumpi\n        /* \"contracts/lottery.sol\":2971:2989  uint operatorPrize */\n      0x00\n        /* \"contracts/lottery.sol\":3019:3022  100 */\n      0x64\n        /* \"contracts/lottery.sol\":601:603  10 */\n      0x0a\n        /* \"contracts/lottery.sol\":2992:3002  totalPrize */\n      sload(0x00)\n        /* \"contracts/lottery.sol\":2992:3016  totalPrize * operatorCut */\n      tag_106\n      swap2\n      swap1\n      tag_107\n      jump\t// in\n    tag_106:\n        /* \"contracts/lottery.sol\":2992:3022  totalPrize * operatorCut / 100 */\n      tag_108\n      swap2\n      swap1\n      tag_109\n      jump\t// in\n    tag_108:\n        /* \"contracts/lottery.sol\":2971:3022  uint operatorPrize = totalPrize * operatorCut / 100 */\n      swap1\n      pop\n        /* \"contracts/lottery.sol\":523:565  0xAb8483F64d9C6d1EcF9b849Ae677dD3315835cb2 */\n      0xab8483f64d9c6d1ecf9b849ae677dd3315835cb2\n        /* \"contracts/lottery.sol\":3037:3061  operatorAddress.transfer */\n      0xffffffffffffffffffffffffffffffffffffffff\n      and\n        /* \"contracts/lottery.sol\":3037:3076  operatorAddress.transfer(operatorPrize) */\n      0x08fc\n        /* \"contracts/lottery.sol\":3062:3075  operatorPrize */\n      dup3\n        /* \"contracts/lottery.sol\":3037:3076  operatorAddress.transfer(operatorPrize) */\n      swap1\n      dup2\n      iszero\n      mul\n      swap1\n      mload(0x40)\n      0x00\n      mload(0x40)\n      dup1\n      dup4\n      sub\n      dup2\n      dup6\n      dup9\n      dup9\n      call\n      swap4\n      pop\n      pop\n      pop\n      pop\n      iszero\n      dup1\n      iszero\n      tag_111\n      jumpi\n      returndatasize\n      0x00\n      dup1\n      returndatacopy\n      revert(0x00, returndatasize)\n    tag_111:\n      pop\n        /* \"contracts/lottery.sol\":3105:3118  operatorPrize */\n      dup1\n        /* \"contracts/lottery.sol\":3091:3101  totalPrize */\n      0x00\n      dup1\n        /* \"contracts/lottery.sol\":3091:3118  totalPrize -= operatorPrize */\n      dup3\n      dup3\n      sload\n      tag_112\n      swap2\n      swap1\n      tag_113\n      jump\t// in\n    tag_112:\n      swap3\n      pop\n      pop\n      dup2\n      swap1\n      sstore\n      pop\n        /* \"contracts/lottery.sol\":3180:3194  winningAddress */\n      dup2\n        /* \"contracts/lottery.sol\":3180:3203  winningAddress.transfer */\n      0xffffffffffffffffffffffffffffffffffffffff\n      and\n        /* \"contracts/lottery.sol\":3180:3215  winningAddress.transfer(totalPrize) */\n      0x08fc\n        /* \"contracts/lottery.sol\":3204:3214  totalPrize */\n      sload(0x00)\n        /* \"contracts/lottery.sol\":3180:3215  winningAddress.transfer(totalPrize) */\n      swap1\n      dup2\n      iszero\n      mul\n      swap1\n      mload(0x40)\n      0x00\n      mload(0x40)\n      dup1\n      dup4\n      sub\n      dup2\n      dup6\n      dup9\n      dup9\n      call\n      swap4\n      pop\n      pop\n      pop\n      pop\n      iszero\n      dup1\n      iszero\n      tag_115\n      jumpi\n      returndatasize\n      0x00\n      dup1\n      returndatacopy\n      revert(0x00, returndatasize)\n    tag_115:\n      pop\n        /* \"contracts/lottery.sol\":3243:3244  0 */\n      0x00\n        /* \"contracts/lottery.sol\":3230:3240  totalPrize */\n      dup1\n        /* \"contracts/lottery.sol\":3230:3244  totalPrize = 0 */\n      dup2\n      swap1\n      sstore\n      pop\n        /* \"contracts/lottery.sol\":2892:3256  {... */\n      pop\n        /* \"contracts/lottery.sol\":2780:3256  if(winningAddress == zeroAddress) {... */\n    tag_105:\n        /* \"contracts/lottery.sol\":2703:3263  {... */\n      pop\n        /* \"contracts/lottery.sol\":2674:3263  function endLottery() public {... */\n      jump\t// out\n        /* \"contracts/lottery.sol\":788:831  address payable[] public list_playerAddress */\n    tag_38:\n      0x02\n      dup2\n      dup2\n      sload\n      dup2\n      lt\n      tag_116\n      jumpi\n      0x00\n      dup1\n      revert\n    tag_116:\n      swap1\n      0x00\n      mstore\n      keccak256(0x00, 0x20)\n      add\n      0x00\n      swap2\n      pop\n      sload\n      swap1\n      0x0100\n      exp\n      swap1\n      div\n      0xffffffffffffffffffffffffffffffffffffffff\n      and\n      dup2\n      jump\t// out\n        /* \"contracts/lottery.sol\":3690:4053  function withdraw(uint amount) public {... */\n    tag_44:\n        /* \"contracts/lottery.sol\":3813:3825  uint balance */\n      0x00\n        /* \"contracts/lottery.sol\":3828:3840  getBalance() */\n      tag_119\n        /* \"contracts/lottery.sol\":3828:3838  getBalance */\n      tag_23\n        /* \"contracts/lottery.sol\":3828:3840  getBalance() */\n      jump\t// in\n    tag_119:\n        /* \"contracts/lottery.sol\":3813:3840  uint balance = getBalance() */\n      swap1\n      pop\n        /* \"contracts/lottery.sol\":3869:3876  balance */\n      dup1\n        /* \"contracts/lottery.sol\":3859:3865  amount */\n      dup3\n        /* \"contracts/lottery.sol\":3859:3876  amount <= balance */\n      gt\n      iszero\n        /* \"contracts/lottery.sol\":3907:3931  Strings.toString(amount) */\n      tag_120\n        /* \"contracts/lottery.sol\":3924:3930  amount */\n      dup4\n        /* \"contracts/lottery.sol\":3907:3923  Strings.toString */\n      tag_121\n        /* \"contracts/lottery.sol\":3907:3931  Strings.toString(amount) */\n      jump\t// in\n    tag_120:\n        /* \"contracts/lottery.sol\":3975:4000  Strings.toString(balance) */\n      tag_122\n        /* \"contracts/lottery.sol\":3992:3999  balance */\n      dup4\n        /* \"contracts/lottery.sol\":3975:3991  Strings.toString */\n      tag_121\n        /* \"contracts/lottery.sol\":3975:4000  Strings.toString(balance) */\n      jump\t// in\n    tag_122:\n        /* \"contracts/lottery.sol\":3878:4001  string.concat(\"The amount \", Strings.toString(amount), \" is greater than the contract balance \", Strings.toString(balance)) */\n      add(0x20, mload(0x40))\n      tag_123\n      swap3\n      swap2\n      swap1\n      tag_124\n      jump\t// in\n    tag_123:\n      mload(0x40)\n      0x20\n      dup2\n      dup4\n      sub\n      sub\n      dup2\n      mstore\n      swap1\n      0x40\n      mstore\n        /* \"contracts/lottery.sol\":3851:4002  require(amount <= balance, string.concat(\"The amount \", Strings.toString(amount), \" is greater than the contract balance \", Strings.toString(balance))) */\n      swap1\n      tag_125\n      jumpi\n      mload(0x40)\n      0x08c379a000000000000000000000000000000000000000000000000000000000\n      dup2\n      mstore\n      0x04\n      add\n      tag_126\n      swap2\n      swap1\n      tag_51\n      jump\t// in\n    tag_126:\n      mload(0x40)\n      dup1\n      swap2\n      sub\n      swap1\n      revert\n    tag_125:\n      pop\n        /* \"contracts/lottery.sol\":523:565  0xAb8483F64d9C6d1EcF9b849Ae677dD3315835cb2 */\n      0xab8483f64d9c6d1ecf9b849ae677dd3315835cb2\n        /* \"contracts/lottery.sol\":4013:4037  operatorAddress.transfer */\n      0xffffffffffffffffffffffffffffffffffffffff\n      and\n        /* \"contracts/lottery.sol\":4013:4045  operatorAddress.transfer(amount) */\n      0x08fc\n        /* \"contracts/lottery.sol\":4038:4044  amount */\n      dup4\n        /* \"contracts/lottery.sol\":4013:4045  operatorAddress.transfer(amount) */\n      swap1\n      dup2\n      iszero\n      mul\n      swap1\n      mload(0x40)\n      0x00\n      mload(0x40)\n      dup1\n      dup4\n      sub\n      dup2\n      dup6\n      dup9\n      dup9\n      call\n      swap4\n      pop\n      pop\n      pop\n      pop\n      iszero\n      dup1\n      iszero\n      tag_128\n      jumpi\n      returndatasize\n      0x00\n      dup1\n      returndatacopy\n      revert(0x00, returndatasize)\n    tag_128:\n      pop\n        /* \"contracts/lottery.sol\":3728:4053  {... */\n      pop\n        /* \"contracts/lottery.sol\":3690:4053  function withdraw(uint amount) public {... */\n      pop\n      jump\t// out\n        /* \"contracts/lottery.sol\":4414:4545  function toString(address account) public pure returns(string memory) {... */\n    tag_49:\n        /* \"contracts/lottery.sol\":4469:4482  string memory */\n      0x60\n        /* \"contracts/lottery.sol\":4502:4537  toString(abi.encodePacked(account)) */\n      tag_130\n        /* \"contracts/lottery.sol\":4528:4535  account */\n      dup3\n        /* \"contracts/lottery.sol\":4511:4536  abi.encodePacked(account) */\n      add(0x20, mload(0x40))\n      tag_131\n      swap2\n      swap1\n      tag_132\n      jump\t// in\n    tag_131:\n      mload(0x40)\n      0x20\n      dup2\n      dup4\n      sub\n      sub\n      dup2\n      mstore\n      swap1\n      0x40\n      mstore\n        /* \"contracts/lottery.sol\":4502:4510  toString */\n      tag_61\n        /* \"contracts/lottery.sol\":4502:4537  toString(abi.encodePacked(account)) */\n      jump\t// in\n    tag_130:\n        /* \"contracts/lottery.sol\":4495:4537  return toString(abi.encodePacked(account)) */\n      swap1\n      pop\n        /* \"contracts/lottery.sol\":4414:4545  function toString(address account) public pure returns(string memory) {... */\n      swap2\n      swap1\n      pop\n      jump\t// out\n        /* \"contracts/lottery.sol\":4553:4680  function toString(uint256 value) public pure returns(string memory) {... */\n    tag_55:\n        /* \"contracts/lottery.sol\":4606:4619  string memory */\n      0x60\n        /* \"contracts/lottery.sol\":4639:4672  toString(abi.encodePacked(value)) */\n      tag_134\n        /* \"contracts/lottery.sol\":4665:4670  value */\n      dup3\n        /* \"contracts/lottery.sol\":4648:4671  abi.encodePacked(value) */\n      add(0x20, mload(0x40))\n      tag_135\n      swap2\n      swap1\n      tag_136\n      jump\t// in\n    tag_135:\n      mload(0x40)\n      0x20\n      dup2\n      dup4\n      sub\n      sub\n      dup2\n      mstore\n      swap1\n      0x40\n      mstore\n        /* \"contracts/lottery.sol\":4639:4647  toString */\n      tag_61\n        /* \"contracts/lottery.sol\":4639:4672  toString(abi.encodePacked(value)) */\n      jump\t// in\n    tag_134:\n        /* \"contracts/lottery.sol\":4632:4672  return toString(abi.encodePacked(value)) */\n      swap1\n      pop\n        /* \"contracts/lottery.sol\":4553:4680  function toString(uint256 value) public pure returns(string memory) {... */\n      swap2\n      swap1\n      pop\n      jump\t// out\n        /* \"contracts/lottery.sol\":4823:5282  function toString(bytes memory data) public pure returns(string memory) {... */\n    tag_61:\n        /* \"contracts/lottery.sol\":4880:4893  string memory */\n      0x60\n        /* \"contracts/lottery.sol\":4906:4927  bytes memory alphabet */\n      0x00\n        /* \"contracts/lottery.sol\":4906:4948  bytes memory alphabet = \"0123456789abcdef\" */\n      mload(0x40)\n      dup1\n      0x40\n      add\n      0x40\n      mstore\n      dup1\n      0x10\n      dup2\n      mstore\n      0x20\n      add\n      0x3031323334353637383961626364656600000000000000000000000000000000\n      dup2\n      mstore\n      pop\n      swap1\n      pop\n        /* \"contracts/lottery.sol\":4961:4977  bytes memory str */\n      0x00\n        /* \"contracts/lottery.sol\":5008:5009  2 */\n      0x02\n        /* \"contracts/lottery.sol\":4994:4998  data */\n      dup5\n        /* \"contracts/lottery.sol\":4994:5005  data.length */\n      mload\n        /* \"contracts/lottery.sol\":4994:5009  data.length * 2 */\n      tag_138\n      swap2\n      swap1\n      tag_107\n      jump\t// in\n    tag_138:\n        /* \"contracts/lottery.sol\":4990:4991  2 */\n      0x02\n        /* \"contracts/lottery.sol\":4990:5009  2 + data.length * 2 */\n      tag_139\n      swap2\n      swap1\n      tag_140\n      jump\t// in\n    tag_139:\n        /* \"contracts/lottery.sol\":4980:5010  new bytes(2 + data.length * 2) */\n      0xffffffffffffffff\n      dup2\n      gt\n      iszero\n      tag_141\n      jumpi\n      tag_142\n      tag_143\n      jump\t// in\n    tag_142:\n    tag_141:\n      mload(0x40)\n      swap1\n      dup1\n      dup3\n      mstore\n      dup1\n      0x1f\n      add\n      not(0x1f)\n      and\n      0x20\n      add\n      dup3\n      add\n      0x40\n      mstore\n      dup1\n      iszero\n      tag_144\n      jumpi\n      dup2\n      0x20\n      add\n      0x01\n      dup3\n      mul\n      dup1\n      calldatasize\n      dup4\n      calldatacopy\n      dup1\n      dup3\n      add\n      swap2\n      pop\n      pop\n      swap1\n      pop\n    tag_144:\n      pop\n        /* \"contracts/lottery.sol\":4961:5010  bytes memory str = new bytes(2 + data.length * 2) */\n      swap1\n      pop\n        /* \"contracts/lottery.sol\":5021:5033  str[0] = \"0\" */\n      0x3000000000000000000000000000000000000000000000000000000000000000\n        /* \"contracts/lottery.sol\":5021:5024  str */\n      dup2\n        /* \"contracts/lottery.sol\":5025:5026  0 */\n      0x00\n        /* \"contracts/lottery.sol\":5021:5027  str[0] */\n      dup2\n      mload\n      dup2\n      lt\n      tag_145\n      jumpi\n      tag_146\n      tag_147\n      jump\t// in\n    tag_146:\n    tag_145:\n      0x20\n      add\n      add\n        /* \"contracts/lottery.sol\":5021:5033  str[0] = \"0\" */\n      swap1\n      not(0xffffffffffffffffffffffffffffffffffffffffffffffffffffffffffffff)\n      and\n      swap1\n      dup2\n      0x00\n      byte\n      swap1\n      mstore8\n      pop\n        /* \"contracts/lottery.sol\":5044:5056  str[1] = \"x\" */\n      0x7800000000000000000000000000000000000000000000000000000000000000\n        /* \"contracts/lottery.sol\":5044:5047  str */\n      dup2\n        /* \"contracts/lottery.sol\":5048:5049  1 */\n      0x01\n        /* \"contracts/lottery.sol\":5044:5050  str[1] */\n      dup2\n      mload\n      dup2\n      lt\n      tag_148\n      jumpi\n      tag_149\n      tag_147\n      jump\t// in\n    tag_149:\n    tag_148:\n      0x20\n      add\n      add\n        /* \"contracts/lottery.sol\":5044:5056  str[1] = \"x\" */\n      swap1\n      not(0xffffffffffffffffffffffffffffffffffffffffffffffffffffffffffffff)\n      and\n      swap1\n      dup2\n      0x00\n      byte\n      swap1\n      mstore8\n      pop\n        /* \"contracts/lottery.sol\":5072:5078  uint i */\n      0x00\n        /* \"contracts/lottery.sol\":5067:5246  for (uint i = 0; i < data.length; i++) {... */\n    tag_150:\n        /* \"contracts/lottery.sol\":5088:5092  data */\n      dup5\n        /* \"contracts/lottery.sol\":5088:5099  data.length */\n      mload\n        /* \"contracts/lottery.sol\":5084:5085  i */\n      dup2\n        /* \"contracts/lottery.sol\":5084:5099  i < data.length */\n      lt\n        /* \"contracts/lottery.sol\":5067:5246  for (uint i = 0; i < data.length; i++) {... */\n      iszero\n      tag_151\n      jumpi\n        /* \"contracts/lottery.sol\":5134:5142  alphabet */\n      dup3\n        /* \"contracts/lottery.sol\":5165:5166  4 */\n      0x04\n        /* \"contracts/lottery.sol\":5154:5158  data */\n      dup7\n        /* \"contracts/lottery.sol\":5159:5160  i */\n      dup4\n        /* \"contracts/lottery.sol\":5154:5161  data[i] */\n      dup2\n      mload\n      dup2\n      lt\n      tag_153\n      jumpi\n      tag_154\n      tag_147\n      jump\t// in\n    tag_154:\n    tag_153:\n      0x20\n      add\n      add\n      mload\n      0xf8\n      shr\n      0xf8\n      shl\n        /* \"contracts/lottery.sol\":5154:5166  data[i] >> 4 */\n      not(0xffffffffffffffffffffffffffffffffffffffffffffffffffffffffffffff)\n      and\n      swap1\n      shr\n        /* \"contracts/lottery.sol\":5148:5167  uint8(data[i] >> 4) */\n      0xf8\n      shr\n        /* \"contracts/lottery.sol\":5143:5168  uint(uint8(data[i] >> 4)) */\n      0xff\n      and\n        /* \"contracts/lottery.sol\":5134:5169  alphabet[uint(uint8(data[i] >> 4))] */\n      dup2\n      mload\n      dup2\n      lt\n      tag_155\n      jumpi\n      tag_156\n      tag_147\n      jump\t// in\n    tag_156:\n    tag_155:\n      0x20\n      add\n      add\n      mload\n      0xf8\n      shr\n      0xf8\n      shl\n        /* \"contracts/lottery.sol\":5121:5124  str */\n      dup3\n        /* \"contracts/lottery.sol\":5129:5130  2 */\n      0x02\n        /* \"contracts/lottery.sol\":5127:5128  i */\n      dup4\n        /* \"contracts/lottery.sol\":5127:5130  i*2 */\n      tag_157\n      swap2\n      swap1\n      tag_107\n      jump\t// in\n    tag_157:\n        /* \"contracts/lottery.sol\":5125:5126  2 */\n      0x02\n        /* \"contracts/lottery.sol\":5125:5130  2+i*2 */\n      tag_158\n      swap2\n      swap1\n      tag_140\n      jump\t// in\n    tag_158:\n        /* \"contracts/lottery.sol\":5121:5131  str[2+i*2] */\n      dup2\n      mload\n      dup2\n      lt\n      tag_159\n      jumpi\n      tag_160\n      tag_147\n      jump\t// in\n    tag_160:\n    tag_159:\n      0x20\n      add\n      add\n        /* \"contracts/lottery.sol\":5121:5169  str[2+i*2] = alphabet[uint(uint8(data[i] >> 4))] */\n      swap1\n      not(0xffffffffffffffffffffffffffffffffffffffffffffffffffffffffffffff)\n      and\n      swap1\n      dup2\n      0x00\n      byte\n      swap1\n      mstore8\n      pop\n        /* \"contracts/lottery.sol\":5197:5205  alphabet */\n      dup3\n        /* \"contracts/lottery.sol\":5227:5231  0x0f */\n      0x0f\n        /* \"contracts/lottery.sol\":5217:5231  data[i] & 0x0f */\n      0xf8\n      shl\n        /* \"contracts/lottery.sol\":5217:5221  data */\n      dup7\n        /* \"contracts/lottery.sol\":5222:5223  i */\n      dup4\n        /* \"contracts/lottery.sol\":5217:5224  data[i] */\n      dup2\n      mload\n      dup2\n      lt\n      tag_161\n      jumpi\n      tag_162\n      tag_147\n      jump\t// in\n    tag_162:\n    tag_161:\n      0x20\n      add\n      add\n      mload\n      0xf8\n      shr\n      0xf8\n      shl\n        /* \"contracts/lottery.sol\":5217:5231  data[i] & 0x0f */\n      and\n        /* \"contracts/lottery.sol\":5211:5232  uint8(data[i] & 0x0f) */\n      0xf8\n      shr\n        /* \"contracts/lottery.sol\":5206:5233  uint(uint8(data[i] & 0x0f)) */\n      0xff\n      and\n        /* \"contracts/lottery.sol\":5197:5234  alphabet[uint(uint8(data[i] & 0x0f))] */\n      dup2\n      mload\n      dup2\n      lt\n      tag_163\n      jumpi\n      tag_164\n      tag_147\n      jump\t// in\n    tag_164:\n    tag_163:\n      0x20\n      add\n      add\n      mload\n      0xf8\n      shr\n      0xf8\n      shl\n        /* \"contracts/lottery.sol\":5184:5187  str */\n      dup3\n        /* \"contracts/lottery.sol\":5192:5193  2 */\n      0x02\n        /* \"contracts/lottery.sol\":5190:5191  i */\n      dup4\n        /* \"contracts/lottery.sol\":5190:5193  i*2 */\n      tag_165\n      swap2\n      swap1\n      tag_107\n      jump\t// in\n    tag_165:\n        /* \"contracts/lottery.sol\":5188:5189  3 */\n      0x03\n        /* \"contracts/lottery.sol\":5188:5193  3+i*2 */\n      tag_166\n      swap2\n      swap1\n      tag_140\n      jump\t// in\n    tag_166:\n        /* \"contracts/lottery.sol\":5184:5194  str[3+i*2] */\n      dup2\n      mload\n      dup2\n      lt\n      tag_167\n      jumpi\n      tag_168\n      tag_147\n      jump\t// in\n    tag_168:\n    tag_167:\n      0x20\n      add\n      add\n        /* \"contracts/lottery.sol\":5184:5234  str[3+i*2] = alphabet[uint(uint8(data[i] & 0x0f))] */\n      swap1\n      not(0xffffffffffffffffffffffffffffffffffffffffffffffffffffffffffffff)\n      and\n      swap1\n      dup2\n      0x00\n      byte\n      swap1\n      mstore8\n      pop\n        /* \"contracts/lottery.sol\":5101:5104  i++ */\n      dup1\n      dup1\n      tag_169\n      swap1\n      tag_170\n      jump\t// in\n    tag_169:\n      swap2\n      pop\n      pop\n        /* \"contracts/lottery.sol\":5067:5246  for (uint i = 0; i < data.length; i++) {... */\n      jump(tag_150)\n    tag_151:\n      pop\n        /* \"contracts/lottery.sol\":5270:5273  str */\n      dup1\n        /* \"contracts/lottery.sol\":5256:5274  return string(str) */\n      swap3\n      pop\n      pop\n      pop\n        /* \"contracts/lottery.sol\":4823:5282  function toString(bytes memory data) public pure returns(string memory) {... */\n      swap2\n      swap1\n      pop\n      jump\t// out\n        /* \"contracts/lottery.sol\":1871:2666  function chooseWinningAddress() public view returns (address payable) {... */\n    tag_65:\n        /* \"contracts/lottery.sol\":1924:1939  address payable */\n      0x00\n        /* \"contracts/lottery.sol\":1952:1967  uint numPlayers */\n      dup1\n        /* \"contracts/lottery.sol\":1970:1988  list_playerAddress */\n      0x02\n        /* \"contracts/lottery.sol\":1970:1995  list_playerAddress.length */\n      dup1\n      sload\n      swap1\n      pop\n        /* \"contracts/lottery.sol\":1952:1995  uint numPlayers = list_playerAddress.length */\n      swap1\n      pop\n        /* \"contracts/lottery.sol\":2006:2017  uint winner */\n      0x00\n        /* \"contracts/lottery.sol\":2126:2127  0 */\n      dup1\n        /* \"contracts/lottery.sol\":2112:2122  numPlayers */\n      dup3\n        /* \"contracts/lottery.sol\":2112:2127  numPlayers == 0 */\n      sub\n        /* \"contracts/lottery.sol\":2109:2613  if(numPlayers == 0) {... */\n      tag_172\n      jumpi\n        /* \"contracts/lottery.sol\":319:361  0x0000000000000000000000000000000000000000 */\n      0x00\n        /* \"contracts/lottery.sol\":2213:2231  return zeroAddress */\n      swap3\n      pop\n      pop\n      pop\n      jump(tag_171)\n        /* \"contracts/lottery.sol\":2109:2613  if(numPlayers == 0) {... */\n    tag_172:\n        /* \"contracts/lottery.sol\":2275:2276  1 */\n      0x01\n        /* \"contracts/lottery.sol\":2261:2271  numPlayers */\n      dup3\n        /* \"contracts/lottery.sol\":2261:2276  numPlayers == 1 */\n      sub\n        /* \"contracts/lottery.sol\":2258:2613  if(numPlayers == 1) {... */\n      tag_174\n      jumpi\n        /* \"contracts/lottery.sol\":2405:2406  0 */\n      0x00\n        /* \"contracts/lottery.sol\":2396:2406  winner = 0 */\n      swap1\n      pop\n        /* \"contracts/lottery.sol\":2258:2613  if(numPlayers == 1) {... */\n      jump(tag_175)\n    tag_174:\n        /* \"contracts/lottery.sol\":2580:2601  randomInt(numPlayers) */\n      tag_176\n        /* \"contracts/lottery.sol\":2590:2600  numPlayers */\n      dup3\n        /* \"contracts/lottery.sol\":2580:2589  randomInt */\n      tag_30\n        /* \"contracts/lottery.sol\":2580:2601  randomInt(numPlayers) */\n      jump\t// in\n    tag_176:\n        /* \"contracts/lottery.sol\":2571:2601  winner = randomInt(numPlayers) */\n      swap1\n      pop\n        /* \"contracts/lottery.sol\":2258:2613  if(numPlayers == 1) {... */\n    tag_175:\n        /* \"contracts/lottery.sol\":2632:2650  list_playerAddress */\n      0x02\n        /* \"contracts/lottery.sol\":2651:2657  winner */\n      dup2\n        /* \"contracts/lottery.sol\":2632:2658  list_playerAddress[winner] */\n      dup2\n      sload\n      dup2\n      lt\n      tag_177\n      jumpi\n      tag_178\n      tag_147\n      jump\t// in\n    tag_178:\n    tag_177:\n      swap1\n      0x00\n      mstore\n      keccak256(0x00, 0x20)\n      add\n      0x00\n      swap1\n      sload\n      swap1\n      0x0100\n      exp\n      swap1\n      div\n      0xffffffffffffffffffffffffffffffffffffffff\n      and\n        /* \"contracts/lottery.sol\":2625:2658  return list_playerAddress[winner] */\n      swap3\n      pop\n      pop\n      pop\n        /* \"contracts/lottery.sol\":1871:2666  function chooseWinningAddress() public view returns (address payable) {... */\n    tag_171:\n      swap1\n      jump\t// out\n        /* \"contracts/lottery.sol\":3529:3682  function withdrawAll() public {... */\n    tag_69:\n        /* \"contracts/lottery.sol\":523:565  0xAb8483F64d9C6d1EcF9b849Ae677dD3315835cb2 */\n      0xab8483f64d9c6d1ecf9b849ae677dd3315835cb2\n        /* \"contracts/lottery.sol\":3636:3660  operatorAddress.transfer */\n      0xffffffffffffffffffffffffffffffffffffffff\n      and\n        /* \"contracts/lottery.sol\":3636:3674  operatorAddress.transfer(getBalance()) */\n      0x08fc\n        /* \"contracts/lottery.sol\":3661:3673  getBalance() */\n      tag_181\n        /* \"contracts/lottery.sol\":3661:3671  getBalance */\n      tag_23\n        /* \"contracts/lottery.sol\":3661:3673  getBalance() */\n      jump\t// in\n    tag_181:\n        /* \"contracts/lottery.sol\":3636:3674  operatorAddress.transfer(getBalance()) */\n      swap1\n      dup2\n      iszero\n      mul\n      swap1\n      mload(0x40)\n      0x00\n      mload(0x40)\n      dup1\n      dup4\n      sub\n      dup2\n      dup6\n      dup9\n      dup9\n      call\n      swap4\n      pop\n      pop\n      pop\n      pop\n      iszero\n      dup1\n      iszero\n      tag_183\n      jumpi\n      returndatasize\n      0x00\n      dup1\n      returndatacopy\n      revert(0x00, returndatasize)\n    tag_183:\n      pop\n        /* \"contracts/lottery.sol\":3529:3682  function withdrawAll() public {... */\n      jump\t// out\n        /* \"contracts/lottery.sol\":1725:1863  function isAddressPlaying(address payable playerAddress) public view returns (bool) {... */\n    tag_74:\n        /* \"contracts/lottery.sol\":1803:1807  bool */\n      0x00\n        /* \"contracts/lottery.sol\":1827:1840  map_isPlaying */\n      0x01\n        /* \"contracts/lottery.sol\":1827:1855  map_isPlaying[playerAddress] */\n      0x00\n        /* \"contracts/lottery.sol\":1841:1854  playerAddress */\n      dup4\n        /* \"contracts/lottery.sol\":1827:1855  map_isPlaying[playerAddress] */\n      0xffffffffffffffffffffffffffffffffffffffff\n      and\n      0xffffffffffffffffffffffffffffffffffffffff\n      and\n      dup2\n      mstore\n      0x20\n      add\n      swap1\n      dup2\n      mstore\n      0x20\n      add\n      0x00\n      keccak256\n      0x00\n      swap1\n      sload\n      swap1\n      0x0100\n      exp\n      swap1\n      div\n      0xff\n      and\n        /* \"contracts/lottery.sol\":1820:1855  return map_isPlaying[playerAddress] */\n      swap1\n      pop\n        /* \"contracts/lottery.sol\":1725:1863  function isAddressPlaying(address payable playerAddress) public view returns (bool) {... */\n      swap2\n      swap1\n      pop\n      jump\t// out\n        /* \"contracts/lottery.sol\":1243:1713  function registerAddress(address payable playerAddress) public {... */\n    tag_80:\n        /* \"contracts/lottery.sol\":1422:1436  bool isPlaying */\n      0x00\n        /* \"contracts/lottery.sol\":1439:1452  map_isPlaying */\n      0x01\n        /* \"contracts/lottery.sol\":1439:1467  map_isPlaying[playerAddress] */\n      0x00\n        /* \"contracts/lottery.sol\":1453:1466  playerAddress */\n      dup4\n        /* \"contracts/lottery.sol\":1439:1467  map_isPlaying[playerAddress] */\n      0xffffffffffffffffffffffffffffffffffffffff\n      and\n      0xffffffffffffffffffffffffffffffffffffffff\n      and\n      dup2\n      mstore\n      0x20\n      add\n      swap1\n      dup2\n      mstore\n      0x20\n      add\n      0x00\n      keccak256\n      0x00\n      swap1\n      sload\n      swap1\n      0x0100\n      exp\n      swap1\n      div\n      0xff\n      and\n        /* \"contracts/lottery.sol\":1422:1467  bool isPlaying = map_isPlaying[playerAddress] */\n      swap1\n      pop\n        /* \"contracts/lottery.sol\":1487:1496  isPlaying */\n      dup1\n        /* \"contracts/lottery.sol\":1486:1496  !isPlaying */\n      iszero\n        /* \"contracts/lottery.sol\":1478:1546  require(!isPlaying, \"This address has already entered the lottery.\") */\n      tag_186\n      jumpi\n      mload(0x40)\n      0x08c379a000000000000000000000000000000000000000000000000000000000\n      dup2\n      mstore\n      0x04\n      add\n      tag_187\n      swap1\n      tag_188\n      jump\t// in\n    tag_187:\n      mload(0x40)\n      dup1\n      swap2\n      sub\n      swap1\n      revert\n    tag_186:\n        /* \"contracts/lottery.sol\":1652:1656  true */\n      0x01\n        /* \"contracts/lottery.sol\":1621:1634  map_isPlaying */\n      dup1\n        /* \"contracts/lottery.sol\":1621:1649  map_isPlaying[playerAddress] */\n      0x00\n        /* \"contracts/lottery.sol\":1635:1648  playerAddress */\n      dup5\n        /* \"contracts/lottery.sol\":1621:1649  map_isPlaying[playerAddress] */\n      0xffffffffffffffffffffffffffffffffffffffff\n      and\n      0xffffffffffffffffffffffffffffffffffffffff\n      and\n      dup2\n      mstore\n      0x20\n      add\n      swap1\n      dup2\n      mstore\n      0x20\n      add\n      0x00\n      keccak256\n      0x00\n        /* \"contracts/lottery.sol\":1621:1656  map_isPlaying[playerAddress] = true */\n      0x0100\n      exp\n      dup2\n      sload\n      dup2\n      0xff\n      mul\n      not\n      and\n      swap1\n      dup4\n      iszero\n      iszero\n      mul\n      or\n      swap1\n      sstore\n      pop\n        /* \"contracts/lottery.sol\":1667:1685  list_playerAddress */\n      0x02\n        /* \"contracts/lottery.sol\":1691:1704  playerAddress */\n      dup3\n        /* \"contracts/lottery.sol\":1667:1705  list_playerAddress.push(playerAddress) */\n      swap1\n      dup1\n      0x01\n      dup2\n      sload\n      add\n      dup1\n      dup3\n      sstore\n      dup1\n      swap2\n      pop\n      pop\n      0x01\n      swap1\n      sub\n      swap1\n      0x00\n      mstore\n      keccak256(0x00, 0x20)\n      add\n      0x00\n      swap1\n      swap2\n      swap1\n      swap2\n      swap1\n      swap2\n      0x0100\n      exp\n      dup2\n      sload\n      dup2\n      0xffffffffffffffffffffffffffffffffffffffff\n      mul\n      not\n      and\n      swap1\n      dup4\n      0xffffffffffffffffffffffffffffffffffffffff\n      and\n      mul\n      or\n      swap1\n      sstore\n      pop\n        /* \"contracts/lottery.sol\":1306:1713  {... */\n      pop\n        /* \"contracts/lottery.sol\":1243:1713  function registerAddress(address payable playerAddress) public {... */\n      pop\n      jump\t// out\n        /* \"contracts/lottery.sol\":4688:4815  function toString(bytes32 value) public pure returns(string memory) {... */\n    tag_85:\n        /* \"contracts/lottery.sol\":4741:4754  string memory */\n      0x60\n        /* \"contracts/lottery.sol\":4774:4807  toString(abi.encodePacked(value)) */\n      tag_191\n        /* \"contracts/lottery.sol\":4800:4805  value */\n      dup3\n        /* \"contracts/lottery.sol\":4783:4806  abi.encodePacked(value) */\n      add(0x20, mload(0x40))\n      tag_192\n      swap2\n      swap1\n      tag_193\n      jump\t// in\n    tag_192:\n      mload(0x40)\n      0x20\n      dup2\n      dup4\n      sub\n      sub\n      dup2\n      mstore\n      swap1\n      0x40\n      mstore\n        /* \"contracts/lottery.sol\":4774:4782  toString */\n      tag_61\n        /* \"contracts/lottery.sol\":4774:4807  toString(abi.encodePacked(value)) */\n      jump\t// in\n    tag_191:\n        /* \"contracts/lottery.sol\":4767:4807  return toString(abi.encodePacked(value)) */\n      swap1\n      pop\n        /* \"contracts/lottery.sol\":4688:4815  function toString(bytes32 value) public pure returns(string memory) {... */\n      swap2\n      swap1\n      pop\n      jump\t// out\n        /* \"contracts/lottery.sol\":872:1235  function fundLottery() external payable {... */\n    tag_88:\n        /* \"contracts/lottery.sol\":1171:1180  msg.value */\n      callvalue\n        /* \"contracts/lottery.sol\":1157:1167  totalPrize */\n      0x00\n      dup1\n        /* \"contracts/lottery.sol\":1157:1180  totalPrize += msg.value */\n      dup3\n      dup3\n      sload\n      tag_195\n      swap2\n      swap1\n      tag_140\n      jump\t// in\n    tag_195:\n      swap3\n      pop\n      pop\n      dup2\n      swap1\n      sstore\n      pop\n        /* \"contracts/lottery.sol\":1191:1227  registerAddress(payable(msg.sender)) */\n      tag_196\n        /* \"contracts/lottery.sol\":1215:1225  msg.sender */\n      caller\n        /* \"contracts/lottery.sol\":1191:1206  registerAddress */\n      tag_80\n        /* \"contracts/lottery.sol\":1191:1227  registerAddress(payable(msg.sender)) */\n      jump\t// in\n    tag_196:\n        /* \"contracts/lottery.sol\":872:1235  function fundLottery() external payable {... */\n      jump\t// out\n        /* \"contracts/lottery.sol\":3271:3521  function fundContract() external payable {... */\n    tag_90:\n      jump\t// out\n        /* \"contracts/lottery.sol\":736:781  mapping(address => bool) public map_isPlaying */\n    tag_94:\n      mstore(0x20, 0x01)\n      dup1\n      0x00\n      mstore\n      keccak256(0x00, 0x40)\n      0x00\n      swap2\n      pop\n      sload\n      swap1\n      0x0100\n      exp\n      swap1\n      div\n      0xff\n      and\n      dup2\n      jump\t// out\n        /* \"@openzeppelin/contracts/utils/Strings.sol\":392:1095  function toString(uint256 value) internal pure returns (string memory) {... */\n    tag_121:\n        /* \"@openzeppelin/contracts/utils/Strings.sol\":448:461  string memory */\n      0x60\n        /* \"@openzeppelin/contracts/utils/Strings.sol\":674:675  0 */\n      0x00\n        /* \"@openzeppelin/contracts/utils/Strings.sol\":665:670  value */\n      dup3\n        /* \"@openzeppelin/contracts/utils/Strings.sol\":665:675  value == 0 */\n      sub\n        /* \"@openzeppelin/contracts/utils/Strings.sol\":661:712  if (value == 0) {... */\n      tag_199\n      jumpi\n        /* \"@openzeppelin/contracts/utils/Strings.sol\":691:701  return \"0\" */\n      mload(0x40)\n      dup1\n      0x40\n      add\n      0x40\n      mstore\n      dup1\n      0x01\n      dup2\n      mstore\n      0x20\n      add\n      0x3000000000000000000000000000000000000000000000000000000000000000\n      dup2\n      mstore\n      pop\n      swap1\n      pop\n      jump(tag_198)\n        /* \"@openzeppelin/contracts/utils/Strings.sol\":661:712  if (value == 0) {... */\n    tag_199:\n        /* \"@openzeppelin/contracts/utils/Strings.sol\":721:733  uint256 temp */\n      0x00\n        /* \"@openzeppelin/contracts/utils/Strings.sol\":736:741  value */\n      dup3\n        /* \"@openzeppelin/contracts/utils/Strings.sol\":721:741  uint256 temp = value */\n      swap1\n      pop\n        /* \"@openzeppelin/contracts/utils/Strings.sol\":751:765  uint256 digits */\n      0x00\n        /* \"@openzeppelin/contracts/utils/Strings.sol\":775:850  while (temp != 0) {... */\n    tag_200:\n        /* \"@openzeppelin/contracts/utils/Strings.sol\":790:791  0 */\n      0x00\n        /* \"@openzeppelin/contracts/utils/Strings.sol\":782:786  temp */\n      dup3\n        /* \"@openzeppelin/contracts/utils/Strings.sol\":782:791  temp != 0 */\n      eq\n        /* \"@openzeppelin/contracts/utils/Strings.sol\":775:850  while (temp != 0) {... */\n      tag_201\n      jumpi\n        /* \"@openzeppelin/contracts/utils/Strings.sol\":807:815  digits++ */\n      dup1\n      dup1\n      tag_202\n      swap1\n      tag_170\n      jump\t// in\n    tag_202:\n      swap2\n      pop\n      pop\n        /* \"@openzeppelin/contracts/utils/Strings.sol\":837:839  10 */\n      0x0a\n        /* \"@openzeppelin/contracts/utils/Strings.sol\":829:839  temp /= 10 */\n      dup3\n      tag_203\n      swap2\n      swap1\n      tag_109\n      jump\t// in\n    tag_203:\n      swap2\n      pop\n        /* \"@openzeppelin/contracts/utils/Strings.sol\":775:850  while (temp != 0) {... */\n      jump(tag_200)\n    tag_201:\n        /* \"@openzeppelin/contracts/utils/Strings.sol\":859:878  bytes memory buffer */\n      0x00\n        /* \"@openzeppelin/contracts/utils/Strings.sol\":891:897  digits */\n      dup2\n        /* \"@openzeppelin/contracts/utils/Strings.sol\":881:898  new bytes(digits) */\n      0xffffffffffffffff\n      dup2\n      gt\n      iszero\n      tag_204\n      jumpi\n      tag_205\n      tag_143\n      jump\t// in\n    tag_205:\n    tag_204:\n      mload(0x40)\n      swap1\n      dup1\n      dup3\n      mstore\n      dup1\n      0x1f\n      add\n      not(0x1f)\n      and\n      0x20\n      add\n      dup3\n      add\n      0x40\n      mstore\n      dup1\n      iszero\n      tag_206\n      jumpi\n      dup2\n      0x20\n      add\n      0x01\n      dup3\n      mul\n      dup1\n      calldatasize\n      dup4\n      calldatacopy\n      dup1\n      dup3\n      add\n      swap2\n      pop\n      pop\n      swap1\n      pop\n    tag_206:\n      pop\n        /* \"@openzeppelin/contracts/utils/Strings.sol\":859:898  bytes memory buffer = new bytes(digits) */\n      swap1\n      pop\n        /* \"@openzeppelin/contracts/utils/Strings.sol\":908:1058  while (value != 0) {... */\n    tag_207:\n        /* \"@openzeppelin/contracts/utils/Strings.sol\":924:925  0 */\n      0x00\n        /* \"@openzeppelin/contracts/utils/Strings.sol\":915:920  value */\n      dup6\n        /* \"@openzeppelin/contracts/utils/Strings.sol\":915:925  value != 0 */\n      eq\n        /* \"@openzeppelin/contracts/utils/Strings.sol\":908:1058  while (value != 0) {... */\n      tag_208\n      jumpi\n        /* \"@openzeppelin/contracts/utils/Strings.sol\":951:952  1 */\n      0x01\n        /* \"@openzeppelin/contracts/utils/Strings.sol\":941:952  digits -= 1 */\n      dup3\n      tag_209\n      swap2\n      swap1\n      tag_113\n      jump\t// in\n    tag_209:\n      swap2\n      pop\n        /* \"@openzeppelin/contracts/utils/Strings.sol\":1017:1019  10 */\n      0x0a\n        /* \"@openzeppelin/contracts/utils/Strings.sol\":1009:1014  value */\n      dup6\n        /* \"@openzeppelin/contracts/utils/Strings.sol\":1009:1019  value % 10 */\n      tag_210\n      swap2\n      swap1\n      tag_101\n      jump\t// in\n    tag_210:\n        /* \"@openzeppelin/contracts/utils/Strings.sol\":996:998  48 */\n      0x30\n        /* \"@openzeppelin/contracts/utils/Strings.sol\":996:1020  48 + uint256(value % 10) */\n      tag_211\n      swap2\n      swap1\n      tag_140\n      jump\t// in\n    tag_211:\n        /* \"@openzeppelin/contracts/utils/Strings.sol\":983:1022  bytes1(uint8(48 + uint256(value % 10))) */\n      0xf8\n      shl\n        /* \"@openzeppelin/contracts/utils/Strings.sol\":966:972  buffer */\n      dup2\n        /* \"@openzeppelin/contracts/utils/Strings.sol\":973:979  digits */\n      dup4\n        /* \"@openzeppelin/contracts/utils/Strings.sol\":966:980  buffer[digits] */\n      dup2\n      mload\n      dup2\n      lt\n      tag_212\n      jumpi\n      tag_213\n      tag_147\n      jump\t// in\n    tag_213:\n    tag_212:\n      0x20\n      add\n      add\n        /* \"@openzeppelin/contracts/utils/Strings.sol\":966:1022  buffer[digits] = bytes1(uint8(48 + uint256(value % 10))) */\n      swap1\n      not(0xffffffffffffffffffffffffffffffffffffffffffffffffffffffffffffff)\n      and\n      swap1\n      dup2\n      0x00\n      byte\n      swap1\n      mstore8\n      pop\n        /* \"@openzeppelin/contracts/utils/Strings.sol\":1045:1047  10 */\n      0x0a\n        /* \"@openzeppelin/contracts/utils/Strings.sol\":1036:1047  value /= 10 */\n      dup6\n      tag_214\n      swap2\n      swap1\n      tag_109\n      jump\t// in\n    tag_214:\n      swap5\n      pop\n        /* \"@openzeppelin/contracts/utils/Strings.sol\":908:1058  while (value != 0) {... */\n      jump(tag_207)\n    tag_208:\n        /* \"@openzeppelin/contracts/utils/Strings.sol\":1081:1087  buffer */\n      dup1\n        /* \"@openzeppelin/contracts/utils/Strings.sol\":1067:1088  return string(buffer) */\n      swap4\n      pop\n      pop\n      pop\n      pop\n        /* \"@openzeppelin/contracts/utils/Strings.sol\":392:1095  function toString(uint256 value) internal pure returns (string memory) {... */\n    tag_198:\n      swap2\n      swap1\n      pop\n      jump\t// out\n        /* \"#utility.yul\":7:84   */\n    tag_215:\n        /* \"#utility.yul\":44:51   */\n      0x00\n        /* \"#utility.yul\":73:78   */\n      dup2\n        /* \"#utility.yul\":62:78   */\n      swap1\n      pop\n        /* \"#utility.yul\":7:84   */\n      swap2\n      swap1\n      pop\n      jump\t// out\n        /* \"#utility.yul\":90:208   */\n    tag_216:\n        /* \"#utility.yul\":177:201   */\n      tag_268\n        /* \"#utility.yul\":195:200   */\n      dup2\n        /* \"#utility.yul\":177:201   */\n      tag_215\n      jump\t// in\n    tag_268:\n        /* \"#utility.yul\":172:175   */\n      dup3\n        /* \"#utility.yul\":165:202   */\n      mstore\n        /* \"#utility.yul\":90:208   */\n      pop\n      pop\n      jump\t// out\n        /* \"#utility.yul\":214:436   */\n    tag_25:\n        /* \"#utility.yul\":307:311   */\n      0x00\n        /* \"#utility.yul\":345:347   */\n      0x20\n        /* \"#utility.yul\":334:343   */\n      dup3\n        /* \"#utility.yul\":330:348   */\n      add\n        /* \"#utility.yul\":322:348   */\n      swap1\n      pop\n        /* \"#utility.yul\":358:429   */\n      tag_270\n        /* \"#utility.yul\":426:427   */\n      0x00\n        /* \"#utility.yul\":415:424   */\n      dup4\n        /* \"#utility.yul\":411:428   */\n      add\n        /* \"#utility.yul\":402:408   */\n      dup5\n        /* \"#utility.yul\":358:429   */\n      tag_216\n      jump\t// in\n    tag_270:\n        /* \"#utility.yul\":214:436   */\n      swap3\n      swap2\n      pop\n      pop\n      jump\t// out\n        /* \"#utility.yul\":442:517   */\n    tag_217:\n        /* \"#utility.yul\":475:481   */\n      0x00\n        /* \"#utility.yul\":508:510   */\n      0x40\n        /* \"#utility.yul\":502:511   */\n      mload\n        /* \"#utility.yul\":492:511   */\n      swap1\n      pop\n        /* \"#utility.yul\":442:517   */\n      swap1\n      jump\t// out\n        /* \"#utility.yul\":523:640   */\n    tag_218:\n        /* \"#utility.yul\":632:633   */\n      0x00\n        /* \"#utility.yul\":629:630   */\n      dup1\n        /* \"#utility.yul\":622:634   */\n      revert\n        /* \"#utility.yul\":646:763   */\n    tag_219:\n        /* \"#utility.yul\":755:756   */\n      0x00\n        /* \"#utility.yul\":752:753   */\n      dup1\n        /* \"#utility.yul\":745:757   */\n      revert\n        /* \"#utility.yul\":769:891   */\n    tag_220:\n        /* \"#utility.yul\":842:866   */\n      tag_275\n        /* \"#utility.yul\":860:865   */\n      dup2\n        /* \"#utility.yul\":842:866   */\n      tag_215\n      jump\t// in\n    tag_275:\n        /* \"#utility.yul\":835:840   */\n      dup2\n        /* \"#utility.yul\":832:867   */\n      eq\n        /* \"#utility.yul\":822:885   */\n      tag_276\n      jumpi\n        /* \"#utility.yul\":881:882   */\n      0x00\n        /* \"#utility.yul\":878:879   */\n      dup1\n        /* \"#utility.yul\":871:883   */\n      revert\n        /* \"#utility.yul\":822:885   */\n    tag_276:\n        /* \"#utility.yul\":769:891   */\n      pop\n      jump\t// out\n        /* \"#utility.yul\":897:1036   */\n    tag_221:\n        /* \"#utility.yul\":943:948   */\n      0x00\n        /* \"#utility.yul\":981:987   */\n      dup2\n        /* \"#utility.yul\":968:988   */\n      calldataload\n        /* \"#utility.yul\":959:988   */\n      swap1\n      pop\n        /* \"#utility.yul\":997:1030   */\n      tag_278\n        /* \"#utility.yul\":1024:1029   */\n      dup2\n        /* \"#utility.yul\":997:1030   */\n      tag_220\n      jump\t// in\n    tag_278:\n        /* \"#utility.yul\":897:1036   */\n      swap3\n      swap2\n      pop\n      pop\n      jump\t// out\n        /* \"#utility.yul\":1042:1371   */\n    tag_29:\n        /* \"#utility.yul\":1101:1107   */\n      0x00\n        /* \"#utility.yul\":1150:1152   */\n      0x20\n        /* \"#utility.yul\":1138:1147   */\n      dup3\n        /* \"#utility.yul\":1129:1136   */\n      dup5\n        /* \"#utility.yul\":1125:1148   */\n      sub\n        /* \"#utility.yul\":1121:1153   */\n      slt\n        /* \"#utility.yul\":1118:1237   */\n      iszero\n      tag_280\n      jumpi\n        /* \"#utility.yul\":1156:1235   */\n      tag_281\n      tag_218\n      jump\t// in\n    tag_281:\n        /* \"#utility.yul\":1118:1237   */\n    tag_280:\n        /* \"#utility.yul\":1276:1277   */\n      0x00\n        /* \"#utility.yul\":1301:1354   */\n      tag_282\n        /* \"#utility.yul\":1346:1353   */\n      dup5\n        /* \"#utility.yul\":1337:1343   */\n      dup3\n        /* \"#utility.yul\":1326:1335   */\n      dup6\n        /* \"#utility.yul\":1322:1344   */\n      add\n        /* \"#utility.yul\":1301:1354   */\n      tag_221\n      jump\t// in\n    tag_282:\n        /* \"#utility.yul\":1291:1354   */\n      swap2\n      pop\n        /* \"#utility.yul\":1247:1364   */\n      pop\n        /* \"#utility.yul\":1042:1371   */\n      swap3\n      swap2\n      pop\n      pop\n      jump\t// out\n        /* \"#utility.yul\":1377:1503   */\n    tag_222:\n        /* \"#utility.yul\":1414:1421   */\n      0x00\n        /* \"#utility.yul\":1454:1496   */\n      0xffffffffffffffffffffffffffffffffffffffff\n        /* \"#utility.yul\":1447:1452   */\n      dup3\n        /* \"#utility.yul\":1443:1497   */\n      and\n        /* \"#utility.yul\":1432:1497   */\n      swap1\n      pop\n        /* \"#utility.yul\":1377:1503   */\n      swap2\n      swap1\n      pop\n      jump\t// out\n        /* \"#utility.yul\":1509:1613   */\n    tag_223:\n        /* \"#utility.yul\":1554:1561   */\n      0x00\n        /* \"#utility.yul\":1583:1607   */\n      tag_285\n        /* \"#utility.yul\":1601:1606   */\n      dup3\n        /* \"#utility.yul\":1583:1607   */\n      tag_222\n      jump\t// in\n    tag_285:\n        /* \"#utility.yul\":1572:1607   */\n      swap1\n      pop\n        /* \"#utility.yul\":1509:1613   */\n      swap2\n      swap1\n      pop\n      jump\t// out\n        /* \"#utility.yul\":1619:1761   */\n    tag_224:\n        /* \"#utility.yul\":1722:1754   */\n      tag_287\n        /* \"#utility.yul\":1748:1753   */\n      dup2\n        /* \"#utility.yul\":1722:1754   */\n      tag_223\n      jump\t// in\n    tag_287:\n        /* \"#utility.yul\":1717:1720   */\n      dup3\n        /* \"#utility.yul\":1710:1755   */\n      mstore\n        /* \"#utility.yul\":1619:1761   */\n      pop\n      pop\n      jump\t// out\n        /* \"#utility.yul\":1767:2021   */\n    tag_40:\n        /* \"#utility.yul\":1876:1880   */\n      0x00\n        /* \"#utility.yul\":1914:1916   */\n      0x20\n        /* \"#utility.yul\":1903:1912   */\n      dup3\n        /* \"#utility.yul\":1899:1917   */\n      add\n        /* \"#utility.yul\":1891:1917   */\n      swap1\n      pop\n        /* \"#utility.yul\":1927:2014   */\n      tag_289\n        /* \"#utility.yul\":2011:2012   */\n      0x00\n        /* \"#utility.yul\":2000:2009   */\n      dup4\n        /* \"#utility.yul\":1996:2013   */\n      add\n        /* \"#utility.yul\":1987:1993   */\n      dup5\n        /* \"#utility.yul\":1927:2014   */\n      tag_224\n      jump\t// in\n    tag_289:\n        /* \"#utility.yul\":1767:2021   */\n      swap3\n      swap2\n      pop\n      pop\n      jump\t// out\n        /* \"#utility.yul\":2027:2123   */\n    tag_225:\n        /* \"#utility.yul\":2064:2071   */\n      0x00\n        /* \"#utility.yul\":2093:2117   */\n      tag_291\n        /* \"#utility.yul\":2111:2116   */\n      dup3\n        /* \"#utility.yul\":2093:2117   */\n      tag_222\n      jump\t// in\n    tag_291:\n        /* \"#utility.yul\":2082:2117   */\n      swap1\n      pop\n        /* \"#utility.yul\":2027:2123   */\n      swap2\n      swap1\n      pop\n      jump\t// out\n        /* \"#utility.yul\":2129:2251   */\n    tag_226:\n        /* \"#utility.yul\":2202:2226   */\n      tag_293\n        /* \"#utility.yul\":2220:2225   */\n      dup2\n        /* \"#utility.yul\":2202:2226   */\n      tag_225\n      jump\t// in\n    tag_293:\n        /* \"#utility.yul\":2195:2200   */\n      dup2\n        /* \"#utility.yul\":2192:2227   */\n      eq\n        /* \"#utility.yul\":2182:2245   */\n      tag_294\n      jumpi\n        /* \"#utility.yul\":2241:2242   */\n      0x00\n        /* \"#utility.yul\":2238:2239   */\n      dup1\n        /* \"#utility.yul\":2231:2243   */\n      revert\n        /* \"#utility.yul\":2182:2245   */\n    tag_294:\n        /* \"#utility.yul\":2129:2251   */\n      pop\n      jump\t// out\n        /* \"#utility.yul\":2257:2396   */\n    tag_227:\n        /* \"#utility.yul\":2303:2308   */\n      0x00\n        /* \"#utility.yul\":2341:2347   */\n      dup2\n        /* \"#utility.yul\":2328:2348   */\n      calldataload\n        /* \"#utility.yul\":2319:2348   */\n      swap1\n      pop\n        /* \"#utility.yul\":2357:2390   */\n      tag_296\n        /* \"#utility.yul\":2384:2389   */\n      dup2\n        /* \"#utility.yul\":2357:2390   */\n      tag_226\n      jump\t// in\n    tag_296:\n        /* \"#utility.yul\":2257:2396   */\n      swap3\n      swap2\n      pop\n      pop\n      jump\t// out\n        /* \"#utility.yul\":2402:2731   */\n    tag_48:\n        /* \"#utility.yul\":2461:2467   */\n      0x00\n        /* \"#utility.yul\":2510:2512   */\n      0x20\n        /* \"#utility.yul\":2498:2507   */\n      dup3\n        /* \"#utility.yul\":2489:2496   */\n      dup5\n        /* \"#utility.yul\":2485:2508   */\n      sub\n        /* \"#utility.yul\":2481:2513   */\n      slt\n        /* \"#utility.yul\":2478:2597   */\n      iszero\n      tag_298\n      jumpi\n        /* \"#utility.yul\":2516:2595   */\n      tag_299\n      tag_218\n      jump\t// in\n    tag_299:\n        /* \"#utility.yul\":2478:2597   */\n    tag_298:\n        /* \"#utility.yul\":2636:2637   */\n      0x00\n        /* \"#utility.yul\":2661:2714   */\n      tag_300\n        /* \"#utility.yul\":2706:2713   */\n      dup5\n        /* \"#utility.yul\":2697:2703   */\n      dup3\n        /* \"#utility.yul\":2686:2695   */\n      dup6\n        /* \"#utility.yul\":2682:2704   */\n      add\n        /* \"#utility.yul\":2661:2714   */\n      tag_227\n      jump\t// in\n    tag_300:\n        /* \"#utility.yul\":2651:2714   */\n      swap2\n      pop\n        /* \"#utility.yul\":2607:2724   */\n      pop\n        /* \"#utility.yul\":2402:2731   */\n      swap3\n      swap2\n      pop\n      pop\n      jump\t// out\n        /* \"#utility.yul\":2737:2836   */\n    tag_228:\n        /* \"#utility.yul\":2789:2795   */\n      0x00\n        /* \"#utility.yul\":2823:2828   */\n      dup2\n        /* \"#utility.yul\":2817:2829   */\n      mload\n        /* \"#utility.yul\":2807:2829   */\n      swap1\n      pop\n        /* \"#utility.yul\":2737:2836   */\n      swap2\n      swap1\n      pop\n      jump\t// out\n        /* \"#utility.yul\":2842:3011   */\n    tag_229:\n        /* \"#utility.yul\":2926:2937   */\n      0x00\n        /* \"#utility.yul\":2960:2966   */\n      dup3\n        /* \"#utility.yul\":2955:2958   */\n      dup3\n        /* \"#utility.yul\":2948:2967   */\n      mstore\n        /* \"#utility.yul\":3000:3004   */\n      0x20\n        /* \"#utility.yul\":2995:2998   */\n      dup3\n        /* \"#utility.yul\":2991:3005   */\n      add\n        /* \"#utility.yul\":2976:3005   */\n      swap1\n      pop\n        /* \"#utility.yul\":2842:3011   */\n      swap3\n      swap2\n      pop\n      pop\n      jump\t// out\n        /* \"#utility.yul\":3017:3263   */\n    tag_230:\n        /* \"#utility.yul\":3098:3099   */\n      0x00\n        /* \"#utility.yul\":3108:3221   */\n    tag_304:\n        /* \"#utility.yul\":3122:3128   */\n      dup4\n        /* \"#utility.yul\":3119:3120   */\n      dup2\n        /* \"#utility.yul\":3116:3129   */\n      lt\n        /* \"#utility.yul\":3108:3221   */\n      iszero\n      tag_306\n      jumpi\n        /* \"#utility.yul\":3207:3208   */\n      dup1\n        /* \"#utility.yul\":3202:3205   */\n      dup3\n        /* \"#utility.yul\":3198:3209   */\n      add\n        /* \"#utility.yul\":3192:3210   */\n      mload\n        /* \"#utility.yul\":3188:3189   */\n      dup2\n        /* \"#utility.yul\":3183:3186   */\n      dup5\n        /* \"#utility.yul\":3179:3190   */\n      add\n        /* \"#utility.yul\":3172:3211   */\n      mstore\n        /* \"#utility.yul\":3144:3146   */\n      0x20\n        /* \"#utility.yul\":3141:3142   */\n      dup2\n        /* \"#utility.yul\":3137:3147   */\n      add\n        /* \"#utility.yul\":3132:3147   */\n      swap1\n      pop\n        /* \"#utility.yul\":3108:3221   */\n      jump(tag_304)\n    tag_306:\n        /* \"#utility.yul\":3255:3256   */\n      0x00\n        /* \"#utility.yul\":3246:3252   */\n      dup5\n        /* \"#utility.yul\":3241:3244   */\n      dup5\n        /* \"#utility.yul\":3237:3253   */\n      add\n        /* \"#utility.yul\":3230:3257   */\n      mstore\n        /* \"#utility.yul\":3079:3263   */\n      pop\n        /* \"#utility.yul\":3017:3263   */\n      pop\n      pop\n      pop\n      jump\t// out\n        /* \"#utility.yul\":3269:3371   */\n    tag_231:\n        /* \"#utility.yul\":3310:3316   */\n      0x00\n        /* \"#utility.yul\":3361:3363   */\n      0x1f\n        /* \"#utility.yul\":3357:3364   */\n      not\n        /* \"#utility.yul\":3352:3354   */\n      0x1f\n        /* \"#utility.yul\":3345:3350   */\n      dup4\n        /* \"#utility.yul\":3341:3355   */\n      add\n        /* \"#utility.yul\":3337:3365   */\n      and\n        /* \"#utility.yul\":3327:3365   */\n      swap1\n      pop\n        /* \"#utility.yul\":3269:3371   */\n      swap2\n      swap1\n      pop\n      jump\t// out\n        /* \"#utility.yul\":3377:3754   */\n    tag_232:\n        /* \"#utility.yul\":3465:3468   */\n      0x00\n        /* \"#utility.yul\":3493:3532   */\n      tag_309\n        /* \"#utility.yul\":3526:3531   */\n      dup3\n        /* \"#utility.yul\":3493:3532   */\n      tag_228\n      jump\t// in\n    tag_309:\n        /* \"#utility.yul\":3548:3619   */\n      tag_310\n        /* \"#utility.yul\":3612:3618   */\n      dup2\n        /* \"#utility.yul\":3607:3610   */\n      dup6\n        /* \"#utility.yul\":3548:3619   */\n      tag_229\n      jump\t// in\n    tag_310:\n        /* \"#utility.yul\":3541:3619   */\n      swap4\n      pop\n        /* \"#utility.yul\":3628:3693   */\n      tag_311\n        /* \"#utility.yul\":3686:3692   */\n      dup2\n        /* \"#utility.yul\":3681:3684   */\n      dup6\n        /* \"#utility.yul\":3674:3678   */\n      0x20\n        /* \"#utility.yul\":3667:3672   */\n      dup7\n        /* \"#utility.yul\":3663:3679   */\n      add\n        /* \"#utility.yul\":3628:3693   */\n      tag_230\n      jump\t// in\n    tag_311:\n        /* \"#utility.yul\":3718:3747   */\n      tag_312\n        /* \"#utility.yul\":3740:3746   */\n      dup2\n        /* \"#utility.yul\":3718:3747   */\n      tag_231\n      jump\t// in\n    tag_312:\n        /* \"#utility.yul\":3713:3716   */\n      dup5\n        /* \"#utility.yul\":3709:3748   */\n      add\n        /* \"#utility.yul\":3702:3748   */\n      swap2\n      pop\n        /* \"#utility.yul\":3469:3754   */\n      pop\n        /* \"#utility.yul\":3377:3754   */\n      swap3\n      swap2\n      pop\n      pop\n      jump\t// out\n        /* \"#utility.yul\":3760:4073   */\n    tag_51:\n        /* \"#utility.yul\":3873:3877   */\n      0x00\n        /* \"#utility.yul\":3911:3913   */\n      0x20\n        /* \"#utility.yul\":3900:3909   */\n      dup3\n        /* \"#utility.yul\":3896:3914   */\n      add\n        /* \"#utility.yul\":3888:3914   */\n      swap1\n      pop\n        /* \"#utility.yul\":3960:3969   */\n      dup2\n        /* \"#utility.yul\":3954:3958   */\n      dup2\n        /* \"#utility.yul\":3950:3970   */\n      sub\n        /* \"#utility.yul\":3946:3947   */\n      0x00\n        /* \"#utility.yul\":3935:3944   */\n      dup4\n        /* \"#utility.yul\":3931:3948   */\n      add\n        /* \"#utility.yul\":3924:3971   */\n      mstore\n        /* \"#utility.yul\":3988:4066   */\n      tag_314\n        /* \"#utility.yul\":4061:4065   */\n      dup2\n        /* \"#utility.yul\":4052:4058   */\n      dup5\n        /* \"#utility.yul\":3988:4066   */\n      tag_232\n      jump\t// in\n    tag_314:\n        /* \"#utility.yul\":3980:4066   */\n      swap1\n      pop\n        /* \"#utility.yul\":3760:4073   */\n      swap3\n      swap2\n      pop\n      pop\n      jump\t// out\n        /* \"#utility.yul\":4079:4196   */\n    tag_233:\n        /* \"#utility.yul\":4188:4189   */\n      0x00\n        /* \"#utility.yul\":4185:4186   */\n      dup1\n        /* \"#utility.yul\":4178:4190   */\n      revert\n        /* \"#utility.yul\":4202:4319   */\n    tag_234:\n        /* \"#utility.yul\":4311:4312   */\n      0x00\n        /* \"#utility.yul\":4308:4309   */\n      dup1\n        /* \"#utility.yul\":4301:4313   */\n      revert\n        /* \"#utility.yul\":4325:4505   */\n    tag_143:\n        /* \"#utility.yul\":4373:4450   */\n      0x4e487b7100000000000000000000000000000000000000000000000000000000\n        /* \"#utility.yul\":4370:4371   */\n      0x00\n        /* \"#utility.yul\":4363:4451   */\n      mstore\n        /* \"#utility.yul\":4470:4474   */\n      0x41\n        /* \"#utility.yul\":4467:4468   */\n      0x04\n        /* \"#utility.yul\":4460:4475   */\n      mstore\n        /* \"#utility.yul\":4494:4498   */\n      0x24\n        /* \"#utility.yul\":4491:4492   */\n      0x00\n        /* \"#utility.yul\":4484:4499   */\n      revert\n        /* \"#utility.yul\":4511:4792   */\n    tag_235:\n        /* \"#utility.yul\":4594:4621   */\n      tag_319\n        /* \"#utility.yul\":4616:4620   */\n      dup3\n        /* \"#utility.yul\":4594:4621   */\n      tag_231\n      jump\t// in\n    tag_319:\n        /* \"#utility.yul\":4586:4592   */\n      dup2\n        /* \"#utility.yul\":4582:4622   */\n      add\n        /* \"#utility.yul\":4724:4730   */\n      dup2\n        /* \"#utility.yul\":4712:4722   */\n      dup2\n        /* \"#utility.yul\":4709:4731   */\n      lt\n        /* \"#utility.yul\":4688:4706   */\n      0xffffffffffffffff\n        /* \"#utility.yul\":4676:4686   */\n      dup3\n        /* \"#utility.yul\":4673:4707   */\n      gt\n        /* \"#utility.yul\":4670:4732   */\n      or\n        /* \"#utility.yul\":4667:4755   */\n      iszero\n      tag_320\n      jumpi\n        /* \"#utility.yul\":4735:4753   */\n      tag_321\n      tag_143\n      jump\t// in\n    tag_321:\n        /* \"#utility.yul\":4667:4755   */\n    tag_320:\n        /* \"#utility.yul\":4775:4785   */\n      dup1\n        /* \"#utility.yul\":4771:4773   */\n      0x40\n        /* \"#utility.yul\":4764:4786   */\n      mstore\n        /* \"#utility.yul\":4554:4792   */\n      pop\n        /* \"#utility.yul\":4511:4792   */\n      pop\n      pop\n      jump\t// out\n        /* \"#utility.yul\":4798:4927   */\n    tag_236:\n        /* \"#utility.yul\":4832:4838   */\n      0x00\n        /* \"#utility.yul\":4859:4879   */\n      tag_323\n      tag_217\n      jump\t// in\n    tag_323:\n        /* \"#utility.yul\":4849:4879   */\n      swap1\n      pop\n        /* \"#utility.yul\":4888:4921   */\n      tag_324\n        /* \"#utility.yul\":4916:4920   */\n      dup3\n        /* \"#utility.yul\":4908:4914   */\n      dup3\n        /* \"#utility.yul\":4888:4921   */\n      tag_235\n      jump\t// in\n    tag_324:\n        /* \"#utility.yul\":4798:4927   */\n      swap2\n      swap1\n      pop\n      jump\t// out\n        /* \"#utility.yul\":4933:5240   */\n    tag_237:\n        /* \"#utility.yul\":4994:4998   */\n      0x00\n        /* \"#utility.yul\":5084:5102   */\n      0xffffffffffffffff\n        /* \"#utility.yul\":5076:5082   */\n      dup3\n        /* \"#utility.yul\":5073:5103   */\n      gt\n        /* \"#utility.yul\":5070:5126   */\n      iszero\n      tag_326\n      jumpi\n        /* \"#utility.yul\":5106:5124   */\n      tag_327\n      tag_143\n      jump\t// in\n    tag_327:\n        /* \"#utility.yul\":5070:5126   */\n    tag_326:\n        /* \"#utility.yul\":5144:5173   */\n      tag_328\n        /* \"#utility.yul\":5166:5172   */\n      dup3\n        /* \"#utility.yul\":5144:5173   */\n      tag_231\n      jump\t// in\n    tag_328:\n        /* \"#utility.yul\":5136:5173   */\n      swap1\n      pop\n        /* \"#utility.yul\":5228:5232   */\n      0x20\n        /* \"#utility.yul\":5222:5226   */\n      dup2\n        /* \"#utility.yul\":5218:5233   */\n      add\n        /* \"#utility.yul\":5210:5233   */\n      swap1\n      pop\n        /* \"#utility.yul\":4933:5240   */\n      swap2\n      swap1\n      pop\n      jump\t// out\n        /* \"#utility.yul\":5246:5392   */\n    tag_238:\n        /* \"#utility.yul\":5343:5349   */\n      dup3\n        /* \"#utility.yul\":5338:5341   */\n      dup2\n        /* \"#utility.yul\":5333:5336   */\n      dup4\n        /* \"#utility.yul\":5320:5350   */\n      calldatacopy\n        /* \"#utility.yul\":5384:5385   */\n      0x00\n        /* \"#utility.yul\":5375:5381   */\n      dup4\n        /* \"#utility.yul\":5370:5373   */\n      dup4\n        /* \"#utility.yul\":5366:5382   */\n      add\n        /* \"#utility.yul\":5359:5386   */\n      mstore\n        /* \"#utility.yul\":5246:5392   */\n      pop\n      pop\n      pop\n      jump\t// out\n        /* \"#utility.yul\":5398:5821   */\n    tag_239:\n        /* \"#utility.yul\":5475:5480   */\n      0x00\n        /* \"#utility.yul\":5500:5565   */\n      tag_331\n        /* \"#utility.yul\":5516:5564   */\n      tag_332\n        /* \"#utility.yul\":5557:5563   */\n      dup5\n        /* \"#utility.yul\":5516:5564   */\n      tag_237\n      jump\t// in\n    tag_332:\n        /* \"#utility.yul\":5500:5565   */\n      tag_236\n      jump\t// in\n    tag_331:\n        /* \"#utility.yul\":5491:5565   */\n      swap1\n      pop\n        /* \"#utility.yul\":5588:5594   */\n      dup3\n        /* \"#utility.yul\":5581:5586   */\n      dup2\n        /* \"#utility.yul\":5574:5595   */\n      mstore\n        /* \"#utility.yul\":5626:5630   */\n      0x20\n        /* \"#utility.yul\":5619:5624   */\n      dup2\n        /* \"#utility.yul\":5615:5631   */\n      add\n        /* \"#utility.yul\":5664:5667   */\n      dup5\n        /* \"#utility.yul\":5655:5661   */\n      dup5\n        /* \"#utility.yul\":5650:5653   */\n      dup5\n        /* \"#utility.yul\":5646:5662   */\n      add\n        /* \"#utility.yul\":5643:5668   */\n      gt\n        /* \"#utility.yul\":5640:5752   */\n      iszero\n      tag_333\n      jumpi\n        /* \"#utility.yul\":5671:5750   */\n      tag_334\n      tag_234\n      jump\t// in\n    tag_334:\n        /* \"#utility.yul\":5640:5752   */\n    tag_333:\n        /* \"#utility.yul\":5761:5815   */\n      tag_335\n        /* \"#utility.yul\":5808:5814   */\n      dup5\n        /* \"#utility.yul\":5803:5806   */\n      dup3\n        /* \"#utility.yul\":5798:5801   */\n      dup6\n        /* \"#utility.yul\":5761:5815   */\n      tag_238\n      jump\t// in\n    tag_335:\n        /* \"#utility.yul\":5481:5821   */\n      pop\n        /* \"#utility.yul\":5398:5821   */\n      swap4\n      swap3\n      pop\n      pop\n      pop\n      jump\t// out\n        /* \"#utility.yul\":5840:6178   */\n    tag_240:\n        /* \"#utility.yul\":5895:5900   */\n      0x00\n        /* \"#utility.yul\":5944:5947   */\n      dup3\n        /* \"#utility.yul\":5937:5941   */\n      0x1f\n        /* \"#utility.yul\":5929:5935   */\n      dup4\n        /* \"#utility.yul\":5925:5942   */\n      add\n        /* \"#utility.yul\":5921:5948   */\n      slt\n        /* \"#utility.yul\":5911:6033   */\n      tag_337\n      jumpi\n        /* \"#utility.yul\":5952:6031   */\n      tag_338\n      tag_233\n      jump\t// in\n    tag_338:\n        /* \"#utility.yul\":5911:6033   */\n    tag_337:\n        /* \"#utility.yul\":6069:6075   */\n      dup2\n        /* \"#utility.yul\":6056:6076   */\n      calldataload\n        /* \"#utility.yul\":6094:6172   */\n      tag_339\n        /* \"#utility.yul\":6168:6171   */\n      dup5\n        /* \"#utility.yul\":6160:6166   */\n      dup3\n        /* \"#utility.yul\":6153:6157   */\n      0x20\n        /* \"#utility.yul\":6145:6151   */\n      dup7\n        /* \"#utility.yul\":6141:6158   */\n      add\n        /* \"#utility.yul\":6094:6172   */\n      tag_239\n      jump\t// in\n    tag_339:\n        /* \"#utility.yul\":6085:6172   */\n      swap2\n      pop\n        /* \"#utility.yul\":5901:6178   */\n      pop\n        /* \"#utility.yul\":5840:6178   */\n      swap3\n      swap2\n      pop\n      pop\n      jump\t// out\n        /* \"#utility.yul\":6184:6691   */\n    tag_60:\n        /* \"#utility.yul\":6252:6258   */\n      0x00\n        /* \"#utility.yul\":6301:6303   */\n      0x20\n        /* \"#utility.yul\":6289:6298   */\n      dup3\n        /* \"#utility.yul\":6280:6287   */\n      dup5\n        /* \"#utility.yul\":6276:6299   */\n      sub\n        /* \"#utility.yul\":6272:6304   */\n      slt\n        /* \"#utility.yul\":6269:6388   */\n      iszero\n      tag_341\n      jumpi\n        /* \"#utility.yul\":6307:6386   */\n      tag_342\n      tag_218\n      jump\t// in\n    tag_342:\n        /* \"#utility.yul\":6269:6388   */\n    tag_341:\n        /* \"#utility.yul\":6455:6456   */\n      0x00\n        /* \"#utility.yul\":6444:6453   */\n      dup3\n        /* \"#utility.yul\":6440:6457   */\n      add\n        /* \"#utility.yul\":6427:6458   */\n      calldataload\n        /* \"#utility.yul\":6485:6503   */\n      0xffffffffffffffff\n        /* \"#utility.yul\":6477:6483   */\n      dup2\n        /* \"#utility.yul\":6474:6504   */\n      gt\n        /* \"#utility.yul\":6471:6588   */\n      iszero\n      tag_343\n      jumpi\n        /* \"#utility.yul\":6507:6586   */\n      tag_344\n      tag_219\n      jump\t// in\n    tag_344:\n        /* \"#utility.yul\":6471:6588   */\n    tag_343:\n        /* \"#utility.yul\":6612:6674   */\n      tag_345\n        /* \"#utility.yul\":6666:6673   */\n      dup5\n        /* \"#utility.yul\":6657:6663   */\n      dup3\n        /* \"#utility.yul\":6646:6655   */\n      dup6\n        /* \"#utility.yul\":6642:6664   */\n      add\n        /* \"#utility.yul\":6612:6674   */\n      tag_240\n      jump\t// in\n    tag_345:\n        /* \"#utility.yul\":6602:6674   */\n      swap2\n      pop\n        /* \"#utility.yul\":6398:6684   */\n      pop\n        /* \"#utility.yul\":6184:6691   */\n      swap3\n      swap2\n      pop\n      pop\n      jump\t// out\n        /* \"#utility.yul\":6697:6835   */\n    tag_241:\n        /* \"#utility.yul\":6778:6810   */\n      tag_347\n        /* \"#utility.yul\":6804:6809   */\n      dup2\n        /* \"#utility.yul\":6778:6810   */\n      tag_223\n      jump\t// in\n    tag_347:\n        /* \"#utility.yul\":6771:6776   */\n      dup2\n        /* \"#utility.yul\":6768:6811   */\n      eq\n        /* \"#utility.yul\":6758:6829   */\n      tag_348\n      jumpi\n        /* \"#utility.yul\":6825:6826   */\n      0x00\n        /* \"#utility.yul\":6822:6823   */\n      dup1\n        /* \"#utility.yul\":6815:6827   */\n      revert\n        /* \"#utility.yul\":6758:6829   */\n    tag_348:\n        /* \"#utility.yul\":6697:6835   */\n      pop\n      jump\t// out\n        /* \"#utility.yul\":6841:6996   */\n    tag_242:\n        /* \"#utility.yul\":6895:6900   */\n      0x00\n        /* \"#utility.yul\":6933:6939   */\n      dup2\n        /* \"#utility.yul\":6920:6940   */\n      calldataload\n        /* \"#utility.yul\":6911:6940   */\n      swap1\n      pop\n        /* \"#utility.yul\":6949:6990   */\n      tag_350\n        /* \"#utility.yul\":6984:6989   */\n      dup2\n        /* \"#utility.yul\":6949:6990   */\n      tag_241\n      jump\t// in\n    tag_350:\n        /* \"#utility.yul\":6841:6996   */\n      swap3\n      swap2\n      pop\n      pop\n      jump\t// out\n        /* \"#utility.yul\":7002:7347   */\n    tag_73:\n        /* \"#utility.yul\":7069:7075   */\n      0x00\n        /* \"#utility.yul\":7118:7120   */\n      0x20\n        /* \"#utility.yul\":7106:7115   */\n      dup3\n        /* \"#utility.yul\":7097:7104   */\n      dup5\n        /* \"#utility.yul\":7093:7116   */\n      sub\n        /* \"#utility.yul\":7089:7121   */\n      slt\n        /* \"#utility.yul\":7086:7205   */\n      iszero\n      tag_352\n      jumpi\n        /* \"#utility.yul\":7124:7203   */\n      tag_353\n      tag_218\n      jump\t// in\n    tag_353:\n        /* \"#utility.yul\":7086:7205   */\n    tag_352:\n        /* \"#utility.yul\":7244:7245   */\n      0x00\n        /* \"#utility.yul\":7269:7330   */\n      tag_354\n        /* \"#utility.yul\":7322:7329   */\n      dup5\n        /* \"#utility.yul\":7313:7319   */\n      dup3\n        /* \"#utility.yul\":7302:7311   */\n      dup6\n        /* \"#utility.yul\":7298:7320   */\n      add\n        /* \"#utility.yul\":7269:7330   */\n      tag_242\n      jump\t// in\n    tag_354:\n        /* \"#utility.yul\":7259:7330   */\n      swap2\n      pop\n        /* \"#utility.yul\":7215:7340   */\n      pop\n        /* \"#utility.yul\":7002:7347   */\n      swap3\n      swap2\n      pop\n      pop\n      jump\t// out\n        /* \"#utility.yul\":7353:7443   */\n    tag_243:\n        /* \"#utility.yul\":7387:7394   */\n      0x00\n        /* \"#utility.yul\":7430:7435   */\n      dup2\n        /* \"#utility.yul\":7423:7436   */\n      iszero\n        /* \"#utility.yul\":7416:7437   */\n      iszero\n        /* \"#utility.yul\":7405:7437   */\n      swap1\n      pop\n        /* \"#utility.yul\":7353:7443   */\n      swap2\n      swap1\n      pop\n      jump\t// out\n        /* \"#utility.yul\":7449:7558   */\n    tag_244:\n        /* \"#utility.yul\":7530:7551   */\n      tag_357\n        /* \"#utility.yul\":7545:7550   */\n      dup2\n        /* \"#utility.yul\":7530:7551   */\n      tag_243\n      jump\t// in\n    tag_357:\n        /* \"#utility.yul\":7525:7528   */\n      dup3\n        /* \"#utility.yul\":7518:7552   */\n      mstore\n        /* \"#utility.yul\":7449:7558   */\n      pop\n      pop\n      jump\t// out\n        /* \"#utility.yul\":7564:7774   */\n    tag_76:\n        /* \"#utility.yul\":7651:7655   */\n      0x00\n        /* \"#utility.yul\":7689:7691   */\n      0x20\n        /* \"#utility.yul\":7678:7687   */\n      dup3\n        /* \"#utility.yul\":7674:7692   */\n      add\n        /* \"#utility.yul\":7666:7692   */\n      swap1\n      pop\n        /* \"#utility.yul\":7702:7767   */\n      tag_359\n        /* \"#utility.yul\":7764:7765   */\n      0x00\n        /* \"#utility.yul\":7753:7762   */\n      dup4\n        /* \"#utility.yul\":7749:7766   */\n      add\n        /* \"#utility.yul\":7740:7746   */\n      dup5\n        /* \"#utility.yul\":7702:7767   */\n      tag_244\n      jump\t// in\n    tag_359:\n        /* \"#utility.yul\":7564:7774   */\n      swap3\n      swap2\n      pop\n      pop\n      jump\t// out\n        /* \"#utility.yul\":7780:7857   */\n    tag_245:\n        /* \"#utility.yul\":7817:7824   */\n      0x00\n        /* \"#utility.yul\":7846:7851   */\n      dup2\n        /* \"#utility.yul\":7835:7851   */\n      swap1\n      pop\n        /* \"#utility.yul\":7780:7857   */\n      swap2\n      swap1\n      pop\n      jump\t// out\n        /* \"#utility.yul\":7863:7985   */\n    tag_246:\n        /* \"#utility.yul\":7936:7960   */\n      tag_362\n        /* \"#utility.yul\":7954:7959   */\n      dup2\n        /* \"#utility.yul\":7936:7960   */\n      tag_245\n      jump\t// in\n    tag_362:\n        /* \"#utility.yul\":7929:7934   */\n      dup2\n        /* \"#utility.yul\":7926:7961   */\n      eq\n        /* \"#utility.yul\":7916:7979   */\n      tag_363\n      jumpi\n        /* \"#utility.yul\":7975:7976   */\n      0x00\n        /* \"#utility.yul\":7972:7973   */\n      dup1\n        /* \"#utility.yul\":7965:7977   */\n      revert\n        /* \"#utility.yul\":7916:7979   */\n    tag_363:\n        /* \"#utility.yul\":7863:7985   */\n      pop\n      jump\t// out\n        /* \"#utility.yul\":7991:8130   */\n    tag_247:\n        /* \"#utility.yul\":8037:8042   */\n      0x00\n        /* \"#utility.yul\":8075:8081   */\n      dup2\n        /* \"#utility.yul\":8062:8082   */\n      calldataload\n        /* \"#utility.yul\":8053:8082   */\n      swap1\n      pop\n        /* \"#utility.yul\":8091:8124   */\n      tag_365\n        /* \"#utility.yul\":8118:8123   */\n      dup2\n        /* \"#utility.yul\":8091:8124   */\n      tag_246\n      jump\t// in\n    tag_365:\n        /* \"#utility.yul\":7991:8130   */\n      swap3\n      swap2\n      pop\n      pop\n      jump\t// out\n        /* \"#utility.yul\":8136:8465   */\n    tag_84:\n        /* \"#utility.yul\":8195:8201   */\n      0x00\n        /* \"#utility.yul\":8244:8246   */\n      0x20\n        /* \"#utility.yul\":8232:8241   */\n      dup3\n        /* \"#utility.yul\":8223:8230   */\n      dup5\n        /* \"#utility.yul\":8219:8242   */\n      sub\n        /* \"#utility.yul\":8215:8247   */\n      slt\n        /* \"#utility.yul\":8212:8331   */\n      iszero\n      tag_367\n      jumpi\n        /* \"#utility.yul\":8250:8329   */\n      tag_368\n      tag_218\n      jump\t// in\n    tag_368:\n        /* \"#utility.yul\":8212:8331   */\n    tag_367:\n        /* \"#utility.yul\":8370:8371   */\n      0x00\n        /* \"#utility.yul\":8395:8448   */\n      tag_369\n        /* \"#utility.yul\":8440:8447   */\n      dup5\n        /* \"#utility.yul\":8431:8437   */\n      dup3\n        /* \"#utility.yul\":8420:8429   */\n      dup6\n        /* \"#utility.yul\":8416:8438   */\n      add\n        /* \"#utility.yul\":8395:8448   */\n      tag_247\n      jump\t// in\n    tag_369:\n        /* \"#utility.yul\":8385:8448   */\n      swap2\n      pop\n        /* \"#utility.yul\":8341:8458   */\n      pop\n        /* \"#utility.yul\":8136:8465   */\n      swap3\n      swap2\n      pop\n      pop\n      jump\t// out\n        /* \"#utility.yul\":8471:8550   */\n    tag_248:\n        /* \"#utility.yul\":8510:8517   */\n      0x00\n        /* \"#utility.yul\":8539:8544   */\n      dup2\n        /* \"#utility.yul\":8528:8544   */\n      swap1\n      pop\n        /* \"#utility.yul\":8471:8550   */\n      swap2\n      swap1\n      pop\n      jump\t// out\n        /* \"#utility.yul\":8556:8713   */\n    tag_249:\n        /* \"#utility.yul\":8661:8706   */\n      tag_372\n        /* \"#utility.yul\":8681:8705   */\n      tag_373\n        /* \"#utility.yul\":8699:8704   */\n      dup3\n        /* \"#utility.yul\":8681:8705   */\n      tag_215\n      jump\t// in\n    tag_373:\n        /* \"#utility.yul\":8661:8706   */\n      tag_248\n      jump\t// in\n    tag_372:\n        /* \"#utility.yul\":8656:8659   */\n      dup3\n        /* \"#utility.yul\":8649:8707   */\n      mstore\n        /* \"#utility.yul\":8556:8713   */\n      pop\n      pop\n      jump\t// out\n        /* \"#utility.yul\":8719:9116   */\n    tag_99:\n        /* \"#utility.yul\":8859:8862   */\n      0x00\n        /* \"#utility.yul\":8874:8949   */\n      tag_375\n        /* \"#utility.yul\":8945:8948   */\n      dup3\n        /* \"#utility.yul\":8936:8942   */\n      dup6\n        /* \"#utility.yul\":8874:8949   */\n      tag_249\n      jump\t// in\n    tag_375:\n        /* \"#utility.yul\":8974:8976   */\n      0x20\n        /* \"#utility.yul\":8969:8972   */\n      dup3\n        /* \"#utility.yul\":8965:8977   */\n      add\n        /* \"#utility.yul\":8958:8977   */\n      swap2\n      pop\n        /* \"#utility.yul\":8987:9062   */\n      tag_376\n        /* \"#utility.yul\":9058:9061   */\n      dup3\n        /* \"#utility.yul\":9049:9055   */\n      dup5\n        /* \"#utility.yul\":8987:9062   */\n      tag_249\n      jump\t// in\n    tag_376:\n        /* \"#utility.yul\":9087:9089   */\n      0x20\n        /* \"#utility.yul\":9082:9085   */\n      dup3\n        /* \"#utility.yul\":9078:9090   */\n      add\n        /* \"#utility.yul\":9071:9090   */\n      swap2\n      pop\n        /* \"#utility.yul\":9107:9110   */\n      dup2\n        /* \"#utility.yul\":9100:9110   */\n      swap1\n      pop\n        /* \"#utility.yul\":8719:9116   */\n      swap4\n      swap3\n      pop\n      pop\n      pop\n      jump\t// out\n        /* \"#utility.yul\":9122:9302   */\n    tag_250:\n        /* \"#utility.yul\":9170:9247   */\n      0x4e487b7100000000000000000000000000000000000000000000000000000000\n        /* \"#utility.yul\":9167:9168   */\n      0x00\n        /* \"#utility.yul\":9160:9248   */\n      mstore\n        /* \"#utility.yul\":9267:9271   */\n      0x12\n        /* \"#utility.yul\":9264:9265   */\n      0x04\n        /* \"#utility.yul\":9257:9272   */\n      mstore\n        /* \"#utility.yul\":9291:9295   */\n      0x24\n        /* \"#utility.yul\":9288:9289   */\n      0x00\n        /* \"#utility.yul\":9281:9296   */\n      revert\n        /* \"#utility.yul\":9308:9484   */\n    tag_101:\n        /* \"#utility.yul\":9340:9341   */\n      0x00\n        /* \"#utility.yul\":9357:9377   */\n      tag_379\n        /* \"#utility.yul\":9375:9376   */\n      dup3\n        /* \"#utility.yul\":9357:9377   */\n      tag_215\n      jump\t// in\n    tag_379:\n        /* \"#utility.yul\":9352:9377   */\n      swap2\n      pop\n        /* \"#utility.yul\":9391:9411   */\n      tag_380\n        /* \"#utility.yul\":9409:9410   */\n      dup4\n        /* \"#utility.yul\":9391:9411   */\n      tag_215\n      jump\t// in\n    tag_380:\n        /* \"#utility.yul\":9386:9411   */\n      swap3\n      pop\n        /* \"#utility.yul\":9430:9431   */\n      dup3\n        /* \"#utility.yul\":9420:9455   */\n      tag_381\n      jumpi\n        /* \"#utility.yul\":9435:9453   */\n      tag_382\n      tag_250\n      jump\t// in\n    tag_382:\n        /* \"#utility.yul\":9420:9455   */\n    tag_381:\n        /* \"#utility.yul\":9476:9477   */\n      dup3\n        /* \"#utility.yul\":9473:9474   */\n      dup3\n        /* \"#utility.yul\":9469:9478   */\n      mod\n        /* \"#utility.yul\":9464:9478   */\n      swap1\n      pop\n        /* \"#utility.yul\":9308:9484   */\n      swap3\n      swap2\n      pop\n      pop\n      jump\t// out\n        /* \"#utility.yul\":9490:9670   */\n    tag_251:\n        /* \"#utility.yul\":9538:9615   */\n      0x4e487b7100000000000000000000000000000000000000000000000000000000\n        /* \"#utility.yul\":9535:9536   */\n      0x00\n        /* \"#utility.yul\":9528:9616   */\n      mstore\n        /* \"#utility.yul\":9635:9639   */\n      0x11\n        /* \"#utility.yul\":9632:9633   */\n      0x04\n        /* \"#utility.yul\":9625:9640   */\n      mstore\n        /* \"#utility.yul\":9659:9663   */\n      0x24\n        /* \"#utility.yul\":9656:9657   */\n      0x00\n        /* \"#utility.yul\":9649:9664   */\n      revert\n        /* \"#utility.yul\":9676:10086   */\n    tag_107:\n        /* \"#utility.yul\":9716:9723   */\n      0x00\n        /* \"#utility.yul\":9739:9759   */\n      tag_385\n        /* \"#utility.yul\":9757:9758   */\n      dup3\n        /* \"#utility.yul\":9739:9759   */\n      tag_215\n      jump\t// in\n    tag_385:\n        /* \"#utility.yul\":9734:9759   */\n      swap2\n      pop\n        /* \"#utility.yul\":9773:9793   */\n      tag_386\n        /* \"#utility.yul\":9791:9792   */\n      dup4\n        /* \"#utility.yul\":9773:9793   */\n      tag_215\n      jump\t// in\n    tag_386:\n        /* \"#utility.yul\":9768:9793   */\n      swap3\n      pop\n        /* \"#utility.yul\":9828:9829   */\n      dup3\n        /* \"#utility.yul\":9825:9826   */\n      dup3\n        /* \"#utility.yul\":9821:9830   */\n      mul\n        /* \"#utility.yul\":9850:9880   */\n      tag_387\n        /* \"#utility.yul\":9868:9879   */\n      dup2\n        /* \"#utility.yul\":9850:9880   */\n      tag_215\n      jump\t// in\n    tag_387:\n        /* \"#utility.yul\":9839:9880   */\n      swap2\n      pop\n        /* \"#utility.yul\":10029:10030   */\n      dup3\n        /* \"#utility.yul\":10020:10027   */\n      dup3\n        /* \"#utility.yul\":10016:10031   */\n      div\n        /* \"#utility.yul\":10013:10014   */\n      dup5\n        /* \"#utility.yul\":10010:10032   */\n      eq\n        /* \"#utility.yul\":9990:9991   */\n      dup4\n        /* \"#utility.yul\":9983:9992   */\n      iszero\n        /* \"#utility.yul\":9963:10046   */\n      or\n        /* \"#utility.yul\":9940:10079   */\n      tag_388\n      jumpi\n        /* \"#utility.yul\":10059:10077   */\n      tag_389\n      tag_251\n      jump\t// in\n    tag_389:\n        /* \"#utility.yul\":9940:10079   */\n    tag_388:\n        /* \"#utility.yul\":9724:10086   */\n      pop\n        /* \"#utility.yul\":9676:10086   */\n      swap3\n      swap2\n      pop\n      pop\n      jump\t// out\n        /* \"#utility.yul\":10092:10277   */\n    tag_109:\n        /* \"#utility.yul\":10132:10133   */\n      0x00\n        /* \"#utility.yul\":10149:10169   */\n      tag_391\n        /* \"#utility.yul\":10167:10168   */\n      dup3\n        /* \"#utility.yul\":10149:10169   */\n      tag_215\n      jump\t// in\n    tag_391:\n        /* \"#utility.yul\":10144:10169   */\n      swap2\n      pop\n        /* \"#utility.yul\":10183:10203   */\n      tag_392\n        /* \"#utility.yul\":10201:10202   */\n      dup4\n        /* \"#utility.yul\":10183:10203   */\n      tag_215\n      jump\t// in\n    tag_392:\n        /* \"#utility.yul\":10178:10203   */\n      swap3\n      pop\n        /* \"#utility.yul\":10222:10223   */\n      dup3\n        /* \"#utility.yul\":10212:10247   */\n      tag_393\n      jumpi\n        /* \"#utility.yul\":10227:10245   */\n      tag_394\n      tag_250\n      jump\t// in\n    tag_394:\n        /* \"#utility.yul\":10212:10247   */\n    tag_393:\n        /* \"#utility.yul\":10269:10270   */\n      dup3\n        /* \"#utility.yul\":10266:10267   */\n      dup3\n        /* \"#utility.yul\":10262:10271   */\n      div\n        /* \"#utility.yul\":10257:10271   */\n      swap1\n      pop\n        /* \"#utility.yul\":10092:10277   */\n      swap3\n      swap2\n      pop\n      pop\n      jump\t// out\n        /* \"#utility.yul\":10283:10477   */\n    tag_113:\n        /* \"#utility.yul\":10323:10327   */\n      0x00\n        /* \"#utility.yul\":10343:10363   */\n      tag_396\n        /* \"#utility.yul\":10361:10362   */\n      dup3\n        /* \"#utility.yul\":10343:10363   */\n      tag_215\n      jump\t// in\n    tag_396:\n        /* \"#utility.yul\":10338:10363   */\n      swap2\n      pop\n        /* \"#utility.yul\":10377:10397   */\n      tag_397\n        /* \"#utility.yul\":10395:10396   */\n      dup4\n        /* \"#utility.yul\":10377:10397   */\n      tag_215\n      jump\t// in\n    tag_397:\n        /* \"#utility.yul\":10372:10397   */\n      swap3\n      pop\n        /* \"#utility.yul\":10421:10422   */\n      dup3\n        /* \"#utility.yul\":10418:10419   */\n      dup3\n        /* \"#utility.yul\":10414:10423   */\n      sub\n        /* \"#utility.yul\":10406:10423   */\n      swap1\n      pop\n        /* \"#utility.yul\":10445:10446   */\n      dup2\n        /* \"#utility.yul\":10439:10443   */\n      dup2\n        /* \"#utility.yul\":10436:10447   */\n      gt\n        /* \"#utility.yul\":10433:10470   */\n      iszero\n      tag_398\n      jumpi\n        /* \"#utility.yul\":10450:10468   */\n      tag_399\n      tag_251\n      jump\t// in\n    tag_399:\n        /* \"#utility.yul\":10433:10470   */\n    tag_398:\n        /* \"#utility.yul\":10283:10477   */\n      swap3\n      swap2\n      pop\n      pop\n      jump\t// out\n        /* \"#utility.yul\":10483:10672   */\n    tag_252:\n        /* \"#utility.yul\":10652:10665   */\n      0x54686520616d6f756e7420000000000000000000000000000000000000000000\n        /* \"#utility.yul\":10647:10650   */\n      dup2\n        /* \"#utility.yul\":10640:10666   */\n      mstore\n        /* \"#utility.yul\":10483:10672   */\n      pop\n      jump\t// out\n        /* \"#utility.yul\":10678:10826   */\n    tag_253:\n        /* \"#utility.yul\":10780:10791   */\n      0x00\n        /* \"#utility.yul\":10817:10820   */\n      dup2\n        /* \"#utility.yul\":10802:10820   */\n      swap1\n      pop\n        /* \"#utility.yul\":10678:10826   */\n      swap3\n      swap2\n      pop\n      pop\n      jump\t// out\n        /* \"#utility.yul\":10832:11222   */\n    tag_254:\n        /* \"#utility.yul\":10938:10941   */\n      0x00\n        /* \"#utility.yul\":10966:11005   */\n      tag_403\n        /* \"#utility.yul\":10999:11004   */\n      dup3\n        /* \"#utility.yul\":10966:11005   */\n      tag_228\n      jump\t// in\n    tag_403:\n        /* \"#utility.yul\":11021:11110   */\n      tag_404\n        /* \"#utility.yul\":11103:11109   */\n      dup2\n        /* \"#utility.yul\":11098:11101   */\n      dup6\n        /* \"#utility.yul\":11021:11110   */\n      tag_253\n      jump\t// in\n    tag_404:\n        /* \"#utility.yul\":11014:11110   */\n      swap4\n      pop\n        /* \"#utility.yul\":11119:11184   */\n      tag_405\n        /* \"#utility.yul\":11177:11183   */\n      dup2\n        /* \"#utility.yul\":11172:11175   */\n      dup6\n        /* \"#utility.yul\":11165:11169   */\n      0x20\n        /* \"#utility.yul\":11158:11163   */\n      dup7\n        /* \"#utility.yul\":11154:11170   */\n      add\n        /* \"#utility.yul\":11119:11184   */\n      tag_230\n      jump\t// in\n    tag_405:\n        /* \"#utility.yul\":11209:11215   */\n      dup1\n        /* \"#utility.yul\":11204:11207   */\n      dup5\n        /* \"#utility.yul\":11200:11216   */\n      add\n        /* \"#utility.yul\":11193:11216   */\n      swap2\n      pop\n        /* \"#utility.yul\":10942:11222   */\n      pop\n        /* \"#utility.yul\":10832:11222   */\n      swap3\n      swap2\n      pop\n      pop\n      jump\t// out\n        /* \"#utility.yul\":11228:11453   */\n    tag_255:\n        /* \"#utility.yul\":11368:11402   */\n      0x2069732067726561746572207468616e2074686520636f6e7472616374206261\n        /* \"#utility.yul\":11364:11365   */\n      0x00\n        /* \"#utility.yul\":11356:11362   */\n      dup3\n        /* \"#utility.yul\":11352:11366   */\n      add\n        /* \"#utility.yul\":11345:11403   */\n      mstore\n        /* \"#utility.yul\":11437:11445   */\n      0x6c616e6365200000000000000000000000000000000000000000000000000000\n        /* \"#utility.yul\":11432:11434   */\n      0x20\n        /* \"#utility.yul\":11424:11430   */\n      dup3\n        /* \"#utility.yul\":11420:11435   */\n      add\n        /* \"#utility.yul\":11413:11446   */\n      mstore\n        /* \"#utility.yul\":11228:11453   */\n      pop\n      jump\t// out\n        /* \"#utility.yul\":11459:11861   */\n    tag_256:\n        /* \"#utility.yul\":11619:11622   */\n      0x00\n        /* \"#utility.yul\":11640:11725   */\n      tag_408\n        /* \"#utility.yul\":11722:11724   */\n      0x26\n        /* \"#utility.yul\":11717:11720   */\n      dup4\n        /* \"#utility.yul\":11640:11725   */\n      tag_253\n      jump\t// in\n    tag_408:\n        /* \"#utility.yul\":11633:11725   */\n      swap2\n      pop\n        /* \"#utility.yul\":11734:11827   */\n      tag_409\n        /* \"#utility.yul\":11823:11826   */\n      dup3\n        /* \"#utility.yul\":11734:11827   */\n      tag_255\n      jump\t// in\n    tag_409:\n        /* \"#utility.yul\":11852:11854   */\n      0x26\n        /* \"#utility.yul\":11847:11850   */\n      dup3\n        /* \"#utility.yul\":11843:11855   */\n      add\n        /* \"#utility.yul\":11836:11855   */\n      swap1\n      pop\n        /* \"#utility.yul\":11459:11861   */\n      swap2\n      swap1\n      pop\n      jump\t// out\n        /* \"#utility.yul\":11867:12835   */\n    tag_124:\n        /* \"#utility.yul\":12239:12242   */\n      0x00\n        /* \"#utility.yul\":12254:12392   */\n      tag_411\n        /* \"#utility.yul\":12388:12391   */\n      dup3\n        /* \"#utility.yul\":12254:12392   */\n      tag_252\n      jump\t// in\n    tag_411:\n        /* \"#utility.yul\":12417:12419   */\n      0x0b\n        /* \"#utility.yul\":12412:12415   */\n      dup3\n        /* \"#utility.yul\":12408:12420   */\n      add\n        /* \"#utility.yul\":12401:12420   */\n      swap2\n      pop\n        /* \"#utility.yul\":12437:12532   */\n      tag_412\n        /* \"#utility.yul\":12528:12531   */\n      dup3\n        /* \"#utility.yul\":12519:12525   */\n      dup6\n        /* \"#utility.yul\":12437:12532   */\n      tag_254\n      jump\t// in\n    tag_412:\n        /* \"#utility.yul\":12430:12532   */\n      swap2\n      pop\n        /* \"#utility.yul\":12549:12697   */\n      tag_413\n        /* \"#utility.yul\":12693:12696   */\n      dup3\n        /* \"#utility.yul\":12549:12697   */\n      tag_256\n      jump\t// in\n    tag_413:\n        /* \"#utility.yul\":12542:12697   */\n      swap2\n      pop\n        /* \"#utility.yul\":12714:12809   */\n      tag_414\n        /* \"#utility.yul\":12805:12808   */\n      dup3\n        /* \"#utility.yul\":12796:12802   */\n      dup5\n        /* \"#utility.yul\":12714:12809   */\n      tag_254\n      jump\t// in\n    tag_414:\n        /* \"#utility.yul\":12707:12809   */\n      swap2\n      pop\n        /* \"#utility.yul\":12826:12829   */\n      dup2\n        /* \"#utility.yul\":12819:12829   */\n      swap1\n      pop\n        /* \"#utility.yul\":11867:12835   */\n      swap4\n      swap3\n      pop\n      pop\n      pop\n      jump\t// out\n        /* \"#utility.yul\":12841:12935   */\n    tag_257:\n        /* \"#utility.yul\":12874:12882   */\n      0x00\n        /* \"#utility.yul\":12922:12927   */\n      dup2\n        /* \"#utility.yul\":12918:12920   */\n      0x60\n        /* \"#utility.yul\":12914:12928   */\n      shl\n        /* \"#utility.yul\":12893:12928   */\n      swap1\n      pop\n        /* \"#utility.yul\":12841:12935   */\n      swap2\n      swap1\n      pop\n      jump\t// out\n        /* \"#utility.yul\":12941:13035   */\n    tag_258:\n        /* \"#utility.yul\":12980:12987   */\n      0x00\n        /* \"#utility.yul\":13009:13029   */\n      tag_417\n        /* \"#utility.yul\":13023:13028   */\n      dup3\n        /* \"#utility.yul\":13009:13029   */\n      tag_257\n      jump\t// in\n    tag_417:\n        /* \"#utility.yul\":12998:13029   */\n      swap1\n      pop\n        /* \"#utility.yul\":12941:13035   */\n      swap2\n      swap1\n      pop\n      jump\t// out\n        /* \"#utility.yul\":13041:13141   */\n    tag_259:\n        /* \"#utility.yul\":13080:13087   */\n      0x00\n        /* \"#utility.yul\":13109:13135   */\n      tag_419\n        /* \"#utility.yul\":13129:13134   */\n      dup3\n        /* \"#utility.yul\":13109:13135   */\n      tag_258\n      jump\t// in\n    tag_419:\n        /* \"#utility.yul\":13098:13135   */\n      swap1\n      pop\n        /* \"#utility.yul\":13041:13141   */\n      swap2\n      swap1\n      pop\n      jump\t// out\n        /* \"#utility.yul\":13147:13304   */\n    tag_260:\n        /* \"#utility.yul\":13252:13297   */\n      tag_421\n        /* \"#utility.yul\":13272:13296   */\n      tag_422\n        /* \"#utility.yul\":13290:13295   */\n      dup3\n        /* \"#utility.yul\":13272:13296   */\n      tag_225\n      jump\t// in\n    tag_422:\n        /* \"#utility.yul\":13252:13297   */\n      tag_259\n      jump\t// in\n    tag_421:\n        /* \"#utility.yul\":13247:13250   */\n      dup3\n        /* \"#utility.yul\":13240:13298   */\n      mstore\n        /* \"#utility.yul\":13147:13304   */\n      pop\n      pop\n      jump\t// out\n        /* \"#utility.yul\":13310:13566   */\n    tag_132:\n        /* \"#utility.yul\":13422:13425   */\n      0x00\n        /* \"#utility.yul\":13437:13512   */\n      tag_424\n        /* \"#utility.yul\":13508:13511   */\n      dup3\n        /* \"#utility.yul\":13499:13505   */\n      dup5\n        /* \"#utility.yul\":13437:13512   */\n      tag_260\n      jump\t// in\n    tag_424:\n        /* \"#utility.yul\":13537:13539   */\n      0x14\n        /* \"#utility.yul\":13532:13535   */\n      dup3\n        /* \"#utility.yul\":13528:13540   */\n      add\n        /* \"#utility.yul\":13521:13540   */\n      swap2\n      pop\n        /* \"#utility.yul\":13557:13560   */\n      dup2\n        /* \"#utility.yul\":13550:13560   */\n      swap1\n      pop\n        /* \"#utility.yul\":13310:13566   */\n      swap3\n      swap2\n      pop\n      pop\n      jump\t// out\n        /* \"#utility.yul\":13572:13828   */\n    tag_136:\n        /* \"#utility.yul\":13684:13687   */\n      0x00\n        /* \"#utility.yul\":13699:13774   */\n      tag_426\n        /* \"#utility.yul\":13770:13773   */\n      dup3\n        /* \"#utility.yul\":13761:13767   */\n      dup5\n        /* \"#utility.yul\":13699:13774   */\n      tag_249\n      jump\t// in\n    tag_426:\n        /* \"#utility.yul\":13799:13801   */\n      0x20\n        /* \"#utility.yul\":13794:13797   */\n      dup3\n        /* \"#utility.yul\":13790:13802   */\n      add\n        /* \"#utility.yul\":13783:13802   */\n      swap2\n      pop\n        /* \"#utility.yul\":13819:13822   */\n      dup2\n        /* \"#utility.yul\":13812:13822   */\n      swap1\n      pop\n        /* \"#utility.yul\":13572:13828   */\n      swap3\n      swap2\n      pop\n      pop\n      jump\t// out\n        /* \"#utility.yul\":13834:14025   */\n    tag_140:\n        /* \"#utility.yul\":13874:13877   */\n      0x00\n        /* \"#utility.yul\":13893:13913   */\n      tag_428\n        /* \"#utility.yul\":13911:13912   */\n      dup3\n        /* \"#utility.yul\":13893:13913   */\n      tag_215\n      jump\t// in\n    tag_428:\n        /* \"#utility.yul\":13888:13913   */\n      swap2\n      pop\n        /* \"#utility.yul\":13927:13947   */\n      tag_429\n        /* \"#utility.yul\":13945:13946   */\n      dup4\n        /* \"#utility.yul\":13927:13947   */\n      tag_215\n      jump\t// in\n    tag_429:\n        /* \"#utility.yul\":13922:13947   */\n      swap3\n      pop\n        /* \"#utility.yul\":13970:13971   */\n      dup3\n        /* \"#utility.yul\":13967:13968   */\n      dup3\n        /* \"#utility.yul\":13963:13972   */\n      add\n        /* \"#utility.yul\":13956:13972   */\n      swap1\n      pop\n        /* \"#utility.yul\":13991:13994   */\n      dup1\n        /* \"#utility.yul\":13988:13989   */\n      dup3\n        /* \"#utility.yul\":13985:13995   */\n      gt\n        /* \"#utility.yul\":13982:14018   */\n      iszero\n      tag_430\n      jumpi\n        /* \"#utility.yul\":13998:14016   */\n      tag_431\n      tag_251\n      jump\t// in\n    tag_431:\n        /* \"#utility.yul\":13982:14018   */\n    tag_430:\n        /* \"#utility.yul\":13834:14025   */\n      swap3\n      swap2\n      pop\n      pop\n      jump\t// out\n        /* \"#utility.yul\":14031:14211   */\n    tag_147:\n        /* \"#utility.yul\":14079:14156   */\n      0x4e487b7100000000000000000000000000000000000000000000000000000000\n        /* \"#utility.yul\":14076:14077   */\n      0x00\n        /* \"#utility.yul\":14069:14157   */\n      mstore\n        /* \"#utility.yul\":14176:14180   */\n      0x32\n        /* \"#utility.yul\":14173:14174   */\n      0x04\n        /* \"#utility.yul\":14166:14181   */\n      mstore\n        /* \"#utility.yul\":14200:14204   */\n      0x24\n        /* \"#utility.yul\":14197:14198   */\n      0x00\n        /* \"#utility.yul\":14190:14205   */\n      revert\n        /* \"#utility.yul\":14217:14450   */\n    tag_170:\n        /* \"#utility.yul\":14256:14259   */\n      0x00\n        /* \"#utility.yul\":14279:14303   */\n      tag_434\n        /* \"#utility.yul\":14297:14302   */\n      dup3\n        /* \"#utility.yul\":14279:14303   */\n      tag_215\n      jump\t// in\n    tag_434:\n        /* \"#utility.yul\":14270:14303   */\n      swap2\n      pop\n        /* \"#utility.yul\":14325:14391   */\n      0xffffffffffffffffffffffffffffffffffffffffffffffffffffffffffffffff\n        /* \"#utility.yul\":14318:14323   */\n      dup3\n        /* \"#utility.yul\":14315:14392   */\n      sub\n        /* \"#utility.yul\":14312:14415   */\n      tag_435\n      jumpi\n        /* \"#utility.yul\":14395:14413   */\n      tag_436\n      tag_251\n      jump\t// in\n    tag_436:\n        /* \"#utility.yul\":14312:14415   */\n    tag_435:\n        /* \"#utility.yul\":14442:14443   */\n      0x01\n        /* \"#utility.yul\":14435:14440   */\n      dup3\n        /* \"#utility.yul\":14431:14444   */\n      add\n        /* \"#utility.yul\":14424:14444   */\n      swap1\n      pop\n        /* \"#utility.yul\":14217:14450   */\n      swap2\n      swap1\n      pop\n      jump\t// out\n        /* \"#utility.yul\":14456:14688   */\n    tag_261:\n        /* \"#utility.yul\":14596:14630   */\n      0x5468697320616464726573732068617320616c726561647920656e7465726564\n        /* \"#utility.yul\":14592:14593   */\n      0x00\n        /* \"#utility.yul\":14584:14590   */\n      dup3\n        /* \"#utility.yul\":14580:14594   */\n      add\n        /* \"#utility.yul\":14573:14631   */\n      mstore\n        /* \"#utility.yul\":14665:14680   */\n      0x20746865206c6f74746572792e00000000000000000000000000000000000000\n        /* \"#utility.yul\":14660:14662   */\n      0x20\n        /* \"#utility.yul\":14652:14658   */\n      dup3\n        /* \"#utility.yul\":14648:14663   */\n      add\n        /* \"#utility.yul\":14641:14681   */\n      mstore\n        /* \"#utility.yul\":14456:14688   */\n      pop\n      jump\t// out\n        /* \"#utility.yul\":14694:15060   */\n    tag_262:\n        /* \"#utility.yul\":14836:14839   */\n      0x00\n        /* \"#utility.yul\":14857:14924   */\n      tag_439\n        /* \"#utility.yul\":14921:14923   */\n      0x2d\n        /* \"#utility.yul\":14916:14919   */\n      dup4\n        /* \"#utility.yul\":14857:14924   */\n      tag_229\n      jump\t// in\n    tag_439:\n        /* \"#utility.yul\":14850:14924   */\n      swap2\n      pop\n        /* \"#utility.yul\":14933:15026   */\n      tag_440\n        /* \"#utility.yul\":15022:15025   */\n      dup3\n        /* \"#utility.yul\":14933:15026   */\n      tag_261\n      jump\t// in\n    tag_440:\n        /* \"#utility.yul\":15051:15053   */\n      0x40\n        /* \"#utility.yul\":15046:15049   */\n      dup3\n        /* \"#utility.yul\":15042:15054   */\n      add\n        /* \"#utility.yul\":15035:15054   */\n      swap1\n      pop\n        /* \"#utility.yul\":14694:15060   */\n      swap2\n      swap1\n      pop\n      jump\t// out\n        /* \"#utility.yul\":15066:15485   */\n    tag_188:\n        /* \"#utility.yul\":15232:15236   */\n      0x00\n        /* \"#utility.yul\":15270:15272   */\n      0x20\n        /* \"#utility.yul\":15259:15268   */\n      dup3\n        /* \"#utility.yul\":15255:15273   */\n      add\n        /* \"#utility.yul\":15247:15273   */\n      swap1\n      pop\n        /* \"#utility.yul\":15319:15328   */\n      dup2\n        /* \"#utility.yul\":15313:15317   */\n      dup2\n        /* \"#utility.yul\":15309:15329   */\n      sub\n        /* \"#utility.yul\":15305:15306   */\n      0x00\n        /* \"#utility.yul\":15294:15303   */\n      dup4\n        /* \"#utility.yul\":15290:15307   */\n      add\n        /* \"#utility.yul\":15283:15330   */\n      mstore\n        /* \"#utility.yul\":15347:15478   */\n      tag_442\n        /* \"#utility.yul\":15473:15477   */\n      dup2\n        /* \"#utility.yul\":15347:15478   */\n      tag_262\n      jump\t// in\n    tag_442:\n        /* \"#utility.yul\":15339:15478   */\n      swap1\n      pop\n        /* \"#utility.yul\":15066:15485   */\n      swap2\n      swap1\n      pop\n      jump\t// out\n        /* \"#utility.yul\":15491:15570   */\n    tag_263:\n        /* \"#utility.yul\":15530:15537   */\n      0x00\n        /* \"#utility.yul\":15559:15564   */\n      dup2\n        /* \"#utility.yul\":15548:15564   */\n      swap1\n      pop\n        /* \"#utility.yul\":15491:15570   */\n      swap2\n      swap1\n      pop\n      jump\t// out\n        /* \"#utility.yul\":15576:15733   */\n    tag_264:\n        /* \"#utility.yul\":15681:15726   */\n      tag_445\n        /* \"#utility.yul\":15701:15725   */\n      tag_446\n        /* \"#utility.yul\":15719:15724   */\n      dup3\n        /* \"#utility.yul\":15701:15725   */\n      tag_245\n      jump\t// in\n    tag_446:\n        /* \"#utility.yul\":15681:15726   */\n      tag_263\n      jump\t// in\n    tag_445:\n        /* \"#utility.yul\":15676:15679   */\n      dup3\n        /* \"#utility.yul\":15669:15727   */\n      mstore\n        /* \"#utility.yul\":15576:15733   */\n      pop\n      pop\n      jump\t// out\n        /* \"#utility.yul\":15739:15995   */\n    tag_193:\n        /* \"#utility.yul\":15851:15854   */\n      0x00\n        /* \"#utility.yul\":15866:15941   */\n      tag_448\n        /* \"#utility.yul\":15937:15940   */\n      dup3\n        /* \"#utility.yul\":15928:15934   */\n      dup5\n        /* \"#utility.yul\":15866:15941   */\n      tag_264\n      jump\t// in\n    tag_448:\n        /* \"#utility.yul\":15966:15968   */\n      0x20\n        /* \"#utility.yul\":15961:15964   */\n      dup3\n        /* \"#utility.yul\":15957:15969   */\n      add\n        /* \"#utility.yul\":15950:15969   */\n      swap2\n      pop\n        /* \"#utility.yul\":15986:15989   */\n      dup2\n        /* \"#utility.yul\":15979:15989   */\n      swap1\n      pop\n        /* \"#utility.yul\":15739:15995   */\n      swap3\n      swap2\n      pop\n      pop\n      jump\t// out\n\n    auxdata: 0xa26469706673582212206889b7561a38701f48366fb0eba54d837ef85a492d4f5e6a70c8d3cebfcc296264736f6c63430008110033\n}\n",
				"bytecode": {
					"linkReferences": {},
					"object": "608060405261176c806100136000396000f3fe6080604052600436106100f35760003560e01c80637f7982431161008a578063b11a19e811610059578063b11a19e81461033c578063b5cc453914610379578063bd097e2114610383578063bff82dee1461038d576100f3565b80637f79824314610294578063853828b6146102bf578063912a90bb146102d6578063a8a5400814610313576100f3565b80632e1a7d4d116100c65780632e1a7d4d146101b457806356ca623e146101dd5780636900a3ae1461021a57806371aad10d14610257576100f3565b806312065fe0146100f857806312845966146101235780631593a8c71461016057806327dff14314610177575b600080fd5b34801561010457600080fd5b5061010d6103ca565b60405161011a9190610e39565b60405180910390f35b34801561012f57600080fd5b5061014a60048036038101906101459190610e94565b6103d2565b6040516101579190610e39565b60405180910390f35b34801561016c57600080fd5b50610175610417565b005b34801561018357600080fd5b5061019e60048036038101906101999190610e94565b61053f565b6040516101ab9190610f02565b60405180910390f35b3480156101c057600080fd5b506101db60048036038101906101d69190610e94565b61057e565b005b3480156101e957600080fd5b5061020460048036038101906101ff9190610f5b565b610661565b6040516102119190611018565b60405180910390f35b34801561022657600080fd5b50610241600480360381019061023c9190610e94565b610692565b60405161024e9190611018565b60405180910390f35b34801561026357600080fd5b5061027e6004803603810190610279919061116f565b6106c3565b60405161028b9190611018565b60405180910390f35b3480156102a057600080fd5b506102a96109bd565b6040516102b69190610f02565b60405180910390f35b3480156102cb57600080fd5b506102d4610a40565b005b3480156102e257600080fd5b506102fd60048036038101906102f891906111e4565b610aa4565b60405161030a919061122c565b60405180910390f35b34801561031f57600080fd5b5061033a600480360381019061033591906111e4565b610afa565b005b34801561034857600080fd5b50610363600480360381019061035e919061127d565b610c4a565b6040516103709190611018565b60405180910390f35b610381610c7b565b005b61038b610c9e565b005b34801561039957600080fd5b506103b460048036038101906103af9190610f5b565b610ca0565b6040516103c1919061122c565b60405180910390f35b600047905090565b60008044426040516020016103e89291906112cb565b6040516020818303038152906040528051906020012060001c9050828161040f9190611326565b915050919050565b60006104216109bd565b9050600073ffffffffffffffffffffffffffffffffffffffff168173ffffffffffffffffffffffffffffffffffffffff16031561053c5760006064600a60005461046b9190611386565b61047591906113c8565b905073ab8483f64d9c6d1ecf9b849ae677dd3315835cb273ffffffffffffffffffffffffffffffffffffffff166108fc829081150290604051600060405180830381858888f193505050501580156104d1573d6000803e3d6000fd5b50806000808282546104e391906113f9565b925050819055508173ffffffffffffffffffffffffffffffffffffffff166108fc6000549081150290604051600060405180830381858888f19350505050158015610532573d6000803e3d6000fd5b5060008081905550505b50565b6002818154811061054f57600080fd5b906000526020600020016000915054906101000a900473ffffffffffffffffffffffffffffffffffffffff1681565b60006105886103ca565b90508082111561059783610cc0565b6105a083610cc0565b6040516020016105b1929190611501565b60405160208183030381529060405290610601576040517f08c379a00000000000000000000000000000000000000000000000000000000081526004016105f89190611018565b60405180910390fd5b5073ab8483f64d9c6d1ecf9b849ae677dd3315835cb273ffffffffffffffffffffffffffffffffffffffff166108fc839081150290604051600060405180830381858888f1935050505015801561065c573d6000803e3d6000fd5b505050565b606061068b826040516020016106779190611587565b6040516020818303038152906040526106c3565b9050919050565b60606106bc826040516020016106a891906115a2565b6040516020818303038152906040526106c3565b9050919050565b606060006040518060400160405280601081526020017f3031323334353637383961626364656600000000000000000000000000000000815250905060006002845161070f9190611386565b600261071b91906115bd565b67ffffffffffffffff81111561073457610733611044565b5b6040519080825280601f01601f1916602001820160405280156107665781602001600182028036833780820191505090505b5090507f30000000000000000000000000000000000000000000000000000000000000008160008151811061079e5761079d6115f1565b5b60200101907effffffffffffffffffffffffffffffffffffffffffffffffffffffffffffff1916908160001a9053507f780000000000000000000000000000000000000000000000000000000000000081600181518110610802576108016115f1565b5b60200101907effffffffffffffffffffffffffffffffffffffffffffffffffffffffffffff1916908160001a90535060005b84518110156109b257826004868381518110610853576108526115f1565b5b602001015160f81c60f81b7effffffffffffffffffffffffffffffffffffffffffffffffffffffffffffff1916901c60f81c60ff1681518110610899576108986115f1565b5b602001015160f81c60f81b826002836108b29190611386565b60026108be91906115bd565b815181106108cf576108ce6115f1565b5b60200101907effffffffffffffffffffffffffffffffffffffffffffffffffffffffffffff1916908160001a90535082600f60f81b868381518110610917576109166115f1565b5b602001015160f81c60f81b1660f81c60ff168151811061093a576109396115f1565b5b602001015160f81c60f81b826002836109539190611386565b600361095f91906115bd565b815181106109705761096f6115f1565b5b60200101907effffffffffffffffffffffffffffffffffffffffffffffffffffffffffffff1916908160001a90535080806109aa90611620565b915050610834565b508092505050919050565b600080600280549050905060008082036109dc57600092505050610a3d565b600182036109ed57600090506109f9565b6109f6826103d2565b90505b60028181548110610a0d57610a0c6115f1565b5b9060005260206000200160009054906101000a900473ffffffffffffffffffffffffffffffffffffffff16925050505b90565b73ab8483f64d9c6d1ecf9b849ae677dd3315835cb273ffffffffffffffffffffffffffffffffffffffff166108fc610a766103ca565b9081150290604051600060405180830381858888f19350505050158015610aa1573d6000803e3d6000fd5b50565b6000600160008373ffffffffffffffffffffffffffffffffffffffff1673ffffffffffffffffffffffffffffffffffffffff16815260200190815260200160002060009054906101000a900460ff169050919050565b6000600160008373ffffffffffffffffffffffffffffffffffffffff1673ffffffffffffffffffffffffffffffffffffffff16815260200190815260200160002060009054906101000a900460ff1690508015610b8c576040517f08c379a0000000000000000000000000000000000000000000000000000000008152600401610b83906116da565b60405180910390fd5b60018060008473ffffffffffffffffffffffffffffffffffffffff1673ffffffffffffffffffffffffffffffffffffffff16815260200190815260200160002060006101000a81548160ff0219169083151502179055506002829080600181540180825580915050600190039060005260206000200160009091909190916101000a81548173ffffffffffffffffffffffffffffffffffffffff021916908373ffffffffffffffffffffffffffffffffffffffff1602179055505050565b6060610c7482604051602001610c60919061171b565b6040516020818303038152906040526106c3565b9050919050565b34600080828254610c8c91906115bd565b92505081905550610c9c33610afa565b565b565b60016020528060005260406000206000915054906101000a900460ff1681565b606060008203610d07576040518060400160405280600181526020017f30000000000000000000000000000000000000000000000000000000000000008152509050610e1b565b600082905060005b60008214610d39578080610d2290611620565b915050600a82610d3291906113c8565b9150610d0f565b60008167ffffffffffffffff811115610d5557610d54611044565b5b6040519080825280601f01601f191660200182016040528015610d875781602001600182028036833780820191505090505b5090505b60008514610e1457600182610da091906113f9565b9150600a85610daf9190611326565b6030610dbb91906115bd565b60f81b818381518110610dd157610dd06115f1565b5b60200101907effffffffffffffffffffffffffffffffffffffffffffffffffffffffffffff1916908160001a905350600a85610e0d91906113c8565b9450610d8b565b8093505050505b919050565b6000819050919050565b610e3381610e20565b82525050565b6000602082019050610e4e6000830184610e2a565b92915050565b6000604051905090565b600080fd5b600080fd5b610e7181610e20565b8114610e7c57600080fd5b50565b600081359050610e8e81610e68565b92915050565b600060208284031215610eaa57610ea9610e5e565b5b6000610eb884828501610e7f565b91505092915050565b600073ffffffffffffffffffffffffffffffffffffffff82169050919050565b6000610eec82610ec1565b9050919050565b610efc81610ee1565b82525050565b6000602082019050610f176000830184610ef3565b92915050565b6000610f2882610ec1565b9050919050565b610f3881610f1d565b8114610f4357600080fd5b50565b600081359050610f5581610f2f565b92915050565b600060208284031215610f7157610f70610e5e565b5b6000610f7f84828501610f46565b91505092915050565b600081519050919050565b600082825260208201905092915050565b60005b83811015610fc2578082015181840152602081019050610fa7565b60008484015250505050565b6000601f19601f8301169050919050565b6000610fea82610f88565b610ff48185610f93565b9350611004818560208601610fa4565b61100d81610fce565b840191505092915050565b600060208201905081810360008301526110328184610fdf565b905092915050565b600080fd5b600080fd5b7f4e487b7100000000000000000000000000000000000000000000000000000000600052604160045260246000fd5b61107c82610fce565b810181811067ffffffffffffffff8211171561109b5761109a611044565b5b80604052505050565b60006110ae610e54565b90506110ba8282611073565b919050565b600067ffffffffffffffff8211156110da576110d9611044565b5b6110e382610fce565b9050602081019050919050565b82818337600083830152505050565b600061111261110d846110bf565b6110a4565b90508281526020810184848401111561112e5761112d61103f565b5b6111398482856110f0565b509392505050565b600082601f8301126111565761115561103a565b5b81356111668482602086016110ff565b91505092915050565b60006020828403121561118557611184610e5e565b5b600082013567ffffffffffffffff8111156111a3576111a2610e63565b5b6111af84828501611141565b91505092915050565b6111c181610ee1565b81146111cc57600080fd5b50565b6000813590506111de816111b8565b92915050565b6000602082840312156111fa576111f9610e5e565b5b6000611208848285016111cf565b91505092915050565b60008115159050919050565b61122681611211565b82525050565b6000602082019050611241600083018461121d565b92915050565b6000819050919050565b61125a81611247565b811461126557600080fd5b50565b60008135905061127781611251565b92915050565b60006020828403121561129357611292610e5e565b5b60006112a184828501611268565b91505092915050565b6000819050919050565b6112c56112c082610e20565b6112aa565b82525050565b60006112d782856112b4565b6020820191506112e782846112b4565b6020820191508190509392505050565b7f4e487b7100000000000000000000000000000000000000000000000000000000600052601260045260246000fd5b600061133182610e20565b915061133c83610e20565b92508261134c5761134b6112f7565b5b828206905092915050565b7f4e487b7100000000000000000000000000000000000000000000000000000000600052601160045260246000fd5b600061139182610e20565b915061139c83610e20565b92508282026113aa81610e20565b915082820484148315176113c1576113c0611357565b5b5092915050565b60006113d382610e20565b91506113de83610e20565b9250826113ee576113ed6112f7565b5b828204905092915050565b600061140482610e20565b915061140f83610e20565b925082820390508181111561142757611426611357565b5b92915050565b7f54686520616d6f756e7420000000000000000000000000000000000000000000815250565b600081905092915050565b600061146982610f88565b6114738185611453565b9350611483818560208601610fa4565b80840191505092915050565b7f2069732067726561746572207468616e2074686520636f6e747261637420626160008201527f6c616e6365200000000000000000000000000000000000000000000000000000602082015250565b60006114eb602683611453565b91506114f68261148f565b602682019050919050565b600061150c8261142d565b600b8201915061151c828561145e565b9150611527826114de565b9150611533828461145e565b91508190509392505050565b60008160601b9050919050565b60006115578261153f565b9050919050565b60006115698261154c565b9050919050565b61158161157c82610f1d565b61155e565b82525050565b60006115938284611570565b60148201915081905092915050565b60006115ae82846112b4565b60208201915081905092915050565b60006115c882610e20565b91506115d383610e20565b92508282019050808211156115eb576115ea611357565b5b92915050565b7f4e487b7100000000000000000000000000000000000000000000000000000000600052603260045260246000fd5b600061162b82610e20565b91507fffffffffffffffffffffffffffffffffffffffffffffffffffffffffffffffff820361165d5761165c611357565b5b600182019050919050565b7f5468697320616464726573732068617320616c726561647920656e746572656460008201527f20746865206c6f74746572792e00000000000000000000000000000000000000602082015250565b60006116c4602d83610f93565b91506116cf82611668565b604082019050919050565b600060208201905081810360008301526116f3816116b7565b9050919050565b6000819050919050565b61171561171082611247565b6116fa565b82525050565b60006117278284611704565b6020820191508190509291505056fea26469706673582212206889b7561a38701f48366fb0eba54d837ef85a492d4f5e6a70c8d3cebfcc296264736f6c63430008110033",
					"opcodes": "PUSH1 0x80 PUSH1 0x40 MSTORE PUSH2 0x176C DUP1 PUSH2 0x13 PUSH1 0x0 CODECOPY PUSH1 0x0 RETURN INVALID PUSH1 0x80 PUSH1 0x40 MSTORE PUSH1 0x4 CALLDATASIZE LT PUSH2 0xF3 JUMPI PUSH1 0x0 CALLDATALOAD PUSH1 0xE0 SHR DUP1 PUSH4 0x7F798243 GT PUSH2 0x8A JUMPI DUP1 PUSH4 0xB11A19E8 GT PUSH2 0x59 JUMPI DUP1 PUSH4 0xB11A19E8 EQ PUSH2 0x33C JUMPI DUP1 PUSH4 0xB5CC4539 EQ PUSH2 0x379 JUMPI DUP1 PUSH4 0xBD097E21 EQ PUSH2 0x383 JUMPI DUP1 PUSH4 0xBFF82DEE EQ PUSH2 0x38D JUMPI PUSH2 0xF3 JUMP JUMPDEST DUP1 PUSH4 0x7F798243 EQ PUSH2 0x294 JUMPI DUP1 PUSH4 0x853828B6 EQ PUSH2 0x2BF JUMPI DUP1 PUSH4 0x912A90BB EQ PUSH2 0x2D6 JUMPI DUP1 PUSH4 0xA8A54008 EQ PUSH2 0x313 JUMPI PUSH2 0xF3 JUMP JUMPDEST DUP1 PUSH4 0x2E1A7D4D GT PUSH2 0xC6 JUMPI DUP1 PUSH4 0x2E1A7D4D EQ PUSH2 0x1B4 JUMPI DUP1 PUSH4 0x56CA623E EQ PUSH2 0x1DD JUMPI DUP1 PUSH4 0x6900A3AE EQ PUSH2 0x21A JUMPI DUP1 PUSH4 0x71AAD10D EQ PUSH2 0x257 JUMPI PUSH2 0xF3 JUMP JUMPDEST DUP1 PUSH4 0x12065FE0 EQ PUSH2 0xF8 JUMPI DUP1 PUSH4 0x12845966 EQ PUSH2 0x123 JUMPI DUP1 PUSH4 0x1593A8C7 EQ PUSH2 0x160 JUMPI DUP1 PUSH4 0x27DFF143 EQ PUSH2 0x177 JUMPI JUMPDEST PUSH1 0x0 DUP1 REVERT JUMPDEST CALLVALUE DUP1 ISZERO PUSH2 0x104 JUMPI PUSH1 0x0 DUP1 REVERT JUMPDEST POP PUSH2 0x10D PUSH2 0x3CA JUMP JUMPDEST PUSH1 0x40 MLOAD PUSH2 0x11A SWAP2 SWAP1 PUSH2 0xE39 JUMP JUMPDEST PUSH1 0x40 MLOAD DUP1 SWAP2 SUB SWAP1 RETURN JUMPDEST CALLVALUE DUP1 ISZERO PUSH2 0x12F JUMPI PUSH1 0x0 DUP1 REVERT JUMPDEST POP PUSH2 0x14A PUSH1 0x4 DUP1 CALLDATASIZE SUB DUP2 ADD SWAP1 PUSH2 0x145 SWAP2 SWAP1 PUSH2 0xE94 JUMP JUMPDEST PUSH2 0x3D2 JUMP JUMPDEST PUSH1 0x40 MLOAD PUSH2 0x157 SWAP2 SWAP1 PUSH2 0xE39 JUMP JUMPDEST PUSH1 0x40 MLOAD DUP1 SWAP2 SUB SWAP1 RETURN JUMPDEST CALLVALUE DUP1 ISZERO PUSH2 0x16C JUMPI PUSH1 0x0 DUP1 REVERT JUMPDEST POP PUSH2 0x175 PUSH2 0x417 JUMP JUMPDEST STOP JUMPDEST CALLVALUE DUP1 ISZERO PUSH2 0x183 JUMPI PUSH1 0x0 DUP1 REVERT JUMPDEST POP PUSH2 0x19E PUSH1 0x4 DUP1 CALLDATASIZE SUB DUP2 ADD SWAP1 PUSH2 0x199 SWAP2 SWAP1 PUSH2 0xE94 JUMP JUMPDEST PUSH2 0x53F JUMP JUMPDEST PUSH1 0x40 MLOAD PUSH2 0x1AB SWAP2 SWAP1 PUSH2 0xF02 JUMP JUMPDEST PUSH1 0x40 MLOAD DUP1 SWAP2 SUB SWAP1 RETURN JUMPDEST CALLVALUE DUP1 ISZERO PUSH2 0x1C0 JUMPI PUSH1 0x0 DUP1 REVERT JUMPDEST POP PUSH2 0x1DB PUSH1 0x4 DUP1 CALLDATASIZE SUB DUP2 ADD SWAP1 PUSH2 0x1D6 SWAP2 SWAP1 PUSH2 0xE94 JUMP JUMPDEST PUSH2 0x57E JUMP JUMPDEST STOP JUMPDEST CALLVALUE DUP1 ISZERO PUSH2 0x1E9 JUMPI PUSH1 0x0 DUP1 REVERT JUMPDEST POP PUSH2 0x204 PUSH1 0x4 DUP1 CALLDATASIZE SUB DUP2 ADD SWAP1 PUSH2 0x1FF SWAP2 SWAP1 PUSH2 0xF5B JUMP JUMPDEST PUSH2 0x661 JUMP JUMPDEST PUSH1 0x40 MLOAD PUSH2 0x211 SWAP2 SWAP1 PUSH2 0x1018 JUMP JUMPDEST PUSH1 0x40 MLOAD DUP1 SWAP2 SUB SWAP1 RETURN JUMPDEST CALLVALUE DUP1 ISZERO PUSH2 0x226 JUMPI PUSH1 0x0 DUP1 REVERT JUMPDEST POP PUSH2 0x241 PUSH1 0x4 DUP1 CALLDATASIZE SUB DUP2 ADD SWAP1 PUSH2 0x23C SWAP2 SWAP1 PUSH2 0xE94 JUMP JUMPDEST PUSH2 0x692 JUMP JUMPDEST PUSH1 0x40 MLOAD PUSH2 0x24E SWAP2 SWAP1 PUSH2 0x1018 JUMP JUMPDEST PUSH1 0x40 MLOAD DUP1 SWAP2 SUB SWAP1 RETURN JUMPDEST CALLVALUE DUP1 ISZERO PUSH2 0x263 JUMPI PUSH1 0x0 DUP1 REVERT JUMPDEST POP PUSH2 0x27E PUSH1 0x4 DUP1 CALLDATASIZE SUB DUP2 ADD SWAP1 PUSH2 0x279 SWAP2 SWAP1 PUSH2 0x116F JUMP JUMPDEST PUSH2 0x6C3 JUMP JUMPDEST PUSH1 0x40 MLOAD PUSH2 0x28B SWAP2 SWAP1 PUSH2 0x1018 JUMP JUMPDEST PUSH1 0x40 MLOAD DUP1 SWAP2 SUB SWAP1 RETURN JUMPDEST CALLVALUE DUP1 ISZERO PUSH2 0x2A0 JUMPI PUSH1 0x0 DUP1 REVERT JUMPDEST POP PUSH2 0x2A9 PUSH2 0x9BD JUMP JUMPDEST PUSH1 0x40 MLOAD PUSH2 0x2B6 SWAP2 SWAP1 PUSH2 0xF02 JUMP JUMPDEST PUSH1 0x40 MLOAD DUP1 SWAP2 SUB SWAP1 RETURN JUMPDEST CALLVALUE DUP1 ISZERO PUSH2 0x2CB JUMPI PUSH1 0x0 DUP1 REVERT JUMPDEST POP PUSH2 0x2D4 PUSH2 0xA40 JUMP JUMPDEST STOP JUMPDEST CALLVALUE DUP1 ISZERO PUSH2 0x2E2 JUMPI PUSH1 0x0 DUP1 REVERT JUMPDEST POP PUSH2 0x2FD PUSH1 0x4 DUP1 CALLDATASIZE SUB DUP2 ADD SWAP1 PUSH2 0x2F8 SWAP2 SWAP1 PUSH2 0x11E4 JUMP JUMPDEST PUSH2 0xAA4 JUMP JUMPDEST PUSH1 0x40 MLOAD PUSH2 0x30A SWAP2 SWAP1 PUSH2 0x122C JUMP JUMPDEST PUSH1 0x40 MLOAD DUP1 SWAP2 SUB SWAP1 RETURN JUMPDEST CALLVALUE DUP1 ISZERO PUSH2 0x31F JUMPI PUSH1 0x0 DUP1 REVERT JUMPDEST POP PUSH2 0x33A PUSH1 0x4 DUP1 CALLDATASIZE SUB DUP2 ADD SWAP1 PUSH2 0x335 SWAP2 SWAP1 PUSH2 0x11E4 JUMP JUMPDEST PUSH2 0xAFA JUMP JUMPDEST STOP JUMPDEST CALLVALUE DUP1 ISZERO PUSH2 0x348 JUMPI PUSH1 0x0 DUP1 REVERT JUMPDEST POP PUSH2 0x363 PUSH1 0x4 DUP1 CALLDATASIZE SUB DUP2 ADD SWAP1 PUSH2 0x35E SWAP2 SWAP1 PUSH2 0x127D JUMP JUMPDEST PUSH2 0xC4A JUMP JUMPDEST PUSH1 0x40 MLOAD PUSH2 0x370 SWAP2 SWAP1 PUSH2 0x1018 JUMP JUMPDEST PUSH1 0x40 MLOAD DUP1 SWAP2 SUB SWAP1 RETURN JUMPDEST PUSH2 0x381 PUSH2 0xC7B JUMP JUMPDEST STOP JUMPDEST PUSH2 0x38B PUSH2 0xC9E JUMP JUMPDEST STOP JUMPDEST CALLVALUE DUP1 ISZERO PUSH2 0x399 JUMPI PUSH1 0x0 DUP1 REVERT JUMPDEST POP PUSH2 0x3B4 PUSH1 0x4 DUP1 CALLDATASIZE SUB DUP2 ADD SWAP1 PUSH2 0x3AF SWAP2 SWAP1 PUSH2 0xF5B JUMP JUMPDEST PUSH2 0xCA0 JUMP JUMPDEST PUSH1 0x40 MLOAD PUSH2 0x3C1 SWAP2 SWAP1 PUSH2 0x122C JUMP JUMPDEST PUSH1 0x40 MLOAD DUP1 SWAP2 SUB SWAP1 RETURN JUMPDEST PUSH1 0x0 SELFBALANCE SWAP1 POP SWAP1 JUMP JUMPDEST PUSH1 0x0 DUP1 DIFFICULTY TIMESTAMP PUSH1 0x40 MLOAD PUSH1 0x20 ADD PUSH2 0x3E8 SWAP3 SWAP2 SWAP1 PUSH2 0x12CB JUMP JUMPDEST PUSH1 0x40 MLOAD PUSH1 0x20 DUP2 DUP4 SUB SUB DUP2 MSTORE SWAP1 PUSH1 0x40 MSTORE DUP1 MLOAD SWAP1 PUSH1 0x20 ADD KECCAK256 PUSH1 0x0 SHR SWAP1 POP DUP3 DUP2 PUSH2 0x40F SWAP2 SWAP1 PUSH2 0x1326 JUMP JUMPDEST SWAP2 POP POP SWAP2 SWAP1 POP JUMP JUMPDEST PUSH1 0x0 PUSH2 0x421 PUSH2 0x9BD JUMP JUMPDEST SWAP1 POP PUSH1 0x0 PUSH20 0xFFFFFFFFFFFFFFFFFFFFFFFFFFFFFFFFFFFFFFFF AND DUP2 PUSH20 0xFFFFFFFFFFFFFFFFFFFFFFFFFFFFFFFFFFFFFFFF AND SUB ISZERO PUSH2 0x53C JUMPI PUSH1 0x0 PUSH1 0x64 PUSH1 0xA PUSH1 0x0 SLOAD PUSH2 0x46B SWAP2 SWAP1 PUSH2 0x1386 JUMP JUMPDEST PUSH2 0x475 SWAP2 SWAP1 PUSH2 0x13C8 JUMP JUMPDEST SWAP1 POP PUSH20 0xAB8483F64D9C6D1ECF9B849AE677DD3315835CB2 PUSH20 0xFFFFFFFFFFFFFFFFFFFFFFFFFFFFFFFFFFFFFFFF AND PUSH2 0x8FC DUP3 SWAP1 DUP2 ISZERO MUL SWAP1 PUSH1 0x40 MLOAD PUSH1 0x0 PUSH1 0x40 MLOAD DUP1 DUP4 SUB DUP2 DUP6 DUP9 DUP9 CALL SWAP4 POP POP POP POP ISZERO DUP1 ISZERO PUSH2 0x4D1 JUMPI RETURNDATASIZE PUSH1 0x0 DUP1 RETURNDATACOPY RETURNDATASIZE PUSH1 0x0 REVERT JUMPDEST POP DUP1 PUSH1 0x0 DUP1 DUP3 DUP3 SLOAD PUSH2 0x4E3 SWAP2 SWAP1 PUSH2 0x13F9 JUMP JUMPDEST SWAP3 POP POP DUP2 SWAP1 SSTORE POP DUP2 PUSH20 0xFFFFFFFFFFFFFFFFFFFFFFFFFFFFFFFFFFFFFFFF AND PUSH2 0x8FC PUSH1 0x0 SLOAD SWAP1 DUP2 ISZERO MUL SWAP1 PUSH1 0x40 MLOAD PUSH1 0x0 PUSH1 0x40 MLOAD DUP1 DUP4 SUB DUP2 DUP6 DUP9 DUP9 CALL SWAP4 POP POP POP POP ISZERO DUP1 ISZERO PUSH2 0x532 JUMPI RETURNDATASIZE PUSH1 0x0 DUP1 RETURNDATACOPY RETURNDATASIZE PUSH1 0x0 REVERT JUMPDEST POP PUSH1 0x0 DUP1 DUP2 SWAP1 SSTORE POP POP JUMPDEST POP JUMP JUMPDEST PUSH1 0x2 DUP2 DUP2 SLOAD DUP2 LT PUSH2 0x54F JUMPI PUSH1 0x0 DUP1 REVERT JUMPDEST SWAP1 PUSH1 0x0 MSTORE PUSH1 0x20 PUSH1 0x0 KECCAK256 ADD PUSH1 0x0 SWAP2 POP SLOAD SWAP1 PUSH2 0x100 EXP SWAP1 DIV PUSH20 0xFFFFFFFFFFFFFFFFFFFFFFFFFFFFFFFFFFFFFFFF AND DUP2 JUMP JUMPDEST PUSH1 0x0 PUSH2 0x588 PUSH2 0x3CA JUMP JUMPDEST SWAP1 POP DUP1 DUP3 GT ISZERO PUSH2 0x597 DUP4 PUSH2 0xCC0 JUMP JUMPDEST PUSH2 0x5A0 DUP4 PUSH2 0xCC0 JUMP JUMPDEST PUSH1 0x40 MLOAD PUSH1 0x20 ADD PUSH2 0x5B1 SWAP3 SWAP2 SWAP1 PUSH2 0x1501 JUMP JUMPDEST PUSH1 0x40 MLOAD PUSH1 0x20 DUP2 DUP4 SUB SUB DUP2 MSTORE SWAP1 PUSH1 0x40 MSTORE SWAP1 PUSH2 0x601 JUMPI PUSH1 0x40 MLOAD PUSH32 0x8C379A000000000000000000000000000000000000000000000000000000000 DUP2 MSTORE PUSH1 0x4 ADD PUSH2 0x5F8 SWAP2 SWAP1 PUSH2 0x1018 JUMP JUMPDEST PUSH1 0x40 MLOAD DUP1 SWAP2 SUB SWAP1 REVERT JUMPDEST POP PUSH20 0xAB8483F64D9C6D1ECF9B849AE677DD3315835CB2 PUSH20 0xFFFFFFFFFFFFFFFFFFFFFFFFFFFFFFFFFFFFFFFF AND PUSH2 0x8FC DUP4 SWAP1 DUP2 ISZERO MUL SWAP1 PUSH1 0x40 MLOAD PUSH1 0x0 PUSH1 0x40 MLOAD DUP1 DUP4 SUB DUP2 DUP6 DUP9 DUP9 CALL SWAP4 POP POP POP POP ISZERO DUP1 ISZERO PUSH2 0x65C JUMPI RETURNDATASIZE PUSH1 0x0 DUP1 RETURNDATACOPY RETURNDATASIZE PUSH1 0x0 REVERT JUMPDEST POP POP POP JUMP JUMPDEST PUSH1 0x60 PUSH2 0x68B DUP3 PUSH1 0x40 MLOAD PUSH1 0x20 ADD PUSH2 0x677 SWAP2 SWAP1 PUSH2 0x1587 JUMP JUMPDEST PUSH1 0x40 MLOAD PUSH1 0x20 DUP2 DUP4 SUB SUB DUP2 MSTORE SWAP1 PUSH1 0x40 MSTORE PUSH2 0x6C3 JUMP JUMPDEST SWAP1 POP SWAP2 SWAP1 POP JUMP JUMPDEST PUSH1 0x60 PUSH2 0x6BC DUP3 PUSH1 0x40 MLOAD PUSH1 0x20 ADD PUSH2 0x6A8 SWAP2 SWAP1 PUSH2 0x15A2 JUMP JUMPDEST PUSH1 0x40 MLOAD PUSH1 0x20 DUP2 DUP4 SUB SUB DUP2 MSTORE SWAP1 PUSH1 0x40 MSTORE PUSH2 0x6C3 JUMP JUMPDEST SWAP1 POP SWAP2 SWAP1 POP JUMP JUMPDEST PUSH1 0x60 PUSH1 0x0 PUSH1 0x40 MLOAD DUP1 PUSH1 0x40 ADD PUSH1 0x40 MSTORE DUP1 PUSH1 0x10 DUP2 MSTORE PUSH1 0x20 ADD PUSH32 0x3031323334353637383961626364656600000000000000000000000000000000 DUP2 MSTORE POP SWAP1 POP PUSH1 0x0 PUSH1 0x2 DUP5 MLOAD PUSH2 0x70F SWAP2 SWAP1 PUSH2 0x1386 JUMP JUMPDEST PUSH1 0x2 PUSH2 0x71B SWAP2 SWAP1 PUSH2 0x15BD JUMP JUMPDEST PUSH8 0xFFFFFFFFFFFFFFFF DUP2 GT ISZERO PUSH2 0x734 JUMPI PUSH2 0x733 PUSH2 0x1044 JUMP JUMPDEST JUMPDEST PUSH1 0x40 MLOAD SWAP1 DUP1 DUP3 MSTORE DUP1 PUSH1 0x1F ADD PUSH1 0x1F NOT AND PUSH1 0x20 ADD DUP3 ADD PUSH1 0x40 MSTORE DUP1 ISZERO PUSH2 0x766 JUMPI DUP2 PUSH1 0x20 ADD PUSH1 0x1 DUP3 MUL DUP1 CALLDATASIZE DUP4 CALLDATACOPY DUP1 DUP3 ADD SWAP2 POP POP SWAP1 POP JUMPDEST POP SWAP1 POP PUSH32 0x3000000000000000000000000000000000000000000000000000000000000000 DUP2 PUSH1 0x0 DUP2 MLOAD DUP2 LT PUSH2 0x79E JUMPI PUSH2 0x79D PUSH2 0x15F1 JUMP JUMPDEST JUMPDEST PUSH1 0x20 ADD ADD SWAP1 PUSH31 0xFFFFFFFFFFFFFFFFFFFFFFFFFFFFFFFFFFFFFFFFFFFFFFFFFFFFFFFFFFFFFF NOT AND SWAP1 DUP2 PUSH1 0x0 BYTE SWAP1 MSTORE8 POP PUSH32 0x7800000000000000000000000000000000000000000000000000000000000000 DUP2 PUSH1 0x1 DUP2 MLOAD DUP2 LT PUSH2 0x802 JUMPI PUSH2 0x801 PUSH2 0x15F1 JUMP JUMPDEST JUMPDEST PUSH1 0x20 ADD ADD SWAP1 PUSH31 0xFFFFFFFFFFFFFFFFFFFFFFFFFFFFFFFFFFFFFFFFFFFFFFFFFFFFFFFFFFFFFF NOT AND SWAP1 DUP2 PUSH1 0x0 BYTE SWAP1 MSTORE8 POP PUSH1 0x0 JUMPDEST DUP5 MLOAD DUP2 LT ISZERO PUSH2 0x9B2 JUMPI DUP3 PUSH1 0x4 DUP7 DUP4 DUP2 MLOAD DUP2 LT PUSH2 0x853 JUMPI PUSH2 0x852 PUSH2 0x15F1 JUMP JUMPDEST JUMPDEST PUSH1 0x20 ADD ADD MLOAD PUSH1 0xF8 SHR PUSH1 0xF8 SHL PUSH31 0xFFFFFFFFFFFFFFFFFFFFFFFFFFFFFFFFFFFFFFFFFFFFFFFFFFFFFFFFFFFFFF NOT AND SWAP1 SHR PUSH1 0xF8 SHR PUSH1 0xFF AND DUP2 MLOAD DUP2 LT PUSH2 0x899 JUMPI PUSH2 0x898 PUSH2 0x15F1 JUMP JUMPDEST JUMPDEST PUSH1 0x20 ADD ADD MLOAD PUSH1 0xF8 SHR PUSH1 0xF8 SHL DUP3 PUSH1 0x2 DUP4 PUSH2 0x8B2 SWAP2 SWAP1 PUSH2 0x1386 JUMP JUMPDEST PUSH1 0x2 PUSH2 0x8BE SWAP2 SWAP1 PUSH2 0x15BD JUMP JUMPDEST DUP2 MLOAD DUP2 LT PUSH2 0x8CF JUMPI PUSH2 0x8CE PUSH2 0x15F1 JUMP JUMPDEST JUMPDEST PUSH1 0x20 ADD ADD SWAP1 PUSH31 0xFFFFFFFFFFFFFFFFFFFFFFFFFFFFFFFFFFFFFFFFFFFFFFFFFFFFFFFFFFFFFF NOT AND SWAP1 DUP2 PUSH1 0x0 BYTE SWAP1 MSTORE8 POP DUP3 PUSH1 0xF PUSH1 0xF8 SHL DUP7 DUP4 DUP2 MLOAD DUP2 LT PUSH2 0x917 JUMPI PUSH2 0x916 PUSH2 0x15F1 JUMP JUMPDEST JUMPDEST PUSH1 0x20 ADD ADD MLOAD PUSH1 0xF8 SHR PUSH1 0xF8 SHL AND PUSH1 0xF8 SHR PUSH1 0xFF AND DUP2 MLOAD DUP2 LT PUSH2 0x93A JUMPI PUSH2 0x939 PUSH2 0x15F1 JUMP JUMPDEST JUMPDEST PUSH1 0x20 ADD ADD MLOAD PUSH1 0xF8 SHR PUSH1 0xF8 SHL DUP3 PUSH1 0x2 DUP4 PUSH2 0x953 SWAP2 SWAP1 PUSH2 0x1386 JUMP JUMPDEST PUSH1 0x3 PUSH2 0x95F SWAP2 SWAP1 PUSH2 0x15BD JUMP JUMPDEST DUP2 MLOAD DUP2 LT PUSH2 0x970 JUMPI PUSH2 0x96F PUSH2 0x15F1 JUMP JUMPDEST JUMPDEST PUSH1 0x20 ADD ADD SWAP1 PUSH31 0xFFFFFFFFFFFFFFFFFFFFFFFFFFFFFFFFFFFFFFFFFFFFFFFFFFFFFFFFFFFFFF NOT AND SWAP1 DUP2 PUSH1 0x0 BYTE SWAP1 MSTORE8 POP DUP1 DUP1 PUSH2 0x9AA SWAP1 PUSH2 0x1620 JUMP JUMPDEST SWAP2 POP POP PUSH2 0x834 JUMP JUMPDEST POP DUP1 SWAP3 POP POP POP SWAP2 SWAP1 POP JUMP JUMPDEST PUSH1 0x0 DUP1 PUSH1 0x2 DUP1 SLOAD SWAP1 POP SWAP1 POP PUSH1 0x0 DUP1 DUP3 SUB PUSH2 0x9DC JUMPI PUSH1 0x0 SWAP3 POP POP POP PUSH2 0xA3D JUMP JUMPDEST PUSH1 0x1 DUP3 SUB PUSH2 0x9ED JUMPI PUSH1 0x0 SWAP1 POP PUSH2 0x9F9 JUMP JUMPDEST PUSH2 0x9F6 DUP3 PUSH2 0x3D2 JUMP JUMPDEST SWAP1 POP JUMPDEST PUSH1 0x2 DUP2 DUP2 SLOAD DUP2 LT PUSH2 0xA0D JUMPI PUSH2 0xA0C PUSH2 0x15F1 JUMP JUMPDEST JUMPDEST SWAP1 PUSH1 0x0 MSTORE PUSH1 0x20 PUSH1 0x0 KECCAK256 ADD PUSH1 0x0 SWAP1 SLOAD SWAP1 PUSH2 0x100 EXP SWAP1 DIV PUSH20 0xFFFFFFFFFFFFFFFFFFFFFFFFFFFFFFFFFFFFFFFF AND SWAP3 POP POP POP JUMPDEST SWAP1 JUMP JUMPDEST PUSH20 0xAB8483F64D9C6D1ECF9B849AE677DD3315835CB2 PUSH20 0xFFFFFFFFFFFFFFFFFFFFFFFFFFFFFFFFFFFFFFFF AND PUSH2 0x8FC PUSH2 0xA76 PUSH2 0x3CA JUMP JUMPDEST SWAP1 DUP2 ISZERO MUL SWAP1 PUSH1 0x40 MLOAD PUSH1 0x0 PUSH1 0x40 MLOAD DUP1 DUP4 SUB DUP2 DUP6 DUP9 DUP9 CALL SWAP4 POP POP POP POP ISZERO DUP1 ISZERO PUSH2 0xAA1 JUMPI RETURNDATASIZE PUSH1 0x0 DUP1 RETURNDATACOPY RETURNDATASIZE PUSH1 0x0 REVERT JUMPDEST POP JUMP JUMPDEST PUSH1 0x0 PUSH1 0x1 PUSH1 0x0 DUP4 PUSH20 0xFFFFFFFFFFFFFFFFFFFFFFFFFFFFFFFFFFFFFFFF AND PUSH20 0xFFFFFFFFFFFFFFFFFFFFFFFFFFFFFFFFFFFFFFFF AND DUP2 MSTORE PUSH1 0x20 ADD SWAP1 DUP2 MSTORE PUSH1 0x20 ADD PUSH1 0x0 KECCAK256 PUSH1 0x0 SWAP1 SLOAD SWAP1 PUSH2 0x100 EXP SWAP1 DIV PUSH1 0xFF AND SWAP1 POP SWAP2 SWAP1 POP JUMP JUMPDEST PUSH1 0x0 PUSH1 0x1 PUSH1 0x0 DUP4 PUSH20 0xFFFFFFFFFFFFFFFFFFFFFFFFFFFFFFFFFFFFFFFF AND PUSH20 0xFFFFFFFFFFFFFFFFFFFFFFFFFFFFFFFFFFFFFFFF AND DUP2 MSTORE PUSH1 0x20 ADD SWAP1 DUP2 MSTORE PUSH1 0x20 ADD PUSH1 0x0 KECCAK256 PUSH1 0x0 SWAP1 SLOAD SWAP1 PUSH2 0x100 EXP SWAP1 DIV PUSH1 0xFF AND SWAP1 POP DUP1 ISZERO PUSH2 0xB8C JUMPI PUSH1 0x40 MLOAD PUSH32 0x8C379A000000000000000000000000000000000000000000000000000000000 DUP2 MSTORE PUSH1 0x4 ADD PUSH2 0xB83 SWAP1 PUSH2 0x16DA JUMP JUMPDEST PUSH1 0x40 MLOAD DUP1 SWAP2 SUB SWAP1 REVERT JUMPDEST PUSH1 0x1 DUP1 PUSH1 0x0 DUP5 PUSH20 0xFFFFFFFFFFFFFFFFFFFFFFFFFFFFFFFFFFFFFFFF AND PUSH20 0xFFFFFFFFFFFFFFFFFFFFFFFFFFFFFFFFFFFFFFFF AND DUP2 MSTORE PUSH1 0x20 ADD SWAP1 DUP2 MSTORE PUSH1 0x20 ADD PUSH1 0x0 KECCAK256 PUSH1 0x0 PUSH2 0x100 EXP DUP2 SLOAD DUP2 PUSH1 0xFF MUL NOT AND SWAP1 DUP4 ISZERO ISZERO MUL OR SWAP1 SSTORE POP PUSH1 0x2 DUP3 SWAP1 DUP1 PUSH1 0x1 DUP2 SLOAD ADD DUP1 DUP3 SSTORE DUP1 SWAP2 POP POP PUSH1 0x1 SWAP1 SUB SWAP1 PUSH1 0x0 MSTORE PUSH1 0x20 PUSH1 0x0 KECCAK256 ADD PUSH1 0x0 SWAP1 SWAP2 SWAP1 SWAP2 SWAP1 SWAP2 PUSH2 0x100 EXP DUP2 SLOAD DUP2 PUSH20 0xFFFFFFFFFFFFFFFFFFFFFFFFFFFFFFFFFFFFFFFF MUL NOT AND SWAP1 DUP4 PUSH20 0xFFFFFFFFFFFFFFFFFFFFFFFFFFFFFFFFFFFFFFFF AND MUL OR SWAP1 SSTORE POP POP POP JUMP JUMPDEST PUSH1 0x60 PUSH2 0xC74 DUP3 PUSH1 0x40 MLOAD PUSH1 0x20 ADD PUSH2 0xC60 SWAP2 SWAP1 PUSH2 0x171B JUMP JUMPDEST PUSH1 0x40 MLOAD PUSH1 0x20 DUP2 DUP4 SUB SUB DUP2 MSTORE SWAP1 PUSH1 0x40 MSTORE PUSH2 0x6C3 JUMP JUMPDEST SWAP1 POP SWAP2 SWAP1 POP JUMP JUMPDEST CALLVALUE PUSH1 0x0 DUP1 DUP3 DUP3 SLOAD PUSH2 0xC8C SWAP2 SWAP1 PUSH2 0x15BD JUMP JUMPDEST SWAP3 POP POP DUP2 SWAP1 SSTORE POP PUSH2 0xC9C CALLER PUSH2 0xAFA JUMP JUMPDEST JUMP JUMPDEST JUMP JUMPDEST PUSH1 0x1 PUSH1 0x20 MSTORE DUP1 PUSH1 0x0 MSTORE PUSH1 0x40 PUSH1 0x0 KECCAK256 PUSH1 0x0 SWAP2 POP SLOAD SWAP1 PUSH2 0x100 EXP SWAP1 DIV PUSH1 0xFF AND DUP2 JUMP JUMPDEST PUSH1 0x60 PUSH1 0x0 DUP3 SUB PUSH2 0xD07 JUMPI PUSH1 0x40 MLOAD DUP1 PUSH1 0x40 ADD PUSH1 0x40 MSTORE DUP1 PUSH1 0x1 DUP2 MSTORE PUSH1 0x20 ADD PUSH32 0x3000000000000000000000000000000000000000000000000000000000000000 DUP2 MSTORE POP SWAP1 POP PUSH2 0xE1B JUMP JUMPDEST PUSH1 0x0 DUP3 SWAP1 POP PUSH1 0x0 JUMPDEST PUSH1 0x0 DUP3 EQ PUSH2 0xD39 JUMPI DUP1 DUP1 PUSH2 0xD22 SWAP1 PUSH2 0x1620 JUMP JUMPDEST SWAP2 POP POP PUSH1 0xA DUP3 PUSH2 0xD32 SWAP2 SWAP1 PUSH2 0x13C8 JUMP JUMPDEST SWAP2 POP PUSH2 0xD0F JUMP JUMPDEST PUSH1 0x0 DUP2 PUSH8 0xFFFFFFFFFFFFFFFF DUP2 GT ISZERO PUSH2 0xD55 JUMPI PUSH2 0xD54 PUSH2 0x1044 JUMP JUMPDEST JUMPDEST PUSH1 0x40 MLOAD SWAP1 DUP1 DUP3 MSTORE DUP1 PUSH1 0x1F ADD PUSH1 0x1F NOT AND PUSH1 0x20 ADD DUP3 ADD PUSH1 0x40 MSTORE DUP1 ISZERO PUSH2 0xD87 JUMPI DUP2 PUSH1 0x20 ADD PUSH1 0x1 DUP3 MUL DUP1 CALLDATASIZE DUP4 CALLDATACOPY DUP1 DUP3 ADD SWAP2 POP POP SWAP1 POP JUMPDEST POP SWAP1 POP JUMPDEST PUSH1 0x0 DUP6 EQ PUSH2 0xE14 JUMPI PUSH1 0x1 DUP3 PUSH2 0xDA0 SWAP2 SWAP1 PUSH2 0x13F9 JUMP JUMPDEST SWAP2 POP PUSH1 0xA DUP6 PUSH2 0xDAF SWAP2 SWAP1 PUSH2 0x1326 JUMP JUMPDEST PUSH1 0x30 PUSH2 0xDBB SWAP2 SWAP1 PUSH2 0x15BD JUMP JUMPDEST PUSH1 0xF8 SHL DUP2 DUP4 DUP2 MLOAD DUP2 LT PUSH2 0xDD1 JUMPI PUSH2 0xDD0 PUSH2 0x15F1 JUMP JUMPDEST JUMPDEST PUSH1 0x20 ADD ADD SWAP1 PUSH31 0xFFFFFFFFFFFFFFFFFFFFFFFFFFFFFFFFFFFFFFFFFFFFFFFFFFFFFFFFFFFFFF NOT AND SWAP1 DUP2 PUSH1 0x0 BYTE SWAP1 MSTORE8 POP PUSH1 0xA DUP6 PUSH2 0xE0D SWAP2 SWAP1 PUSH2 0x13C8 JUMP JUMPDEST SWAP5 POP PUSH2 0xD8B JUMP JUMPDEST DUP1 SWAP4 POP POP POP POP JUMPDEST SWAP2 SWAP1 POP JUMP JUMPDEST PUSH1 0x0 DUP2 SWAP1 POP SWAP2 SWAP1 POP JUMP JUMPDEST PUSH2 0xE33 DUP2 PUSH2 0xE20 JUMP JUMPDEST DUP3 MSTORE POP POP JUMP JUMPDEST PUSH1 0x0 PUSH1 0x20 DUP3 ADD SWAP1 POP PUSH2 0xE4E PUSH1 0x0 DUP4 ADD DUP5 PUSH2 0xE2A JUMP JUMPDEST SWAP3 SWAP2 POP POP JUMP JUMPDEST PUSH1 0x0 PUSH1 0x40 MLOAD SWAP1 POP SWAP1 JUMP JUMPDEST PUSH1 0x0 DUP1 REVERT JUMPDEST PUSH1 0x0 DUP1 REVERT JUMPDEST PUSH2 0xE71 DUP2 PUSH2 0xE20 JUMP JUMPDEST DUP2 EQ PUSH2 0xE7C JUMPI PUSH1 0x0 DUP1 REVERT JUMPDEST POP JUMP JUMPDEST PUSH1 0x0 DUP2 CALLDATALOAD SWAP1 POP PUSH2 0xE8E DUP2 PUSH2 0xE68 JUMP JUMPDEST SWAP3 SWAP2 POP POP JUMP JUMPDEST PUSH1 0x0 PUSH1 0x20 DUP3 DUP5 SUB SLT ISZERO PUSH2 0xEAA JUMPI PUSH2 0xEA9 PUSH2 0xE5E JUMP JUMPDEST JUMPDEST PUSH1 0x0 PUSH2 0xEB8 DUP5 DUP3 DUP6 ADD PUSH2 0xE7F JUMP JUMPDEST SWAP2 POP POP SWAP3 SWAP2 POP POP JUMP JUMPDEST PUSH1 0x0 PUSH20 0xFFFFFFFFFFFFFFFFFFFFFFFFFFFFFFFFFFFFFFFF DUP3 AND SWAP1 POP SWAP2 SWAP1 POP JUMP JUMPDEST PUSH1 0x0 PUSH2 0xEEC DUP3 PUSH2 0xEC1 JUMP JUMPDEST SWAP1 POP SWAP2 SWAP1 POP JUMP JUMPDEST PUSH2 0xEFC DUP2 PUSH2 0xEE1 JUMP JUMPDEST DUP3 MSTORE POP POP JUMP JUMPDEST PUSH1 0x0 PUSH1 0x20 DUP3 ADD SWAP1 POP PUSH2 0xF17 PUSH1 0x0 DUP4 ADD DUP5 PUSH2 0xEF3 JUMP JUMPDEST SWAP3 SWAP2 POP POP JUMP JUMPDEST PUSH1 0x0 PUSH2 0xF28 DUP3 PUSH2 0xEC1 JUMP JUMPDEST SWAP1 POP SWAP2 SWAP1 POP JUMP JUMPDEST PUSH2 0xF38 DUP2 PUSH2 0xF1D JUMP JUMPDEST DUP2 EQ PUSH2 0xF43 JUMPI PUSH1 0x0 DUP1 REVERT JUMPDEST POP JUMP JUMPDEST PUSH1 0x0 DUP2 CALLDATALOAD SWAP1 POP PUSH2 0xF55 DUP2 PUSH2 0xF2F JUMP JUMPDEST SWAP3 SWAP2 POP POP JUMP JUMPDEST PUSH1 0x0 PUSH1 0x20 DUP3 DUP5 SUB SLT ISZERO PUSH2 0xF71 JUMPI PUSH2 0xF70 PUSH2 0xE5E JUMP JUMPDEST JUMPDEST PUSH1 0x0 PUSH2 0xF7F DUP5 DUP3 DUP6 ADD PUSH2 0xF46 JUMP JUMPDEST SWAP2 POP POP SWAP3 SWAP2 POP POP JUMP JUMPDEST PUSH1 0x0 DUP2 MLOAD SWAP1 POP SWAP2 SWAP1 POP JUMP JUMPDEST PUSH1 0x0 DUP3 DUP3 MSTORE PUSH1 0x20 DUP3 ADD SWAP1 POP SWAP3 SWAP2 POP POP JUMP JUMPDEST PUSH1 0x0 JUMPDEST DUP4 DUP2 LT ISZERO PUSH2 0xFC2 JUMPI DUP1 DUP3 ADD MLOAD DUP2 DUP5 ADD MSTORE PUSH1 0x20 DUP2 ADD SWAP1 POP PUSH2 0xFA7 JUMP JUMPDEST PUSH1 0x0 DUP5 DUP5 ADD MSTORE POP POP POP POP JUMP JUMPDEST PUSH1 0x0 PUSH1 0x1F NOT PUSH1 0x1F DUP4 ADD AND SWAP1 POP SWAP2 SWAP1 POP JUMP JUMPDEST PUSH1 0x0 PUSH2 0xFEA DUP3 PUSH2 0xF88 JUMP JUMPDEST PUSH2 0xFF4 DUP2 DUP6 PUSH2 0xF93 JUMP JUMPDEST SWAP4 POP PUSH2 0x1004 DUP2 DUP6 PUSH1 0x20 DUP7 ADD PUSH2 0xFA4 JUMP JUMPDEST PUSH2 0x100D DUP2 PUSH2 0xFCE JUMP JUMPDEST DUP5 ADD SWAP2 POP POP SWAP3 SWAP2 POP POP JUMP JUMPDEST PUSH1 0x0 PUSH1 0x20 DUP3 ADD SWAP1 POP DUP2 DUP2 SUB PUSH1 0x0 DUP4 ADD MSTORE PUSH2 0x1032 DUP2 DUP5 PUSH2 0xFDF JUMP JUMPDEST SWAP1 POP SWAP3 SWAP2 POP POP JUMP JUMPDEST PUSH1 0x0 DUP1 REVERT JUMPDEST PUSH1 0x0 DUP1 REVERT JUMPDEST PUSH32 0x4E487B7100000000000000000000000000000000000000000000000000000000 PUSH1 0x0 MSTORE PUSH1 0x41 PUSH1 0x4 MSTORE PUSH1 0x24 PUSH1 0x0 REVERT JUMPDEST PUSH2 0x107C DUP3 PUSH2 0xFCE JUMP JUMPDEST DUP2 ADD DUP2 DUP2 LT PUSH8 0xFFFFFFFFFFFFFFFF DUP3 GT OR ISZERO PUSH2 0x109B JUMPI PUSH2 0x109A PUSH2 0x1044 JUMP JUMPDEST JUMPDEST DUP1 PUSH1 0x40 MSTORE POP POP POP JUMP JUMPDEST PUSH1 0x0 PUSH2 0x10AE PUSH2 0xE54 JUMP JUMPDEST SWAP1 POP PUSH2 0x10BA DUP3 DUP3 PUSH2 0x1073 JUMP JUMPDEST SWAP2 SWAP1 POP JUMP JUMPDEST PUSH1 0x0 PUSH8 0xFFFFFFFFFFFFFFFF DUP3 GT ISZERO PUSH2 0x10DA JUMPI PUSH2 0x10D9 PUSH2 0x1044 JUMP JUMPDEST JUMPDEST PUSH2 0x10E3 DUP3 PUSH2 0xFCE JUMP JUMPDEST SWAP1 POP PUSH1 0x20 DUP2 ADD SWAP1 POP SWAP2 SWAP1 POP JUMP JUMPDEST DUP3 DUP2 DUP4 CALLDATACOPY PUSH1 0x0 DUP4 DUP4 ADD MSTORE POP POP POP JUMP JUMPDEST PUSH1 0x0 PUSH2 0x1112 PUSH2 0x110D DUP5 PUSH2 0x10BF JUMP JUMPDEST PUSH2 0x10A4 JUMP JUMPDEST SWAP1 POP DUP3 DUP2 MSTORE PUSH1 0x20 DUP2 ADD DUP5 DUP5 DUP5 ADD GT ISZERO PUSH2 0x112E JUMPI PUSH2 0x112D PUSH2 0x103F JUMP JUMPDEST JUMPDEST PUSH2 0x1139 DUP5 DUP3 DUP6 PUSH2 0x10F0 JUMP JUMPDEST POP SWAP4 SWAP3 POP POP POP JUMP JUMPDEST PUSH1 0x0 DUP3 PUSH1 0x1F DUP4 ADD SLT PUSH2 0x1156 JUMPI PUSH2 0x1155 PUSH2 0x103A JUMP JUMPDEST JUMPDEST DUP2 CALLDATALOAD PUSH2 0x1166 DUP5 DUP3 PUSH1 0x20 DUP7 ADD PUSH2 0x10FF JUMP JUMPDEST SWAP2 POP POP SWAP3 SWAP2 POP POP JUMP JUMPDEST PUSH1 0x0 PUSH1 0x20 DUP3 DUP5 SUB SLT ISZERO PUSH2 0x1185 JUMPI PUSH2 0x1184 PUSH2 0xE5E JUMP JUMPDEST JUMPDEST PUSH1 0x0 DUP3 ADD CALLDATALOAD PUSH8 0xFFFFFFFFFFFFFFFF DUP2 GT ISZERO PUSH2 0x11A3 JUMPI PUSH2 0x11A2 PUSH2 0xE63 JUMP JUMPDEST JUMPDEST PUSH2 0x11AF DUP5 DUP3 DUP6 ADD PUSH2 0x1141 JUMP JUMPDEST SWAP2 POP POP SWAP3 SWAP2 POP POP JUMP JUMPDEST PUSH2 0x11C1 DUP2 PUSH2 0xEE1 JUMP JUMPDEST DUP2 EQ PUSH2 0x11CC JUMPI PUSH1 0x0 DUP1 REVERT JUMPDEST POP JUMP JUMPDEST PUSH1 0x0 DUP2 CALLDATALOAD SWAP1 POP PUSH2 0x11DE DUP2 PUSH2 0x11B8 JUMP JUMPDEST SWAP3 SWAP2 POP POP JUMP JUMPDEST PUSH1 0x0 PUSH1 0x20 DUP3 DUP5 SUB SLT ISZERO PUSH2 0x11FA JUMPI PUSH2 0x11F9 PUSH2 0xE5E JUMP JUMPDEST JUMPDEST PUSH1 0x0 PUSH2 0x1208 DUP5 DUP3 DUP6 ADD PUSH2 0x11CF JUMP JUMPDEST SWAP2 POP POP SWAP3 SWAP2 POP POP JUMP JUMPDEST PUSH1 0x0 DUP2 ISZERO ISZERO SWAP1 POP SWAP2 SWAP1 POP JUMP JUMPDEST PUSH2 0x1226 DUP2 PUSH2 0x1211 JUMP JUMPDEST DUP3 MSTORE POP POP JUMP JUMPDEST PUSH1 0x0 PUSH1 0x20 DUP3 ADD SWAP1 POP PUSH2 0x1241 PUSH1 0x0 DUP4 ADD DUP5 PUSH2 0x121D JUMP JUMPDEST SWAP3 SWAP2 POP POP JUMP JUMPDEST PUSH1 0x0 DUP2 SWAP1 POP SWAP2 SWAP1 POP JUMP JUMPDEST PUSH2 0x125A DUP2 PUSH2 0x1247 JUMP JUMPDEST DUP2 EQ PUSH2 0x1265 JUMPI PUSH1 0x0 DUP1 REVERT JUMPDEST POP JUMP JUMPDEST PUSH1 0x0 DUP2 CALLDATALOAD SWAP1 POP PUSH2 0x1277 DUP2 PUSH2 0x1251 JUMP JUMPDEST SWAP3 SWAP2 POP POP JUMP JUMPDEST PUSH1 0x0 PUSH1 0x20 DUP3 DUP5 SUB SLT ISZERO PUSH2 0x1293 JUMPI PUSH2 0x1292 PUSH2 0xE5E JUMP JUMPDEST JUMPDEST PUSH1 0x0 PUSH2 0x12A1 DUP5 DUP3 DUP6 ADD PUSH2 0x1268 JUMP JUMPDEST SWAP2 POP POP SWAP3 SWAP2 POP POP JUMP JUMPDEST PUSH1 0x0 DUP2 SWAP1 POP SWAP2 SWAP1 POP JUMP JUMPDEST PUSH2 0x12C5 PUSH2 0x12C0 DUP3 PUSH2 0xE20 JUMP JUMPDEST PUSH2 0x12AA JUMP JUMPDEST DUP3 MSTORE POP POP JUMP JUMPDEST PUSH1 0x0 PUSH2 0x12D7 DUP3 DUP6 PUSH2 0x12B4 JUMP JUMPDEST PUSH1 0x20 DUP3 ADD SWAP2 POP PUSH2 0x12E7 DUP3 DUP5 PUSH2 0x12B4 JUMP JUMPDEST PUSH1 0x20 DUP3 ADD SWAP2 POP DUP2 SWAP1 POP SWAP4 SWAP3 POP POP POP JUMP JUMPDEST PUSH32 0x4E487B7100000000000000000000000000000000000000000000000000000000 PUSH1 0x0 MSTORE PUSH1 0x12 PUSH1 0x4 MSTORE PUSH1 0x24 PUSH1 0x0 REVERT JUMPDEST PUSH1 0x0 PUSH2 0x1331 DUP3 PUSH2 0xE20 JUMP JUMPDEST SWAP2 POP PUSH2 0x133C DUP4 PUSH2 0xE20 JUMP JUMPDEST SWAP3 POP DUP3 PUSH2 0x134C JUMPI PUSH2 0x134B PUSH2 0x12F7 JUMP JUMPDEST JUMPDEST DUP3 DUP3 MOD SWAP1 POP SWAP3 SWAP2 POP POP JUMP JUMPDEST PUSH32 0x4E487B7100000000000000000000000000000000000000000000000000000000 PUSH1 0x0 MSTORE PUSH1 0x11 PUSH1 0x4 MSTORE PUSH1 0x24 PUSH1 0x0 REVERT JUMPDEST PUSH1 0x0 PUSH2 0x1391 DUP3 PUSH2 0xE20 JUMP JUMPDEST SWAP2 POP PUSH2 0x139C DUP4 PUSH2 0xE20 JUMP JUMPDEST SWAP3 POP DUP3 DUP3 MUL PUSH2 0x13AA DUP2 PUSH2 0xE20 JUMP JUMPDEST SWAP2 POP DUP3 DUP3 DIV DUP5 EQ DUP4 ISZERO OR PUSH2 0x13C1 JUMPI PUSH2 0x13C0 PUSH2 0x1357 JUMP JUMPDEST JUMPDEST POP SWAP3 SWAP2 POP POP JUMP JUMPDEST PUSH1 0x0 PUSH2 0x13D3 DUP3 PUSH2 0xE20 JUMP JUMPDEST SWAP2 POP PUSH2 0x13DE DUP4 PUSH2 0xE20 JUMP JUMPDEST SWAP3 POP DUP3 PUSH2 0x13EE JUMPI PUSH2 0x13ED PUSH2 0x12F7 JUMP JUMPDEST JUMPDEST DUP3 DUP3 DIV SWAP1 POP SWAP3 SWAP2 POP POP JUMP JUMPDEST PUSH1 0x0 PUSH2 0x1404 DUP3 PUSH2 0xE20 JUMP JUMPDEST SWAP2 POP PUSH2 0x140F DUP4 PUSH2 0xE20 JUMP JUMPDEST SWAP3 POP DUP3 DUP3 SUB SWAP1 POP DUP2 DUP2 GT ISZERO PUSH2 0x1427 JUMPI PUSH2 0x1426 PUSH2 0x1357 JUMP JUMPDEST JUMPDEST SWAP3 SWAP2 POP POP JUMP JUMPDEST PUSH32 0x54686520616D6F756E7420000000000000000000000000000000000000000000 DUP2 MSTORE POP JUMP JUMPDEST PUSH1 0x0 DUP2 SWAP1 POP SWAP3 SWAP2 POP POP JUMP JUMPDEST PUSH1 0x0 PUSH2 0x1469 DUP3 PUSH2 0xF88 JUMP JUMPDEST PUSH2 0x1473 DUP2 DUP6 PUSH2 0x1453 JUMP JUMPDEST SWAP4 POP PUSH2 0x1483 DUP2 DUP6 PUSH1 0x20 DUP7 ADD PUSH2 0xFA4 JUMP JUMPDEST DUP1 DUP5 ADD SWAP2 POP POP SWAP3 SWAP2 POP POP JUMP JUMPDEST PUSH32 0x2069732067726561746572207468616E2074686520636F6E7472616374206261 PUSH1 0x0 DUP3 ADD MSTORE PUSH32 0x6C616E6365200000000000000000000000000000000000000000000000000000 PUSH1 0x20 DUP3 ADD MSTORE POP JUMP JUMPDEST PUSH1 0x0 PUSH2 0x14EB PUSH1 0x26 DUP4 PUSH2 0x1453 JUMP JUMPDEST SWAP2 POP PUSH2 0x14F6 DUP3 PUSH2 0x148F JUMP JUMPDEST PUSH1 0x26 DUP3 ADD SWAP1 POP SWAP2 SWAP1 POP JUMP JUMPDEST PUSH1 0x0 PUSH2 0x150C DUP3 PUSH2 0x142D JUMP JUMPDEST PUSH1 0xB DUP3 ADD SWAP2 POP PUSH2 0x151C DUP3 DUP6 PUSH2 0x145E JUMP JUMPDEST SWAP2 POP PUSH2 0x1527 DUP3 PUSH2 0x14DE JUMP JUMPDEST SWAP2 POP PUSH2 0x1533 DUP3 DUP5 PUSH2 0x145E JUMP JUMPDEST SWAP2 POP DUP2 SWAP1 POP SWAP4 SWAP3 POP POP POP JUMP JUMPDEST PUSH1 0x0 DUP2 PUSH1 0x60 SHL SWAP1 POP SWAP2 SWAP1 POP JUMP JUMPDEST PUSH1 0x0 PUSH2 0x1557 DUP3 PUSH2 0x153F JUMP JUMPDEST SWAP1 POP SWAP2 SWAP1 POP JUMP JUMPDEST PUSH1 0x0 PUSH2 0x1569 DUP3 PUSH2 0x154C JUMP JUMPDEST SWAP1 POP SWAP2 SWAP1 POP JUMP JUMPDEST PUSH2 0x1581 PUSH2 0x157C DUP3 PUSH2 0xF1D JUMP JUMPDEST PUSH2 0x155E JUMP JUMPDEST DUP3 MSTORE POP POP JUMP JUMPDEST PUSH1 0x0 PUSH2 0x1593 DUP3 DUP5 PUSH2 0x1570 JUMP JUMPDEST PUSH1 0x14 DUP3 ADD SWAP2 POP DUP2 SWAP1 POP SWAP3 SWAP2 POP POP JUMP JUMPDEST PUSH1 0x0 PUSH2 0x15AE DUP3 DUP5 PUSH2 0x12B4 JUMP JUMPDEST PUSH1 0x20 DUP3 ADD SWAP2 POP DUP2 SWAP1 POP SWAP3 SWAP2 POP POP JUMP JUMPDEST PUSH1 0x0 PUSH2 0x15C8 DUP3 PUSH2 0xE20 JUMP JUMPDEST SWAP2 POP PUSH2 0x15D3 DUP4 PUSH2 0xE20 JUMP JUMPDEST SWAP3 POP DUP3 DUP3 ADD SWAP1 POP DUP1 DUP3 GT ISZERO PUSH2 0x15EB JUMPI PUSH2 0x15EA PUSH2 0x1357 JUMP JUMPDEST JUMPDEST SWAP3 SWAP2 POP POP JUMP JUMPDEST PUSH32 0x4E487B7100000000000000000000000000000000000000000000000000000000 PUSH1 0x0 MSTORE PUSH1 0x32 PUSH1 0x4 MSTORE PUSH1 0x24 PUSH1 0x0 REVERT JUMPDEST PUSH1 0x0 PUSH2 0x162B DUP3 PUSH2 0xE20 JUMP JUMPDEST SWAP2 POP PUSH32 0xFFFFFFFFFFFFFFFFFFFFFFFFFFFFFFFFFFFFFFFFFFFFFFFFFFFFFFFFFFFFFFFF DUP3 SUB PUSH2 0x165D JUMPI PUSH2 0x165C PUSH2 0x1357 JUMP JUMPDEST JUMPDEST PUSH1 0x1 DUP3 ADD SWAP1 POP SWAP2 SWAP1 POP JUMP JUMPDEST PUSH32 0x5468697320616464726573732068617320616C726561647920656E7465726564 PUSH1 0x0 DUP3 ADD MSTORE PUSH32 0x20746865206C6F74746572792E00000000000000000000000000000000000000 PUSH1 0x20 DUP3 ADD MSTORE POP JUMP JUMPDEST PUSH1 0x0 PUSH2 0x16C4 PUSH1 0x2D DUP4 PUSH2 0xF93 JUMP JUMPDEST SWAP2 POP PUSH2 0x16CF DUP3 PUSH2 0x1668 JUMP JUMPDEST PUSH1 0x40 DUP3 ADD SWAP1 POP SWAP2 SWAP1 POP JUMP JUMPDEST PUSH1 0x0 PUSH1 0x20 DUP3 ADD SWAP1 POP DUP2 DUP2 SUB PUSH1 0x0 DUP4 ADD MSTORE PUSH2 0x16F3 DUP2 PUSH2 0x16B7 JUMP JUMPDEST SWAP1 POP SWAP2 SWAP1 POP JUMP JUMPDEST PUSH1 0x0 DUP2 SWAP1 POP SWAP2 SWAP1 POP JUMP JUMPDEST PUSH2 0x1715 PUSH2 0x1710 DUP3 PUSH2 0x1247 JUMP JUMPDEST PUSH2 0x16FA JUMP JUMPDEST DUP3 MSTORE POP POP JUMP JUMPDEST PUSH1 0x0 PUSH2 0x1727 DUP3 DUP5 PUSH2 0x1704 JUMP JUMPDEST PUSH1 0x20 DUP3 ADD SWAP2 POP DUP2 SWAP1 POP SWAP3 SWAP2 POP POP JUMP INVALID LOG2 PUSH5 0x6970667358 0x22 SLT KECCAK256 PUSH9 0x89B7561A38701F4836 PUSH16 0xB0EBA54D837EF85A492D4F5E6A70C8D3 0xCE 0xBF 0xCC 0x29 PUSH3 0x64736F PUSH13 0x63430008110033000000000000 "
				},
				"gasEstimates": {
					"creation": {
						"codeDepositCost": "1199200",
						"executionCost": "1224",
						"totalCost": "1200424"
					},
					"external": {
						"chooseWinningAddress()": "infinite",
						"endLottery()": "infinite",
						"fundContract()": "186",
						"fundLottery()": "infinite",
						"getBalance()": "363",
						"isAddressPlaying(address)": "2950",
						"list_playerAddress(uint256)": "5046",
						"map_isPlaying(address)": "2933",
						"randomInt(uint256)": "infinite",
						"registerAddress(address)": "75739",
						"toString(address)": "infinite",
						"toString(bytes)": "infinite",
						"toString(bytes32)": "infinite",
						"toString(uint256)": "infinite",
						"withdraw(uint256)": "infinite",
						"withdrawAll()": "infinite"
					}
				},
				"methodIdentifiers": {
					"chooseWinningAddress()": "7f798243",
					"endLottery()": "1593a8c7",
					"fundContract()": "bd097e21",
					"fundLottery()": "b5cc4539",
					"getBalance()": "12065fe0",
					"isAddressPlaying(address)": "912a90bb",
					"list_playerAddress(uint256)": "27dff143",
					"map_isPlaying(address)": "bff82dee",
					"randomInt(uint256)": "12845966",
					"registerAddress(address)": "a8a54008",
					"toString(address)": "56ca623e",
					"toString(bytes)": "71aad10d",
					"toString(bytes32)": "b11a19e8",
					"toString(uint256)": "6900a3ae",
					"withdraw(uint256)": "2e1a7d4d",
					"withdrawAll()": "853828b6"
				}
			},
			"storageLayout": {
				"storage": [
					{
						"astId": 246,
						"contract": "contracts/lottery.sol:Lottery",
						"label": "totalPrize",
						"offset": 0,
						"slot": "0",
						"type": "t_uint256"
					},
					{
						"astId": 250,
						"contract": "contracts/lottery.sol:Lottery",
						"label": "map_isPlaying",
						"offset": 0,
						"slot": "1",
						"type": "t_mapping(t_address,t_bool)"
					},
					{
						"astId": 253,
						"contract": "contracts/lottery.sol:Lottery",
						"label": "list_playerAddress",
						"offset": 0,
						"slot": "2",
						"type": "t_array(t_address_payable)dyn_storage"
					}
				],
				"types": {
					"t_address": {
						"encoding": "inplace",
						"label": "address",
						"numberOfBytes": "20"
					},
					"t_address_payable": {
						"encoding": "inplace",
						"label": "address payable",
						"numberOfBytes": "20"
					},
					"t_array(t_address_payable)dyn_storage": {
						"base": "t_address_payable",
						"encoding": "dynamic_array",
						"label": "address payable[]",
						"numberOfBytes": "32"
					},
					"t_bool": {
						"encoding": "inplace",
						"label": "bool",
						"numberOfBytes": "1"
					},
					"t_mapping(t_address,t_bool)": {
						"encoding": "mapping",
						"key": "t_address",
						"label": "mapping(address => bool)",
						"numberOfBytes": "32",
						"value": "t_bool"
					},
					"t_uint256": {
						"encoding": "inplace",
						"label": "uint256",
						"numberOfBytes": "32"
					}
				}
			},
			"userdoc": {
				"kind": "user",
				"methods": {},
				"version": 1
			}
		}
	}
}