{
	"contracts/lottery.sol": {
		"Lottery": {
			"abi": [
				{
					"inputs": [],
					"stateMutability": "payable",
					"type": "constructor"
				},
				{
					"inputs": [],
					"name": "addBonusPrizePool",
					"outputs": [],
					"stateMutability": "payable",
					"type": "function"
				},
				{
					"inputs": [],
					"name": "addContractFunds",
					"outputs": [],
					"stateMutability": "payable",
					"type": "function"
				},
				{
					"inputs": [],
					"name": "chooseWinningAddress",
					"outputs": [
						{
							"internalType": "address payable",
							"name": "",
							"type": "address"
						}
					],
					"stateMutability": "view",
					"type": "function"
				},
				{
					"inputs": [],
					"name": "disableContract",
					"outputs": [],
					"stateMutability": "nonpayable",
					"type": "function"
				},
				{
					"inputs": [],
					"name": "enableContract",
					"outputs": [],
					"stateMutability": "nonpayable",
					"type": "function"
				},
				{
					"inputs": [],
					"name": "endLottery",
					"outputs": [],
					"stateMutability": "nonpayable",
					"type": "function"
				},
				{
					"inputs": [],
					"name": "fundLottery",
					"outputs": [],
					"stateMutability": "payable",
					"type": "function"
				},
				{
					"inputs": [],
					"name": "getAccountedContractBalance",
					"outputs": [
						{
							"internalType": "uint256",
							"name": "",
							"type": "uint256"
						}
					],
					"stateMutability": "view",
					"type": "function"
				},
				{
					"inputs": [],
					"name": "getBonusPrizePool",
					"outputs": [
						{
							"internalType": "uint256",
							"name": "",
							"type": "uint256"
						}
					],
					"stateMutability": "nonpayable",
					"type": "function"
				},
				{
					"inputs": [],
					"name": "getContractBalance",
					"outputs": [
						{
							"internalType": "uint256",
							"name": "",
							"type": "uint256"
						}
					],
					"stateMutability": "view",
					"type": "function"
				},
				{
					"inputs": [],
					"name": "getContractFunds",
					"outputs": [
						{
							"internalType": "uint256",
							"name": "",
							"type": "uint256"
						}
					],
					"stateMutability": "view",
					"type": "function"
				},
				{
					"inputs": [],
					"name": "getExtraContractBalance",
					"outputs": [
						{
							"internalType": "uint256",
							"name": "",
							"type": "uint256"
						}
					],
					"stateMutability": "view",
					"type": "function"
				},
				{
					"inputs": [],
					"name": "getPlayerPrizePool",
					"outputs": [
						{
							"internalType": "uint256",
							"name": "",
							"type": "uint256"
						}
					],
					"stateMutability": "view",
					"type": "function"
				},
				{
					"inputs": [
						{
							"internalType": "address payable",
							"name": "playerAddress",
							"type": "address"
						}
					],
					"name": "isAddressPlaying",
					"outputs": [
						{
							"internalType": "bool",
							"name": "",
							"type": "bool"
						}
					],
					"stateMutability": "view",
					"type": "function"
				},
				{
					"inputs": [
						{
							"internalType": "uint256",
							"name": "",
							"type": "uint256"
						}
					],
					"name": "list_playerAddress",
					"outputs": [
						{
							"internalType": "address payable",
							"name": "",
							"type": "address"
						}
					],
					"stateMutability": "view",
					"type": "function"
				},
				{
					"inputs": [
						{
							"internalType": "address",
							"name": "",
							"type": "address"
						}
					],
					"name": "map_isPlaying",
					"outputs": [
						{
							"internalType": "bool",
							"name": "",
							"type": "bool"
						}
					],
					"stateMutability": "view",
					"type": "function"
				},
				{
					"inputs": [
						{
							"internalType": "uint256",
							"name": "N",
							"type": "uint256"
						}
					],
					"name": "randomInt",
					"outputs": [
						{
							"internalType": "uint256",
							"name": "",
							"type": "uint256"
						}
					],
					"stateMutability": "view",
					"type": "function"
				},
				{
					"inputs": [
						{
							"internalType": "address payable",
							"name": "playerAddress",
							"type": "address"
						}
					],
					"name": "registerAddress",
					"outputs": [],
					"stateMutability": "nonpayable",
					"type": "function"
				},
				{
					"inputs": [],
					"name": "removeAllContractFunds",
					"outputs": [],
					"stateMutability": "nonpayable",
					"type": "function"
				},
				{
					"inputs": [
						{
							"internalType": "uint256",
							"name": "amount",
							"type": "uint256"
						}
					],
					"name": "removeContractFunds",
					"outputs": [],
					"stateMutability": "nonpayable",
					"type": "function"
				},
				{
					"inputs": [],
					"name": "requireContractEnabled",
					"outputs": [],
					"stateMutability": "view",
					"type": "function"
				},
				{
					"stateMutability": "payable",
					"type": "receive"
				}
			],
			"devdoc": {
				"custom:dev-run-script": "./scripts/deploy_with_ethers.ts",
				"details": "A blockchain lottery",
				"kind": "dev",
				"methods": {},
				"title": "Lottery",
				"version": 1
			},
			"evm": {
				"assembly": "    /* \"contracts/lottery.sol\":248:9477  contract Lottery {... */\n  mstore(0x40, 0x80)\n    /* \"contracts/lottery.sol\":2298:2302  true */\n  0x01\n    /* \"contracts/lottery.sol\":2278:2295  isContractEnabled */\n  0x00\n  dup1\n    /* \"contracts/lottery.sol\":2278:2302  isContractEnabled = true */\n  0x0100\n  exp\n  dup2\n  sload\n  dup2\n  0xff\n  mul\n  not\n  and\n  swap1\n  dup4\n  iszero\n  iszero\n  mul\n  or\n  swap1\n  sstore\n  pop\n    /* \"contracts/lottery.sol\":248:9477  contract Lottery {... */\n  dataSize(sub_0)\n  dup1\n  dataOffset(sub_0)\n  0x00\n  codecopy\n  0x00\n  return\nstop\n\nsub_0: assembly {\n        /* \"contracts/lottery.sol\":248:9477  contract Lottery {... */\n      mstore(0x40, 0x80)\n      jumpi(tag_1, lt(calldatasize, 0x04))\n      shr(0xe0, calldataload(0x00))\n      dup1\n      0x7f798243\n      gt\n      tag_24\n      jumpi\n      dup1\n      0xa8a54008\n      gt\n      tag_25\n      jumpi\n      dup1\n      0xa8a54008\n      eq\n      tag_18\n      jumpi\n      dup1\n      0xb5cc4539\n      eq\n      tag_19\n      jumpi\n      dup1\n      0xbff82dee\n      eq\n      tag_20\n      jumpi\n      dup1\n      0xd1cdb323\n      eq\n      tag_21\n      jumpi\n      dup1\n      0xe0cb8a81\n      eq\n      tag_22\n      jumpi\n      dup1\n      0xf0d5c534\n      eq\n      tag_23\n      jumpi\n      jump(tag_2)\n    tag_25:\n      dup1\n      0x7f798243\n      eq\n      tag_13\n      jumpi\n      dup1\n      0x894ba833\n      eq\n      tag_14\n      jumpi\n      dup1\n      0x912a90bb\n      eq\n      tag_15\n      jumpi\n      dup1\n      0x944b3fe5\n      eq\n      tag_16\n      jumpi\n      dup1\n      0x97d47113\n      eq\n      tag_17\n      jumpi\n      jump(tag_2)\n    tag_24:\n      dup1\n      0x367edd32\n      gt\n      tag_26\n      jumpi\n      dup1\n      0x367edd32\n      eq\n      tag_8\n      jumpi\n      dup1\n      0x3b4ad0e5\n      eq\n      tag_9\n      jumpi\n      dup1\n      0x605e16ec\n      eq\n      tag_10\n      jumpi\n      dup1\n      0x6f9fb98a\n      eq\n      tag_11\n      jumpi\n      dup1\n      0x7c623f7b\n      eq\n      tag_12\n      jumpi\n      jump(tag_2)\n    tag_26:\n      dup1\n      0x8b8d89\n      eq\n      tag_3\n      jumpi\n      dup1\n      0x12845966\n      eq\n      tag_4\n      jumpi\n      dup1\n      0x1593a8c7\n      eq\n      tag_5\n      jumpi\n      dup1\n      0x27dff143\n      eq\n      tag_6\n      jumpi\n      dup1\n      0x2a41a975\n      eq\n      tag_7\n      jumpi\n      jump(tag_2)\n    tag_1:\n      jumpi(tag_2, calldatasize)\n        /* \"contracts/lottery.sol\":687:729  0xAb8483F64d9C6d1EcF9b849Ae677dD3315835cb2 */\n      0xab8483f64d9c6d1ecf9b849ae677dd3315835cb2\n        /* \"contracts/lottery.sol\":2484:2513  msg.sender == operatorAddress */\n      0xffffffffffffffffffffffffffffffffffffffff\n      and\n        /* \"contracts/lottery.sol\":2484:2494  msg.sender */\n      caller\n        /* \"contracts/lottery.sol\":2484:2513  msg.sender == operatorAddress */\n      0xffffffffffffffffffffffffffffffffffffffff\n      and\n      sub\n        /* \"contracts/lottery.sol\":2481:2877  if(msg.sender == operatorAddress) {... */\n      tag_29\n      jumpi\n        /* \"contracts/lottery.sol\":2530:2554  requireContractEnabled() */\n      tag_30\n        /* \"contracts/lottery.sol\":2530:2552  requireContractEnabled */\n      tag_31\n        /* \"contracts/lottery.sol\":2530:2554  requireContractEnabled() */\n      jump\t// in\n    tag_30:\n        /* \"contracts/lottery.sol\":2588:2597  msg.value */\n      callvalue\n        /* \"contracts/lottery.sol\":2571:2584  contractFunds */\n      0x01\n      0x00\n        /* \"contracts/lottery.sol\":2571:2597  contractFunds += msg.value */\n      dup3\n      dup3\n      sload\n      tag_32\n      swap2\n      swap1\n      tag_33\n      jump\t// in\n    tag_32:\n      swap3\n      pop\n      pop\n      dup2\n      swap1\n      sstore\n      pop\n        /* \"contracts/lottery.sol\":2481:2877  if(msg.sender == operatorAddress) {... */\n      jump(tag_34)\n    tag_29:\n        /* \"contracts/lottery.sol\":2734:2743  msg.value */\n      callvalue\n        /* \"contracts/lottery.sol\":2715:2730  playerPrizePool */\n      0x02\n      0x00\n        /* \"contracts/lottery.sol\":2715:2743  playerPrizePool += msg.value */\n      dup3\n      dup3\n      sload\n      tag_35\n      swap2\n      swap1\n      tag_33\n      jump\t// in\n    tag_35:\n      swap3\n      pop\n      pop\n      dup2\n      swap1\n      sstore\n      pop\n        /* \"contracts/lottery.sol\":2758:2794  registerAddress(payable(msg.sender)) */\n      tag_36\n        /* \"contracts/lottery.sol\":2782:2792  msg.sender */\n      caller\n        /* \"contracts/lottery.sol\":2758:2773  registerAddress */\n      tag_37\n        /* \"contracts/lottery.sol\":2758:2794  registerAddress(payable(msg.sender)) */\n      jump\t// in\n    tag_36:\n        /* \"contracts/lottery.sol\":2481:2877  if(msg.sender == operatorAddress) {... */\n    tag_34:\n        /* \"contracts/lottery.sol\":248:9477  contract Lottery {... */\n      stop\n    tag_2:\n      0x00\n      dup1\n      revert\n        /* \"contracts/lottery.sol\":6007:6298  function addContractFunds() external payable {... */\n    tag_3:\n      tag_38\n      tag_39\n      jump\t// in\n    tag_38:\n      stop\n        /* \"contracts/lottery.sol\":5116:5357  function randomInt(uint N) public view returns (uint) {... */\n    tag_4:\n      callvalue\n      dup1\n      iszero\n      tag_40\n      jumpi\n      0x00\n      dup1\n      revert\n    tag_40:\n      pop\n      tag_41\n      0x04\n      dup1\n      calldatasize\n      sub\n      dup2\n      add\n      swap1\n      tag_42\n      swap2\n      swap1\n      tag_43\n      jump\t// in\n    tag_42:\n      tag_44\n      jump\t// in\n    tag_41:\n      mload(0x40)\n      tag_45\n      swap2\n      swap1\n      tag_46\n      jump\t// in\n    tag_45:\n      mload(0x40)\n      dup1\n      swap2\n      sub\n      swap1\n      return\n        /* \"contracts/lottery.sol\":4403:5067  function endLottery() public {... */\n    tag_5:\n      callvalue\n      dup1\n      iszero\n      tag_47\n      jumpi\n      0x00\n      dup1\n      revert\n    tag_47:\n      pop\n      tag_48\n      tag_49\n      jump\t// in\n    tag_48:\n      stop\n        /* \"contracts/lottery.sol\":2028:2071  address payable[] public list_playerAddress */\n    tag_6:\n      callvalue\n      dup1\n      iszero\n      tag_50\n      jumpi\n      0x00\n      dup1\n      revert\n    tag_50:\n      pop\n      tag_51\n      0x04\n      dup1\n      calldatasize\n      sub\n      dup2\n      add\n      swap1\n      tag_52\n      swap2\n      swap1\n      tag_43\n      jump\t// in\n    tag_52:\n      tag_53\n      jump\t// in\n    tag_51:\n      mload(0x40)\n      tag_54\n      swap2\n      swap1\n      tag_55\n      jump\t// in\n    tag_54:\n      mload(0x40)\n      dup1\n      swap2\n      sub\n      swap1\n      return\n        /* \"contracts/lottery.sol\":7967:8537  function getExtraContractBalance() external view returns (uint) {... */\n    tag_7:\n      callvalue\n      dup1\n      iszero\n      tag_56\n      jumpi\n      0x00\n      dup1\n      revert\n    tag_56:\n      pop\n      tag_57\n      tag_58\n      jump\t// in\n    tag_57:\n      mload(0x40)\n      tag_59\n      swap2\n      swap1\n      tag_46\n      jump\t// in\n    tag_59:\n      mload(0x40)\n      dup1\n      swap2\n      sub\n      swap1\n      return\n        /* \"contracts/lottery.sol\":5410:5551  function enableContract() public {... */\n    tag_8:\n      callvalue\n      dup1\n      iszero\n      tag_60\n      jumpi\n      0x00\n      dup1\n      revert\n    tag_60:\n      pop\n      tag_61\n      tag_62\n      jump\t// in\n    tag_61:\n      stop\n        /* \"contracts/lottery.sol\":5711:5842  function requireContractEnabled() public view {... */\n    tag_9:\n      callvalue\n      dup1\n      iszero\n      tag_63\n      jumpi\n      0x00\n      dup1\n      revert\n    tag_63:\n      pop\n      tag_64\n      tag_31\n      jump\t// in\n    tag_64:\n      stop\n        /* \"contracts/lottery.sol\":6730:6930  function removeAllContractFunds() public {... */\n    tag_10:\n      callvalue\n      dup1\n      iszero\n      tag_65\n      jumpi\n      0x00\n      dup1\n      revert\n    tag_65:\n      pop\n      tag_66\n      tag_67\n      jump\t// in\n    tag_66:\n      stop\n        /* \"contracts/lottery.sol\":7707:7811  function getContractBalance() public view returns (uint) {... */\n    tag_11:\n      callvalue\n      dup1\n      iszero\n      tag_68\n      jumpi\n      0x00\n      dup1\n      revert\n    tag_68:\n      pop\n      tag_69\n      tag_70\n      jump\t// in\n    tag_69:\n      mload(0x40)\n      tag_71\n      swap2\n      swap1\n      tag_46\n      jump\t// in\n    tag_71:\n      mload(0x40)\n      dup1\n      swap2\n      sub\n      swap1\n      return\n        /* \"contracts/lottery.sol\":6938:7038  function getPlayerPrizePool() external view returns (uint) {... */\n    tag_12:\n      callvalue\n      dup1\n      iszero\n      tag_72\n      jumpi\n      0x00\n      dup1\n      revert\n    tag_72:\n      pop\n      tag_73\n      tag_74\n      jump\t// in\n    tag_73:\n      mload(0x40)\n      tag_75\n      swap2\n      swap1\n      tag_46\n      jump\t// in\n    tag_75:\n      mload(0x40)\n      dup1\n      swap2\n      sub\n      swap1\n      return\n        /* \"contracts/lottery.sol\":3600:4395  function chooseWinningAddress() public view returns (address payable) {... */\n    tag_13:\n      callvalue\n      dup1\n      iszero\n      tag_76\n      jumpi\n      0x00\n      dup1\n      revert\n    tag_76:\n      pop\n      tag_77\n      tag_78\n      jump\t// in\n    tag_77:\n      mload(0x40)\n      tag_79\n      swap2\n      swap1\n      tag_55\n      jump\t// in\n    tag_79:\n      mload(0x40)\n      dup1\n      swap2\n      sub\n      swap1\n      return\n        /* \"contracts/lottery.sol\":5559:5703  function disableContract() public {... */\n    tag_14:\n      callvalue\n      dup1\n      iszero\n      tag_80\n      jumpi\n      0x00\n      dup1\n      revert\n    tag_80:\n      pop\n      tag_81\n      tag_82\n      jump\t// in\n    tag_81:\n      stop\n        /* \"contracts/lottery.sol\":3419:3592  function isAddressPlaying(address payable playerAddress) public view returns (bool) {... */\n    tag_15:\n      callvalue\n      dup1\n      iszero\n      tag_83\n      jumpi\n      0x00\n      dup1\n      revert\n    tag_83:\n      pop\n      tag_84\n      0x04\n      dup1\n      calldatasize\n      sub\n      dup2\n      add\n      swap1\n      tag_85\n      swap2\n      swap1\n      tag_86\n      jump\t// in\n    tag_85:\n      tag_87\n      jump\t// in\n    tag_84:\n      mload(0x40)\n      tag_88\n      swap2\n      swap1\n      tag_89\n      jump\t// in\n    tag_88:\n      mload(0x40)\n      dup1\n      swap2\n      sub\n      swap1\n      return\n        /* \"contracts/lottery.sol\":6306:6722  function removeContractFunds(uint amount) public {... */\n    tag_16:\n      callvalue\n      dup1\n      iszero\n      tag_90\n      jumpi\n      0x00\n      dup1\n      revert\n    tag_90:\n      pop\n      tag_91\n      0x04\n      dup1\n      calldatasize\n      sub\n      dup2\n      add\n      swap1\n      tag_92\n      swap2\n      swap1\n      tag_43\n      jump\t// in\n    tag_92:\n      tag_93\n      jump\t// in\n    tag_91:\n      stop\n        /* \"contracts/lottery.sol\":7560:7699  function addBonusPrizePool() external payable {... */\n    tag_17:\n      tag_94\n      tag_95\n      jump\t// in\n    tag_94:\n      stop\n        /* \"contracts/lottery.sol\":2937:3407  function registerAddress(address payable playerAddress) public {... */\n    tag_18:\n      callvalue\n      dup1\n      iszero\n      tag_96\n      jumpi\n      0x00\n      dup1\n      revert\n    tag_96:\n      pop\n      tag_97\n      0x04\n      dup1\n      calldatasize\n      sub\n      dup2\n      add\n      swap1\n      tag_98\n      swap2\n      swap1\n      tag_86\n      jump\t// in\n    tag_98:\n      tag_37\n      jump\t// in\n    tag_97:\n      stop\n        /* \"contracts/lottery.sol\":7046:7451  function fundLottery() external payable {... */\n    tag_19:\n      tag_99\n      tag_100\n      jump\t// in\n    tag_99:\n      stop\n        /* \"contracts/lottery.sol\":1976:2021  mapping(address => bool) public map_isPlaying */\n    tag_20:\n      callvalue\n      dup1\n      iszero\n      tag_101\n      jumpi\n      0x00\n      dup1\n      revert\n    tag_101:\n      pop\n      tag_102\n      0x04\n      dup1\n      calldatasize\n      sub\n      dup2\n      add\n      swap1\n      tag_103\n      swap2\n      swap1\n      tag_104\n      jump\t// in\n    tag_103:\n      tag_105\n      jump\t// in\n    tag_102:\n      mload(0x40)\n      tag_106\n      swap2\n      swap1\n      tag_89\n      jump\t// in\n    tag_106:\n      mload(0x40)\n      dup1\n      swap2\n      sub\n      swap1\n      return\n        /* \"contracts/lottery.sol\":7819:7959  function getAccountedContractBalance() public view returns (uint) {... */\n    tag_21:\n      callvalue\n      dup1\n      iszero\n      tag_107\n      jumpi\n      0x00\n      dup1\n      revert\n    tag_107:\n      pop\n      tag_108\n      tag_109\n      jump\t// in\n    tag_108:\n      mload(0x40)\n      tag_110\n      swap2\n      swap1\n      tag_46\n      jump\t// in\n    tag_110:\n      mload(0x40)\n      dup1\n      swap2\n      sub\n      swap1\n      return\n        /* \"contracts/lottery.sol\":5903:5999  function getContractFunds() external view returns (uint) {... */\n    tag_22:\n      callvalue\n      dup1\n      iszero\n      tag_111\n      jumpi\n      0x00\n      dup1\n      revert\n    tag_111:\n      pop\n      tag_112\n      tag_113\n      jump\t// in\n    tag_112:\n      mload(0x40)\n      tag_114\n      swap2\n      swap1\n      tag_46\n      jump\t// in\n    tag_114:\n      mload(0x40)\n      dup1\n      swap2\n      sub\n      swap1\n      return\n        /* \"contracts/lottery.sol\":7459:7552  function getBonusPrizePool() external returns (uint) {... */\n    tag_23:\n      callvalue\n      dup1\n      iszero\n      tag_115\n      jumpi\n      0x00\n      dup1\n      revert\n    tag_115:\n      pop\n      tag_116\n      tag_117\n      jump\t// in\n    tag_116:\n      mload(0x40)\n      tag_118\n      swap2\n      swap1\n      tag_46\n      jump\t// in\n    tag_118:\n      mload(0x40)\n      dup1\n      swap2\n      sub\n      swap1\n      return\n        /* \"contracts/lottery.sol\":5711:5842  function requireContractEnabled() public view {... */\n    tag_31:\n        /* \"contracts/lottery.sol\":5776:5793  isContractEnabled */\n      0x00\n      dup1\n      sload\n      swap1\n      0x0100\n      exp\n      swap1\n      div\n      0xff\n      and\n        /* \"contracts/lottery.sol\":5768:5834  require(isContractEnabled, \"This contract is currently disabled.\") */\n      tag_120\n      jumpi\n      mload(0x40)\n      0x08c379a000000000000000000000000000000000000000000000000000000000\n      dup2\n      mstore\n      0x04\n      add\n      tag_121\n      swap1\n      tag_122\n      jump\t// in\n    tag_121:\n      mload(0x40)\n      dup1\n      swap2\n      sub\n      swap1\n      revert\n    tag_120:\n        /* \"contracts/lottery.sol\":5711:5842  function requireContractEnabled() public view {... */\n      jump\t// out\n        /* \"contracts/lottery.sol\":2937:3407  function registerAddress(address payable playerAddress) public {... */\n    tag_37:\n        /* \"contracts/lottery.sol\":3116:3130  bool isPlaying */\n      0x00\n        /* \"contracts/lottery.sol\":3133:3146  map_isPlaying */\n      0x04\n        /* \"contracts/lottery.sol\":3133:3161  map_isPlaying[playerAddress] */\n      0x00\n        /* \"contracts/lottery.sol\":3147:3160  playerAddress */\n      dup4\n        /* \"contracts/lottery.sol\":3133:3161  map_isPlaying[playerAddress] */\n      0xffffffffffffffffffffffffffffffffffffffff\n      and\n      0xffffffffffffffffffffffffffffffffffffffff\n      and\n      dup2\n      mstore\n      0x20\n      add\n      swap1\n      dup2\n      mstore\n      0x20\n      add\n      0x00\n      keccak256\n      0x00\n      swap1\n      sload\n      swap1\n      0x0100\n      exp\n      swap1\n      div\n      0xff\n      and\n        /* \"contracts/lottery.sol\":3116:3161  bool isPlaying = map_isPlaying[playerAddress] */\n      swap1\n      pop\n        /* \"contracts/lottery.sol\":3181:3190  isPlaying */\n      dup1\n        /* \"contracts/lottery.sol\":3180:3190  !isPlaying */\n      iszero\n        /* \"contracts/lottery.sol\":3172:3240  require(!isPlaying, \"This address has already entered the lottery.\") */\n      tag_124\n      jumpi\n      mload(0x40)\n      0x08c379a000000000000000000000000000000000000000000000000000000000\n      dup2\n      mstore\n      0x04\n      add\n      tag_125\n      swap1\n      tag_126\n      jump\t// in\n    tag_125:\n      mload(0x40)\n      dup1\n      swap2\n      sub\n      swap1\n      revert\n    tag_124:\n        /* \"contracts/lottery.sol\":3346:3350  true */\n      0x01\n        /* \"contracts/lottery.sol\":3315:3328  map_isPlaying */\n      0x04\n        /* \"contracts/lottery.sol\":3315:3343  map_isPlaying[playerAddress] */\n      0x00\n        /* \"contracts/lottery.sol\":3329:3342  playerAddress */\n      dup5\n        /* \"contracts/lottery.sol\":3315:3343  map_isPlaying[playerAddress] */\n      0xffffffffffffffffffffffffffffffffffffffff\n      and\n      0xffffffffffffffffffffffffffffffffffffffff\n      and\n      dup2\n      mstore\n      0x20\n      add\n      swap1\n      dup2\n      mstore\n      0x20\n      add\n      0x00\n      keccak256\n      0x00\n        /* \"contracts/lottery.sol\":3315:3350  map_isPlaying[playerAddress] = true */\n      0x0100\n      exp\n      dup2\n      sload\n      dup2\n      0xff\n      mul\n      not\n      and\n      swap1\n      dup4\n      iszero\n      iszero\n      mul\n      or\n      swap1\n      sstore\n      pop\n        /* \"contracts/lottery.sol\":3361:3379  list_playerAddress */\n      0x05\n        /* \"contracts/lottery.sol\":3385:3398  playerAddress */\n      dup3\n        /* \"contracts/lottery.sol\":3361:3399  list_playerAddress.push(playerAddress) */\n      swap1\n      dup1\n      0x01\n      dup2\n      sload\n      add\n      dup1\n      dup3\n      sstore\n      dup1\n      swap2\n      pop\n      pop\n      0x01\n      swap1\n      sub\n      swap1\n      0x00\n      mstore\n      keccak256(0x00, 0x20)\n      add\n      0x00\n      swap1\n      swap2\n      swap1\n      swap2\n      swap1\n      swap2\n      0x0100\n      exp\n      dup2\n      sload\n      dup2\n      0xffffffffffffffffffffffffffffffffffffffff\n      mul\n      not\n      and\n      swap1\n      dup4\n      0xffffffffffffffffffffffffffffffffffffffff\n      and\n      mul\n      or\n      swap1\n      sstore\n      pop\n        /* \"contracts/lottery.sol\":3000:3407  {... */\n      pop\n        /* \"contracts/lottery.sol\":2937:3407  function registerAddress(address payable playerAddress) public {... */\n      pop\n      jump\t// out\n        /* \"contracts/lottery.sol\":6007:6298  function addContractFunds() external payable {... */\n    tag_39:\n        /* \"contracts/lottery.sol\":6281:6290  msg.value */\n      callvalue\n        /* \"contracts/lottery.sol\":6264:6277  contractFunds */\n      0x01\n      0x00\n        /* \"contracts/lottery.sol\":6264:6290  contractFunds += msg.value */\n      dup3\n      dup3\n      sload\n      tag_129\n      swap2\n      swap1\n      tag_33\n      jump\t// in\n    tag_129:\n      swap3\n      pop\n      pop\n      dup2\n      swap1\n      sstore\n      pop\n        /* \"contracts/lottery.sol\":6007:6298  function addContractFunds() external payable {... */\n      jump\t// out\n        /* \"contracts/lottery.sol\":5116:5357  function randomInt(uint N) public view returns (uint) {... */\n    tag_44:\n        /* \"contracts/lottery.sol\":5164:5168  uint */\n      0x00\n        /* \"contracts/lottery.sol\":5231:5246  uint randomHash */\n      dup1\n        /* \"contracts/lottery.sol\":5281:5297  block.difficulty */\n      difficulty\n        /* \"contracts/lottery.sol\":5299:5314  block.timestamp */\n      timestamp\n        /* \"contracts/lottery.sol\":5264:5315  abi.encodePacked(block.difficulty, block.timestamp) */\n      add(0x20, mload(0x40))\n      tag_131\n      swap3\n      swap2\n      swap1\n      tag_132\n      jump\t// in\n    tag_131:\n      mload(0x40)\n      0x20\n      dup2\n      dup4\n      sub\n      sub\n      dup2\n      mstore\n      swap1\n      0x40\n      mstore\n        /* \"contracts/lottery.sol\":5254:5316  keccak256(abi.encodePacked(block.difficulty, block.timestamp)) */\n      dup1\n      mload\n      swap1\n      0x20\n      add\n      keccak256\n        /* \"contracts/lottery.sol\":5249:5317  uint(keccak256(abi.encodePacked(block.difficulty, block.timestamp))) */\n      0x00\n      shr\n        /* \"contracts/lottery.sol\":5231:5317  uint randomHash = uint(keccak256(abi.encodePacked(block.difficulty, block.timestamp))) */\n      swap1\n      pop\n        /* \"contracts/lottery.sol\":5348:5349  N */\n      dup3\n        /* \"contracts/lottery.sol\":5335:5345  randomHash */\n      dup2\n        /* \"contracts/lottery.sol\":5335:5349  randomHash % N */\n      tag_133\n      swap2\n      swap1\n      tag_134\n      jump\t// in\n    tag_133:\n        /* \"contracts/lottery.sol\":5328:5349  return randomHash % N */\n      swap2\n      pop\n      pop\n        /* \"contracts/lottery.sol\":5116:5357  function randomInt(uint N) public view returns (uint) {... */\n      swap2\n      swap1\n      pop\n      jump\t// out\n        /* \"contracts/lottery.sol\":4403:5067  function endLottery() public {... */\n    tag_49:\n        /* \"contracts/lottery.sol\":4443:4473  address payable winningAddress */\n      0x00\n        /* \"contracts/lottery.sol\":4476:4498  chooseWinningAddress() */\n      tag_136\n        /* \"contracts/lottery.sol\":4476:4496  chooseWinningAddress */\n      tag_78\n        /* \"contracts/lottery.sol\":4476:4498  chooseWinningAddress() */\n      jump\t// in\n    tag_136:\n        /* \"contracts/lottery.sol\":4443:4498  address payable winningAddress = chooseWinningAddress() */\n      swap1\n      pop\n        /* \"contracts/lottery.sol\":908:950  0x0000000000000000000000000000000000000000 */\n      0x00\n        /* \"contracts/lottery.sol\":4512:4541  winningAddress == zeroAddress */\n      0xffffffffffffffffffffffffffffffffffffffff\n      and\n        /* \"contracts/lottery.sol\":4512:4526  winningAddress */\n      dup2\n        /* \"contracts/lottery.sol\":4512:4541  winningAddress == zeroAddress */\n      0xffffffffffffffffffffffffffffffffffffffff\n      and\n      sub\n        /* \"contracts/lottery.sol\":4509:5060  if(winningAddress == zeroAddress) {... */\n      iszero\n      tag_138\n      jumpi\n        /* \"contracts/lottery.sol\":4738:4756  uint operatorPrize */\n      0x00\n        /* \"contracts/lottery.sol\":4791:4794  100 */\n      0x64\n        /* \"contracts/lottery.sol\":1202:1204  10 */\n      0x0a\n        /* \"contracts/lottery.sol\":4759:4774  playerPrizePool */\n      sload(0x02)\n        /* \"contracts/lottery.sol\":4759:4788  playerPrizePool * operatorCut */\n      tag_139\n      swap2\n      swap1\n      tag_140\n      jump\t// in\n    tag_139:\n        /* \"contracts/lottery.sol\":4759:4794  playerPrizePool * operatorCut / 100 */\n      tag_141\n      swap2\n      swap1\n      tag_142\n      jump\t// in\n    tag_141:\n        /* \"contracts/lottery.sol\":4738:4794  uint operatorPrize = playerPrizePool * operatorCut / 100 */\n      swap1\n      pop\n        /* \"contracts/lottery.sol\":4809:4825  uint winnerPrize */\n      0x00\n        /* \"contracts/lottery.sol\":4863:4876  operatorPrize */\n      dup2\n        /* \"contracts/lottery.sol\":4845:4860  playerPrizePool */\n      sload(0x02)\n        /* \"contracts/lottery.sol\":4828:4842  bonusPrizePool */\n      sload(0x03)\n        /* \"contracts/lottery.sol\":4828:4860  bonusPrizePool + playerPrizePool */\n      tag_143\n      swap2\n      swap1\n      tag_33\n      jump\t// in\n    tag_143:\n        /* \"contracts/lottery.sol\":4828:4876  bonusPrizePool + playerPrizePool - operatorPrize */\n      tag_144\n      swap2\n      swap1\n      tag_145\n      jump\t// in\n    tag_144:\n        /* \"contracts/lottery.sol\":4809:4876  uint winnerPrize = bonusPrizePool + playerPrizePool - operatorPrize */\n      swap1\n      pop\n        /* \"contracts/lottery.sol\":4909:4910  0 */\n      0x00\n        /* \"contracts/lottery.sol\":4891:4906  playerPrizePool */\n      0x02\n        /* \"contracts/lottery.sol\":4891:4910  playerPrizePool = 0 */\n      dup2\n      swap1\n      sstore\n      pop\n        /* \"contracts/lottery.sol\":4942:4943  0 */\n      0x00\n        /* \"contracts/lottery.sol\":4925:4939  bonusPrizePool */\n      0x03\n        /* \"contracts/lottery.sol\":4925:4943  bonusPrizePool = 0 */\n      dup2\n      swap1\n      sstore\n      pop\n        /* \"contracts/lottery.sol\":687:729  0xAb8483F64d9C6d1EcF9b849Ae677dD3315835cb2 */\n      0xab8483f64d9c6d1ecf9b849ae677dd3315835cb2\n        /* \"contracts/lottery.sol\":4958:4982  operatorAddress.transfer */\n      0xffffffffffffffffffffffffffffffffffffffff\n      and\n        /* \"contracts/lottery.sol\":4958:4997  operatorAddress.transfer(operatorPrize) */\n      0x08fc\n        /* \"contracts/lottery.sol\":4983:4996  operatorPrize */\n      dup4\n        /* \"contracts/lottery.sol\":4958:4997  operatorAddress.transfer(operatorPrize) */\n      swap1\n      dup2\n      iszero\n      mul\n      swap1\n      mload(0x40)\n      0x00\n      mload(0x40)\n      dup1\n      dup4\n      sub\n      dup2\n      dup6\n      dup9\n      dup9\n      call\n      swap4\n      pop\n      pop\n      pop\n      pop\n      iszero\n      dup1\n      iszero\n      tag_147\n      jumpi\n      returndatasize\n      0x00\n      dup1\n      returndatacopy\n      revert(0x00, returndatasize)\n    tag_147:\n      pop\n        /* \"contracts/lottery.sol\":5012:5026  winningAddress */\n      dup3\n        /* \"contracts/lottery.sol\":5012:5035  winningAddress.transfer */\n      0xffffffffffffffffffffffffffffffffffffffff\n      and\n        /* \"contracts/lottery.sol\":5012:5048  winningAddress.transfer(winnerPrize) */\n      0x08fc\n        /* \"contracts/lottery.sol\":5036:5047  winnerPrize */\n      dup3\n        /* \"contracts/lottery.sol\":5012:5048  winningAddress.transfer(winnerPrize) */\n      swap1\n      dup2\n      iszero\n      mul\n      swap1\n      mload(0x40)\n      0x00\n      mload(0x40)\n      dup1\n      dup4\n      sub\n      dup2\n      dup6\n      dup9\n      dup9\n      call\n      swap4\n      pop\n      pop\n      pop\n      pop\n      iszero\n      dup1\n      iszero\n      tag_149\n      jumpi\n      returndatasize\n      0x00\n      dup1\n      returndatacopy\n      revert(0x00, returndatasize)\n    tag_149:\n      pop\n        /* \"contracts/lottery.sol\":4621:5060  {... */\n      pop\n      pop\n        /* \"contracts/lottery.sol\":4509:5060  if(winningAddress == zeroAddress) {... */\n    tag_138:\n        /* \"contracts/lottery.sol\":4432:5067  {... */\n      pop\n        /* \"contracts/lottery.sol\":4403:5067  function endLottery() public {... */\n      jump\t// out\n        /* \"contracts/lottery.sol\":2028:2071  address payable[] public list_playerAddress */\n    tag_53:\n      0x05\n      dup2\n      dup2\n      sload\n      dup2\n      lt\n      tag_150\n      jumpi\n      0x00\n      dup1\n      revert\n    tag_150:\n      swap1\n      0x00\n      mstore\n      keccak256(0x00, 0x20)\n      add\n      0x00\n      swap2\n      pop\n      sload\n      swap1\n      0x0100\n      exp\n      swap1\n      div\n      0xffffffffffffffffffffffffffffffffffffffff\n      and\n      dup2\n      jump\t// out\n        /* \"contracts/lottery.sol\":7967:8537  function getExtraContractBalance() external view returns (uint) {... */\n    tag_58:\n        /* \"contracts/lottery.sol\":8025:8029  uint */\n      0x00\n        /* \"contracts/lottery.sol\":8429:8458  getAccountedContractBalance() */\n      tag_153\n        /* \"contracts/lottery.sol\":8429:8456  getAccountedContractBalance */\n      tag_109\n        /* \"contracts/lottery.sol\":8429:8458  getAccountedContractBalance() */\n      jump\t// in\n    tag_153:\n        /* \"contracts/lottery.sol\":8405:8425  getContractBalance() */\n      tag_154\n        /* \"contracts/lottery.sol\":8405:8423  getContractBalance */\n      tag_70\n        /* \"contracts/lottery.sol\":8405:8425  getContractBalance() */\n      jump\t// in\n    tag_154:\n        /* \"contracts/lottery.sol\":8405:8458  getContractBalance() >= getAccountedContractBalance() */\n      lt\n      iszero\n        /* \"contracts/lottery.sol\":8398:8459  assert(getContractBalance() >= getAccountedContractBalance()) */\n      tag_155\n      jumpi\n      tag_156\n      tag_157\n      jump\t// in\n    tag_156:\n    tag_155:\n        /* \"contracts/lottery.sol\":8500:8529  getAccountedContractBalance() */\n      tag_158\n        /* \"contracts/lottery.sol\":8500:8527  getAccountedContractBalance */\n      tag_109\n        /* \"contracts/lottery.sol\":8500:8529  getAccountedContractBalance() */\n      jump\t// in\n    tag_158:\n        /* \"contracts/lottery.sol\":8477:8497  getContractBalance() */\n      tag_159\n        /* \"contracts/lottery.sol\":8477:8495  getContractBalance */\n      tag_70\n        /* \"contracts/lottery.sol\":8477:8497  getContractBalance() */\n      jump\t// in\n    tag_159:\n        /* \"contracts/lottery.sol\":8477:8529  getContractBalance() - getAccountedContractBalance() */\n      tag_160\n      swap2\n      swap1\n      tag_145\n      jump\t// in\n    tag_160:\n        /* \"contracts/lottery.sol\":8470:8529  return getContractBalance() - getAccountedContractBalance() */\n      swap1\n      pop\n        /* \"contracts/lottery.sol\":7967:8537  function getExtraContractBalance() external view returns (uint) {... */\n      swap1\n      jump\t// out\n        /* \"contracts/lottery.sol\":5410:5551  function enableContract() public {... */\n    tag_62:\n        /* \"contracts/lottery.sol\":5539:5543  true */\n      0x01\n        /* \"contracts/lottery.sol\":5519:5536  isContractEnabled */\n      0x00\n      dup1\n        /* \"contracts/lottery.sol\":5519:5543  isContractEnabled = true */\n      0x0100\n      exp\n      dup2\n      sload\n      dup2\n      0xff\n      mul\n      not\n      and\n      swap1\n      dup4\n      iszero\n      iszero\n      mul\n      or\n      swap1\n      sstore\n      pop\n        /* \"contracts/lottery.sol\":5410:5551  function enableContract() public {... */\n      jump\t// out\n        /* \"contracts/lottery.sol\":6730:6930  function removeAllContractFunds() public {... */\n    tag_67:\n        /* \"contracts/lottery.sol\":6864:6865  0 */\n      0x00\n        /* \"contracts/lottery.sol\":6848:6861  contractFunds */\n      0x01\n        /* \"contracts/lottery.sol\":6848:6865  contractFunds = 0 */\n      dup2\n      swap1\n      sstore\n      pop\n        /* \"contracts/lottery.sol\":687:729  0xAb8483F64d9C6d1EcF9b849Ae677dD3315835cb2 */\n      0xab8483f64d9c6d1ecf9b849ae677dd3315835cb2\n        /* \"contracts/lottery.sol\":6876:6900  operatorAddress.transfer */\n      0xffffffffffffffffffffffffffffffffffffffff\n      and\n        /* \"contracts/lottery.sol\":6876:6922  operatorAddress.transfer(getContractBalance()) */\n      0x08fc\n        /* \"contracts/lottery.sol\":6901:6921  getContractBalance() */\n      tag_163\n        /* \"contracts/lottery.sol\":6901:6919  getContractBalance */\n      tag_70\n        /* \"contracts/lottery.sol\":6901:6921  getContractBalance() */\n      jump\t// in\n    tag_163:\n        /* \"contracts/lottery.sol\":6876:6922  operatorAddress.transfer(getContractBalance()) */\n      swap1\n      dup2\n      iszero\n      mul\n      swap1\n      mload(0x40)\n      0x00\n      mload(0x40)\n      dup1\n      dup4\n      sub\n      dup2\n      dup6\n      dup9\n      dup9\n      call\n      swap4\n      pop\n      pop\n      pop\n      pop\n      iszero\n      dup1\n      iszero\n      tag_165\n      jumpi\n      returndatasize\n      0x00\n      dup1\n      returndatacopy\n      revert(0x00, returndatasize)\n    tag_165:\n      pop\n        /* \"contracts/lottery.sol\":6730:6930  function removeAllContractFunds() public {... */\n      jump\t// out\n        /* \"contracts/lottery.sol\":7707:7811  function getContractBalance() public view returns (uint) {... */\n    tag_70:\n        /* \"contracts/lottery.sol\":7758:7762  uint */\n      0x00\n        /* \"contracts/lottery.sol\":7782:7803  address(this).balance */\n      selfbalance\n        /* \"contracts/lottery.sol\":7775:7803  return address(this).balance */\n      swap1\n      pop\n        /* \"contracts/lottery.sol\":7707:7811  function getContractBalance() public view returns (uint) {... */\n      swap1\n      jump\t// out\n        /* \"contracts/lottery.sol\":6938:7038  function getPlayerPrizePool() external view returns (uint) {... */\n    tag_74:\n        /* \"contracts/lottery.sol\":6991:6995  uint */\n      0x00\n        /* \"contracts/lottery.sol\":7015:7030  playerPrizePool */\n      sload(0x02)\n        /* \"contracts/lottery.sol\":7008:7030  return playerPrizePool */\n      swap1\n      pop\n        /* \"contracts/lottery.sol\":6938:7038  function getPlayerPrizePool() external view returns (uint) {... */\n      swap1\n      jump\t// out\n        /* \"contracts/lottery.sol\":3600:4395  function chooseWinningAddress() public view returns (address payable) {... */\n    tag_78:\n        /* \"contracts/lottery.sol\":3653:3668  address payable */\n      0x00\n        /* \"contracts/lottery.sol\":3681:3696  uint numPlayers */\n      dup1\n        /* \"contracts/lottery.sol\":3699:3717  list_playerAddress */\n      0x05\n        /* \"contracts/lottery.sol\":3699:3724  list_playerAddress.length */\n      dup1\n      sload\n      swap1\n      pop\n        /* \"contracts/lottery.sol\":3681:3724  uint numPlayers = list_playerAddress.length */\n      swap1\n      pop\n        /* \"contracts/lottery.sol\":3735:3746  uint winner */\n      0x00\n        /* \"contracts/lottery.sol\":3855:3856  0 */\n      dup1\n        /* \"contracts/lottery.sol\":3841:3851  numPlayers */\n      dup3\n        /* \"contracts/lottery.sol\":3841:3856  numPlayers == 0 */\n      sub\n        /* \"contracts/lottery.sol\":3838:4342  if(numPlayers == 0) {... */\n      tag_169\n      jumpi\n        /* \"contracts/lottery.sol\":908:950  0x0000000000000000000000000000000000000000 */\n      0x00\n        /* \"contracts/lottery.sol\":3942:3960  return zeroAddress */\n      swap3\n      pop\n      pop\n      pop\n      jump(tag_168)\n        /* \"contracts/lottery.sol\":3838:4342  if(numPlayers == 0) {... */\n    tag_169:\n        /* \"contracts/lottery.sol\":4004:4005  1 */\n      0x01\n        /* \"contracts/lottery.sol\":3990:4000  numPlayers */\n      dup3\n        /* \"contracts/lottery.sol\":3990:4005  numPlayers == 1 */\n      sub\n        /* \"contracts/lottery.sol\":3987:4342  if(numPlayers == 1) {... */\n      tag_171\n      jumpi\n        /* \"contracts/lottery.sol\":4134:4135  0 */\n      0x00\n        /* \"contracts/lottery.sol\":4125:4135  winner = 0 */\n      swap1\n      pop\n        /* \"contracts/lottery.sol\":3987:4342  if(numPlayers == 1) {... */\n      jump(tag_172)\n    tag_171:\n        /* \"contracts/lottery.sol\":4309:4330  randomInt(numPlayers) */\n      tag_173\n        /* \"contracts/lottery.sol\":4319:4329  numPlayers */\n      dup3\n        /* \"contracts/lottery.sol\":4309:4318  randomInt */\n      tag_44\n        /* \"contracts/lottery.sol\":4309:4330  randomInt(numPlayers) */\n      jump\t// in\n    tag_173:\n        /* \"contracts/lottery.sol\":4300:4330  winner = randomInt(numPlayers) */\n      swap1\n      pop\n        /* \"contracts/lottery.sol\":3987:4342  if(numPlayers == 1) {... */\n    tag_172:\n        /* \"contracts/lottery.sol\":4361:4379  list_playerAddress */\n      0x05\n        /* \"contracts/lottery.sol\":4380:4386  winner */\n      dup2\n        /* \"contracts/lottery.sol\":4361:4387  list_playerAddress[winner] */\n      dup2\n      sload\n      dup2\n      lt\n      tag_174\n      jumpi\n      tag_175\n      tag_176\n      jump\t// in\n    tag_175:\n    tag_174:\n      swap1\n      0x00\n      mstore\n      keccak256(0x00, 0x20)\n      add\n      0x00\n      swap1\n      sload\n      swap1\n      0x0100\n      exp\n      swap1\n      div\n      0xffffffffffffffffffffffffffffffffffffffff\n      and\n        /* \"contracts/lottery.sol\":4354:4387  return list_playerAddress[winner] */\n      swap3\n      pop\n      pop\n      pop\n        /* \"contracts/lottery.sol\":3600:4395  function chooseWinningAddress() public view returns (address payable) {... */\n    tag_168:\n      swap1\n      jump\t// out\n        /* \"contracts/lottery.sol\":5559:5703  function disableContract() public {... */\n    tag_82:\n        /* \"contracts/lottery.sol\":5690:5695  false */\n      0x00\n        /* \"contracts/lottery.sol\":5670:5687  isContractEnabled */\n      dup1\n      0x00\n        /* \"contracts/lottery.sol\":5670:5695  isContractEnabled = false */\n      0x0100\n      exp\n      dup2\n      sload\n      dup2\n      0xff\n      mul\n      not\n      and\n      swap1\n      dup4\n      iszero\n      iszero\n      mul\n      or\n      swap1\n      sstore\n      pop\n        /* \"contracts/lottery.sol\":5559:5703  function disableContract() public {... */\n      jump\t// out\n        /* \"contracts/lottery.sol\":3419:3592  function isAddressPlaying(address payable playerAddress) public view returns (bool) {... */\n    tag_87:\n        /* \"contracts/lottery.sol\":3497:3501  bool */\n      0x00\n        /* \"contracts/lottery.sol\":3514:3538  requireContractEnabled() */\n      tag_180\n        /* \"contracts/lottery.sol\":3514:3536  requireContractEnabled */\n      tag_31\n        /* \"contracts/lottery.sol\":3514:3538  requireContractEnabled() */\n      jump\t// in\n    tag_180:\n        /* \"contracts/lottery.sol\":3556:3569  map_isPlaying */\n      0x04\n        /* \"contracts/lottery.sol\":3556:3584  map_isPlaying[playerAddress] */\n      0x00\n        /* \"contracts/lottery.sol\":3570:3583  playerAddress */\n      dup4\n        /* \"contracts/lottery.sol\":3556:3584  map_isPlaying[playerAddress] */\n      0xffffffffffffffffffffffffffffffffffffffff\n      and\n      0xffffffffffffffffffffffffffffffffffffffff\n      and\n      dup2\n      mstore\n      0x20\n      add\n      swap1\n      dup2\n      mstore\n      0x20\n      add\n      0x00\n      keccak256\n      0x00\n      swap1\n      sload\n      swap1\n      0x0100\n      exp\n      swap1\n      div\n      0xff\n      and\n        /* \"contracts/lottery.sol\":3549:3584  return map_isPlaying[playerAddress] */\n      swap1\n      pop\n        /* \"contracts/lottery.sol\":3419:3592  function isAddressPlaying(address payable playerAddress) public view returns (bool) {... */\n      swap2\n      swap1\n      pop\n      jump\t// out\n        /* \"contracts/lottery.sol\":6306:6722  function removeContractFunds(uint amount) public {... */\n    tag_93:\n        /* \"contracts/lottery.sol\":6440:6452  uint balance */\n      0x00\n        /* \"contracts/lottery.sol\":6455:6475  getContractBalance() */\n      tag_182\n        /* \"contracts/lottery.sol\":6455:6473  getContractBalance */\n      tag_70\n        /* \"contracts/lottery.sol\":6455:6475  getContractBalance() */\n      jump\t// in\n    tag_182:\n        /* \"contracts/lottery.sol\":6440:6475  uint balance = getContractBalance() */\n      swap1\n      pop\n        /* \"contracts/lottery.sol\":6504:6511  balance */\n      dup1\n        /* \"contracts/lottery.sol\":6494:6500  amount */\n      dup3\n        /* \"contracts/lottery.sol\":6494:6511  amount <= balance */\n      gt\n      iszero\n        /* \"contracts/lottery.sol\":6542:6566  Strings.toString(amount) */\n      tag_183\n        /* \"contracts/lottery.sol\":6559:6565  amount */\n      dup4\n        /* \"contracts/lottery.sol\":6542:6558  Strings.toString */\n      tag_184\n        /* \"contracts/lottery.sol\":6542:6566  Strings.toString(amount) */\n      jump\t// in\n    tag_183:\n        /* \"contracts/lottery.sol\":6610:6635  Strings.toString(balance) */\n      tag_185\n        /* \"contracts/lottery.sol\":6627:6634  balance */\n      dup4\n        /* \"contracts/lottery.sol\":6610:6626  Strings.toString */\n      tag_184\n        /* \"contracts/lottery.sol\":6610:6635  Strings.toString(balance) */\n      jump\t// in\n    tag_185:\n        /* \"contracts/lottery.sol\":6513:6636  string.concat(\"The amount \", Strings.toString(amount), \" is greater than the contract balance \", Strings.toString(balance)) */\n      add(0x20, mload(0x40))\n      tag_186\n      swap3\n      swap2\n      swap1\n      tag_187\n      jump\t// in\n    tag_186:\n      mload(0x40)\n      0x20\n      dup2\n      dup4\n      sub\n      sub\n      dup2\n      mstore\n      swap1\n      0x40\n      mstore\n        /* \"contracts/lottery.sol\":6486:6637  require(amount <= balance, string.concat(\"The amount \", Strings.toString(amount), \" is greater than the contract balance \", Strings.toString(balance))) */\n      swap1\n      tag_188\n      jumpi\n      mload(0x40)\n      0x08c379a000000000000000000000000000000000000000000000000000000000\n      dup2\n      mstore\n      0x04\n      add\n      tag_189\n      swap2\n      swap1\n      tag_190\n      jump\t// in\n    tag_189:\n      mload(0x40)\n      dup1\n      swap2\n      sub\n      swap1\n      revert\n    tag_188:\n      pop\n        /* \"contracts/lottery.sol\":6665:6671  amount */\n      dup2\n        /* \"contracts/lottery.sol\":6648:6661  contractFunds */\n      0x01\n      0x00\n        /* \"contracts/lottery.sol\":6648:6671  contractFunds -= amount */\n      dup3\n      dup3\n      sload\n      tag_191\n      swap2\n      swap1\n      tag_145\n      jump\t// in\n    tag_191:\n      swap3\n      pop\n      pop\n      dup2\n      swap1\n      sstore\n      pop\n        /* \"contracts/lottery.sol\":687:729  0xAb8483F64d9C6d1EcF9b849Ae677dD3315835cb2 */\n      0xab8483f64d9c6d1ecf9b849ae677dd3315835cb2\n        /* \"contracts/lottery.sol\":6682:6706  operatorAddress.transfer */\n      0xffffffffffffffffffffffffffffffffffffffff\n      and\n        /* \"contracts/lottery.sol\":6682:6714  operatorAddress.transfer(amount) */\n      0x08fc\n        /* \"contracts/lottery.sol\":6707:6713  amount */\n      dup4\n        /* \"contracts/lottery.sol\":6682:6714  operatorAddress.transfer(amount) */\n      swap1\n      dup2\n      iszero\n      mul\n      swap1\n      mload(0x40)\n      0x00\n      mload(0x40)\n      dup1\n      dup4\n      sub\n      dup2\n      dup6\n      dup9\n      dup9\n      call\n      swap4\n      pop\n      pop\n      pop\n      pop\n      iszero\n      dup1\n      iszero\n      tag_193\n      jumpi\n      returndatasize\n      0x00\n      dup1\n      returndatacopy\n      revert(0x00, returndatasize)\n    tag_193:\n      pop\n        /* \"contracts/lottery.sol\":6355:6722  {... */\n      pop\n        /* \"contracts/lottery.sol\":6306:6722  function removeContractFunds(uint amount) public {... */\n      pop\n      jump\t// out\n        /* \"contracts/lottery.sol\":7560:7699  function addBonusPrizePool() external payable {... */\n    tag_95:\n        /* \"contracts/lottery.sol\":7682:7691  msg.value */\n      callvalue\n        /* \"contracts/lottery.sol\":7664:7678  bonusPrizePool */\n      0x03\n      0x00\n        /* \"contracts/lottery.sol\":7664:7691  bonusPrizePool += msg.value */\n      dup3\n      dup3\n      sload\n      tag_195\n      swap2\n      swap1\n      tag_33\n      jump\t// in\n    tag_195:\n      swap3\n      pop\n      pop\n      dup2\n      swap1\n      sstore\n      pop\n        /* \"contracts/lottery.sol\":7560:7699  function addBonusPrizePool() external payable {... */\n      jump\t// out\n        /* \"contracts/lottery.sol\":7046:7451  function fundLottery() external payable {... */\n    tag_100:\n        /* \"contracts/lottery.sol\":7331:7355  requireContractEnabled() */\n      tag_197\n        /* \"contracts/lottery.sol\":7331:7353  requireContractEnabled */\n      tag_31\n        /* \"contracts/lottery.sol\":7331:7355  requireContractEnabled() */\n      jump\t// in\n    tag_197:\n        /* \"contracts/lottery.sol\":7387:7396  msg.value */\n      callvalue\n        /* \"contracts/lottery.sol\":7368:7383  playerPrizePool */\n      0x02\n      0x00\n        /* \"contracts/lottery.sol\":7368:7396  playerPrizePool += msg.value */\n      dup3\n      dup3\n      sload\n      tag_198\n      swap2\n      swap1\n      tag_33\n      jump\t// in\n    tag_198:\n      swap3\n      pop\n      pop\n      dup2\n      swap1\n      sstore\n      pop\n        /* \"contracts/lottery.sol\":7407:7443  registerAddress(payable(msg.sender)) */\n      tag_199\n        /* \"contracts/lottery.sol\":7431:7441  msg.sender */\n      caller\n        /* \"contracts/lottery.sol\":7407:7422  registerAddress */\n      tag_37\n        /* \"contracts/lottery.sol\":7407:7443  registerAddress(payable(msg.sender)) */\n      jump\t// in\n    tag_199:\n        /* \"contracts/lottery.sol\":7046:7451  function fundLottery() external payable {... */\n      jump\t// out\n        /* \"contracts/lottery.sol\":1976:2021  mapping(address => bool) public map_isPlaying */\n    tag_105:\n      mstore(0x20, 0x04)\n      dup1\n      0x00\n      mstore\n      keccak256(0x00, 0x40)\n      0x00\n      swap2\n      pop\n      sload\n      swap1\n      0x0100\n      exp\n      swap1\n      div\n      0xff\n      and\n      dup2\n      jump\t// out\n        /* \"contracts/lottery.sol\":7819:7959  function getAccountedContractBalance() public view returns (uint) {... */\n    tag_109:\n        /* \"contracts/lottery.sol\":7879:7883  uint */\n      0x00\n        /* \"contracts/lottery.sol\":7937:7951  bonusPrizePool */\n      sload(0x03)\n        /* \"contracts/lottery.sol\":7919:7934  playerPrizePool */\n      sload(0x02)\n        /* \"contracts/lottery.sol\":7903:7916  contractFunds */\n      sload(0x01)\n        /* \"contracts/lottery.sol\":7903:7934  contractFunds + playerPrizePool */\n      tag_201\n      swap2\n      swap1\n      tag_33\n      jump\t// in\n    tag_201:\n        /* \"contracts/lottery.sol\":7903:7951  contractFunds + playerPrizePool + bonusPrizePool */\n      tag_202\n      swap2\n      swap1\n      tag_33\n      jump\t// in\n    tag_202:\n        /* \"contracts/lottery.sol\":7896:7951  return contractFunds + playerPrizePool + bonusPrizePool */\n      swap1\n      pop\n        /* \"contracts/lottery.sol\":7819:7959  function getAccountedContractBalance() public view returns (uint) {... */\n      swap1\n      jump\t// out\n        /* \"contracts/lottery.sol\":5903:5999  function getContractFunds() external view returns (uint) {... */\n    tag_113:\n        /* \"contracts/lottery.sol\":5954:5958  uint */\n      0x00\n        /* \"contracts/lottery.sol\":5978:5991  contractFunds */\n      sload(0x01)\n        /* \"contracts/lottery.sol\":5971:5991  return contractFunds */\n      swap1\n      pop\n        /* \"contracts/lottery.sol\":5903:5999  function getContractFunds() external view returns (uint) {... */\n      swap1\n      jump\t// out\n        /* \"contracts/lottery.sol\":7459:7552  function getBonusPrizePool() external returns (uint) {... */\n    tag_117:\n        /* \"contracts/lottery.sol\":7506:7510  uint */\n      0x00\n        /* \"contracts/lottery.sol\":7530:7544  bonusPrizePool */\n      sload(0x03)\n        /* \"contracts/lottery.sol\":7523:7544  return bonusPrizePool */\n      swap1\n      pop\n        /* \"contracts/lottery.sol\":7459:7552  function getBonusPrizePool() external returns (uint) {... */\n      swap1\n      jump\t// out\n        /* \"@openzeppelin/contracts/utils/Strings.sol\":392:1095  function toString(uint256 value) internal pure returns (string memory) {... */\n    tag_184:\n        /* \"@openzeppelin/contracts/utils/Strings.sol\":448:461  string memory */\n      0x60\n        /* \"@openzeppelin/contracts/utils/Strings.sol\":674:675  0 */\n      0x00\n        /* \"@openzeppelin/contracts/utils/Strings.sol\":665:670  value */\n      dup3\n        /* \"@openzeppelin/contracts/utils/Strings.sol\":665:675  value == 0 */\n      sub\n        /* \"@openzeppelin/contracts/utils/Strings.sol\":661:712  if (value == 0) {... */\n      tag_206\n      jumpi\n        /* \"@openzeppelin/contracts/utils/Strings.sol\":691:701  return \"0\" */\n      mload(0x40)\n      dup1\n      0x40\n      add\n      0x40\n      mstore\n      dup1\n      0x01\n      dup2\n      mstore\n      0x20\n      add\n      0x3000000000000000000000000000000000000000000000000000000000000000\n      dup2\n      mstore\n      pop\n      swap1\n      pop\n      jump(tag_205)\n        /* \"@openzeppelin/contracts/utils/Strings.sol\":661:712  if (value == 0) {... */\n    tag_206:\n        /* \"@openzeppelin/contracts/utils/Strings.sol\":721:733  uint256 temp */\n      0x00\n        /* \"@openzeppelin/contracts/utils/Strings.sol\":736:741  value */\n      dup3\n        /* \"@openzeppelin/contracts/utils/Strings.sol\":721:741  uint256 temp = value */\n      swap1\n      pop\n        /* \"@openzeppelin/contracts/utils/Strings.sol\":751:765  uint256 digits */\n      0x00\n        /* \"@openzeppelin/contracts/utils/Strings.sol\":775:850  while (temp != 0) {... */\n    tag_207:\n        /* \"@openzeppelin/contracts/utils/Strings.sol\":790:791  0 */\n      0x00\n        /* \"@openzeppelin/contracts/utils/Strings.sol\":782:786  temp */\n      dup3\n        /* \"@openzeppelin/contracts/utils/Strings.sol\":782:791  temp != 0 */\n      eq\n        /* \"@openzeppelin/contracts/utils/Strings.sol\":775:850  while (temp != 0) {... */\n      tag_208\n      jumpi\n        /* \"@openzeppelin/contracts/utils/Strings.sol\":807:815  digits++ */\n      dup1\n      dup1\n      tag_209\n      swap1\n      tag_210\n      jump\t// in\n    tag_209:\n      swap2\n      pop\n      pop\n        /* \"@openzeppelin/contracts/utils/Strings.sol\":837:839  10 */\n      0x0a\n        /* \"@openzeppelin/contracts/utils/Strings.sol\":829:839  temp /= 10 */\n      dup3\n      tag_211\n      swap2\n      swap1\n      tag_142\n      jump\t// in\n    tag_211:\n      swap2\n      pop\n        /* \"@openzeppelin/contracts/utils/Strings.sol\":775:850  while (temp != 0) {... */\n      jump(tag_207)\n    tag_208:\n        /* \"@openzeppelin/contracts/utils/Strings.sol\":859:878  bytes memory buffer */\n      0x00\n        /* \"@openzeppelin/contracts/utils/Strings.sol\":891:897  digits */\n      dup2\n        /* \"@openzeppelin/contracts/utils/Strings.sol\":881:898  new bytes(digits) */\n      0xffffffffffffffff\n      dup2\n      gt\n      iszero\n      tag_212\n      jumpi\n      tag_213\n      tag_214\n      jump\t// in\n    tag_213:\n    tag_212:\n      mload(0x40)\n      swap1\n      dup1\n      dup3\n      mstore\n      dup1\n      0x1f\n      add\n      not(0x1f)\n      and\n      0x20\n      add\n      dup3\n      add\n      0x40\n      mstore\n      dup1\n      iszero\n      tag_215\n      jumpi\n      dup2\n      0x20\n      add\n      0x01\n      dup3\n      mul\n      dup1\n      calldatasize\n      dup4\n      calldatacopy\n      dup1\n      dup3\n      add\n      swap2\n      pop\n      pop\n      swap1\n      pop\n    tag_215:\n      pop\n        /* \"@openzeppelin/contracts/utils/Strings.sol\":859:898  bytes memory buffer = new bytes(digits) */\n      swap1\n      pop\n        /* \"@openzeppelin/contracts/utils/Strings.sol\":908:1058  while (value != 0) {... */\n    tag_216:\n        /* \"@openzeppelin/contracts/utils/Strings.sol\":924:925  0 */\n      0x00\n        /* \"@openzeppelin/contracts/utils/Strings.sol\":915:920  value */\n      dup6\n        /* \"@openzeppelin/contracts/utils/Strings.sol\":915:925  value != 0 */\n      eq\n        /* \"@openzeppelin/contracts/utils/Strings.sol\":908:1058  while (value != 0) {... */\n      tag_217\n      jumpi\n        /* \"@openzeppelin/contracts/utils/Strings.sol\":951:952  1 */\n      0x01\n        /* \"@openzeppelin/contracts/utils/Strings.sol\":941:952  digits -= 1 */\n      dup3\n      tag_218\n      swap2\n      swap1\n      tag_145\n      jump\t// in\n    tag_218:\n      swap2\n      pop\n        /* \"@openzeppelin/contracts/utils/Strings.sol\":1017:1019  10 */\n      0x0a\n        /* \"@openzeppelin/contracts/utils/Strings.sol\":1009:1014  value */\n      dup6\n        /* \"@openzeppelin/contracts/utils/Strings.sol\":1009:1019  value % 10 */\n      tag_219\n      swap2\n      swap1\n      tag_134\n      jump\t// in\n    tag_219:\n        /* \"@openzeppelin/contracts/utils/Strings.sol\":996:998  48 */\n      0x30\n        /* \"@openzeppelin/contracts/utils/Strings.sol\":996:1020  48 + uint256(value % 10) */\n      tag_220\n      swap2\n      swap1\n      tag_33\n      jump\t// in\n    tag_220:\n        /* \"@openzeppelin/contracts/utils/Strings.sol\":983:1022  bytes1(uint8(48 + uint256(value % 10))) */\n      0xf8\n      shl\n        /* \"@openzeppelin/contracts/utils/Strings.sol\":966:972  buffer */\n      dup2\n        /* \"@openzeppelin/contracts/utils/Strings.sol\":973:979  digits */\n      dup4\n        /* \"@openzeppelin/contracts/utils/Strings.sol\":966:980  buffer[digits] */\n      dup2\n      mload\n      dup2\n      lt\n      tag_221\n      jumpi\n      tag_222\n      tag_176\n      jump\t// in\n    tag_222:\n    tag_221:\n      0x20\n      add\n      add\n        /* \"@openzeppelin/contracts/utils/Strings.sol\":966:1022  buffer[digits] = bytes1(uint8(48 + uint256(value % 10))) */\n      swap1\n      not(0xffffffffffffffffffffffffffffffffffffffffffffffffffffffffffffff)\n      and\n      swap1\n      dup2\n      0x00\n      byte\n      swap1\n      mstore8\n      pop\n        /* \"@openzeppelin/contracts/utils/Strings.sol\":1045:1047  10 */\n      0x0a\n        /* \"@openzeppelin/contracts/utils/Strings.sol\":1036:1047  value /= 10 */\n      dup6\n      tag_223\n      swap2\n      swap1\n      tag_142\n      jump\t// in\n    tag_223:\n      swap5\n      pop\n        /* \"@openzeppelin/contracts/utils/Strings.sol\":908:1058  while (value != 0) {... */\n      jump(tag_216)\n    tag_217:\n        /* \"@openzeppelin/contracts/utils/Strings.sol\":1081:1087  buffer */\n      dup1\n        /* \"@openzeppelin/contracts/utils/Strings.sol\":1067:1088  return string(buffer) */\n      swap4\n      pop\n      pop\n      pop\n      pop\n        /* \"@openzeppelin/contracts/utils/Strings.sol\":392:1095  function toString(uint256 value) internal pure returns (string memory) {... */\n    tag_205:\n      swap2\n      swap1\n      pop\n      jump\t// out\n        /* \"#utility.yul\":7:84   */\n    tag_224:\n        /* \"#utility.yul\":44:51   */\n      0x00\n        /* \"#utility.yul\":73:78   */\n      dup2\n        /* \"#utility.yul\":62:78   */\n      swap1\n      pop\n        /* \"#utility.yul\":7:84   */\n      swap2\n      swap1\n      pop\n      jump\t// out\n        /* \"#utility.yul\":90:270   */\n    tag_225:\n        /* \"#utility.yul\":138:215   */\n      0x4e487b7100000000000000000000000000000000000000000000000000000000\n        /* \"#utility.yul\":135:136   */\n      0x00\n        /* \"#utility.yul\":128:216   */\n      mstore\n        /* \"#utility.yul\":235:239   */\n      0x11\n        /* \"#utility.yul\":232:233   */\n      0x04\n        /* \"#utility.yul\":225:240   */\n      mstore\n        /* \"#utility.yul\":259:263   */\n      0x24\n        /* \"#utility.yul\":256:257   */\n      0x00\n        /* \"#utility.yul\":249:264   */\n      revert\n        /* \"#utility.yul\":276:467   */\n    tag_33:\n        /* \"#utility.yul\":316:319   */\n      0x00\n        /* \"#utility.yul\":335:355   */\n      tag_263\n        /* \"#utility.yul\":353:354   */\n      dup3\n        /* \"#utility.yul\":335:355   */\n      tag_224\n      jump\t// in\n    tag_263:\n        /* \"#utility.yul\":330:355   */\n      swap2\n      pop\n        /* \"#utility.yul\":369:389   */\n      tag_264\n        /* \"#utility.yul\":387:388   */\n      dup4\n        /* \"#utility.yul\":369:389   */\n      tag_224\n      jump\t// in\n    tag_264:\n        /* \"#utility.yul\":364:389   */\n      swap3\n      pop\n        /* \"#utility.yul\":412:413   */\n      dup3\n        /* \"#utility.yul\":409:410   */\n      dup3\n        /* \"#utility.yul\":405:414   */\n      add\n        /* \"#utility.yul\":398:414   */\n      swap1\n      pop\n        /* \"#utility.yul\":433:436   */\n      dup1\n        /* \"#utility.yul\":430:431   */\n      dup3\n        /* \"#utility.yul\":427:437   */\n      gt\n        /* \"#utility.yul\":424:460   */\n      iszero\n      tag_265\n      jumpi\n        /* \"#utility.yul\":440:458   */\n      tag_266\n      tag_225\n      jump\t// in\n    tag_266:\n        /* \"#utility.yul\":424:460   */\n    tag_265:\n        /* \"#utility.yul\":276:467   */\n      swap3\n      swap2\n      pop\n      pop\n      jump\t// out\n        /* \"#utility.yul\":554:671   */\n    tag_227:\n        /* \"#utility.yul\":663:664   */\n      0x00\n        /* \"#utility.yul\":660:661   */\n      dup1\n        /* \"#utility.yul\":653:665   */\n      revert\n        /* \"#utility.yul\":800:922   */\n    tag_229:\n        /* \"#utility.yul\":873:897   */\n      tag_271\n        /* \"#utility.yul\":891:896   */\n      dup2\n        /* \"#utility.yul\":873:897   */\n      tag_224\n      jump\t// in\n    tag_271:\n        /* \"#utility.yul\":866:871   */\n      dup2\n        /* \"#utility.yul\":863:898   */\n      eq\n        /* \"#utility.yul\":853:916   */\n      tag_272\n      jumpi\n        /* \"#utility.yul\":912:913   */\n      0x00\n        /* \"#utility.yul\":909:910   */\n      dup1\n        /* \"#utility.yul\":902:914   */\n      revert\n        /* \"#utility.yul\":853:916   */\n    tag_272:\n        /* \"#utility.yul\":800:922   */\n      pop\n      jump\t// out\n        /* \"#utility.yul\":928:1067   */\n    tag_230:\n        /* \"#utility.yul\":974:979   */\n      0x00\n        /* \"#utility.yul\":1012:1018   */\n      dup2\n        /* \"#utility.yul\":999:1019   */\n      calldataload\n        /* \"#utility.yul\":990:1019   */\n      swap1\n      pop\n        /* \"#utility.yul\":1028:1061   */\n      tag_274\n        /* \"#utility.yul\":1055:1060   */\n      dup2\n        /* \"#utility.yul\":1028:1061   */\n      tag_229\n      jump\t// in\n    tag_274:\n        /* \"#utility.yul\":928:1067   */\n      swap3\n      swap2\n      pop\n      pop\n      jump\t// out\n        /* \"#utility.yul\":1073:1402   */\n    tag_43:\n        /* \"#utility.yul\":1132:1138   */\n      0x00\n        /* \"#utility.yul\":1181:1183   */\n      0x20\n        /* \"#utility.yul\":1169:1178   */\n      dup3\n        /* \"#utility.yul\":1160:1167   */\n      dup5\n        /* \"#utility.yul\":1156:1179   */\n      sub\n        /* \"#utility.yul\":1152:1184   */\n      slt\n        /* \"#utility.yul\":1149:1268   */\n      iszero\n      tag_276\n      jumpi\n        /* \"#utility.yul\":1187:1266   */\n      tag_277\n      tag_227\n      jump\t// in\n    tag_277:\n        /* \"#utility.yul\":1149:1268   */\n    tag_276:\n        /* \"#utility.yul\":1307:1308   */\n      0x00\n        /* \"#utility.yul\":1332:1385   */\n      tag_278\n        /* \"#utility.yul\":1377:1384   */\n      dup5\n        /* \"#utility.yul\":1368:1374   */\n      dup3\n        /* \"#utility.yul\":1357:1366   */\n      dup6\n        /* \"#utility.yul\":1353:1375   */\n      add\n        /* \"#utility.yul\":1332:1385   */\n      tag_230\n      jump\t// in\n    tag_278:\n        /* \"#utility.yul\":1322:1385   */\n      swap2\n      pop\n        /* \"#utility.yul\":1278:1395   */\n      pop\n        /* \"#utility.yul\":1073:1402   */\n      swap3\n      swap2\n      pop\n      pop\n      jump\t// out\n        /* \"#utility.yul\":1408:1526   */\n    tag_231:\n        /* \"#utility.yul\":1495:1519   */\n      tag_280\n        /* \"#utility.yul\":1513:1518   */\n      dup2\n        /* \"#utility.yul\":1495:1519   */\n      tag_224\n      jump\t// in\n    tag_280:\n        /* \"#utility.yul\":1490:1493   */\n      dup3\n        /* \"#utility.yul\":1483:1520   */\n      mstore\n        /* \"#utility.yul\":1408:1526   */\n      pop\n      pop\n      jump\t// out\n        /* \"#utility.yul\":1532:1754   */\n    tag_46:\n        /* \"#utility.yul\":1625:1629   */\n      0x00\n        /* \"#utility.yul\":1663:1665   */\n      0x20\n        /* \"#utility.yul\":1652:1661   */\n      dup3\n        /* \"#utility.yul\":1648:1666   */\n      add\n        /* \"#utility.yul\":1640:1666   */\n      swap1\n      pop\n        /* \"#utility.yul\":1676:1747   */\n      tag_282\n        /* \"#utility.yul\":1744:1745   */\n      0x00\n        /* \"#utility.yul\":1733:1742   */\n      dup4\n        /* \"#utility.yul\":1729:1746   */\n      add\n        /* \"#utility.yul\":1720:1726   */\n      dup5\n        /* \"#utility.yul\":1676:1747   */\n      tag_231\n      jump\t// in\n    tag_282:\n        /* \"#utility.yul\":1532:1754   */\n      swap3\n      swap2\n      pop\n      pop\n      jump\t// out\n        /* \"#utility.yul\":1760:1886   */\n    tag_232:\n        /* \"#utility.yul\":1797:1804   */\n      0x00\n        /* \"#utility.yul\":1837:1879   */\n      0xffffffffffffffffffffffffffffffffffffffff\n        /* \"#utility.yul\":1830:1835   */\n      dup3\n        /* \"#utility.yul\":1826:1880   */\n      and\n        /* \"#utility.yul\":1815:1880   */\n      swap1\n      pop\n        /* \"#utility.yul\":1760:1886   */\n      swap2\n      swap1\n      pop\n      jump\t// out\n        /* \"#utility.yul\":1892:1996   */\n    tag_233:\n        /* \"#utility.yul\":1937:1944   */\n      0x00\n        /* \"#utility.yul\":1966:1990   */\n      tag_285\n        /* \"#utility.yul\":1984:1989   */\n      dup3\n        /* \"#utility.yul\":1966:1990   */\n      tag_232\n      jump\t// in\n    tag_285:\n        /* \"#utility.yul\":1955:1990   */\n      swap1\n      pop\n        /* \"#utility.yul\":1892:1996   */\n      swap2\n      swap1\n      pop\n      jump\t// out\n        /* \"#utility.yul\":2002:2144   */\n    tag_234:\n        /* \"#utility.yul\":2105:2137   */\n      tag_287\n        /* \"#utility.yul\":2131:2136   */\n      dup2\n        /* \"#utility.yul\":2105:2137   */\n      tag_233\n      jump\t// in\n    tag_287:\n        /* \"#utility.yul\":2100:2103   */\n      dup3\n        /* \"#utility.yul\":2093:2138   */\n      mstore\n        /* \"#utility.yul\":2002:2144   */\n      pop\n      pop\n      jump\t// out\n        /* \"#utility.yul\":2150:2404   */\n    tag_55:\n        /* \"#utility.yul\":2259:2263   */\n      0x00\n        /* \"#utility.yul\":2297:2299   */\n      0x20\n        /* \"#utility.yul\":2286:2295   */\n      dup3\n        /* \"#utility.yul\":2282:2300   */\n      add\n        /* \"#utility.yul\":2274:2300   */\n      swap1\n      pop\n        /* \"#utility.yul\":2310:2397   */\n      tag_289\n        /* \"#utility.yul\":2394:2395   */\n      0x00\n        /* \"#utility.yul\":2383:2392   */\n      dup4\n        /* \"#utility.yul\":2379:2396   */\n      add\n        /* \"#utility.yul\":2370:2376   */\n      dup5\n        /* \"#utility.yul\":2310:2397   */\n      tag_234\n      jump\t// in\n    tag_289:\n        /* \"#utility.yul\":2150:2404   */\n      swap3\n      swap2\n      pop\n      pop\n      jump\t// out\n        /* \"#utility.yul\":2410:2548   */\n    tag_235:\n        /* \"#utility.yul\":2491:2523   */\n      tag_291\n        /* \"#utility.yul\":2517:2522   */\n      dup2\n        /* \"#utility.yul\":2491:2523   */\n      tag_233\n      jump\t// in\n    tag_291:\n        /* \"#utility.yul\":2484:2489   */\n      dup2\n        /* \"#utility.yul\":2481:2524   */\n      eq\n        /* \"#utility.yul\":2471:2542   */\n      tag_292\n      jumpi\n        /* \"#utility.yul\":2538:2539   */\n      0x00\n        /* \"#utility.yul\":2535:2536   */\n      dup1\n        /* \"#utility.yul\":2528:2540   */\n      revert\n        /* \"#utility.yul\":2471:2542   */\n    tag_292:\n        /* \"#utility.yul\":2410:2548   */\n      pop\n      jump\t// out\n        /* \"#utility.yul\":2554:2709   */\n    tag_236:\n        /* \"#utility.yul\":2608:2613   */\n      0x00\n        /* \"#utility.yul\":2646:2652   */\n      dup2\n        /* \"#utility.yul\":2633:2653   */\n      calldataload\n        /* \"#utility.yul\":2624:2653   */\n      swap1\n      pop\n        /* \"#utility.yul\":2662:2703   */\n      tag_294\n        /* \"#utility.yul\":2697:2702   */\n      dup2\n        /* \"#utility.yul\":2662:2703   */\n      tag_235\n      jump\t// in\n    tag_294:\n        /* \"#utility.yul\":2554:2709   */\n      swap3\n      swap2\n      pop\n      pop\n      jump\t// out\n        /* \"#utility.yul\":2715:3060   */\n    tag_86:\n        /* \"#utility.yul\":2782:2788   */\n      0x00\n        /* \"#utility.yul\":2831:2833   */\n      0x20\n        /* \"#utility.yul\":2819:2828   */\n      dup3\n        /* \"#utility.yul\":2810:2817   */\n      dup5\n        /* \"#utility.yul\":2806:2829   */\n      sub\n        /* \"#utility.yul\":2802:2834   */\n      slt\n        /* \"#utility.yul\":2799:2918   */\n      iszero\n      tag_296\n      jumpi\n        /* \"#utility.yul\":2837:2916   */\n      tag_297\n      tag_227\n      jump\t// in\n    tag_297:\n        /* \"#utility.yul\":2799:2918   */\n    tag_296:\n        /* \"#utility.yul\":2957:2958   */\n      0x00\n        /* \"#utility.yul\":2982:3043   */\n      tag_298\n        /* \"#utility.yul\":3035:3042   */\n      dup5\n        /* \"#utility.yul\":3026:3032   */\n      dup3\n        /* \"#utility.yul\":3015:3024   */\n      dup6\n        /* \"#utility.yul\":3011:3033   */\n      add\n        /* \"#utility.yul\":2982:3043   */\n      tag_236\n      jump\t// in\n    tag_298:\n        /* \"#utility.yul\":2972:3043   */\n      swap2\n      pop\n        /* \"#utility.yul\":2928:3053   */\n      pop\n        /* \"#utility.yul\":2715:3060   */\n      swap3\n      swap2\n      pop\n      pop\n      jump\t// out\n        /* \"#utility.yul\":3066:3156   */\n    tag_237:\n        /* \"#utility.yul\":3100:3107   */\n      0x00\n        /* \"#utility.yul\":3143:3148   */\n      dup2\n        /* \"#utility.yul\":3136:3149   */\n      iszero\n        /* \"#utility.yul\":3129:3150   */\n      iszero\n        /* \"#utility.yul\":3118:3150   */\n      swap1\n      pop\n        /* \"#utility.yul\":3066:3156   */\n      swap2\n      swap1\n      pop\n      jump\t// out\n        /* \"#utility.yul\":3162:3271   */\n    tag_238:\n        /* \"#utility.yul\":3243:3264   */\n      tag_301\n        /* \"#utility.yul\":3258:3263   */\n      dup2\n        /* \"#utility.yul\":3243:3264   */\n      tag_237\n      jump\t// in\n    tag_301:\n        /* \"#utility.yul\":3238:3241   */\n      dup3\n        /* \"#utility.yul\":3231:3265   */\n      mstore\n        /* \"#utility.yul\":3162:3271   */\n      pop\n      pop\n      jump\t// out\n        /* \"#utility.yul\":3277:3487   */\n    tag_89:\n        /* \"#utility.yul\":3364:3368   */\n      0x00\n        /* \"#utility.yul\":3402:3404   */\n      0x20\n        /* \"#utility.yul\":3391:3400   */\n      dup3\n        /* \"#utility.yul\":3387:3405   */\n      add\n        /* \"#utility.yul\":3379:3405   */\n      swap1\n      pop\n        /* \"#utility.yul\":3415:3480   */\n      tag_303\n        /* \"#utility.yul\":3477:3478   */\n      0x00\n        /* \"#utility.yul\":3466:3475   */\n      dup4\n        /* \"#utility.yul\":3462:3479   */\n      add\n        /* \"#utility.yul\":3453:3459   */\n      dup5\n        /* \"#utility.yul\":3415:3480   */\n      tag_238\n      jump\t// in\n    tag_303:\n        /* \"#utility.yul\":3277:3487   */\n      swap3\n      swap2\n      pop\n      pop\n      jump\t// out\n        /* \"#utility.yul\":3493:3589   */\n    tag_239:\n        /* \"#utility.yul\":3530:3537   */\n      0x00\n        /* \"#utility.yul\":3559:3583   */\n      tag_305\n        /* \"#utility.yul\":3577:3582   */\n      dup3\n        /* \"#utility.yul\":3559:3583   */\n      tag_232\n      jump\t// in\n    tag_305:\n        /* \"#utility.yul\":3548:3583   */\n      swap1\n      pop\n        /* \"#utility.yul\":3493:3589   */\n      swap2\n      swap1\n      pop\n      jump\t// out\n        /* \"#utility.yul\":3595:3717   */\n    tag_240:\n        /* \"#utility.yul\":3668:3692   */\n      tag_307\n        /* \"#utility.yul\":3686:3691   */\n      dup2\n        /* \"#utility.yul\":3668:3692   */\n      tag_239\n      jump\t// in\n    tag_307:\n        /* \"#utility.yul\":3661:3666   */\n      dup2\n        /* \"#utility.yul\":3658:3693   */\n      eq\n        /* \"#utility.yul\":3648:3711   */\n      tag_308\n      jumpi\n        /* \"#utility.yul\":3707:3708   */\n      0x00\n        /* \"#utility.yul\":3704:3705   */\n      dup1\n        /* \"#utility.yul\":3697:3709   */\n      revert\n        /* \"#utility.yul\":3648:3711   */\n    tag_308:\n        /* \"#utility.yul\":3595:3717   */\n      pop\n      jump\t// out\n        /* \"#utility.yul\":3723:3862   */\n    tag_241:\n        /* \"#utility.yul\":3769:3774   */\n      0x00\n        /* \"#utility.yul\":3807:3813   */\n      dup2\n        /* \"#utility.yul\":3794:3814   */\n      calldataload\n        /* \"#utility.yul\":3785:3814   */\n      swap1\n      pop\n        /* \"#utility.yul\":3823:3856   */\n      tag_310\n        /* \"#utility.yul\":3850:3855   */\n      dup2\n        /* \"#utility.yul\":3823:3856   */\n      tag_240\n      jump\t// in\n    tag_310:\n        /* \"#utility.yul\":3723:3862   */\n      swap3\n      swap2\n      pop\n      pop\n      jump\t// out\n        /* \"#utility.yul\":3868:4197   */\n    tag_104:\n        /* \"#utility.yul\":3927:3933   */\n      0x00\n        /* \"#utility.yul\":3976:3978   */\n      0x20\n        /* \"#utility.yul\":3964:3973   */\n      dup3\n        /* \"#utility.yul\":3955:3962   */\n      dup5\n        /* \"#utility.yul\":3951:3974   */\n      sub\n        /* \"#utility.yul\":3947:3979   */\n      slt\n        /* \"#utility.yul\":3944:4063   */\n      iszero\n      tag_312\n      jumpi\n        /* \"#utility.yul\":3982:4061   */\n      tag_313\n      tag_227\n      jump\t// in\n    tag_313:\n        /* \"#utility.yul\":3944:4063   */\n    tag_312:\n        /* \"#utility.yul\":4102:4103   */\n      0x00\n        /* \"#utility.yul\":4127:4180   */\n      tag_314\n        /* \"#utility.yul\":4172:4179   */\n      dup5\n        /* \"#utility.yul\":4163:4169   */\n      dup3\n        /* \"#utility.yul\":4152:4161   */\n      dup6\n        /* \"#utility.yul\":4148:4170   */\n      add\n        /* \"#utility.yul\":4127:4180   */\n      tag_241\n      jump\t// in\n    tag_314:\n        /* \"#utility.yul\":4117:4180   */\n      swap2\n      pop\n        /* \"#utility.yul\":4073:4190   */\n      pop\n        /* \"#utility.yul\":3868:4197   */\n      swap3\n      swap2\n      pop\n      pop\n      jump\t// out\n        /* \"#utility.yul\":4203:4372   */\n    tag_242:\n        /* \"#utility.yul\":4287:4298   */\n      0x00\n        /* \"#utility.yul\":4321:4327   */\n      dup3\n        /* \"#utility.yul\":4316:4319   */\n      dup3\n        /* \"#utility.yul\":4309:4328   */\n      mstore\n        /* \"#utility.yul\":4361:4365   */\n      0x20\n        /* \"#utility.yul\":4356:4359   */\n      dup3\n        /* \"#utility.yul\":4352:4366   */\n      add\n        /* \"#utility.yul\":4337:4366   */\n      swap1\n      pop\n        /* \"#utility.yul\":4203:4372   */\n      swap3\n      swap2\n      pop\n      pop\n      jump\t// out\n        /* \"#utility.yul\":4378:4601   */\n    tag_243:\n        /* \"#utility.yul\":4518:4552   */\n      0x5468697320636f6e74726163742069732063757272656e746c79206469736162\n        /* \"#utility.yul\":4514:4515   */\n      0x00\n        /* \"#utility.yul\":4506:4512   */\n      dup3\n        /* \"#utility.yul\":4502:4516   */\n      add\n        /* \"#utility.yul\":4495:4553   */\n      mstore\n        /* \"#utility.yul\":4587:4593   */\n      0x6c65642e00000000000000000000000000000000000000000000000000000000\n        /* \"#utility.yul\":4582:4584   */\n      0x20\n        /* \"#utility.yul\":4574:4580   */\n      dup3\n        /* \"#utility.yul\":4570:4585   */\n      add\n        /* \"#utility.yul\":4563:4594   */\n      mstore\n        /* \"#utility.yul\":4378:4601   */\n      pop\n      jump\t// out\n        /* \"#utility.yul\":4607:4973   */\n    tag_244:\n        /* \"#utility.yul\":4749:4752   */\n      0x00\n        /* \"#utility.yul\":4770:4837   */\n      tag_318\n        /* \"#utility.yul\":4834:4836   */\n      0x24\n        /* \"#utility.yul\":4829:4832   */\n      dup4\n        /* \"#utility.yul\":4770:4837   */\n      tag_242\n      jump\t// in\n    tag_318:\n        /* \"#utility.yul\":4763:4837   */\n      swap2\n      pop\n        /* \"#utility.yul\":4846:4939   */\n      tag_319\n        /* \"#utility.yul\":4935:4938   */\n      dup3\n        /* \"#utility.yul\":4846:4939   */\n      tag_243\n      jump\t// in\n    tag_319:\n        /* \"#utility.yul\":4964:4966   */\n      0x40\n        /* \"#utility.yul\":4959:4962   */\n      dup3\n        /* \"#utility.yul\":4955:4967   */\n      add\n        /* \"#utility.yul\":4948:4967   */\n      swap1\n      pop\n        /* \"#utility.yul\":4607:4973   */\n      swap2\n      swap1\n      pop\n      jump\t// out\n        /* \"#utility.yul\":4979:5398   */\n    tag_122:\n        /* \"#utility.yul\":5145:5149   */\n      0x00\n        /* \"#utility.yul\":5183:5185   */\n      0x20\n        /* \"#utility.yul\":5172:5181   */\n      dup3\n        /* \"#utility.yul\":5168:5186   */\n      add\n        /* \"#utility.yul\":5160:5186   */\n      swap1\n      pop\n        /* \"#utility.yul\":5232:5241   */\n      dup2\n        /* \"#utility.yul\":5226:5230   */\n      dup2\n        /* \"#utility.yul\":5222:5242   */\n      sub\n        /* \"#utility.yul\":5218:5219   */\n      0x00\n        /* \"#utility.yul\":5207:5216   */\n      dup4\n        /* \"#utility.yul\":5203:5220   */\n      add\n        /* \"#utility.yul\":5196:5243   */\n      mstore\n        /* \"#utility.yul\":5260:5391   */\n      tag_321\n        /* \"#utility.yul\":5386:5390   */\n      dup2\n        /* \"#utility.yul\":5260:5391   */\n      tag_244\n      jump\t// in\n    tag_321:\n        /* \"#utility.yul\":5252:5391   */\n      swap1\n      pop\n        /* \"#utility.yul\":4979:5398   */\n      swap2\n      swap1\n      pop\n      jump\t// out\n        /* \"#utility.yul\":5404:5636   */\n    tag_245:\n        /* \"#utility.yul\":5544:5578   */\n      0x5468697320616464726573732068617320616c726561647920656e7465726564\n        /* \"#utility.yul\":5540:5541   */\n      0x00\n        /* \"#utility.yul\":5532:5538   */\n      dup3\n        /* \"#utility.yul\":5528:5542   */\n      add\n        /* \"#utility.yul\":5521:5579   */\n      mstore\n        /* \"#utility.yul\":5613:5628   */\n      0x20746865206c6f74746572792e00000000000000000000000000000000000000\n        /* \"#utility.yul\":5608:5610   */\n      0x20\n        /* \"#utility.yul\":5600:5606   */\n      dup3\n        /* \"#utility.yul\":5596:5611   */\n      add\n        /* \"#utility.yul\":5589:5629   */\n      mstore\n        /* \"#utility.yul\":5404:5636   */\n      pop\n      jump\t// out\n        /* \"#utility.yul\":5642:6008   */\n    tag_246:\n        /* \"#utility.yul\":5784:5787   */\n      0x00\n        /* \"#utility.yul\":5805:5872   */\n      tag_324\n        /* \"#utility.yul\":5869:5871   */\n      0x2d\n        /* \"#utility.yul\":5864:5867   */\n      dup4\n        /* \"#utility.yul\":5805:5872   */\n      tag_242\n      jump\t// in\n    tag_324:\n        /* \"#utility.yul\":5798:5872   */\n      swap2\n      pop\n        /* \"#utility.yul\":5881:5974   */\n      tag_325\n        /* \"#utility.yul\":5970:5973   */\n      dup3\n        /* \"#utility.yul\":5881:5974   */\n      tag_245\n      jump\t// in\n    tag_325:\n        /* \"#utility.yul\":5999:6001   */\n      0x40\n        /* \"#utility.yul\":5994:5997   */\n      dup3\n        /* \"#utility.yul\":5990:6002   */\n      add\n        /* \"#utility.yul\":5983:6002   */\n      swap1\n      pop\n        /* \"#utility.yul\":5642:6008   */\n      swap2\n      swap1\n      pop\n      jump\t// out\n        /* \"#utility.yul\":6014:6433   */\n    tag_126:\n        /* \"#utility.yul\":6180:6184   */\n      0x00\n        /* \"#utility.yul\":6218:6220   */\n      0x20\n        /* \"#utility.yul\":6207:6216   */\n      dup3\n        /* \"#utility.yul\":6203:6221   */\n      add\n        /* \"#utility.yul\":6195:6221   */\n      swap1\n      pop\n        /* \"#utility.yul\":6267:6276   */\n      dup2\n        /* \"#utility.yul\":6261:6265   */\n      dup2\n        /* \"#utility.yul\":6257:6277   */\n      sub\n        /* \"#utility.yul\":6253:6254   */\n      0x00\n        /* \"#utility.yul\":6242:6251   */\n      dup4\n        /* \"#utility.yul\":6238:6255   */\n      add\n        /* \"#utility.yul\":6231:6278   */\n      mstore\n        /* \"#utility.yul\":6295:6426   */\n      tag_327\n        /* \"#utility.yul\":6421:6425   */\n      dup2\n        /* \"#utility.yul\":6295:6426   */\n      tag_246\n      jump\t// in\n    tag_327:\n        /* \"#utility.yul\":6287:6426   */\n      swap1\n      pop\n        /* \"#utility.yul\":6014:6433   */\n      swap2\n      swap1\n      pop\n      jump\t// out\n        /* \"#utility.yul\":6439:6518   */\n    tag_247:\n        /* \"#utility.yul\":6478:6485   */\n      0x00\n        /* \"#utility.yul\":6507:6512   */\n      dup2\n        /* \"#utility.yul\":6496:6512   */\n      swap1\n      pop\n        /* \"#utility.yul\":6439:6518   */\n      swap2\n      swap1\n      pop\n      jump\t// out\n        /* \"#utility.yul\":6524:6681   */\n    tag_248:\n        /* \"#utility.yul\":6629:6674   */\n      tag_330\n        /* \"#utility.yul\":6649:6673   */\n      tag_331\n        /* \"#utility.yul\":6667:6672   */\n      dup3\n        /* \"#utility.yul\":6649:6673   */\n      tag_224\n      jump\t// in\n    tag_331:\n        /* \"#utility.yul\":6629:6674   */\n      tag_247\n      jump\t// in\n    tag_330:\n        /* \"#utility.yul\":6624:6627   */\n      dup3\n        /* \"#utility.yul\":6617:6675   */\n      mstore\n        /* \"#utility.yul\":6524:6681   */\n      pop\n      pop\n      jump\t// out\n        /* \"#utility.yul\":6687:7084   */\n    tag_132:\n        /* \"#utility.yul\":6827:6830   */\n      0x00\n        /* \"#utility.yul\":6842:6917   */\n      tag_333\n        /* \"#utility.yul\":6913:6916   */\n      dup3\n        /* \"#utility.yul\":6904:6910   */\n      dup6\n        /* \"#utility.yul\":6842:6917   */\n      tag_248\n      jump\t// in\n    tag_333:\n        /* \"#utility.yul\":6942:6944   */\n      0x20\n        /* \"#utility.yul\":6937:6940   */\n      dup3\n        /* \"#utility.yul\":6933:6945   */\n      add\n        /* \"#utility.yul\":6926:6945   */\n      swap2\n      pop\n        /* \"#utility.yul\":6955:7030   */\n      tag_334\n        /* \"#utility.yul\":7026:7029   */\n      dup3\n        /* \"#utility.yul\":7017:7023   */\n      dup5\n        /* \"#utility.yul\":6955:7030   */\n      tag_248\n      jump\t// in\n    tag_334:\n        /* \"#utility.yul\":7055:7057   */\n      0x20\n        /* \"#utility.yul\":7050:7053   */\n      dup3\n        /* \"#utility.yul\":7046:7058   */\n      add\n        /* \"#utility.yul\":7039:7058   */\n      swap2\n      pop\n        /* \"#utility.yul\":7075:7078   */\n      dup2\n        /* \"#utility.yul\":7068:7078   */\n      swap1\n      pop\n        /* \"#utility.yul\":6687:7084   */\n      swap4\n      swap3\n      pop\n      pop\n      pop\n      jump\t// out\n        /* \"#utility.yul\":7090:7270   */\n    tag_249:\n        /* \"#utility.yul\":7138:7215   */\n      0x4e487b7100000000000000000000000000000000000000000000000000000000\n        /* \"#utility.yul\":7135:7136   */\n      0x00\n        /* \"#utility.yul\":7128:7216   */\n      mstore\n        /* \"#utility.yul\":7235:7239   */\n      0x12\n        /* \"#utility.yul\":7232:7233   */\n      0x04\n        /* \"#utility.yul\":7225:7240   */\n      mstore\n        /* \"#utility.yul\":7259:7263   */\n      0x24\n        /* \"#utility.yul\":7256:7257   */\n      0x00\n        /* \"#utility.yul\":7249:7264   */\n      revert\n        /* \"#utility.yul\":7276:7452   */\n    tag_134:\n        /* \"#utility.yul\":7308:7309   */\n      0x00\n        /* \"#utility.yul\":7325:7345   */\n      tag_337\n        /* \"#utility.yul\":7343:7344   */\n      dup3\n        /* \"#utility.yul\":7325:7345   */\n      tag_224\n      jump\t// in\n    tag_337:\n        /* \"#utility.yul\":7320:7345   */\n      swap2\n      pop\n        /* \"#utility.yul\":7359:7379   */\n      tag_338\n        /* \"#utility.yul\":7377:7378   */\n      dup4\n        /* \"#utility.yul\":7359:7379   */\n      tag_224\n      jump\t// in\n    tag_338:\n        /* \"#utility.yul\":7354:7379   */\n      swap3\n      pop\n        /* \"#utility.yul\":7398:7399   */\n      dup3\n        /* \"#utility.yul\":7388:7423   */\n      tag_339\n      jumpi\n        /* \"#utility.yul\":7403:7421   */\n      tag_340\n      tag_249\n      jump\t// in\n    tag_340:\n        /* \"#utility.yul\":7388:7423   */\n    tag_339:\n        /* \"#utility.yul\":7444:7445   */\n      dup3\n        /* \"#utility.yul\":7441:7442   */\n      dup3\n        /* \"#utility.yul\":7437:7446   */\n      mod\n        /* \"#utility.yul\":7432:7446   */\n      swap1\n      pop\n        /* \"#utility.yul\":7276:7452   */\n      swap3\n      swap2\n      pop\n      pop\n      jump\t// out\n        /* \"#utility.yul\":7458:7868   */\n    tag_140:\n        /* \"#utility.yul\":7498:7505   */\n      0x00\n        /* \"#utility.yul\":7521:7541   */\n      tag_342\n        /* \"#utility.yul\":7539:7540   */\n      dup3\n        /* \"#utility.yul\":7521:7541   */\n      tag_224\n      jump\t// in\n    tag_342:\n        /* \"#utility.yul\":7516:7541   */\n      swap2\n      pop\n        /* \"#utility.yul\":7555:7575   */\n      tag_343\n        /* \"#utility.yul\":7573:7574   */\n      dup4\n        /* \"#utility.yul\":7555:7575   */\n      tag_224\n      jump\t// in\n    tag_343:\n        /* \"#utility.yul\":7550:7575   */\n      swap3\n      pop\n        /* \"#utility.yul\":7610:7611   */\n      dup3\n        /* \"#utility.yul\":7607:7608   */\n      dup3\n        /* \"#utility.yul\":7603:7612   */\n      mul\n        /* \"#utility.yul\":7632:7662   */\n      tag_344\n        /* \"#utility.yul\":7650:7661   */\n      dup2\n        /* \"#utility.yul\":7632:7662   */\n      tag_224\n      jump\t// in\n    tag_344:\n        /* \"#utility.yul\":7621:7662   */\n      swap2\n      pop\n        /* \"#utility.yul\":7811:7812   */\n      dup3\n        /* \"#utility.yul\":7802:7809   */\n      dup3\n        /* \"#utility.yul\":7798:7813   */\n      div\n        /* \"#utility.yul\":7795:7796   */\n      dup5\n        /* \"#utility.yul\":7792:7814   */\n      eq\n        /* \"#utility.yul\":7772:7773   */\n      dup4\n        /* \"#utility.yul\":7765:7774   */\n      iszero\n        /* \"#utility.yul\":7745:7828   */\n      or\n        /* \"#utility.yul\":7722:7861   */\n      tag_345\n      jumpi\n        /* \"#utility.yul\":7841:7859   */\n      tag_346\n      tag_225\n      jump\t// in\n    tag_346:\n        /* \"#utility.yul\":7722:7861   */\n    tag_345:\n        /* \"#utility.yul\":7506:7868   */\n      pop\n        /* \"#utility.yul\":7458:7868   */\n      swap3\n      swap2\n      pop\n      pop\n      jump\t// out\n        /* \"#utility.yul\":7874:8059   */\n    tag_142:\n        /* \"#utility.yul\":7914:7915   */\n      0x00\n        /* \"#utility.yul\":7931:7951   */\n      tag_348\n        /* \"#utility.yul\":7949:7950   */\n      dup3\n        /* \"#utility.yul\":7931:7951   */\n      tag_224\n      jump\t// in\n    tag_348:\n        /* \"#utility.yul\":7926:7951   */\n      swap2\n      pop\n        /* \"#utility.yul\":7965:7985   */\n      tag_349\n        /* \"#utility.yul\":7983:7984   */\n      dup4\n        /* \"#utility.yul\":7965:7985   */\n      tag_224\n      jump\t// in\n    tag_349:\n        /* \"#utility.yul\":7960:7985   */\n      swap3\n      pop\n        /* \"#utility.yul\":8004:8005   */\n      dup3\n        /* \"#utility.yul\":7994:8029   */\n      tag_350\n      jumpi\n        /* \"#utility.yul\":8009:8027   */\n      tag_351\n      tag_249\n      jump\t// in\n    tag_351:\n        /* \"#utility.yul\":7994:8029   */\n    tag_350:\n        /* \"#utility.yul\":8051:8052   */\n      dup3\n        /* \"#utility.yul\":8048:8049   */\n      dup3\n        /* \"#utility.yul\":8044:8053   */\n      div\n        /* \"#utility.yul\":8039:8053   */\n      swap1\n      pop\n        /* \"#utility.yul\":7874:8059   */\n      swap3\n      swap2\n      pop\n      pop\n      jump\t// out\n        /* \"#utility.yul\":8065:8259   */\n    tag_145:\n        /* \"#utility.yul\":8105:8109   */\n      0x00\n        /* \"#utility.yul\":8125:8145   */\n      tag_353\n        /* \"#utility.yul\":8143:8144   */\n      dup3\n        /* \"#utility.yul\":8125:8145   */\n      tag_224\n      jump\t// in\n    tag_353:\n        /* \"#utility.yul\":8120:8145   */\n      swap2\n      pop\n        /* \"#utility.yul\":8159:8179   */\n      tag_354\n        /* \"#utility.yul\":8177:8178   */\n      dup4\n        /* \"#utility.yul\":8159:8179   */\n      tag_224\n      jump\t// in\n    tag_354:\n        /* \"#utility.yul\":8154:8179   */\n      swap3\n      pop\n        /* \"#utility.yul\":8203:8204   */\n      dup3\n        /* \"#utility.yul\":8200:8201   */\n      dup3\n        /* \"#utility.yul\":8196:8205   */\n      sub\n        /* \"#utility.yul\":8188:8205   */\n      swap1\n      pop\n        /* \"#utility.yul\":8227:8228   */\n      dup2\n        /* \"#utility.yul\":8221:8225   */\n      dup2\n        /* \"#utility.yul\":8218:8229   */\n      gt\n        /* \"#utility.yul\":8215:8252   */\n      iszero\n      tag_355\n      jumpi\n        /* \"#utility.yul\":8232:8250   */\n      tag_356\n      tag_225\n      jump\t// in\n    tag_356:\n        /* \"#utility.yul\":8215:8252   */\n    tag_355:\n        /* \"#utility.yul\":8065:8259   */\n      swap3\n      swap2\n      pop\n      pop\n      jump\t// out\n        /* \"#utility.yul\":8265:8445   */\n    tag_157:\n        /* \"#utility.yul\":8313:8390   */\n      0x4e487b7100000000000000000000000000000000000000000000000000000000\n        /* \"#utility.yul\":8310:8311   */\n      0x00\n        /* \"#utility.yul\":8303:8391   */\n      mstore\n        /* \"#utility.yul\":8410:8414   */\n      0x01\n        /* \"#utility.yul\":8407:8408   */\n      0x04\n        /* \"#utility.yul\":8400:8415   */\n      mstore\n        /* \"#utility.yul\":8434:8438   */\n      0x24\n        /* \"#utility.yul\":8431:8432   */\n      0x00\n        /* \"#utility.yul\":8424:8439   */\n      revert\n        /* \"#utility.yul\":8451:8631   */\n    tag_176:\n        /* \"#utility.yul\":8499:8576   */\n      0x4e487b7100000000000000000000000000000000000000000000000000000000\n        /* \"#utility.yul\":8496:8497   */\n      0x00\n        /* \"#utility.yul\":8489:8577   */\n      mstore\n        /* \"#utility.yul\":8596:8600   */\n      0x32\n        /* \"#utility.yul\":8593:8594   */\n      0x04\n        /* \"#utility.yul\":8586:8601   */\n      mstore\n        /* \"#utility.yul\":8620:8624   */\n      0x24\n        /* \"#utility.yul\":8617:8618   */\n      0x00\n        /* \"#utility.yul\":8610:8625   */\n      revert\n        /* \"#utility.yul\":8637:8826   */\n    tag_250:\n        /* \"#utility.yul\":8806:8819   */\n      0x54686520616d6f756e7420000000000000000000000000000000000000000000\n        /* \"#utility.yul\":8801:8804   */\n      dup2\n        /* \"#utility.yul\":8794:8820   */\n      mstore\n        /* \"#utility.yul\":8637:8826   */\n      pop\n      jump\t// out\n        /* \"#utility.yul\":8832:8931   */\n    tag_251:\n        /* \"#utility.yul\":8884:8890   */\n      0x00\n        /* \"#utility.yul\":8918:8923   */\n      dup2\n        /* \"#utility.yul\":8912:8924   */\n      mload\n        /* \"#utility.yul\":8902:8924   */\n      swap1\n      pop\n        /* \"#utility.yul\":8832:8931   */\n      swap2\n      swap1\n      pop\n      jump\t// out\n        /* \"#utility.yul\":8937:9085   */\n    tag_252:\n        /* \"#utility.yul\":9039:9050   */\n      0x00\n        /* \"#utility.yul\":9076:9079   */\n      dup2\n        /* \"#utility.yul\":9061:9079   */\n      swap1\n      pop\n        /* \"#utility.yul\":8937:9085   */\n      swap3\n      swap2\n      pop\n      pop\n      jump\t// out\n        /* \"#utility.yul\":9091:9337   */\n    tag_253:\n        /* \"#utility.yul\":9172:9173   */\n      0x00\n        /* \"#utility.yul\":9182:9295   */\n    tag_363:\n        /* \"#utility.yul\":9196:9202   */\n      dup4\n        /* \"#utility.yul\":9193:9194   */\n      dup2\n        /* \"#utility.yul\":9190:9203   */\n      lt\n        /* \"#utility.yul\":9182:9295   */\n      iszero\n      tag_365\n      jumpi\n        /* \"#utility.yul\":9281:9282   */\n      dup1\n        /* \"#utility.yul\":9276:9279   */\n      dup3\n        /* \"#utility.yul\":9272:9283   */\n      add\n        /* \"#utility.yul\":9266:9284   */\n      mload\n        /* \"#utility.yul\":9262:9263   */\n      dup2\n        /* \"#utility.yul\":9257:9260   */\n      dup5\n        /* \"#utility.yul\":9253:9264   */\n      add\n        /* \"#utility.yul\":9246:9285   */\n      mstore\n        /* \"#utility.yul\":9218:9220   */\n      0x20\n        /* \"#utility.yul\":9215:9216   */\n      dup2\n        /* \"#utility.yul\":9211:9221   */\n      add\n        /* \"#utility.yul\":9206:9221   */\n      swap1\n      pop\n        /* \"#utility.yul\":9182:9295   */\n      jump(tag_363)\n    tag_365:\n        /* \"#utility.yul\":9329:9330   */\n      0x00\n        /* \"#utility.yul\":9320:9326   */\n      dup5\n        /* \"#utility.yul\":9315:9318   */\n      dup5\n        /* \"#utility.yul\":9311:9327   */\n      add\n        /* \"#utility.yul\":9304:9331   */\n      mstore\n        /* \"#utility.yul\":9153:9337   */\n      pop\n        /* \"#utility.yul\":9091:9337   */\n      pop\n      pop\n      pop\n      jump\t// out\n        /* \"#utility.yul\":9343:9733   */\n    tag_254:\n        /* \"#utility.yul\":9449:9452   */\n      0x00\n        /* \"#utility.yul\":9477:9516   */\n      tag_367\n        /* \"#utility.yul\":9510:9515   */\n      dup3\n        /* \"#utility.yul\":9477:9516   */\n      tag_251\n      jump\t// in\n    tag_367:\n        /* \"#utility.yul\":9532:9621   */\n      tag_368\n        /* \"#utility.yul\":9614:9620   */\n      dup2\n        /* \"#utility.yul\":9609:9612   */\n      dup6\n        /* \"#utility.yul\":9532:9621   */\n      tag_252\n      jump\t// in\n    tag_368:\n        /* \"#utility.yul\":9525:9621   */\n      swap4\n      pop\n        /* \"#utility.yul\":9630:9695   */\n      tag_369\n        /* \"#utility.yul\":9688:9694   */\n      dup2\n        /* \"#utility.yul\":9683:9686   */\n      dup6\n        /* \"#utility.yul\":9676:9680   */\n      0x20\n        /* \"#utility.yul\":9669:9674   */\n      dup7\n        /* \"#utility.yul\":9665:9681   */\n      add\n        /* \"#utility.yul\":9630:9695   */\n      tag_253\n      jump\t// in\n    tag_369:\n        /* \"#utility.yul\":9720:9726   */\n      dup1\n        /* \"#utility.yul\":9715:9718   */\n      dup5\n        /* \"#utility.yul\":9711:9727   */\n      add\n        /* \"#utility.yul\":9704:9727   */\n      swap2\n      pop\n        /* \"#utility.yul\":9453:9733   */\n      pop\n        /* \"#utility.yul\":9343:9733   */\n      swap3\n      swap2\n      pop\n      pop\n      jump\t// out\n        /* \"#utility.yul\":9739:9964   */\n    tag_255:\n        /* \"#utility.yul\":9879:9913   */\n      0x2069732067726561746572207468616e2074686520636f6e7472616374206261\n        /* \"#utility.yul\":9875:9876   */\n      0x00\n        /* \"#utility.yul\":9867:9873   */\n      dup3\n        /* \"#utility.yul\":9863:9877   */\n      add\n        /* \"#utility.yul\":9856:9914   */\n      mstore\n        /* \"#utility.yul\":9948:9956   */\n      0x6c616e6365200000000000000000000000000000000000000000000000000000\n        /* \"#utility.yul\":9943:9945   */\n      0x20\n        /* \"#utility.yul\":9935:9941   */\n      dup3\n        /* \"#utility.yul\":9931:9946   */\n      add\n        /* \"#utility.yul\":9924:9957   */\n      mstore\n        /* \"#utility.yul\":9739:9964   */\n      pop\n      jump\t// out\n        /* \"#utility.yul\":9970:10372   */\n    tag_256:\n        /* \"#utility.yul\":10130:10133   */\n      0x00\n        /* \"#utility.yul\":10151:10236   */\n      tag_372\n        /* \"#utility.yul\":10233:10235   */\n      0x26\n        /* \"#utility.yul\":10228:10231   */\n      dup4\n        /* \"#utility.yul\":10151:10236   */\n      tag_252\n      jump\t// in\n    tag_372:\n        /* \"#utility.yul\":10144:10236   */\n      swap2\n      pop\n        /* \"#utility.yul\":10245:10338   */\n      tag_373\n        /* \"#utility.yul\":10334:10337   */\n      dup3\n        /* \"#utility.yul\":10245:10338   */\n      tag_255\n      jump\t// in\n    tag_373:\n        /* \"#utility.yul\":10363:10365   */\n      0x26\n        /* \"#utility.yul\":10358:10361   */\n      dup3\n        /* \"#utility.yul\":10354:10366   */\n      add\n        /* \"#utility.yul\":10347:10366   */\n      swap1\n      pop\n        /* \"#utility.yul\":9970:10372   */\n      swap2\n      swap1\n      pop\n      jump\t// out\n        /* \"#utility.yul\":10378:11346   */\n    tag_187:\n        /* \"#utility.yul\":10750:10753   */\n      0x00\n        /* \"#utility.yul\":10765:10903   */\n      tag_375\n        /* \"#utility.yul\":10899:10902   */\n      dup3\n        /* \"#utility.yul\":10765:10903   */\n      tag_250\n      jump\t// in\n    tag_375:\n        /* \"#utility.yul\":10928:10930   */\n      0x0b\n        /* \"#utility.yul\":10923:10926   */\n      dup3\n        /* \"#utility.yul\":10919:10931   */\n      add\n        /* \"#utility.yul\":10912:10931   */\n      swap2\n      pop\n        /* \"#utility.yul\":10948:11043   */\n      tag_376\n        /* \"#utility.yul\":11039:11042   */\n      dup3\n        /* \"#utility.yul\":11030:11036   */\n      dup6\n        /* \"#utility.yul\":10948:11043   */\n      tag_254\n      jump\t// in\n    tag_376:\n        /* \"#utility.yul\":10941:11043   */\n      swap2\n      pop\n        /* \"#utility.yul\":11060:11208   */\n      tag_377\n        /* \"#utility.yul\":11204:11207   */\n      dup3\n        /* \"#utility.yul\":11060:11208   */\n      tag_256\n      jump\t// in\n    tag_377:\n        /* \"#utility.yul\":11053:11208   */\n      swap2\n      pop\n        /* \"#utility.yul\":11225:11320   */\n      tag_378\n        /* \"#utility.yul\":11316:11319   */\n      dup3\n        /* \"#utility.yul\":11307:11313   */\n      dup5\n        /* \"#utility.yul\":11225:11320   */\n      tag_254\n      jump\t// in\n    tag_378:\n        /* \"#utility.yul\":11218:11320   */\n      swap2\n      pop\n        /* \"#utility.yul\":11337:11340   */\n      dup2\n        /* \"#utility.yul\":11330:11340   */\n      swap1\n      pop\n        /* \"#utility.yul\":10378:11346   */\n      swap4\n      swap3\n      pop\n      pop\n      pop\n      jump\t// out\n        /* \"#utility.yul\":11352:11454   */\n    tag_257:\n        /* \"#utility.yul\":11393:11399   */\n      0x00\n        /* \"#utility.yul\":11444:11446   */\n      0x1f\n        /* \"#utility.yul\":11440:11447   */\n      not\n        /* \"#utility.yul\":11435:11437   */\n      0x1f\n        /* \"#utility.yul\":11428:11433   */\n      dup4\n        /* \"#utility.yul\":11424:11438   */\n      add\n        /* \"#utility.yul\":11420:11448   */\n      and\n        /* \"#utility.yul\":11410:11448   */\n      swap1\n      pop\n        /* \"#utility.yul\":11352:11454   */\n      swap2\n      swap1\n      pop\n      jump\t// out\n        /* \"#utility.yul\":11460:11837   */\n    tag_258:\n        /* \"#utility.yul\":11548:11551   */\n      0x00\n        /* \"#utility.yul\":11576:11615   */\n      tag_381\n        /* \"#utility.yul\":11609:11614   */\n      dup3\n        /* \"#utility.yul\":11576:11615   */\n      tag_251\n      jump\t// in\n    tag_381:\n        /* \"#utility.yul\":11631:11702   */\n      tag_382\n        /* \"#utility.yul\":11695:11701   */\n      dup2\n        /* \"#utility.yul\":11690:11693   */\n      dup6\n        /* \"#utility.yul\":11631:11702   */\n      tag_242\n      jump\t// in\n    tag_382:\n        /* \"#utility.yul\":11624:11702   */\n      swap4\n      pop\n        /* \"#utility.yul\":11711:11776   */\n      tag_383\n        /* \"#utility.yul\":11769:11775   */\n      dup2\n        /* \"#utility.yul\":11764:11767   */\n      dup6\n        /* \"#utility.yul\":11757:11761   */\n      0x20\n        /* \"#utility.yul\":11750:11755   */\n      dup7\n        /* \"#utility.yul\":11746:11762   */\n      add\n        /* \"#utility.yul\":11711:11776   */\n      tag_253\n      jump\t// in\n    tag_383:\n        /* \"#utility.yul\":11801:11830   */\n      tag_384\n        /* \"#utility.yul\":11823:11829   */\n      dup2\n        /* \"#utility.yul\":11801:11830   */\n      tag_257\n      jump\t// in\n    tag_384:\n        /* \"#utility.yul\":11796:11799   */\n      dup5\n        /* \"#utility.yul\":11792:11831   */\n      add\n        /* \"#utility.yul\":11785:11831   */\n      swap2\n      pop\n        /* \"#utility.yul\":11552:11837   */\n      pop\n        /* \"#utility.yul\":11460:11837   */\n      swap3\n      swap2\n      pop\n      pop\n      jump\t// out\n        /* \"#utility.yul\":11843:12156   */\n    tag_190:\n        /* \"#utility.yul\":11956:11960   */\n      0x00\n        /* \"#utility.yul\":11994:11996   */\n      0x20\n        /* \"#utility.yul\":11983:11992   */\n      dup3\n        /* \"#utility.yul\":11979:11997   */\n      add\n        /* \"#utility.yul\":11971:11997   */\n      swap1\n      pop\n        /* \"#utility.yul\":12043:12052   */\n      dup2\n        /* \"#utility.yul\":12037:12041   */\n      dup2\n        /* \"#utility.yul\":12033:12053   */\n      sub\n        /* \"#utility.yul\":12029:12030   */\n      0x00\n        /* \"#utility.yul\":12018:12027   */\n      dup4\n        /* \"#utility.yul\":12014:12031   */\n      add\n        /* \"#utility.yul\":12007:12054   */\n      mstore\n        /* \"#utility.yul\":12071:12149   */\n      tag_386\n        /* \"#utility.yul\":12144:12148   */\n      dup2\n        /* \"#utility.yul\":12135:12141   */\n      dup5\n        /* \"#utility.yul\":12071:12149   */\n      tag_258\n      jump\t// in\n    tag_386:\n        /* \"#utility.yul\":12063:12149   */\n      swap1\n      pop\n        /* \"#utility.yul\":11843:12156   */\n      swap3\n      swap2\n      pop\n      pop\n      jump\t// out\n        /* \"#utility.yul\":12162:12395   */\n    tag_210:\n        /* \"#utility.yul\":12201:12204   */\n      0x00\n        /* \"#utility.yul\":12224:12248   */\n      tag_388\n        /* \"#utility.yul\":12242:12247   */\n      dup3\n        /* \"#utility.yul\":12224:12248   */\n      tag_224\n      jump\t// in\n    tag_388:\n        /* \"#utility.yul\":12215:12248   */\n      swap2\n      pop\n        /* \"#utility.yul\":12270:12336   */\n      0xffffffffffffffffffffffffffffffffffffffffffffffffffffffffffffffff\n        /* \"#utility.yul\":12263:12268   */\n      dup3\n        /* \"#utility.yul\":12260:12337   */\n      sub\n        /* \"#utility.yul\":12257:12360   */\n      tag_389\n      jumpi\n        /* \"#utility.yul\":12340:12358   */\n      tag_390\n      tag_225\n      jump\t// in\n    tag_390:\n        /* \"#utility.yul\":12257:12360   */\n    tag_389:\n        /* \"#utility.yul\":12387:12388   */\n      0x01\n        /* \"#utility.yul\":12380:12385   */\n      dup3\n        /* \"#utility.yul\":12376:12389   */\n      add\n        /* \"#utility.yul\":12369:12389   */\n      swap1\n      pop\n        /* \"#utility.yul\":12162:12395   */\n      swap2\n      swap1\n      pop\n      jump\t// out\n        /* \"#utility.yul\":12401:12581   */\n    tag_214:\n        /* \"#utility.yul\":12449:12526   */\n      0x4e487b7100000000000000000000000000000000000000000000000000000000\n        /* \"#utility.yul\":12446:12447   */\n      0x00\n        /* \"#utility.yul\":12439:12527   */\n      mstore\n        /* \"#utility.yul\":12546:12550   */\n      0x41\n        /* \"#utility.yul\":12543:12544   */\n      0x04\n        /* \"#utility.yul\":12536:12551   */\n      mstore\n        /* \"#utility.yul\":12570:12574   */\n      0x24\n        /* \"#utility.yul\":12567:12568   */\n      0x00\n        /* \"#utility.yul\":12560:12575   */\n      revert\n\n    auxdata: 0xa264697066735822122078e71758372a99c0d9ad9e92d0c5d47ca3990b37234c4f02a20ec75e73cbbe2364736f6c63430008110033\n}\n",
				"bytecode": {
					"linkReferences": {},
					"object": "608060405260016000806101000a81548160ff0219169083151502179055506114a78061002d6000396000f3fe60806040526004361061012d5760003560e01c80637f798243116100ab578063a8a540081161006f578063a8a54008146103dc578063b5cc453914610405578063bff82dee1461040f578063d1cdb3231461044c578063e0cb8a8114610477578063f0d5c534146104a2576101c4565b80637f7982431461032a578063894ba83314610355578063912a90bb1461036c578063944b3fe5146103a957806397d47113146103d2576101c4565b8063367edd32116100f2578063367edd321461028f5780633b4ad0e5146102a6578063605e16ec146102bd5780636f9fb98a146102d45780637c623f7b146102ff576101c4565b80628b8d89146101c957806312845966146101d35780631593a8c71461021057806327dff143146102275780632a41a97514610264576101c4565b366101c45773ab8483f64d9c6d1ecf9b849ae677dd3315835cb273ffffffffffffffffffffffffffffffffffffffff163373ffffffffffffffffffffffffffffffffffffffff160361019f576101816104cd565b34600160008282546101939190610d4e565b925050819055506101c2565b34600260008282546101b19190610d4e565b925050819055506101c13361051c565b5b005b600080fd5b6101d161066d565b005b3480156101df57600080fd5b506101fa60048036038101906101f59190610db3565b610688565b6040516102079190610def565b60405180910390f35b34801561021c57600080fd5b506102256106cd565b005b34801561023357600080fd5b5061024e60048036038101906102499190610db3565b610804565b60405161025b9190610e4b565b60405180910390f35b34801561027057600080fd5b50610279610843565b6040516102869190610def565b60405180910390f35b34801561029b57600080fd5b506102a4610883565b005b3480156102b257600080fd5b506102bb6104cd565b005b3480156102c957600080fd5b506102d261089f565b005b3480156102e057600080fd5b506102e961090b565b6040516102f69190610def565b60405180910390f35b34801561030b57600080fd5b50610314610913565b6040516103219190610def565b60405180910390f35b34801561033657600080fd5b5061033f61091d565b60405161034c9190610e4b565b60405180910390f35b34801561036157600080fd5b5061036a6109a0565b005b34801561037857600080fd5b50610393600480360381019061038e9190610e92565b6109bc565b6040516103a09190610eda565b60405180910390f35b3480156103b557600080fd5b506103d060048036038101906103cb9190610db3565b610a1a565b005b6103da610b16565b005b3480156103e857600080fd5b5061040360048036038101906103fe9190610e92565b61051c565b005b61040d610b31565b005b34801561041b57600080fd5b5061043660048036038101906104319190610f33565b610b5d565b6040516104439190610eda565b60405180910390f35b34801561045857600080fd5b50610461610b7d565b60405161046e9190610def565b60405180910390f35b34801561048357600080fd5b5061048c610ba1565b6040516104999190610def565b60405180910390f35b3480156104ae57600080fd5b506104b7610bab565b6040516104c49190610def565b60405180910390f35b60008054906101000a900460ff1661051a576040517f08c379a000000000000000000000000000000000000000000000000000000000815260040161051190610fe3565b60405180910390fd5b565b6000600460008373ffffffffffffffffffffffffffffffffffffffff1673ffffffffffffffffffffffffffffffffffffffff16815260200190815260200160002060009054906101000a900460ff16905080156105ae576040517f08c379a00000000000000000000000000000000000000000000000000000000081526004016105a590611075565b60405180910390fd5b6001600460008473ffffffffffffffffffffffffffffffffffffffff1673ffffffffffffffffffffffffffffffffffffffff16815260200190815260200160002060006101000a81548160ff0219169083151502179055506005829080600181540180825580915050600190039060005260206000200160009091909190916101000a81548173ffffffffffffffffffffffffffffffffffffffff021916908373ffffffffffffffffffffffffffffffffffffffff1602179055505050565b346001600082825461067f9190610d4e565b92505081905550565b600080444260405160200161069e9291906110b6565b6040516020818303038152906040528051906020012060001c905082816106c59190611111565b915050919050565b60006106d761091d565b9050600073ffffffffffffffffffffffffffffffffffffffff168173ffffffffffffffffffffffffffffffffffffffff1603156108015760006064600a6002546107219190611142565b61072b9190611184565b90506000816002546003546107409190610d4e565b61074a91906111b5565b90506000600281905550600060038190555073ab8483f64d9c6d1ecf9b849ae677dd3315835cb273ffffffffffffffffffffffffffffffffffffffff166108fc839081150290604051600060405180830381858888f193505050501580156107b6573d6000803e3d6000fd5b508273ffffffffffffffffffffffffffffffffffffffff166108fc829081150290604051600060405180830381858888f193505050501580156107fd573d6000803e3d6000fd5b5050505b50565b6005818154811061081457600080fd5b906000526020600020016000915054906101000a900473ffffffffffffffffffffffffffffffffffffffff1681565b600061084d610b7d565b61085561090b565b1015610864576108636111e9565b5b61086c610b7d565b61087461090b565b61087e91906111b5565b905090565b60016000806101000a81548160ff021916908315150217905550565b600060018190555073ab8483f64d9c6d1ecf9b849ae677dd3315835cb273ffffffffffffffffffffffffffffffffffffffff166108fc6108dd61090b565b9081150290604051600060405180830381858888f19350505050158015610908573d6000803e3d6000fd5b50565b600047905090565b6000600254905090565b6000806005805490509050600080820361093c5760009250505061099d565b6001820361094d5760009050610959565b61095682610688565b90505b6005818154811061096d5761096c611218565b5b9060005260206000200160009054906101000a900473ffffffffffffffffffffffffffffffffffffffff16925050505b90565b60008060006101000a81548160ff021916908315150217905550565b60006109c66104cd565b600460008373ffffffffffffffffffffffffffffffffffffffff1673ffffffffffffffffffffffffffffffffffffffff16815260200190815260200160002060009054906101000a900460ff169050919050565b6000610a2461090b565b905080821115610a3383610bb5565b610a3c83610bb5565b604051602001610a4d929190611350565b60405160208183030381529060405290610a9d576040517f08c379a0000000000000000000000000000000000000000000000000000000008152600401610a9491906113d8565b60405180910390fd5b508160016000828254610ab091906111b5565b9250508190555073ab8483f64d9c6d1ecf9b849ae677dd3315835cb273ffffffffffffffffffffffffffffffffffffffff166108fc839081150290604051600060405180830381858888f19350505050158015610b11573d6000803e3d6000fd5b505050565b3460036000828254610b289190610d4e565b92505081905550565b610b396104cd565b3460026000828254610b4b9190610d4e565b92505081905550610b5b3361051c565b565b60046020528060005260406000206000915054906101000a900460ff1681565b6000600354600254600154610b929190610d4e565b610b9c9190610d4e565b905090565b6000600154905090565b6000600354905090565b606060008203610bfc576040518060400160405280600181526020017f30000000000000000000000000000000000000000000000000000000000000008152509050610d10565b600082905060005b60008214610c2e578080610c17906113fa565b915050600a82610c279190611184565b9150610c04565b60008167ffffffffffffffff811115610c4a57610c49611442565b5b6040519080825280601f01601f191660200182016040528015610c7c5781602001600182028036833780820191505090505b5090505b60008514610d0957600182610c9591906111b5565b9150600a85610ca49190611111565b6030610cb09190610d4e565b60f81b818381518110610cc657610cc5611218565b5b60200101907effffffffffffffffffffffffffffffffffffffffffffffffffffffffffffff1916908160001a905350600a85610d029190611184565b9450610c80565b8093505050505b919050565b6000819050919050565b7f4e487b7100000000000000000000000000000000000000000000000000000000600052601160045260246000fd5b6000610d5982610d15565b9150610d6483610d15565b9250828201905080821115610d7c57610d7b610d1f565b5b92915050565b600080fd5b610d9081610d15565b8114610d9b57600080fd5b50565b600081359050610dad81610d87565b92915050565b600060208284031215610dc957610dc8610d82565b5b6000610dd784828501610d9e565b91505092915050565b610de981610d15565b82525050565b6000602082019050610e046000830184610de0565b92915050565b600073ffffffffffffffffffffffffffffffffffffffff82169050919050565b6000610e3582610e0a565b9050919050565b610e4581610e2a565b82525050565b6000602082019050610e606000830184610e3c565b92915050565b610e6f81610e2a565b8114610e7a57600080fd5b50565b600081359050610e8c81610e66565b92915050565b600060208284031215610ea857610ea7610d82565b5b6000610eb684828501610e7d565b91505092915050565b60008115159050919050565b610ed481610ebf565b82525050565b6000602082019050610eef6000830184610ecb565b92915050565b6000610f0082610e0a565b9050919050565b610f1081610ef5565b8114610f1b57600080fd5b50565b600081359050610f2d81610f07565b92915050565b600060208284031215610f4957610f48610d82565b5b6000610f5784828501610f1e565b91505092915050565b600082825260208201905092915050565b7f5468697320636f6e74726163742069732063757272656e746c7920646973616260008201527f6c65642e00000000000000000000000000000000000000000000000000000000602082015250565b6000610fcd602483610f60565b9150610fd882610f71565b604082019050919050565b60006020820190508181036000830152610ffc81610fc0565b9050919050565b7f5468697320616464726573732068617320616c726561647920656e746572656460008201527f20746865206c6f74746572792e00000000000000000000000000000000000000602082015250565b600061105f602d83610f60565b915061106a82611003565b604082019050919050565b6000602082019050818103600083015261108e81611052565b9050919050565b6000819050919050565b6110b06110ab82610d15565b611095565b82525050565b60006110c2828561109f565b6020820191506110d2828461109f565b6020820191508190509392505050565b7f4e487b7100000000000000000000000000000000000000000000000000000000600052601260045260246000fd5b600061111c82610d15565b915061112783610d15565b925082611137576111366110e2565b5b828206905092915050565b600061114d82610d15565b915061115883610d15565b925082820261116681610d15565b9150828204841483151761117d5761117c610d1f565b5b5092915050565b600061118f82610d15565b915061119a83610d15565b9250826111aa576111a96110e2565b5b828204905092915050565b60006111c082610d15565b91506111cb83610d15565b92508282039050818111156111e3576111e2610d1f565b5b92915050565b7f4e487b7100000000000000000000000000000000000000000000000000000000600052600160045260246000fd5b7f4e487b7100000000000000000000000000000000000000000000000000000000600052603260045260246000fd5b7f54686520616d6f756e7420000000000000000000000000000000000000000000815250565b600081519050919050565b600081905092915050565b60005b838110156112a1578082015181840152602081019050611286565b60008484015250505050565b60006112b88261126d565b6112c28185611278565b93506112d2818560208601611283565b80840191505092915050565b7f2069732067726561746572207468616e2074686520636f6e747261637420626160008201527f6c616e6365200000000000000000000000000000000000000000000000000000602082015250565b600061133a602683611278565b9150611345826112de565b602682019050919050565b600061135b82611247565b600b8201915061136b82856112ad565b91506113768261132d565b915061138282846112ad565b91508190509392505050565b6000601f19601f8301169050919050565b60006113aa8261126d565b6113b48185610f60565b93506113c4818560208601611283565b6113cd8161138e565b840191505092915050565b600060208201905081810360008301526113f2818461139f565b905092915050565b600061140582610d15565b91507fffffffffffffffffffffffffffffffffffffffffffffffffffffffffffffffff820361143757611436610d1f565b5b600182019050919050565b7f4e487b7100000000000000000000000000000000000000000000000000000000600052604160045260246000fdfea264697066735822122078e71758372a99c0d9ad9e92d0c5d47ca3990b37234c4f02a20ec75e73cbbe2364736f6c63430008110033",
					"opcodes": "PUSH1 0x80 PUSH1 0x40 MSTORE PUSH1 0x1 PUSH1 0x0 DUP1 PUSH2 0x100 EXP DUP2 SLOAD DUP2 PUSH1 0xFF MUL NOT AND SWAP1 DUP4 ISZERO ISZERO MUL OR SWAP1 SSTORE POP PUSH2 0x14A7 DUP1 PUSH2 0x2D PUSH1 0x0 CODECOPY PUSH1 0x0 RETURN INVALID PUSH1 0x80 PUSH1 0x40 MSTORE PUSH1 0x4 CALLDATASIZE LT PUSH2 0x12D JUMPI PUSH1 0x0 CALLDATALOAD PUSH1 0xE0 SHR DUP1 PUSH4 0x7F798243 GT PUSH2 0xAB JUMPI DUP1 PUSH4 0xA8A54008 GT PUSH2 0x6F JUMPI DUP1 PUSH4 0xA8A54008 EQ PUSH2 0x3DC JUMPI DUP1 PUSH4 0xB5CC4539 EQ PUSH2 0x405 JUMPI DUP1 PUSH4 0xBFF82DEE EQ PUSH2 0x40F JUMPI DUP1 PUSH4 0xD1CDB323 EQ PUSH2 0x44C JUMPI DUP1 PUSH4 0xE0CB8A81 EQ PUSH2 0x477 JUMPI DUP1 PUSH4 0xF0D5C534 EQ PUSH2 0x4A2 JUMPI PUSH2 0x1C4 JUMP JUMPDEST DUP1 PUSH4 0x7F798243 EQ PUSH2 0x32A JUMPI DUP1 PUSH4 0x894BA833 EQ PUSH2 0x355 JUMPI DUP1 PUSH4 0x912A90BB EQ PUSH2 0x36C JUMPI DUP1 PUSH4 0x944B3FE5 EQ PUSH2 0x3A9 JUMPI DUP1 PUSH4 0x97D47113 EQ PUSH2 0x3D2 JUMPI PUSH2 0x1C4 JUMP JUMPDEST DUP1 PUSH4 0x367EDD32 GT PUSH2 0xF2 JUMPI DUP1 PUSH4 0x367EDD32 EQ PUSH2 0x28F JUMPI DUP1 PUSH4 0x3B4AD0E5 EQ PUSH2 0x2A6 JUMPI DUP1 PUSH4 0x605E16EC EQ PUSH2 0x2BD JUMPI DUP1 PUSH4 0x6F9FB98A EQ PUSH2 0x2D4 JUMPI DUP1 PUSH4 0x7C623F7B EQ PUSH2 0x2FF JUMPI PUSH2 0x1C4 JUMP JUMPDEST DUP1 PUSH3 0x8B8D89 EQ PUSH2 0x1C9 JUMPI DUP1 PUSH4 0x12845966 EQ PUSH2 0x1D3 JUMPI DUP1 PUSH4 0x1593A8C7 EQ PUSH2 0x210 JUMPI DUP1 PUSH4 0x27DFF143 EQ PUSH2 0x227 JUMPI DUP1 PUSH4 0x2A41A975 EQ PUSH2 0x264 JUMPI PUSH2 0x1C4 JUMP JUMPDEST CALLDATASIZE PUSH2 0x1C4 JUMPI PUSH20 0xAB8483F64D9C6D1ECF9B849AE677DD3315835CB2 PUSH20 0xFFFFFFFFFFFFFFFFFFFFFFFFFFFFFFFFFFFFFFFF AND CALLER PUSH20 0xFFFFFFFFFFFFFFFFFFFFFFFFFFFFFFFFFFFFFFFF AND SUB PUSH2 0x19F JUMPI PUSH2 0x181 PUSH2 0x4CD JUMP JUMPDEST CALLVALUE PUSH1 0x1 PUSH1 0x0 DUP3 DUP3 SLOAD PUSH2 0x193 SWAP2 SWAP1 PUSH2 0xD4E JUMP JUMPDEST SWAP3 POP POP DUP2 SWAP1 SSTORE POP PUSH2 0x1C2 JUMP JUMPDEST CALLVALUE PUSH1 0x2 PUSH1 0x0 DUP3 DUP3 SLOAD PUSH2 0x1B1 SWAP2 SWAP1 PUSH2 0xD4E JUMP JUMPDEST SWAP3 POP POP DUP2 SWAP1 SSTORE POP PUSH2 0x1C1 CALLER PUSH2 0x51C JUMP JUMPDEST JUMPDEST STOP JUMPDEST PUSH1 0x0 DUP1 REVERT JUMPDEST PUSH2 0x1D1 PUSH2 0x66D JUMP JUMPDEST STOP JUMPDEST CALLVALUE DUP1 ISZERO PUSH2 0x1DF JUMPI PUSH1 0x0 DUP1 REVERT JUMPDEST POP PUSH2 0x1FA PUSH1 0x4 DUP1 CALLDATASIZE SUB DUP2 ADD SWAP1 PUSH2 0x1F5 SWAP2 SWAP1 PUSH2 0xDB3 JUMP JUMPDEST PUSH2 0x688 JUMP JUMPDEST PUSH1 0x40 MLOAD PUSH2 0x207 SWAP2 SWAP1 PUSH2 0xDEF JUMP JUMPDEST PUSH1 0x40 MLOAD DUP1 SWAP2 SUB SWAP1 RETURN JUMPDEST CALLVALUE DUP1 ISZERO PUSH2 0x21C JUMPI PUSH1 0x0 DUP1 REVERT JUMPDEST POP PUSH2 0x225 PUSH2 0x6CD JUMP JUMPDEST STOP JUMPDEST CALLVALUE DUP1 ISZERO PUSH2 0x233 JUMPI PUSH1 0x0 DUP1 REVERT JUMPDEST POP PUSH2 0x24E PUSH1 0x4 DUP1 CALLDATASIZE SUB DUP2 ADD SWAP1 PUSH2 0x249 SWAP2 SWAP1 PUSH2 0xDB3 JUMP JUMPDEST PUSH2 0x804 JUMP JUMPDEST PUSH1 0x40 MLOAD PUSH2 0x25B SWAP2 SWAP1 PUSH2 0xE4B JUMP JUMPDEST PUSH1 0x40 MLOAD DUP1 SWAP2 SUB SWAP1 RETURN JUMPDEST CALLVALUE DUP1 ISZERO PUSH2 0x270 JUMPI PUSH1 0x0 DUP1 REVERT JUMPDEST POP PUSH2 0x279 PUSH2 0x843 JUMP JUMPDEST PUSH1 0x40 MLOAD PUSH2 0x286 SWAP2 SWAP1 PUSH2 0xDEF JUMP JUMPDEST PUSH1 0x40 MLOAD DUP1 SWAP2 SUB SWAP1 RETURN JUMPDEST CALLVALUE DUP1 ISZERO PUSH2 0x29B JUMPI PUSH1 0x0 DUP1 REVERT JUMPDEST POP PUSH2 0x2A4 PUSH2 0x883 JUMP JUMPDEST STOP JUMPDEST CALLVALUE DUP1 ISZERO PUSH2 0x2B2 JUMPI PUSH1 0x0 DUP1 REVERT JUMPDEST POP PUSH2 0x2BB PUSH2 0x4CD JUMP JUMPDEST STOP JUMPDEST CALLVALUE DUP1 ISZERO PUSH2 0x2C9 JUMPI PUSH1 0x0 DUP1 REVERT JUMPDEST POP PUSH2 0x2D2 PUSH2 0x89F JUMP JUMPDEST STOP JUMPDEST CALLVALUE DUP1 ISZERO PUSH2 0x2E0 JUMPI PUSH1 0x0 DUP1 REVERT JUMPDEST POP PUSH2 0x2E9 PUSH2 0x90B JUMP JUMPDEST PUSH1 0x40 MLOAD PUSH2 0x2F6 SWAP2 SWAP1 PUSH2 0xDEF JUMP JUMPDEST PUSH1 0x40 MLOAD DUP1 SWAP2 SUB SWAP1 RETURN JUMPDEST CALLVALUE DUP1 ISZERO PUSH2 0x30B JUMPI PUSH1 0x0 DUP1 REVERT JUMPDEST POP PUSH2 0x314 PUSH2 0x913 JUMP JUMPDEST PUSH1 0x40 MLOAD PUSH2 0x321 SWAP2 SWAP1 PUSH2 0xDEF JUMP JUMPDEST PUSH1 0x40 MLOAD DUP1 SWAP2 SUB SWAP1 RETURN JUMPDEST CALLVALUE DUP1 ISZERO PUSH2 0x336 JUMPI PUSH1 0x0 DUP1 REVERT JUMPDEST POP PUSH2 0x33F PUSH2 0x91D JUMP JUMPDEST PUSH1 0x40 MLOAD PUSH2 0x34C SWAP2 SWAP1 PUSH2 0xE4B JUMP JUMPDEST PUSH1 0x40 MLOAD DUP1 SWAP2 SUB SWAP1 RETURN JUMPDEST CALLVALUE DUP1 ISZERO PUSH2 0x361 JUMPI PUSH1 0x0 DUP1 REVERT JUMPDEST POP PUSH2 0x36A PUSH2 0x9A0 JUMP JUMPDEST STOP JUMPDEST CALLVALUE DUP1 ISZERO PUSH2 0x378 JUMPI PUSH1 0x0 DUP1 REVERT JUMPDEST POP PUSH2 0x393 PUSH1 0x4 DUP1 CALLDATASIZE SUB DUP2 ADD SWAP1 PUSH2 0x38E SWAP2 SWAP1 PUSH2 0xE92 JUMP JUMPDEST PUSH2 0x9BC JUMP JUMPDEST PUSH1 0x40 MLOAD PUSH2 0x3A0 SWAP2 SWAP1 PUSH2 0xEDA JUMP JUMPDEST PUSH1 0x40 MLOAD DUP1 SWAP2 SUB SWAP1 RETURN JUMPDEST CALLVALUE DUP1 ISZERO PUSH2 0x3B5 JUMPI PUSH1 0x0 DUP1 REVERT JUMPDEST POP PUSH2 0x3D0 PUSH1 0x4 DUP1 CALLDATASIZE SUB DUP2 ADD SWAP1 PUSH2 0x3CB SWAP2 SWAP1 PUSH2 0xDB3 JUMP JUMPDEST PUSH2 0xA1A JUMP JUMPDEST STOP JUMPDEST PUSH2 0x3DA PUSH2 0xB16 JUMP JUMPDEST STOP JUMPDEST CALLVALUE DUP1 ISZERO PUSH2 0x3E8 JUMPI PUSH1 0x0 DUP1 REVERT JUMPDEST POP PUSH2 0x403 PUSH1 0x4 DUP1 CALLDATASIZE SUB DUP2 ADD SWAP1 PUSH2 0x3FE SWAP2 SWAP1 PUSH2 0xE92 JUMP JUMPDEST PUSH2 0x51C JUMP JUMPDEST STOP JUMPDEST PUSH2 0x40D PUSH2 0xB31 JUMP JUMPDEST STOP JUMPDEST CALLVALUE DUP1 ISZERO PUSH2 0x41B JUMPI PUSH1 0x0 DUP1 REVERT JUMPDEST POP PUSH2 0x436 PUSH1 0x4 DUP1 CALLDATASIZE SUB DUP2 ADD SWAP1 PUSH2 0x431 SWAP2 SWAP1 PUSH2 0xF33 JUMP JUMPDEST PUSH2 0xB5D JUMP JUMPDEST PUSH1 0x40 MLOAD PUSH2 0x443 SWAP2 SWAP1 PUSH2 0xEDA JUMP JUMPDEST PUSH1 0x40 MLOAD DUP1 SWAP2 SUB SWAP1 RETURN JUMPDEST CALLVALUE DUP1 ISZERO PUSH2 0x458 JUMPI PUSH1 0x0 DUP1 REVERT JUMPDEST POP PUSH2 0x461 PUSH2 0xB7D JUMP JUMPDEST PUSH1 0x40 MLOAD PUSH2 0x46E SWAP2 SWAP1 PUSH2 0xDEF JUMP JUMPDEST PUSH1 0x40 MLOAD DUP1 SWAP2 SUB SWAP1 RETURN JUMPDEST CALLVALUE DUP1 ISZERO PUSH2 0x483 JUMPI PUSH1 0x0 DUP1 REVERT JUMPDEST POP PUSH2 0x48C PUSH2 0xBA1 JUMP JUMPDEST PUSH1 0x40 MLOAD PUSH2 0x499 SWAP2 SWAP1 PUSH2 0xDEF JUMP JUMPDEST PUSH1 0x40 MLOAD DUP1 SWAP2 SUB SWAP1 RETURN JUMPDEST CALLVALUE DUP1 ISZERO PUSH2 0x4AE JUMPI PUSH1 0x0 DUP1 REVERT JUMPDEST POP PUSH2 0x4B7 PUSH2 0xBAB JUMP JUMPDEST PUSH1 0x40 MLOAD PUSH2 0x4C4 SWAP2 SWAP1 PUSH2 0xDEF JUMP JUMPDEST PUSH1 0x40 MLOAD DUP1 SWAP2 SUB SWAP1 RETURN JUMPDEST PUSH1 0x0 DUP1 SLOAD SWAP1 PUSH2 0x100 EXP SWAP1 DIV PUSH1 0xFF AND PUSH2 0x51A JUMPI PUSH1 0x40 MLOAD PUSH32 0x8C379A000000000000000000000000000000000000000000000000000000000 DUP2 MSTORE PUSH1 0x4 ADD PUSH2 0x511 SWAP1 PUSH2 0xFE3 JUMP JUMPDEST PUSH1 0x40 MLOAD DUP1 SWAP2 SUB SWAP1 REVERT JUMPDEST JUMP JUMPDEST PUSH1 0x0 PUSH1 0x4 PUSH1 0x0 DUP4 PUSH20 0xFFFFFFFFFFFFFFFFFFFFFFFFFFFFFFFFFFFFFFFF AND PUSH20 0xFFFFFFFFFFFFFFFFFFFFFFFFFFFFFFFFFFFFFFFF AND DUP2 MSTORE PUSH1 0x20 ADD SWAP1 DUP2 MSTORE PUSH1 0x20 ADD PUSH1 0x0 KECCAK256 PUSH1 0x0 SWAP1 SLOAD SWAP1 PUSH2 0x100 EXP SWAP1 DIV PUSH1 0xFF AND SWAP1 POP DUP1 ISZERO PUSH2 0x5AE JUMPI PUSH1 0x40 MLOAD PUSH32 0x8C379A000000000000000000000000000000000000000000000000000000000 DUP2 MSTORE PUSH1 0x4 ADD PUSH2 0x5A5 SWAP1 PUSH2 0x1075 JUMP JUMPDEST PUSH1 0x40 MLOAD DUP1 SWAP2 SUB SWAP1 REVERT JUMPDEST PUSH1 0x1 PUSH1 0x4 PUSH1 0x0 DUP5 PUSH20 0xFFFFFFFFFFFFFFFFFFFFFFFFFFFFFFFFFFFFFFFF AND PUSH20 0xFFFFFFFFFFFFFFFFFFFFFFFFFFFFFFFFFFFFFFFF AND DUP2 MSTORE PUSH1 0x20 ADD SWAP1 DUP2 MSTORE PUSH1 0x20 ADD PUSH1 0x0 KECCAK256 PUSH1 0x0 PUSH2 0x100 EXP DUP2 SLOAD DUP2 PUSH1 0xFF MUL NOT AND SWAP1 DUP4 ISZERO ISZERO MUL OR SWAP1 SSTORE POP PUSH1 0x5 DUP3 SWAP1 DUP1 PUSH1 0x1 DUP2 SLOAD ADD DUP1 DUP3 SSTORE DUP1 SWAP2 POP POP PUSH1 0x1 SWAP1 SUB SWAP1 PUSH1 0x0 MSTORE PUSH1 0x20 PUSH1 0x0 KECCAK256 ADD PUSH1 0x0 SWAP1 SWAP2 SWAP1 SWAP2 SWAP1 SWAP2 PUSH2 0x100 EXP DUP2 SLOAD DUP2 PUSH20 0xFFFFFFFFFFFFFFFFFFFFFFFFFFFFFFFFFFFFFFFF MUL NOT AND SWAP1 DUP4 PUSH20 0xFFFFFFFFFFFFFFFFFFFFFFFFFFFFFFFFFFFFFFFF AND MUL OR SWAP1 SSTORE POP POP POP JUMP JUMPDEST CALLVALUE PUSH1 0x1 PUSH1 0x0 DUP3 DUP3 SLOAD PUSH2 0x67F SWAP2 SWAP1 PUSH2 0xD4E JUMP JUMPDEST SWAP3 POP POP DUP2 SWAP1 SSTORE POP JUMP JUMPDEST PUSH1 0x0 DUP1 DIFFICULTY TIMESTAMP PUSH1 0x40 MLOAD PUSH1 0x20 ADD PUSH2 0x69E SWAP3 SWAP2 SWAP1 PUSH2 0x10B6 JUMP JUMPDEST PUSH1 0x40 MLOAD PUSH1 0x20 DUP2 DUP4 SUB SUB DUP2 MSTORE SWAP1 PUSH1 0x40 MSTORE DUP1 MLOAD SWAP1 PUSH1 0x20 ADD KECCAK256 PUSH1 0x0 SHR SWAP1 POP DUP3 DUP2 PUSH2 0x6C5 SWAP2 SWAP1 PUSH2 0x1111 JUMP JUMPDEST SWAP2 POP POP SWAP2 SWAP1 POP JUMP JUMPDEST PUSH1 0x0 PUSH2 0x6D7 PUSH2 0x91D JUMP JUMPDEST SWAP1 POP PUSH1 0x0 PUSH20 0xFFFFFFFFFFFFFFFFFFFFFFFFFFFFFFFFFFFFFFFF AND DUP2 PUSH20 0xFFFFFFFFFFFFFFFFFFFFFFFFFFFFFFFFFFFFFFFF AND SUB ISZERO PUSH2 0x801 JUMPI PUSH1 0x0 PUSH1 0x64 PUSH1 0xA PUSH1 0x2 SLOAD PUSH2 0x721 SWAP2 SWAP1 PUSH2 0x1142 JUMP JUMPDEST PUSH2 0x72B SWAP2 SWAP1 PUSH2 0x1184 JUMP JUMPDEST SWAP1 POP PUSH1 0x0 DUP2 PUSH1 0x2 SLOAD PUSH1 0x3 SLOAD PUSH2 0x740 SWAP2 SWAP1 PUSH2 0xD4E JUMP JUMPDEST PUSH2 0x74A SWAP2 SWAP1 PUSH2 0x11B5 JUMP JUMPDEST SWAP1 POP PUSH1 0x0 PUSH1 0x2 DUP2 SWAP1 SSTORE POP PUSH1 0x0 PUSH1 0x3 DUP2 SWAP1 SSTORE POP PUSH20 0xAB8483F64D9C6D1ECF9B849AE677DD3315835CB2 PUSH20 0xFFFFFFFFFFFFFFFFFFFFFFFFFFFFFFFFFFFFFFFF AND PUSH2 0x8FC DUP4 SWAP1 DUP2 ISZERO MUL SWAP1 PUSH1 0x40 MLOAD PUSH1 0x0 PUSH1 0x40 MLOAD DUP1 DUP4 SUB DUP2 DUP6 DUP9 DUP9 CALL SWAP4 POP POP POP POP ISZERO DUP1 ISZERO PUSH2 0x7B6 JUMPI RETURNDATASIZE PUSH1 0x0 DUP1 RETURNDATACOPY RETURNDATASIZE PUSH1 0x0 REVERT JUMPDEST POP DUP3 PUSH20 0xFFFFFFFFFFFFFFFFFFFFFFFFFFFFFFFFFFFFFFFF AND PUSH2 0x8FC DUP3 SWAP1 DUP2 ISZERO MUL SWAP1 PUSH1 0x40 MLOAD PUSH1 0x0 PUSH1 0x40 MLOAD DUP1 DUP4 SUB DUP2 DUP6 DUP9 DUP9 CALL SWAP4 POP POP POP POP ISZERO DUP1 ISZERO PUSH2 0x7FD JUMPI RETURNDATASIZE PUSH1 0x0 DUP1 RETURNDATACOPY RETURNDATASIZE PUSH1 0x0 REVERT JUMPDEST POP POP POP JUMPDEST POP JUMP JUMPDEST PUSH1 0x5 DUP2 DUP2 SLOAD DUP2 LT PUSH2 0x814 JUMPI PUSH1 0x0 DUP1 REVERT JUMPDEST SWAP1 PUSH1 0x0 MSTORE PUSH1 0x20 PUSH1 0x0 KECCAK256 ADD PUSH1 0x0 SWAP2 POP SLOAD SWAP1 PUSH2 0x100 EXP SWAP1 DIV PUSH20 0xFFFFFFFFFFFFFFFFFFFFFFFFFFFFFFFFFFFFFFFF AND DUP2 JUMP JUMPDEST PUSH1 0x0 PUSH2 0x84D PUSH2 0xB7D JUMP JUMPDEST PUSH2 0x855 PUSH2 0x90B JUMP JUMPDEST LT ISZERO PUSH2 0x864 JUMPI PUSH2 0x863 PUSH2 0x11E9 JUMP JUMPDEST JUMPDEST PUSH2 0x86C PUSH2 0xB7D JUMP JUMPDEST PUSH2 0x874 PUSH2 0x90B JUMP JUMPDEST PUSH2 0x87E SWAP2 SWAP1 PUSH2 0x11B5 JUMP JUMPDEST SWAP1 POP SWAP1 JUMP JUMPDEST PUSH1 0x1 PUSH1 0x0 DUP1 PUSH2 0x100 EXP DUP2 SLOAD DUP2 PUSH1 0xFF MUL NOT AND SWAP1 DUP4 ISZERO ISZERO MUL OR SWAP1 SSTORE POP JUMP JUMPDEST PUSH1 0x0 PUSH1 0x1 DUP2 SWAP1 SSTORE POP PUSH20 0xAB8483F64D9C6D1ECF9B849AE677DD3315835CB2 PUSH20 0xFFFFFFFFFFFFFFFFFFFFFFFFFFFFFFFFFFFFFFFF AND PUSH2 0x8FC PUSH2 0x8DD PUSH2 0x90B JUMP JUMPDEST SWAP1 DUP2 ISZERO MUL SWAP1 PUSH1 0x40 MLOAD PUSH1 0x0 PUSH1 0x40 MLOAD DUP1 DUP4 SUB DUP2 DUP6 DUP9 DUP9 CALL SWAP4 POP POP POP POP ISZERO DUP1 ISZERO PUSH2 0x908 JUMPI RETURNDATASIZE PUSH1 0x0 DUP1 RETURNDATACOPY RETURNDATASIZE PUSH1 0x0 REVERT JUMPDEST POP JUMP JUMPDEST PUSH1 0x0 SELFBALANCE SWAP1 POP SWAP1 JUMP JUMPDEST PUSH1 0x0 PUSH1 0x2 SLOAD SWAP1 POP SWAP1 JUMP JUMPDEST PUSH1 0x0 DUP1 PUSH1 0x5 DUP1 SLOAD SWAP1 POP SWAP1 POP PUSH1 0x0 DUP1 DUP3 SUB PUSH2 0x93C JUMPI PUSH1 0x0 SWAP3 POP POP POP PUSH2 0x99D JUMP JUMPDEST PUSH1 0x1 DUP3 SUB PUSH2 0x94D JUMPI PUSH1 0x0 SWAP1 POP PUSH2 0x959 JUMP JUMPDEST PUSH2 0x956 DUP3 PUSH2 0x688 JUMP JUMPDEST SWAP1 POP JUMPDEST PUSH1 0x5 DUP2 DUP2 SLOAD DUP2 LT PUSH2 0x96D JUMPI PUSH2 0x96C PUSH2 0x1218 JUMP JUMPDEST JUMPDEST SWAP1 PUSH1 0x0 MSTORE PUSH1 0x20 PUSH1 0x0 KECCAK256 ADD PUSH1 0x0 SWAP1 SLOAD SWAP1 PUSH2 0x100 EXP SWAP1 DIV PUSH20 0xFFFFFFFFFFFFFFFFFFFFFFFFFFFFFFFFFFFFFFFF AND SWAP3 POP POP POP JUMPDEST SWAP1 JUMP JUMPDEST PUSH1 0x0 DUP1 PUSH1 0x0 PUSH2 0x100 EXP DUP2 SLOAD DUP2 PUSH1 0xFF MUL NOT AND SWAP1 DUP4 ISZERO ISZERO MUL OR SWAP1 SSTORE POP JUMP JUMPDEST PUSH1 0x0 PUSH2 0x9C6 PUSH2 0x4CD JUMP JUMPDEST PUSH1 0x4 PUSH1 0x0 DUP4 PUSH20 0xFFFFFFFFFFFFFFFFFFFFFFFFFFFFFFFFFFFFFFFF AND PUSH20 0xFFFFFFFFFFFFFFFFFFFFFFFFFFFFFFFFFFFFFFFF AND DUP2 MSTORE PUSH1 0x20 ADD SWAP1 DUP2 MSTORE PUSH1 0x20 ADD PUSH1 0x0 KECCAK256 PUSH1 0x0 SWAP1 SLOAD SWAP1 PUSH2 0x100 EXP SWAP1 DIV PUSH1 0xFF AND SWAP1 POP SWAP2 SWAP1 POP JUMP JUMPDEST PUSH1 0x0 PUSH2 0xA24 PUSH2 0x90B JUMP JUMPDEST SWAP1 POP DUP1 DUP3 GT ISZERO PUSH2 0xA33 DUP4 PUSH2 0xBB5 JUMP JUMPDEST PUSH2 0xA3C DUP4 PUSH2 0xBB5 JUMP JUMPDEST PUSH1 0x40 MLOAD PUSH1 0x20 ADD PUSH2 0xA4D SWAP3 SWAP2 SWAP1 PUSH2 0x1350 JUMP JUMPDEST PUSH1 0x40 MLOAD PUSH1 0x20 DUP2 DUP4 SUB SUB DUP2 MSTORE SWAP1 PUSH1 0x40 MSTORE SWAP1 PUSH2 0xA9D JUMPI PUSH1 0x40 MLOAD PUSH32 0x8C379A000000000000000000000000000000000000000000000000000000000 DUP2 MSTORE PUSH1 0x4 ADD PUSH2 0xA94 SWAP2 SWAP1 PUSH2 0x13D8 JUMP JUMPDEST PUSH1 0x40 MLOAD DUP1 SWAP2 SUB SWAP1 REVERT JUMPDEST POP DUP2 PUSH1 0x1 PUSH1 0x0 DUP3 DUP3 SLOAD PUSH2 0xAB0 SWAP2 SWAP1 PUSH2 0x11B5 JUMP JUMPDEST SWAP3 POP POP DUP2 SWAP1 SSTORE POP PUSH20 0xAB8483F64D9C6D1ECF9B849AE677DD3315835CB2 PUSH20 0xFFFFFFFFFFFFFFFFFFFFFFFFFFFFFFFFFFFFFFFF AND PUSH2 0x8FC DUP4 SWAP1 DUP2 ISZERO MUL SWAP1 PUSH1 0x40 MLOAD PUSH1 0x0 PUSH1 0x40 MLOAD DUP1 DUP4 SUB DUP2 DUP6 DUP9 DUP9 CALL SWAP4 POP POP POP POP ISZERO DUP1 ISZERO PUSH2 0xB11 JUMPI RETURNDATASIZE PUSH1 0x0 DUP1 RETURNDATACOPY RETURNDATASIZE PUSH1 0x0 REVERT JUMPDEST POP POP POP JUMP JUMPDEST CALLVALUE PUSH1 0x3 PUSH1 0x0 DUP3 DUP3 SLOAD PUSH2 0xB28 SWAP2 SWAP1 PUSH2 0xD4E JUMP JUMPDEST SWAP3 POP POP DUP2 SWAP1 SSTORE POP JUMP JUMPDEST PUSH2 0xB39 PUSH2 0x4CD JUMP JUMPDEST CALLVALUE PUSH1 0x2 PUSH1 0x0 DUP3 DUP3 SLOAD PUSH2 0xB4B SWAP2 SWAP1 PUSH2 0xD4E JUMP JUMPDEST SWAP3 POP POP DUP2 SWAP1 SSTORE POP PUSH2 0xB5B CALLER PUSH2 0x51C JUMP JUMPDEST JUMP JUMPDEST PUSH1 0x4 PUSH1 0x20 MSTORE DUP1 PUSH1 0x0 MSTORE PUSH1 0x40 PUSH1 0x0 KECCAK256 PUSH1 0x0 SWAP2 POP SLOAD SWAP1 PUSH2 0x100 EXP SWAP1 DIV PUSH1 0xFF AND DUP2 JUMP JUMPDEST PUSH1 0x0 PUSH1 0x3 SLOAD PUSH1 0x2 SLOAD PUSH1 0x1 SLOAD PUSH2 0xB92 SWAP2 SWAP1 PUSH2 0xD4E JUMP JUMPDEST PUSH2 0xB9C SWAP2 SWAP1 PUSH2 0xD4E JUMP JUMPDEST SWAP1 POP SWAP1 JUMP JUMPDEST PUSH1 0x0 PUSH1 0x1 SLOAD SWAP1 POP SWAP1 JUMP JUMPDEST PUSH1 0x0 PUSH1 0x3 SLOAD SWAP1 POP SWAP1 JUMP JUMPDEST PUSH1 0x60 PUSH1 0x0 DUP3 SUB PUSH2 0xBFC JUMPI PUSH1 0x40 MLOAD DUP1 PUSH1 0x40 ADD PUSH1 0x40 MSTORE DUP1 PUSH1 0x1 DUP2 MSTORE PUSH1 0x20 ADD PUSH32 0x3000000000000000000000000000000000000000000000000000000000000000 DUP2 MSTORE POP SWAP1 POP PUSH2 0xD10 JUMP JUMPDEST PUSH1 0x0 DUP3 SWAP1 POP PUSH1 0x0 JUMPDEST PUSH1 0x0 DUP3 EQ PUSH2 0xC2E JUMPI DUP1 DUP1 PUSH2 0xC17 SWAP1 PUSH2 0x13FA JUMP JUMPDEST SWAP2 POP POP PUSH1 0xA DUP3 PUSH2 0xC27 SWAP2 SWAP1 PUSH2 0x1184 JUMP JUMPDEST SWAP2 POP PUSH2 0xC04 JUMP JUMPDEST PUSH1 0x0 DUP2 PUSH8 0xFFFFFFFFFFFFFFFF DUP2 GT ISZERO PUSH2 0xC4A JUMPI PUSH2 0xC49 PUSH2 0x1442 JUMP JUMPDEST JUMPDEST PUSH1 0x40 MLOAD SWAP1 DUP1 DUP3 MSTORE DUP1 PUSH1 0x1F ADD PUSH1 0x1F NOT AND PUSH1 0x20 ADD DUP3 ADD PUSH1 0x40 MSTORE DUP1 ISZERO PUSH2 0xC7C JUMPI DUP2 PUSH1 0x20 ADD PUSH1 0x1 DUP3 MUL DUP1 CALLDATASIZE DUP4 CALLDATACOPY DUP1 DUP3 ADD SWAP2 POP POP SWAP1 POP JUMPDEST POP SWAP1 POP JUMPDEST PUSH1 0x0 DUP6 EQ PUSH2 0xD09 JUMPI PUSH1 0x1 DUP3 PUSH2 0xC95 SWAP2 SWAP1 PUSH2 0x11B5 JUMP JUMPDEST SWAP2 POP PUSH1 0xA DUP6 PUSH2 0xCA4 SWAP2 SWAP1 PUSH2 0x1111 JUMP JUMPDEST PUSH1 0x30 PUSH2 0xCB0 SWAP2 SWAP1 PUSH2 0xD4E JUMP JUMPDEST PUSH1 0xF8 SHL DUP2 DUP4 DUP2 MLOAD DUP2 LT PUSH2 0xCC6 JUMPI PUSH2 0xCC5 PUSH2 0x1218 JUMP JUMPDEST JUMPDEST PUSH1 0x20 ADD ADD SWAP1 PUSH31 0xFFFFFFFFFFFFFFFFFFFFFFFFFFFFFFFFFFFFFFFFFFFFFFFFFFFFFFFFFFFFFF NOT AND SWAP1 DUP2 PUSH1 0x0 BYTE SWAP1 MSTORE8 POP PUSH1 0xA DUP6 PUSH2 0xD02 SWAP2 SWAP1 PUSH2 0x1184 JUMP JUMPDEST SWAP5 POP PUSH2 0xC80 JUMP JUMPDEST DUP1 SWAP4 POP POP POP POP JUMPDEST SWAP2 SWAP1 POP JUMP JUMPDEST PUSH1 0x0 DUP2 SWAP1 POP SWAP2 SWAP1 POP JUMP JUMPDEST PUSH32 0x4E487B7100000000000000000000000000000000000000000000000000000000 PUSH1 0x0 MSTORE PUSH1 0x11 PUSH1 0x4 MSTORE PUSH1 0x24 PUSH1 0x0 REVERT JUMPDEST PUSH1 0x0 PUSH2 0xD59 DUP3 PUSH2 0xD15 JUMP JUMPDEST SWAP2 POP PUSH2 0xD64 DUP4 PUSH2 0xD15 JUMP JUMPDEST SWAP3 POP DUP3 DUP3 ADD SWAP1 POP DUP1 DUP3 GT ISZERO PUSH2 0xD7C JUMPI PUSH2 0xD7B PUSH2 0xD1F JUMP JUMPDEST JUMPDEST SWAP3 SWAP2 POP POP JUMP JUMPDEST PUSH1 0x0 DUP1 REVERT JUMPDEST PUSH2 0xD90 DUP2 PUSH2 0xD15 JUMP JUMPDEST DUP2 EQ PUSH2 0xD9B JUMPI PUSH1 0x0 DUP1 REVERT JUMPDEST POP JUMP JUMPDEST PUSH1 0x0 DUP2 CALLDATALOAD SWAP1 POP PUSH2 0xDAD DUP2 PUSH2 0xD87 JUMP JUMPDEST SWAP3 SWAP2 POP POP JUMP JUMPDEST PUSH1 0x0 PUSH1 0x20 DUP3 DUP5 SUB SLT ISZERO PUSH2 0xDC9 JUMPI PUSH2 0xDC8 PUSH2 0xD82 JUMP JUMPDEST JUMPDEST PUSH1 0x0 PUSH2 0xDD7 DUP5 DUP3 DUP6 ADD PUSH2 0xD9E JUMP JUMPDEST SWAP2 POP POP SWAP3 SWAP2 POP POP JUMP JUMPDEST PUSH2 0xDE9 DUP2 PUSH2 0xD15 JUMP JUMPDEST DUP3 MSTORE POP POP JUMP JUMPDEST PUSH1 0x0 PUSH1 0x20 DUP3 ADD SWAP1 POP PUSH2 0xE04 PUSH1 0x0 DUP4 ADD DUP5 PUSH2 0xDE0 JUMP JUMPDEST SWAP3 SWAP2 POP POP JUMP JUMPDEST PUSH1 0x0 PUSH20 0xFFFFFFFFFFFFFFFFFFFFFFFFFFFFFFFFFFFFFFFF DUP3 AND SWAP1 POP SWAP2 SWAP1 POP JUMP JUMPDEST PUSH1 0x0 PUSH2 0xE35 DUP3 PUSH2 0xE0A JUMP JUMPDEST SWAP1 POP SWAP2 SWAP1 POP JUMP JUMPDEST PUSH2 0xE45 DUP2 PUSH2 0xE2A JUMP JUMPDEST DUP3 MSTORE POP POP JUMP JUMPDEST PUSH1 0x0 PUSH1 0x20 DUP3 ADD SWAP1 POP PUSH2 0xE60 PUSH1 0x0 DUP4 ADD DUP5 PUSH2 0xE3C JUMP JUMPDEST SWAP3 SWAP2 POP POP JUMP JUMPDEST PUSH2 0xE6F DUP2 PUSH2 0xE2A JUMP JUMPDEST DUP2 EQ PUSH2 0xE7A JUMPI PUSH1 0x0 DUP1 REVERT JUMPDEST POP JUMP JUMPDEST PUSH1 0x0 DUP2 CALLDATALOAD SWAP1 POP PUSH2 0xE8C DUP2 PUSH2 0xE66 JUMP JUMPDEST SWAP3 SWAP2 POP POP JUMP JUMPDEST PUSH1 0x0 PUSH1 0x20 DUP3 DUP5 SUB SLT ISZERO PUSH2 0xEA8 JUMPI PUSH2 0xEA7 PUSH2 0xD82 JUMP JUMPDEST JUMPDEST PUSH1 0x0 PUSH2 0xEB6 DUP5 DUP3 DUP6 ADD PUSH2 0xE7D JUMP JUMPDEST SWAP2 POP POP SWAP3 SWAP2 POP POP JUMP JUMPDEST PUSH1 0x0 DUP2 ISZERO ISZERO SWAP1 POP SWAP2 SWAP1 POP JUMP JUMPDEST PUSH2 0xED4 DUP2 PUSH2 0xEBF JUMP JUMPDEST DUP3 MSTORE POP POP JUMP JUMPDEST PUSH1 0x0 PUSH1 0x20 DUP3 ADD SWAP1 POP PUSH2 0xEEF PUSH1 0x0 DUP4 ADD DUP5 PUSH2 0xECB JUMP JUMPDEST SWAP3 SWAP2 POP POP JUMP JUMPDEST PUSH1 0x0 PUSH2 0xF00 DUP3 PUSH2 0xE0A JUMP JUMPDEST SWAP1 POP SWAP2 SWAP1 POP JUMP JUMPDEST PUSH2 0xF10 DUP2 PUSH2 0xEF5 JUMP JUMPDEST DUP2 EQ PUSH2 0xF1B JUMPI PUSH1 0x0 DUP1 REVERT JUMPDEST POP JUMP JUMPDEST PUSH1 0x0 DUP2 CALLDATALOAD SWAP1 POP PUSH2 0xF2D DUP2 PUSH2 0xF07 JUMP JUMPDEST SWAP3 SWAP2 POP POP JUMP JUMPDEST PUSH1 0x0 PUSH1 0x20 DUP3 DUP5 SUB SLT ISZERO PUSH2 0xF49 JUMPI PUSH2 0xF48 PUSH2 0xD82 JUMP JUMPDEST JUMPDEST PUSH1 0x0 PUSH2 0xF57 DUP5 DUP3 DUP6 ADD PUSH2 0xF1E JUMP JUMPDEST SWAP2 POP POP SWAP3 SWAP2 POP POP JUMP JUMPDEST PUSH1 0x0 DUP3 DUP3 MSTORE PUSH1 0x20 DUP3 ADD SWAP1 POP SWAP3 SWAP2 POP POP JUMP JUMPDEST PUSH32 0x5468697320636F6E74726163742069732063757272656E746C79206469736162 PUSH1 0x0 DUP3 ADD MSTORE PUSH32 0x6C65642E00000000000000000000000000000000000000000000000000000000 PUSH1 0x20 DUP3 ADD MSTORE POP JUMP JUMPDEST PUSH1 0x0 PUSH2 0xFCD PUSH1 0x24 DUP4 PUSH2 0xF60 JUMP JUMPDEST SWAP2 POP PUSH2 0xFD8 DUP3 PUSH2 0xF71 JUMP JUMPDEST PUSH1 0x40 DUP3 ADD SWAP1 POP SWAP2 SWAP1 POP JUMP JUMPDEST PUSH1 0x0 PUSH1 0x20 DUP3 ADD SWAP1 POP DUP2 DUP2 SUB PUSH1 0x0 DUP4 ADD MSTORE PUSH2 0xFFC DUP2 PUSH2 0xFC0 JUMP JUMPDEST SWAP1 POP SWAP2 SWAP1 POP JUMP JUMPDEST PUSH32 0x5468697320616464726573732068617320616C726561647920656E7465726564 PUSH1 0x0 DUP3 ADD MSTORE PUSH32 0x20746865206C6F74746572792E00000000000000000000000000000000000000 PUSH1 0x20 DUP3 ADD MSTORE POP JUMP JUMPDEST PUSH1 0x0 PUSH2 0x105F PUSH1 0x2D DUP4 PUSH2 0xF60 JUMP JUMPDEST SWAP2 POP PUSH2 0x106A DUP3 PUSH2 0x1003 JUMP JUMPDEST PUSH1 0x40 DUP3 ADD SWAP1 POP SWAP2 SWAP1 POP JUMP JUMPDEST PUSH1 0x0 PUSH1 0x20 DUP3 ADD SWAP1 POP DUP2 DUP2 SUB PUSH1 0x0 DUP4 ADD MSTORE PUSH2 0x108E DUP2 PUSH2 0x1052 JUMP JUMPDEST SWAP1 POP SWAP2 SWAP1 POP JUMP JUMPDEST PUSH1 0x0 DUP2 SWAP1 POP SWAP2 SWAP1 POP JUMP JUMPDEST PUSH2 0x10B0 PUSH2 0x10AB DUP3 PUSH2 0xD15 JUMP JUMPDEST PUSH2 0x1095 JUMP JUMPDEST DUP3 MSTORE POP POP JUMP JUMPDEST PUSH1 0x0 PUSH2 0x10C2 DUP3 DUP6 PUSH2 0x109F JUMP JUMPDEST PUSH1 0x20 DUP3 ADD SWAP2 POP PUSH2 0x10D2 DUP3 DUP5 PUSH2 0x109F JUMP JUMPDEST PUSH1 0x20 DUP3 ADD SWAP2 POP DUP2 SWAP1 POP SWAP4 SWAP3 POP POP POP JUMP JUMPDEST PUSH32 0x4E487B7100000000000000000000000000000000000000000000000000000000 PUSH1 0x0 MSTORE PUSH1 0x12 PUSH1 0x4 MSTORE PUSH1 0x24 PUSH1 0x0 REVERT JUMPDEST PUSH1 0x0 PUSH2 0x111C DUP3 PUSH2 0xD15 JUMP JUMPDEST SWAP2 POP PUSH2 0x1127 DUP4 PUSH2 0xD15 JUMP JUMPDEST SWAP3 POP DUP3 PUSH2 0x1137 JUMPI PUSH2 0x1136 PUSH2 0x10E2 JUMP JUMPDEST JUMPDEST DUP3 DUP3 MOD SWAP1 POP SWAP3 SWAP2 POP POP JUMP JUMPDEST PUSH1 0x0 PUSH2 0x114D DUP3 PUSH2 0xD15 JUMP JUMPDEST SWAP2 POP PUSH2 0x1158 DUP4 PUSH2 0xD15 JUMP JUMPDEST SWAP3 POP DUP3 DUP3 MUL PUSH2 0x1166 DUP2 PUSH2 0xD15 JUMP JUMPDEST SWAP2 POP DUP3 DUP3 DIV DUP5 EQ DUP4 ISZERO OR PUSH2 0x117D JUMPI PUSH2 0x117C PUSH2 0xD1F JUMP JUMPDEST JUMPDEST POP SWAP3 SWAP2 POP POP JUMP JUMPDEST PUSH1 0x0 PUSH2 0x118F DUP3 PUSH2 0xD15 JUMP JUMPDEST SWAP2 POP PUSH2 0x119A DUP4 PUSH2 0xD15 JUMP JUMPDEST SWAP3 POP DUP3 PUSH2 0x11AA JUMPI PUSH2 0x11A9 PUSH2 0x10E2 JUMP JUMPDEST JUMPDEST DUP3 DUP3 DIV SWAP1 POP SWAP3 SWAP2 POP POP JUMP JUMPDEST PUSH1 0x0 PUSH2 0x11C0 DUP3 PUSH2 0xD15 JUMP JUMPDEST SWAP2 POP PUSH2 0x11CB DUP4 PUSH2 0xD15 JUMP JUMPDEST SWAP3 POP DUP3 DUP3 SUB SWAP1 POP DUP2 DUP2 GT ISZERO PUSH2 0x11E3 JUMPI PUSH2 0x11E2 PUSH2 0xD1F JUMP JUMPDEST JUMPDEST SWAP3 SWAP2 POP POP JUMP JUMPDEST PUSH32 0x4E487B7100000000000000000000000000000000000000000000000000000000 PUSH1 0x0 MSTORE PUSH1 0x1 PUSH1 0x4 MSTORE PUSH1 0x24 PUSH1 0x0 REVERT JUMPDEST PUSH32 0x4E487B7100000000000000000000000000000000000000000000000000000000 PUSH1 0x0 MSTORE PUSH1 0x32 PUSH1 0x4 MSTORE PUSH1 0x24 PUSH1 0x0 REVERT JUMPDEST PUSH32 0x54686520616D6F756E7420000000000000000000000000000000000000000000 DUP2 MSTORE POP JUMP JUMPDEST PUSH1 0x0 DUP2 MLOAD SWAP1 POP SWAP2 SWAP1 POP JUMP JUMPDEST PUSH1 0x0 DUP2 SWAP1 POP SWAP3 SWAP2 POP POP JUMP JUMPDEST PUSH1 0x0 JUMPDEST DUP4 DUP2 LT ISZERO PUSH2 0x12A1 JUMPI DUP1 DUP3 ADD MLOAD DUP2 DUP5 ADD MSTORE PUSH1 0x20 DUP2 ADD SWAP1 POP PUSH2 0x1286 JUMP JUMPDEST PUSH1 0x0 DUP5 DUP5 ADD MSTORE POP POP POP POP JUMP JUMPDEST PUSH1 0x0 PUSH2 0x12B8 DUP3 PUSH2 0x126D JUMP JUMPDEST PUSH2 0x12C2 DUP2 DUP6 PUSH2 0x1278 JUMP JUMPDEST SWAP4 POP PUSH2 0x12D2 DUP2 DUP6 PUSH1 0x20 DUP7 ADD PUSH2 0x1283 JUMP JUMPDEST DUP1 DUP5 ADD SWAP2 POP POP SWAP3 SWAP2 POP POP JUMP JUMPDEST PUSH32 0x2069732067726561746572207468616E2074686520636F6E7472616374206261 PUSH1 0x0 DUP3 ADD MSTORE PUSH32 0x6C616E6365200000000000000000000000000000000000000000000000000000 PUSH1 0x20 DUP3 ADD MSTORE POP JUMP JUMPDEST PUSH1 0x0 PUSH2 0x133A PUSH1 0x26 DUP4 PUSH2 0x1278 JUMP JUMPDEST SWAP2 POP PUSH2 0x1345 DUP3 PUSH2 0x12DE JUMP JUMPDEST PUSH1 0x26 DUP3 ADD SWAP1 POP SWAP2 SWAP1 POP JUMP JUMPDEST PUSH1 0x0 PUSH2 0x135B DUP3 PUSH2 0x1247 JUMP JUMPDEST PUSH1 0xB DUP3 ADD SWAP2 POP PUSH2 0x136B DUP3 DUP6 PUSH2 0x12AD JUMP JUMPDEST SWAP2 POP PUSH2 0x1376 DUP3 PUSH2 0x132D JUMP JUMPDEST SWAP2 POP PUSH2 0x1382 DUP3 DUP5 PUSH2 0x12AD JUMP JUMPDEST SWAP2 POP DUP2 SWAP1 POP SWAP4 SWAP3 POP POP POP JUMP JUMPDEST PUSH1 0x0 PUSH1 0x1F NOT PUSH1 0x1F DUP4 ADD AND SWAP1 POP SWAP2 SWAP1 POP JUMP JUMPDEST PUSH1 0x0 PUSH2 0x13AA DUP3 PUSH2 0x126D JUMP JUMPDEST PUSH2 0x13B4 DUP2 DUP6 PUSH2 0xF60 JUMP JUMPDEST SWAP4 POP PUSH2 0x13C4 DUP2 DUP6 PUSH1 0x20 DUP7 ADD PUSH2 0x1283 JUMP JUMPDEST PUSH2 0x13CD DUP2 PUSH2 0x138E JUMP JUMPDEST DUP5 ADD SWAP2 POP POP SWAP3 SWAP2 POP POP JUMP JUMPDEST PUSH1 0x0 PUSH1 0x20 DUP3 ADD SWAP1 POP DUP2 DUP2 SUB PUSH1 0x0 DUP4 ADD MSTORE PUSH2 0x13F2 DUP2 DUP5 PUSH2 0x139F JUMP JUMPDEST SWAP1 POP SWAP3 SWAP2 POP POP JUMP JUMPDEST PUSH1 0x0 PUSH2 0x1405 DUP3 PUSH2 0xD15 JUMP JUMPDEST SWAP2 POP PUSH32 0xFFFFFFFFFFFFFFFFFFFFFFFFFFFFFFFFFFFFFFFFFFFFFFFFFFFFFFFFFFFFFFFF DUP3 SUB PUSH2 0x1437 JUMPI PUSH2 0x1436 PUSH2 0xD1F JUMP JUMPDEST JUMPDEST PUSH1 0x1 DUP3 ADD SWAP1 POP SWAP2 SWAP1 POP JUMP JUMPDEST PUSH32 0x4E487B7100000000000000000000000000000000000000000000000000000000 PUSH1 0x0 MSTORE PUSH1 0x41 PUSH1 0x4 MSTORE PUSH1 0x24 PUSH1 0x0 REVERT INVALID LOG2 PUSH5 0x6970667358 0x22 SLT KECCAK256 PUSH25 0xE71758372A99C0D9AD9E92D0C5D47CA3990B37234C4F02A20E 0xC7 0x5E PUSH20 0xCBBE2364736F6C63430008110033000000000000 "
				},
				"gasEstimates": {
					"creation": {
						"codeDepositCost": "1057400",
						"executionCost": "25343",
						"totalCost": "1082743"
					},
					"external": {
						"addBonusPrizePool()": "infinite",
						"addContractFunds()": "infinite",
						"chooseWinningAddress()": "infinite",
						"disableContract()": "24456",
						"enableContract()": "24434",
						"endLottery()": "infinite",
						"fundLottery()": "infinite",
						"getAccountedContractBalance()": "infinite",
						"getBonusPrizePool()": "2569",
						"getContractBalance()": "428",
						"getContractFunds()": "2547",
						"getExtraContractBalance()": "infinite",
						"getPlayerPrizePool()": "2548",
						"isAddressPlaying(address)": "5124",
						"list_playerAddress(uint256)": "5046",
						"map_isPlaying(address)": "2911",
						"randomInt(uint256)": "infinite",
						"registerAddress(address)": "75672",
						"removeAllContractFunds()": "infinite",
						"removeContractFunds(uint256)": "infinite",
						"requireContractEnabled()": "2646"
					}
				},
				"methodIdentifiers": {
					"addBonusPrizePool()": "97d47113",
					"addContractFunds()": "008b8d89",
					"chooseWinningAddress()": "7f798243",
					"disableContract()": "894ba833",
					"enableContract()": "367edd32",
					"endLottery()": "1593a8c7",
					"fundLottery()": "b5cc4539",
					"getAccountedContractBalance()": "d1cdb323",
					"getBonusPrizePool()": "f0d5c534",
					"getContractBalance()": "6f9fb98a",
					"getContractFunds()": "e0cb8a81",
					"getExtraContractBalance()": "2a41a975",
					"getPlayerPrizePool()": "7c623f7b",
					"isAddressPlaying(address)": "912a90bb",
					"list_playerAddress(uint256)": "27dff143",
					"map_isPlaying(address)": "bff82dee",
					"randomInt(uint256)": "12845966",
					"registerAddress(address)": "a8a54008",
					"removeAllContractFunds()": "605e16ec",
					"removeContractFunds(uint256)": "944b3fe5",
					"requireContractEnabled()": "3b4ad0e5"
				}
			},
			"storageLayout": {
				"storage": [
					{
						"astId": 231,
						"contract": "contracts/lottery.sol:Lottery",
						"label": "isContractEnabled",
						"offset": 0,
						"slot": "0",
						"type": "t_bool"
					},
					{
						"astId": 248,
						"contract": "contracts/lottery.sol:Lottery",
						"label": "contractFunds",
						"offset": 0,
						"slot": "1",
						"type": "t_uint256"
					},
					{
						"astId": 250,
						"contract": "contracts/lottery.sol:Lottery",
						"label": "playerPrizePool",
						"offset": 0,
						"slot": "2",
						"type": "t_uint256"
					},
					{
						"astId": 252,
						"contract": "contracts/lottery.sol:Lottery",
						"label": "bonusPrizePool",
						"offset": 0,
						"slot": "3",
						"type": "t_uint256"
					},
					{
						"astId": 256,
						"contract": "contracts/lottery.sol:Lottery",
						"label": "map_isPlaying",
						"offset": 0,
						"slot": "4",
						"type": "t_mapping(t_address,t_bool)"
					},
					{
						"astId": 259,
						"contract": "contracts/lottery.sol:Lottery",
						"label": "list_playerAddress",
						"offset": 0,
						"slot": "5",
						"type": "t_array(t_address_payable)dyn_storage"
					}
				],
				"types": {
					"t_address": {
						"encoding": "inplace",
						"label": "address",
						"numberOfBytes": "20"
					},
					"t_address_payable": {
						"encoding": "inplace",
						"label": "address payable",
						"numberOfBytes": "20"
					},
					"t_array(t_address_payable)dyn_storage": {
						"base": "t_address_payable",
						"encoding": "dynamic_array",
						"label": "address payable[]",
						"numberOfBytes": "32"
					},
					"t_bool": {
						"encoding": "inplace",
						"label": "bool",
						"numberOfBytes": "1"
					},
					"t_mapping(t_address,t_bool)": {
						"encoding": "mapping",
						"key": "t_address",
						"label": "mapping(address => bool)",
						"numberOfBytes": "32",
						"value": "t_bool"
					},
					"t_uint256": {
						"encoding": "inplace",
						"label": "uint256",
						"numberOfBytes": "32"
					}
				}
			},
			"userdoc": {
				"kind": "user",
				"methods": {},
				"version": 1
			}
		}
	}
}