{
	"data": {
		"bytecode": {
			"linkReferences": {},
			"object": "608060405260016000806101000a81548160ff0219169083151502179055506114a78061002d6000396000f3fe60806040526004361061012d5760003560e01c80637f798243116100ab578063a8a540081161006f578063a8a54008146103dc578063b5cc453914610405578063bff82dee1461040f578063d1cdb3231461044c578063e0cb8a8114610477578063f0d5c534146104a2576101c4565b80637f7982431461032a578063894ba83314610355578063912a90bb1461036c578063944b3fe5146103a957806397d47113146103d2576101c4565b8063367edd32116100f2578063367edd321461028f5780633b4ad0e5146102a6578063605e16ec146102bd5780636f9fb98a146102d45780637c623f7b146102ff576101c4565b80628b8d89146101c957806312845966146101d35780631593a8c71461021057806327dff143146102275780632a41a97514610264576101c4565b366101c45773ab8483f64d9c6d1ecf9b849ae677dd3315835cb273ffffffffffffffffffffffffffffffffffffffff163373ffffffffffffffffffffffffffffffffffffffff160361019f576101816104cd565b34600160008282546101939190610d4e565b925050819055506101c2565b34600260008282546101b19190610d4e565b925050819055506101c13361051c565b5b005b600080fd5b6101d161066d565b005b3480156101df57600080fd5b506101fa60048036038101906101f59190610db3565b610688565b6040516102079190610def565b60405180910390f35b34801561021c57600080fd5b506102256106cd565b005b34801561023357600080fd5b5061024e60048036038101906102499190610db3565b610804565b60405161025b9190610e4b565b60405180910390f35b34801561027057600080fd5b50610279610843565b6040516102869190610def565b60405180910390f35b34801561029b57600080fd5b506102a4610883565b005b3480156102b257600080fd5b506102bb6104cd565b005b3480156102c957600080fd5b506102d261089f565b005b3480156102e057600080fd5b506102e961090b565b6040516102f69190610def565b60405180910390f35b34801561030b57600080fd5b50610314610913565b6040516103219190610def565b60405180910390f35b34801561033657600080fd5b5061033f61091d565b60405161034c9190610e4b565b60405180910390f35b34801561036157600080fd5b5061036a6109a0565b005b34801561037857600080fd5b50610393600480360381019061038e9190610e92565b6109bc565b6040516103a09190610eda565b60405180910390f35b3480156103b557600080fd5b506103d060048036038101906103cb9190610db3565b610a1a565b005b6103da610b16565b005b3480156103e857600080fd5b5061040360048036038101906103fe9190610e92565b61051c565b005b61040d610b31565b005b34801561041b57600080fd5b5061043660048036038101906104319190610f33565b610b5d565b6040516104439190610eda565b60405180910390f35b34801561045857600080fd5b50610461610b7d565b60405161046e9190610def565b60405180910390f35b34801561048357600080fd5b5061048c610ba1565b6040516104999190610def565b60405180910390f35b3480156104ae57600080fd5b506104b7610bab565b6040516104c49190610def565b60405180910390f35b60008054906101000a900460ff1661051a576040517f08c379a000000000000000000000000000000000000000000000000000000000815260040161051190610fe3565b60405180910390fd5b565b6000600460008373ffffffffffffffffffffffffffffffffffffffff1673ffffffffffffffffffffffffffffffffffffffff16815260200190815260200160002060009054906101000a900460ff16905080156105ae576040517f08c379a00000000000000000000000000000000000000000000000000000000081526004016105a590611075565b60405180910390fd5b6001600460008473ffffffffffffffffffffffffffffffffffffffff1673ffffffffffffffffffffffffffffffffffffffff16815260200190815260200160002060006101000a81548160ff0219169083151502179055506005829080600181540180825580915050600190039060005260206000200160009091909190916101000a81548173ffffffffffffffffffffffffffffffffffffffff021916908373ffffffffffffffffffffffffffffffffffffffff1602179055505050565b346001600082825461067f9190610d4e565b92505081905550565b600080444260405160200161069e9291906110b6565b6040516020818303038152906040528051906020012060001c905082816106c59190611111565b915050919050565b60006106d761091d565b9050600073ffffffffffffffffffffffffffffffffffffffff168173ffffffffffffffffffffffffffffffffffffffff1603156108015760006064600a6002546107219190611142565b61072b9190611184565b90506000816002546003546107409190610d4e565b61074a91906111b5565b90506000600281905550600060038190555073ab8483f64d9c6d1ecf9b849ae677dd3315835cb273ffffffffffffffffffffffffffffffffffffffff166108fc839081150290604051600060405180830381858888f193505050501580156107b6573d6000803e3d6000fd5b508273ffffffffffffffffffffffffffffffffffffffff166108fc829081150290604051600060405180830381858888f193505050501580156107fd573d6000803e3d6000fd5b5050505b50565b6005818154811061081457600080fd5b906000526020600020016000915054906101000a900473ffffffffffffffffffffffffffffffffffffffff1681565b600061084d610b7d565b61085561090b565b1015610864576108636111e9565b5b61086c610b7d565b61087461090b565b61087e91906111b5565b905090565b60016000806101000a81548160ff021916908315150217905550565b600060018190555073ab8483f64d9c6d1ecf9b849ae677dd3315835cb273ffffffffffffffffffffffffffffffffffffffff166108fc6108dd61090b565b9081150290604051600060405180830381858888f19350505050158015610908573d6000803e3d6000fd5b50565b600047905090565b6000600254905090565b6000806005805490509050600080820361093c5760009250505061099d565b6001820361094d5760009050610959565b61095682610688565b90505b6005818154811061096d5761096c611218565b5b9060005260206000200160009054906101000a900473ffffffffffffffffffffffffffffffffffffffff16925050505b90565b60008060006101000a81548160ff021916908315150217905550565b60006109c66104cd565b600460008373ffffffffffffffffffffffffffffffffffffffff1673ffffffffffffffffffffffffffffffffffffffff16815260200190815260200160002060009054906101000a900460ff169050919050565b6000610a2461090b565b905080821115610a3383610bb5565b610a3c83610bb5565b604051602001610a4d929190611350565b60405160208183030381529060405290610a9d576040517f08c379a0000000000000000000000000000000000000000000000000000000008152600401610a9491906113d8565b60405180910390fd5b508160016000828254610ab091906111b5565b9250508190555073ab8483f64d9c6d1ecf9b849ae677dd3315835cb273ffffffffffffffffffffffffffffffffffffffff166108fc839081150290604051600060405180830381858888f19350505050158015610b11573d6000803e3d6000fd5b505050565b3460036000828254610b289190610d4e565b92505081905550565b610b396104cd565b3460026000828254610b4b9190610d4e565b92505081905550610b5b3361051c565b565b60046020528060005260406000206000915054906101000a900460ff1681565b6000600354600254600154610b929190610d4e565b610b9c9190610d4e565b905090565b6000600154905090565b6000600354905090565b606060008203610bfc576040518060400160405280600181526020017f30000000000000000000000000000000000000000000000000000000000000008152509050610d10565b600082905060005b60008214610c2e578080610c17906113fa565b915050600a82610c279190611184565b9150610c04565b60008167ffffffffffffffff811115610c4a57610c49611442565b5b6040519080825280601f01601f191660200182016040528015610c7c5781602001600182028036833780820191505090505b5090505b60008514610d0957600182610c9591906111b5565b9150600a85610ca49190611111565b6030610cb09190610d4e565b60f81b818381518110610cc657610cc5611218565b5b60200101907effffffffffffffffffffffffffffffffffffffffffffffffffffffffffffff1916908160001a905350600a85610d029190611184565b9450610c80565b8093505050505b919050565b6000819050919050565b7f4e487b7100000000000000000000000000000000000000000000000000000000600052601160045260246000fd5b6000610d5982610d15565b9150610d6483610d15565b9250828201905080821115610d7c57610d7b610d1f565b5b92915050565b600080fd5b610d9081610d15565b8114610d9b57600080fd5b50565b600081359050610dad81610d87565b92915050565b600060208284031215610dc957610dc8610d82565b5b6000610dd784828501610d9e565b91505092915050565b610de981610d15565b82525050565b6000602082019050610e046000830184610de0565b92915050565b600073ffffffffffffffffffffffffffffffffffffffff82169050919050565b6000610e3582610e0a565b9050919050565b610e4581610e2a565b82525050565b6000602082019050610e606000830184610e3c565b92915050565b610e6f81610e2a565b8114610e7a57600080fd5b50565b600081359050610e8c81610e66565b92915050565b600060208284031215610ea857610ea7610d82565b5b6000610eb684828501610e7d565b91505092915050565b60008115159050919050565b610ed481610ebf565b82525050565b6000602082019050610eef6000830184610ecb565b92915050565b6000610f0082610e0a565b9050919050565b610f1081610ef5565b8114610f1b57600080fd5b50565b600081359050610f2d81610f07565b92915050565b600060208284031215610f4957610f48610d82565b5b6000610f5784828501610f1e565b91505092915050565b600082825260208201905092915050565b7f5468697320636f6e74726163742069732063757272656e746c7920646973616260008201527f6c65642e00000000000000000000000000000000000000000000000000000000602082015250565b6000610fcd602483610f60565b9150610fd882610f71565b604082019050919050565b60006020820190508181036000830152610ffc81610fc0565b9050919050565b7f5468697320616464726573732068617320616c726561647920656e746572656460008201527f20746865206c6f74746572792e00000000000000000000000000000000000000602082015250565b600061105f602d83610f60565b915061106a82611003565b604082019050919050565b6000602082019050818103600083015261108e81611052565b9050919050565b6000819050919050565b6110b06110ab82610d15565b611095565b82525050565b60006110c2828561109f565b6020820191506110d2828461109f565b6020820191508190509392505050565b7f4e487b7100000000000000000000000000000000000000000000000000000000600052601260045260246000fd5b600061111c82610d15565b915061112783610d15565b925082611137576111366110e2565b5b828206905092915050565b600061114d82610d15565b915061115883610d15565b925082820261116681610d15565b9150828204841483151761117d5761117c610d1f565b5b5092915050565b600061118f82610d15565b915061119a83610d15565b9250826111aa576111a96110e2565b5b828204905092915050565b60006111c082610d15565b91506111cb83610d15565b92508282039050818111156111e3576111e2610d1f565b5b92915050565b7f4e487b7100000000000000000000000000000000000000000000000000000000600052600160045260246000fd5b7f4e487b7100000000000000000000000000000000000000000000000000000000600052603260045260246000fd5b7f54686520616d6f756e7420000000000000000000000000000000000000000000815250565b600081519050919050565b600081905092915050565b60005b838110156112a1578082015181840152602081019050611286565b60008484015250505050565b60006112b88261126d565b6112c28185611278565b93506112d2818560208601611283565b80840191505092915050565b7f2069732067726561746572207468616e2074686520636f6e747261637420626160008201527f6c616e6365200000000000000000000000000000000000000000000000000000602082015250565b600061133a602683611278565b9150611345826112de565b602682019050919050565b600061135b82611247565b600b8201915061136b82856112ad565b91506113768261132d565b915061138282846112ad565b91508190509392505050565b6000601f19601f8301169050919050565b60006113aa8261126d565b6113b48185610f60565b93506113c4818560208601611283565b6113cd8161138e565b840191505092915050565b600060208201905081810360008301526113f2818461139f565b905092915050565b600061140582610d15565b91507fffffffffffffffffffffffffffffffffffffffffffffffffffffffffffffffff820361143757611436610d1f565b5b600182019050919050565b7f4e487b7100000000000000000000000000000000000000000000000000000000600052604160045260246000fdfea26469706673582212201b529a396bd06776bfab2b641456c8eb48364707673ed40bc355200f9c58451f64736f6c63430008110033",
			"opcodes": "PUSH1 0x80 PUSH1 0x40 MSTORE PUSH1 0x1 PUSH1 0x0 DUP1 PUSH2 0x100 EXP DUP2 SLOAD DUP2 PUSH1 0xFF MUL NOT AND SWAP1 DUP4 ISZERO ISZERO MUL OR SWAP1 SSTORE POP PUSH2 0x14A7 DUP1 PUSH2 0x2D PUSH1 0x0 CODECOPY PUSH1 0x0 RETURN INVALID PUSH1 0x80 PUSH1 0x40 MSTORE PUSH1 0x4 CALLDATASIZE LT PUSH2 0x12D JUMPI PUSH1 0x0 CALLDATALOAD PUSH1 0xE0 SHR DUP1 PUSH4 0x7F798243 GT PUSH2 0xAB JUMPI DUP1 PUSH4 0xA8A54008 GT PUSH2 0x6F JUMPI DUP1 PUSH4 0xA8A54008 EQ PUSH2 0x3DC JUMPI DUP1 PUSH4 0xB5CC4539 EQ PUSH2 0x405 JUMPI DUP1 PUSH4 0xBFF82DEE EQ PUSH2 0x40F JUMPI DUP1 PUSH4 0xD1CDB323 EQ PUSH2 0x44C JUMPI DUP1 PUSH4 0xE0CB8A81 EQ PUSH2 0x477 JUMPI DUP1 PUSH4 0xF0D5C534 EQ PUSH2 0x4A2 JUMPI PUSH2 0x1C4 JUMP JUMPDEST DUP1 PUSH4 0x7F798243 EQ PUSH2 0x32A JUMPI DUP1 PUSH4 0x894BA833 EQ PUSH2 0x355 JUMPI DUP1 PUSH4 0x912A90BB EQ PUSH2 0x36C JUMPI DUP1 PUSH4 0x944B3FE5 EQ PUSH2 0x3A9 JUMPI DUP1 PUSH4 0x97D47113 EQ PUSH2 0x3D2 JUMPI PUSH2 0x1C4 JUMP JUMPDEST DUP1 PUSH4 0x367EDD32 GT PUSH2 0xF2 JUMPI DUP1 PUSH4 0x367EDD32 EQ PUSH2 0x28F JUMPI DUP1 PUSH4 0x3B4AD0E5 EQ PUSH2 0x2A6 JUMPI DUP1 PUSH4 0x605E16EC EQ PUSH2 0x2BD JUMPI DUP1 PUSH4 0x6F9FB98A EQ PUSH2 0x2D4 JUMPI DUP1 PUSH4 0x7C623F7B EQ PUSH2 0x2FF JUMPI PUSH2 0x1C4 JUMP JUMPDEST DUP1 PUSH3 0x8B8D89 EQ PUSH2 0x1C9 JUMPI DUP1 PUSH4 0x12845966 EQ PUSH2 0x1D3 JUMPI DUP1 PUSH4 0x1593A8C7 EQ PUSH2 0x210 JUMPI DUP1 PUSH4 0x27DFF143 EQ PUSH2 0x227 JUMPI DUP1 PUSH4 0x2A41A975 EQ PUSH2 0x264 JUMPI PUSH2 0x1C4 JUMP JUMPDEST CALLDATASIZE PUSH2 0x1C4 JUMPI PUSH20 0xAB8483F64D9C6D1ECF9B849AE677DD3315835CB2 PUSH20 0xFFFFFFFFFFFFFFFFFFFFFFFFFFFFFFFFFFFFFFFF AND CALLER PUSH20 0xFFFFFFFFFFFFFFFFFFFFFFFFFFFFFFFFFFFFFFFF AND SUB PUSH2 0x19F JUMPI PUSH2 0x181 PUSH2 0x4CD JUMP JUMPDEST CALLVALUE PUSH1 0x1 PUSH1 0x0 DUP3 DUP3 SLOAD PUSH2 0x193 SWAP2 SWAP1 PUSH2 0xD4E JUMP JUMPDEST SWAP3 POP POP DUP2 SWAP1 SSTORE POP PUSH2 0x1C2 JUMP JUMPDEST CALLVALUE PUSH1 0x2 PUSH1 0x0 DUP3 DUP3 SLOAD PUSH2 0x1B1 SWAP2 SWAP1 PUSH2 0xD4E JUMP JUMPDEST SWAP3 POP POP DUP2 SWAP1 SSTORE POP PUSH2 0x1C1 CALLER PUSH2 0x51C JUMP JUMPDEST JUMPDEST STOP JUMPDEST PUSH1 0x0 DUP1 REVERT JUMPDEST PUSH2 0x1D1 PUSH2 0x66D JUMP JUMPDEST STOP JUMPDEST CALLVALUE DUP1 ISZERO PUSH2 0x1DF JUMPI PUSH1 0x0 DUP1 REVERT JUMPDEST POP PUSH2 0x1FA PUSH1 0x4 DUP1 CALLDATASIZE SUB DUP2 ADD SWAP1 PUSH2 0x1F5 SWAP2 SWAP1 PUSH2 0xDB3 JUMP JUMPDEST PUSH2 0x688 JUMP JUMPDEST PUSH1 0x40 MLOAD PUSH2 0x207 SWAP2 SWAP1 PUSH2 0xDEF JUMP JUMPDEST PUSH1 0x40 MLOAD DUP1 SWAP2 SUB SWAP1 RETURN JUMPDEST CALLVALUE DUP1 ISZERO PUSH2 0x21C JUMPI PUSH1 0x0 DUP1 REVERT JUMPDEST POP PUSH2 0x225 PUSH2 0x6CD JUMP JUMPDEST STOP JUMPDEST CALLVALUE DUP1 ISZERO PUSH2 0x233 JUMPI PUSH1 0x0 DUP1 REVERT JUMPDEST POP PUSH2 0x24E PUSH1 0x4 DUP1 CALLDATASIZE SUB DUP2 ADD SWAP1 PUSH2 0x249 SWAP2 SWAP1 PUSH2 0xDB3 JUMP JUMPDEST PUSH2 0x804 JUMP JUMPDEST PUSH1 0x40 MLOAD PUSH2 0x25B SWAP2 SWAP1 PUSH2 0xE4B JUMP JUMPDEST PUSH1 0x40 MLOAD DUP1 SWAP2 SUB SWAP1 RETURN JUMPDEST CALLVALUE DUP1 ISZERO PUSH2 0x270 JUMPI PUSH1 0x0 DUP1 REVERT JUMPDEST POP PUSH2 0x279 PUSH2 0x843 JUMP JUMPDEST PUSH1 0x40 MLOAD PUSH2 0x286 SWAP2 SWAP1 PUSH2 0xDEF JUMP JUMPDEST PUSH1 0x40 MLOAD DUP1 SWAP2 SUB SWAP1 RETURN JUMPDEST CALLVALUE DUP1 ISZERO PUSH2 0x29B JUMPI PUSH1 0x0 DUP1 REVERT JUMPDEST POP PUSH2 0x2A4 PUSH2 0x883 JUMP JUMPDEST STOP JUMPDEST CALLVALUE DUP1 ISZERO PUSH2 0x2B2 JUMPI PUSH1 0x0 DUP1 REVERT JUMPDEST POP PUSH2 0x2BB PUSH2 0x4CD JUMP JUMPDEST STOP JUMPDEST CALLVALUE DUP1 ISZERO PUSH2 0x2C9 JUMPI PUSH1 0x0 DUP1 REVERT JUMPDEST POP PUSH2 0x2D2 PUSH2 0x89F JUMP JUMPDEST STOP JUMPDEST CALLVALUE DUP1 ISZERO PUSH2 0x2E0 JUMPI PUSH1 0x0 DUP1 REVERT JUMPDEST POP PUSH2 0x2E9 PUSH2 0x90B JUMP JUMPDEST PUSH1 0x40 MLOAD PUSH2 0x2F6 SWAP2 SWAP1 PUSH2 0xDEF JUMP JUMPDEST PUSH1 0x40 MLOAD DUP1 SWAP2 SUB SWAP1 RETURN JUMPDEST CALLVALUE DUP1 ISZERO PUSH2 0x30B JUMPI PUSH1 0x0 DUP1 REVERT JUMPDEST POP PUSH2 0x314 PUSH2 0x913 JUMP JUMPDEST PUSH1 0x40 MLOAD PUSH2 0x321 SWAP2 SWAP1 PUSH2 0xDEF JUMP JUMPDEST PUSH1 0x40 MLOAD DUP1 SWAP2 SUB SWAP1 RETURN JUMPDEST CALLVALUE DUP1 ISZERO PUSH2 0x336 JUMPI PUSH1 0x0 DUP1 REVERT JUMPDEST POP PUSH2 0x33F PUSH2 0x91D JUMP JUMPDEST PUSH1 0x40 MLOAD PUSH2 0x34C SWAP2 SWAP1 PUSH2 0xE4B JUMP JUMPDEST PUSH1 0x40 MLOAD DUP1 SWAP2 SUB SWAP1 RETURN JUMPDEST CALLVALUE DUP1 ISZERO PUSH2 0x361 JUMPI PUSH1 0x0 DUP1 REVERT JUMPDEST POP PUSH2 0x36A PUSH2 0x9A0 JUMP JUMPDEST STOP JUMPDEST CALLVALUE DUP1 ISZERO PUSH2 0x378 JUMPI PUSH1 0x0 DUP1 REVERT JUMPDEST POP PUSH2 0x393 PUSH1 0x4 DUP1 CALLDATASIZE SUB DUP2 ADD SWAP1 PUSH2 0x38E SWAP2 SWAP1 PUSH2 0xE92 JUMP JUMPDEST PUSH2 0x9BC JUMP JUMPDEST PUSH1 0x40 MLOAD PUSH2 0x3A0 SWAP2 SWAP1 PUSH2 0xEDA JUMP JUMPDEST PUSH1 0x40 MLOAD DUP1 SWAP2 SUB SWAP1 RETURN JUMPDEST CALLVALUE DUP1 ISZERO PUSH2 0x3B5 JUMPI PUSH1 0x0 DUP1 REVERT JUMPDEST POP PUSH2 0x3D0 PUSH1 0x4 DUP1 CALLDATASIZE SUB DUP2 ADD SWAP1 PUSH2 0x3CB SWAP2 SWAP1 PUSH2 0xDB3 JUMP JUMPDEST PUSH2 0xA1A JUMP JUMPDEST STOP JUMPDEST PUSH2 0x3DA PUSH2 0xB16 JUMP JUMPDEST STOP JUMPDEST CALLVALUE DUP1 ISZERO PUSH2 0x3E8 JUMPI PUSH1 0x0 DUP1 REVERT JUMPDEST POP PUSH2 0x403 PUSH1 0x4 DUP1 CALLDATASIZE SUB DUP2 ADD SWAP1 PUSH2 0x3FE SWAP2 SWAP1 PUSH2 0xE92 JUMP JUMPDEST PUSH2 0x51C JUMP JUMPDEST STOP JUMPDEST PUSH2 0x40D PUSH2 0xB31 JUMP JUMPDEST STOP JUMPDEST CALLVALUE DUP1 ISZERO PUSH2 0x41B JUMPI PUSH1 0x0 DUP1 REVERT JUMPDEST POP PUSH2 0x436 PUSH1 0x4 DUP1 CALLDATASIZE SUB DUP2 ADD SWAP1 PUSH2 0x431 SWAP2 SWAP1 PUSH2 0xF33 JUMP JUMPDEST PUSH2 0xB5D JUMP JUMPDEST PUSH1 0x40 MLOAD PUSH2 0x443 SWAP2 SWAP1 PUSH2 0xEDA JUMP JUMPDEST PUSH1 0x40 MLOAD DUP1 SWAP2 SUB SWAP1 RETURN JUMPDEST CALLVALUE DUP1 ISZERO PUSH2 0x458 JUMPI PUSH1 0x0 DUP1 REVERT JUMPDEST POP PUSH2 0x461 PUSH2 0xB7D JUMP JUMPDEST PUSH1 0x40 MLOAD PUSH2 0x46E SWAP2 SWAP1 PUSH2 0xDEF JUMP JUMPDEST PUSH1 0x40 MLOAD DUP1 SWAP2 SUB SWAP1 RETURN JUMPDEST CALLVALUE DUP1 ISZERO PUSH2 0x483 JUMPI PUSH1 0x0 DUP1 REVERT JUMPDEST POP PUSH2 0x48C PUSH2 0xBA1 JUMP JUMPDEST PUSH1 0x40 MLOAD PUSH2 0x499 SWAP2 SWAP1 PUSH2 0xDEF JUMP JUMPDEST PUSH1 0x40 MLOAD DUP1 SWAP2 SUB SWAP1 RETURN JUMPDEST CALLVALUE DUP1 ISZERO PUSH2 0x4AE JUMPI PUSH1 0x0 DUP1 REVERT JUMPDEST POP PUSH2 0x4B7 PUSH2 0xBAB JUMP JUMPDEST PUSH1 0x40 MLOAD PUSH2 0x4C4 SWAP2 SWAP1 PUSH2 0xDEF JUMP JUMPDEST PUSH1 0x40 MLOAD DUP1 SWAP2 SUB SWAP1 RETURN JUMPDEST PUSH1 0x0 DUP1 SLOAD SWAP1 PUSH2 0x100 EXP SWAP1 DIV PUSH1 0xFF AND PUSH2 0x51A JUMPI PUSH1 0x40 MLOAD PUSH32 0x8C379A000000000000000000000000000000000000000000000000000000000 DUP2 MSTORE PUSH1 0x4 ADD PUSH2 0x511 SWAP1 PUSH2 0xFE3 JUMP JUMPDEST PUSH1 0x40 MLOAD DUP1 SWAP2 SUB SWAP1 REVERT JUMPDEST JUMP JUMPDEST PUSH1 0x0 PUSH1 0x4 PUSH1 0x0 DUP4 PUSH20 0xFFFFFFFFFFFFFFFFFFFFFFFFFFFFFFFFFFFFFFFF AND PUSH20 0xFFFFFFFFFFFFFFFFFFFFFFFFFFFFFFFFFFFFFFFF AND DUP2 MSTORE PUSH1 0x20 ADD SWAP1 DUP2 MSTORE PUSH1 0x20 ADD PUSH1 0x0 KECCAK256 PUSH1 0x0 SWAP1 SLOAD SWAP1 PUSH2 0x100 EXP SWAP1 DIV PUSH1 0xFF AND SWAP1 POP DUP1 ISZERO PUSH2 0x5AE JUMPI PUSH1 0x40 MLOAD PUSH32 0x8C379A000000000000000000000000000000000000000000000000000000000 DUP2 MSTORE PUSH1 0x4 ADD PUSH2 0x5A5 SWAP1 PUSH2 0x1075 JUMP JUMPDEST PUSH1 0x40 MLOAD DUP1 SWAP2 SUB SWAP1 REVERT JUMPDEST PUSH1 0x1 PUSH1 0x4 PUSH1 0x0 DUP5 PUSH20 0xFFFFFFFFFFFFFFFFFFFFFFFFFFFFFFFFFFFFFFFF AND PUSH20 0xFFFFFFFFFFFFFFFFFFFFFFFFFFFFFFFFFFFFFFFF AND DUP2 MSTORE PUSH1 0x20 ADD SWAP1 DUP2 MSTORE PUSH1 0x20 ADD PUSH1 0x0 KECCAK256 PUSH1 0x0 PUSH2 0x100 EXP DUP2 SLOAD DUP2 PUSH1 0xFF MUL NOT AND SWAP1 DUP4 ISZERO ISZERO MUL OR SWAP1 SSTORE POP PUSH1 0x5 DUP3 SWAP1 DUP1 PUSH1 0x1 DUP2 SLOAD ADD DUP1 DUP3 SSTORE DUP1 SWAP2 POP POP PUSH1 0x1 SWAP1 SUB SWAP1 PUSH1 0x0 MSTORE PUSH1 0x20 PUSH1 0x0 KECCAK256 ADD PUSH1 0x0 SWAP1 SWAP2 SWAP1 SWAP2 SWAP1 SWAP2 PUSH2 0x100 EXP DUP2 SLOAD DUP2 PUSH20 0xFFFFFFFFFFFFFFFFFFFFFFFFFFFFFFFFFFFFFFFF MUL NOT AND SWAP1 DUP4 PUSH20 0xFFFFFFFFFFFFFFFFFFFFFFFFFFFFFFFFFFFFFFFF AND MUL OR SWAP1 SSTORE POP POP POP JUMP JUMPDEST CALLVALUE PUSH1 0x1 PUSH1 0x0 DUP3 DUP3 SLOAD PUSH2 0x67F SWAP2 SWAP1 PUSH2 0xD4E JUMP JUMPDEST SWAP3 POP POP DUP2 SWAP1 SSTORE POP JUMP JUMPDEST PUSH1 0x0 DUP1 DIFFICULTY TIMESTAMP PUSH1 0x40 MLOAD PUSH1 0x20 ADD PUSH2 0x69E SWAP3 SWAP2 SWAP1 PUSH2 0x10B6 JUMP JUMPDEST PUSH1 0x40 MLOAD PUSH1 0x20 DUP2 DUP4 SUB SUB DUP2 MSTORE SWAP1 PUSH1 0x40 MSTORE DUP1 MLOAD SWAP1 PUSH1 0x20 ADD KECCAK256 PUSH1 0x0 SHR SWAP1 POP DUP3 DUP2 PUSH2 0x6C5 SWAP2 SWAP1 PUSH2 0x1111 JUMP JUMPDEST SWAP2 POP POP SWAP2 SWAP1 POP JUMP JUMPDEST PUSH1 0x0 PUSH2 0x6D7 PUSH2 0x91D JUMP JUMPDEST SWAP1 POP PUSH1 0x0 PUSH20 0xFFFFFFFFFFFFFFFFFFFFFFFFFFFFFFFFFFFFFFFF AND DUP2 PUSH20 0xFFFFFFFFFFFFFFFFFFFFFFFFFFFFFFFFFFFFFFFF AND SUB ISZERO PUSH2 0x801 JUMPI PUSH1 0x0 PUSH1 0x64 PUSH1 0xA PUSH1 0x2 SLOAD PUSH2 0x721 SWAP2 SWAP1 PUSH2 0x1142 JUMP JUMPDEST PUSH2 0x72B SWAP2 SWAP1 PUSH2 0x1184 JUMP JUMPDEST SWAP1 POP PUSH1 0x0 DUP2 PUSH1 0x2 SLOAD PUSH1 0x3 SLOAD PUSH2 0x740 SWAP2 SWAP1 PUSH2 0xD4E JUMP JUMPDEST PUSH2 0x74A SWAP2 SWAP1 PUSH2 0x11B5 JUMP JUMPDEST SWAP1 POP PUSH1 0x0 PUSH1 0x2 DUP2 SWAP1 SSTORE POP PUSH1 0x0 PUSH1 0x3 DUP2 SWAP1 SSTORE POP PUSH20 0xAB8483F64D9C6D1ECF9B849AE677DD3315835CB2 PUSH20 0xFFFFFFFFFFFFFFFFFFFFFFFFFFFFFFFFFFFFFFFF AND PUSH2 0x8FC DUP4 SWAP1 DUP2 ISZERO MUL SWAP1 PUSH1 0x40 MLOAD PUSH1 0x0 PUSH1 0x40 MLOAD DUP1 DUP4 SUB DUP2 DUP6 DUP9 DUP9 CALL SWAP4 POP POP POP POP ISZERO DUP1 ISZERO PUSH2 0x7B6 JUMPI RETURNDATASIZE PUSH1 0x0 DUP1 RETURNDATACOPY RETURNDATASIZE PUSH1 0x0 REVERT JUMPDEST POP DUP3 PUSH20 0xFFFFFFFFFFFFFFFFFFFFFFFFFFFFFFFFFFFFFFFF AND PUSH2 0x8FC DUP3 SWAP1 DUP2 ISZERO MUL SWAP1 PUSH1 0x40 MLOAD PUSH1 0x0 PUSH1 0x40 MLOAD DUP1 DUP4 SUB DUP2 DUP6 DUP9 DUP9 CALL SWAP4 POP POP POP POP ISZERO DUP1 ISZERO PUSH2 0x7FD JUMPI RETURNDATASIZE PUSH1 0x0 DUP1 RETURNDATACOPY RETURNDATASIZE PUSH1 0x0 REVERT JUMPDEST POP POP POP JUMPDEST POP JUMP JUMPDEST PUSH1 0x5 DUP2 DUP2 SLOAD DUP2 LT PUSH2 0x814 JUMPI PUSH1 0x0 DUP1 REVERT JUMPDEST SWAP1 PUSH1 0x0 MSTORE PUSH1 0x20 PUSH1 0x0 KECCAK256 ADD PUSH1 0x0 SWAP2 POP SLOAD SWAP1 PUSH2 0x100 EXP SWAP1 DIV PUSH20 0xFFFFFFFFFFFFFFFFFFFFFFFFFFFFFFFFFFFFFFFF AND DUP2 JUMP JUMPDEST PUSH1 0x0 PUSH2 0x84D PUSH2 0xB7D JUMP JUMPDEST PUSH2 0x855 PUSH2 0x90B JUMP JUMPDEST LT ISZERO PUSH2 0x864 JUMPI PUSH2 0x863 PUSH2 0x11E9 JUMP JUMPDEST JUMPDEST PUSH2 0x86C PUSH2 0xB7D JUMP JUMPDEST PUSH2 0x874 PUSH2 0x90B JUMP JUMPDEST PUSH2 0x87E SWAP2 SWAP1 PUSH2 0x11B5 JUMP JUMPDEST SWAP1 POP SWAP1 JUMP JUMPDEST PUSH1 0x1 PUSH1 0x0 DUP1 PUSH2 0x100 EXP DUP2 SLOAD DUP2 PUSH1 0xFF MUL NOT AND SWAP1 DUP4 ISZERO ISZERO MUL OR SWAP1 SSTORE POP JUMP JUMPDEST PUSH1 0x0 PUSH1 0x1 DUP2 SWAP1 SSTORE POP PUSH20 0xAB8483F64D9C6D1ECF9B849AE677DD3315835CB2 PUSH20 0xFFFFFFFFFFFFFFFFFFFFFFFFFFFFFFFFFFFFFFFF AND PUSH2 0x8FC PUSH2 0x8DD PUSH2 0x90B JUMP JUMPDEST SWAP1 DUP2 ISZERO MUL SWAP1 PUSH1 0x40 MLOAD PUSH1 0x0 PUSH1 0x40 MLOAD DUP1 DUP4 SUB DUP2 DUP6 DUP9 DUP9 CALL SWAP4 POP POP POP POP ISZERO DUP1 ISZERO PUSH2 0x908 JUMPI RETURNDATASIZE PUSH1 0x0 DUP1 RETURNDATACOPY RETURNDATASIZE PUSH1 0x0 REVERT JUMPDEST POP JUMP JUMPDEST PUSH1 0x0 SELFBALANCE SWAP1 POP SWAP1 JUMP JUMPDEST PUSH1 0x0 PUSH1 0x2 SLOAD SWAP1 POP SWAP1 JUMP JUMPDEST PUSH1 0x0 DUP1 PUSH1 0x5 DUP1 SLOAD SWAP1 POP SWAP1 POP PUSH1 0x0 DUP1 DUP3 SUB PUSH2 0x93C JUMPI PUSH1 0x0 SWAP3 POP POP POP PUSH2 0x99D JUMP JUMPDEST PUSH1 0x1 DUP3 SUB PUSH2 0x94D JUMPI PUSH1 0x0 SWAP1 POP PUSH2 0x959 JUMP JUMPDEST PUSH2 0x956 DUP3 PUSH2 0x688 JUMP JUMPDEST SWAP1 POP JUMPDEST PUSH1 0x5 DUP2 DUP2 SLOAD DUP2 LT PUSH2 0x96D JUMPI PUSH2 0x96C PUSH2 0x1218 JUMP JUMPDEST JUMPDEST SWAP1 PUSH1 0x0 MSTORE PUSH1 0x20 PUSH1 0x0 KECCAK256 ADD PUSH1 0x0 SWAP1 SLOAD SWAP1 PUSH2 0x100 EXP SWAP1 DIV PUSH20 0xFFFFFFFFFFFFFFFFFFFFFFFFFFFFFFFFFFFFFFFF AND SWAP3 POP POP POP JUMPDEST SWAP1 JUMP JUMPDEST PUSH1 0x0 DUP1 PUSH1 0x0 PUSH2 0x100 EXP DUP2 SLOAD DUP2 PUSH1 0xFF MUL NOT AND SWAP1 DUP4 ISZERO ISZERO MUL OR SWAP1 SSTORE POP JUMP JUMPDEST PUSH1 0x0 PUSH2 0x9C6 PUSH2 0x4CD JUMP JUMPDEST PUSH1 0x4 PUSH1 0x0 DUP4 PUSH20 0xFFFFFFFFFFFFFFFFFFFFFFFFFFFFFFFFFFFFFFFF AND PUSH20 0xFFFFFFFFFFFFFFFFFFFFFFFFFFFFFFFFFFFFFFFF AND DUP2 MSTORE PUSH1 0x20 ADD SWAP1 DUP2 MSTORE PUSH1 0x20 ADD PUSH1 0x0 KECCAK256 PUSH1 0x0 SWAP1 SLOAD SWAP1 PUSH2 0x100 EXP SWAP1 DIV PUSH1 0xFF AND SWAP1 POP SWAP2 SWAP1 POP JUMP JUMPDEST PUSH1 0x0 PUSH2 0xA24 PUSH2 0x90B JUMP JUMPDEST SWAP1 POP DUP1 DUP3 GT ISZERO PUSH2 0xA33 DUP4 PUSH2 0xBB5 JUMP JUMPDEST PUSH2 0xA3C DUP4 PUSH2 0xBB5 JUMP JUMPDEST PUSH1 0x40 MLOAD PUSH1 0x20 ADD PUSH2 0xA4D SWAP3 SWAP2 SWAP1 PUSH2 0x1350 JUMP JUMPDEST PUSH1 0x40 MLOAD PUSH1 0x20 DUP2 DUP4 SUB SUB DUP2 MSTORE SWAP1 PUSH1 0x40 MSTORE SWAP1 PUSH2 0xA9D JUMPI PUSH1 0x40 MLOAD PUSH32 0x8C379A000000000000000000000000000000000000000000000000000000000 DUP2 MSTORE PUSH1 0x4 ADD PUSH2 0xA94 SWAP2 SWAP1 PUSH2 0x13D8 JUMP JUMPDEST PUSH1 0x40 MLOAD DUP1 SWAP2 SUB SWAP1 REVERT JUMPDEST POP DUP2 PUSH1 0x1 PUSH1 0x0 DUP3 DUP3 SLOAD PUSH2 0xAB0 SWAP2 SWAP1 PUSH2 0x11B5 JUMP JUMPDEST SWAP3 POP POP DUP2 SWAP1 SSTORE POP PUSH20 0xAB8483F64D9C6D1ECF9B849AE677DD3315835CB2 PUSH20 0xFFFFFFFFFFFFFFFFFFFFFFFFFFFFFFFFFFFFFFFF AND PUSH2 0x8FC DUP4 SWAP1 DUP2 ISZERO MUL SWAP1 PUSH1 0x40 MLOAD PUSH1 0x0 PUSH1 0x40 MLOAD DUP1 DUP4 SUB DUP2 DUP6 DUP9 DUP9 CALL SWAP4 POP POP POP POP ISZERO DUP1 ISZERO PUSH2 0xB11 JUMPI RETURNDATASIZE PUSH1 0x0 DUP1 RETURNDATACOPY RETURNDATASIZE PUSH1 0x0 REVERT JUMPDEST POP POP POP JUMP JUMPDEST CALLVALUE PUSH1 0x3 PUSH1 0x0 DUP3 DUP3 SLOAD PUSH2 0xB28 SWAP2 SWAP1 PUSH2 0xD4E JUMP JUMPDEST SWAP3 POP POP DUP2 SWAP1 SSTORE POP JUMP JUMPDEST PUSH2 0xB39 PUSH2 0x4CD JUMP JUMPDEST CALLVALUE PUSH1 0x2 PUSH1 0x0 DUP3 DUP3 SLOAD PUSH2 0xB4B SWAP2 SWAP1 PUSH2 0xD4E JUMP JUMPDEST SWAP3 POP POP DUP2 SWAP1 SSTORE POP PUSH2 0xB5B CALLER PUSH2 0x51C JUMP JUMPDEST JUMP JUMPDEST PUSH1 0x4 PUSH1 0x20 MSTORE DUP1 PUSH1 0x0 MSTORE PUSH1 0x40 PUSH1 0x0 KECCAK256 PUSH1 0x0 SWAP2 POP SLOAD SWAP1 PUSH2 0x100 EXP SWAP1 DIV PUSH1 0xFF AND DUP2 JUMP JUMPDEST PUSH1 0x0 PUSH1 0x3 SLOAD PUSH1 0x2 SLOAD PUSH1 0x1 SLOAD PUSH2 0xB92 SWAP2 SWAP1 PUSH2 0xD4E JUMP JUMPDEST PUSH2 0xB9C SWAP2 SWAP1 PUSH2 0xD4E JUMP JUMPDEST SWAP1 POP SWAP1 JUMP JUMPDEST PUSH1 0x0 PUSH1 0x1 SLOAD SWAP1 POP SWAP1 JUMP JUMPDEST PUSH1 0x0 PUSH1 0x3 SLOAD SWAP1 POP SWAP1 JUMP JUMPDEST PUSH1 0x60 PUSH1 0x0 DUP3 SUB PUSH2 0xBFC JUMPI PUSH1 0x40 MLOAD DUP1 PUSH1 0x40 ADD PUSH1 0x40 MSTORE DUP1 PUSH1 0x1 DUP2 MSTORE PUSH1 0x20 ADD PUSH32 0x3000000000000000000000000000000000000000000000000000000000000000 DUP2 MSTORE POP SWAP1 POP PUSH2 0xD10 JUMP JUMPDEST PUSH1 0x0 DUP3 SWAP1 POP PUSH1 0x0 JUMPDEST PUSH1 0x0 DUP3 EQ PUSH2 0xC2E JUMPI DUP1 DUP1 PUSH2 0xC17 SWAP1 PUSH2 0x13FA JUMP JUMPDEST SWAP2 POP POP PUSH1 0xA DUP3 PUSH2 0xC27 SWAP2 SWAP1 PUSH2 0x1184 JUMP JUMPDEST SWAP2 POP PUSH2 0xC04 JUMP JUMPDEST PUSH1 0x0 DUP2 PUSH8 0xFFFFFFFFFFFFFFFF DUP2 GT ISZERO PUSH2 0xC4A JUMPI PUSH2 0xC49 PUSH2 0x1442 JUMP JUMPDEST JUMPDEST PUSH1 0x40 MLOAD SWAP1 DUP1 DUP3 MSTORE DUP1 PUSH1 0x1F ADD PUSH1 0x1F NOT AND PUSH1 0x20 ADD DUP3 ADD PUSH1 0x40 MSTORE DUP1 ISZERO PUSH2 0xC7C JUMPI DUP2 PUSH1 0x20 ADD PUSH1 0x1 DUP3 MUL DUP1 CALLDATASIZE DUP4 CALLDATACOPY DUP1 DUP3 ADD SWAP2 POP POP SWAP1 POP JUMPDEST POP SWAP1 POP JUMPDEST PUSH1 0x0 DUP6 EQ PUSH2 0xD09 JUMPI PUSH1 0x1 DUP3 PUSH2 0xC95 SWAP2 SWAP1 PUSH2 0x11B5 JUMP JUMPDEST SWAP2 POP PUSH1 0xA DUP6 PUSH2 0xCA4 SWAP2 SWAP1 PUSH2 0x1111 JUMP JUMPDEST PUSH1 0x30 PUSH2 0xCB0 SWAP2 SWAP1 PUSH2 0xD4E JUMP JUMPDEST PUSH1 0xF8 SHL DUP2 DUP4 DUP2 MLOAD DUP2 LT PUSH2 0xCC6 JUMPI PUSH2 0xCC5 PUSH2 0x1218 JUMP JUMPDEST JUMPDEST PUSH1 0x20 ADD ADD SWAP1 PUSH31 0xFFFFFFFFFFFFFFFFFFFFFFFFFFFFFFFFFFFFFFFFFFFFFFFFFFFFFFFFFFFFFF NOT AND SWAP1 DUP2 PUSH1 0x0 BYTE SWAP1 MSTORE8 POP PUSH1 0xA DUP6 PUSH2 0xD02 SWAP2 SWAP1 PUSH2 0x1184 JUMP JUMPDEST SWAP5 POP PUSH2 0xC80 JUMP JUMPDEST DUP1 SWAP4 POP POP POP POP JUMPDEST SWAP2 SWAP1 POP JUMP JUMPDEST PUSH1 0x0 DUP2 SWAP1 POP SWAP2 SWAP1 POP JUMP JUMPDEST PUSH32 0x4E487B7100000000000000000000000000000000000000000000000000000000 PUSH1 0x0 MSTORE PUSH1 0x11 PUSH1 0x4 MSTORE PUSH1 0x24 PUSH1 0x0 REVERT JUMPDEST PUSH1 0x0 PUSH2 0xD59 DUP3 PUSH2 0xD15 JUMP JUMPDEST SWAP2 POP PUSH2 0xD64 DUP4 PUSH2 0xD15 JUMP JUMPDEST SWAP3 POP DUP3 DUP3 ADD SWAP1 POP DUP1 DUP3 GT ISZERO PUSH2 0xD7C JUMPI PUSH2 0xD7B PUSH2 0xD1F JUMP JUMPDEST JUMPDEST SWAP3 SWAP2 POP POP JUMP JUMPDEST PUSH1 0x0 DUP1 REVERT JUMPDEST PUSH2 0xD90 DUP2 PUSH2 0xD15 JUMP JUMPDEST DUP2 EQ PUSH2 0xD9B JUMPI PUSH1 0x0 DUP1 REVERT JUMPDEST POP JUMP JUMPDEST PUSH1 0x0 DUP2 CALLDATALOAD SWAP1 POP PUSH2 0xDAD DUP2 PUSH2 0xD87 JUMP JUMPDEST SWAP3 SWAP2 POP POP JUMP JUMPDEST PUSH1 0x0 PUSH1 0x20 DUP3 DUP5 SUB SLT ISZERO PUSH2 0xDC9 JUMPI PUSH2 0xDC8 PUSH2 0xD82 JUMP JUMPDEST JUMPDEST PUSH1 0x0 PUSH2 0xDD7 DUP5 DUP3 DUP6 ADD PUSH2 0xD9E JUMP JUMPDEST SWAP2 POP POP SWAP3 SWAP2 POP POP JUMP JUMPDEST PUSH2 0xDE9 DUP2 PUSH2 0xD15 JUMP JUMPDEST DUP3 MSTORE POP POP JUMP JUMPDEST PUSH1 0x0 PUSH1 0x20 DUP3 ADD SWAP1 POP PUSH2 0xE04 PUSH1 0x0 DUP4 ADD DUP5 PUSH2 0xDE0 JUMP JUMPDEST SWAP3 SWAP2 POP POP JUMP JUMPDEST PUSH1 0x0 PUSH20 0xFFFFFFFFFFFFFFFFFFFFFFFFFFFFFFFFFFFFFFFF DUP3 AND SWAP1 POP SWAP2 SWAP1 POP JUMP JUMPDEST PUSH1 0x0 PUSH2 0xE35 DUP3 PUSH2 0xE0A JUMP JUMPDEST SWAP1 POP SWAP2 SWAP1 POP JUMP JUMPDEST PUSH2 0xE45 DUP2 PUSH2 0xE2A JUMP JUMPDEST DUP3 MSTORE POP POP JUMP JUMPDEST PUSH1 0x0 PUSH1 0x20 DUP3 ADD SWAP1 POP PUSH2 0xE60 PUSH1 0x0 DUP4 ADD DUP5 PUSH2 0xE3C JUMP JUMPDEST SWAP3 SWAP2 POP POP JUMP JUMPDEST PUSH2 0xE6F DUP2 PUSH2 0xE2A JUMP JUMPDEST DUP2 EQ PUSH2 0xE7A JUMPI PUSH1 0x0 DUP1 REVERT JUMPDEST POP JUMP JUMPDEST PUSH1 0x0 DUP2 CALLDATALOAD SWAP1 POP PUSH2 0xE8C DUP2 PUSH2 0xE66 JUMP JUMPDEST SWAP3 SWAP2 POP POP JUMP JUMPDEST PUSH1 0x0 PUSH1 0x20 DUP3 DUP5 SUB SLT ISZERO PUSH2 0xEA8 JUMPI PUSH2 0xEA7 PUSH2 0xD82 JUMP JUMPDEST JUMPDEST PUSH1 0x0 PUSH2 0xEB6 DUP5 DUP3 DUP6 ADD PUSH2 0xE7D JUMP JUMPDEST SWAP2 POP POP SWAP3 SWAP2 POP POP JUMP JUMPDEST PUSH1 0x0 DUP2 ISZERO ISZERO SWAP1 POP SWAP2 SWAP1 POP JUMP JUMPDEST PUSH2 0xED4 DUP2 PUSH2 0xEBF JUMP JUMPDEST DUP3 MSTORE POP POP JUMP JUMPDEST PUSH1 0x0 PUSH1 0x20 DUP3 ADD SWAP1 POP PUSH2 0xEEF PUSH1 0x0 DUP4 ADD DUP5 PUSH2 0xECB JUMP JUMPDEST SWAP3 SWAP2 POP POP JUMP JUMPDEST PUSH1 0x0 PUSH2 0xF00 DUP3 PUSH2 0xE0A JUMP JUMPDEST SWAP1 POP SWAP2 SWAP1 POP JUMP JUMPDEST PUSH2 0xF10 DUP2 PUSH2 0xEF5 JUMP JUMPDEST DUP2 EQ PUSH2 0xF1B JUMPI PUSH1 0x0 DUP1 REVERT JUMPDEST POP JUMP JUMPDEST PUSH1 0x0 DUP2 CALLDATALOAD SWAP1 POP PUSH2 0xF2D DUP2 PUSH2 0xF07 JUMP JUMPDEST SWAP3 SWAP2 POP POP JUMP JUMPDEST PUSH1 0x0 PUSH1 0x20 DUP3 DUP5 SUB SLT ISZERO PUSH2 0xF49 JUMPI PUSH2 0xF48 PUSH2 0xD82 JUMP JUMPDEST JUMPDEST PUSH1 0x0 PUSH2 0xF57 DUP5 DUP3 DUP6 ADD PUSH2 0xF1E JUMP JUMPDEST SWAP2 POP POP SWAP3 SWAP2 POP POP JUMP JUMPDEST PUSH1 0x0 DUP3 DUP3 MSTORE PUSH1 0x20 DUP3 ADD SWAP1 POP SWAP3 SWAP2 POP POP JUMP JUMPDEST PUSH32 0x5468697320636F6E74726163742069732063757272656E746C79206469736162 PUSH1 0x0 DUP3 ADD MSTORE PUSH32 0x6C65642E00000000000000000000000000000000000000000000000000000000 PUSH1 0x20 DUP3 ADD MSTORE POP JUMP JUMPDEST PUSH1 0x0 PUSH2 0xFCD PUSH1 0x24 DUP4 PUSH2 0xF60 JUMP JUMPDEST SWAP2 POP PUSH2 0xFD8 DUP3 PUSH2 0xF71 JUMP JUMPDEST PUSH1 0x40 DUP3 ADD SWAP1 POP SWAP2 SWAP1 POP JUMP JUMPDEST PUSH1 0x0 PUSH1 0x20 DUP3 ADD SWAP1 POP DUP2 DUP2 SUB PUSH1 0x0 DUP4 ADD MSTORE PUSH2 0xFFC DUP2 PUSH2 0xFC0 JUMP JUMPDEST SWAP1 POP SWAP2 SWAP1 POP JUMP JUMPDEST PUSH32 0x5468697320616464726573732068617320616C726561647920656E7465726564 PUSH1 0x0 DUP3 ADD MSTORE PUSH32 0x20746865206C6F74746572792E00000000000000000000000000000000000000 PUSH1 0x20 DUP3 ADD MSTORE POP JUMP JUMPDEST PUSH1 0x0 PUSH2 0x105F PUSH1 0x2D DUP4 PUSH2 0xF60 JUMP JUMPDEST SWAP2 POP PUSH2 0x106A DUP3 PUSH2 0x1003 JUMP JUMPDEST PUSH1 0x40 DUP3 ADD SWAP1 POP SWAP2 SWAP1 POP JUMP JUMPDEST PUSH1 0x0 PUSH1 0x20 DUP3 ADD SWAP1 POP DUP2 DUP2 SUB PUSH1 0x0 DUP4 ADD MSTORE PUSH2 0x108E DUP2 PUSH2 0x1052 JUMP JUMPDEST SWAP1 POP SWAP2 SWAP1 POP JUMP JUMPDEST PUSH1 0x0 DUP2 SWAP1 POP SWAP2 SWAP1 POP JUMP JUMPDEST PUSH2 0x10B0 PUSH2 0x10AB DUP3 PUSH2 0xD15 JUMP JUMPDEST PUSH2 0x1095 JUMP JUMPDEST DUP3 MSTORE POP POP JUMP JUMPDEST PUSH1 0x0 PUSH2 0x10C2 DUP3 DUP6 PUSH2 0x109F JUMP JUMPDEST PUSH1 0x20 DUP3 ADD SWAP2 POP PUSH2 0x10D2 DUP3 DUP5 PUSH2 0x109F JUMP JUMPDEST PUSH1 0x20 DUP3 ADD SWAP2 POP DUP2 SWAP1 POP SWAP4 SWAP3 POP POP POP JUMP JUMPDEST PUSH32 0x4E487B7100000000000000000000000000000000000000000000000000000000 PUSH1 0x0 MSTORE PUSH1 0x12 PUSH1 0x4 MSTORE PUSH1 0x24 PUSH1 0x0 REVERT JUMPDEST PUSH1 0x0 PUSH2 0x111C DUP3 PUSH2 0xD15 JUMP JUMPDEST SWAP2 POP PUSH2 0x1127 DUP4 PUSH2 0xD15 JUMP JUMPDEST SWAP3 POP DUP3 PUSH2 0x1137 JUMPI PUSH2 0x1136 PUSH2 0x10E2 JUMP JUMPDEST JUMPDEST DUP3 DUP3 MOD SWAP1 POP SWAP3 SWAP2 POP POP JUMP JUMPDEST PUSH1 0x0 PUSH2 0x114D DUP3 PUSH2 0xD15 JUMP JUMPDEST SWAP2 POP PUSH2 0x1158 DUP4 PUSH2 0xD15 JUMP JUMPDEST SWAP3 POP DUP3 DUP3 MUL PUSH2 0x1166 DUP2 PUSH2 0xD15 JUMP JUMPDEST SWAP2 POP DUP3 DUP3 DIV DUP5 EQ DUP4 ISZERO OR PUSH2 0x117D JUMPI PUSH2 0x117C PUSH2 0xD1F JUMP JUMPDEST JUMPDEST POP SWAP3 SWAP2 POP POP JUMP JUMPDEST PUSH1 0x0 PUSH2 0x118F DUP3 PUSH2 0xD15 JUMP JUMPDEST SWAP2 POP PUSH2 0x119A DUP4 PUSH2 0xD15 JUMP JUMPDEST SWAP3 POP DUP3 PUSH2 0x11AA JUMPI PUSH2 0x11A9 PUSH2 0x10E2 JUMP JUMPDEST JUMPDEST DUP3 DUP3 DIV SWAP1 POP SWAP3 SWAP2 POP POP JUMP JUMPDEST PUSH1 0x0 PUSH2 0x11C0 DUP3 PUSH2 0xD15 JUMP JUMPDEST SWAP2 POP PUSH2 0x11CB DUP4 PUSH2 0xD15 JUMP JUMPDEST SWAP3 POP DUP3 DUP3 SUB SWAP1 POP DUP2 DUP2 GT ISZERO PUSH2 0x11E3 JUMPI PUSH2 0x11E2 PUSH2 0xD1F JUMP JUMPDEST JUMPDEST SWAP3 SWAP2 POP POP JUMP JUMPDEST PUSH32 0x4E487B7100000000000000000000000000000000000000000000000000000000 PUSH1 0x0 MSTORE PUSH1 0x1 PUSH1 0x4 MSTORE PUSH1 0x24 PUSH1 0x0 REVERT JUMPDEST PUSH32 0x4E487B7100000000000000000000000000000000000000000000000000000000 PUSH1 0x0 MSTORE PUSH1 0x32 PUSH1 0x4 MSTORE PUSH1 0x24 PUSH1 0x0 REVERT JUMPDEST PUSH32 0x54686520616D6F756E7420000000000000000000000000000000000000000000 DUP2 MSTORE POP JUMP JUMPDEST PUSH1 0x0 DUP2 MLOAD SWAP1 POP SWAP2 SWAP1 POP JUMP JUMPDEST PUSH1 0x0 DUP2 SWAP1 POP SWAP3 SWAP2 POP POP JUMP JUMPDEST PUSH1 0x0 JUMPDEST DUP4 DUP2 LT ISZERO PUSH2 0x12A1 JUMPI DUP1 DUP3 ADD MLOAD DUP2 DUP5 ADD MSTORE PUSH1 0x20 DUP2 ADD SWAP1 POP PUSH2 0x1286 JUMP JUMPDEST PUSH1 0x0 DUP5 DUP5 ADD MSTORE POP POP POP POP JUMP JUMPDEST PUSH1 0x0 PUSH2 0x12B8 DUP3 PUSH2 0x126D JUMP JUMPDEST PUSH2 0x12C2 DUP2 DUP6 PUSH2 0x1278 JUMP JUMPDEST SWAP4 POP PUSH2 0x12D2 DUP2 DUP6 PUSH1 0x20 DUP7 ADD PUSH2 0x1283 JUMP JUMPDEST DUP1 DUP5 ADD SWAP2 POP POP SWAP3 SWAP2 POP POP JUMP JUMPDEST PUSH32 0x2069732067726561746572207468616E2074686520636F6E7472616374206261 PUSH1 0x0 DUP3 ADD MSTORE PUSH32 0x6C616E6365200000000000000000000000000000000000000000000000000000 PUSH1 0x20 DUP3 ADD MSTORE POP JUMP JUMPDEST PUSH1 0x0 PUSH2 0x133A PUSH1 0x26 DUP4 PUSH2 0x1278 JUMP JUMPDEST SWAP2 POP PUSH2 0x1345 DUP3 PUSH2 0x12DE JUMP JUMPDEST PUSH1 0x26 DUP3 ADD SWAP1 POP SWAP2 SWAP1 POP JUMP JUMPDEST PUSH1 0x0 PUSH2 0x135B DUP3 PUSH2 0x1247 JUMP JUMPDEST PUSH1 0xB DUP3 ADD SWAP2 POP PUSH2 0x136B DUP3 DUP6 PUSH2 0x12AD JUMP JUMPDEST SWAP2 POP PUSH2 0x1376 DUP3 PUSH2 0x132D JUMP JUMPDEST SWAP2 POP PUSH2 0x1382 DUP3 DUP5 PUSH2 0x12AD JUMP JUMPDEST SWAP2 POP DUP2 SWAP1 POP SWAP4 SWAP3 POP POP POP JUMP JUMPDEST PUSH1 0x0 PUSH1 0x1F NOT PUSH1 0x1F DUP4 ADD AND SWAP1 POP SWAP2 SWAP1 POP JUMP JUMPDEST PUSH1 0x0 PUSH2 0x13AA DUP3 PUSH2 0x126D JUMP JUMPDEST PUSH2 0x13B4 DUP2 DUP6 PUSH2 0xF60 JUMP JUMPDEST SWAP4 POP PUSH2 0x13C4 DUP2 DUP6 PUSH1 0x20 DUP7 ADD PUSH2 0x1283 JUMP JUMPDEST PUSH2 0x13CD DUP2 PUSH2 0x138E JUMP JUMPDEST DUP5 ADD SWAP2 POP POP SWAP3 SWAP2 POP POP JUMP JUMPDEST PUSH1 0x0 PUSH1 0x20 DUP3 ADD SWAP1 POP DUP2 DUP2 SUB PUSH1 0x0 DUP4 ADD MSTORE PUSH2 0x13F2 DUP2 DUP5 PUSH2 0x139F JUMP JUMPDEST SWAP1 POP SWAP3 SWAP2 POP POP JUMP JUMPDEST PUSH1 0x0 PUSH2 0x1405 DUP3 PUSH2 0xD15 JUMP JUMPDEST SWAP2 POP PUSH32 0xFFFFFFFFFFFFFFFFFFFFFFFFFFFFFFFFFFFFFFFFFFFFFFFFFFFFFFFFFFFFFFFF DUP3 SUB PUSH2 0x1437 JUMPI PUSH2 0x1436 PUSH2 0xD1F JUMP JUMPDEST JUMPDEST PUSH1 0x1 DUP3 ADD SWAP1 POP SWAP2 SWAP1 POP JUMP JUMPDEST PUSH32 0x4E487B7100000000000000000000000000000000000000000000000000000000 PUSH1 0x0 MSTORE PUSH1 0x41 PUSH1 0x4 MSTORE PUSH1 0x24 PUSH1 0x0 REVERT INVALID LOG2 PUSH5 0x6970667358 0x22 SLT KECCAK256 SHL MSTORE SWAP11 CODECOPY PUSH12 0xD06776BFAB2B641456C8EB48 CALLDATASIZE SELFBALANCE SMOD PUSH8 0x3ED40BC355200F9C PC GASLIMIT 0x1F PUSH5 0x736F6C6343 STOP ADDMOD GT STOP CALLER "
		},
		"gasEstimates": {
			"creation": {
				"codeDepositCost": "1057400",
				"executionCost": "25343",
				"totalCost": "1082743"
			},
			"external": {
				"addBonusPrizePool()": "infinite",
				"addContractFunds()": "infinite",
				"chooseWinningAddress()": "infinite",
				"disableContract()": "24456",
				"enableContract()": "24434",
				"endLottery()": "infinite",
				"fundLottery()": "infinite",
				"getAccountedContractBalance()": "infinite",
				"getBonusPrizePool()": "2569",
				"getContractBalance()": "428",
				"getContractFunds()": "2547",
				"getExtraContractBalance()": "infinite",
				"getPlayerPrizePool()": "2548",
				"isAddressPlaying(address)": "5124",
				"list_playerAddress(uint256)": "5046",
				"map_isPlaying(address)": "2911",
				"randomInt(uint256)": "infinite",
				"registerAddress(address)": "75672",
				"removeAllContractFunds()": "infinite",
				"removeContractFunds(uint256)": "infinite",
				"requireContractEnabled()": "2646"
			}
		},
		"methodIdentifiers": {
			"addBonusPrizePool()": "97d47113",
			"addContractFunds()": "008b8d89",
			"chooseWinningAddress()": "7f798243",
			"disableContract()": "894ba833",
			"enableContract()": "367edd32",
			"endLottery()": "1593a8c7",
			"fundLottery()": "b5cc4539",
			"getAccountedContractBalance()": "d1cdb323",
			"getBonusPrizePool()": "f0d5c534",
			"getContractBalance()": "6f9fb98a",
			"getContractFunds()": "e0cb8a81",
			"getExtraContractBalance()": "2a41a975",
			"getPlayerPrizePool()": "7c623f7b",
			"isAddressPlaying(address)": "912a90bb",
			"list_playerAddress(uint256)": "27dff143",
			"map_isPlaying(address)": "bff82dee",
			"randomInt(uint256)": "12845966",
			"registerAddress(address)": "a8a54008",
			"removeAllContractFunds()": "605e16ec",
			"removeContractFunds(uint256)": "944b3fe5",
			"requireContractEnabled()": "3b4ad0e5"
		}
	},
	"abi": [
		{
			"inputs": [],
			"stateMutability": "payable",
			"type": "constructor"
		},
		{
			"inputs": [],
			"name": "addBonusPrizePool",
			"outputs": [],
			"stateMutability": "payable",
			"type": "function"
		},
		{
			"inputs": [],
			"name": "addContractFunds",
			"outputs": [],
			"stateMutability": "payable",
			"type": "function"
		},
		{
			"inputs": [],
			"name": "chooseWinningAddress",
			"outputs": [
				{
					"internalType": "address payable",
					"name": "",
					"type": "address"
				}
			],
			"stateMutability": "view",
			"type": "function"
		},
		{
			"inputs": [],
			"name": "disableContract",
			"outputs": [],
			"stateMutability": "nonpayable",
			"type": "function"
		},
		{
			"inputs": [],
			"name": "enableContract",
			"outputs": [],
			"stateMutability": "nonpayable",
			"type": "function"
		},
		{
			"inputs": [],
			"name": "endLottery",
			"outputs": [],
			"stateMutability": "nonpayable",
			"type": "function"
		},
		{
			"inputs": [],
			"name": "fundLottery",
			"outputs": [],
			"stateMutability": "payable",
			"type": "function"
		},
		{
			"inputs": [],
			"name": "getAccountedContractBalance",
			"outputs": [
				{
					"internalType": "uint256",
					"name": "",
					"type": "uint256"
				}
			],
			"stateMutability": "view",
			"type": "function"
		},
		{
			"inputs": [],
			"name": "getBonusPrizePool",
			"outputs": [
				{
					"internalType": "uint256",
					"name": "",
					"type": "uint256"
				}
			],
			"stateMutability": "view",
			"type": "function"
		},
		{
			"inputs": [],
			"name": "getContractBalance",
			"outputs": [
				{
					"internalType": "uint256",
					"name": "",
					"type": "uint256"
				}
			],
			"stateMutability": "view",
			"type": "function"
		},
		{
			"inputs": [],
			"name": "getContractFunds",
			"outputs": [
				{
					"internalType": "uint256",
					"name": "",
					"type": "uint256"
				}
			],
			"stateMutability": "view",
			"type": "function"
		},
		{
			"inputs": [],
			"name": "getExtraContractBalance",
			"outputs": [
				{
					"internalType": "uint256",
					"name": "",
					"type": "uint256"
				}
			],
			"stateMutability": "view",
			"type": "function"
		},
		{
			"inputs": [],
			"name": "getPlayerPrizePool",
			"outputs": [
				{
					"internalType": "uint256",
					"name": "",
					"type": "uint256"
				}
			],
			"stateMutability": "view",
			"type": "function"
		},
		{
			"inputs": [
				{
					"internalType": "address payable",
					"name": "playerAddress",
					"type": "address"
				}
			],
			"name": "isAddressPlaying",
			"outputs": [
				{
					"internalType": "bool",
					"name": "",
					"type": "bool"
				}
			],
			"stateMutability": "view",
			"type": "function"
		},
		{
			"inputs": [
				{
					"internalType": "uint256",
					"name": "",
					"type": "uint256"
				}
			],
			"name": "list_playerAddress",
			"outputs": [
				{
					"internalType": "address payable",
					"name": "",
					"type": "address"
				}
			],
			"stateMutability": "view",
			"type": "function"
		},
		{
			"inputs": [
				{
					"internalType": "address",
					"name": "",
					"type": "address"
				}
			],
			"name": "map_isPlaying",
			"outputs": [
				{
					"internalType": "bool",
					"name": "",
					"type": "bool"
				}
			],
			"stateMutability": "view",
			"type": "function"
		},
		{
			"inputs": [
				{
					"internalType": "uint256",
					"name": "N",
					"type": "uint256"
				}
			],
			"name": "randomInt",
			"outputs": [
				{
					"internalType": "uint256",
					"name": "",
					"type": "uint256"
				}
			],
			"stateMutability": "view",
			"type": "function"
		},
		{
			"inputs": [
				{
					"internalType": "address payable",
					"name": "playerAddress",
					"type": "address"
				}
			],
			"name": "registerAddress",
			"outputs": [],
			"stateMutability": "nonpayable",
			"type": "function"
		},
		{
			"inputs": [],
			"name": "removeAllContractFunds",
			"outputs": [],
			"stateMutability": "nonpayable",
			"type": "function"
		},
		{
			"inputs": [
				{
					"internalType": "uint256",
					"name": "amount",
					"type": "uint256"
				}
			],
			"name": "removeContractFunds",
			"outputs": [],
			"stateMutability": "nonpayable",
			"type": "function"
		},
		{
			"inputs": [],
			"name": "requireContractEnabled",
			"outputs": [],
			"stateMutability": "view",
			"type": "function"
		},
		{
			"stateMutability": "payable",
			"type": "receive"
		}
	]
}